12751768431     02751768431   WOSTENILDO CRISPIM RAMALHO                        FANRUA MAJOR CICERO SATYRO                           BELO HORIZONTE                                    PATOS                                             PB58704340RUA PRFA CLOTILDE MEIRA                           BELO HORIZONTE                                    SOUSA                                             PB58803710RUA MAJOR CICERO SATYRO                           BELO HORIZONTE                                    PATOS                                             PB5870434083 99323513           83 99323513drwcramalho@gmail.com.br                                                                            00000000000000000000000000                                                                                                                  2315461             SSMOMEDICO                                            00000000000000000019790503                                                                       00000000201807251
13538289476     03538289476   JORGE HENRIQUE B. FRAGOSO PEREIRA                 FANRUA FRANCISCO BEZERRA DE SOUSA                    CENTRO                                            POMBAL                                            PB58840000RUA FRANCISCO BEZERRA DE SOUSA                    CENTRO                                            POMBAL                                            PB58840000RUA FRANCISCO BEZERRA DE SOUSA                    CENTRO                                            POMBAL                                            PB5884000083 9991242083 9991242083 99912420jorgehenrique21264@gmail.com                                                                        00000000000000000000000000                                                                                                                  2482569             SSMCADVOGADO                                          00000000000000000019801208                                                                       00000000201209151
14352666408     04352666408   JOAQUIM RODRIGUES SOBRINHO                        FCNSITIO ESPERA                                      AREA RURAL                                        SERRA GRANDE                                      PB58955000SITIO ESPERA                                      AREA RURAL                                        SERRA GRANDE                                      PB58955000SITIO ESPERA                                      AREA RURAL                                        SERRA GRANDE                                      PB5895500083 9821465183 9821465183 98214651jrsobrinho653@gmail.com                                                                             00000000000000000000000000                                                                                                                  2572468             SSMCFUNCIONARIO PUBLICO                               00000000000000000019810421                                                                       00000000202305111
18257097411     08257097411   CYNTHYA PAMELLA PINTO QUEIROZ CAMPOS              FCNRUA PINTO MADEIRO                                 CENTRO                                            ITAPORANGA                                        PB58780000RUA PINTO MADEIRO                                 CENTRO                                            ITAPORANGA                                        PB58780000RUA PINTO MADEIRO                                 CENTRO                                            ITAPORANGA                                        PB5878000083 9999220283 9999220283 99992202cynthyapamellapq@gmail.com                                                                          00000000000000000000000000                                                                                                                  3452124             SSFCMEDICA                                            00000000000000000019901127                                                                       00000000202305041
18499095461     08499095461   ALEXANDRE HENRIQUE COSTA GONCALVES                FCNRUA BOSSUET WANDERLEY                             BRASILIA                                          PATOS                                             PB58700410RUA BOSSUET WANDERLEY                             BRASILIA                                          PATOS                                             PB58700410RUA BOSSUET WANDERLEY                             BRASILIA                                          PATOS                                             PB5870041083 9965790483 9965790483 99657904alexandrehenrique.hcg@gmail.com                                                                     00000000000000000000000000                                                                                                                  3863836             SSMSMEDICO                                            00000000000000000019980327                                                                       00000000202305251
118124178453    18124178453   EDNALDO MARQUES BEZERRA                           FCNRUA LINO GOMES DA SILVA                           SAO JOSE                                          CAMPINA GRANDE                                    PB58400360RUA INACIO DO LEAO, 678                           SAO JOSE                                          PATOS                                             PB58701000RUA LINO GOMES DA SILVA                           SAO JOSE                                          CAMPINA GRANDE                                    PB5840036083 98784135                      ilkalietanm@gmail.com                                                                               00000000000000000000000000                                                                                                                  298810              .SMSOUTROS                                            00000000000000000019560402                                                                       00000000200202131
134324771472    34324771472   SELDA MARIA DANTAS MEDEIROS                       FCNRUA ALUIZIO LIMA                                  SALGADINHO                                        PATOS                                             PB58706590RUA ALUIZIO LIMA                                  SALGADINHO                                        PATOS                                             PB58706590RUA ALUIZIO LIMA                                  SALGADINHO                                        PATOS                                             PB5870659083 3422176083 3422176083 96018244j.nveiculos@ig.com.br                                                                               00000000000000000000000000                                                                                                                  727095              SSFCPROFESSOR                                         00000000000000000019611226                                                                       00000000201411071
19581402000100  09581402000100MOISES MEDEIROS DE ARAUJO                         JCNFRANCISCO NOGUEIRA FILHO                          CENTRO                                            SAO MAMEDE                                        PB58625000FRANCISCO NOGUEIRA FILHO                          CENTRO                                            SAO MAMEDE                                        PB58625000FRANCISCO NOGUEIRA FILHO                          CENTRO                                            SAO MAMEDE                                        PB5862500083 98768031           83 98768031moisestapera@hotmail.com                                                                            00000000000000000000000000              BOX UNIAO                                         VAREJO                                                                                                                      00000000000000000000000000                                                                       00000000202305131
14307757416     04307757416   FABIO LUCENA DE MEDEIROS                          FANRUA SEVERINO RODRIGUES TORRES                     AGENOR RIQUE                                      SAO MAMEDE                                        PB58625000RUA SEVERINO RODRIGUES TORRES                     AGENOR RIQUE                                      SAO MAMEDE                                        PB58625000RUA SEVERINO RODRIGUES TORRES                     AGENOR RIQUE                                      SAO MAMEDE                                        PB5862500083 98621931                      fabiolucena4.67@gmail.com                                                                           00000000000000000000000000                                                                                                                  .                   . MOOUTROS                                            00000000000000000019800101                                                                       00000000202102231
15522685425     05522685425   JOAO PAULO DA NOBREGA MEDEIROS                    FCNINACIO PEDRO MONTEIRO                             SALGADINHO                                        PATOS                                             PB58706642INACIO PEDRO MONTEIRO                             SALGADINHO                                        PATOS                                             PB58706642INACIO PEDRO MONTEIRO                             SALGADINHO                                        PATOS                                             PB5870664283 9884595283 9884595283 98845952jpnobrega2021@hotmail.com                                                                           00000000000000000000000000                                                                                                                  3223356             SSMCVENDA DE PECAS E ACESSORIOS                       00000000000000000019870701                                                                       00000000202305171
18228756402     08228756402   WALLYSON ALVES XAVIER                             FCNR TEODOMIRO RAMALHO RANGEL                        SAO JOSE                                          CONCEICAO                                         PB58970000R TEODOMIRO RAMALHO RANGEL                        SAO JOSE                                          CONCEICAO                                         PB58970000R TEODOMIRO RAMALHO RANGEL                        SAO JOSE                                          CONCEICAO                                         PB5897000083 9999680283 99969125           wallyson.adv@gmail.com                                                                              00000000000000000000000000                                                                                                                  3425332             SSMCADVOGADO                                          00000000000000000019901119                                                                       00000000202305221
19323277452     09323277452   JOELMYR LAYMERSON DE SOUZA ALVES                  FANRUA AVIADOR ROBERTO MARQUES                       BESSA                                             JOAO PESSOA                                       PB58000000RUA AVIADOR ROBERTO MARQUES                       BESSA                                             JOAO PESSOA                                       PB58000000RUA AVIADOR ROBERTO MARQUES                       BESSA                                             JOAO PESSOA                                       PB5800000087 9881645987 9881645987 98816459joelmyrlaymerson@gmail.com                                                                          00000000000000000000000000                                                                                                                  .                   . MOOUTROS                                            00000000000000000019900227                                                                       00000000202008061
130078261449    30078261449   JUANA MARIA FERREIRA DE SOUSA                     FCNCICERO BEZERRA                                    MAIA                                              PRINCESA ISABEL                                   PB58755000CICERO BEZERRA                                    MAIA                                              PRINCESA ISABEL                                   PB58755000CICERO BEZERRA                                    MAIA                                              PRINCESA ISABEL                                   PB5875500083 99932441                      romulodesousaferraz@gotmail.com                                                                     00000000000000000000000000                                                                                                                  375363              SSFOAPOSENTADO                                        00000000000000000019410429                                                                       00000000202305111
150468340491    50468340491   BERNADETE VALENTIM DA NOBREGA COMPERTINO          FCNSITIO MULUNGU                                     AREA RURAL                                        MONTEIRO                                          PB58500000SITIO MULUNGU                                     AREA RURAL                                        MONTEIRO                                          PB58500000SITIO MULUNGU                                     AREA RURAL                                        MONTEIRO                                          PB5850000083 9962716083 9962716083 99627160bernadete.nobrega@hotmail.com                                                                       00000000000000000000000000                                                                                                                  1127277             SSFCCOMERCIANTE                                       00000000000000000019661003                                                                       00000000202305081
178938015491    78938015491   CARLOS VAGNER DE SOUSA MENDES                     FCNRUA ESTUDANTE JOSINALDO  TARGINO                  NOE TRAJANO                                       PATOS                                             PB58705178RUA ESTUDANTE JOSINALDO  TARGINO                  NOE TRAJANO                                       PATOS                                             PB58705178RUA ESTUDANTE JOSINALDO  TARGINO                  NOE TRAJANO                                       PATOS                                             PB5870517883 98170628           83 99830073carloscarloscarlos138@gmail.com                                                                     00000000000000000000000000                                                                                                                  1603151             SSMCTAXISTA                                           00000000000000000019700302                                                                       00000000202103041
141207788000199 41207788000199VD AUTOMOVEIS LTDA                                JCNRUA JOSE LINS DO REGO                             PALMEIRA                                          CAMPINA GRANDE                                    PB58401145RUA JOSE LINS DO REGO                             PALMEIRA                                          CAMPINA GRANDE                                    PB58401145RUA JOSE LINS DO REGO                             PALMEIRA                                          CAMPINA GRANDE                                    PB5810161083 3322478283 3322478283 99856546vdcarltda@gmail.com                                                                                 00000000000000000000000000161264999     VD CAR                                            ATACADO                                                                                                                     00000000000000000000000000                                                                       00000000200405101
12223340458     02223340458   VLADIMIR MOTA CHAGAS                              FCNRUA ELIAS ASFORA                                  MATERNIDADE                                       PATOS                                             PB58701300                                                  MATERNIDADE                                                                                           00000000RUA ELIAS ASFORA                                  MATERNIDADE                                       PATOS                                             PB5870130087 99921111                      vladimirchagas@gmail.com                                                                            00000000000000000000000000                                                                                                                                         OOUTROS                                            00000000000000000018991230                                                                       00000000202305031
13146644401     03146644401   LUZINEIDE FELIX CAMPOS DOS SANTOS                 FANRUA ALEXANDRINA MARIA DE LUCENA                   CENTRO                                            SANTA TERESINHA                                   PB58720000RUA ALEXANDRINA MARIA DE LUCENA                   CENTRO                                            SANTA TERESINHA                                   PB58720000RUA ALEXANDRINA MARIA DE LUCENA                   CENTRO                                            SANTA TERESINHA                                   PB5872000083 98167043           83 98111111ledafcsantos@gmail.com                                                                              00000000000000000000000000                                                                                                                  2426036             SSFCOUTROS                                            00000000000000000019781003                                                                       00000000201212041
15379889476     05379889476   MARIA HELENA PEREIRA DE LIRA                      FCNRUA FRANCISCO BATISTA DOS SANTOS                  CENTRO                                            BELEM DO BREJO DO CRUZ                            PB58895000                                                  CENTRO                                                                                                00000000RUA FRANCISCO BATISTA DOS SANTOS                  CENTRO                                            BELEM DO BREJO DO CRUZ                            PB5889500083 9961938383 9961938383 99619383mh-heleninha@hotmail.com                                                                            00000000000000000000000000                                                                                                                  002716155           SSFSFARMACEUTICO                                      00000000000000000019890309                                                                       00000000202305171
16746244407     06746244407   CICERO BENTO DA SILVA                             FANRUA ARLINDO BENTO DE MORAIS                       SAO JOSE                                          SANTA LUZIA                                       PB58600000RUA ARLINDO BENTO DE MORAIS                       SAO JOSE                                          SANTA LUZIA                                       PB58600000RUA ARLINDO BENTO DE MORAIS                       SAO JOSE                                          SANTA LUZIA                                       PB5860000083 99875287           83 99875287cicerobento81@gmail.com                                                                             00000000000000000000000000                                                                                                                  245799127           DIMOOUTROS                                            00000000000000000019851126                                                                       00000000201809111
16306156402     06306156402   FELIPE DE OLIVEIRA ARAUJO                         FANRUA DINAMERICO PALMEIRA                           JATOBA                                            PATOS                                             PB58707260RUA DINAMERICO PALMEIRA                           JATOBA                                            PATOS                                             PB58707260RUA DINAMERICO PALMEIRA                           JATOBA                                            PATOS                                             PB5870726083 99654750           83 99171009felipearaujo2502@gmail.com                                                                          00000000000000000000000000                                                                                                                  3188523             SSMOOUTROS                                            00000000000000000019880225                                                                       00000000201403071
17357812499     07357812499   TAMIA SILVEIRA MAIA                               FCNRUA SAO VICENTE DE PAULO                          CENTRO                                            BREJO DO CRUZ                                     PB58890000RUA SAO VICENTE DE PAULO                          CENTRO                                            BREJO DO CRUZ                                     PB58890000RUA SAO VICENTE DE PAULO                          CENTRO                                            BREJO DO CRUZ                                     PB5889000083 99968584                      taminha_silveira@hotmail.com                                                                        00000000000000000000000000                                                                                                                  3265802             SSFSMEDICA                                            00000000000000000019891017                                                                       00000000202305081
139634027415    39634027415   JOSESTER MINERVINO E SILVA                        FANRUA VEREADOR NE MARINHO                           BELO HORIZONTE                                    PATOS                                             PB58704280RUA VEREADOR NE MARINHO                           BELO HORIZONTE                                    PATOS                                             PB58704280RUA VEREADOR NE MARINHO                           BELO HORIZONTE                                    PATOS                                             PB5870428083 9962967283 9962967283 99629672josester10.minervino@gmail.com                                                                      00000000000000000000000000                                                                                                                  911038              SSMOOUTROS                                            00000000000000000019631214                                                                       00000000201103041
172771607468    72771607468   JORDELMA DA COSTA LUCENA NEVES                    FCNRUA JOSE JORGE                                    SANTO ANTONIO                                     PATOS                                             PB58701210RUA JOSE JORGE                                    SANTO ANTONIO                                     PATOS                                             PB58701210RUA JOSE JORGE                                    SANTO ANTONIO                                     PATOS                                             PB5870121083 9982328283 99849383           jordelmaadv@gmail.com                                                                               00000000000000000000000000                                                                                                                  1420708               FCADVOGADO                                          00000000000000000019700909                                                                       00000000202304171
11347117423     01347117423   DIEGO MENDES FALCAO                               FCNPEDRO II                                          CENTRO                                            PATOS                                             PB58013420PEDRO II                                          CENTRO                                            PATOS                                             PB58013420PEDRO II                                          CENTRO                                            PATOS                                             PB5801342083 9888801883 9888801883 98888018diegofalcao@hotmail.com.br                                                                          00000000000000000000000000                                                                                                                  2799429             SSFSADMINISTRADOR                                     00000000000000000019870607                                                                       00000000202211231
15813817425     05813817425   ANA MARIA LOPES BRASILEIRO                        FCNRUA JOSE SEVERO BRASILEIRO                        CENTRO                                            IGARACY                                           PB58775000                                                  CENTRO                                                                                                00000000RUA JOSE SEVERO BRASILEIRO                        CENTRO                                            IGARACY                                           PB5877500083 9969800783 9969800783 99698007am.brasileiro@hotmail.com                                                                           00000000000000000000000000                                                                                                                  2922344             SSFSDENTISTA                                          00000000000000000019850111                                                                       00000000202305181
158086935434    58086935434   SUENIA VALERIA DE OLIVEIRA MONTEIRO               FCNR PROFESSOR JOSE ARAUJO                           MATERNIDADE                                       PATOS                                             PB58701340R PROFESSOR JOSE ARAUJO                           MATERNIDADE                                       PATOS                                             PB58701340R PROFESSOR JOSE ARAUJO                           MATERNIDADE                                       PATOS                                             PB5870134083 98741136           83 99969010frankmoto213@live.com                                                                               00000000000000000000000000                                                                                                                  1307835             00FDAPOSENTADA                                        00000000000000000019670904                                                                       00000000202304281
128588145000174 28588145000174SEMINOVOS BONITAO LTDA                            JCNRUA BOM SUCESSO                                   INTERLAGOS                                        DIVINOPOLIS                                       MG35500456RUA BOM SUCESSO                                   INTERLAGOS                                        DIVINOPOLIS                                       MG35500456RUA BOM SUCESSO                                   INTERLAGOS                                        DIVINOPOLIS                                       MG3550045637 30161779                      seminovosbonitao@gmail.com                                                                          000000000000000000000000000030380880083                                                   VAREJO                                                                                                                      00000000000000000000000000                                                                       00000000202305031
1126340420      00126340420   ADRIANA MARQUES DE ARAUJO SANTOS                  FCNRUA DOM JOSE DE MEDEIROS DELGADO                  CENTRO                                            MALTA                                             PB58713000RUA DOM JOSE DE MEDEIROS DELGADO                  CENTRO                                            MALTA                                             PB58713000RUA DOM JOSE DE MEDEIROS DELGADO                  CENTRO                                            MALTA                                             PB5871300083 9813434083 98181529           adrianaezuzu@gmail.com                                                                              00000000000000000000000000                                                                                                                  1851857             SSFCEMPRESARIA                                        00000000000000000019720425                                                                       00000000202305241
14897959438     04897959438   ELUCINALDO LAURINDO DE ALMEIDA                    FCNR PEDRO PEIXOTO                                   BELO HORIZONTE                                    PATOS                                             PB58704150R PEDRO PEIXOTO                                   BELO HORIZONTE                                    PATOS                                             PB58704150R PEDRO PEIXOTO                                   BELO HORIZONTE                                    PATOS                                             PB5870415083 9811705683 98107681           elucinaldo@hotmail.com                                                                              00000000000000000000000000                                                                                                                  2632795             SSMCSUPERVISOR                                        00000000000000000019840528                                                                       00000000202304271
15090217432     05090217432   CAROLINNE DE QUEIROGA ALMEIDA E LAUDELINO         FCNRUA PEDRO JUNQUEIRA                               SANTO AMARO                                       POMBAL                                            PB58840000RUA PEDRO JUNQUEIRA                               SANTO AMARO                                       POMBAL                                            PB58840000RUA PEDRO JUNQUEIRA                               SANTO AMARO                                       POMBAL                                            PB5884000083 9963668683 9963668683 99636686carolinneq@gmail.com                                                                                00000000000000000000000000                                                                                                                  2648731             SSFSMEDICA                                            00000000000000000019861031                                                                       00000000202305221
15912031462     05912031462   FERNANDO ROBSON ALMEIDA DE ARAUJO                 FCNAV  VIRGILIO SILVA                                OURO BRANCO II                                    PIANCO                                            PB58765000AV  VIRGILIO SILVA                                OURO BRANCO II                                    PIANCO                                            PB58765000TRAVESSA VIRGILIO SILVA                           OURO BRANCO II                                    PIANCO                                            PB5876500083 9965438283 99654382           fernand_robson@hotmail.com                                                                          00000000000000000000000000                                                                                                                  2979938             SSMCBANCARIO                                          00000000000000000019851220                                                                       00000000202305061
19012764483     09012764483   NAIARA ANGELO GOMES                               FCNRUA CEL JOAO LEITE                                CENTRO                                            POMBAL                                            PB58840000                                                  CENTRO                                                                                                00000000RUA CEL JOAO LEITE                                CENTRO                                            POMBAL                                            PB5884000083 9987134583 9987134583 99871345naiaraangeloccta@gmail.com                                                                          00000000000000000000000000                                                                                                                  3505368             SSFSFUNCIONARIO PUBLICO                               00000000000000000019920718                                                                       00000000202305091
138099403487    38099403487   CHARLES ROMERO LIBERAL DE MOURA                   FANRUA CAPITAO CRIZANTO                              SANTO ANTONIO                                     PATOS                                             PB58701090RUA CAPITAO CRIZANTO                              SANTO ANTONIO                                     PATOS                                             PB58701090RUA CAPITAO CRIZANTO                              SANTO ANTONIO                                     PATOS                                             PB5870109087 98844152                      williancsmoura@gmail.com                                                                            00000000000000000000000000                                                                                                                  2603504             SSMCAUXILIAR CONTABIL                                 00000000000000000019631119                                                                       00000000201704271
124509945000100 24509945000100CAMARA MUNICIPAL DE CATOLE DO ROCHA               JCNPRACA JERONIMO ROSADO                             CENTRO                                            CATOLE DO ROCHA                                   PB58884000PRACA JERONIMO ROSADO                             CENTRO                                            CATOLE DO ROCHA                                   PB58884000PRACA JERONIMO ROSADO                             CENTRO                                            CATOLE DO ROCHA                                   PB5888400083 9963185883 9963185883 99631858camaracatole2017@gmail.com                                                                          00000000000000000000000000                                                                ATACADO                                                                                                                     00000000000000000000000000                                                                       00000000202305161
14465839448     04465839448   VANESSA QUELI BATISTA CAMPOS                      FCNRUA FRANCISCO OZANO                               SANDY SOARES                                      CATOLE DO ROCHA                                   PB58884000                                                  SANDY SOARES                                                                                          00000000RUA FRANCISCO OZANO                               SANDY SOARES                                      CATOLE DO ROCHA                                   PB5888400083 9984754983 9984754983 99847549van.campos01@gmail.com                                                                              00000000000000000000000000                                                                                                                  2650085             SSFSMEDICA                                            00000000000000000019830518                                                                       00000000202305131
16093022480     06093022480   TIAGO RODRIGUES DE ALMEIDA                        FANRUA ANTONIO FELIX                                 SAO SEBASTIAO                                     PATOS                                             PB58706110AV PARAIBA                                        SAO SEBASTIAO                                     PATOS                                             PB58705820AV PARAIBA                                        DOS ESTADOS                                       PATOS                                             PB5870582083 99945730           83 99982428tr6395037@gmail.com                                                                                 00000000000000000000000000                                                                                                                  2695900             SSMOOUTROS                                            00000000000000000019841223                                                                       00000000201806211
142493579453    42493579453   WELLINGTON DA SILVA CRUZ                          FCNMANOEL PEDRO OLIVEIRA                             MONTE CASTELO                                     PATOS                                             PB58700001MANOEL PEDRO OLIVEIRA                             MONTE CASTELO                                     PATOS                                             PB58700001MANOEL PEDRO OLIVEIRA                             MONTE CASTELO                                     PATOS                                             PB5870000183 99900980                      wendersosantos831@gmail.com                                                                         00000000000000000000000000                                                                                                                  2929785             SSMCTAXISTA                                           00000000000000000019651204                                                                       00000000202305151
120175847000114 20175847000114MANOEL SATORNO DA SILVA                           JCNLUIZ RUFINO FERREIRA                              OURO BRANCO                                       PIANCO                                            PB05876500LUIZ RUFINO FERREIRA                              OURO BRANCO                                       PIANCO                                            PB05876500LUIZ RUFINO FERREIRA                              OURO BRANCO                                       PIANCO                                            PB0587650083 99861415                      mariadesousasilva@gmail.com                                                                         00000000000000000000000000              FUNERARIA SATORNO                                 ATACADO                                                                                                                     00000000000000000000000000                                                                       00000000202305301
127347966000156 27347966000156CLEAR SERVICOS LTDA                               JCNVIDAL DE NEGREIROS                                JD CALIFORNIA                                     PATOS                                             PB58700001VIDAL DE NEGREIROS                                JD CALIFORNIA                                     PATOS                                             PB58700001VIDAL DE NEGREIROS                                JD CALIFORNIA                                     PATOS                                             PB5870000183 99998070                      e.dantas.segundo@hotmail.com                                                                        00000000000000000000000000              CLINSTRESS                                        VAREJO                                                                                                                      00000000000000000000000000                                                                       00000000202305231
14249867447     04249867447   PEDRO ALEX DE MEDEIROS TAVARES                    FANRUA MANOEL DA COSTA FILGUEIRAS                    NOVO HORIZONTE                                    PATOS                                             PB58770476RUA MANOEL DA COSTA FILGUEIRAS                    NOVO HORIZONTE                                    PATOS                                             PB58700001RUA MAURICIO LUIZ DA SIVA, 321                    CENTRO                                            SAO MAMEDE                                        PB5862500083 98734414           83 98734414pedroalex.adm@hotmail.com                                                                           00000000000000000000000000                                                                                                                  2661481             SSMCOUTROS                                            00000000000000000019810907                                                                       00000000202103041
126142215894    26142215894   LUCIANO SABINO DOS SANTOS                         FCNRUA TENENTE ZUCA                                  SAO JOSE                                          SOUSA                                             PB58804295RUA TENENTE ZUCA                                  SAO JOSE                                          SOUSA                                             PB58804295RUA TENENTE ZUCA                                  SAO JOSE                                          SOUSA                                             PB5880429583 9913793083 9913793083 99137930fabiola-lima-14@hotmail.com                                                                         00000000000000000000000000                                                                                                                  2391627             SSMCCOMERCIANTE                                       00000000000000000019760820                                                                       00000000202305221
169423512453    69423512453   ELZA CRISTINE DE AMORIM JUSTINO                   FCNRUA JOAQUIM DOS SANTOS                            JATOBA                                            PATOS                                             PB58707412RUA JOAQUIM DOS SANTOS                            JATOBA                                            PATOS                                             PB58707412RUA JOAQUIM DOS SANTOS                            JATOBA                                            PATOS                                             PB5870741283 9968064283 9968064283 99680642arthurdouglas15amorim@gmail.com                                                                     00000000000000000000000000                                                                                                                  999331              SSFSPROFESSOR                                         00000000000000000019641213                                                                       00000000202305081
19142985000164  09142985000164CAMARA MUNICIPAL DE ITAPORANGA                    JANAVENIDA GETULIO VARGAS                            CENTRO                                            ITAPORANGA                                        PB58780000AVENIDA GETULIO VARGAS                            CENTRO                                            ITAPORANGA                                        PB58780000AVENIDA GETULIO VARGAS                            CENTRO                                            ITAPORANGA                                        PB5878000083 9983128383 9983128383 99831283itaporangacamara@gmail.com                                                                          00000000000000000000000000ISENTO        CAMARA X FLAVIO SECRETARIO                        ATACADO                                                                                                                     00000000000000000000000000                                                                       00000000200601181
1654488126      00654488126   AYRTON CHAVES MARQUES                             FCNRUA: ARNOR FRANCISCO                              FRANCISCO CABRAL                                  JUNCO DO SERIDO                                   PB58640000RUA: ARNOR FRANCISCO                              FRANCISCO CABRAL                                  JUNCO DO SERIDO                                   PB58640000RUA: ARNOR FRANCISCO                              FRANCISCO CABRAL                                  JUNCO DO SERIDO                                   PB5864000083 99678752           83 99678752ayrton_marques@hotmail.com                                                                          00000000000000000000000000                                                                                                                  1985383             SSMSOUTROS                                            00000000000000000019830428                                                                       00000000202101281
12774165318     02774165318   LUANA RODRIGUES DE ARAUJO GOMES                   FCNRUA GEOVAR BEZERRA                                CENTRO                                            PATOS                                             PB58700090                                                  CENTRO                                                                                                00000000RUA GEOVAR BEZERRA                                CENTRO                                            PATOS                                             PB58700090           85 9915138785 99151387luanarodriguess196@gmail.com                                                                        00000000000000000000000000                                                                                                                  2040032139549       SPFCOUTROS                                            00000000000000000019870208                                                                       00000000202305031
158678042400    58678042400   JOSE AILTON GUEDES DO NASCIMENTO                  FANRUA LARGO JUVINO MARIANO 08                       CENTRO                                            DESTERRO                                          PB58695000RUA LARGO JUVINO MARIANO 08                       CENTRO                                            DESTERRO                                          PB58695000RUA LARGO JUVINO MARIANO 08                       CENTRO                                            DESTERRO                                          PB5869500083 34731457           83 91262538ailtonguedes674@gmail.com                                                                           00000000000000000000000000                                                                                                                  1185352             SSMOOUTROS                                            00000000000000000019680505                                                                       00000000200907171
13295633436     03295633436   FABIO JUNHO DOS SANTOS REMIGIO                    FANRUA MARIA DE SOUSA BARRETO, 1118                  JD GUANABARA                                      PATOS                                             PB58701424RUA MARIA DE SOUSA BARRETO, 1118                  JD GUANABARA                                      PATOS                                             PB58701424RUA MARIA DE SOUSA BARRETO, 1118                  JD GUANABARA                                      PATOS                                             PB5870142483 99905804                      fabiosjr2009@gmail.com                                                                              00000000000000000000000000                                                                                                                  2485288             SSMOOUTROS                                            00000000000000000019800114                                                                       00000000199905061
111026952468    11026952468   FRANCISCO FERREIRA DE ARAUJO                      FANRUA ADALBERTO LOPES FILHO, 264                    OURO BRANCO                                       PIANCO                                            PB58765000RUA ADALBERTO LOPES FILHO, 264                    OURO BRANCO                                       PIANCO                                            PB58765000RUA ADALBERTO LOPES FILHO, 264                    OURO BRANCO                                       PIANCO                                            PB5876500083 98111626                      fernand_robson@hotmail.com                                                                          00000000000000000000000000                                                                                                                  310661              SSMOOUTROS                                            00000000000000000019500831                                                                       00000000201608111
12269055438     02269055438   JOSE RODRIGUES DA COSTA                           FANRUA WANTUY DA SILVA MARTINS, 237                  MORADA DO SOL                                     PATOS                                             PB58703365RUA WANTUY DA SILVA MARTINS, 237                  MORADA DO SOL                                     PATOS                                             PB58703365RUA WANTUY DA SILVA MARTINS, 237                  MORADA DO SOL                                     PATOS                                             PB5870336583 98119749                      jrdacosta@hotmail.com                                                                               00000000000000000000000000                                                                                                                  1906740             SSMOOUTROS                                            00000000000000000019720211                                                                       00000000201805181
167573096453    67573096453   JEOVA BARBOSA JUNIOR                              FCNRUA LARGO JUVINO MARIANO, S/N                     CENTRO                                            DESTERRO                                          PB58695000                                                  CENTRO                                                                                                00000000RUA LARGO JUVINO MARIANO, S/N                     CENTRO                                            DESTERRO                                          PB5869500083 34731110           83 98769544jeovabarbosajr@gmail.com                                                                            00000000000000000000000000                                                                                                                  1 146 074           . FCOUTROS                                            00000000000000000019000101                                                                       00000000200108161
14510172427     04510172427   ERICH DE FREITAS MARIANO                          FANRUA SEVERINO SOARES                               MATERNIDADE                                       PATOS                                             PB58701380RUA SEVERINO SOARES                               MATERNIDADE                                       PATOS                                             PB58701380RUA SEVERINO SOARES                               MATERNIDADE                                       PATOS                                             PB5870138083 9934264683 99342646           efmariano.ufcg@gmail.com                                                                            00000000000000000000000000                                                                                                                  1683782             SSMOOUTROS                                            00000000000000000019840302                                                                       00000000201502021
159275792000150 59275792000150GENERAL MOTORS DO BRASIL LTDA                     JANAV. GOIAS, 1805  PORTAO 2 - CPG                   SANTA PAULA                                       SAO CAETANO DO SUL                                SP09550900AV. GOIAS, 1805  PORTAO 2 - CPG                   SANTA PAULA                                       SAO CAETANO DO SUL                                SP09550900AV. GOIAS, 1805                                   SANTA PAULA                                       SAO CAETANO DO SUL                                SP0955090083 2101800083 21018000           nfe@gm.com                                                                                          00000000000000000030000000636003724112                                                    ATACADO                                                                                                                     00000000000000000000000000                                                                       00000000200501201
18939936000194  08939936000194PREFEITURA MUNICIPAL DE COREMAS                   JCNCAPITAO ANTONIO LEITE                             CENTRO                                            COREMAS                                           PB58770000CAPITAO ANTONIO LEITE                             CENTRO                                            COREMAS                                           PB58770000CAPITAO ANTONIO LEITE                             CENTRO                                            COREMAS                                           PB5877000083 99622998           83 99622998financas.pmcoremas@gmail.com                                                                        00000000000000000000000000ISENTO                                                          ATACADO                                                                                                                     00000000000000000000000000                                                                       00000000199804301
112773701410    12773701410   CARLOS EDUARDO MIRANDA DA SILVA                   FCNRUA PROJETADA                                     CENTRO                                            MALTA                                             PB58710000                                                  CENTRO                                                                                                00000000RUA PROJETADA                                     CENTRO                                            MALTA                                             PB5871000083 99668034                      carlosdudu022003@gmail.com                                                                          00000000000000000000000000                                                                                                                  4268519             SSMSOUTROS                                            00000000000000000020031105                                                                       00000000202301191
18186008454     08186008454   EVERTON PESSOA PIANCO                             FCNRUA DOM JOSE PEREIRA ALVES                        CENTRO                                            SAO JOSE DO EGITO                                 PE56700000                                                  CENTRO                                                                                                00000000RUA DOM JOSE PEREIRA ALVES                        CENTRO                                            PIANCO                                            PB56700000           87 9996849487 99968494everton_pp@outlook.com                                                                              00000000000000000000000000                                                                                                                  7088685             SSMCAUTONOMO                                          00000000000000000019870714                                                                       00000000202303301
11049709446     01049709446   EDINALDO DA CONCEICAO COSTA                       FCNRUA THIAGOTORRES COSTA                            NOVO HORIZONTE                                    PATOS                                             PB58703627RUA THIAGO TORRES COSTA                           NOVO HORIZONTE                                    PATOS                                             PB58703627RUA THIAGOTORRES COSTA                            NOVO HORIZONTE                                    PATOS                                             PB5870362783 9822670583 9822670583 98226705jordanosouza1@gmail.com                                                                             00000000000000000000000000                                                                                                                  2077979             SSMCCOMERCIANTE                                       00000000000000000019800804                                                                       00000000202302091
183327320268    83327320268   PEDRO PAULO ARCE LEITE                            FANRUA VEREADOR JOAO PAULINO SOBRINHO, 0             EVANDRO CABRAL                                    AGUIAR                                            PB58778000RUA VEREADOR JOAO PAULINO SOBRINHO, 0             EVANDRO CABRAL                                    AGUIAR                                            PB58778000RUA VEREADOR JOAO PAULINO SOBRINHO, 0             EVANDRO CABRAL                                    AGUIAR                                            PB5877800083 99986032                      pedropauloarcea@gmail.com                                                                           00000000000000000000000000                                                                                                                  .                   . MOOUTROS                                            00000000000000000019850628                                                                       00000000202105101
19581402000100  09581402000100MOISES MEDEIROS DE ARAUJO                         JCNFRANCISCO NOGUEIRA FILHO                          CENTRO                                            SAO MAMEDE                                        PB58625000FRANCISCO NOGUEIRA FILHO                          CENTRO                                            SAO MAMEDE                                        PB58625000FRANCISCO NOGUEIRA FILHO                          CENTRO                                            SAO MAMEDE                                        PB5862500083 98768031           83 98768031moisestapera@hotmail.com                                                                            00000000000000000000000000              BOX UNIAO                                         VAREJO                                                                                                                      00000000000000000000000000                                                                       00000000202305131
11377619451     01377619451   LARICIA DE FREITAS SANTANA MOREIRA                FCNJOSE SOARES                                       CENTRO                                            BOA VENTURA                                       PB58993000                                                  CENTRO                                                                                                00000000JOSE SOARES                                       CENTRO                                            BOA VENTURA                                       PB58993000           83 9884503383 98845033lariciasantana2009@hotmail.com                                                                      00000000000000000000000000                                                                                                                  277992              ssFCPROFESSORA                                        00000000000000000019811231                                                                       00000000202305121
178936764420    78936764420   SILVINO CORCINO DE MEDEIROS NETO                  FCNMARIO GOMES DE MOURA                              MATERNIDADE                                       PATOS                                             PB58701490SEVERINO SOARES                                   MATERNIDADE                                       PATOS                                             PB58701380MARIO GOMES DE MOURA                              MATERNIDADE                                       PATOS                                             PB5870149083 99926010           83 99926010sn-locadora@hotmail.com                                                                             00000000000000000000000000                                                                                                                  1390072             SSMDADMINISTRACAO                                     00000000000000000019721117                                                                       00000000201709181
14645688464     04645688464   CLEIDINALDO DE SOUZA ALVES                        FANAVENIDA DR PEDRO FIRMINO, 302                     CENTRO                                            PATOS                                             PB58700070AVENIDA DR PEDRO FIRMINO, 302                     CENTRO                                            PATOS                                             PB58700070AVENIDA DR PEDRO FIRMINO, 302                     CENTRO                                            PATOS                                             PB5870007083 99936322                      pbomsabor@hotmail.com                                                                               00000000000000000000000000                                                                                                                  2664400             SSMOOUTROS                                            00000000000000000019830226                                                                       00000000200301151
16450658460     06450658460   IVANILDO DE LUCENA MEDEIROS                       FANRUA FELIZARDO LEITE,                              LIBERDADE                                         PATOS                                             PB58703000RUA FELIZARDO LEITE,                              LIBERDADE                                         PATOS                                             PB58703000                                                                                                                                                        0000000083 99673810                                                                                                                          00000000000000000000000000                                                                                                                  2521857             SSMOOUTROS                                            00000000000000000019670101                                                                       00000000201809131
142529611491    42529611491   MARIA ANGELA GADELHA DE SOUSA                     FCNPRESIDENTE FLORIANO PEIXOTO                       CETRO                                             PATOS                                             PB58700235                                                  CETRO                                                                                                 00000000PRESIDENTE FLORIANO PEIXOTO                       CETRO                                             PATOS                                             PB58700235                      83 99906237birodigital_patos@outlook.com                                                                       00000000000000000000000000                                                                                                                  1312143             SSFSOUTROS                                            00000000000000000019671011                                                                       00000000202211161
118124178453    18124178453   EDNALDO MARQUES BEZERRA                           FCNRUA LINO GOMES DA SILVA                           SAO JOSE                                          CAMPINA GRANDE                                    PB58400360RUA INACIO DO LEAO, 678                           SAO JOSE                                          PATOS                                             PB58701000RUA LINO GOMES DA SILVA                           SAO JOSE                                          CAMPINA GRANDE                                    PB5840036083 98784135                      ilkalietanm@gmail.com                                                                               00000000000000000000000000                                                                                                                  298810              .SMSOUTROS                                            00000000000000000019560402                                                                       00000000200202131
12751768431     02751768431   WOSTENILDO CRISPIM RAMALHO                        FANRUA MAJOR CICERO SATYRO                           BELO HORIZONTE                                    PATOS                                             PB58704340RUA PRFA CLOTILDE MEIRA                           BELO HORIZONTE                                    SOUSA                                             PB58803710RUA MAJOR CICERO SATYRO                           BELO HORIZONTE                                    PATOS                                             PB5870434083 99323513           83 99323513drwcramalho@gmail.com.br                                                                            00000000000000000000000000                                                                                                                  2315461             SSMOMEDICO                                            00000000000000000019790503                                                                       00000000201807251
126666227000164 26666227000164JVC SERVICOS E LOCACOES LTDA                      JANRUA JOAO DOMINGOS DE QUEIROZ                      JD QUEIROZ                                        PATOS                                             PB58704140RUA JOAO DOMINGOS DE QUEIROZ                      JD QUEIROZ                                        PATOS                                             PB58704140RUA JOAO DOMINGOS DE QUEIROZ                      JD QUEIROZ                                        PATOS                                             PB5870414083 99918001           83 99918001jvcmaia1979@gmail.com                                                                               00000000000000000000000000ISENTO        JVC SERVICOS E LOCACOES LTDA                      ATACADO                                                                                                                     00000000000000000000000000                                                                       00000000202102221
134324771472    34324771472   SELDA MARIA DANTAS MEDEIROS                       FCNRUA ALUIZIO LIMA                                  SALGADINHO                                        PATOS                                             PB58706590RUA ALUIZIO LIMA                                  SALGADINHO                                        PATOS                                             PB58706590RUA ALUIZIO LIMA                                  SALGADINHO                                        PATOS                                             PB5870659083 3422176083 3422176083 96018244j.nveiculos@ig.com.br                                                                               00000000000000000000000000                                                                                                                  727095              SSFCPROFESSOR                                         00000000000000000019611226                                                                       00000000201411071
16593023493     06593023493   LARISSA CONSTANCIO MARINHO                        FCNRUA PAPA JOAO XXIII                               LIBERDADE                                         CAMPINA GRANDE                                    PB58414300RUA PAPA JOAO XXIII                               LIBERDADE                                         CAMPINA GRANDE                                    PB58414300RUA PAPA JOAO XXIII                               LIBERDADE                                         CAMPINA GRANDE                                    PB5841430083 99688495           83 99688495isac@daosilveira.com.br                                                                             00000000000000000000000000                                                                                                                  3070009             PBFCADMINISTRACAO                                     00000000000000000019870328                                                                       00000000201808291
117658942472    17658942472   ANTONIO TRIGUEIRO DA ROXA NETO                    FCNRUA PEDRO VIERIA                                  PETROPOLIS                                        POMBAL                                            PB58840000                                                  PETROPOLIS                                                                                            00000000RUA PEDRO VIERIA                                  PETROPOLIS                                        PATOS                                             PB58840000           83 9987434383 99874343trigueiropb@gmail.com                                                                               00000000000000000000000000                                                                                                                  298033              SSMSAPOSENTADO                                        00000000000000000019490109                                                                       00000000202301211
1837307457      00837307457   KATIUSKA LAMARA VIEIRA CAVALCANTE                 FANRUA JOSE BONIFACIO DE CARVALHO                    GERALDO CARVALHO                                  PATOS                                             PB58703360RUA JOSE BONIFACIO DE CARVALHO                    GERALDO CARVALHO                                  PATOS                                             PB58703360RUA JOSE BONIFACIO DE CARVALHO                    GERALDO CARVALHO                                  PATOS                                             PB5870336083 98188067           83 98188067katiuska.lopes@yahoo.com.br                                                                         00000000000000000000000000                                                                                                                  2332453             SSFOOUTROS                                            00000000000000000019790902                                                                       00000000201502021
13976770493     03976770493   JOAO PAULO TERCEIRO                               FANDORGIVAL DE SOUZA CAVALCANTE                      JD EUROPA                                         PATOS                                             PB58705040RUA DORGIVAL DE SOUZA CAVALCANTE                  JD EUROPA                                         PATOS                                             PB58705040RUA DORGIVAL DE SOUZA CAVALCANTE                  JARDIM EUROPA                                     PATOS                                             PB5870504083 99932485           83 99932485terceiroaguiar2@gmail.com                                                                           00000000000000000000000000                                                                                                                  24589365            SSMOENFERMEIRO                                        00000000000000000019820702                                                                       00000000202105271
19968965464     09968965464   FELIPE DIAS DE OLIVEIRA                           FANRUA LEONCIO WANDERLEY SN                          CENTRO                                            PATOS                                             PB58700120RUA LEONCIO WANDERLEY SN                          CENTRO                                            PATOS                                             PB58700120RUA LEONCIO WANDERLEY SN                          CENTRO                                            PATOS                                             PB5870012083 99966055                      filipediassb@gmail.com                                                                              00000000000000000000000000                                                                                                                  49880860            SSMOOUTROS                                            00000000000000000019930918                                                                       00000000202011111
174090011868    74090011868   ERON MEIRA DE VASCONCELOS                         FANRUA AGOSTINHO JUSTO, 403                          SALGADINHO                                        PATOS                                             PB58706580RUA AGOSTINHO JUSTO, 403                          SALGADINHO                                        PATOS                                             PB58706580RUA AGOSTINHO JUSTO, 403                          SALGADINHO                                        PATOS                                             PB5870658083 99601373           83 93421297chevrolet@catingueiraautomotores.com.br                                                             00000000000000000000000000                                                                                                                  2113453             SSMOOUTROS                                            00000000000000000019521002                                                                       00000000201003121
143389471000146 43389471000146ANA VITORIA SIMOES DOS SANTOS                     JCNRUA PREF.  OSCAR TORRES                           SANTO ANTONIO                                     PATOS                                             PB58701140RUA PREF.  OSCAR TORRES                           SANTO ANTONIO                                     PATOS                                             PB58701140RUA PREFEITO OSCAR TORRES                         SANTO ANTONIO                                     PATOS                                             PB5870114083 99910702           83 99910702ertonsimoes@hotmail.com                                                                             00000000000000000000000000164101527                                                       ATACADO                                                                                                                     00000000000000000000000000                                                                       00000000202112151
171529667453    71529667453   DAMIAO LEITE DE MELO                              FCNRUA IZIDRO ALMEIDA COSTA                          CENTRO                                            OLHO D AGUA                                       PB58760000RUA IZIDRO ALMEIDA COSTA                          CENTRO                                            OLHO D AGUA                                       PB58760000RUA IZIDRO ALMEIDA COSTA                          CENTRO                                            OLHO D AGUA                                       PB58760000           83 9983006083 99830060felix_avelino@hotmail.com                                                                           00000000000000000000000000                                                                                                                  249593397           SSMSADJUNTO DE DIREITO                                00000000000000000019800101                                                                       00000000202212091
191788706404    91788706404   JOSE MAURICIO PAULINO DE MEDEIROS                 FANRUA JOSE FEITOSA IRMAO 202                        SAO JOSE                                          SANTA LUZIA                                       PB58600000RUA JOSE FEITOSA IRMAO 202                        SAO JOSE                                          SANTA LUZIA                                       PB58600000RUA JOSE FEITOSA IRMAO 202                        SAO JOSE                                          SANTA LUZIA                                       PB5860000083 9996768383 9996768383 99967683                                                                                                    00000000000000000000000000                                                                                                                  1561651             . MSTAXISTA                                           00000000000000000019720514                                                                       00000000201706301
14356949447     04356949447   EDNA MINERVINA DE SOUZA                           FCNRUA ALICIO BARRETO                                CENTRO                                            PATOS                                             PB58701560RUA ALICIO BARRETO                                CENTRO                                            PATOS                                             PB58701560RUA ALICIO BARRETO                                CENTRO                                            PATOS                                             PB58701560           83 9968117683 99681176ednasouzaeducacao2017@gmail.com                                                                     00000000000000000000000000                                                                                                                  55959112            SSFSPROFESSORA                                        00000000000000000019820901                                                                       00000000202305081
194689466572    94689466572   DARLAN PEREIRA RODRIGUES                          FCNDO PRADO                                          CENTRO                                            PATOS                                             PB58700010DO PRADO                                          CENTRO                                            PATOS                                             PB58700010DO PRADO                                          CENTRO                                            PATOS                                             PB5870001083 9885648483 9885648483 98856484darlanpereirarodrigues15670@hotmail.com                                                             00000000000000000000000000                                                                                                                  0862267897          SSMSTAXISTA                                           00000000000000000019800416                                                                       00000000202301311
11919116400     01919116400   ARLINDO CESAR M C BRASILEIRO                      FCNRUA ADEMAR LEITE, 101                             CENTRO                                            PIANCO                                            PB58765000AVENIDA ESPIRITO SANTO                            CENTRO                                            JOAO PESSOA                                       PB58030110RUA ADEMAR LEITE, S/N                             CENTRO                                            PIANCO                                            PB5800000083 34522256           83 99146808am.brasileiro@hotmail.com                                                                           00000000000000000000000000                                                                                                                  1 517 189           SSMSOUTROS                                            00000000000000000019720826                                                                       00000000200205271
15501914450     05501914450   ERALDO HONORATO DE ARAUJO                         FANRUA SAO FRANCISCO,83                              SAO JOSE                                          SANTA LUZIA                                       PB58600000RUA SAO FRANCISCO,83                              SAO JOSE                                          SANTA LUZIA                                       PB58600000RUA SAO FRANCISCO,83                              SAO JOSE                                          SANTA LUZIA                                       PB5860000083 99937646                      contato@novavale.com.br                                                                             00000000000000000000000000                                                                                                                  .                   . MOOUTROS                                            00000000000000000019830818                                                                       00000000202111091
1812513436      00812513436   MARCELO GOMES MEDEIROS                            FANRUA SEBASTIAO QUEIROZ, 205                        SAO SEBASTIAO                                     PATOS                                             PB58700000RUA SEBASTIAO QUEIROZ, 205                        SAO SEBASTIAO                                     PATOS                                             PB58700000RUA SEBASTIAO QUEIROZ, 205                        SAO SEBASTIAO                                     PATOS                                             PB5870000083 99922787           83 99922787batata_r@msn.com                                                                                    00000000000000000000000000                                                                                                                  .                   . MOOUTROS                                            00000000000000000019820920                                                                       00000000201906031
11612689000178  01612689000178MUNICIPIO DE MATUREIA                             JCNRUA R.JOSE JERONIMO S/N                           CENTRO                                            MATUREIA                                          PB58737000RUA R.JOSE JERONIMO S/N                           CENTRO                                            MATUREIA                                          PB58737000RUA R.JOSE JERONIMO S/N                           CENTRO                                            CAMPINA GRANDE                                    PB58737000           83 4215051            matureia@hotmail.com                                                                                00000000000000000000000000ISENTO                                                          ATACADO                                                                                                                     00000000000000000000000000                                                                       00000000199808251
19725531426     09725531426   CARLOS ALBERTO SOARES DE OLIVEIRA NETO            FCNRUA SERGIO LIMA                                   JD GUANABARA                                      PATOS                                             PB58701360                                                  JD GUANABARA                                                                                          00000000RUA SERGIO LIMA                                   JD GUANABARA                                      PATOS                                             PB5870136083 99845509           83 99184413carlosasdon@gmail.com                                                                               00000000000000000000000000                                                                                                                  11111               ssMSOUTROS                                            00000000000000000018991230                                                                       00000000202212301
150468340491    50468340491   BERNADETE VALENTIM DA NOBREGA COMPERTINO          FCNSITIO MULUNGU                                     AREA RURAL                                        MONTEIRO                                          PB58500000SITIO MULUNGU                                     AREA RURAL                                        MONTEIRO                                          PB58500000SITIO MULUNGU                                     AREA RURAL                                        MONTEIRO                                          PB5850000083 9962716083 9962716083 99627160bernadete.nobrega@hotmail.com                                                                       00000000000000000000000000                                                                                                                  1127277             SSFCCOMERCIANTE                                       00000000000000000019661003                                                                       00000000202305081
130078261449    30078261449   JUANA MARIA FERREIRA DE SOUSA                     FCNCICERO BEZERRA                                    MAIA                                              PRINCESA ISABEL                                   PB58755000CICERO BEZERRA                                    MAIA                                              PRINCESA ISABEL                                   PB58755000CICERO BEZERRA                                    MAIA                                              PRINCESA ISABEL                                   PB5875500083 99932441                      romulodesousaferraz@gotmail.com                                                                     00000000000000000000000000                                                                                                                  375363              SSFOAPOSENTADO                                        00000000000000000019410429                                                                       00000000202305111
123801654400    23801654400   ADEMIR GOMES FERNANDES                            FANRUA JOSE DUTRA DE MORAIS                          TRES MENINAS                                      BREJO DO CRUZ                                     PB58890000RUA JOSE DUTRA DE MORAIS                          TRES MENINAS                                      BREJO DO CRUZ                                     PB58890000RUA JOSE DUTRA DE MORAIS                          TRES MENINAS                                      BREJO DO CRUZ                                     PB5889000083 99630779           83 99939461ademirgomesfernandes@gmail.com                                                                      00000000000000000000000000                                                                                                                  597683              SSMOOUTROS                                            00000000000000000019570125                                                                       00000000200912211
15314501473     05314501473   MARIA ZILENE DO NASCIMENTO                        FANRUA ELIAS ASFORA, 00                              MATERNIDADE                                       PATOS                                             PB58701300RUA ELIAS ASFORA, 00                              MATERNIDADE                                       PATOS                                             PB58701300RUA ELIAS ASFORA, 00                              MATERNIDADE                                       PATOS                                             PB5870130087 99652121           87 99968964zileneitape@hotmail.com                                                                             00000000000000000000000000                                                                                                                  382341533           SSFOOUTROS                                            00000000000000000019850319                                                                       00000000202204081
15702687450     05702687450   RUSSELL INACIO DE ARAUJO GOMES                    FANRUA ABILIO SERVULO, 75                            CENTRO                                            DIAMANTE                                          PB58994000RUA ABILIO SERVULO, 75                            CENTRO                                            DIAMANTE                                          PB58994000RUA ABILIO SERVULO, 75                            CENTRO                                            DIAMANTE                                          PB5899400083 98666503                      construcasadiamante@bol.com.br                                                                      00000000000000000000000000                                                                                                                  2865274             SSMOOUTROS                                            00000000000000000019850909                                                                       00000000202112071
14307757416     04307757416   FABIO LUCENA DE MEDEIROS                          FANRUA SEVERINO RODRIGUES TORRES                     AGENOR RIQUE                                      SAO MAMEDE                                        PB58625000RUA SEVERINO RODRIGUES TORRES                     AGENOR RIQUE                                      SAO MAMEDE                                        PB58625000RUA SEVERINO RODRIGUES TORRES                     AGENOR RIQUE                                      SAO MAMEDE                                        PB5862500083 98621931                      fabiolucena4.67@gmail.com                                                                           00000000000000000000000000                                                                                                                  .                   . MOOUTROS                                            00000000000000000019800101                                                                       00000000202102231
168934050810    68934050810   JOSE ANCHIETA DE MEDEIROS LIMA                    FANRUA JOSE FERREIRA JUNIOR, 64                      CENTRO                                            SANTA LUZIA                                       PB58600000RUA JOSE FERREIRA JUNIOR, 64                      CENTRO                                            SANTA LUZIA                                       PB58600000RUA JOSE FERREIRA JUNIOR, 64                      CENTRO                                            SANTA LUZIA                                       PB5860000013 98158890           13 98158890jose_anchieta@hotmail.com                                                                           00000000000000000000000000                                                                                                                  8734922             SSMOOUTROS                                            00000000000000000019500315                                                                       00000000200501291
191021294772    91021294772   MARIA IVANEIDE LEITE DO AMARAL                    FANAVENIDA JOAQUIM BEZERRA                           CENTRO                                            IMACULADA                                         PB58745000AVENIDA JOAQUIM BEZERRA                           CENTRO                                            IMACULADA                                         PB58745000AVENIDA JOAQUIM BEZERRA                           CENTRO                                            IMACULADA                                         PB5874500087 99646377           87 99646377mariaivaneideleitedoamaral@gmail.com                                                                00000000000000000000000000                                                                                                                  7988000             SSFOOUTROS                                            00000000000000000019641010                                                                       00000000202201191
188555461472    88555461472   EDSON HUGO DE SOUSA                               FCNRUA ESC AUGUSTO DOS ANJOS                         STO ANTONIO                                       PATOS                                             PB58701050RUA ESC AUGUSTO DOS ANJOS                         STO ANTONIO                                       PATOS                                             PB58701050RUA ESC AUGUSTO DOS ANJOS                         STO ANTONIO                                       PATOS                                             PB5870105083 99828686           83 99828686caphugo1@hotmail.com                                                                                00000000000000000000000000                                                                                                                  16287               SSMSADJUNTO DE DIREITO                                00000000000000000019720814                                                                       00000000202102261
121666189000126 21666189000126GBBS LOG EIRELI                                   JANRODOVIA ROD PA 446 , KM 1                         CARDOSAO                                          PRIMAVERA                                         PA68707000RODOVIA ROD PA 446 , KM 1                         CARDOSAO                                          PRIMAVERA                                         PA68707000RODOVIA ROD PA 446 , KM 1                         CARDOSAO                                          PRIMAVERA                                         PA6870700098 9873032883 98730328           manutencao.slz@formulazero.com.br                                                                   00000000000000000000000000154731811                                                       ATACADO                                                                                                                     00000000000000000000000000                                                                       00000000202205061
15875035480     05875035480   JACK RAMOS DE SOUSA ARAUJO                        FANRUA SEBASTIAO MONTEIRO 1169                       MONTE CASTELO                                     PATOS                                             PB58707140RUA SEBASTIAO MONTEIRO 1169                       MONTE CASTELO                                     PATOS                                             PB58707140RUA SEBASTIAO MONTEIRO 1169                       MONTE CASTELO                                     PATOS                                             PB5870714083 98704772                      jkramos2651@gmail.com                                                                               00000000000000000000000000                                                                                                                  .                   SSMOOUTROS                                            00000000000000000019820426                                                                       00000000202103091
123816872000128 23816872000128GEISON BATISTA RODRIGUES ME                       JANRUA ANA RITA DE ABREU                             CENTRO                                            MARIZOPOLIS                                       PB58819000RUA ANA RITA DE ABREU                             CENTRO                                            MARIZOPOLIS                                       PB58819000RUA ANA RITA DE ABREU                             CENTRO                                            MARIZOPOLIS                                       PB5881900083 98898683           83 98898683gabypb_estrela@hotmail.com                                                                          00000000000000000000000000162641320                                                       ATACADO                                                                                                                     00000000000000000000000000                                                                       00000000201810161
13441127480     03441127480   SORMANI DOS SANTOS DA SILVA                       FANRUA FRANCISCO PONTES, 132                         SALGADINHO                                        PATOS                                             PB58700000RUA FRANCISCO PONTES, 132                         SALGADINHO                                        PATOS                                             PB58700000                                                                                                                                                        0000000083 99916888                                                                                                                          00000000000000000000000000                                                                                                                  ISENTO              . MOOUTROS                                            00000000000000000019500101                                                                       00000000201508181
