120230502000095479264542  005JOAOR               3   0000000428        1981533   578433    2~3~198153                                                  000000000010000000010000000000000730610000000000000000000000000000000730610000000000000000000000000000000000000000000000000000000000000000000730610000000000000730610000000000000000000000000000001020120000000000000564280000000000000455850000000000000000000000000000000000000000000000000000000000000000000000000000000000000000000000000000000000000000000000000000000000000000000000000000000000000009640000000000000044420000000000000730619BGEP76B0NB185868
120230502000095479264542  005JOAOR               3   0000000428        144976NF  578433    2~NF~144976                                                 000000000000000000010000000000001807120000000000001807120000000000000000000000000000000000000000000000000000000000000000000000000000000000001807120000000000000000000000000000001807120000000000000108430000000000000108430000000000000000000000000000000000000000000000000000000000000000000000000000000000000000000000000000000000000000000000000000000000000000000090360000000000000000000000000000000028330000000000000130470000000000001807129BGEP76B0NB185868
120230502000055566644122  005ROBSON              3   0000000428        1981543   578681    2~3~198154                                                  000000000010000000010000000000000511660000000000000000000000000000000511660000000000000000000000000000000000000000000000000000000000000000000511660000000000000511660000000000000000000000000000000760460000000000000434440000000000000326010000000000000000000000000000000000000000000000000000000000000000000000000000000000000000000000000000000000000000000000000000000000000000000000000000000000000006750000000000000031110000000000000511669BGEB48A0PG113362
120230502000055566644122  005ROBSON              3   0000000428        144977NF  578681    2~NF~144977                                                 000000000000000000010000000000001807120000000000001807120000000000000000000000000000000000000000000000000000000000000000000000000000000000001807120000000000000000000000000000001807120000000000000108430000000000000108430000000000000000000000000000000000000000000000000000000000000000000000000000000000000000000000000000000000000000000000000000000000000000000090360000000000000000000000000000000028330000000000000130470000000000001807129BGEB48A0PG113362
120230502034464000003852  005THIAGOM             3   0000000428        1981553   578759    2~3~198155                                                  000000000010000000010000000000004835140000000000000000000000000000004835140000000000000000000000000000000000000000000000000000000000000000004835140000000000004835140000000000000000000000000000005713240000000000002856620000000000002856620000000000000000000000000000000000000000000000000000000000000000000000000000000000000000000000000000000000000000000000000000000000000000000000000000000000000000000000000000000000000000000000004835149BG148DK0NC424060
120230502034464000003852  005THIAGOM             3   0000000428        144978NF  578759    2~NF~144978                                                 000000000000000000010000000000001156700000000000001156700000000000000000000000000000000114300000000000000114300000000000000000000000000000001042400000000000000000000000000000001042400000000000000000000000000000000000000000000000000000000000000000000000000000000000000000000000000000000000000000000000000000000000000000000000000000000000000000000000000000000052120000000000000000000000000000000016340000000000000075260000000000001042409BG148DK0NC424060
120230502000050984384032  005RUTH                3   0000000428        1981563   577670    2~3~198156                                                  000000000060000000110000000000001522660000000000000000000000000000001522660000000000000218000000000000000000000000000000000218000000000000001304660000000000001304660000000000000000000000000000001908890000000000000977820000000000000931060000000000000000000000000000000000000000000000000000000000000000000000000000000000000000000000000000000000000000000000000000000000000000000000000000000000000017220000000000000079330000000000001304669BG148LP0EC436720
120230502000050984384032  005RUTH                3   0000000428        144979NF  577670    2~NF~144979                                                 000000000000000000110000000000008977910000000000008977910000000000000000000000000000000338830000000000000338830000000000000000000000000000008639080000000000000000000000000000008639080000000000000046760000000000000046760000000000000000000000000000000000000000000000000000000000000000000000000000000000000000000000000000000000000000000000000000000000000000000431950000000000000000000000000000000135420000000000000623740000000000008639089BG148LP0EC436720
120230502014871450001212  005JOAOR               3   0000000428        144980NF  578707    2~NF~144980                                                 000000000000000000010000000000000293660000000000000293660000000000000000000000000000000000000000000000000000000000000000000000000000000000000293660000000000000000000000000000000293660000000000000017620000000000000017620000000000000000000000000000000000000000000000000000000000000000000000000000000000000000000000000000000000000000000000000000000000000000000014680000000000000000000000000000000004600000000000000021200000000000000293669BGEB48A0PG159462
120230502014871450001212  005JOAOR               3   0000000428        1981573   578707    2~3~198157                                                  000000000010000000010000000000002567550000000000000000000000000000002567550000000000000000000000000000000000000000000000000000000000000000002567550000000000002567550000000000000000000000000000003434000000000000001725810000000000001708190000000000000000000000000000000000000000000000000000000000000000000000000000000000000000000000000000000000000000000000000000000000000000000000000000000000000000000000000000000000000000000000002567559BGEB48A0PG159462
120230502000061514404712  005MARCIOR             3   0000000428        1981583   578913    2~3~198158                                                  000000000010000000010000000000000511660000000000000000000000000000000511660000000000000000000000000000000000000000000000000000000000000000000511660000000000000511660000000000000000000000000000000760460000000000000434440000000000000326010000000000000000000000000000000000000000000000000000000000000000000000000000000000000000000000000000000000000000000000000000000000000000000000000000000000000006750000000000000031110000000000000511669BGEB48H0MG208964
120230502000061514404712  005MARCIOR             3   0000000428        144981NF  578913    2~NF~144981                                                 000000000000000000010000000000001807120000000000001807120000000000000000000000000000000000000000000000000000000000000000000000000000000000001807120000000000000000000000000000001807120000000000000108430000000000000108430000000000000000000000000000000000000000000000000000000000000000000000000000000000000000000000000000000000000000000000000000000000000000000090360000000000000000000000000000000028330000000000000130470000000000001807129BGEB48H0MG208964
120230502000038141754922  005JOAOR               2   0000000383        1981593   579445    2~3~198159                                                  000000000030000000010000000000000448310000000000000000000000000000000448310000000000000028310000000000000000000000000000000028310000000000000420000000000000000420000000000000000000000000000000000305610000000000000168140000000000000137470000000000000000000000000000000000000000000000000000000000000000000000000000000000000000000000000000000000000000000000000000000000000000000000000000000000000004910000000000000022640000000000000420009BGEN69H0PG131302
120230502000422692614532  005ROBSON              2   0000000383        1981603   579444    2~3~198160                                                  000000000030000000010000000000000436800000000000000000000000000000000436800000000000000000000000000000000000000000000000000000000000000000000436800000000000000436800000000000000000000000000000000305610000000000000168140000000000000137470000000000000000000000000000000000000000000000000000000000000000000000000000000000000000000000000000000000000000000000000000000000000000000000000000000000000005240000000000000024160000000000000436809BGEN76H0PB106570
120230502000108197544042  005THIAGOM             2   0000000383        1981633   579448    2~3~198163                                                  000000000070000000040000000000001067910000000000000000000000000000001067910000000000000062610000000000000000000000000000000062610000000000001005300000000000001005300000000000000000000000000000000870670000000000000435340000000000000435340000000000000000000000000000000000000000000000000000000000000000000000000000000000000000000000000000000000000000000000000000000000000000000000000000000000000004270000000000000019690000000000001005309BGEA48H0LG270818
120230502000108197544042  005THIAGOM             2   0000000383        144982NF  579448    2~NF~144982                                                 000000000000000000040000000000000659700000000000000659700000000000000000000000000000000000000000000000000000000000000000000000000000000000000659700000000000000000000000000000000659700000000000000000000000000000000000000000000000000000000000000000000000000000000000000000000000000000000000000000000000000000000000000000000000000000000000000000000000000000000032980000000000000000000000000000000010330000000000000047640000000000000659709BGEA48H0LG270818
120230502000038141754922  005JOAOR               3   0000000428        144983NF  579446    2~NF~144983                                                 000000000000000000010000000000000290810000000000000290810000000000000000000000000000000000000000000000000000000000000000000000000000000000000290810000000000000000000000000000000290810000000000000013550000000000000013550000000000000000000000000000000000000000000000000000000000000000000000000000000000000000000000000000000000000000000000000000000000000000000014540000000000000000000000000000000004560000000000000021000000000000000290819BGEN69H0PG131302
120230502245176410001862  005ALYSONM             2   0000001811        1981673   579292    2~3~198167                                                  000000000090000000030000000000005148300000000000000000000000000000005148300000000000001750420000000000000000000000000000001750420000000000003397880000000000003397880000000000000000000000000000005180920000000000002610960000000000002569960000000000000000000000000000000000000000000000000000000000000000000000000000000000000000000000000000000000000000000000000000000000000000000000000000000000000016200000000000000074630000000000003397889BG148FK0MC410681
120230502245176410001862  005ALYSONM             2   0000001811        144984NF  579292    2~NF~144984                                                 000000000000000000030000000000000883260000000000000883260000000000000000000000000000000035140000000000000035140000000000000000000000000000000848120000000000000000000000000000000848120000000000000041000000000000000041000000000000000000000000000000000000000000000000000000000000000000000000000000000000000000000000000000000000000000000000000000000000000000000042410000000000000000000000000000000013300000000000000061230000000000000848129BG148FK0MC410681
120230502000007907354902  005RUTH                2   0000000383        1981683   578757    2~3~198168                                                  000000000010000000030000000000002039670000000000000000000000000000002039670000000000001121820000000000000000000000000000001121820000000000000917850000000000000917850000000000000000000000000000000920520000000000000460260000000000000460260000000000000000000000000000000000000000000000000000000000000000000000000000000000000000000000000000000000000000000000000000000000000000000000000000000000000000000000000000000000000000000000000917859BGKS48U0KG497181
120230502000007907354902  005RUTH                2   0000000383        144985NF  578757    2~NF~144985                                                 000000000000000000030000000000001233150000000000001233150000000000000000000000000000000000000000000000000000000000000000000000000000000000001233150000000000000000000000000000001233150000000000000000000000000000000000000000000000000000000000000000000000000000000000000000000000000000000000000000000000000000000000000000000000000000000000000000000000000000000061660000000000000000000000000000000019330000000000000089030000000000001233159BGKS48U0KG497181
120230502000778774544492  005JGERALDO            2   0000000383        1981693   579454    2~3~198169                                                  000000000040000000010000000000000601460000000000000000000000000000000601460000000000000121460000000000000000000000000000000121460000000000000480000000000000000480000000000000000000000000000000000430950000000000000230810000000000000200140000000000000000000000000000000000000000000000000000000000000000000000000000000000000000000000000000000000000000000000000000000000000000000000000000000000000005920000000000000027270000000000000480009BGEN76H0PB138125
120230502118434820001682  005THIAGOM             2   0000000510        1981703   579443    2~3~198170                                                  010000000090000000020000000000002405170000000000000000000000000000002405170000000000000076330000000000000000000000000000000076330000000000002328840000000000002328840000000000000000000000000000001736210000000000000868110000000000000868110000000000000000000000000000000000000000000000000000000000000000000000000000000000000000000000000000000000000000000000000000000000000000000000000000000000000033410000000000000153850000000000002328849BGJJ7520PB151857
120230502118434820001682  005THIAGOM             2   0000000510        144986NF  579443    2~NF~144986                                                 010000000000000000020000000000001035650000000000001035650000000000000000000000000000000000000000000000000000000000000000000000000000000000001035650000000000000000000000000000001035650000000000000000000000000000000000000000000000000000000000000000000000000000000000000000000000000000000000000000000000000000000000000000000000000000000000000000000000000000000051780000000000000000000000000000000016230000000000000074770000000000001035659BGJJ7520PB151857
120230502000570309524722  005RUTH                2   0000000383        1981723   578611    2~3~198172                                                  000000000100000000020000000000011347720000000000000000000000000000011347720000000000006732490000000000000000000000000000006732490000000000004615230000000000004615230000000000000000000000000000005135930000000000002567970000000000002567970000000000000000000000000000000000000000000000000000000000000000000000000000000000000000000000000000000000000000000000000000000000000000000000000000000000000008820000000000000040600000000000004615239BGEB48A0LG235330
120230502000570309524722  005RUTH                2   0000000383        144987NF  578611    2~NF~144987                                                 000000000000000000020000000000000850000000000000000850000000000000000000000000000000000000000000000000000000000000000000000000000000000000000850000000000000000000000000000000000850000000000000000000000000000000000000000000000000000000000000000000000000000000000000000000000000000000000000000000000000000000000000000000000000000000000000000000000000000000000042500000000000000000000000000000000013320000000000000061370000000000000850009BGEB48A0LG235330
120230502000836942344202  005ROBSON              2   0000000383        1981763   579451    2~3~198176                                                  000000000050000000010000000000000457930000000000000000000000000000000457930000000000000137380000000000000000000000000000000137380000000000000320550000000000000320550000000000000000000000000000000361710000000000000192150000000000000169550000000000000000000000000000000000000000000000000000000000000000000000000000000000000000000000000000000000000000000000000000000000000000000000000000000000000003790000000000000017460000000000000320559BGEN69H0MG208824
120230502000836942344202  005ROBSON              2   0000000383        144988NF  579451    2~NF~144988                                                 000000000000000000010000000000000438200000000000000438200000000000000000000000000000000000000000000000000000000000000000000000000000000000000438200000000000000000000000000000000438200000000000000022600000000000000022600000000000000000000000000000000000000000000000000000000000000000000000000000000000000000000000000000000000000000000000000000000000000000000021910000000000000000000000000000000006870000000000000031640000000000000438209BGEN69H0MG208824
120230502407885980001402  005LUISC               2   0000000383        1981773   579459    2~3~198177                                                  000000000050000000010000000000000835240000000000000000000000000000000835240000000000000134240000000000000000000000000000000134240000000000000701000000000000000701000000000000000000000000000000000531730000000000000267480000000000000264250000000000000000000000000000000000000000000000000000000000000000000000000000000000000000000000000000000000000000000000000000000000000000000000000000000000000009990000000000000046000000000000000701009BG148MK0NC403032
120230502407885980001402  005LUISC               2   0000000383        144989NF  579459    2~NF~144989                                                 000000000000000000010000000000000199000000000000000199000000000000000000000000000000000000000000000000000000000000000000000000000000000000000199000000000000000000000000000000000199000000000000000003230000000000000003230000000000000000000000000000000000000000000000000000000000000000000000000000000000000000000000000000000000000000000000000000000000000000000009950000000000000000000000000000000003120000000000000014370000000000000199009BG148MK0NC403032
120230502085766050001372  005THIAGOM             2   0000000510        1981793   579443    2~3~198179                                                  000000000090000000020000000000002405170000000000000000000000000000002405170000000000000076330000000000000000000000000000000076330000000000002328840000000000002328840000000000000000000000000000001736210000000000000868110000000000000868110000000000000000000000000000000000000000000000000000000000000000000000000000000000000000000000000000000000000000000000000000000000000000000000000000000000000033410000000000000153850000000000002328849BGJJ7520PB151857
120230502085766050001372  005THIAGOM             2   0000000510        144990NF  579443    2~NF~144990                                                 000000000000000000020000000000001035650000000000001035650000000000000000000000000000000000000000000000000000000000000000000000000000000000001035650000000000000000000000000000001035650000000000000000000000000000000000000000000000000000000000000000000000000000000000000000000000000000000000000000000000000000000000000000000000000000000000000000000000000000000051780000000000000000000000000000000016230000000000000074770000000000001035659BGJJ7520PB151857
120230502000123515804782  005JOAOR               2   0000000383        1981803   579474    2~3~198180                                                  000000000080000000030000000000000784620000000000000000000000000000000784620000000000000144620000000000000000000000000000000144620000000000000640000000000000000640000000000000000000000000000000000761300000000000000391950000000000000369350000000000000000000000000000000000000000000000000000000000000000000000000000000000000000000000000000000000000000000000000000000000000000000000000000000000000006930000000000000031940000000000000640009BGEY76H0NB154793
120230502000123515804782  005JOAOR               2   0000000383        144991NF  579474    2~NF~144991                                                 000000000000000000030000000000000660000000000000000660000000000000000000000000000000000000000000000000000000000000000000000000000000000000000660000000000000000000000000000000000660000000000000000022600000000000000022600000000000000000000000000000000000000000000000000000000000000000000000000000000000000000000000000000000000000000000000000000000000000000000033000000000000000000000000000000000010340000000000000047660000000000000660009BGEY76H0NB154793
120230502000146293134002  005ROBSON              2   0000000383        1981823   579479    2~3~198182                                                  000000000030000000010000000000000301000000000000000000000000000000000301000000000000000090300000000000000000000000000000000090300000000000000210700000000000000210700000000000000000000000000000000234500000000000000117720000000000000116780000000000000000000000000000000000000000000000000000000000000000000000000000000000000000000000000000000000000000000000000000000000000000000000000000000000000003000000000000000013830000000000000210709BGKS69V0KG221040
120230502000146293134002  005ROBSON              2   0000000383        144992NF  579479    2~NF~144992                                                 000000000000000000010000000000000060000000000000000060000000000000000000000000000000000000700000000000000000700000000000000000000000000000000059300000000000000000000000000000000059300000000000000000940000000000000000940000000000000000000000000000000000000000000000000000000000000000000000000000000000000000000000000000000000000000000000000000000000000000000002960000000000000000000000000000000000930000000000000004280000000000000059309BGKS69V0KG221040
120230502000792219394722  005PAULON              2   0000000383        1981843   579449    2~3~198184                                                  000000000050000000010000000000000609750000000000000000000000000000000609750000000000000106950000000000000000000000000000000106950000000000000502800000000000000502800000000000000000000000000000000393450000000000000199790000000000000193660000000000000000000000000000000000000000000000000000000000000000000000000000000000000000000000000000000000000000000000000000000000000000000000000000000000000005230000000000000024070000000000000502809BGEB48A0MG129320
120230502000792219394722  005PAULON              2   0000000383        144993NF  579449    2~NF~144993                                                 000000000000000000010000000000000300000000000000000300000000000000000000000000000000000000000000000000000000000000000000000000000000000000000300000000000000000000000000000000000300000000000000000006130000000000000006130000000000000000000000000000000000000000000000000000000000000000000000000000000000000000000000000000000000000000000000000000000000000000000015000000000000000000000000000000000004700000000000000021660000000000000300009BGEB48A0MG129320
120230502000034442094952  004NATHALIA            2   0000000510        1981863   579473    2~3~198186                                                  000000000030000000010000000000000720000000000000000000000000000000000720000000000000000000000000000000000000000000000000000000000000000000000720000000000000000720000000000000000000000000000000000472920000000000000236460000000000000236460000000000000000000000000000000000000000000000000000000000000000000000000000000000000000000000000000000000000000000000000000000000000000000000000000000000000005940000000000000027360000000000000720008AGEN76H0PR137050
120230502000028268792002  004NATHALIA            2   0000000510        1981873   579478    2~3~198187                                                  000000000010000000010000000000000270000000000000000000000000000000000270000000000000000000000000000000000000000000000000000000000000000000000270000000000000000270000000000000000000000000000000000212640000000000000106320000000000000106320000000000000000000000000000000000000000000000000000000000000000000000000000000000000000000000000000000000000000000000000000000000000000000000000000000000000000000000000000000000000000000000000270009BGEA48A0PG307456
120230502000037967074752  004NATHALIA            2   0000000510        1981883   579480    2~3~198188                                                  000000000010000000010000000000000270000000000000000000000000000000000270000000000000000000000000000000000000000000000000000000000000000000000270000000000000000270000000000000000000000000000000000196420000000000000098210000000000000098210000000000000000000000000000000000000000000000000000000000000000000000000000000000000000000000000000000000000000000000000000000000000000000000000000000000000000000000000000000000000000000000000270009BGEB43B0PB243217
120230502000007862184442  004NATHALIA            2   0000000510        1981893   579481    2~3~198189                                                  000000000010000000010000000000000270000000000000000000000000000000000270000000000000000000000000000000000000000000000000000000000000000000000270000000000000000270000000000000000000000000000000000203390000000000000101690000000000000101690000000000000000000000000000000000000000000000000000000000000000000000000000000000000000000000000000000000000000000000000000000000000000000000000000000000000000000000000000000000000000000000000270009BGEB69A0PG294191
120230502000328427674202  005ROBSON              2   0000000383        1981913   579297    2~3~198191                                                  000000000110000000020000000000001079300000000000000000000000000000001079300000000000000000000000000000000000000000000000000000000000000000001079300000000000001079300000000000000000000000000000000813520000000000000414830000000000000398690000000000000000000000000000000000000000000000000000000000000000000000000000000000000000000000000000000000000000000000000000000000000000000000000000000000000003510000000000000016180000000000001079309BGKS48B0EG332445
120230502000328427674202  005ROBSON              2   0000000383        144994NF  579297    2~NF~144994                                                 000000000000000000020000000000000809000000000000000809000000000000000000000000000000000000000000000000000000000000000000000000000000000000000809000000000000000000000000000000000809000000000000000016140000000000000016140000000000000000000000000000000000000000000000000000000000000000000000000000000000000000000000000000000000000000000000000000000000000000000040450000000000000000000000000000000012680000000000000058410000000000000809009BGKS48B0EG332445
120230502000101487744072  005ROBSON              2   0000000383        196134    579458    2~4~19613                                                   000000000050000000010000000000000422960000000000000000000000000000000422960000000000000126890000000000000000000000000000000126890000000000000296070000000000000296070000000000000000000000000000000364300000000000000193450000000000000170850000000000000000000000000000000000000000000000000000000000000000000000000000000000000000000000000000000000000000000000000000000000000000000000000000000000000003560000000000000016390000000000000296079BGEB48A0NG114776
120230502000101487744072  005ROBSON              2   0000000383        144995NF  579458    2~NF~144995                                                 000000000000000000010000000000000474000000000000000474000000000000000000000000000000000000000000000000000000000000000000000000000000000000000474000000000000000000000000000000000474000000000000000022600000000000000022600000000000000000000000000000000000000000000000000000000000000000000000000000000000000000000000000000000000000000000000000000000000000000000023700000000000000000000000000000000007430000000000000034220000000000000474009BGEB48A0NG114776
120230502000274708064152  005MARCIOR             2   0000000383        1981963   579475    2~3~198196                                                  000000000040000000010000000000000460820000000000000000000000000000000460820000000000000000000000000000000000000000000000000000000000000000000460820000000000000460820000000000000000000000000000000343170000000000000182880000000000000160280000000000000000000000000000000000000000000000000000000000000000000000000000000000000000000000000000000000000000000000000000000000000000000000000000000000000005330000000000000024560000000000000460829BGEB69A0NG195599
120230502000274708064152  005MARCIOR             2   0000000383        144996NF  579475    2~NF~144996                                                 000000000000000000010000000000000370000000000000000370000000000000000000000000000000000000000000000000000000000000000000000000000000000000000370000000000000000000000000000000000370000000000000000022600000000000000022600000000000000000000000000000000000000000000000000000000000000000000000000000000000000000000000000000000000000000000000000000000000000000000018500000000000000000000000000000000005800000000000000026710000000000000370009BGEB69A0NG195599
120230503592757920036802  005ROBSON              3   0000000428        1981993   578857    2~3~198199                                                  000000000010000000010000000000000440340000000000000000000000000000000440340000000000000000000000000000000000000000000000000000000000000000000440340000000000000440340000000000000000000000000000000496320000000000000254940000000000000241390000000000000000000000000000000000000000000000000000000000000000000000000000000000000000000000000000000000000000000000000000000000000000000000000000000000000007270000000000000033470000000000000440349BG156FK0NC401664
120230503000029457787422  005PAULON              2   0000000383        1982083   579497    2~3~198208                                                  000000000040000000010000000000000400000000000000000000000000000000000400000000000000000000000000000000000000000000000000000000000000000000000400000000000000000400000000000000000000000000000000000263100000000000000132020000000000000131080000000000000000000000000000000000000000000000000000000000000000000000000000000000000000000000000000000000000000000000000000000000000000000000000000000000000005600000000000000025780000000000000400009BGKT69R0FG473873
120230503000029457787422  005PAULON              2   0000000383        144997NF  579497    2~NF~144997                                                 000000000000000000010000000000000060000000000000000060000000000000000000000000000000000000000000000000000000000000000000000000000000000000000060000000000000000000000000000000000060000000000000000000940000000000000000940000000000000000000000000000000000000000000000000000000000000000000000000000000000000000000000000000000000000000000000000000000000000000000003000000000000000000000000000000000000940000000000000004330000000000000060009BGKT69R0FG473873
120230503000481438474202  005UBIRACY             2   0000000383        1982093   579492    2~3~198209                                                  000000000040000000010000000000000674890000000000000000000000000000000674890000000000000202470000000000000000000000000000000202470000000000000472420000000000000472420000000000000000000000000000000372730000000000000197470000000000000175270000000000000000000000000000000000000000000000000000000000000000000000000000000000000000000000000000000000000000000000000000000000000000000000000000000000000003500000000000000016130000000000000472423GNCJ8CZ9KL160975
120230503000481438474202  005UBIRACY             2   0000000383        144998NF  579492    2~NF~144998                                                 000000000000000000010000000000000370000000000000000370000000000000000000000000000000000042420000000000000042420000000000000000000000000000000327580000000000000000000000000000000327580000000000000022200000000000000022200000000000000000000000000000000000000000000000000000000000000000000000000000000000000000000000000000000000000000000000000000000000000000000016380000000000000000000000000000000005130000000000000023650000000000000327583GNCJ8CZ9KL160975
120230503000243090874342  005JGERALDO            2   0000000383        1982103   579491    2~3~198210                                                  000000000060000000030000000000000696610000000000000000000000000000000696610000000000000115610000000000000000000000000000000115610000000000000581000000000000000581000000000000000000000000000000000465450000000000000240790000000000000224650000000000000000000000000000000000000000000000000000000000000000000000000000000000000000000000000000000000000000000000000000000000000000000000000000000000000005710000000000000026350000000000000581009BGEP48H0MG213200
120230503000243090874342  005JGERALDO            2   0000000383        144999NF  579491    2~NF~144999                                                 000000000000000000030000000000000419000000000000000419000000000000000000000000000000000000000000000000000000000000000000000000000000000000000419000000000000000000000000000000000419000000000000000016140000000000000016140000000000000000000000000000000000000000000000000000000000000000000000000000000000000000000000000000000000000000000000000000000000000000000020950000000000000000000000000000000006560000000000000030260000000000000419009BGEP48H0MG213200
120230503000914155864202  005UBIRACY             2   0000000383        1982123   579501    2~3~198212                                                  000000000030000000010000000000000448310000000000000000000000000000000448310000000000000000000000000000000000000000000000000000000000000000000448310000000000000448310000000000000000000000000000000305610000000000000168140000000000000137470000000000000000000000000000000000000000000000000000000000000000000000000000000000000000000000000000000000000000000000000000000000000000000000000000000000000005240000000000000024160000000000000448319BGED48H0PG150317
120230503000792187924152  005RUTH                2   0000000383        145000NF  578654    2~NF~145000                                                 000000000000000000040000000000002426940000000000002426940000000000000000000000000000000000000000000000000000000000000000000000000000000000002426940000000000000000000000000000002426940000000000000000000000000000000000000000000000000000000000000000000000000000000000000000000000000000000000000000000000000000000000000000000000000000000000000000000000000000000121350000000000000000000000000000000038050000000000000175220000000000002426949BGEY48H0MG192025
120230503000035204744502  005JGERALDO            2   0000000383        1982153   579499    2~3~198215                                                  000000000040000000010000000000001221790000000000000000000000000000001221790000000000000252190000000000000000000000000000000252190000000000000969600000000000000969600000000000000000000000000000000584430000000000000305130000000000000279310000000000000000000000000000000000000000000000000000000000000000000000000000000000000000000000000000000000000000000000000000000000000000000000000000000000000004660000000000000021480000000000000969609BGJC6920JB193104
120230503000035204744502  005JGERALDO            2   0000000383        145001NF  579499    2~NF~145001                                                 000000000000000000010000000000000430400000000000000430400000000000000000000000000000000000000000000000000000000000000000000000000000000000000430400000000000000000000000000000000430400000000000000025820000000000000025820000000000000000000000000000000000000000000000000000000000000000000000000000000000000000000000000000000000000000000000000000000000000000000021520000000000000000000000000000000006750000000000000031070000000000000430409BGJC6920JB193104
120230503000030968884182  005JOAOR               2   0000000383        1982163   579512    2~3~198216                                                  000000000050000000030000000000000549070000000000000000000000000000000549070000000000000109070000000000000000000000000000000109070000000000000440000000000000000440000000000000000000000000000000000576500000000000000303590000000000000272920000000000000000000000000000000000000000000000000000000000000000000000000000000000000000000000000000000000000000000000000000000000000000000000000000000000000004380000000000000020150000000000000440009BGEB69H0PG125689
120230503000030968884182  005JOAOR               2   0000000383        145002NF  579512    2~NF~145002                                                 000000000000000000030000000000000160000000000000000160000000000000000000000000000000000000000000000000000000000000000000000000000000000000000160000000000000000000000000000000000160000000000000000030670000000000000030670000000000000000000000000000000000000000000000000000000000000000000000000000000000000000000000000000000000000000000000000000000000000000000008000000000000000000000000000000000002500000000000000011560000000000000160009BGEB69H0PG125689
120230503000172952384682  004NATHALIA            2   0000000383        1982183   579516    2~3~198218                                                  000000000010000000010000000000000189900000000000000000000000000000000189900000000000000000000000000000000000000000000000000000000000000000000189900000000000000189900000000000000000000000000000000153920000000000000076960000000000000076960000000000000000000000000000000000000000000000000000000000000000000000000000000000000000000000000000000000000000000000000000000000000000000000000000000000000002510000000000000011550000000000000189903GNCJ8CZ8JL406445
120230503000724230648532  004NATHALIA            2   0000001718        1982203   579521    2~3~198220                                                  000000000010000000010000000000000500000000000000000000000000000000000500000000000000000000000000000000000000000000000000000000000000000000000500000000000000000500000000000000000000000000000000000291020000000000000145510000000000000145510000000000000000000000000000000000000000000000000000000000000000000000000000000000000000000000000000000000000000000000000000000000000000000000000000000000000000000000000000000000000000000000000500009BGED48H0PG305362
120230503000939082294722  005ROBSON              2   0000000383        1982233   579506    2~3~198223                                                  000000000060000000030000000000000712900000000000000000000000000000000712900000000000000149900000000000000000000000000000000149900000000000000563000000000000000563000000000000000000000000000000000645670000000000000334130000000000000311530000000000000000000000000000000000000000000000000000000000000000000000000000000000000000000000000000000000000000000000000000000000000000000000000000000000000006250000000000000028750000000000000563009BGEB48A0NG169665
120230503000939082294722  005ROBSON              2   0000000383        145003NF  579506    2~NF~145003                                                 000000000000000000030000000000000563000000000000000563000000000000000000000000000000000000000000000000000000000000000000000000000000000000000563000000000000000000000000000000000563000000000000000022600000000000000022600000000000000000000000000000000000000000000000000000000000000000000000000000000000000000000000000000000000000000000000000000000000000000000028150000000000000000000000000000000008820000000000000040660000000000000563009BGEB48A0NG169665
120230503000488822406492  005ROBSON              2   0000000383        1982273   579522    2~3~198227                                                  000000000030000000010000000000000316000000000000000000000000000000000316000000000000000077000000000000000000000000000000000077000000000000000239000000000000000239000000000000000000000000000000000233230000000000000117750000000000000115480000000000000000000000000000000000000000000000000000000000000000000000000000000000000000000000000000000000000000000000000000000000000000000000000000000000000003430000000000000015810000000000000239009BGJK7520PB198364
120230503000488822406492  005ROBSON              2   0000000383        145004NF  579522    2~NF~145004                                                 000000000000000000010000000000000060000000000000000060000000000000000000000000000000000000000000000000000000000000000000000000000000000000000060000000000000000000000000000000000060000000000000000002270000000000000002270000000000000000000000000000000000000000000000000000000000000000000000000000000000000000000000000000000000000000000000000000000000000000000003000000000000000000000000000000000000940000000000000004330000000000000060009BGJK7520PB198364
120230503000098920644022  005LUISC               2   0000000383        1982293   579495    2~3~198229                                                  000000000070000000020000000000000892650000000000000000000000000000000892650000000000000249940000000000000000000000000000000249940000000000000642710000000000000642710000000000000000000000000000000682740000000000000346210000000000000336530000000000000000000000000000000000000000000000000000000000000000000000000000000000000000000000000000000000000000000000000000000000000000000000000000000000000006260000000000000028800000000000000642719BGEY69H0MG155847
120230503000098920644022  005LUISC               2   0000000383        145005NF  579495    2~NF~145005                                                 000000000000000000020000000000000492290000000000000492290000000000000000000000000000000000000000000000000000000000000000000000000000000000000492290000000000000000000000000000000492290000000000000009680000000000000009680000000000000000000000000000000000000000000000000000000000000000000000000000000000000000000000000000000000000000000000000000000000000000000024610000000000000000000000000000000007720000000000000035540000000000000492299BGEY69H0MG155847
120230503006488030001572  005PAULON              2   0000000382        1982353   579520    2~3~198235                                                  000000000050000000010000000000000494740000000000000000000000000000000494740000000000000088740000000000000000000000000000000088740000000000000406000000000000000406000000000000000000000000000000000361130000000000000191870000000000000169270000000000000000000000000000000000000000000000000000000000000000000000000000000000000000000000000000000000000000000000000000000000000000000000000000000000000004430000000000000020420000000000000406009BGCA8030MB229648
120230503006488030001572  005PAULON              2   0000000382        145006NF  579520    2~NF~145006                                                 000000000000000000010000000000000450000000000000000450000000000000000000000000000000000000000000000000000000000000000000000000000000000000000450000000000000000000000000000000000450000000000000000022600000000000000022600000000000000000000000000000000000000000000000000000000000000000000000000000000000000000000000000000000000000000000000000000000000000000000022500000000000000000000000000000000007050000000000000032490000000000000450009BGCA8030MB229648
120230503000027322104392  005RUTH                2   0000000382        1982363   579331    2~3~198236                                                  000000000010000000040000000000000418400000000000000000000000000000000418400000000000000209200000000000000000000000000000000209200000000000000209200000000000000209200000000000000000000000000000000155340000000000000077670000000000000077670000000000000000000000000000000000000000000000000000000000000000000000000000000000000000000000000000000000000000000000000000000000000000000000000000000000000002760000000000000012720000000000000209209BGEP76B0MB111789
120230503000027322104392  005RUTH                2   0000000382        145007NF  579331    2~NF~145007                                                 000000000000000000040000000000000888960000000000000888960000000000000000000000000000000072160000000000000072160000000000000000000000000000000816800000000000000000000000000000000816800000000000000000000000000000000000000000000000000000000000000000000000000000000000000000000000000000000000000000000000000000000000000000000000000000000000000000000000000000000040840000000000000000000000000000000012800000000000000058970000000000000816809BGEP76B0MB111789
120230503000070189794552  005THIAGOM             2   0000000383        1982373   579524    2~3~198237                                                  000000000060000000030000000000000938030000000000000000000000000000000938030000000000000068540000000000000000000000000000000068540000000000000869490000000000000869490000000000000000000000000000000845290000000000000422640000000000000422640000000000000000000000000000000000000000000000000000000000000000000000000000000000000000000000000000000000000000000000000000000000000000000000000000000000000004110000000000000018950000000000000869499BGEB48A0MG122691
120230503000070189794552  005THIAGOM             2   0000000383        145008NF  579524    2~NF~145008                                                 000000000000000000030000000000000830510000000000000830510000000000000000000000000000000000000000000000000000000000000000000000000000000000000830510000000000000000000000000000000830510000000000000000000000000000000000000000000000000000000000000000000000000000000000000000000000000000000000000000000000000000000000000000000000000000000000000000000000000000000041530000000000000000000000000000000013010000000000000059970000000000000830519BGEB48A0MG122691
120230503000672543304912  005RUTH                2   0000000383        1982393   578002    2~3~198239                                                  000000000070000000010000000000005421980000000000000000000000000000005421980000000000003162980000000000000000000000000000003162980000000000002259000000000000002259000000000000000000000000000000002682030000000000001341010000000000001341010000000000000000000000000000000000000000000000000000000000000000000000000000000000000000000000000000000000000000000000000000000000000000000000000000000000000000000000000000000000000000000000002259009BGKL48U0JB166645
120230503000053681614092  004NATHALIA            2   0000001749        1982413   579536    2~3~198241                                                  000000000010000000010000000000000349000000000000000000000000000000000349000000000000000000000000000000000000000000000000000000000000000000000349000000000000000349000000000000000000000000000000000213290000000000000106650000000000000106650000000000000000000000000000000000000000000000000000000000000000000000000000000000000000000000000000000000000000000000000000000000000000000000000000000000000000000000000000000000000000000000000349009BGEB76H0RB107883
120230503000079947854762  004NATHALIA            2   0000000510        1982423   579290    2~3~198242                                                  000000000010000000010000000000003419000000000000000000000000000000003419000000000000000000000000000000000000000000000000000000000000000000003419000000000000003419000000000000000000000000000000001929050000000000000964530000000000000964530000000000000000000000000000000000000000000000000000000000000000000000000000000000000000000000000000000000000000000000000000000000000000000000000000000000000000000000000000000000000000000000003419009BGEN43B0PB251579
120230503000700560794512  004NATHALIA            2   0000000383        1982433   579523    2~3~198243                                                  000000000010000000010000000000000084400000000000000000000000000000000084400000000000000000000000000000000000000000000000000000000000000000000084400000000000000084400000000000000000000000000000000048880000000000000024470000000000000024410000000000000000000000000000000000000000000000000000000000000000000000000000000000000000000000000000000000000000000000000000000000000000000000000000000000000001110000000000000005130000000000000084409BGEY48H0NG127356
120230503000668759604782  005ROBSON              2   0000000383        1982473   579527    2~3~198247                                                  000000000030000000010000000000000436800000000000000000000000000000000436800000000000000000000000000000000000000000000000000000000000000000000436800000000000000436800000000000000000000000000000000305610000000000000168140000000000000137470000000000000000000000000000000000000000000000000000000000000000000000000000000000000000000000000000000000000000000000000000000000000000000000000000000000000005240000000000000024160000000000000436809BGEP76B0PB140318
120230503000052221394412  004NATHALIA            2   0000001811        1982483   579407    2~3~198248                                                  000000000010000000010000000000000689000000000000000000000000000000000689000000000000000000000000000000000000000000000000000000000000000000000689000000000000000689000000000000000000000000000000000354820000000000000177410000000000000177410000000000000000000000000000000000000000000000000000000000000000000000000000000000000000000000000000000000000000000000000000000000000000000000000000000000000009090000000000000041890000000000000689009BGEB43B0PB244390
120230504034464000003852  005JOAOVP              3   0000000428        145009NF  579513    2~NF~145009                                                 000000000000000000010000000000000502300000000000000502300000000000000000000000000000000000000000000000000000000000000000000000000000000000000502300000000000000000000000000000000502300000000000000025750000000000000025750000000000000000000000000000000000000000000000000000000000000000000000000000000000000000000000000000000000000000000000000000000000000000000025110000000000000000000000000000000007870000000000000036270000000000000502309BG148DK0PC435404
120230504034464000003852  005JOAOR               3   0000000428        145010NF  579494    2~NF~145010                                                 000000000000000000010000000000000502300000000000000502300000000000000000000000000000000000000000000000000000000000000000000000000000000000000502300000000000000000000000000000000502300000000000000025750000000000000025750000000000000000000000000000000000000000000000000000000000000000000000000000000000000000000000000000000000000000000000000000000000000000000025110000000000000000000000000000000007870000000000000036270000000000000502309BG148DK0PC435366
120230504000175853844912  005MARCIOR             3   0000000428        1982513   579187    2~3~198251                                                  000000000010000000010000000000000730610000000000000000000000000000000730610000000000000000000000000000000000000000000000000000000000000000000730610000000000000730610000000000000000000000000000001020120000000000000564280000000000000455850000000000000000000000000000000000000000000000000000000000000000000000000000000000000000000000000000000000000000000000000000000000000000000000000000000000000009640000000000000044420000000000000730619BGEY76H0NB126103
120230504000175853844912  005MARCIOR             3   0000000428        145011NF  579187    2~NF~145011                                                 000000000000000000010000000000001807120000000000001807120000000000000000000000000000000000000000000000000000000000000000000000000000000000001807120000000000000000000000000000001807120000000000000108430000000000000108430000000000000000000000000000000000000000000000000000000000000000000000000000000000000000000000000000000000000000000000000000000000000000000090360000000000000000000000000000000028330000000000000130470000000000001807129BGEY76H0NB126103
120230504000077650484302  005JOAOVP              3   0000000428        1982543   579224    2~3~198254                                                  000000000010000000010000000000000730610000000000000000000000000000000730610000000000000000000000000000000000000000000000000000000000000000000730610000000000000730610000000000000000000000000000001020120000000000000564280000000000000455850000000000000000000000000000000000000000000000000000000000000000000000000000000000000000000000000000000000000000000000000000000000000000000000000000000000000009640000000000000044420000000000000730619BGEP76B0NB183965
120230504000077650484302  005JOAOVP              3   0000000428        145012NF  579224    2~NF~145012                                                 000000000000000000010000000000001807120000000000001807120000000000000000000000000000000000000000000000000000000000000000000000000000000000001807120000000000000000000000000000001807120000000000000108430000000000000108430000000000000000000000000000000000000000000000000000000000000000000000000000000000000000000000000000000000000000000000000000000000000000000090360000000000000000000000000000000028330000000000000130470000000000001807129BGEP76B0NB183965
120230504000032588394762  005JGERALDO            2   0000000383        1982563   579556    2~3~198256                                                  000000000010000000010000000000000657080000000000000000000000000000000657080000000000000087780000000000000000000000000000000087780000000000000569300000000000000569300000000000000000000000000000000315320000000000000160080000000000000155240000000000000000000000000000000000000000000000000000000000000000000000000000000000000000000000000000000000000000000000000000000000000000000000000000000000000000000000000000000000000000000000000569309BGKL48U0KB246593
120230504000032588394762  005JGERALDO            2   0000000383        145013NF  579556    2~NF~145013                                                 000000000000000000010000000000000080700000000000000080700000000000000000000000000000000000000000000000000000000000000000000000000000000000000080700000000000000000000000000000000080700000000000000004840000000000000004840000000000000000000000000000000000000000000000000000000000000000000000000000000000000000000000000000000000000000000000000000000000000000000004040000000000000000000000000000000001260000000000000005830000000000000080709BGKL48U0KB246593
120230504000586569104002  005UBIRACY             2   0000000383        1982583   579545    2~3~198258                                                  000000000040000000010000000000000469430000000000000000000000000000000469430000000000000000000000000000000000000000000000000000000000000000000469430000000000000469430000000000000000000000000000000328200000000000000179440000000000000148770000000000000000000000000000000000000000000000000000000000000000000000000000000000000000000000000000000000000000000000000000000000000000000000000000000000000005240000000000000024160000000000000469438AGEB76H0PR120414
120230504318039090001012  005THIAGOM             3   0000000428        145014NF  579062    2~NF~145014                                                 000000000000000000010000000000001807120000000000001807120000000000000000000000000000000000000000000000000000000000000000000000000000000000001807120000000000000000000000000000001807120000000000000000000000000000000000000000000000000000000000000000000000000000000000000000000000000000000000000000000000000000000000000000000000000000000000000000000000000000000090360000000000000000000000000000000028330000000000000130470000000000001807129BGEP76B0NB162743
120230504318039090001012  005THIAGOM             3   0000000428        1982593   579062    2~3~198259                                                  000000000010000000010000000000000730610000000000000000000000000000000730610000000000000000000000000000000000000000000000000000000000000000000730610000000000000730610000000000000000000000000000000911690000000000000455850000000000000455850000000000000000000000000000000000000000000000000000000000000000000000000000000000000000000000000000000000000000000000000000000000000000000000000000000000000009640000000000000044420000000000000730619BGEP76B0NB162743
120230504000221280184042  005ROBSON              2   0000000383        1982653   579560    2~3~198265                                                  000000000030000000010000000000000327010000000000000000000000000000000327010000000000000077010000000000000000000000000000000077010000000000000250000000000000000250000000000000000000000000000000000230830000000000000119910000000000000110910000000000000000000000000000000000000000000000000000000000000000000000000000000000000000000000000000000000000000000000000000000000000000000000000000000000000001510000000000000006970000000000000250009BGKS48ROGG255437
120230504000221280184042  005ROBSON              2   0000000383        145015NF  579560    2~NF~145015                                                 000000000000000000010000000000000050000000000000000050000000000000000000000000000000000000000000000000000000000000000000000000000000000000000050000000000000000000000000000000000050000000000000000009000000000000000009000000000000000000000000000000000000000000000000000000000000000000000000000000000000000000000000000000000000000000000000000000000000000000000002500000000000000000000000000000000000780000000000000003610000000000000050009BGKS48ROGG255437
120230504000430412134002  005JGERALDO            2   0000000383        1982663   579525    2~3~198266                                                  000000000020000000010000000000000555910000000000000000000000000000000555910000000000000156610000000000000000000000000000000156610000000000000399300000000000000399300000000000000000000000000000000195410000000000000100130000000000000095290000000000000000000000000000000000000000000000000000000000000000000000000000000000000000000000000000000000000000000000000000000000000000000000000000000000000005270000000000000024280000000000000399308AGSU19F0ER180586
120230504000430412134002  005JGERALDO            2   0000000383        145016NF  579525    2~NF~145016                                                 000000000000000000010000000000000080700000000000000080700000000000000000000000000000000000000000000000000000000000000000000000000000000000000080700000000000000000000000000000000080700000000000000004840000000000000004840000000000000000000000000000000000000000000000000000000000000000000000000000000000000000000000000000000000000000000000000000000000000000000004040000000000000000000000000000000001260000000000000005830000000000000080708AGSU19F0ER180586
120230504000019657414522  005THIAGOM             2   0000000383        1982673   579547    2~3~198267                                                  000000000020000000030000000000000373280000000000000000000000000000000373280000000000000000000000000000000000000000000000000000000000000000000373280000000000000373280000000000000000000000000000000112170000000000000056090000000000000056090000000000000000000000000000000000000000000000000000000000000000000000000000000000000000000000000000000000000000000000000000000000000000000000000000000000000003020000000000000013930000000000000373289BGCA8030KB106849
120230504000019657414522  005THIAGOM             2   0000000383        145017NF  579547    2~NF~145017                                                 000000000000000000030000000000000300000000000000000300000000000000000000000000000000000000000000000000000000000000000000000000000000000000000300000000000000000000000000000000000300000000000000000000000000000000000000000000000000000000000000000000000000000000000000000000000000000000000000000000000000000000000000000000000000000000000000000000000000000000000015000000000000000000000000000000000004690000000000000021670000000000000300009BGCA8030KB106849
120230504241314130001732  004NATHALIA            2   0000001749        1982693   579537    2~3~198269                                                  000000000020000000010000000000000749000000000000000000000000000000000749000000000000000000000000000000000000000000000000000000000000000000000749000000000000000749000000000000000000000000000000000433390000000000000216690000000000000216690000000000000000000000000000000000000000000000000000000000000000000000000000000000000000000000000000000000000000000000000000000000000000000000000000000000000005280000000000000024320000000000000749009BGEB43B0PB250515
120230504000082483934022  005LUISC               2   0000000383        1982703   579502    2~3~198270                                                  000000000030000000010000000000000409310000000000000000000000000000000409310000000000000009310000000000000000000000000000000009310000000000000400000000000000000400000000000000000000000000000000000290200000000000000152730000000000000137470000000000000000000000000000000000000000000000000000000000000000000000000000000000000000000000000000000000000000000000000000000000000000000000000000000000000004500000000000000020720000000000000400009BGEB48H0PG192890
120230504000045548224192  005THIAGOM             2   0000000383        1982713   579567    2~3~198271                                                  000000000030000000010000000000000260000000000000000000000000000000000260000000000000000051000000000000000000000000000000000051000000000000000209000000000000000209000000000000000000000000000000000215230000000000000107620000000000000107620000000000000000000000000000000000000000000000000000000000000000000000000000000000000000000000000000000000000000000000000000000000000000000000000000000000000002900000000000000013380000000000000209009BGKS69R0FG411224
120230504000045548224192  005THIAGOM             2   0000000383        145018NF  579567    2~NF~145018                                                 000000000000000000010000000000000060000000000000000060000000000000000000000000000000000000000000000000000000000000000000000000000000000000000060000000000000000000000000000000000060000000000000000000000000000000000000000000000000000000000000000000000000000000000000000000000000000000000000000000000000000000000000000000000000000000000000000000000000000000000003000000000000000000000000000000000000940000000000000004330000000000000060009BGKS69R0FG411224
120230504000837967624682  005JOAOR               2   0000000382        1982763   579568    2~3~198276                                                  000000000100000000020000000000001140390000000000000000000000000000001140390000000000000190390000000000000000000000000000000190390000000000000950000000000000000950000000000000000000000000000000000865160000000000000445210000000000000419950000000000000000000000000000000000000000000000000000000000000000000000000000000000000000000000000000000000000000000000000000000000000000000000000000000000000006770000000000000031180000000000000950009BGKL48U0HB203436
120230504000837967624682  005JOAOR               2   0000000382        145019NF  579568    2~NF~145019                                                 000000000000000000020000000000000500000000000000000500000000000000000000000000000000000000000000000000000000000000000000000000000000000000000500000000000000000000000000000000000500000000000000000025260000000000000025260000000000000000000000000000000000000000000000000000000000000000000000000000000000000000000000000000000000000000000000000000000000000000000025000000000000000000000000000000000007830000000000000036100000000000000500009BGKL48U0HB203436
120230504000009357144562  005JOAOR               2   0000000383        1982803   579554    2~3~198280                                                  000000000070000000040000000000000551570000000000000000000000000000000551570000000000000101430000000000000000000000000000000101430000000000000450140000000000000450140000000000000000000000000000000527880000000000000275640000000000000252240000000000000000000000000000000000000000000000000000000000000000000000000000000000000000000000000000000000000000000000000000000000000000000000000000000000000003660000000000000016850000000000000450149BGKS48U0JG163054
120230504000009357144562  005JOAOR               2   0000000383        145020NF  579554    2~NF~145020                                                 000000000000000000040000000000000700000000000000000700000000000000000000000000000000000000000000000000000000000000000000000000000000000000000700000000000000000000000000000000000700000000000000000023400000000000000023400000000000000000000000000000000000000000000000000000000000000000000000000000000000000000000000000000000000000000000000000000000000000000000035000000000000000000000000000000000010970000000000000050540000000000000700009BGKS48U0JG163054
120230504000200179604872  005LUISC               2   0000000383        1982843   579546    2~3~198284                                                  000000000100000000040000000000001213890000000000000000000000000000001213890000000000000339890000000000000000000000000000000339890000000000000874000000000000000874000000000000000000000000000000000885450000000000000450790000000000000434650000000000000000000000000000000000000000000000000000000000000000000000000000000000000000000000000000000000000000000000000000000000000000000000000000000000000008990000000000000041400000000000000874009BGEY69H0LG125040
120230504000200179604872  005LUISC               2   0000000383        145021NF  579546    2~NF~145021                                                 000000000000000000040000000000000796000000000000000796000000000000000000000000000000000000000000000000000000000000000000000000000000000000000796000000000000000000000000000000000796000000000000000016140000000000000016140000000000000000000000000000000000000000000000000000000000000000000000000000000000000000000000000000000000000000000000000000000000000000000039800000000000000000000000000000000012470000000000000057480000000000000796009BGEY69H0LG125040
120230504000413128724202  005RUTH                3   0000000428        1982853   577326    2~3~198285                                                  000000000010000000040000000000000568580000000000000000000000000000000568580000000000000062020000000000000000000000000000000062020000000000000506560000000000000506560000000000000000000000000000000619600000000000000312850000000000000306750000000000000000000000000000000000000000000000000000000000000000000000000000000000000000000000000000000000000000000000000000000000000000000000000000000000000006690000000000000030800000000000000506569BGEP69H0LG234895
120230504000413128724202  005RUTH                3   0000000428        145022NF  577326    2~NF~145022                                                 000000000000000000040000000000001319110000000000001319110000000000000000000000000000000284290000000000000284290000000000000000000000000000001034820000000000000000000000000000001034820000000000000006100000000000000006100000000000000000000000000000000000000000000000000000000000000000000000000000000000000000000000000000000000000000000000000000000000000000000051740000000000000000000000000000000016220000000000000074720000000000001034829BGEP69H0LG234895
120230504000074627124742  005JGERALDO            2   0000000383        1982863   579575    2~3~198286                                                  000000000030000000010000000000000301000000000000000000000000000000000301000000000000000092000000000000000000000000000000000092000000000000000209000000000000000209000000000000000000000000000000000234190000000000000118710000000000000115480000000000000000000000000000000000000000000000000000000000000000000000000000000000000000000000000000000000000000000000000000000000000000000000000000000000000002980000000000000013720000000000000209009BGJK7520MB203190
120230504000074627124742  005JGERALDO            2   0000000383        145023NF  579575    2~NF~145023                                                 000000000000000000010000000000000060000000000000000060000000000000000000000000000000000000000000000000000000000000000000000000000000000000000060000000000000000000000000000000000060000000000000000003230000000000000003230000000000000000000000000000000000000000000000000000000000000000000000000000000000000000000000000000000000000000000000000000000000000000000003000000000000000000000000000000000000940000000000000004330000000000000060009BGJK7520MB203190
120230504000021372937732  005THIAGOM             2   0000000383        1982873   579569    2~3~198287                                                  000000000050000000020000000000000655060000000000000000000000000000000655060000000000000173760000000000000000000000000000000173760000000000000481300000000000000481300000000000000000000000000000000413990000000000000206990000000000000206990000000000000000000000000000000000000000000000000000000000000000000000000000000000000000000000000000000000000000000000000000000000000000000000000000000000000002930000000000000013520000000000000481309BGEA69H0NG134131
120230504000021372937732  005THIAGOM             2   0000000383        145024NF  579569    2~NF~145024                                                 000000000000000000020000000000000618700000000000000618700000000000000000000000000000000000000000000000000000000000000000000000000000000000000618700000000000000000000000000000000618700000000000000000000000000000000000000000000000000000000000000000000000000000000000000000000000000000000000000000000000000000000000000000000000000000000000000000000000000000000030930000000000000000000000000000000009700000000000000044670000000000000618709BGEA69H0NG134131
120230504000597641394342  005LUISC               2   0000000383        1982883   579570    2~3~198288                                                  000000000070000000020000000000000716660000000000000000000000000000000716660000000000000170660000000000000000000000000000000170660000000000000546000000000000000546000000000000000000000000000000000475590000000000000242630000000000000232950000000000000000000000000000000000000000000000000000000000000000000000000000000000000000000000000000000000000000000000000000000000000000000000000000000000000005820000000000000026800000000000000546009BGEN69H0NG117318
120230504000597641394342  005LUISC               2   0000000383        145025NF  579570    2~NF~145025                                                 000000000000000000020000000000000404000000000000000404000000000000000000000000000000000000000000000000000000000000000000000000000000000000000404000000000000000000000000000000000404000000000000000009680000000000000009680000000000000000000000000000000000000000000000000000000000000000000000000000000000000000000000000000000000000000000000000000000000000000000020200000000000000000000000000000000006340000000000000029170000000000000404009BGEN69H0NG117318
120230504000751252344002  005THIAGOM             2   0000000383        1982903   579563    2~3~198290                                                  000000000040000000040000000000002136700000000000000000000000000000002136700000000000000000000000000000000000000000000000000000000000000000002136700000000000002136700000000000000000000000000000002154610000000000001077300000000000001077300000000000000000000000000000000000000000000000000000000000000000000000000000000000000000000000000000000000000000000000000000000000000000000000000000000000000008240000000000000037950000000000002136709BGKL48U0KB228789
120230504000751252344002  005THIAGOM             2   0000000383        145026NF  579563    2~NF~145026                                                 000000000000000000040000000000002113290000000000002113290000000000000000000000000000000000000000000000000000000000000000000000000000000000002113290000000000000000000000000000002113290000000000000000000000000000000000000000000000000000000000000000000000000000000000000000000000000000000000000000000000000000000000000000000000000000000000000000000000000000000105660000000000000000000000000000000033120000000000000152580000000000002113299BGKL48U0KB228789
120230504335413680036462  005ROBSON              2   0000001725        1982923   579375    2~3~198292                                                  000000000110000000040000000000002139170000000000000000000000000000002139170000000000000592990000000000000000000000000000000592990000000000001546180000000000001546180000000000000000000000000000001187260000000000000613130000000000000574130000000000000000000000000000000000000000000000000000000000000000000000000000000000000000000000000000000000000000000000000000000000000000000000000000000000000008640000000000000039780000000000001546189BGJG7520LB111094
120230504335413680036462  005ROBSON              2   0000001725        145027NF  579375    2~NF~145027                                                 000000000000000000040000000000000778700000000000000778700000000000000000000000000000000000000000000000000000000000000000000000000000000000000778700000000000000000000000000000000778700000000000000039000000000000000039000000000000000000000000000000000000000000000000000000000000000000000000000000000000000000000000000000000000000000000000000000000000000000000038940000000000000000000000000000000012200000000000000056230000000000000778709BGJG7520LB111094
120230504000079797524142  004NATHALIA            2   0000000510        1982943   579572    2~3~198294                                                  000000000010000000010000000000000270000000000000000000000000000000000270000000000000000000000000000000000000000000000000000000000000000000000270000000000000000270000000000000000000000000000000000212640000000000000106320000000000000106320000000000000000000000000000000000000000000000000000000000000000000000000000000000000000000000000000000000000000000000000000000000000000000000000000000000000000000000000000000000000000000000000270009BGEB48A0PG281856
120230504000010583424602  004NATHALIA            2   0000000510        1982953   579577    2~3~198295                                                  000000000020000000010000000000000670000000000000000000000000000000000670000000000000000000000000000000000000000000000000000000000000000000000670000000000000000670000000000000000000000000000000000450260000000000000225130000000000000225130000000000000000000000000000000000000000000000000000000000000000000000000000000000000000000000000000000000000000000000000000000000000000000000000000000000000005280000000000000024320000000000000670008AGEB76H0PR137518
120230504000243260034722  004NATHALIA            2   0000000510        1982963   579555    2~3~198296                                                  000000000020000000010000000000000839000000000000000000000000000000000839000000000000000000000000000000000000000000000000000000000000000000000839000000000000000839000000000000000000000000000000000499750000000000000249870000000000000249870000000000000000000000000000000000000000000000000000000000000000000000000000000000000000000000000000000000000000000000000000000000000000000000000000000000000006470000000000000029790000000000000839009BG156YK0PC423349
120230505000422464584042  005JOAOVP              3   0000000428        1982983   579273    2~3~198298                                                  000000000010000000010000000000000730610000000000000000000000000000000730610000000000000000000000000000000000000000000000000000000000000000000730610000000000000730610000000000000000000000000000001020120000000000000564280000000000000455850000000000000000000000000000000000000000000000000000000000000000000000000000000000000000000000000000000000000000000000000000000000000000000000000000000000000009640000000000000044420000000000000730619BGEP76B0MB111076
120230505000422464584042  005JOAOVP              3   0000000428        145028NF  579273    2~NF~145028                                                 000000000000000000010000000000001807120000000000001807120000000000000000000000000000000000000000000000000000000000000000000000000000000000001807120000000000000000000000000000001807120000000000000108430000000000000108430000000000000000000000000000000000000000000000000000000000000000000000000000000000000000000000000000000000000000000000000000000000000000000090360000000000000000000000000000000028330000000000000130470000000000001807129BGEP76B0MB111076
120230505000322778904302  005JOAOR               2   0000000390        1982993   579579    2~3~198299                                                  000000000050000000020000000000000751000000000000000000000000000000000751000000000000000312000000000000000000000000000000000312000000000000000439000000000000000439000000000000000000000000000000000482560000000000000241750000000000000240810000000000000000000000000000000000000000000000000000000000000000000000000000000000000000000000000000000000000000000000000000000000000000000000000000000000000003670000000000000016880000000000000439009BGKS69V0KG252423
120230505000322778904302  005JOAOR               2   0000000390        145029NF  579579    2~NF~145029                                                 000000000000000000020000000000000210000000000000000210000000000000000000000000000000000000000000000000000000000000000000000000000000000000000210000000000000000000000000000000000210000000000000000000940000000000000000940000000000000000000000000000000000000000000000000000000000000000000000000000000000000000000000000000000000000000000000000000000000000000000010500000000000000000000000000000000003290000000000000015160000000000000210009BGKS69V0KG252423
120230505003944940005602  005LUISC               3   0000000428        145030NF  579395    2~NF~145030                                                 000000000000000000010000000000000502300000000000000502300000000000000000000000000000000000000000000000000000000000000000000000000000000000000502300000000000000000000000000000000502300000000000000025750000000000000025750000000000000000000000000000000000000000000000000000000000000000000000000000000000000000000000000000000000000000000000000000000000000000000025110000000000000000000000000000000007870000000000000036270000000000000502309BG148FK0NC443684
120230505000018550874052  005THIAGOM             2   0000000383        1983003   579582    2~3~198300                                                  000000000040000000010000000000000465270000000000000000000000000000000465270000000000000000000000000000000000000000000000000000000000000000000465270000000000000465270000000000000000000000000000000362000000000000000181000000000000000181000000000000000000000000000000000000000000000000000000000000000000000000000000000000000000000000000000000000000000000000000000000000000000000000000000000000000005030000000000000023160000000000000465278AGBB69S0KR122262
120230505000018550874052  005THIAGOM             2   0000000383        145031NF  579582    2~NF~145031                                                 000000000000000000010000000000000373910000000000000373910000000000000000000000000000000000000000000000000000000000000000000000000000000000000373910000000000000000000000000000000373910000000000000000000000000000000000000000000000000000000000000000000000000000000000000000000000000000000000000000000000000000000000000000000000000000000000000000000000000000000018700000000000000000000000000000000005860000000000000027000000000000000373918AGBB69S0KR122262
120230505000009265834252  005JGERALDO            3   0000000428        1983013   579161    2~3~198301                                                  000000000020000000010000000000002568840000000000000000000000000000002568840000000000000000000000000000000000000000000000000000000000000000002568840000000000002568840000000000000000000000000000003372650000000000001688360000000000001684290000000000000000000000000000000000000000000000000000000000000000000000000000000000000000000000000000000000000000000000000000000000000000000000000000000000000000000000000000000000000000000000002568849BGJP7520PB122169
120230505000009265834252  005JGERALDO            3   0000000428        145032NF  579161    2~NF~145032                                                 000000000000000000010000000000000067770000000000000067770000000000000000000000000000000000000000000000000000000000000000000000000000000000000067770000000000000000000000000000000067770000000000000004070000000000000004070000000000000000000000000000000000000000000000000000000000000000000000000000000000000000000000000000000000000000000000000000000000000000000003390000000000000000000000000000000001060000000000000004890000000000000067779BGJP7520PB122169
120230505000026378264602  005JOAOVP              2   0000000383        1983023   579584    2~3~198302                                                  000000000030000000020000000000000519890000000000000000000000000000000519890000000000000249550000000000000000000000000000000249550000000000000270340000000000000270340000000000000000000000000000000391670000000000000199870000000000000191800000000000000000000000000000000000000000000000000000000000000000000000000000000000000000000000000000000000000000000000000000000000000000000000000000000000000002410000000000000011100000000000000270348AGBB69S0KR122973
120230505000026378264602  005JOAOVP              2   0000000383        145033NF  579584    2~NF~145033                                                 000000000000000000020000000000000060000000000000000060000000000000000000000000000000000010340000000000000010340000000000000000000000000000000049660000000000000000000000000000000049660000000000000008070000000000000008070000000000000000000000000000000000000000000000000000000000000000000000000000000000000000000000000000000000000000000000000000000000000000000002480000000000000000000000000000000000780000000000000003590000000000000049668AGBB69S0KR122973
120230505000720713974872  005PAULON              3   0000000428        145034NF  579585    2~NF~145034                                                 000000000000000000020000000000000068120000000000000068120000000000000000000000000000000000000000000000000000000000000000000000000000000000000068120000000000000000000000000000000068120000000000000002710000000000000002710000000000000000000000000000000000000000000000000000000000000000000000000000000000000000000000000000000000000000000000000000000000000000000003410000000000000000000000000000000001070000000000000004920000000000000068129BGKS69V0HG129964
120230505000448064774002  005LUISC               2   0000000383        1983053   579266    2~3~198305                                                  000000000010000000010000000000001003300000000000000000000000000000001003300000000000000353300000000000000000000000000000000353300000000000000650000000000000000650000000000000000000000000000000000567220000000000000308630000000000000258600000000000000000000000000000000000000000000000000000000000000000000000000000000000000000000000000000000000000000000000000000000000000000000000000000000000000000000000000000000000000000000000000650009BGEB48A0LG280827
120230505000448064774002  005LUISC               2   0000000383        145035NF  579266    2~NF~145035                                                 000000000000000000010000000000000950000000000000000950000000000000000000000000000000000000000000000000000000000000000000000000000000000000000950000000000000000000000000000000000950000000000000000050030000000000000050030000000000000000000000000000000000000000000000000000000000000000000000000000000000000000000000000000000000000000000000000000000000000000000047500000000000000000000000000000000014890000000000000068590000000000000950009BGEB48A0LG280827
120230505000156464244532  005JGERALDO            2   0000000383        1983093   579581    2~3~198309                                                  000000000090000000020000000000001344730000000000000000000000000000001344730000000000000000000000000000000000000000000000000000000000000000001344730000000000001344730000000000000000000000000000000805400000000000000407200000000000000398200000000000000000000000000000000000000000000000000000000000000000000000000000000000000000000000000000000000000000000000000000000000000000000000000000000000000013380000000000000061670000000000001344739BGKS48V0JG236281
120230505000156464244532  005JGERALDO            2   0000000383        145036NF  579581    2~NF~145036                                                 000000000000000000020000000000000410000000000000000410000000000000000000000000000000000000000000000000000000000000000000000000000000000000000410000000000000000000000000000000000410000000000000000009000000000000000009000000000000000000000000000000000000000000000000000000000000000000000000000000000000000000000000000000000000000000000000000000000000000000000020500000000000000000000000000000000006430000000000000029600000000000000410009BGKS48V0JG236281
120230505000035034284962  005MARCIOR             3   0000000428        1983103   579171    2~3~198310                                                  000000000010000000010000000000000931940000000000000000000000000000000931940000000000000051720000000000000000000000000000000051720000000000000880220000000000000880220000000000000000000000000000000728870000000000000367820000000000000361050000000000000000000000000000000000000000000000000000000000000000000000000000000000000000000000000000000000000000000000000000000000000000000000000000000000000000000000000000000000000000000000000880229BGJC6920HB140462
120230505000035034284962  005MARCIOR             3   0000000428        145037NF  579171    2~NF~145037                                                 000000000000000000010000000000000112940000000000000112940000000000000000000000000000000000000000000000000000000000000000000000000000000000000112940000000000000000000000000000000112940000000000000006780000000000000006780000000000000000000000000000000000000000000000000000000000000000000000000000000000000000000000000000000000000000000000000000000000000000000005650000000000000000000000000000000001770000000000000008150000000000000112949BGJC6920HB140462
120230505000013104624102  004NATHALIA            2   0000000383        1983133   579588    2~3~198313                                                  000000000010000000010000000000000480000000000000000000000000000000000480000000000000000000000000000000000000000000000000000000000000000000000480000000000000000480000000000000000000000000000000000291080000000000000145570000000000000145510000000000000000000000000000000000000000000000000000000000000000000000000000000000000000000000000000000000000000000000000000000000000000000000000000000000000000000000000000000000000000000000000480009BGEY69H0PG121165
120230505000013104624102  005MARCIOR             2   0000000383        1983143   579586    2~3~198314                                                  000000000040000000010000000000000542070000000000000000000000000000000542070000000000000000000000000000000000000000000000000000000000000000000542070000000000000542070000000000000000000000000000000519710000000000000275190000000000000244520000000000000000000000000000000000000000000000000000000000000000000000000000000000000000000000000000000000000000000000000000000000000000000000000000000000000004160000000000000019190000000000000542079BGEY69H0PG121165
120230505000025763264632  005ROBSON              2   0000000383        1983163   579591    2~3~198316                                                  000000000060000000010000000000000738780000000000000000000000000000000738780000000000000221630000000000000000000000000000000221630000000000000517150000000000000517150000000000000000000000000000000602350000000000000312470000000000000289870000000000000000000000000000000000000000000000000000000000000000000000000000000000000000000000000000000000000000000000000000000000000000000000000000000000000003600000000000000016600000000000000517159BGEY69H0PG120607
120230505000025763264632  005ROBSON              2   0000000383        145038NF  579591    2~NF~145038                                                 000000000000000000010000000000000499000000000000000499000000000000000000000000000000000099000000000000000099000000000000000000000000000000000400000000000000000000000000000000000400000000000000000022600000000000000022600000000000000000000000000000000000000000000000000000000000000000000000000000000000000000000000000000000000000000000000000000000000000000000020000000000000000000000000000000000006270000000000000028880000000000000400009BGEY69H0PG120607
120230505000068915414332  005LUISC               2   0000000383        1983173   579592    2~3~198317                                                  000000000040000000010000000000000453270000000000000000000000000000000453270000000000000135980000000000000000000000000000000135980000000000000317290000000000000317290000000000000000000000000000000330010000000000000185990000000000000144030000000000000000000000000000000000000000000000000000000000000000000000000000000000000000000000000000000000000000000000000000000000000000000000000000000000000003220000000000000014840000000000000317299BGEP69H0LG227648
120230505000068915414332  005LUISC               2   0000000383        145039NF  579592    2~NF~145039                                                 000000000000000000010000000000000282710000000000000282710000000000000000000000000000000000000000000000000000000000000000000000000000000000000282710000000000000000000000000000000282710000000000000041960000000000000041960000000000000000000000000000000000000000000000000000000000000000000000000000000000000000000000000000000000000000000000000000000000000000000014140000000000000000000000000000000004430000000000000020410000000000000282719BGEP69H0LG227648
120230505000512368264342  005UBIRACY             2   0000000383        1983183   579580    2~3~198318                                                  000000000040000000010000000000000515600000000000000000000000000000000515600000000000000195930000000000000000000000000000000195930000000000000319670000000000000319670000000000000000000000000000000330000000000000000174090000000000000155910000000000000000000000000000000000000000000000000000000000000000000000000000000000000000000000000000000000000000000000000000000000000000000000000000000000000003250000000000000014980000000000000319679BGEX76H0MB205121
120230505000512368264342  005UBIRACY             2   0000000383        145040NF  579580    2~NF~145040                                                 000000000000000000010000000000000303000000000000000303000000000000000000000000000000000022670000000000000022670000000000000000000000000000000280330000000000000000000000000000000280330000000000000018180000000000000018180000000000000000000000000000000000000000000000000000000000000000000000000000000000000000000000000000000000000000000000000000000000000000000014020000000000000000000000000000000004390000000000000020240000000000000280339BGEX76H0MB205121
120230505000030048404642  005PAULON              3   0000000428        1983193   579476    2~3~198319                                                  000000000010000000010000000000000689690000000000000000000000000000000689690000000000000038280000000000000000000000000000000038280000000000000651410000000000000651410000000000000000000000000000000726560000000000000364630000000000000361930000000000000000000000000000000000000000000000000000000000000000000000000000000000000000000000000000000000000000000000000000000000000000000000000000000000000000000000000000000000000000000000000651419BGJB75Z0FB149481
120230505000030048404642  005PAULON              3   0000000428        145041NF  579476    2~NF~145041                                                 000000000000000000010000000000000045180000000000000045180000000000000000000000000000000000000000000000000000000000000000000000000000000000000045180000000000000000000000000000000045180000000000000002710000000000000002710000000000000000000000000000000000000000000000000000000000000000000000000000000000000000000000000000000000000000000000000000000000000000000002260000000000000000000000000000000000710000000000000003260000000000000045189BGJB75Z0FB149481
120230505000131333814152  005LUISC               2   0000000383        1983203   579603    2~3~198320                                                  000000000080000000020000000000001003760000000000000000000000000000001003760000000000000281050000000000000000000000000000000281050000000000000722710000000000000722710000000000000000000000000000000593840000000000000301760000000000000292080000000000000000000000000000000000000000000000000000000000000000000000000000000000000000000000000000000000000000000000000000000000000000000000000000000000000008100000000000000037270000000000000722719BGEN76H0NB159004
120230505000131333814152  005LUISC               2   0000000383        145042NF  579603    2~NF~145042                                                 000000000000000000020000000000000577000000000000000577000000000000000000000000000000000000000000000000000000000000000000000000000000000000000577000000000000000000000000000000000577000000000000000009680000000000000009680000000000000000000000000000000000000000000000000000000000000000000000000000000000000000000000000000000000000000000000000000000000000000000028850000000000000000000000000000000009040000000000000041660000000000000577009BGEN76H0NB159004
120230505000199522014002  004NATHALIA            2   0000000383        1983273   579394    2~3~198327                                                  000000000010000000010000000000000500000000000000000000000000000000000500000000000000000000000000000000000000000000000000000000000000000000000500000000000000000500000000000000000000000000000000000319110000000000000159560000000000000159560000000000000000000000000000000000000000000000000000000000000000000000000000000000000000000000000000000000000000000000000000000000000000000000000000000000000000000000000000000000000000000000000500008AGEP76B0PR130430
120230505000106040904632  005RUTH                2   0000000383        145043NF  578006    2~NF~145043                                                 000000000000000000030000000000003192000000000000003192000000000000000000000000000000000000000000000000000000000000000000000000000000000000003192000000000000000000000000000000003192000000000000000000000000000000000000000000000000000000000000000000000000000000000000000000000000000000000000000000000000000000000000000000000000000000000000000000000000000000000159600000000000000000000000000000000050030000000000000230460000000000003192009BGEB48A0MG188373
120230505000566401024042  005JOAOR               2   0000000383        1983323   579609    2~3~198332                                                  000000000060000000030000000000000504080000000000000000000000000000000504080000000000000149080000000000000000000000000000000149080000000000000355000000000000000355000000000000000000000000000000000436270000000000000231450000000000000204820000000000000000000000000000000000000000000000000000000000000000000000000000000000000000000000000000000000000000000000000000000000000000000000000000000000000004950000000000000022760000000000000355009BGKC48V0JG369206
120230505000566401024042  005JOAOR               2   0000000383        145044NF  579609    2~NF~145044                                                 000000000000000000030000000000000600000000000000000600000000000000000000000000000000000005000000000000000005000000000000000000000000000000000595000000000000000000000000000000000595000000000000000026630000000000000026630000000000000000000000000000000000000000000000000000000000000000000000000000000000000000000000000000000000000000000000000000000000000000000029750000000000000000000000000000000009320000000000000042960000000000000595009BGKC48V0JG369206
120230505000020886634522  004NATHALIA            2   0000000383        1983333   579618    2~3~198333                                                  000000000010000000010000000000000550000000000000000000000000000000000550000000000000000000000000000000000000000000000000000000000000000000000550000000000000000550000000000000000000000000000000000313280000000000000156640000000000000156640000000000000000000000000000000000000000000000000000000000000000000000000000000000000000000000000000000000000000000000000000000000000000000000000000000000000000000000000000000000000000000000000550009BGEA48H0PG276167
120230505000009835384502  004NATHALIA            2   0000000383        1983343   579614    2~3~198334                                                  000000000010000000010000000000000400000000000000000000000000000000000400000000000000000000000000000000000000000000000000000000000000000000000400000000000000000400000000000000000000000000000000000084220000000000000042110000000000000042110000000000000000000000000000000000000000000000000000000000000000000000000000000000000000000000000000000000000000000000000000000000000000000000000000000000000005280000000000000024320000000000000400008AGEB76H0PR118825
120230505000009835384502  005PAULON              2   0000000383        1983363   579608    2~3~198336                                                  000000000040000000010000000000000551280000000000000000000000000000000551280000000000000000000000000000000000000000000000000000000000000000000551280000000000000551280000000000000000000000000000000368600000000000000199640000000000000168970000000000000000000000000000000000000000000000000000000000000000000000000000000000000000000000000000000000000000000000000000000000000000000000000000000000000006750000000000000031120000000000000551288AGEB76H0PR118825
120230505000057243314032  005UBIRACY             2   0000000383        1983403   579611    2~3~198340                                                  000000000040000000010000000000000469430000000000000000000000000000000469430000000000000000000000000000000000000000000000000000000000000000000469430000000000000469430000000000000000000000000000000315770000000000000167010000000000000148770000000000000000000000000000000000000000000000000000000000000000000000000000000000000000000000000000000000000000000000000000000000000000000000000000000000000005240000000000000024160000000000000469439BGEB76H0NB195282
120230505000057243314032  005UBIRACY             2   0000000383        145045NF  579611    2~NF~145045                                                 000000000000000000010000000000000270000000000000000270000000000000000000000000000000000000000000000000000000000000000000000000000000000000000270000000000000000000000000000000000270000000000000000018240000000000000018240000000000000000000000000000000000000000000000000000000000000000000000000000000000000000000000000000000000000000000000000000000000000000000013500000000000000000000000000000000004230000000000000019490000000000000270009BGEB76H0NB195282
120230505000079109644042  005JGERALDO            2   0000000383        1983413   579617    2~3~198341                                                  000000000070000000020000000000000900020000000000000000000000000000000900020000000000000181240000000000000000000000000000000181240000000000000718780000000000000718780000000000000000000000000000000523900000000000000273080000000000000250810000000000000000000000000000000000000000000000000000000000000000000000000000000000000000000000000000000000000000000000000000000000000000000000000000000000000008130000000000000037420000000000000718789BGEP48H0LG280985
120230505000079109644042  005JGERALDO            2   0000000383        145046NF  579617    2~NF~145046                                                 000000000000000000020000000000000285220000000000000285220000000000000000000000000000000000000000000000000000000000000000000000000000000000000285220000000000000000000000000000000285220000000000000022270000000000000022270000000000000000000000000000000000000000000000000000000000000000000000000000000000000000000000000000000000000000000000000000000000000000000014260000000000000000000000000000000004480000000000000020590000000000000285229BGEP48H0LG280985
120230505000751666074492  004NATHALIA            2   0000000510        1983433   579619    2~3~198343                                                  000000000010000000010000000000000350000000000000000000000000000000000350000000000000000000000000000000000000000000000000000000000000000000000350000000000000000350000000000000000000000000000000000236970000000000000118480000000000000118480000000000000000000000000000000000000000000000000000000000000000000000000000000000000000000000000000000000000000000000000000000000000000000000000000000000000004620000000000000021280000000000000350009BGEA48A0PG302357
