11981533   2      4412470        00000000000001807120000000000001807120000000000000108430000000000000000000000000000001807122~3~198153          
1144976NF  2      4412470        00000000000001807120000000000001807120000000000000108430000000000000090360000000000001807122~NF~144976         
11981543   2      4412470        00000000000001807120000000000001807120000000000000108430000000000000000000000000000001807122~3~198154          
1144977NF  2      4412470        00000000000001807120000000000001807120000000000000108430000000000000090360000000000001807122~NF~144977         
11981553   2      4066970        00000000000001156700000000000001156700000000000000000000000000000000000000000000000001156702~3~198155          
1144978NF  2      4066970        00000000000001156700000000000001156700000000000000000000000000000000057840000000000001156702~NF~144978         
11981563   4      MP             00000000000002540050000000000002540050000000000000006100000000000000000000000000000002540052~3~198156          
11981563   4      1              00000000000000000000000000000000000000000000000000000000000000000000000000000000000000000002~3~198156          
11981563   2      1441164        00000000000000474370000000000000474370000000000000000000000000000000000000000000000000474372~3~198156          
11981563   2      1441364        00000000000000271070000000000000271070000000000000000000000000000000000000000000000000271072~3~198156          
11981563   2      1441564        00000000000000564720000000000000564720000000000000000000000000000000000000000000000000564722~3~198156          
11981563   2      1442964        00000000000000451780000000000000451780000000000000000000000000000000000000000000000000451782~3~198156          
11981563   2      1443164        00000000000000225890000000000000225890000000000000000000000000000000000000000000000000225892~3~198156          
11981563   2      1443544        00000000000000451780000000000000451780000000000000000000000000000000000000000000000000451782~3~198156          
11981563   2      1443844        00000000000000384010000000000000384010000000000000000000000000000000000000000000000000384012~3~198156          
11981563   2      1446674        00000000000003094690000000000003094690000000000000000000000000000000000000000000000003094692~3~198156          
11981563   2      2020380        00000000000000519550000000000000519550000000000000046760000000000000000000000000000000519552~3~198156          
1144979NF  4      MP             00000000000002540050000000000002540050000000000000006100000000000000127000000000000002540052~NF~144979         
1144979NF  4      1              00000000000000000000000000000000000000000000000000000000000000000000000000000000000000000002~NF~144979         
1144979NF  2      1441164        00000000000000474370000000000000474370000000000000000000000000000000023720000000000000474372~NF~144979         
1144979NF  2      1441364        00000000000000271070000000000000271070000000000000000000000000000000013550000000000000271072~NF~144979         
1144979NF  2      1441564        00000000000000564720000000000000564720000000000000000000000000000000028240000000000000564722~NF~144979         
1144979NF  2      1442964        00000000000000451780000000000000451780000000000000000000000000000000022590000000000000451782~NF~144979         
1144979NF  2      1443164        00000000000000225890000000000000225890000000000000000000000000000000011290000000000000225892~NF~144979         
1144979NF  2      1443544        00000000000000451780000000000000451780000000000000000000000000000000022590000000000000451782~NF~144979         
1144979NF  2      1443844        00000000000000384010000000000000384010000000000000000000000000000000019200000000000000384012~NF~144979         
1144979NF  2      1446674        00000000000003094690000000000003094690000000000000000000000000000000154730000000000003094692~NF~144979         
1144979NF  2      2020380        00000000000000519550000000000000519550000000000000046760000000000000025980000000000000519552~NF~144979         
1144980NF  5      7441760        00000000000000293660000000000000293660000000000000017620000000000000014680000000000000293662~NF~144980         
11981573   5      7441760        00000000000000293660000000000000293660000000000000017620000000000000000000000000000000293662~3~198157          
11981583   2      4412470        00000000000001807120000000000001807120000000000000108430000000000000000000000000000001807122~3~198158          
1144981NF  2      4412470        00000000000001807120000000000001807120000000000000108430000000000000090360000000000001807122~NF~144981         
11981593   5      M0041          00000000000000000000000000000000000000000000000000030670000000000000000000000000000000000002~3~198159          
11981603   5      M0041          00000000000000000000000000000000000000000000000000030670000000000000000000000000000000000002~3~198160          
11981633   2      E0203          00000000000000080000000000000000080000000000000000000000000000000000000000000000000000080002~3~198163          
11981633   2      E2020          00000000000000080000000000000000080000000000000000000000000000000000000000000000000000080002~3~198163          
11981633   5      M0061          00000000000000349700000000000000349700000000000000000000000000000000000000000000000000349702~3~198163          
11981633   2      SER10          00000000000000150000000000000000150000000000000000000000000000000000000000000000000000150002~3~198163          
1144982NF  2      E0203          00000000000000080000000000000000080000000000000000000000000000000000004000000000000000080002~NF~144982         
1144982NF  2      E2020          00000000000000080000000000000000080000000000000000000000000000000000004000000000000000080002~NF~144982         
1144982NF  5      M0061          00000000000000349700000000000000349700000000000000000000000000000000017480000000000000349702~NF~144982         
1144982NF  2      SER10          00000000000000150000000000000000150000000000000000000000000000000000007500000000000000150002~NF~144982         
1144983NF  5      M0041          00000000000000290810000000000000290810000000000000013550000000000000014540000000000000290812~NF~144983         
11981673   2      E0203          00000000000000100000000000000000100000000000000000016140000000000000000000000000000000100002~3~198167          
11981673   2      E2020          00000000000000100000000000000000100000000000000000016140000000000000000000000000000000100002~3~198167          
11981673   5      M0091          00000000000000683260000000000000683260000000000000041000000000000000000000000000000000683262~3~198167          
1144984NF  2      E0203          00000000000000100000000000000000100000000000000000016140000000000000005000000000000000100002~NF~144984         
1144984NF  2      E2020          00000000000000100000000000000000100000000000000000016140000000000000005000000000000000100002~NF~144984         
1144984NF  5      M0091          00000000000000683260000000000000683260000000000000041000000000000000034160000000000000683262~NF~144984         
11981683   1      C9999          00000000000000483150000000000000483150000000000000000000000000000000000000000000000000483152~3~198168          
11981683   1      D000           00000000000000100000000000000000100000000000000000000000000000000000000000000000000000100002~3~198168          
11981683   4      P8888          00000000000000650000000000000000650000000000000000000000000000000000000000000000000000650002~3~198168          
1144985NF  1      C9999          00000000000000483150000000000000483150000000000000000000000000000000024160000000000000483152~NF~144985         
1144985NF  1      D000           00000000000000100000000000000000100000000000000000000000000000000000005000000000000000100002~NF~144985         
1144985NF  4      P8888          00000000000000650000000000000000650000000000000000000000000000000000032500000000000000650002~NF~144985         
11981693   5      M0041          00000000000000000000000000000000000000000000000000030670000000000000000000000000000000000002~3~198169          
11981703   5      M0111          00000000000000403500000000000000403500000000000000000000000000000000000000000000000000403502~3~198170          
11981703   2      8481018*       00000000000000632150000000000000632150000000000000000000000000000000000000000000000000632152~3~198170          
1144986NF  5      M0111          00000000000000403500000000000000403500000000000000000000000000000000020180000000000000403502~NF~144986         
1144986NF  2      8481018*       00000000000000632150000000000000632150000000000000000000000000000000031610000000000000632152~NF~144986         
11981723   1      M000           00000000000000330000000000000000330000000000000000045000000000000000000000000000000000330002~3~198172          
11981723   4      P8888          00000000000000520000000000000000520000000000000000000000000000000000000000000000000000520002~3~198172          
1144987NF  1      M000           00000000000000330000000000000000330000000000000000045000000000000000016500000000000000330002~NF~144987         
1144987NF  4      P8888          00000000000000520000000000000000520000000000000000000000000000000000026000000000000000520002~NF~144987         
11981763   5      M0051          00000000000000438200000000000000438200000000000000022600000000000000000000000000000000438202~3~198176          
1144988NF  5      M0051          00000000000000438200000000000000438200000000000000022600000000000000021910000000000000438202~NF~144988         
11981773   12     TR006          00000000000000199000000000000000199000000000000000003230000000000000000000000000000000199002~3~198177          
1144989NF  12     TR006          00000000000000199000000000000000199000000000000000003230000000000000009950000000000000199002~NF~144989         
11981793   5      M0111          00000000000000403500000000000000403500000000000000000000000000000000000000000000000000403502~3~198179          
11981793   2      8481018*       00000000000000632150000000000000632150000000000000000000000000000000000000000000000000632152~3~198179          
1144990NF  5      M0111          00000000000000403500000000000000403500000000000000000000000000000000020180000000000000403502~NF~144990         
1144990NF  2      8481018*       00000000000000632150000000000000632150000000000000000000000000000000031610000000000000632152~NF~144990         
11981803   2      E0203          00000000000000080000000000000000080000000000000000016140000000000000000000000000000000080002~3~198180          
11981803   2      E2020          00000000000000080000000000000000080000000000000000016140000000000000000000000000000000080002~3~198180          
11981803   5      M0051          00000000000000500000000000000000500000000000000000022600000000000000000000000000000000500002~3~198180          
1144991NF  2      E0203          00000000000000080000000000000000080000000000000000016140000000000000004000000000000000080002~NF~144991         
1144991NF  2      E2020          00000000000000080000000000000000080000000000000000016140000000000000004000000000000000080002~NF~144991         
1144991NF  5      M0051          00000000000000500000000000000000500000000000000000022600000000000000025000000000000000500002~NF~144991         
11981823   12     TR001          00000000000000060000000000000000060000000000000000000940000000000000000000000000000000060002~3~198182          
1144992NF  12     TR001          00000000000000060000000000000000060000000000000000000940000000000000003000000000000000060002~NF~144992         
11981843   5      M0091          00000000000000300000000000000000300000000000000000006130000000000000000000000000000000300002~3~198184          
1144993NF  5      M0091          00000000000000300000000000000000300000000000000000006130000000000000015000000000000000300002~NF~144993         
11981863   2      1.11           00000000000000000000000000000000000000000000000000000000000000000000000000000000000000000002~3~198186          
11981873   2      1.11           00000000000000000000000000000000000000000000000000000000000000000000000000000000000000000002~3~198187          
11981883   2      1.11           00000000000000000000000000000000000000000000000000000000000000000000000000000000000000000002~3~198188          
11981893   2      1.11           00000000000000000000000000000000000000000000000000000000000000000000000000000000000000000002~3~198189          
11981913   5      M0121          00000000000000540000000000000000540000000000000000025820000000000000000000000000000000540002~3~198191          
11981913   2      J0800          00000000000000269000000000000000269000000000000000016140000000000000000000000000000000269002~3~198191          
1144994NF  5      M0121          00000000000000540000000000000000540000000000000000025820000000000000027000000000000000540002~NF~144994         
1144994NF  2      J0800          00000000000000269000000000000000269000000000000000016140000000000000013450000000000000269002~NF~144994         
1196134    5      M0051          00000000000000474000000000000000474000000000000000022600000000000000000000000000000000474002~4~19613           
1144995NF  5      M0051          00000000000000474000000000000000474000000000000000022600000000000000023700000000000000474002~NF~144995         
11981963   5      M0051          00000000000000370000000000000000370000000000000000022600000000000000000000000000000000370002~3~198196          
1144996NF  5      M0051          00000000000000370000000000000000370000000000000000022600000000000000018500000000000000370002~NF~144996         
11981993   GRL    0602243        00000000000000000000000000000000000000000000000000013550000000000000000000000000000000000002~3~198199          
11982083   12     TR001          00000000000000060000000000000000060000000000000000000940000000000000000000000000000000060002~3~198208          
1144997NF  12     TR001          00000000000000060000000000000000060000000000000000000940000000000000003000000000000000060002~NF~144997         
11982093   5      M0071          00000000000000370000000000000000370000000000000000022200000000000000000000000000000000370002~3~198209          
1144998NF  5      M0071          00000000000000370000000000000000370000000000000000022200000000000000018500000000000000370002~NF~144998         
11982103   5      M0051          00000000000000259000000000000000259000000000000000022600000000000000000000000000000000259002~3~198210          
11982103   2      E0203          00000000000000080000000000000000080000000000000000016140000000000000000000000000000000080002~3~198210          
11982103   2      E2020          00000000000000080000000000000000080000000000000000016140000000000000000000000000000000080002~3~198210          
1144999NF  5      M0051          00000000000000259000000000000000259000000000000000022600000000000000012950000000000000259002~NF~144999         
1144999NF  2      E0203          00000000000000080000000000000000080000000000000000016140000000000000004000000000000000080002~NF~144999         
1144999NF  2      E2020          00000000000000080000000000000000080000000000000000016140000000000000004000000000000000080002~NF~144999         
11982123   5      M0041          00000000000000000000000000000000000000000000000000030670000000000000000000000000000000000002~3~198212          
1145000NF  1      C9999          00000000000000626940000000000000626940000000000000000000000000000000031350000000000000626942~NF~145000         
1145000NF  1      D000           00000000000000500000000000000000500000000000000000009000000000000000025000000000000000500002~NF~145000         
1145000NF  4      P8888          00000000000001100000000000000001100000000000000000000000000000000000055000000000000001100002~NF~145000         
1145000NF  1      STF            00000000000000200000000000000000200000000000000000000000000000000000010000000000000000200002~NF~145000         
11982153   2      J5481          00000000000000430400000000000000430400000000000000025820000000000000000000000000000000430402~3~198215          
1145001NF  2      J5481          00000000000000430400000000000000430400000000000000025820000000000000021520000000000000430402~NF~145001         
11982163   2      E0203          00000000000000080000000000000000080000000000000000016140000000000000000000000000000000080002~3~198216          
11982163   2      E2020          00000000000000080000000000000000080000000000000000016140000000000000000000000000000000080002~3~198216          
11982163   5      M0041          00000000000000000000000000000000000000000000000000030670000000000000000000000000000000000002~3~198216          
1145002NF  2      E0203          00000000000000080000000000000000080000000000000000016140000000000000004000000000000000080002~NF~145002         
1145002NF  2      E2020          00000000000000080000000000000000080000000000000000016140000000000000004000000000000000080002~NF~145002         
1145002NF  5      M0041          00000000000000000000000000000000000000000000000000030670000000000000000000000000000000000002~NF~145002         
11982183   2      1.11           00000000000000000000000000000000000000000000000000000000000000000000000000000000000000000002~3~198218          
11982203   2      1.11           00000000000000000000000000000000000000000000000000000000000000000000000000000000000000000002~3~198220          
11982233   2      E0203          00000000000000080000000000000000080000000000000000016140000000000000000000000000000000080002~3~198223          
11982233   2      E2020          00000000000000080000000000000000080000000000000000016140000000000000000000000000000000080002~3~198223          
11982233   5      M0051          00000000000000403000000000000000403000000000000000022600000000000000000000000000000000403002~3~198223          
1145003NF  2      E0203          00000000000000080000000000000000080000000000000000016140000000000000004000000000000000080002~NF~145003         
1145003NF  2      E2020          00000000000000080000000000000000080000000000000000016140000000000000004000000000000000080002~NF~145003         
1145003NF  5      M0051          00000000000000403000000000000000403000000000000000022600000000000000020150000000000000403002~NF~145003         
11982273   12     TR001          00000000000000060000000000000000060000000000000000002270000000000000000000000000000000060002~3~198227          
1145004NF  12     TR001          00000000000000060000000000000000060000000000000000002270000000000000003000000000000000060002~NF~145004         
11982293   5      M0081          00000000000000432290000000000000432290000000000000017750000000000000000000000000000000432292~3~198229          
11982293   2      SER10          00000000000000060000000000000000060000000000000000009680000000000000000000000000000000060002~3~198229          
1145005NF  5      M0081          00000000000000432290000000000000432290000000000000017750000000000000021610000000000000432292~NF~145005         
1145005NF  2      SER10          00000000000000060000000000000000060000000000000000009680000000000000003000000000000000060002~NF~145005         
11982353   5      M0051          00000000000000450000000000000000450000000000000000022600000000000000000000000000000000450002~3~198235          
1145006NF  5      M0051          00000000000000450000000000000000450000000000000000022600000000000000022500000000000000450002~NF~145006         
11982363   1      C9999          00000000000000258960000000000000258960000000000000000000000000000000000000000000000000258962~3~198236          
11982363   1      D000           00000000000000180000000000000000180000000000000000009000000000000000000000000000000000180002~3~198236          
11982363   4      P8888          00000000000000450000000000000000450000000000000000000000000000000000000000000000000000450002~3~198236          
11982363   4      1              00000000000000000000000000000000000000000000000000000000000000000000000000000000000000000002~3~198236          
1145007NF  1      C9999          00000000000000258960000000000000258960000000000000000000000000000000012950000000000000258962~NF~145007         
1145007NF  1      D000           00000000000000180000000000000000180000000000000000009000000000000000009000000000000000180002~NF~145007         
1145007NF  4      P8888          00000000000000450000000000000000450000000000000000000000000000000000022500000000000000450002~NF~145007         
1145007NF  4      1              00000000000000000000000000000000000000000000000000000000000000000000000000000000000000000002~NF~145007         
11982373   2      E2020          00000000000000080000000000000000080000000000000000000000000000000000000000000000000000080002~3~198237          
11982373   2      E8020          00000000000000400810000000000000400810000000000000000000000000000000000000000000000000400812~3~198237          
11982373   5      M0081          00000000000000349700000000000000349700000000000000000000000000000000000000000000000000349702~3~198237          
1145008NF  2      E2020          00000000000000080000000000000000080000000000000000000000000000000000004000000000000000080002~NF~145008         
1145008NF  2      E8020          00000000000000400810000000000000400810000000000000000000000000000000020040000000000000400812~NF~145008         
1145008NF  5      M0081          00000000000000349700000000000000349700000000000000000000000000000000017480000000000000349702~NF~145008         
11982393   4      1              00000000000000000000000000000000000000000000000000000000000000000000000000000000000000000002~3~198239          
11982413   2      1.11           00000000000000000000000000000000000000000000000000000000000000000000000000000000000000000002~3~198241          
11982423   2      1.11           00000000000000000000000000000000000000000000000000000000000000000000000000000000000000000002~3~198242          
11982433   2      1.11           00000000000000000000000000000000000000000000000000000060000000000000000000000000000000000002~3~198243          
11982473   5      M0041          00000000000000000000000000000000000000000000000000030670000000000000000000000000000000000002~3~198247          
11982483   2      1.11           00000000000000000000000000000000000000000000000000000000000000000000000000000000000000000002~3~198248          
1145009NF  5      M0041          00000000000000502300000000000000502300000000000000025750000000000000025120000000000000502302~NF~145009         
1145010NF  5      M0041          00000000000000502300000000000000502300000000000000025750000000000000025120000000000000502302~NF~145010         
11982513   2      4412470        00000000000001807120000000000001807120000000000000108430000000000000000000000000000001807122~3~198251          
1145011NF  2      4412470        00000000000001807120000000000001807120000000000000108430000000000000090360000000000001807122~NF~145011         
11982543   2      4412470        00000000000001807120000000000001807120000000000000108430000000000000000000000000000001807122~3~198254          
1145012NF  2      4412470        00000000000001807120000000000001807120000000000000108430000000000000090360000000000001807122~NF~145012         
11982563   2      4027910        00000000000000080700000000000000080700000000000000004840000000000000000000000000000000080702~3~198256          
1145013NF  2      4027910        00000000000000080700000000000000080700000000000000004840000000000000004040000000000000080702~NF~145013         
11982583   5      M0041          00000000000000000000000000000000000000000000000000030670000000000000000000000000000000000002~3~198258          
1145014NF  2      4412470        00000000000001807120000000000001807120000000000000000000000000000000090360000000000001807122~NF~145014         
11982593   2      4412470        00000000000001807120000000000001807120000000000000000000000000000000000000000000000001807122~3~198259          
11982653   2      J0800          00000000000000050000000000000000050000000000000000009000000000000000000000000000000000050002~3~198265          
1145015NF  2      J0800          00000000000000050000000000000000050000000000000000009000000000000000002500000000000000050002~NF~145015         
11982663   2      N5215          00000000000000080700000000000000080700000000000000004840000000000000000000000000000000080702~3~198266          
1145016NF  2      N5215          00000000000000080700000000000000080700000000000000004840000000000000004040000000000000080702~NF~145016         
11982673   2      E0203          00000000000000080000000000000000080000000000000000000000000000000000000000000000000000080002~3~198267          
11982673   2      E2020          00000000000000080000000000000000080000000000000000000000000000000000000000000000000000080002~3~198267          
11982673   2      MEC            00000000000000140000000000000000140000000000000000000000000000000000000000000000000000140002~3~198267          
1145017NF  2      E0203          00000000000000080000000000000000080000000000000000000000000000000000004000000000000000080002~NF~145017         
1145017NF  2      E2020          00000000000000080000000000000000080000000000000000000000000000000000004000000000000000080002~NF~145017         
1145017NF  2      MEC            00000000000000140000000000000000140000000000000000000000000000000000007000000000000000140002~NF~145017         
11982693   2      1.11           00000000000000000000000000000000000000000000000000000000000000000000000000000000000000000002~3~198269          
11982703   2      REV1           00000000000000000000000000000000000000000000000000015260000000000000000000000000000000000002~3~198270          
11982713   12     TR001          00000000000000060000000000000000060000000000000000000000000000000000000000000000000000060002~3~198271          
1145018NF  12     TR001          00000000000000060000000000000000060000000000000000000000000000000000003000000000000000060002~NF~145018         
11982763   2      SER10          00000000000000050000000000000000050000000000000000009680000000000000000000000000000000050002~3~198276          
11982763   5      M0121          00000000000000450000000000000000450000000000000000025260000000000000000000000000000000450002~3~198276          
1145019NF  2      SER10          00000000000000050000000000000000050000000000000000009680000000000000002500000000000000050002~NF~145019         
1145019NF  5      M0121          00000000000000450000000000000000450000000000000000025260000000000000022500000000000000450002~NF~145019         
11982803   2      SER10          00000000000000050000000000000000050000000000000000000000000000000000000000000000000000050002~3~198280          
11982803   2      E0203          00000000000000100000000000000000100000000000000000016140000000000000000000000000000000100002~3~198280          
11982803   2      E2020          00000000000000100000000000000000100000000000000000016140000000000000000000000000000000100002~3~198280          
11982803   5      M0101          00000000000000450000000000000000450000000000000000023400000000000000000000000000000000450002~3~198280          
1145020NF  2      SER10          00000000000000050000000000000000050000000000000000000000000000000000002500000000000000050002~NF~145020         
1145020NF  2      E0203          00000000000000100000000000000000100000000000000000016140000000000000005000000000000000100002~NF~145020         
1145020NF  2      E2020          00000000000000100000000000000000100000000000000000016140000000000000005000000000000000100002~NF~145020         
1145020NF  5      M0101          00000000000000450000000000000000450000000000000000023400000000000000022500000000000000450002~NF~145020         
11982843   5      M0071          00000000000000486000000000000000486000000000000000017750000000000000000000000000000000486002~3~198284          
11982843   2      SER09          00000000000000150000000000000000150000000000000000009680000000000000000000000000000000150002~3~198284          
11982843   2      E0203          00000000000000080000000000000000080000000000000000016140000000000000000000000000000000080002~3~198284          
11982843   2      E2020          00000000000000080000000000000000080000000000000000016140000000000000000000000000000000080002~3~198284          
1145021NF  5      M0071          00000000000000486000000000000000486000000000000000017750000000000000024300000000000000486002~NF~145021         
1145021NF  2      SER09          00000000000000150000000000000000150000000000000000009680000000000000007500000000000000150002~NF~145021         
1145021NF  2      E0203          00000000000000080000000000000000080000000000000000016140000000000000004000000000000000080002~NF~145021         
1145021NF  2      E2020          00000000000000080000000000000000080000000000000000016140000000000000004000000000000000080002~NF~145021         
11982853   2      1441554        00000000000000632490000000000000632490000000000000000000000000000000000000000000000000632492~3~198285          
11982853   2      2020380        00000000000000180710000000000000180710000000000000000000000000000000000000000000000000180712~3~198285          
11982853   2      2024030        00000000000000180710000000000000180710000000000000016260000000000000000000000000000000180712~3~198285          
11982853   4      MP             00000000000000325200000000000000325200000000000000006100000000000000000000000000000000325202~3~198285          
1145022NF  2      1441554        00000000000000632490000000000000632490000000000000000000000000000000031620000000000000632492~NF~145022         
1145022NF  2      2020380        00000000000000180710000000000000180710000000000000000000000000000000009040000000000000180712~NF~145022         
1145022NF  2      2024030        00000000000000180710000000000000180710000000000000016260000000000000009040000000000000180712~NF~145022         
1145022NF  4      MP             00000000000000325200000000000000325200000000000000006100000000000000016260000000000000325202~NF~145022         
11982863   12     TR003          00000000000000060000000000000000060000000000000000003230000000000000000000000000000000060002~3~198286          
1145023NF  12     TR003          00000000000000060000000000000000060000000000000000003230000000000000003000000000000000060002~NF~145023         
11982873   2      H0042,         00000000000000269000000000000000269000000000000000000000000000000000000000000000000000269002~3~198287          
11982873   5      M0061          00000000000000349700000000000000349700000000000000000000000000000000000000000000000000349702~3~198287          
1145024NF  2      H0042,         00000000000000269000000000000000269000000000000000000000000000000000013450000000000000269002~NF~145024         
1145024NF  5      M0061          00000000000000349700000000000000349700000000000000000000000000000000017480000000000000349702~NF~145024         
11982883   5      M0051          00000000000000389000000000000000389000000000000000022600000000000000000000000000000000389002~3~198288          
11982883   2      SER10          00000000000000015000000000000000015000000000000000009680000000000000000000000000000000015002~3~198288          
1145025NF  5      M0051          00000000000000389000000000000000389000000000000000022600000000000000019450000000000000389002~NF~145025         
1145025NF  2      SER10          00000000000000015000000000000000015000000000000000009680000000000000000750000000000000015002~NF~145025         
11982903   2      E2020          00000000000000120000000000000000120000000000000000000000000000000000000000000000000000120002~3~198290          
11982903   2      F1510          00000000000000820450000000000000820450000000000000000000000000000000000000000000000000820452~3~198290          
11982903   2      F1511          00000000000000825830000000000000825830000000000000000000000000000000000000000000000000825832~3~198290          
11982903   2      KO001          00000000000000347010000000000000347010000000000000000000000000000000000000000000000000347012~3~198290          
1145026NF  2      E2020          00000000000000120000000000000000120000000000000000000000000000000000006000000000000000120002~NF~145026         
1145026NF  2      F1510          00000000000000820450000000000000820450000000000000000000000000000000041020000000000000820452~NF~145026         
1145026NF  2      F1511          00000000000000825830000000000000825830000000000000000000000000000000041290000000000000825832~NF~145026         
1145026NF  2      KO001          00000000000000347010000000000000347010000000000000000000000000000000017350000000000000347012~NF~145026         
11982923   2      4061850        00000000000000134500000000000000134500000000000000016140000000000000000000000000000000134502~3~198292          
11982923   2      E0203          00000000000000080000000000000000080000000000000000000000000000000000000000000000000000080002~3~198292          
11982923   2      E2020          00000000000000080000000000000000080000000000000000000000000000000000000000000000000000080002~3~198292          
11982923   5      M0091          00000000000000484200000000000000484200000000000000039000000000000000000000000000000000484202~3~198292          
1145027NF  2      4061850        00000000000000134500000000000000134500000000000000016140000000000000006720000000000000134502~NF~145027         
1145027NF  2      E0203          00000000000000080000000000000000080000000000000000000000000000000000004000000000000000080002~NF~145027         
1145027NF  2      E2020          00000000000000080000000000000000080000000000000000000000000000000000004000000000000000080002~NF~145027         
1145027NF  5      M0091          00000000000000484200000000000000484200000000000000039000000000000000024210000000000000484202~NF~145027         
11982943   2      1.11           00000000000000000000000000000000000000000000000000000000000000000000000000000000000000000002~3~198294          
11982953   2      1.11           00000000000000000000000000000000000000000000000000000000000000000000000000000000000000000002~3~198295          
11982963   2      1.11           00000000000000000000000000000000000000000000000000000000000000000000000000000000000000000002~3~198296          
11982983   2      4412470        00000000000001807120000000000001807120000000000000108430000000000000000000000000000001807122~3~198298          
1145028NF  2      4412470        00000000000001807120000000000001807120000000000000108430000000000000090360000000000001807122~NF~145028         
11982993   2      J0800          00000000000000150000000000000000150000000000000000004210000000000000000000000000000000150002~3~198299          
11982993   12     TR001          00000000000000060000000000000000060000000000000000000940000000000000000000000000000000060002~3~198299          
1145029NF  2      J0800          00000000000000150000000000000000150000000000000000004210000000000000007500000000000000150002~NF~145029         
1145029NF  12     TR001          00000000000000060000000000000000060000000000000000000940000000000000003000000000000000060002~NF~145029         
1145030NF  5      M0041          00000000000000502300000000000000502300000000000000025750000000000000025120000000000000502302~NF~145030         
11983003   5      M0081          00000000000000373910000000000000373910000000000000000000000000000000000000000000000000373912~3~198300          
1145031NF  5      M0081          00000000000000373910000000000000373910000000000000000000000000000000018700000000000000373912~NF~145031         
11983013   2      1042980        00000000000000067770000000000000067770000000000000004070000000000000000000000000000000067772~3~198301          
1145032NF  2      1042980        00000000000000067770000000000000067770000000000000004070000000000000003390000000000000067772~NF~145032         
11983023   12     TR006          00000000000000060000000000000000060000000000000000003230000000000000000000000000000000060002~3~198302          
11983023   2      03             00000000000000000000000000000000000000000000000000008070000000000000000000000000000000000002~3~198302          
1145033NF  12     TR006          00000000000000060000000000000000060000000000000000003230000000000000003000000000000000060002~NF~145033         
1145033NF  2      03             00000000000000000000000000000000000000000000000000008070000000000000000000000000000000000002~NF~145033         
1145034NF  3      ISOLANTE NYOGEL00000000000000022940000000000000022940000000000000000140000000000000001150000000000000022942~NF~145034         
1145034NF  2      9103891        00000000000000045180000000000000045180000000000000002710000000000000002260000000000000045182~NF~145034         
11983053   2      8430360        00000000000000950000000000000000950000000000000000050030000000000000000000000000000000950002~3~198305          
1145035NF  2      8430360        00000000000000950000000000000000950000000000000000050030000000000000047500000000000000950002~NF~145035         
11983093   5      M0081          00000000000000260000000000000000260000000000000000015600000000000000000000000000000000260002~3~198309          
11983093   2      J0800          00000000000000150000000000000000150000000000000000009000000000000000000000000000000000150002~3~198309          
1145036NF  5      M0081          00000000000000260000000000000000260000000000000000015600000000000000013000000000000000260002~NF~145036         
1145036NF  2      J0800          00000000000000150000000000000000150000000000000000009000000000000000007500000000000000150002~NF~145036         
11983103   2      4041250        00000000000000112940000000000000112940000000000000006780000000000000000000000000000000112942~3~198310          
1145037NF  2      4041250        00000000000000112940000000000000112940000000000000006780000000000000005650000000000000112942~NF~145037         
11983133   2      1.11           00000000000000000000000000000000000000000000000000000060000000000000000000000000000000000002~3~198313          
11983143   5      M0041          00000000000000000000000000000000000000000000000000030670000000000000000000000000000000000002~3~198314          
11983163   5      M0051          00000000000000499000000000000000499000000000000000022600000000000000000000000000000000499002~3~198316          
1145038NF  5      M0051          00000000000000499000000000000000499000000000000000022600000000000000024950000000000000499002~NF~145038         
11983173   5      M0061          00000000000000282710000000000000282710000000000000041960000000000000000000000000000000282712~3~198317          
1145039NF  5      M0061          00000000000000282710000000000000282710000000000000041960000000000000014140000000000000282712~NF~145039         
11983183   5      M0061          00000000000000303000000000000000303000000000000000018180000000000000000000000000000000303002~3~198318          
1145040NF  5      M0061          00000000000000303000000000000000303000000000000000018180000000000000015150000000000000303002~NF~145040         
11983193   2      2041490        00000000000000045180000000000000045180000000000000002710000000000000000000000000000000045182~3~198319          
1145041NF  2      2041490        00000000000000045180000000000000045180000000000000002710000000000000002260000000000000045182~NF~145041         
11983203   5      M0071          00000000000000499000000000000000499000000000000000080700000000000000000000000000000000499002~3~198320          
11983203   2      SER09          00000000000000078000000000000000078000000000000000009680000000000000000000000000000000078002~3~198320          
1145042NF  5      M0071          00000000000000499000000000000000499000000000000000080700000000000000024950000000000000499002~NF~145042         
1145042NF  2      SER09          00000000000000078000000000000000078000000000000000009680000000000000003900000000000000078002~NF~145042         
11983273   2      1.11           00000000000000000000000000000000000000000000000000000000000000000000000000000000000000000002~3~198327          
1145043NF  1      C9999          00000000000000892000000000000000892000000000000000000000000000000000044600000000000000892002~NF~145043         
1145043NF  1      D000           00000000000000650000000000000000650000000000000000009000000000000000032500000000000000650002~NF~145043         
1145043NF  4      P8888          00000000000001650000000000000001650000000000000000000000000000000000082500000000000001650002~NF~145043         
11983323   2      E0203          00000000000000080000000000000000080000000000000000016140000000000000000000000000000000080002~3~198332          
11983323   2      E2020          00000000000000080000000000000000080000000000000000016140000000000000000000000000000000080002~3~198332          
11983323   5      M0081          00000000000000440000000000000000440000000000000000026630000000000000000000000000000000440002~3~198332          
1145044NF  2      E0203          00000000000000080000000000000000080000000000000000016140000000000000004000000000000000080002~NF~145044         
1145044NF  2      E2020          00000000000000080000000000000000080000000000000000016140000000000000004000000000000000080002~NF~145044         
1145044NF  5      M0081          00000000000000440000000000000000440000000000000000026630000000000000022000000000000000440002~NF~145044         
11983333   2      1.11           00000000000000000000000000000000000000000000000000000000000000000000000000000000000000000002~3~198333          
11983343   2      1.11           00000000000000000000000000000000000000000000000000000000000000000000000000000000000000000002~3~198334          
11983363   5      M0041          00000000000000000000000000000000000000000000000000030670000000000000000000000000000000000002~3~198336          
11983403   5      M0061          00000000000000270000000000000000270000000000000000018240000000000000000000000000000000270002~3~198340          
1145045NF  5      M0061          00000000000000270000000000000000270000000000000000018240000000000000013500000000000000270002~NF~145045         
11983413   2      SER10          00000000000000015000000000000000015000000000000000009680000000000000000000000000000000015002~3~198341          
11983413   5      M0071          00000000000000270220000000000000270220000000000000022270000000000000000000000000000000270222~3~198341          
1145046NF  2      SER10          00000000000000015000000000000000015000000000000000009680000000000000000750000000000000015002~NF~145046         
1145046NF  5      M0071          00000000000000270220000000000000270220000000000000022270000000000000013510000000000000270222~NF~145046         
11983433   2      1.11           00000000000000000000000000000000000000000000000000000000000000000000000000000000000000000002~3~198343          
11983443   2      1.11           00000000000000000000000000000000000000000000000000000160000000000000000000000000000000000002~3~198344          
11983453   12     TR001          00000000000000060000000000000000060000000000000000003230000000000000000000000000000000060002~3~198345          
1145047NF  12     TR001          00000000000000060000000000000000060000000000000000003230000000000000003000000000000000060002~NF~145047         
11983503   12     TR001          00000000000000040000000000000000040000000000000000003230000000000000000000000000000000040002~3~198350          
1145048NF  12     TR001          00000000000000040000000000000000040000000000000000003230000000000000002000000000000000040002~NF~145048         
1145049NF  1      C9999          00000000000000320000000000000000320000000000000000000000000000000000016000000000000000320002~NF~145049         
1145049NF  1      M000           00000000000000180000000000000000180000000000000000045000000000000000009000000000000000180002~NF~145049         
1145049NF  4      P8888          00000000000000500000000000000000500000000000000000000000000000000000025000000000000000500002~NF~145049         
11983513   5      M0061          00000000000000423220000000000000423220000000000000022270000000000000000000000000000000423222~3~198351          
1145050NF  5      M0061          00000000000000423220000000000000423220000000000000022270000000000000021160000000000000423222~NF~145050         
11983523   2      SER10          00000000000000015000000000000000015000000000000000000000000000000000000000000000000000015002~3~198352          
11983523   5      M0101          00000000000000403500000000000000403500000000000000024210000000000000000000000000000000403502~3~198352          
1145051NF  2      SER10          00000000000000015000000000000000015000000000000000000000000000000000000750000000000000015002~NF~145051         
1145051NF  5      M0101          00000000000000403500000000000000403500000000000000024210000000000000020180000000000000403502~NF~145051         
11983533   5      M0081          00000000000000270000000000000000270000000000000000016200000000000000000000000000000000270002~3~198353          
1145052NF  5      M0081          00000000000000270000000000000000270000000000000000016200000000000000013500000000000000270002~NF~145052         
11983543   2      8460200        00000000000000150000000000000000150000000000000000016140000000000000000000000000000000150002~3~198354          
1145053NF  2      8460200        00000000000000150000000000000000150000000000000000016140000000000000007500000000000000150002~NF~145053         
11983563   5      M0051          00000000000000470000000000000000470000000000000000022600000000000000000000000000000000470002~3~198356          
1145054NF  5      M0051          00000000000000470000000000000000470000000000000000022600000000000000023500000000000000470002~NF~145054         
11983573   5      M0071          00000000000000471220000000000000471220000000000000022270000000000000000000000000000000471222~3~198357          
1145055NF  5      M0071          00000000000000471220000000000000471220000000000000022270000000000000023560000000000000471222~NF~145055         
11983583   2      4067090        00000000000000090360000000000000090360000000000000000000000000000000000000000000000000090362~3~198358          
1145056NF  2      4067090        00000000000000090360000000000000090360000000000000000000000000000000004520000000000000090362~NF~145056         
11983593   2      1040410        00000000000000045180000000000000045180000000000000002710000000000000000000000000000000045182~3~198359          
1145057NF  2      1040410        00000000000000045180000000000000045180000000000000002710000000000000002260000000000000045182~NF~145057         
11983603   2      H0042.         00000000000000080700000000000000080700000000000000004840000000000000000000000000000000080702~3~198360          
11983603   5      M0091          00000000000000415200000000000000415200000000000000012910000000000000000000000000000000415202~3~198360          
1145058NF  2      H0042.         00000000000000080700000000000000080700000000000000004840000000000000004040000000000000080702~NF~145058         
1145058NF  5      M0091          00000000000000415200000000000000415200000000000000012910000000000000020760000000000000415202~NF~145058         
1145059NF  1      C9999          00000000000000100000000000000000100000000000000000000000000000000000005000000000000000100002~NF~145059         
1145059NF  1      M000           00000000000000120000000000000000120000000000000000035100000000000000006000000000000000120002~NF~145059         
1145059NF  4      P8888          00000000000000560000000000000000560000000000000000000000000000000000028000000000000000560002~NF~145059         
11983613   5      M0101          00000000000000227000000000000000227000000000000000013620000000000000000000000000000000227002~3~198361          
1145060NF  5      M0101          00000000000000227000000000000000227000000000000000013620000000000000011350000000000000227002~NF~145060         
11983633   5      M0091          00000000000000370000000000000000370000000000000000022200000000000000000000000000000000370002~3~198363          
1145061NF  5      M0091          00000000000000370000000000000000370000000000000000022200000000000000018500000000000000370002~NF~145061         
11983643   5      M0041          00000000000000000000000000000000000000000000000000009120000000000000000000000000000000000002~3~198364          
11983653   5      M0101          00000000000000282480000000000000282480000000000000000000000000000000000000000000000000282482~3~198365          
11983653   2      SER10          00000000000000210000000000000000210000000000000000000000000000000000000000000000000000210002~3~198365          
1145062NF  5      M0101          00000000000000282480000000000000282480000000000000000000000000000000014120000000000000282482~NF~145062         
1145062NF  2      SER10          00000000000000210000000000000000210000000000000000000000000000000000010500000000000000210002~NF~145062         
11983663   5      M0051          00000000000000400000000000000000400000000000000000022600000000000000000000000000000000400002~3~198366          
1145063NF  5      M0051          00000000000000400000000000000000400000000000000000022600000000000000020000000000000000400002~NF~145063         
11983673   5      M0101          00000000000000450000000000000000450000000000000000027440000000000000000000000000000000450002~3~198367          
1145064NF  5      M0101          00000000000000450000000000000000450000000000000000027440000000000000022500000000000000450002~NF~145064         
11983693   5      M0071          00000000000000370000000000000000370000000000000000022200000000000000000000000000000000370002~3~198369          
1145065NF  5      M0071          00000000000000370000000000000000370000000000000000022200000000000000018500000000000000370002~NF~145065         
1145066NF  2      OXI10          00000000000000000010000000000000000010000000000000000000000000000000000000000000000000000012~NF~145066         
11983703   GRL    4416820        00000000000000406600000000000000406600000000000000024400000000000000000000000000000000406602~3~198370          
1145067NF  GRL    4416820        00000000000000406600000000000000406600000000000000024400000000000000020330000000000000406602~NF~145067         
11983713   2      3420680        00000000000000090360000000000000090360000000000000000000000000000000000000000000000000090362~3~198371          
1145068NF  2      3420680        00000000000000090360000000000000090360000000000000000000000000000000004520000000000000090362~NF~145068         
11983723   12     TR001          00000000000000060000000000000000060000000000000000003230000000000000000000000000000000060002~3~198372          
1145069NF  12     TR001          00000000000000060000000000000000060000000000000000003230000000000000003000000000000000060002~NF~145069         
11983733   12     TR001          00000000000000100000000000000000100000000000000000003230000000000000000000000000000000100002~3~198373          
1145070NF  12     TR001          00000000000000100000000000000000100000000000000000003230000000000000005000000000000000100002~NF~145070         
11983773   4      1              00000000000000000000000000000000000000000000000000000000000000000000000000000000000000000002~3~198377          
11983783   12     TR003          00000000000000110000000000000000110000000000000000003230000000000000000000000000000000110002~3~198378          
1145071NF  12     TR003          00000000000000110000000000000000110000000000000000003230000000000000005500000000000000110002~NF~145071         
11983803   5      M0131          00000000000000356000000000000000356000000000000000048420000000000000000000000000000000356002~3~198380          
1145072NF  5      M0131          00000000000000356000000000000000356000000000000000048420000000000000017800000000000000356002~NF~145072         
1145073NF  3      ISOLANTE NAT   00000000000000029400000000000000029400000000000000000140000000000000001470000000000000029402~NF~145073         
1145073NF  2      9103891        00000000000000045180000000000000045180000000000000002710000000000000002260000000000000045182~NF~145073         
11983813   2      4032750        00000000000000406600000000000000406600000000000000024400000000000000000000000000000000406602~3~198381          
1145074NF  2      4032750        00000000000000406600000000000000406600000000000000024400000000000000020330000000000000406602~NF~145074         
11983853   2      03             00000000000000000000000000000000000000000000000000002400000000000000000000000000000000000002~3~198385          
11983873   2      2050290        00000000000000269000000000000000269000000000000000016140000000000000000000000000000000269002~3~198387          
1145075NF  2      2050290        00000000000000269000000000000000269000000000000000016140000000000000013450000000000000269002~NF~145075         
11983883   12     TR001          00000000000000060000000000000000060000000000000000000940000000000000000000000000000000060002~3~198388          
1145076NF  12     TR001          00000000000000060000000000000000060000000000000000000940000000000000003000000000000000060002~NF~145076         
11983903   5      M0041          00000000000000000000000000000000000000000000000000030670000000000000000000000000000000000002~3~198390          
1145077NF  2      ML             00000000000000155520000000000000155520000000000000006780000000000000007780000000000000155522~NF~145077         
1145077NF  2      9104171        00000000000000067770000000000000067770000000000000004070000000000000003390000000000000067772~NF~145077         
11983953   2      J0240          00000000000000538000000000000000538000000000000000032280000000000000000000000000000000538002~3~198395          
1145078NF  2      J0240          00000000000000538000000000000000538000000000000000032280000000000000026900000000000000538002~NF~145078         
11983973   2      1.11           00000000000000000000000000000000000000000000000000000000000000000000000000000000000000000002~3~198397          
11983983   5      7441760        00000000000000293660000000000000293660000000000000017620000000000000000000000000000000293662~3~198398          
1145079NF  5      7441760        00000000000000293660000000000000293660000000000000017620000000000000014680000000000000293662~NF~145079         
11984003   5      M0071          00000000000000370000000000000000370000000000000000022200000000000000000000000000000000370002~3~198400          
1145080NF  5      M0071          00000000000000370000000000000000370000000000000000022200000000000000018500000000000000370002~NF~145080         
1145081NF  1      M000           00000000000000130000000000000000130000000000000000055000000000000000006500000000000000130002~NF~145081         
1145081NF  4      P8888          00000000000000600000000000000000600000000000000000000000000000000000030000000000000000600002~NF~145081         
1145081NF  1      C9999          00000000000000100000000000000000100000000000000000000000000000000000005000000000000000100002~NF~145081         
11984033   2      1.11           00000000000000000000000000000000000000000000000000000000000000000000000000000000000000000002~3~198403          
11984043   1      MEC 1          00000000000000250000000000000000250000000000000000000000000000000000000000000000000000250002~3~198404          
1145082NF  1      MEC 1          00000000000000250000000000000000250000000000000000000000000000000000012500000000000000250002~NF~145082         
11984053   2      E0203          00000000000000080000000000000000080000000000000000016140000000000000000000000000000000080002~3~198405          
11984053   2      E2020          00000000000000080000000000000000080000000000000000016140000000000000000000000000000000080002~3~198405          
11984053   2      H0042          00000000000000134500000000000000134500000000000000008070000000000000000000000000000000134502~3~198405          
11984053   5      M0091          00000000000000489900000000000000489900000000000000017750000000000000000000000000000000489902~3~198405          
11984053   2      SER09          00000000000000100000000000000000100000000000000000009680000000000000000000000000000000100002~3~198405          
1145083NF  2      E0203          00000000000000080000000000000000080000000000000000016140000000000000004000000000000000080002~NF~145083         
1145083NF  2      E2020          00000000000000080000000000000000080000000000000000016140000000000000004000000000000000080002~NF~145083         
1145083NF  2      H0042          00000000000000134500000000000000134500000000000000008070000000000000006720000000000000134502~NF~145083         
1145083NF  5      M0091          00000000000000489900000000000000489900000000000000017750000000000000024490000000000000489902~NF~145083         
1145083NF  2      SER09          00000000000000100000000000000000100000000000000000009680000000000000005000000000000000100002~NF~145083         
11984063   5      M0041          00000000000000002690000000000000002690000000000000000050000000000000000000000000000000002692~3~198406          
11984073   5      M0041          00000000000000000000000000000000000000000000000000009120000000000000000000000000000000000002~3~198407          
11984093   12     TR001          00000000000000060000000000000000060000000000000000000000000000000000000000000000000000060002~3~198409          
1145084NF  12     TR001          00000000000000060000000000000000060000000000000000000000000000000000003000000000000000060002~NF~145084         
11984123   12     TR005          00000000000000060000000000000000060000000000000000003230000000000000000000000000000000060002~3~198412          
1145085NF  12     TR005          00000000000000060000000000000000060000000000000000003230000000000000003000000000000000060002~NF~145085         
11984143   5      M0101          00000000000000278000000000000000278000000000000000013560000000000000000000000000000000278002~3~198414          
1145086NF  5      M0101          00000000000000278000000000000000278000000000000000013560000000000000013900000000000000278002~NF~145086         
1145087NF  5      M0041          00000000000000502300000000000000502300000000000000025750000000000000025120000000000000502302~NF~145087         
11984193   2      REV1           00000000000000000000000000000000000000000000000000016140000000000000000000000000000000000002~3~198419          
11984203   2      E0203          00000000000000080000000000000000080000000000000000016140000000000000000000000000000000080002~3~198420          
11984203   2      E2020          00000000000000080000000000000000080000000000000000016140000000000000000000000000000000080002~3~198420          
11984203   5      M0081          00000000000000449230000000000000449230000000000000026950000000000000000000000000000000449232~3~198420          
11984203   2      SER10          00000000000000015000000000000000015000000000000000009680000000000000000000000000000000015002~3~198420          
1145088NF  2      E0203          00000000000000080000000000000000080000000000000000016140000000000000004000000000000000080002~NF~145088         
1145088NF  2      E2020          00000000000000080000000000000000080000000000000000016140000000000000004000000000000000080002~NF~145088         
1145088NF  5      M0081          00000000000000449230000000000000449230000000000000026950000000000000022460000000000000449232~NF~145088         
1145088NF  2      SER10          00000000000000015000000000000000015000000000000000009680000000000000000750000000000000015002~NF~145088         
11984223   2      REV1           00000000000000000000000000000000000000000000000000016140000000000000000000000000000000000002~3~198422          
1145089NF  2      ML             00000000000000155520000000000000155520000000000000006780000000000000007780000000000000155522~NF~145089         
1145089NF  2      9104725        00000000000000067770000000000000067770000000000000004070000000000000003390000000000000067772~NF~145089         
11984243   2      REV1           00000000000000000000000000000000000000000000000000016140000000000000000000000000000000000002~3~198424          
1145090NF  3      ISOLANTE NAT   00000000000000029400000000000000029400000000000000000140000000000000001470000000000000029402~NF~145090         
1145090NF  2      9103891        00000000000000045180000000000000045180000000000000002710000000000000002260000000000000045182~NF~145090         
11984263   5      M0051          00000000000000538000000000000000538000000000000000000000000000000000000000000000000000538002~3~198426          
1145091NF  5      M0051          00000000000000538000000000000000538000000000000000000000000000000000026900000000000000538002~NF~145091         
11984273   2      7021820        00000000000000135530000000000000135530000000000000008130000000000000000000000000000000135532~3~198427          
1145092NF  2      7021820        00000000000000135530000000000000135530000000000000008130000000000000006780000000000000135532~NF~145092         
11984283   2      7021820        00000000000000135530000000000000135530000000000000008130000000000000000000000000000000135532~3~198428          
1145093NF  2      7021820        00000000000000135530000000000000135530000000000000008130000000000000006780000000000000135532~NF~145093         
11984293   5      M0051          00000000000000398000000000000000398000000000000000022600000000000000000000000000000000398002~3~198429          
1145094NF  5      M0051          00000000000000398000000000000000398000000000000000022600000000000000019900000000000000398002~NF~145094         
11984323   5      M0051          00000000000000259000000000000000259000000000000000022600000000000000000000000000000000259002~3~198432          
1145095NF  5      M0051          00000000000000259000000000000000259000000000000000022600000000000000012950000000000000259002~NF~145095         
11984343   2      E0203          00000000000000080000000000000000080000000000000000016140000000000000000000000000000000080002~3~198434          
11984343   2      E2020          00000000000000080000000000000000080000000000000000016140000000000000000000000000000000080002~3~198434          
11984343   5      M0081          00000000000000260000000000000000260000000000000000015600000000000000000000000000000000260002~3~198434          
1145096NF  2      E0203          00000000000000080000000000000000080000000000000000016140000000000000004000000000000000080002~NF~145096         
1145096NF  2      E2020          00000000000000080000000000000000080000000000000000016140000000000000004000000000000000080002~NF~145096         
1145096NF  5      M0081          00000000000000260000000000000000260000000000000000015600000000000000013000000000000000260002~NF~145096         
11984383   5      M0081          00000000000000589400000000000000589400000000000000025820000000000000000000000000000000589402~3~198438          
11984383   2      SER10          00000000000000015000000000000000015000000000000000009680000000000000000000000000000000015002~3~198438          
11984383   2      E0203          00000000000000100000000000000000100000000000000000016140000000000000000000000000000000100002~3~198438          
11984383   2      E2020          00000000000000100000000000000000100000000000000000016140000000000000000000000000000000100002~3~198438          
1145097NF  5      M0081          00000000000000589400000000000000589400000000000000025820000000000000029470000000000000589402~NF~145097         
1145097NF  2      SER10          00000000000000015000000000000000015000000000000000009680000000000000000750000000000000015002~NF~145097         
1145097NF  2      E0203          00000000000000100000000000000000100000000000000000016140000000000000005000000000000000100002~NF~145097         
1145097NF  2      E2020          00000000000000100000000000000000100000000000000000016140000000000000005000000000000000100002~NF~145097         
11984403   12     TR001          00000000000000060000000000000000060000000000000000003230000000000000000000000000000000060002~3~198440          
1145098NF  12     TR001          00000000000000060000000000000000060000000000000000003230000000000000003000000000000000060002~NF~145098         
11984453   2      H0121          00000000000000440000000000000000440000000000000000048420000000000000000000000000000000440002~3~198445          
11984453   12     TR001          00000000000000088000000000000000088000000000000000003230000000000000000000000000000000088002~3~198445          
1145099NF  2      H0121          00000000000000440000000000000000440000000000000000048420000000000000022000000000000000440002~NF~145099         
1145099NF  12     TR001          00000000000000088000000000000000088000000000000000003230000000000000004400000000000000088002~NF~145099         
11984503   2      E0203          00000000000000080000000000000000080000000000000000000000000000000000000000000000000000080002~3~198450          
11984503   2      E2020          00000000000000080000000000000000080000000000000000000000000000000000000000000000000000080002~3~198450          
11984503   2      E5808          00000000000000107600000000000000107600000000000000000000000000000000000000000000000000107602~3~198450          
11984503   2      H0042          00000000000000269000000000000000269000000000000000000000000000000000000000000000000000269002~3~198450          
11984503   5      M0131          00000000000000489580000000000000489580000000000000000000000000000000000000000000000000489582~3~198450          
11984503   2      SER10          00000000000000100000000000000000100000000000000000000000000000000000000000000000000000100002~3~198450          
1145100NF  2      E0203          00000000000000080000000000000000080000000000000000000000000000000000004000000000000000080002~NF~145100         
1145100NF  2      E2020          00000000000000080000000000000000080000000000000000000000000000000000004000000000000000080002~NF~145100         
1145100NF  2      E5808          00000000000000107600000000000000107600000000000000000000000000000000005380000000000000107602~NF~145100         
1145100NF  2      H0042          00000000000000269000000000000000269000000000000000000000000000000000013450000000000000269002~NF~145100         
1145100NF  5      M0131          00000000000000489580000000000000489580000000000000000000000000000000024480000000000000489582~NF~145100         
1145100NF  2      SER10          00000000000000100000000000000000100000000000000000000000000000000000005000000000000000100002~NF~145100         
11984523   5      M0071          00000000000000470000000000000000470000000000000000022270000000000000000000000000000000470002~3~198452          
1145101NF  5      M0071          00000000000000470000000000000000470000000000000000022270000000000000023500000000000000470002~NF~145101         
11984533   2      1.11           00000000000000000000000000000000000000000000000000000000000000000000000000000000000000000002~3~198453          
11984623   5      M0061          00000000000000449230000000000000449230000000000000026950000000000000000000000000000000449232~3~198462          
1145102NF  5      M0061          00000000000000449230000000000000449230000000000000026950000000000000022460000000000000449232~NF~145102         
11984633   1      C9999          00000000000001226000000000000001226000000000000000000000000000000000000000000000000001226002~3~198463          
11984633   1      D000           00000000000000520000000000000000520000000000000000000000000000000000000000000000000000520002~3~198463          
11984633   1      MEC 1          00000000000000700000000000000000700000000000000000000000000000000000000000000000000000700002~3~198463          
11984633   4      P8888          00000000000001850000000000000001850000000000000000000000000000000000000000000000000001850002~3~198463          
11984633   1      STF            00000000000000200000000000000000200000000000000000000000000000000000000000000000000000200002~3~198463          
11984633   4      1              00000000000000000000000000000000000000000000000000000000000000000000000000000000000000000002~3~198463          
1145103NF  1      C9999          00000000000001226000000000000001226000000000000000000000000000000000061300000000000001226002~NF~145103         
1145103NF  1      D000           00000000000000520000000000000000520000000000000000000000000000000000026000000000000000520002~NF~145103         
1145103NF  1      MEC 1          00000000000000700000000000000000700000000000000000000000000000000000035000000000000000700002~NF~145103         
1145103NF  4      P8888          00000000000001850000000000000001850000000000000000000000000000000000092500000000000001850002~NF~145103         
1145103NF  1      STF            00000000000000200000000000000000200000000000000000000000000000000000010000000000000000200002~NF~145103         
1145103NF  4      1              00000000000000000000000000000000000000000000000000000000000000000000000000000000000000000002~NF~145103         
11984643   1      C9999          00000000000000446000000000000000446000000000000000000000000000000000000000000000000000446002~3~198464          
11984643   1      D000           00000000000000220000000000000000220000000000000000003330000000000000000000000000000000220002~3~198464          
11984643   4      P8888          00000000000000550000000000000000550000000000000000000000000000000000000000000000000000550002~3~198464          
11984643   1      STF            00000000000000080000000000000000080000000000000000000000000000000000000000000000000000080002~3~198464          
11984643   4      1              00000000000000000000000000000000000000000000000000000000000000000000000000000000000000000002~3~198464          
1145104NF  1      C9999          00000000000000446000000000000000446000000000000000000000000000000000022300000000000000446002~NF~145104         
1145104NF  1      D000           00000000000000220000000000000000220000000000000000003330000000000000011000000000000000220002~NF~145104         
1145104NF  4      P8888          00000000000000550000000000000000550000000000000000000000000000000000027500000000000000550002~NF~145104         
1145104NF  1      STF            00000000000000080000000000000000080000000000000000000000000000000000004000000000000000080002~NF~145104         
1145104NF  4      1              00000000000000000000000000000000000000000000000000000000000000000000000000000000000000000002~NF~145104         
11984653   1      C9999          00000000000001330000000000000001330000000000000000000000000000000000000000000000000001330002~3~198465          
11984653   1      D000           00000000000000720000000000000000720000000000000000000000000000000000000000000000000000720002~3~198465          
11984653   1      MEC 1          00000000000000800000000000000000800000000000000000000000000000000000000000000000000000800002~3~198465          
11984653   4      P8888          00000000000002300000000000000002300000000000000000000000000000000000000000000000000002300002~3~198465          
11984653   4      1              00000000000000000000000000000000000000000000000000000000000000000000000000000000000000000002~3~198465          
1145105NF  1      C9999          00000000000001330000000000000001330000000000000000000000000000000000000000000000000001330002~NF~145105         
1145105NF  1      D000           00000000000000720000000000000000720000000000000000000000000000000000000000000000000000720002~NF~145105         
1145105NF  1      MEC 1          00000000000000800000000000000000800000000000000000000000000000000000000000000000000000800002~NF~145105         
1145105NF  4      P8888          00000000000002300000000000000002300000000000000000000000000000000000000000000000000002300002~NF~145105         
1145105NF  4      1              00000000000000000000000000000000000000000000000000000000000000000000000000000000000000000002~NF~145105         
11984663   1      C9999          00000000000000760500000000000000760500000000000000000000000000000000000000000000000000760502~3~198466          
11984663   2      DP             00000000000000060000000000000000060000000000000000000000000000000000000000000000000000060002~3~198466          
11984663   1      D000           00000000000000450000000000000000450000000000000000002970000000000000000000000000000000450002~3~198466          
11984663   2      E2020          00000000000000080000000000000000080000000000000000000000000000000000000000000000000000080002~3~198466          
11984663   1      MEC 1          00000000000001072000000000000001072000000000000000000000000000000000000000000000000001072002~3~198466          
11984663   4      P8888          00000000000001050000000000000001050000000000000000000000000000000000000000000000000001050002~3~198466          
11984663   4      1              00000000000000000000000000000000000000000000000000000000000000000000000000000000000000000002~3~198466          
1145106NF  1      C9999          00000000000000760500000000000000760500000000000000000000000000000000000000000000000000760502~NF~145106         
1145106NF  2      DP             00000000000000060000000000000000060000000000000000000000000000000000000000000000000000060002~NF~145106         
1145106NF  1      D000           00000000000000450000000000000000450000000000000000002970000000000000000000000000000000450002~NF~145106         
1145106NF  2      E2020          00000000000000080000000000000000080000000000000000000000000000000000000000000000000000080002~NF~145106         
1145106NF  1      MEC 1          00000000000001072000000000000001072000000000000000000000000000000000000000000000000001072002~NF~145106         
1145106NF  4      P8888          00000000000001050000000000000001050000000000000000000000000000000000000000000000000001050002~NF~145106         
1145106NF  4      1              00000000000000000000000000000000000000000000000000000000000000000000000000000000000000000002~NF~145106         
11984673   4      1              00000000000000000000000000000000000000000000000000000000000000000000000000000000000000000002~3~198467          
11984683   1      C9999          00000000000000588000000000000000588000000000000000000000000000000000000000000000000000588002~3~198468          
11984683   4      1              00000000000000000000000000000000000000000000000000000000000000000000000000000000000000000002~3~198468          
1145108NF  1      C9999          00000000000000588000000000000000588000000000000000000000000000000000000000000000000000588002~NF~145108         
1145108NF  4      1              00000000000000000000000000000000000000000000000000000000000000000000000000000000000000000002~NF~145108         
1145109NF  2      M0042          00000000000000290810000000000000290810000000000000007020000000000000014540000000000000290812~NF~145109         
1145110NF  2      M0042          00000000000000290810000000000000290810000000000000007020000000000000014540000000000000290812~NF~145110         
1145111NF  2      M0042          00000000000000290810000000000000290810000000000000007020000000000000014540000000000000290812~NF~145111         
1145112NF  5      M0041          00000000000000502300000000000000502300000000000000025750000000000000025120000000000000502302~NF~145112         
11984783   2      1.11           00000000000000000000000000000000000000000000000000000000000000000000000000000000000000000002~3~198478          
11984803   5      M0061          00000000000000370970000000000000370970000000000000018240000000000000000000000000000000370972~3~198480          
1145113NF  5      M0061          00000000000000370970000000000000370970000000000000018240000000000000018550000000000000370972~NF~145113         
11984823   2      J4207          00000000000000050700000000000000050700000000000000003040000000000000000000000000000000050702~3~198482          
11984823   2      4027900        00000000000000015600000000000000015600000000000000000940000000000000000000000000000000015602~3~198482          
1145114NF  2      J4207          00000000000000050700000000000000050700000000000000003040000000000000002540000000000000050702~NF~145114         
1145114NF  2      4027900        00000000000000015600000000000000015600000000000000000940000000000000000780000000000000015602~NF~145114         
11984833   2      9103388        00000000000000067770000000000000067770000000000000000000000000000000000000000000000000067772~3~198483          
11984833   2      9101158        00000000000000112940000000000000112940000000000000000000000000000000000000000000000000112942~3~198483          
1145115NF  2      9103388        00000000000000067770000000000000067770000000000000000000000000000000003390000000000000067772~NF~145115         
1145115NF  2      9101158        00000000000000112940000000000000112940000000000000000000000000000000005650000000000000112942~NF~145115         
11984843   2      8481018*       00000000000000406600000000000000406600000000000000024400000000000000000000000000000000406602~3~198484          
1145116NF  2      8481018*       00000000000000406600000000000000406600000000000000024400000000000000020330000000000000406602~NF~145116         
11984913   5      M0051          00000000000000470000000000000000470000000000000000022600000000000000000000000000000000470002~3~198491          
1145117NF  5      M0051          00000000000000470000000000000000470000000000000000022600000000000000023500000000000000470002~NF~145117         
11985003   2      1.11           00000000000000000000000000000000000000000000000000000000000000000000000000000000000000000002~3~198500          
11985033   2      1.11           00000000000000000000000000000000000000000000000000000000000000000000000000000000000000000002~3~198503          
1145118NF  4      P8888          00000000000000500000000000000000500000000000000000000000000000000000025000000000000000500002~NF~145118         
11985073   5      M0041          00000000000000000000000000000000000000000000000000030670000000000000000000000000000000000002~3~198507          
11985103   5      M0041          00000000000000000000000000000000000000000000000000030670000000000000000000000000000000000002~3~198510          
11985113   5      M0061          00000000000000303000000000000000303000000000000000000000000000000000000000000000000000303002~3~198511          
1145119NF  5      M0061          00000000000000303000000000000000303000000000000000000000000000000000015150000000000000303002~NF~145119         
11985143   2      E0203          00000000000000080000000000000000080000000000000000016140000000000000000000000000000000080002~3~198514          
11985143   2      E2020          00000000000000080000000000000000080000000000000000016140000000000000000000000000000000080002~3~198514          
11985143   5      M0061          00000000000000303000000000000000303000000000000000018180000000000000000000000000000000303002~3~198514          
1145120NF  2      E0203          00000000000000080000000000000000080000000000000000016140000000000000004000000000000000080002~NF~145120         
1145120NF  2      E2020          00000000000000080000000000000000080000000000000000016140000000000000004000000000000000080002~NF~145120         
1145120NF  5      M0061          00000000000000303000000000000000303000000000000000018180000000000000015150000000000000303002~NF~145120         
11985163   2      MEC            00000000000000350000000000000000350000000000000000048420000000000000000000000000000000350002~3~198516          
1145121NF  2      MEC            00000000000000350000000000000000350000000000000000048420000000000000017500000000000000350002~NF~145121         
11985173   2      E0203          00000000000000080000000000000000080000000000000000016140000000000000000000000000000000080002~3~198517          
11985173   2      E2020          00000000000000080000000000000000080000000000000000016140000000000000000000000000000000080002~3~198517          
11985173   5      M0041          00000000000000000000000000000000000000000000000000030670000000000000000000000000000000000002~3~198517          
1145122NF  2      E0203          00000000000000080000000000000000080000000000000000016140000000000000004000000000000000080002~NF~145122         
1145122NF  2      E2020          00000000000000080000000000000000080000000000000000016140000000000000004000000000000000080002~NF~145122         
1145122NF  5      M0041          00000000000000000000000000000000000000000000000000030670000000000000000000000000000000000002~NF~145122         
1145123NF  1      MEC 1          00000000000002173000000000000002173000000000000000000000000000000000108650000000000002173002~NF~145123         
11985183   2      ML             00000000000000477580000000000000477580000000000000000000000000000000000000000000000000477582~3~198518          
11985183   2      4066890        00000000000001061680000000000001061680000000000000000000000000000000000000000000000001061682~3~198518          
1145124NF  2      ML             00000000000000477580000000000000477580000000000000000000000000000000023880000000000000477582~NF~145124         
1145124NF  2      4066890        00000000000001061680000000000001061680000000000000000000000000000000053080000000000001061682~NF~145124         
11985223   2      8430590        00000000000000950000000000000000950000000000000000043580000000000000000000000000000000950002~3~198522          
1145125NF  2      8430590        00000000000000950000000000000000950000000000000000043580000000000000047500000000000000950002~NF~145125         
11985333   2      E2020          00000000000000100000000000000000100000000000000000000000000000000000000000000000000000100002~3~198533          
11985333   5      M0041          00000000000000000000000000000000000000000000000000000000000000000000000000000000000000000002~3~198533          
1145127NF  2      E2020          00000000000000100000000000000000100000000000000000000000000000000000005000000000000000100002~NF~145127         
1145127NF  5      M0041          00000000000000000000000000000000000000000000000000000000000000000000000000000000000000000002~NF~145127         
11985453   12     TR001          00000000000000060000000000000000060000000000000000003230000000000000000000000000000000060002~3~198545          
11985453   2      J0800          00000000000000150000000000000000150000000000000000000000000000000000000000000000000000150002~3~198545          
1145128NF  12     TR001          00000000000000060000000000000000060000000000000000003230000000000000003000000000000000060002~NF~145128         
1145128NF  2      J0800          00000000000000150000000000000000150000000000000000000000000000000000007500000000000000150002~NF~145128         
11985513   5      M0041          00000000000000000000000000000000000000000000000000030670000000000000000000000000000000000002~3~198551          
11985533   12     TR009          00000000000000060000000000000000060000000000000000000940000000000000000000000000000000060002~3~198553          
1145129NF  12     TR009          00000000000000060000000000000000060000000000000000000940000000000000003000000000000000060002~NF~145129         
11985543   2      E0203          00000000000000080000000000000000080000000000000000016140000000000000000000000000000000080002~3~198554          
11985543   2      E2020          00000000000000080000000000000000080000000000000000016140000000000000000000000000000000080002~3~198554          
11985543   5      M0061          00000000000000489330000000000000489330000000000000025260000000000000000000000000000000489332~3~198554          
11985543   2      SER10          00000000000000015000000000000000015000000000000000000000000000000000000000000000000000015002~3~198554          
1145130NF  2      E0203          00000000000000080000000000000000080000000000000000016140000000000000004000000000000000080002~NF~145130         
1145130NF  2      E2020          00000000000000080000000000000000080000000000000000016140000000000000004000000000000000080002~NF~145130         
1145130NF  5      M0061          00000000000000489330000000000000489330000000000000025260000000000000024470000000000000489332~NF~145130         
1145130NF  2      SER10          00000000000000015000000000000000015000000000000000000000000000000000000750000000000000015002~NF~145130         
1145131NF  5      M0041          00000000000000502300000000000000502300000000000000000000000000000000025120000000000000502302~NF~145131         
11985583   12     TR006          00000000000000040000000000000000040000000000000000003230000000000000000000000000000000040002~3~198558          
1145132NF  12     TR006          00000000000000040000000000000000040000000000000000003230000000000000002000000000000000040002~NF~145132         
1145133NF  5      M0041          00000000000000502300000000000000502300000000000000025750000000000000025120000000000000502302~NF~145133         
11985633   2      E0203          00000000000000080000000000000000080000000000000000016140000000000000000000000000000000080002~3~198563          
11985633   2      E2020          00000000000000080000000000000000080000000000000000016140000000000000000000000000000000080002~3~198563          
11985633   5      M0071          00000000000000489220000000000000489220000000000000022270000000000000000000000000000000489222~3~198563          
11985633   2      SER10          00000000000000015000000000000000015000000000000000009680000000000000000000000000000000015002~3~198563          
1145134NF  2      E0203          00000000000000080000000000000000080000000000000000016140000000000000004000000000000000080002~NF~145134         
1145134NF  2      E2020          00000000000000080000000000000000080000000000000000016140000000000000004000000000000000080002~NF~145134         
1145134NF  5      M0071          00000000000000489220000000000000489220000000000000022270000000000000024460000000000000489222~NF~145134         
1145134NF  2      SER10          00000000000000015000000000000000015000000000000000009680000000000000000750000000000000015002~NF~145134         
1145135NF  5      M0041          00000000000000502300000000000000502300000000000000000000000000000000025120000000000000502302~NF~145135         
11985643   1      MEC 1          00000000000000120000000000000000120000000000000000000000000000000000000000000000000000120002~3~198564          
1145136NF  1      MEC 1          00000000000000120000000000000000120000000000000000000000000000000000006000000000000000120002~NF~145136         
11985653   5      M0041          00000000000000000000000000000000000000000000000000030670000000000000000000000000000000000002~3~198565          
11985663   2      J0800          00000000000000150000000000000000150000000000000000009000000000000000000000000000000000150002~3~198566          
1145137NF  2      J0800          00000000000000150000000000000000150000000000000000009000000000000000007500000000000000150002~NF~145137         
11985673   5      M0081          00000000000000599870000000000000599870000000000000035990000000000000000000000000000000599872~3~198567          
1145138NF  5      M0081          00000000000000599870000000000000599870000000000000035990000000000000029990000000000000599872~NF~145138         
11985683   2      4063430        00000000000000813200000000000000813200000000000000048790000000000000000000000000000000813202~3~198568          
1145139NF  2      4063430        00000000000000813200000000000000813200000000000000048790000000000000040660000000000000813202~NF~145139         
11985693   2      E0203          00000000000000080000000000000000080000000000000000000000000000000000000000000000000000080002~3~198569          
11985693   2      E2020          00000000000000080000000000000000080000000000000000000000000000000000000000000000000000080002~3~198569          
11985693   5      M0041          00000000000000000000000000000000000000000000000000000000000000000000000000000000000000000002~3~198569          
11985693   2      SER10          00000000000000152000000000000000152000000000000000000000000000000000000000000000000000152002~3~198569          
1145140NF  2      E0203          00000000000000080000000000000000080000000000000000000000000000000000004000000000000000080002~NF~145140         
1145140NF  2      E2020          00000000000000080000000000000000080000000000000000000000000000000000004000000000000000080002~NF~145140         
1145140NF  5      M0041          00000000000000000000000000000000000000000000000000000000000000000000000000000000000000000002~NF~145140         
1145140NF  2      SER10          00000000000000152000000000000000152000000000000000000000000000000000007600000000000000152002~NF~145140         
11985733   1      C9999          00000000000000350000000000000000350000000000000000000000000000000000000000000000000000350002~3~198573          
11985733   1      D000           00000000000000450000000000000000450000000000000000011000000000000000000000000000000000450002~3~198573          
11985733   4      P8888          00000000000000800000000000000000800000000000000000000000000000000000000000000000000000800002~3~198573          
1145141NF  1      C9999          00000000000000350000000000000000350000000000000000000000000000000000017500000000000000350002~NF~145141         
1145141NF  1      D000           00000000000000450000000000000000450000000000000000011000000000000000022500000000000000450002~NF~145141         
1145141NF  4      P8888          00000000000000800000000000000000800000000000000000000000000000000000040000000000000000800002~NF~145141         
11985773   2      E0203          00000000000000100000000000000000100000000000000000016140000000000000000000000000000000100002~3~198577          
11985773   2      E2020          00000000000000100000000000000000100000000000000000016140000000000000000000000000000000100002~3~198577          
1145142NF  2      E0203          00000000000000100000000000000000100000000000000000016140000000000000005000000000000000100002~NF~145142         
1145142NF  2      E2020          00000000000000100000000000000000100000000000000000016140000000000000005000000000000000100002~NF~145142         
11985783   4      1              00000000000000000000000000000000000000000000000000000000000000000000000000000000000000000002~3~198578          
1145143NF  1      C9999          00000000000000258500000000000000258500000000000000000000000000000000012930000000000000258502~NF~145143         
1145143NF  1      D000           00000000000000120000000000000000120000000000000000000000000000000000006000000000000000120002~NF~145143         
1145143NF  1      M000           00000000000000240000000000000000240000000000000000055000000000000000012000000000000000240002~NF~145143         
1145143NF  4      P8888          00000000000000620000000000000000620000000000000000000000000000000000031000000000000000620002~NF~145143         
11985793   2      1040390        00000000000000045180000000000000045180000000000000002710000000000000000000000000000000045182~3~198579          
1145144NF  2      1040390        00000000000000045180000000000000045180000000000000002710000000000000002260000000000000045182~NF~145144         
11985823   5      M0041          00000000000000000000000000000000000000000000000000030670000000000000000000000000000000000002~3~198582          
1145145NF  2      M0042          00000000000000290810000000000000290810000000000000007020000000000000014540000000000000290812~NF~145145         
1145146NF  2      M0042          00000000000000290810000000000000290810000000000000000000000000000000014540000000000000290812~NF~145146         
1145147NF  2      M0042          00000000000000264370000000000000264370000000000000000000000000000000013220000000000000264372~NF~145147         
11985833   5      M0091          00000000000000799000000000000000799000000000000000029050000000000000000000000000000000799002~3~198583          
1145148NF  5      M0091          00000000000000799000000000000000799000000000000000029050000000000000039950000000000000799002~NF~145148         
11985843   4      1              00000000000000000000000000000000000000000000000000000000000000000000000000000000000000000002~3~198584          
11985853   1      M000           00000000000000540000000000000000540000000000000000021450000000000000000000000000000000540002~3~198585          
11985853   4      P8888          00000000000000860000000000000000860000000000000000000000000000000000000000000000000000860002~3~198585          
11985853   4      1              00000000000000000000000000000000000000000000000000000000000000000000000000000000000000000002~3~198585          
1145149NF  1      M000           00000000000000540000000000000000540000000000000000021450000000000000000000000000000000540002~NF~145149         
1145149NF  4      P8888          00000000000000860000000000000000860000000000000000000000000000000000000000000000000000860002~NF~145149         
1145149NF  4      1              00000000000000000000000000000000000000000000000000000000000000000000000000000000000000000002~NF~145149         
11985863   2      1.11           00000000000000000000000000000000000000000000000000000000000000000000000000000000000000000002~3~198586          
11985873   2      1.11           00000000000000000000000000000000000000000000000000000000000000000000000000000000000000000002~3~198587          
11985883   2      9106194        00000000000000045180000000000000045180000000000000002710000000000000000000000000000000045182~3~198588          
1145150NF  2      9106194        00000000000000045180000000000000045180000000000000002710000000000000002260000000000000045182~NF~145150         
11985893   2      9105321        00000000000000158120000000000000158120000000000000009490000000000000000000000000000000158122~3~198589          
1145151NF  2      9105321        00000000000000158120000000000000158120000000000000009490000000000000007910000000000000158122~NF~145151         
1145152NF  5      M0041          00000000000000502300000000000000502300000000000000025750000000000000025120000000000000502302~NF~145152         
1145153NF  2      M0042          00000000000000290810000000000000290810000000000000013550000000000000014540000000000000290812~NF~145153         
11985913   2      TR011          00000000000000067000000000000000067000000000000000002270000000000000000000000000000000067002~3~198591          
1145154NF  2      TR011          00000000000000067000000000000000067000000000000000002270000000000000003350000000000000067002~NF~145154         
1145155NF  2      9106027        00000000000000248480000000000000248480000000000000014910000000000000012420000000000000248482~NF~145155         
11985923   2      9106027        00000000000000248480000000000000248480000000000000014910000000000000000000000000000000248482~3~198592          
11985933   2      1.11           00000000000000000000000000000000000000000000000000000000000000000000000000000000000000000002~3~198593          
1145156NF  5      M0041          00000000000000502300000000000000502300000000000000000000000000000000025120000000000000502302~NF~145156         
1145157NF  5      M0041          00000000000000502300000000000000502300000000000000025750000000000000025120000000000000502302~NF~145157         
11985953   5      M0061          00000000000000307970000000000000307970000000000000018240000000000000000000000000000000307972~3~198595          
1145158NF  5      M0061          00000000000000307970000000000000307970000000000000018240000000000000015400000000000000307972~NF~145158         
11985973   5      M0081          00000000000000287000000000000000287000000000000000016140000000000000000000000000000000287002~3~198597          
1145159NF  5      M0081          00000000000000287000000000000000287000000000000000016140000000000000014350000000000000287002~NF~145159         
11985983   2      4067090        00000000000000090370000000000000090370000000000000005420000000000000000000000000000000090372~3~198598          
11985983   2      4041250        00000000000000112940000000000000112940000000000000006780000000000000000000000000000000112942~3~198598          
1145160NF  2      4067090        00000000000000090370000000000000090370000000000000005420000000000000004520000000000000090372~NF~145160         
1145160NF  2      4041250        00000000000000112940000000000000112940000000000000006780000000000000005650000000000000112942~NF~145160         
1145161NF  5      M0041          00000000000000502300000000000000502300000000000000025750000000000000025120000000000000502302~NF~145161         
11986013   5      M0061          00000000000000489970000000000000489970000000000000018180000000000000000000000000000000489972~3~198601          
1145162NF  5      M0061          00000000000000489970000000000000489970000000000000018180000000000000024500000000000000489972~NF~145162         
11986023   5      M0081          00000000000000350000000000000000350000000000000005649000000000000000000000000000000000350002~3~198602          
11986023   2      SER09          00000000000000150000000000000000150000000000000000009680000000000000000000000000000000150002~3~198602          
11986023   2      E0203          00000000000000080000000000000000080000000000000000016140000000000000000000000000000000080002~3~198602          
11986023   2      E2020          00000000000000080000000000000000080000000000000000016140000000000000000000000000000000080002~3~198602          
11986023   2      J0800          00000000000000250000000000000000250000000000000000009040000000000000000000000000000000250002~3~198602          
1145163NF  5      M0081          00000000000000350000000000000000350000000000000005649000000000000000017500000000000000350002~NF~145163         
1145163NF  2      SER09          00000000000000150000000000000000150000000000000000009680000000000000007500000000000000150002~NF~145163         
1145163NF  2      E0203          00000000000000080000000000000000080000000000000000016140000000000000004000000000000000080002~NF~145163         
1145163NF  2      E2020          00000000000000080000000000000000080000000000000000016140000000000000004000000000000000080002~NF~145163         
1145163NF  2      J0800          00000000000000250000000000000000250000000000000000009040000000000000012500000000000000250002~NF~145163         
11986033   2      4032750        00000000000000158120000000000000158120000000000000009490000000000000000000000000000000158122~3~198603          
1145164NF  2      4032750        00000000000000158120000000000000158120000000000000009490000000000000007910000000000000158122~NF~145164         
11986043   5      M0091          00000000000000689900000000000000689900000000000000033890000000000000000000000000000000689902~3~198604          
1145165NF  5      M0091          00000000000000689900000000000000689900000000000000033890000000000000034490000000000000689902~NF~145165         
11986053   5      M0071          00000000000000370000000000000000370000000000000000000000000000000000000000000000000000370002~3~198605          
11986053   2      SER10          00000000000000220000000000000000220000000000000000000000000000000000000000000000000000220002~3~198605          
1145166NF  5      M0071          00000000000000370000000000000000370000000000000000000000000000000000018500000000000000370002~NF~145166         
1145166NF  2      SER10          00000000000000220000000000000000220000000000000000000000000000000000011000000000000000220002~NF~145166         
11986083   12     TR019          00000000000000060000000000000000060000000000000000000940000000000000000000000000000000060002~3~198608          
1145167NF  12     TR019          00000000000000060000000000000000060000000000000000000940000000000000003000000000000000060002~NF~145167         
11986093   2      1.11           00000000000000000000000000000000000000000000000000000000000000000000000000000000000000000002~3~198609          
11986143   4      1441544        00000000000000361420000000000000361420000000000000000000000000000000000000000000000000361422~3~198614          
11986143   2      2020380        00000000000000180710000000000000180710000000000000016260000000000000000000000000000000180712~3~198614          
