11388      20230130AP        MECAN374                 55497312            55497312 4067490        2      1410000000000001000000000000000170000000000000000170000000000000000000000000000000000170000000000000000141700000000000000000000000000000000000000000000000000000000000000000000002220000000000000010240000000000000170000004100001388                 41~3~4018                          
11388      20230130AP        MECAN374                 55487413            55487413 4067490        2      1410000000000008000000000000000006000000000000000048000000000000000000000000000000000048000000000000000032720000000000000000000000000000000000000000000000000000000000000000000000660000000000000003050000000000000048000004100001388                 41~3~4018                          
11388      20230130AP        MECAN374                 55498703            55498703 4067490        2      1410000000000001000000000000000500000000000000000500000000000000000000000000000000000500000000000000000379960000000000000000000000000000000000000000000000000000000000000000000006650000000000000030640000000000000500000004100001388                 41~3~4018                          
11388      20230130AP        MECAN374                 25203697            25203697 4067490        2      1410000000000001000000000000000150000000000000000150000000000000000000000000000000000150000000000000000113390000000000000000000000000000000000000000000000000000000000000000000000000000000000000000000000000000000150000004100001388                 41~3~4018                          
11388      20230130AP        MECAN374                 55486826            55486826 4067490        2      1410000000000001000000000000000080000000000000000080000000000000000000000000000000000080000000000000000045680000000000000000000000000000000000000000000000000000000000000000000000000000000000000000000000000000000080000004100001388                 41~3~4018                          
11388      20230130AP        MECAN374                 55509157            55509157 4067490        2      1410000000000001000000000000000085000000000000000085000000000000000000000000000000000085000000000000000067780000000000000000000000000000000000000000000000000000000000000000000000000000000000000000000000000000000085000004100001388                 41~3~4018                          
11388      20230130AP        MECAN374                 55514589            55514589 4067490        2      1410000000000001000000000000000170000000000000000170000000000000000000000000000000000170000000000000000124230000000000000000000000000000000000000000000000000000000000000000000000000000000000000000000000000000000170000004100001388                 41~3~4018                          
11388      20230130AP        MECAN374                 12706595            12706595 4067490        2      1410000000000001000000000000000070000000000000000070000000000000000000000000000000000070000000000000000058420000000000000000000000000000000000000000000000000000000000000000000000000000000000000000000000000000000070000004100001388                 41~3~4018                          
11388      20230130AP        MECAN374                 98550811            98550811 4067490        2      1410000000000004000000000000000063000000000000000252000000000000000000000000000000000252000000000000000128850000000000000000000000000000000000000000000000000000000000000000000003500000000000000016120000000000000252000004100001388                 41~3~4018                          
11388      20230130AP        MECAN374                 93286309            93286309 4067490        2      1410000000000003000000000000000070000000000000000210000000000000000000000000000000000210000000000000000169470000000000000000000000000000000000000000000000000000000000000000000003470000000000000015960000000000000210000004100001388                 41~3~4018                          
11388      20230130AP        MECAN374                 98552043            98552043 4067490        2      1410000000000003000000000000000065000000000000000195000000000000000000000000000000000195000000000000000122480000000000000000000000000000000000000000000000000000000000000000000003220000000000000014820000000000000195000004100001388                 41~3~4018                          
11388      20230130AP        MECAN374                 98550134            98550134 4067490        2      1410000000000002000000000000000088000000000000000176000000000000000000000000000000000176000000000000000120640000000000000000000000000000000000000000000000000000000000000000000002900000000000000013380000000000000176000004100001388                 41~3~4018                          
12239      20230209               0                   26307582            26307582 ACC            9      0933000000000001000000000000000139620000000000000139620000000000000006000000000000000133620000000000000139620000000000000000000000000000000000000000000000000000000000000000000000000000000000000000000000000000000133620004100002239                 41~3~4212                          
12656      20230518               0                   26233868            26233868 ACC            9      1654000000000001000000000000000424490000000000000424490000000000000015890000000000000408600000000000000206450000000000000000000000000000000000000000000000000000000000000000000000000000000000000000000000000000000408600004100002656                 41~3~4068                          
12656      20230518               0                   26307581            26307581 ACC            9      1654000000000001000000000000000269390000000000000269390000000000000010080000000000000259310000000000000138460000000000000000000000000000000000000000000000000000000000000000000000000000000000000000000000000000000259310004100002656                 41~3~4068                          
12656      20230518               0                   98551297            98551297 ACC            9      1654000000000001000000000000000577390000000000000577390000000000000021610000000000000555780000000000000309690000000000000000000000000000000000000000000000000000000000000000000009170000000000000042240000000000000555780004100002656                 41~3~4068                          
12656      20230518               0                   98551347            98551347 ACC            9      1654000000000001000000000000000183160000000000000183160000000000000006850000000000000176310000000000000110170000000000000000000000000000000000000000000000000000000000000000000000000000000000000000000000000000000176310004100002656                 41~3~4068                          
12698      20230321AP        MECAN373                 13488275            13488275 9106195        2      1525000000000002000000000000000004190000000000000008380000000000000000000000000000000008380000000000000006430000000000000000000000000000000000000000000000000000000000000000000000000000000000000000000000000000000008380004100002698                 41~3~3780                          
12789      20230329AP        MECAN373                 24584644            24584644 8443240        2      1520000000000001000000000000000011420000000000000011420000000000000000000000000000000011420000000000000005690000000000000000000000000000000000000000000000000000000000000000000000190000000000000000870000000000000011420004100002789                 41~3~4057                          
12789      20230329AP        MECAN373                 94728699            94728699 8443240        2      1520000000000002000000000000000090000000000000000180000000000000000000000000000000000180000000000000000166960000000000000000000000000000000000000000000000000000000000000000000002220000000000000010240000000000000180000004100002789                 41~3~4057                          
12789      20230329AP        MECAN373                 98552043            98552043 8443240        2      1520000000000001000000000000000040000000000000000040000000000000000000000000000000000040000000000000000040830000000000000000000000000000000000000000000000000000000000000000000000660000000000000003040000000000000040000004100002789                 41~3~4057                          
12797      20230330               0                   19351403            19351403 03             2      0932000000000001000000000000000150640000000000000150640000000000000048160000000000000102480000000000000093060000000000000000000000000000000000000000000000000000000000000000000000000000000000000000000000000000000102480004100002797                 41~3~4201                          
12797      20230330               0                   52085789            52085789 03             2      0932000000000001000000000000000110910000000000000110910000000000000035460000000000000075450000000000000061530000000000000000000000000000000000000000000000000000000000000000000000000000000000000000000000000000000075450004100002797                 41~3~4201                          
12797      20230330               0                   88905845            88905845 03             2      0932000000000001000000000000000026360000000000000026360000000000000008430000000000000017930000000000000012260000000000000000000000000000000000000000000000000000000000000000000000000000000000000000000000000000000017930004100002797                 41~3~4201                          
12797      20230330               0                   90531677            90531677 03             2      0932000000000001000000000000000152110000000000000152110000000000000048630000000000000103480000000000000076070000000000000000000000000000000000000000000000000000000000000000000001380000000000000006350000000000000103480004100002797                 41~3~4201                          
12797      20230330               0                   93316245            93316245 03             2      0932000000000001000000000000000053330000000000000053330000000000000017050000000000000036280000000000000030240000000000000000000000000000000000000000000000000000000000000000000000000000000000000000000000000000000036280004100002797                 41~3~4201                          
12797      20230330               0                   93363296            93363296 03             2      0932000000000004000000000000000037150000000000000148600000000000000047510000000000000101090000000000000053360000000000000000000000000000000000000000000000000000000000000000000000000000000000000000000000000000000101090004100002797                 41~3~4201                          
12797      20230330               0                   98550549X                    03             2      0932000000000001000000000000000240000000000000000240000000000000000076730000000000000163270000000000000101100000000000000000000000000000000000000000000000000000000000000000000002690000000000000012410000000000000163270004100002797                 41~3~4201                          
12992      20230419AP        MECAN372                 52056627            52056627 2410370        2      0936000000000001000000000000000040000000000000000040000000000000000013550000000000000026450000000000000019390000000000000000000000000000000000000000000000000000000000000000000000440000000000000002010000000000000026450004100002992                 41~3~3766                          
12992      20230419AP        MECAN372                 52133768            52133768 2410370        2      0936000000000001000000000000001150000000000000001150000000000000000389550000000000000760450000000000000663510000000000000000000000000000000000000000000000000000000000000000000000000000000000000000000000000000000760450004100002992                 41~3~3766                          
12992      20230419AP        MECAN372                 94731445            94731445 2410370        2      0936000000000001000000000000000535000000000000000535000000000000000181230000000000000353770000000000000335160000000000000000000000000000000000000000000000000000000000000000000004460000000000000020520000000000000353770004100002992                 41~3~3766                          
12992      20230419AP        MECAN372                 94758097            94758097 2410370        2      0936000000000001000000000000009995000000000000009995000000000000003385710000000000006609290000000000004384450000000000000000000000000000000000000000000000000000000000000000000091030000000000000419300000000000006609290004100002992                 41~3~3766                          
12992      20230419AP        MECAN372                 98551028                     2410370        2      0936000000000004000000000000000025000000000000000100000000000000000033870000000000000066130000000000000070270000000000000000000000000000000000000000000000000000000000000000000001090000000000000005030000000000000066130004100002992                 41~3~3766                          
12992      20230420AP        MECAN372                 52134711            52134711 2410370        2      1515000000000001000000000000001125000000000000001125000000000000000381080000000000000743920000000000000272300000000000000000000000000000000000000000000000000000000000000000000000000000000000000000000000000000000743920004100002992                 41~3~3766                          
13042      20230424AP        MECAN372                 26401106            26401106 4412470        2      1717000000000001000000000000000775170000000000000775170000000000000000000000000000000775170000000000000613140000000000000000000000000000000000000000000000000000000000000000000010280000000000000047340000000000000775170004100003042                 41~3~3753                          
13046      20230425AP        MECAN375                 26240656            26240656 1046510        2      0915000000000001000000000000000438050000000000000438050000000000000000000000000000000438050000000000000339970000000000000000000000000000000000000000000000000000000000000000000000000000000000000000000000000000000438050004100003046                 41~3~3751                          
13063      20230426AP        MECAN372                 13547618            13547618 5420170        2      0912000000000001000000000000001506330000000000001506330000000000000000000000000000001506330000000000001155140000000000000000000000000000000000000000000000000000000000000000000020110000000000000092650000000000001506330004100003063                 41~3~3757                          
13071      20230426AP        MECAN374                 12706595            12706595 AAA06          2      1358000000000001000000000000000105000000000000000105000000000000000000000000000000000105000000000000000058420000000000000000000000000000000000000000000000000000000000000000000000000000000000000000000000000000000105000004100003071                 41~3~3802                          
13071      20230426AP        MECAN374                 1350005                      AAA06          2      1358000000000001000000000000000235000000000000000235000000000000000000000000000000000235000000000000000080320000000000000000000000000000000000000000000000000000000000000000000003880000000000000017860000000000000235000004100003071                 41~3~3802                          
13071      20230426AP        MECAN374                 1350113                      AAA06          2      1358000000000001000000000000000143000000000000000143000000000000000000000000000000000143000000000000000108870000000000000000000000000000000000000000000000000000000000000000000000000000000000000000000000000000000143000004100003071                 41~3~3802                          
13071      20230426AP        MECAN374                 19347706            19347706 AAA06          2      1358000000000001000000000000000024000000000000000024000000000000000000000000000000000024000000000000000014150000000000000000000000000000000000000000000000000000000000000000000000000000000000000000000000000000000024000004100003071                 41~3~3802                          
13071      20230426AP        MECAN374                 52102242            52102242 AAA06          2      1358000000000001000000000000000060350000000000000060350000000000000000000000000000000060350000000000000033300000000000000000000000000000000000000000000000000000000000000000000000860000000000000003960000000000000060350004100003071                 41~3~3802                          
13071      20230426AP        MECAN374                 90528145            90528145 AAA06          2      1358000000000001000000000000000015000000000000000015000000000000000000000000000000000015000000000000000008580000000000000000000000000000000000000000000000000000000000000000000000000000000000000000000000000000000015000004100003071                 41~3~3802                          
13071      20230426AP        MECAN374                 93205290            93205290 AAA06          2      1358000000000001000000000000000033330000000000000033330000000000000000000000000000000033330000000000000012770000000000000000000000000000000000000000000000000000000000000000000000550000000000000002530000000000000033330004100003071                 41~3~3802                          
13071      20230426AP        MECAN374                 98550812            98550812 AAA06          2      1358000000000004000000000000000096000000000000000384000000000000000000000000000000000384000000000000000137520000000000000000000000000000000000000000000000000000000000000000000006340000000000000029180000000000000384000004100003071                 41~3~3802                          
13072      20230426AP        MECAN374                 26355513            26355513 AAA71          2      1359000000000001000000000000000550000000000000000550000000000000000000000000000000000550000000000000000237090000000000000000000000000000000000000000000000000000000000000000000000000000000000000000000000000000000550000004100003072                 41~3~3801                          
13072      20230426AP        MECAN374                 55510150            55510150 AAA71          2      1359000000000001000000000000000350000000000000000350000000000000000000000000000000000350000000000000000178250000000000000000000000000000000000000000000000000000000000000000000000000000000000000000000000000000000350000004100003072                 41~3~3801                          
13072      20230426AP        MECAN374                 1350230                      AAA71          2      1624000000000002000000000000000159540000000000000319080000000000000000000000000000000319080000000000000162120000000000000000000000000000000000000000000000000000000000000000000004560000000000000020990000000000000319080004100003072                 41~3~3801                          
13072      20230505AP        MECAN374                 98552043            98552043 AAA71          2      0806000000000001000000000000000103770000000000000103770000000000000000000000000000000103770000000000000040830000000000000000000000000000000000000000000000000000000000000000000001710000000000000007890000000000000103770004100003072                 41~3~3801                          
13105      20230502AP        MECAN374                 12706595            12706595 03             2      0810000000000001000000000000000101000000000000000101000000000000000002420000000000000098580000000000000058420000000000000000000000000000000000000000000000000000000000000000000000000000000000000000000000000000000098580004100003105                 41~3~3755                          
13105      20230502AP        MECAN374                 90528145            90528145 03             2      0810000000000001000000000000000015000000000000000015000000000000000000360000000000000014640000000000000008580000000000000000000000000000000000000000000000000000000000000000000000000000000000000000000000000000000014640004100003105                 41~3~3755                          
13105      20230502AP        MECAN374                 98550812            98550812 03             2      0810000000000004000000000000000096000000000000000384000000000000000009220000000000000374780000000000000137520000000000000000000000000000000000000000000000000000000000000000000006180000000000000028480000000000000374780004100003105                 41~3~3755                          
13106      20230502AP        MECAN373                 12616850            12616850 03             2      0815000000000001000000000000000018610000000000000018610000000000000002320000000000000016290000000000000009930000000000000000000000000000000000000000000000000000000000000000000000230000000000000001050000000000000016290004100003106                 41~3~3746                          
13106      20230502AP        MECAN373                 12706595            12706595 03             2      0815000000000001000000000000000100160000000000000100160000000000000012500000000000000087660000000000000058420000000000000000000000000000000000000000000000000000000000000000000000000000000000000000000000000000000087660004100003106                 41~3~3746                          
13106      20230502AP        MECAN373                 98553886            98553886 03             2      0815000000000004000000000000000096000000000000000384000000000000000047940000000000000336060000000000000128360000000000000000000000000000000000000000000000000000000000000000000004890000000000000022510000000000000336060004100003106                 41~3~3746                          
13108      20230502AP        MECAN373                 12616850            12616850 M0151          5      0847000000000001000000000000000018610000000000000018610000000000000000000000000000000018610000000000000009930000000000000000000000000000000000000000000000000000000000000000000000270000000000000001220000000000000018610004100003108                 41~3~3747                          
13108      20230502AP        MECAN373                 1300525                      M0151          5      0847000000000001000000000000000181130000000000000181130000000000000000000000000000000181130000000000000086310000000000000000000000000000000000000000000000000000000000000000000002990000000000000013770000000000000181130004100003108                 41~3~3747                          
13108      20230502AP        MECAN373                 1350113                      M0151          5      0847000000000001000000000000000142840000000000000142840000000000000000000000000000000142840000000000000106240000000000000000000000000000000000000000000000000000000000000000000000000000000000000000000000000000000142840004100003108                 41~3~3747                          
13108      20230502AP        MECAN373                 1350135                      M0151          5      0847000000000001000000000000000172040000000000000172040000000000000000000000000000000172040000000000000089090000000000000000000000000000000000000000000000000000000000000000000002840000000000000013080000000000000172040004100003108                 41~3~3747                          
13108      20230502AP        MECAN373                 13503380            13503380 M0151          5      0847000000000001000000000000000066980000000000000066980000000000000000000000000000000066980000000000000033890000000000000000000000000000000000000000000000000000000000000000000000950000000000000004370000000000000066980004100003108                 41~3~3747                          
13108      20230502AP        MECAN373                 13503422            13503422 M0151          5      0847000000000002000000000000000020080000000000000040160000000000000000000000000000000040160000000000000019460000000000000000000000000000000000000000000000000000000000000000000000570000000000000002640000000000000040160004100003108                 41~3~3747                          
13108      20230502AP        MECAN373                 24590700            24590700 M0151          5      0847000000000001000000000000000151510000000000000151510000000000000000000000000000000151510000000000000072670000000000000000000000000000000000000000000000000000000000000000000002200000000000000010140000000000000151510004100003108                 41~3~3747                          
13108      20230502AP        MECAN373                 24591518            24591518 M0151          5      0847000000000001000000000000000064200000000000000064200000000000000000000000000000000064200000000000000033160000000000000000000000000000000000000000000000000000000000000000000000000000000000000000000000000000000064200004100003108                 41~3~3747                          
13108      20230502AP        MECAN373                 90531677            90531677 M0151          5      0847000000000001000000000000000165010000000000000165010000000000000000000000000000000165010000000000000053440000000000000000000000000000000000000000000000000000000000000000000002540000000000000011720000000000000165010004100003108                 41~3~3747                          
13108      20230502AP        MECAN373                 93353848            93353848 M0151          5      0847000000000001000000000000000235030000000000000235030000000000000000000000000000000235030000000000000109750000000000000000000000000000000000000000000000000000000000000000000000000000000000000000000000000000000235030004100003108                 41~3~3747                          
13108      20230502AP        MECAN373                 98553886            98553886 M0151          5      0847000000000004000000000000000096000000000000000384000000000000000000000000000000000384000000000000000128360000000000000000000000000000000000000000000000000000000000000000000005680000000000000026160000000000000384000004100003108                 41~3~3747                          
13115      20230502AP        MECAN372                 12616850            12616850 M0081          5      1439000000000001000000000000000022000000000000000022000000000000000001730000000000000020270000000000000009930000000000000000000000000000000000000000000000000000000000000000000000290000000000000001350000000000000020270004100003115                 41~3~3773                          
13115      20230502AP        MECAN372                 12636838            12636838 M0081          5      1439000000000001000000000000000145000000000000000145000000000000000011410000000000000133590000000000000080970000000000000000000000000000000000000000000000000000000000000000000001870000000000000008610000000000000133590004100003115                 41~3~3773                          
13115      20230502AP        MECAN372                 1300525                      M0081          5      1439000000000001000000000000000182000000000000000182000000000000000014320000000000000167680000000000000086310000000000000000000000000000000000000000000000000000000000000000000002770000000000000012740000000000000167680004100003115                 41~3~3773                          
13115      20230502AP        MECAN372                 52101541            52101541 M0081          5      1439000000000001000000000000000081000000000000000081000000000000000006370000000000000074630000000000000042660000000000000000000000000000000000000000000000000000000000000000000001050000000000000004830000000000000074630004100003115                 41~3~3773                          
13115      20230502AP        MECAN372                 98552923X                    M0081          5      1439000000000001000000000000000320000000000000000320000000000000000025170000000000000294830000000000000174540000000000000000000000000000000000000000000000000000000000000000000004860000000000000022410000000000000294830004100003115                 41~3~3773                          
13116      20230502AP        MECAN373                 94767965            94767965 C0111          2      1545000000000001000000000000000880000000000000000880000000000000000087540000000000000792460000000000000438060000000000000000000000000000000000000000000000000000000000000000000000000000000000000000000000000000000792460004100003116                 41~3~3763                          
13117      20230503AP        MECAN373                 12616850            12616850 03             2      0814000000000001000000000000000021320000000000000021320000000000000001580000000000000019740000000000000009930000000000000000000000000000000000000000000000000000000000000000000000280000000000000001310000000000000019740004100003117                 41~3~3767                          
13117      20230503AP        MECAN373                 12706595            12706595 03             2      0814000000000001000000000000000100160000000000000100160000000000000007430000000000000092730000000000000058420000000000000000000000000000000000000000000000000000000000000000000000000000000000000000000000000000000092730004100003117                 41~3~3767                          
13117      20230503AP        MECAN373                 98553886            98553886 03             2      0814000000000004000000000000000096000000000000000384000000000000000028470000000000000355530000000000000128360000000000000000000000000000000000000000000000000000000000000000000005210000000000000023990000000000000355530004100003117                 41~3~3767                          
13118      20230503AP        MECAN374                 12706595            12706595 03             2      0818000000000001000000000000000101000000000000000101000000000000000014840000000000000086160000000000000058420000000000000000000000000000000000000000000000000000000000000000000000000000000000000000000000000000000086160004100003118                 41~3~3771                          
13118      20230503AP        MECAN374                 1350113                      03             2      0818000000000001000000000000000145000000000000000145000000000000000021300000000000000123700000000000000106240000000000000000000000000000000000000000000000000000000000000000000000000000000000000000000000000000000123700004100003118                 41~3~3771                          
13118      20230503AP        MECAN374                 52102242            52102242 03             2      0818000000000001000000000000000065000000000000000065000000000000000009550000000000000055450000000000000033300000000000000000000000000000000000000000000000000000000000000000000000780000000000000003580000000000000055450004100003118                 41~3~3771                          
13118      20230503AP        MECAN374                 90528145            90528145 03             2      0818000000000001000000000000000015000000000000000015000000000000000002200000000000000012800000000000000008580000000000000000000000000000000000000000000000000000000000000000000000000000000000000000000000000000000012800004100003118                 41~3~3771                          
13118      20230503AP        MECAN374                 98550168            98550168 03             2      0818000000000004000000000000000087000000000000000348000000000000000051120000000000000296880000000000000082420000000000000000000000000000000000000000000000000000000000000000000004480000000000000020630000000000000296880004100003118                 41~3~3771                          
13120      20230503AP        MECAN375                 12616850            12616850 03             2      0844000000000001000000000000000022000000000000000022000000000000000001170000000000000020830000000000000009930000000000000000000000000000000000000000000000000000000000000000000000300000000000000001390000000000000020830004100003120                 41~3~3768                          
13120      20230503AP        MECAN375                 12706595            12706595 03             2      0844000000000001000000000000000101000000000000000101000000000000000005380000000000000095620000000000000058420000000000000000000000000000000000000000000000000000000000000000000000000000000000000000000000000000000095620004100003120                 41~3~3768                          
13120      20230503AP        MECAN375                 98550812            98550812 03             2      0844000000000004000000000000000096000000000000000384000000000000000020450000000000000363550000000000000137520000000000000000000000000000000000000000000000000000000000000000000006000000000000000027630000000000000363550004100003120                 41~3~3768                          
13122      20230503AP        MECAN372                 12616850            12616850 H0042....      2      0850000000000001000000000000000022000000000000000022000000000000000003470000000000000018530000000000000009930000000000000000000000000000000000000000000000000000000000000000000000310000000000000001410000000000000018530004100003122                 41~3~3777                          
13122      20230503AP        MECAN372                 12706595            12706595 H0042....      2      0850000000000001000000000000000101000000000000000101000000000000000015910000000000000085090000000000000058420000000000000000000000000000000000000000000000000000000000000000000000000000000000000000000000000000000085090004100003122                 41~3~3777                          
13122      20230503AP        MECAN372                 19283185            19283185 H0042....      2      0850000000000001000000000000000350000000000000000350000000000000000055130000000000000294870000000000000200570000000000000000000000000000000000000000000000000000000000000000000000000000000000000000000000000000000294870004100003122                 41~3~3777                          
13122      20230503AP        MECAN372                 93316245            93316245 H0042....      2      0850000000000001000000000000000073000000000000000073000000000000000011500000000000000061500000000000000030240000000000000000000000000000000000000000000000000000000000000000000000000000000000000000000000000000000061500004100003122                 41~3~3777                          
13122      20230503AP        MECAN372                 98553886            98553886 H0042....      2      0850000000000004000000000000000096000000000000000384000000000000000060490000000000000323510000000000000128360000000000000000000000000000000000000000000000000000000000000000000005340000000000000024590000000000000323510004100003122                 41~3~3777                          
13124      20230503               0                   12616850            12616850 M0051          5      0922000000000001000000000000000021320000000000000021320000000000000002530000000000000018790000000000000009930000000000000000000000000000000000000000000000000000000000000000000000270000000000000001240000000000000018790004100003124                 41~3~3794                          
13124      20230503               0                   12706595            12706595 M0051          5      0922000000000001000000000000000100160000000000000100160000000000000011870000000000000088290000000000000058420000000000000000000000000000000000000000000000000000000000000000000000000000000000000000000000000000000088290004100003124                 41~3~3794                          
13124      20230503               0                   1350113                      M0051          5      0922000000000001000000000000000142840000000000000142840000000000000016920000000000000125920000000000000108870000000000000000000000000000000000000000000000000000000000000000000000000000000000000000000000000000000125920004100003124                 41~3~3794                          
13124      20230503               0                   1350135                      M0051          5      0922000000000001000000000000000172040000000000000172040000000000000020380000000000000151660000000000000089090000000000000000000000000000000000000000000000000000000000000000000002500000000000000011530000000000000151660004100003124                 41~3~3794                          
13124      20230503               0                   13508023            13508023 M0051          5      0922000000000001000000000000000081850000000000000081850000000000000009700000000000000072150000000000000052980000000000000000000000000000000000000000000000000000000000000000000000970000000000000004480000000000000072150004100003124                 41~3~3794                          
13124      20230503               0                   19347706            19347706 M0051          5      0922000000000001000000000000000023000000000000000023000000000000000002720000000000000020280000000000000014150000000000000000000000000000000000000000000000000000000000000000000000000000000000000000000000000000000020280004100003124                 41~3~3794                          
13124      20230503               0                   98551028                     M0051          5      0922000000000001000000000000000021320000000000000021320000000000000002530000000000000018790000000000000017570000000000000000000000000000000000000000000000000000000000000000000000310000000000000001430000000000000018790004100003124                 41~3~3794                          
13124      20230503               0                   98553886            98553886 M0051          5      0922000000000004000000000000000096000000000000000384000000000000000045490000000000000338510000000000000128360000000000000000000000000000000000000000000000000000000000000000000004930000000000000022700000000000000338510004100003124                 41~3~3794                          
13125      20230503AP        MECAN372                 19347706            19347706 TR006          12     0940000000000001000000000000000023000000000000000023000000000000000004420000000000000018580000000000000014150000000000000000000000000000000000000000000000000000000000000000000000000000000000000000000000000000000018580004100003125                 41~3~3770                          
13125      20230503AP        MECAN372                 88905845            88905845 TR006          12     0940000000000001000000000000000027000000000000000027000000000000000005190000000000000021810000000000000014730000000000000000000000000000000000000000000000000000000000000000000000000000000000000000000000000000000021810004100003125                 41~3~3770                          
13125      20230503AP        MECAN372                 98550168X                    TR006          12     0940000000000001000000000000000210000000000000000210000000000000000040380000000000000169620000000000000097070000000000000000000000000000000000000000000000000000000000000000000002800000000000000012890000000000000169620004100003125                 41~3~3770                          
13126      20230503AP        MECAN375                 12616850            12616850 M0101          5      0945000000000001000000000000000021500000000000000021500000000000000000000000000000000021500000000000000009930000000000000000000000000000000000000000000000000000000000000000000000310000000000000001440000000000000021500004100003126                 41~3~3774                          
13126      20230503AP        MECAN375                 12636838            12636838 M0101          5      0945000000000001000000000000000143000000000000000143000000000000000000000000000000000143000000000000000080970000000000000000000000000000000000000000000000000000000000000000000002020000000000000009320000000000000143000004100003126                 41~3~3774                          
13126      20230503AP        MECAN375                 98552923            98552923 M0101          5      0945000000000006000000000000000095000000000000000570000000000000000000000000000000000570000000000000000211840000000000000000000000000000000000000000000000000000000000000000000008270000000000000038090000000000000570000004100003126                 41~3~3774                          
13127      20230503               0                   52042044            52042044 ACC            9      0951000000000001000000000000000123730000000000000123730000000000000000000000000000000123730000000000000123730000000000000000000000000000000022270000000000000000000000000000000000000000000000000000000000000000000123730004100003127                 41~3~3840                          
13128      20230503AP        MECAN374                 12706595            12706595 M0071          5      1004000000000001000000000000000101000000000000000101000000000000000000000000000000000101000000000000000058420000000000000000000000000000000000000000000000000000000000000000000000000000000000000000000000000000000101000004100003128                 41~3~3775                          
13128      20230503AP        MECAN374                 1350005                      M0071          5      1004000000000001000000000000000232000000000000000232000000000000000000000000000000000232000000000000000080320000000000000000000000000000000000000000000000000000000000000000000003830000000000000017630000000000000232000004100003128                 41~3~3775                          
13128      20230503AP        MECAN374                 1350135                      M0071          5      1004000000000001000000000000000175000000000000000175000000000000000000000000000000000175000000000000000089090000000000000000000000000000000000000000000000000000000000000000000002890000000000000013300000000000000175000004100003128                 41~3~3775                          
13128      20230503AP        MECAN374                 1350264                      M0071          5      1004000000000001000000000000000210000000000000000210000000000000000000000000000000000210000000000000000109970000000000000000000000000000000000000000000000000000000000000000000003000000000000000013840000000000000210000004100003128                 41~3~3775                          
13128      20230503AP        MECAN374                 13508023            13508023 M0071          5      1004000000000001000000000000000082000000000000000082000000000000000000000000000000000082000000000000000052980000000000000000000000000000000000000000000000000000000000000000000001130000000000000005230000000000000082000004100003128                 41~3~3775                          
13128      20230503AP        MECAN374                 1350113                      M0071          5      1054000000000001000000000000000145000000000000000145000000000000000000000000000000000145000000000000000108870000000000000000000000000000000000000000000000000000000000000000000000000000000000000000000000000000000145000004100003128                 41~3~3775                          
13128      20230503AP        MECAN374                 93205290            93205290 M0071          5      1004000000000001000000000000000033330000000000000033330000000000000000000000000000000033330000000000000012770000000000000000000000000000000000000000000000000000000000000000000000550000000000000002530000000000000033330004100003128                 41~3~3775                          
13128      20230503AP        MECAN374                 98550812            98550812 M0071          5      1004000000000004000000000000000096000000000000000384000000000000000000000000000000000384000000000000000137520000000000000000000000000000000000000000000000000000000000000000000006340000000000000029180000000000000384000004100003128                 41~3~3775                          
13129      20230503AP        MECAN372                 52171989            52171989 9106272        2      1016000000000001000000000000000030190000000000000030190000000000000000000000000000000030190000000000000026200000000000000000000000000000000000000000000000000000000000000000000000000000000000000000000000000000000030190004100003129                 41~3~3818                          
13129      20230503AP        MECAN372                 52172113            52172113 9106272        2      1017000000000010000000000000000008000000000000000080000000000000000000000000000000000080000000000000000071450000000000000000000000000000000000000000000000000000000000000000000001320000000000000006080000000000000080000004100003129                 41~3~3818                          
13129      20230503AP        MECAN372                 52172111            52172111 9106272        2      1017000000000002000000000000000070000000000000000140000000000000000000000000000000000140000000000000000115460000000000000000000000000000000000000000000000000000000000000000000000000000000000000000000000000000000140000004100003129                 41~3~3818                          
13129      20230503AP        MECAN372                 52172195            52172195 9106272        2      1017000000000002000000000000000100000000000000000200000000000000000000000000000000000200000000000000000162500000000000000000000000000000000000000000000000000000000000000000000000000000000000000000000000000000000200000004100003129                 41~3~3818                          
13130      20230503AP        MECAN374                 88905845            88905845 AAA71          2      1114000000000001000000000000000026360000000000000026360000000000000005620000000000000020740000000000000014730000000000000000000000000000000000000000000000000000000000000000000000000000000000000000000000000000000020740004100003130                 41~3~3778                          
13130      20230503AP        MECAN374                 98550168X                    AAA71          2      1114000000000001000000000000000210000000000000000210000000000000000044740000000000000165260000000000000097070000000000000000000000000000000000000000000000000000000000000000000002730000000000000012560000000000000165260004100003130                 41~3~3778                          
13131      20230503AP        MECAN375                 12616850            12616850 M0181          2      1415000000000001000000000000000021320000000000000021320000000000000002130000000000000019190000000000000009930000000000000000000000000000000000000000000000000000000000000000000000280000000000000001270000000000000019190004100003131                 41~3~3781                          
13131      20230503AP        MECAN375                 12706595            12706595 M0181          2      1415000000000001000000000000000100160000000000000100160000000000000010020000000000000090140000000000000058420000000000000000000000000000000000000000000000000000000000000000000000000000000000000000000000000000000090140004100003131                 41~3~3781                          
13131      20230503AP        MECAN375                 1300525                      M0181          2      1415000000000001000000000000000182000000000000000182000000000000000018200000000000000163800000000000000086310000000000000000000000000000000000000000000000000000000000000000000002700000000000000012450000000000000163800004100003131                 41~3~3781                          
13131      20230503AP        MECAN375                 1350135                      M0181          2      1415000000000001000000000000000173000000000000000173000000000000000017300000000000000155700000000000000089090000000000000000000000000000000000000000000000000000000000000000000002570000000000000011830000000000000155700004100003131                 41~3~3781                          
13131      20230503AP        MECAN375                 26312031            26312031 M0181          2      1415000000000001000000000000000865000000000000000865000000000000000086500000000000000778500000000000000447440000000000000000000000000000000000000000000000000000000000000000000000000000000000000000000000000000000778500004100003131                 41~3~3781                          
13131      20230503AP        MECAN375                 93316245            93316245 M0181          2      1415000000000001000000000000000072590000000000000072590000000000000007260000000000000065330000000000000030240000000000000000000000000000000000000000000000000000000000000000000000000000000000000000000000000000000065330004100003131                 41~3~3781                          
13131      20230503AP        MECAN375                 98550168            98550168 M0181          2      1415000000000004000000000000000065630000000000000262520000000000000026250000000000000236270000000000000082420000000000000000000000000000000000000000000000000000000000000000000003480000000000000016020000000000000236270004100003131                 41~3~3781                          
13132      20230503AP        MECAN372                 12616850            12616850 H0042....      2      1441000000000001000000000000000022000000000000000022000000000000000003650000000000000018350000000000000009930000000000000000000000000000000000000000000000000000000000000000000000260000000000000001200000000000000018350004100003132                 41~3~3786                          
13132      20230503AP        MECAN372                 12706595            12706595 H0042....      2      1441000000000001000000000000000101000000000000000101000000000000000016780000000000000084220000000000000058420000000000000000000000000000000000000000000000000000000000000000000000000000000000000000000000000000000084220004100003132                 41~3~3786                          
13132      20230503AP        MECAN372                 1300525                      H0042....      2      1441000000000001000000000000000182000000000000000182000000000000000030230000000000000151770000000000000086310000000000000000000000000000000000000000000000000000000000000000000002500000000000000011530000000000000151770004100003132                 41~3~3786                          
13132      20230503AP        MECAN372                 13508023            13508023 H0042....      2      1441000000000001000000000000000082000000000000000082000000000000000013620000000000000068380000000000000052980000000000000000000000000000000000000000000000000000000000000000000000910000000000000004190000000000000068380004100003132                 41~3~3786                          
13132      20230503AP        MECAN372                 39103796            39103796 H0042....      2      1441000000000001000000000000000820000000000000000820000000000000000136220000000000000683780000000000000472780000000000000000000000000000000000000000000000000000000000000000000000000000000000000000000000000000000683780004100003132                 41~3~3786                          
13132      20230503AP        MECAN372                 93316245            93316245 H0042....      2      1441000000000001000000000000000073000000000000000073000000000000000012130000000000000060870000000000000030240000000000000000000000000000000000000000000000000000000000000000000000000000000000000000000000000000000060870004100003132                 41~3~3786                          
13132      20230503AP        MECAN372                 98550549X                    H0042....      2      1441000000000001000000000000000240000000000000000240000000000000000039870000000000000200130000000000000101100000000000000000000000000000000000000000000000000000000000000000000003300000000000000015210000000000000200130004100003132                 41~3~3786                          
13133      20230503AP        MECAN373                 12616850            12616850 M0061          5      1450000000000001000000000000000021320000000000000021320000000000000004130000000000000017190000000000000009930000000000000000000000000000000000000000000000000000000000000000000000240000000000000001120000000000000017190004100003133                 41~3~3785                          
13133      20230503AP        MECAN373                 1350113                      M0061          5      1450000000000001000000000000000142840000000000000142840000000000000027680000000000000115160000000000000108870000000000000000000000000000000000000000000000000000000000000000000000000000000000000000000000000000000115160004100003133                 41~3~3785                          
13133      20230503AP        MECAN373                 24591518            24591518 M0061          5      1450000000000001000000000000000064200000000000000064200000000000000012440000000000000051760000000000000033160000000000000000000000000000000000000000000000000000000000000000000000000000000000000000000000000000000051760004100003133                 41~3~3785                          
13133      20230503AP        MECAN373                 93312682            93312682 M0061          5      1450000000000001000000000000000078140000000000000078140000000000000015140000000000000063000000000000000015340000000000000000000000000000000000000000000000000000000000000000000001040000000000000004790000000000000063000004100003133                 41~3~3785                          
13133      20230503AP        MECAN373                 98553886            98553886 M0061          5      1450000000000005000000000000000096000000000000000480000000000000000093020000000000000386980000000000000160450000000000000000000000000000000000000000000000000000000000000000000005560000000000000025620000000000000386980004100003133                 41~3~3785                          
13134      20230503AP        MECAN374                 12636838            12636838 M0111          5      1505000000000001000000000000000143000000000000000143000000000000000014300000000000000128700000000000000080970000000000000000000000000000000000000000000000000000000000000000000001790000000000000008240000000000000128700004100003134                 41~3~3783                          
13134      20230503AP        MECAN374                 1350005                      M0111          5      1505000000000001000000000000000234000000000000000234000000000000000023400000000000000210600000000000000080320000000000000000000000000000000000000000000000000000000000000000000003470000000000000016010000000000000210600004100003134                 41~3~3783                          
13134      20230503AP        MECAN374                 1350128                      M0111          5      1505000000000001000000000000000150000000000000000150000000000000000015000000000000000135000000000000000107540000000000000000000000000000000000000000000000000000000000000000000000000000000000000000000000000000000135000004100003134                 41~3~3783                          
13134      20230503AP        MECAN374                 52101541            52101541 M0111          5      1505000000000001000000000000000081000000000000000081000000000000000008100000000000000072900000000000000042660000000000000000000000000000000000000000000000000000000000000000000001020000000000000004700000000000000072900004100003134                 41~3~3783                          
13134      20230503AP        MECAN374                 52160963            52160963 M0111          5      1505000000000001000000000000000306000000000000000306000000000000000030600000000000000275400000000000000145520000000000000000000000000000000000000000000000000000000000000000000003930000000000000018120000000000000275400004100003134                 41~3~3783                          
13134      20230503AP        MECAN374                 90528145            90528145 M0111          5      1505000000000001000000000000000015000000000000000015000000000000000001500000000000000013500000000000000008580000000000000000000000000000000000000000000000000000000000000000000000000000000000000000000000000000000013500004100003134                 41~3~3783                          
13134      20230503AP        MECAN374                 93205290            93205290 M0111          5      1505000000000001000000000000000033330000000000000033330000000000000003330000000000000030000000000000000012770000000000000000000000000000000000000000000000000000000000000000000000500000000000000002280000000000000030000004100003134                 41~3~3783                          
13134      20230503AP        MECAN374                 98550134            98550134 M0111          5      1505000000000002000000000000000092000000000000000184000000000000000018400000000000000165600000000000000120640000000000000000000000000000000000000000000000000000000000000000000002730000000000000012590000000000000165600004100003134                 41~3~3783                          
13134      20230503AP        MECAN374                 98552923            98552923 M0111          5      1505000000000006000000000000000095000000000000000570000000000000000057000000000000000513000000000000000211840000000000000000000000000000000000000000000000000000000000000000000007330000000000000033760000000000000513000004100003134                 41~3~3783                          
13135      20230503AP        MECAN375                 26367157            26367157 6440190        2      1558000000000001000000000000001244070000000000001244070000000000000000000000000000001244070000000000001013390000000000000000000000000000000000000000000000000000000000000000000000000000000000000000000000000000001244070004100003135                 41~3~3820                          
13136      20230503AP        MECAN373                 12706595            12706595 TR006          12     1558000000000001000000000000000100160000000000000100160000000000000015020000000000000085140000000000000058420000000000000000000000000000000000000000000000000000000000000000000000000000000000000000000000000000000085140004100003136                 41~3~3782                          
13136      20230503AP        MECAN373                 98550812            98550812 TR006          12     1558000000000004000000000000000096000000000000000384000000000000000057600000000000000326400000000000000137520000000000000000000000000000000000000000000000000000000000000000000005390000000000000024810000000000000326400004100003136                 41~3~3782                          
13137      20230504AP        MECAN375                 88905845            88905845 TR015          12     0833000000000001000000000000000026360000000000000026360000000000000006020000000000000020340000000000000014730000000000000000000000000000000000000000000000000000000000000000000000000000000000000000000000000000000020340004100003137                 41~3~3790                          
13137      20230504AP        MECAN375                 98550168X                    TR015          12     0833000000000001000000000000000210000000000000000210000000000000000048000000000000000162000000000000000097070000000000000000000000000000000000000000000000000000000000000000000002670000000000000012310000000000000162000004100003137                 41~3~3790                          
13137      20230504AP        MECAN375                 19347706            19347706 TR015          12     0854000000000001000000000000000023000000000000000023000000000000000005260000000000000017740000000000000014150000000000000000000000000000000000000000000000000000000000000000000000000000000000000000000000000000000017740004100003137                 41~3~3790                          
13138      20230504AP        MECAN372                 12616850            12616850 M0131          5      0901000000000001000000000000000022000000000000000022000000000000000000000000000000000022000000000000000009930000000000000000000000000000000000000000000000000000000000000000000000320000000000000001480000000000000022000004100003138                 41~3~3791                          
13138      20230504AP        MECAN372                 12706595            12706595 M0131          5      0901000000000001000000000000000101000000000000000101000000000000000000000000000000000101000000000000000058420000000000000000000000000000000000000000000000000000000000000000000000000000000000000000000000000000000101000004100003138                 41~3~3791                          
13138      20230504AP        MECAN372                 1300525                      M0131          5      0901000000000001000000000000000182000000000000000182000000000000000000000000000000000182000000000000000086310000000000000000000000000000000000000000000000000000000000000000000003000000000000000013830000000000000182000004100003138                 41~3~3791                          
13138      20230504AP        MECAN372                 1350005                      M0131          5      0901000000000001000000000000000232000000000000000232000000000000000000000000000000000232000000000000000080320000000000000000000000000000000000000000000000000000000000000000000003830000000000000017630000000000000232000004100003138                 41~3~3791                          
13138      20230504AP        MECAN372                 1350113                      M0131          5      0901000000000001000000000000000145000000000000000145000000000000000000000000000000000145000000000000000108870000000000000000000000000000000000000000000000000000000000000000000000000000000000000000000000000000000145000004100003138                 41~3~3791                          
13138      20230504AP        MECAN372                 13508023            13508023 M0131          5      0901000000000001000000000000000082000000000000000082000000000000000000000000000000000082000000000000000052980000000000000000000000000000000000000000000000000000000000000000000001130000000000000005230000000000000082000004100003138                 41~3~3791                          
13138      20230504AP        MECAN372                 25197657            25197657 M0131          5      0901000000000003000000000000000143000000000000000429000000000000000000000000000000000429000000000000000223740000000000000000000000000000000000000000000000000000000000000000000000000000000000000000000000000000000429000004100003138                 41~3~3791                          
13138      20230504AP        MECAN372                 98550812            98550812 M0131          5      0901000000000004000000000000000096000000000000000384000000000000000000000000000000000384000000000000000137520000000000000000000000000000000000000000000000000000000000000000000006340000000000000029180000000000000384000004100003138                 41~3~3791                          
13138      20230504AP        MECAN372                 98551028                     M0131          5      0901000000000001000000000000000022000000000000000022000000000000000000000000000000000022000000000000000017570000000000000000000000000000000000000000000000000000000000000000000000360000000000000001670000000000000022000004100003138                 41~3~3791                          
13139      20230504AP        MECAN372                 26214160            26214160 8033140        2      1023000000000001000000000000001100000000000000001100000000000000000000000000000000001100000000000000000659830000000000000000000000000000000000000000000000000000000000000000000000000000000000000000000000000000001100000004100003139                 41~3~3792                          
13139      20230504AP        MECAN372                 26262064            26262064 8033140        2      1023000000000001000000000000000890000000000000000890000000000000000000000000000000000890000000000000000426490000000000000000000000000000000000000000000000000000000000000000000000000000000000000000000000000000000890000004100003139                 41~3~3792                          
13139      20230504AP        MECAN372                 26327900            26327900 8033140        2      1023000000000001000000000000000750000000000000000750000000000000000000000000000000000750000000000000000386130000000000000000000000000000000000000000000000000000000000000000000000000000000000000000000000000000000750000004100003139                 41~3~3792                          
13141      20230504AP        MECAN375                 12616850            12616850 M0071          5      1026000000000001000000000000000021320000000000000021320000000000000002120000000000000019200000000000000009930000000000000000000000000000000000000000000000000000000000000000000000280000000000000001270000000000000019200004100003141                 41~3~3793                          
13141      20230504AP        MECAN375                 12706595            12706595 M0071          5      1026000000000001000000000000000100160000000000000100160000000000000009960000000000000090200000000000000058420000000000000000000000000000000000000000000000000000000000000000000000000000000000000000000000000000000090200004100003141                 41~3~3793                          
13141      20230504AP        MECAN375                 1300525                      M0071          5      1026000000000001000000000000000182000000000000000182000000000000000018100000000000000163900000000000000086310000000000000000000000000000000000000000000000000000000000000000000002700000000000000012460000000000000163900004100003141                 41~3~3793                          
13141      20230504AP        MECAN375                 1350113                      M0071          5      1026000000000001000000000000000142850000000000000142850000000000000014210000000000000128640000000000000108870000000000000000000000000000000000000000000000000000000000000000000000000000000000000000000000000000000128640004100003141                 41~3~3793                          
13141      20230504AP        MECAN375                 13508023            13508023 M0071          5      1026000000000001000000000000000082000000000000000082000000000000000008150000000000000073850000000000000052980000000000000000000000000000000000000000000000000000000000000000000001000000000000000004610000000000000073850004100003141                 41~3~3793                          
13141      20230504AP        MECAN375                 26241944            26241944 M0071          5      1026000000000001000000000000000112150000000000000112150000000000000011150000000000000101000000000000000053590000000000000000000000000000000000000000000000000000000000000000000001670000000000000007680000000000000101000004100003141                 41~3~3793                          
13141      20230504AP        MECAN375                 98550812            98550812 M0071          5      1026000000000004000000000000000096000000000000000384000000000000000038190000000000000345810000000000000137520000000000000000000000000000000000000000000000000000000000000000000005710000000000000026280000000000000345810004100003141                 41~3~3793                          
13141      20230504AP        MECAN375                 98551028                     M0071          5      1026000000000001000000000000000021320000000000000021320000000000000002120000000000000019200000000000000017570000000000000000000000000000000000000000000000000000000000000000000000320000000000000001460000000000000019200004100003141                 41~3~3793                          
13143      20230504AP        MECAN372                 52162802            52162802 1030430        2      1359000000000001000000000000000767530000000000000767530000000000000000000000000000000767530000000000000625210000000000000000000000000000000000000000000000000000000000000000000000000000000000000000000000000000000767530004100003143                 41~3~3822                          
13144      20230504AP        MECAN375                 12616850            12616850 M0061          5      1422000000000001000000000000000021320000000000000021320000000000000002080000000000000019240000000000000009930000000000000000000000000000000000000000000000000000000000000000000000280000000000000001270000000000000019240004100003144                 41~3~3798                          
13144      20230504AP        MECAN375                 12706595            12706595 M0061          5      1422000000000001000000000000000100270000000000000100270000000000000009780000000000000090490000000000000058420000000000000000000000000000000000000000000000000000000000000000000000000000000000000000000000000000000090490004100003144                 41~3~3798                          
13144      20230504AP        MECAN375                 1300525                      M0061          5      1422000000000001000000000000000182000000000000000182000000000000000017760000000000000164240000000000000086310000000000000000000000000000000000000000000000000000000000000000000002710000000000000012480000000000000164240004100003144                 41~3~3798                          
13144      20230504AP        MECAN375                 1350005                      M0061          5      1422000000000001000000000000000232000000000000000232000000000000000022640000000000000209360000000000000080320000000000000000000000000000000000000000000000000000000000000000000003450000000000000015910000000000000209360004100003144                 41~3~3798                          
13144      20230504AP        MECAN375                 1350113                      M0061          5      1422000000000001000000000000000143000000000000000143000000000000000013950000000000000129050000000000000108870000000000000000000000000000000000000000000000000000000000000000000000000000000000000000000000000000000129050004100003144                 41~3~3798                          
13144      20230504AP        MECAN375                 13508023            13508023 M0061          5      1422000000000001000000000000000082000000000000000082000000000000000008000000000000000074000000000000000052980000000000000000000000000000000000000000000000000000000000000000000001000000000000000004620000000000000074000004100003144                 41~3~3798                          
13144      20230504AP        MECAN375                 93316245            93316245 M0061          5      1422000000000001000000000000000072590000000000000072590000000000000007080000000000000065510000000000000030240000000000000000000000000000000000000000000000000000000000000000000000000000000000000000000000000000000065510004100003144                 41~3~3798                          
13144      20230504AP        MECAN375                 98550168            98550168 M0061          5      1422000000000004000000000000000065630000000000000262520000000000000025620000000000000236900000000000000082420000000000000000000000000000000000000000000000000000000000000000000003490000000000000016070000000000000236900004100003144                 41~3~3798                          
13144      20230504AP        MECAN375                 26250789            26250789 M0061          5      1514000000000001000000000000000056430000000000000056430000000000000005510000000000000050920000000000000025740000000000000000000000000000000000000000000000000000000000000000000000730000000000000003380000000000000050920004100003144                 41~3~3798                          
13145      20230504               0                   26307582            26307582 ACC            9      1425000000000001000000000000000269390000000000000269390000000000000009390000000000000260000000000000000139620000000000000000000000000000000000000000000000000000000000000000000000000000000000000000000000000000000260000004100003145                 41~3~3850                          
13146      20230504AP        MECAN373                 12616850            12616850 03             2      1433000000000001000000000000000021320000000000000021320000000000000000000000000000000021320000000000000009930000000000000000000000000000000000000000000000000000000000000000000000310000000000000001430000000000000021320004100003146                 41~3~3796                          
13146      20230504AP        MECAN373                 12706595            12706595 03             2      1433000000000001000000000000000100160000000000000100160000000000000000000000000000000100160000000000000058420000000000000000000000000000000000000000000000000000000000000000000000000000000000000000000000000000000100160004100003146                 41~3~3796                          
13146      20230504AP        MECAN373                 1350113                      03             2      1433000000000001000000000000000142840000000000000142840000000000000000000000000000000142840000000000000108870000000000000000000000000000000000000000000000000000000000000000000000000000000000000000000000000000000142840004100003146                 41~3~3796                          
13146      20230504AP        MECAN373                 98553886            98553886 03             2      1433000000000004000000000000000096000000000000000384000000000000000000000000000000000384000000000000000128360000000000000000000000000000000000000000000000000000000000000000000005680000000000000026160000000000000384000004100003146                 41~3~3796                          
13147      20230505               0                   26328044            26328044 ACC            9      0749000000000001000000000000000284020000000000000284020000000000000024020000000000000260000000000000000151720000000000000000000000000000000000000000000000000000000000000000000000000000000000000000000000000000000260000004100003147                 41~3~3897                          
13150      20230505AP        MECAN373                 1350113                      M0061          5      0802000000000001000000000000000142840000000000000142840000000000000000000000000000000142840000000000000108870000000000000000000000000000000000000000000000000000000000000000000000000000000000000000000000000000000142840004100003150                 41~3~3800                          
13150      20230505AP        MECAN373                 19347706            19347706 M0061          5      0802000000000001000000000000000023000000000000000023000000000000000000000000000000000023000000000000000014150000000000000000000000000000000000000000000000000000000000000000000000000000000000000000000000000000000023000004100003150                 41~3~3800                          
13150      20230505AP        MECAN373                 24591518            24591518 M0061          5      0802000000000001000000000000000064200000000000000064200000000000000000000000000000000064200000000000000033160000000000000000000000000000000000000000000000000000000000000000000000000000000000000000000000000000000064200004100003150                 41~3~3800                          
13150      20230505AP        MECAN373                 52102242            52102242 M0061          5      0802000000000001000000000000000060350000000000000060350000000000000000000000000000000060350000000000000033300000000000000000000000000000000000000000000000000000000000000000000000860000000000000003960000000000000060350004100003150                 41~3~3800                          
13150      20230505AP        MECAN373                 90528145            90528145 M0061          5      0802000000000001000000000000000014700000000000000014700000000000000000000000000000000014700000000000000008580000000000000000000000000000000000000000000000000000000000000000000000000000000000000000000000000000000014700004100003150                 41~3~3800                          
13150      20230505AP        MECAN373                 93363296            93363296 M0061          5      0802000000000004000000000000000035240000000000000140960000000000000000000000000000000140960000000000000071700000000000000000000000000000000000000000000000000000000000000000000000000000000000000000000000000000000140960004100003150                 41~3~3800                          
13150      20230505AP        MECAN373                 94757663            94757663 M0061          5      0802000000000001000000000000000121300000000000000121300000000000000000000000000000000121300000000000000052970000000000000000000000000000000000000000000000000000000000000000000001770000000000000008160000000000000121300004100003150                 41~3~3800                          
13150      20230505AP        MECAN373                 98550549X                    M0061          5      0802000000000001000000000000000240000000000000000240000000000000000000000000000000000240000000000000000101100000000000000000000000000000000000000000000000000000000000000000000003960000000000000018240000000000000240000004100003150                 41~3~3800                          
13152      20230505AP        MECAN374                 26400758            26400758 4485008        2      1013000000000001000000000000000530440000000000000530440000000000000000000000000000000530440000000000000435700000000000000000000000000000000000000000000000000000000000000000000006970000000000000032090000000000000530440004100003152                 41~3~3810                          
13152      20230505AP        MECAN374                 13579649            13579649 4485008        2      1013000000000001000000000000000034000000000000000034000000000000000000000000000000000034000000000000000017000000000000000000000000000000000000000000000000000000000000000000000000490000000000000002260000000000000034000004100003152                 41~3~3810                          
13152      20230505AP        MECAN374                 13579646            13579646 4485008        2      1013000000000001000000000000000110000000000000000110000000000000000000000000000000000110000000000000000078620000000000000000000000000000000000000000000000000000000000000000000001490000000000000006870000000000000110000004100003152                 41~3~3810                          
13153      20230505AP        MECAN375                 12616850            12616850 M0091          5      0846000000000001000000000000000024890000000000000024890000000000000000000000000000000024890000000000000009930000000000000000000000000000000000000000000000000000000000000000000000370000000000000001700000000000000024890004100003153                 41~3~3859                          
13153      20230505AP        MECAN375                 12706595            12706595 M0091          5      0846000000000001000000000000000140080000000000000140080000000000000000000000000000000140080000000000000058420000000000000000000000000000000000000000000000000000000000000000000000000000000000000000000000000000000140080004100003153                 41~3~3859                          
13153      20230505AP        MECAN375                 13508023            13508023 M0091          5      0846000000000001000000000000000114480000000000000114480000000000000000000000000000000114480000000000000052980000000000000000000000000000000000000000000000000000000000000000000001670000000000000007700000000000000114480004100003153                 41~3~3859                          
13153      20230505AP        MECAN375                 93316245            93316245 M0091          5      0846000000000001000000000000000077490000000000000077490000000000000000000000000000000077490000000000000030240000000000000000000000000000000000000000000000000000000000000000000000000000000000000000000000000000000077490004100003153                 41~3~3859                          
13153      20230505AP        MECAN375                 98550812            98550812 M0091          5      0846000000000004000000000000000096000000000000000384000000000000000000000000000000000384000000000000000137520000000000000000000000000000000000000000000000000000000000000000000006340000000000000029180000000000000384000004100003153                 41~3~3859                          
13153      20230505AP        MECAN375                 98551028                     M0091          5      0846000000000001000000000000000021320000000000000021320000000000000000000000000000000021320000000000000017570000000000000000000000000000000000000000000000000000000000000000000000350000000000000001620000000000000021320004100003153                 41~3~3859                          
13154      20230505               0                   26307582            26307582 ACC            9      0958000000000001000000000000000269390000000000000269390000000000000009390000000000000260000000000000000139620000000000000000000000000000000000000000000000000000000000000000000000000000000000000000000000000000000260000004100003154                 41~3~3852                          
13155      20230505               0                   26355513            26355513 ACC            9      1000000000000001000000000000000471790000000000000471790000000000000024400000000000000447390000000000000218540000000000000000000000000000000000000000000000000000000000000000000000000000000000000000000000000000000447390004100003155                 41~3~3845                          
13155      20230505               0                   26237857            26237857 ACC            9      1000000000000001000000000000000477290000000000000477290000000000000024680000000000000452610000000000000274030000000000000000000000000000000000000000000000000000000000000000000006400000000000000029470000000000000452610004100003155                 41~3~3845                          
13156      20230505AP        MECAN375                 12616850            12616850 M0071          5      1020000000000001000000000000000022500000000000000022500000000000000004500000000000000018000000000000000009930000000000000000000000000000000000000000000000000000000000000000000000260000000000000001180000000000000018000004100003156                 41~3~3804                          
13156      20230505AP        MECAN375                 12706595            12706595 M0071          5      1020000000000001000000000000000101000000000000000101000000000000000020200000000000000080800000000000000058420000000000000000000000000000000000000000000000000000000000000000000000000000000000000000000000000000000080800004100003156                 41~3~3804                          
13156      20230505AP        MECAN375                 1300525                      M0071          5      1020000000000001000000000000000182000000000000000182000000000000000036400000000000000145600000000000000086310000000000000000000000000000000000000000000000000000000000000000000002400000000000000011070000000000000145600004100003156                 41~3~3804                          
13156      20230505AP        MECAN375                 1350005                      M0071          5      1020000000000001000000000000000232000000000000000232000000000000000046400000000000000185600000000000000080320000000000000000000000000000000000000000000000000000000000000000000003060000000000000014110000000000000185600004100003156                 41~3~3804                          
13156      20230505AP        MECAN375                 1350113                      M0071          5      1020000000000001000000000000000143000000000000000143000000000000000028600000000000000114400000000000000108870000000000000000000000000000000000000000000000000000000000000000000000000000000000000000000000000000000114400004100003156                 41~3~3804                          
13156      20230505AP        MECAN375                 1350135                      M0071          5      1020000000000001000000000000000173000000000000000173000000000000000034600000000000000138400000000000000089090000000000000000000000000000000000000000000000000000000000000000000002280000000000000010520000000000000138400004100003156                 41~3~3804                          
13156      20230505AP        MECAN375                 13508023            13508023 M0071          5      1020000000000001000000000000000082000000000000000082000000000000000016400000000000000065600000000000000052980000000000000000000000000000000000000000000000000000000000000000000000860000000000000003980000000000000065600004100003156                 41~3~3804                          
13156      20230505AP        MECAN375                 26241944            26241944 M0071          5      1020000000000001000000000000000113000000000000000113000000000000000022600000000000000090400000000000000053590000000000000000000000000000000000000000000000000000000000000000000001490000000000000006870000000000000090400004100003156                 41~3~3804                          
13156      20230505AP        MECAN375                 93316245            93316245 M0071          5      1020000000000001000000000000000073000000000000000073000000000000000014600000000000000058400000000000000030240000000000000000000000000000000000000000000000000000000000000000000000000000000000000000000000000000000058400004100003156                 41~3~3804                          
13156      20230505AP        MECAN375                 98550168            98550168 M0071          5      1020000000000004000000000000000066000000000000000264000000000000000052800000000000000211200000000000000082420000000000000000000000000000000000000000000000000000000000000000000003060000000000000014110000000000000211200004100003156                 41~3~3804                          
13156      20230505AP        MECAN375                 98551028                     M0071          5      1020000000000001000000000000000022000000000000000022000000000000000004400000000000000017600000000000000017570000000000000000000000000000000000000000000000000000000000000000000000290000000000000001340000000000000017600004100003156                 41~3~3804                          
13157      20230505AP        MECAN372                 26274120            26274120 5430040        2      1138000000000001000000000000000308710000000000000308710000000000000000000000000000000308710000000000000243110000000000000000000000000000000000000000000000000000000000000000000000000000000000000000000000000000000308710004100003157                 41~3~3815                          
13158      20230505AP        MECAN374                 12706595            12706595 AAA71          2      1403000000000001000000000000000101160000000000000101160000000000000000000000000000000101160000000000000058420000000000000000000000000000000000000000000000000000000000000000000000000000000000000000000000000000000101160004100003158                 41~3~3807                          
13158      20230505AP        MECAN374                 26290728            26290728 AAA71          2      1403000000000001000000000000000440000000000000000440000000000000000000000000000000000440000000000000000218480000000000000000000000000000000000000000000000000000000000000000000000000000000000000000000000000000000440000004100003158                 41~3~3807                          
13158      20230505AP        MECAN374                 26336019            26336019 AAA71          2      1403000000000001000000000000000150890000000000000150890000000000000000000000000000000150890000000000000061110000000000000000000000000000000000000000000000000000000000000000000002240000000000000010290000000000000150890004100003158                 41~3~3807                          
13158      20230505AP        MECAN374                 98550168X                    AAA71          2      1403000000000001000000000000000210000000000000000210000000000000000000000000000000000210000000000000000097070000000000000000000000000000000000000000000000000000000000000000000003470000000000000015960000000000000210000004100003158                 41~3~3807                          
13158      20230505AP        MECAN374                 84801575            84801575 AAA71          2      1530000000000001000000000000000120000000000000000120000000000000000000000000000000000120000000000000000056370000000000000000000000000000000000000000000000000000000000000000000001750000000000000008050000000000000120000004100003158                 41~3~3807                          
13159      20230505AP        MECAN375                 12616850            12616850 03             2      1427000000000001000000000000000022000000000000000022000000000000000000000000000000000022000000000000000009930000000000000000000000000000000000000000000000000000000000000000000000320000000000000001480000000000000022000004100003159                 41~3~3809                          
13159      20230505AP        MECAN375                 12706595            12706595 03             2      1427000000000001000000000000000101000000000000000101000000000000000000000000000000000101000000000000000058420000000000000000000000000000000000000000000000000000000000000000000000000000000000000000000000000000000101000004100003159                 41~3~3809                          
13159      20230505AP        MECAN375                 98553886            98553886 03             2      1427000000000004000000000000000096000000000000000384000000000000000000000000000000000384000000000000000128360000000000000000000000000000000000000000000000000000000000000000000005680000000000000026160000000000000384000004100003159                 41~3~3809                          
13161      20230505AP        MECAN372                 26242867            26242867 03             2      1456000000000001000000000000002243050000000000002243050000000000001043050000000000001200000000000000000806390000000000000000000000000000000000000000000000000000000000000000000016430000000000000075680000000000001200000004100003161                 41~3~3812                          
13162      20230505AP        MECAN373                 26274120            26274120 5430040        2      1610000000000001000000000000000308710000000000000308710000000000000000000000000000000308710000000000000243110000000000000000000000000000000000000000000000000000000000000000000000000000000000000000000000000000000308710004100003162                 41~3~3813                          
13165      20230506AP        MECAN375                 12616850            12616850 M0071          5      0821000000000001000000000000000021320000000000000021320000000000000000000000000000000021320000000000000009930000000000000000000000000000000000000000000000000000000000000000000000310000000000000001430000000000000021320004100003165                 41~3~3829                          
13165      20230506AP        MECAN375                 12706595            12706595 M0071          5      0821000000000001000000000000000100160000000000000100160000000000000000000000000000000100160000000000000058420000000000000000000000000000000000000000000000000000000000000000000000000000000000000000000000000000000100160004100003165                 41~3~3829                          
13165      20230506AP        MECAN375                 26241944            26241944 M0071          5      0821000000000001000000000000000112150000000000000112150000000000000000000000000000000112150000000000000053590000000000000000000000000000000000000000000000000000000000000000000001850000000000000008520000000000000112150004100003165                 41~3~3829                          
13165      20230506AP        MECAN375                 93316245            93316245 M0071          5      0821000000000001000000000000000072590000000000000072590000000000000000000000000000000072590000000000000030240000000000000000000000000000000000000000000000000000000000000000000000000000000000000000000000000000000072590004100003165                 41~3~3829                          
13165      20230506AP        MECAN375                 98550812            98550812 M0071          5      0821000000000004000000000000000096000000000000000384000000000000000000010000000000000383990000000000000137520000000000000000000000000000000000000000000000000000000000000000000006340000000000000029180000000000000383990004100003165                 41~3~3829                          
13166      20230506AP        MECAN374                 13508023            13508023 M0081          5      0848000000000001000000000000000081850000000000000081850000000000000012960000000000000068890000000000000052980000000000000000000000000000000000000000000000000000000000000000000000920000000000000004230000000000000068890004100003166                 41~3~3817                          
13166      20230506AP        MECAN374                 12706595            12706595 M0081          5      0821000000000001000000000000000105000000000000000105000000000000000016630000000000000088370000000000000058420000000000000000000000000000000000000000000000000000000000000000000000000000000000000000000000000000000088370004100003166                 41~3~3817                          
13166      20230506AP        MECAN374                 19347706            19347706 M0081          5      0821000000000001000000000000000023000000000000000023000000000000000003640000000000000019360000000000000014150000000000000000000000000000000000000000000000000000000000000000000000000000000000000000000000000000000019360004100003166                 41~3~3817                          
13166      20230506AP        MECAN374                 90528145            90528145 M0081          5      0821000000000001000000000000000154700000000000000154700000000000000024500000000000000130200000000000000008580000000000000000000000000000000000000000000000000000000000000000000000000000000000000000000000000000000130200004100003166                 41~3~3817                          
13166      20230506AP        MECAN374                 98550812            98550812 M0081          5      0821000000000004000000000000000096000000000000000384000000000000000060820000000000000323180000000000000137520000000000000000000000000000000000000000000000000000000000000000000005330000000000000024560000000000000323180004100003166                 41~3~3817                          
13167      20230506AP        MECAN373                 26312721            26312721 1035580        2      0832000000000001000000000000000149230000000000000149230000000000000000000000000000000149230000000000000132510000000000000000000000000000000000000000000000000000000000000000000000000000000000000000000000000000000149230004100003167                 41~3~3889                          
13168      20230506               0                   26355515            26355515 ACC            9      0838000000000001000000000000000212160000000000000212160000000000000000000000000000000212160000000000000212160000000000000000000000000000000000000000000000000000000000000000000000000000000000000000000000000000000212160004100003168                 41~3~3841                          
13169      20230506               0                   12616850            12616850 03             2      0849000000000001000000000000000021320000000000000021320000000000000002590000000000000018730000000000000009930000000000000000000000000000000000000000000000000000000000000000000000310000000000000001420000000000000018730004100003169                 41~3~3819                          
13169      20230506               0                   12706595            12706595 03             2      0849000000000001000000000000000100160000000000000100160000000000000012180000000000000087980000000000000058420000000000000000000000000000000000000000000000000000000000000000000000000000000000000000000000000000000087980004100003169                 41~3~3819                          
13169      20230506               0                   98550812            98550812 03             2      0849000000000004000000000000000096000000000000000384000000000000000046700000000000000337300000000000000137520000000000000000000000000000000000000000000000000000000000000000000005570000000000000025630000000000000337300004100003169                 41~3~3819                          
13171      20230506AP        MECAN373                 12616850            12616850 03             2      0940000000000001000000000000000021320000000000000021320000000000000002250000000000000019070000000000000009930000000000000000000000000000000000000000000000000000000000000000000000270000000000000001260000000000000019070004100003171                 41~3~3827                          
13171      20230506AP        MECAN373                 12706595            12706595 03             2      0940000000000001000000000000000100160000000000000100160000000000000010550000000000000089610000000000000058420000000000000000000000000000000000000000000000000000000000000000000000000000000000000000000000000000000089610004100003171                 41~3~3827                          
13171      20230506AP        MECAN373                 1350113                      03             2      0940000000000001000000000000000142840000000000000142840000000000000015050000000000000127790000000000000108870000000000000000000000000000000000000000000000000000000000000000000000000000000000000000000000000000000127790004100003171                 41~3~3827                          
13171      20230506AP        MECAN373                 98553886            98553886 03             2      0940000000000004000000000000000096000000000000000384000000000000000040470000000000000343530000000000000128360000000000000000000000000000000000000000000000000000000000000000000005010000000000000023080000000000000343530004100003171                 41~3~3827                          
13172      20230506AP        MECAN375                 19347706            19347706 TR011          2      0940000000000001000000000000000023000000000000000023000000000000000002900000000000000020100000000000000014150000000000000000000000000000000000000000000000000000000000000000000000000000000000000000000000000000000020100004100003172                 41~3~3828                          
13172      20230506AP        MECAN375                 88905845            88905845 TR011          2      0940000000000001000000000000000027000000000000000027000000000000000003400000000000000023600000000000000014730000000000000000000000000000000000000000000000000000000000000000000000000000000000000000000000000000000023600004100003172                 41~3~3828                          
13172      20230506AP        MECAN375                 98550168X                    TR011          2      0940000000000001000000000000000210000000000000000210000000000000000026480000000000000183520000000000000097070000000000000000000000000000000000000000000000000000000000000000000003030000000000000013950000000000000183520004100003172                 41~3~3828                          
13172      20230506AP        MECAN375                 90531677            90531677 TR011          2      1005000000000001000000000000000165010000000000000165010000000000000020810000000000000144200000000000000071150000000000000000000000000000000000000000000000000000000000000000000002050000000000000009440000000000000144200004100003172                 41~3~3828                          
13172      20230506AP        MECAN375                 93353848            93353848 TR011          2      1005000000000001000000000000000235030000000000000235030000000000000029640000000000000205390000000000000119490000000000000000000000000000000000000000000000000000000000000000000000000000000000000000000000000000000205390004100003172                 41~3~3828                          
13172      20230506AP        MECAN375                 93363296            93363296 TR011          2      1005000000000004000000000000000035240000000000000140960000000000000017770000000000000123190000000000000071700000000000000000000000000000000000000000000000000000000000000000000000000000000000000000000000000000000123190004100003172                 41~3~3828                          
13174      20230506AP        MECAN372                 26234038            26234038 ACE            9      1031000000000001000000000000001000000000000000001000000000000000000000000000000000001000000000000000000530330000000000000000000000000000000000000000000000000000000000000000000014380000000000000066250000000000001000000004100003174                 41~3~3830                          
13174      20230506AP        MECAN372                 26236145            26236145 ACE            9      1031000000000001000000000000001090000000000000001090000000000000000000000000000000001090000000000000000588760000000000000000000000000000000000000000000000000000000000000000000000000000000000000000000000000000001090000004100003174                 41~3~3830                          
13175      20230506AP        MECAN372                 12616850            12616850 M0061          5      1103000000000001000000000000000022000000000000000022000000000000000002380000000000000019630000000000000009930000000000000000000000000000000000000000000000000000000000000000000000280000000000000001300000000000000019630004100003175                 41~3~3831                          
13175      20230506AP        MECAN372                 12706595            12706595 M0061          5      1103000000000001000000000000000101000000000000000101000000000000000010900000000000000090100000000000000058420000000000000000000000000000000000000000000000000000000000000000000000000000000000000000000000000000000090100004100003175                 41~3~3831                          
