11388      2023013120230131AP        MECAN374                 2      ML             07560000075800000VEICULO BAIXANDO O NIVEL DE AGUA                                                                                                                                                                                                                                                                                                                                                                                                                                                                                    0000000000000000500000000000000000000000000000000000500000000000002402980000000000002402980000000000000000000000000000000120150000000000002402980004100001388                 41~NF~2267               V2        
11388      2022120520230518                                   2      ST             08500000140100000VEICULO BAIXANDO O NIVEL DE AGUA                                                                                                                                                                                                                                                                                                                                                                                                                                                                                    0000000000000001000000000000000000000000000000000001000000000000000450000000000000000450000000000000000450000000000000000022500000000000000450000004100001388                 41~NF~2267               V2        
11388      2023013120230131AP        MECAN374                 2      4067490        07430000075600000VEICULO BAIXANDO O NIVEL DE AGUA                                                                                                                                                                                                                                                                                                                                                                                                                                                                                    0000000000000008700000000000000000010000000000000008690000000000001117240000000000001117240000000000000000000000000000000055860000000000001117240004100001388                 41~NF~2267               V2        
11459      2022121020221212AP        MECAN373                 5      M0041          10330000083800000REVISÃO AOS 10.000 KM OU 1 ANO.                                                                                                                                                                                                                                                                                                                                                                                                                                                                                     0000000000000001000000000000000001920000000000000000920000000000000274520000000000000274520000000000000000000000000000000013730000000000000274520004100001459                 41~NF~2155               V3        
12239      2023020920230209                                   9      ACC            09290000095700000ACC - TROCO - TAPETES                                                                                                                                                                                                                                                                                                                                                                                                                                                                                               0000000000000001000000000000000000000000000000000001000000000000000000000000000000000000000000000000000000000000000000000000000000000000000000000004100002239                                          D9        
12656      2023031720230522                                   9      ACC            10160000170400000ACC - SHOWROOM (PONTEIRA SIMPLES, TAPETE MALA, TAPETE, FRISOS E SOLEIRAS)                                                                                                                                                                                                                                                                                                                                                                                                                                           0000000000000001000000000000000000000000000000000001000000000000000000000000000000000000000000000000000000000000000000000000000000000000000000000004100002656                                          V9        
12698      2023032120230321AP        MECAN373                 2      9106195        15240000160500000PARA-SOL IT -007-22                                                                                                                                                                                                                                                                                                                                                                                                                                                                                                 0000000000000000300000000000000000030000000000000000270000000000000036440000000000000036440000000000000000000000000000000000000000000000000036440004100002698                 41~NF~2150               V2        
12789      2023032920230329AP        MECAN373                 2      8443240        15190000152100000EXAMINAR VAZAMENTO NA REGIÃO DA TRANSMISSÃO                                                                                                                                                                                                                                                                                                                                                                                                                                                                         0000000000000003100000000000000000000000000000000003100000000000000376460000000000000376460000000000000000000000000000000000000000000000000376460004100002789                 41~NF~2281               V2        
12797      2023033020230531                                   2      03             09320000140600000REVISAO DOS 50.OOOKM                                                                                                                                                                                                                                                                                                                                                                                                                                                                                                0000000000000000500000000000000000000000000000000000500000000000000000000000000000000000000000000000000000000000000000000000000000000000000000000004100002797                                          V1        
12914      2023050820230508AP        MECAN372                 2      ML             08030000080400000EXAMINAR ANOMALIA NO RÁDIO DO VEÍCULO                                                                                                                                                                                                                                                                                                                                                                                                                                                                               0000000000000000500000000000000000000000000000000000500000000000000374980000000000000374980000000000000000000000000000000018750000000000000374980004100002914                 41~NF~2259               V2        
12914      2023050820230508AP        MECAN372                 2      3420840        08020000080300000EXAMINAR ANOMALIA NO RÁDIO DO VEÍCULO                                                                                                                                                                                                                                                                                                                                                                                                                                                                               0000000000000000200000000000000000000000000000000000200000000000000024290000000000000024290000000000000000000000000000000001210000000000000024290004100002914                 41~NF~2259               V2        
12992      2023042020230420AP        MECAN372                 2      2410370        15160000151700000VEICULO SEM FREAR                                                                                                                                                                                                                                                                                                                                                                                                                                                                                                   0000000000000001000000000000000000000000000000000001000000000000000210000000000000000188960000000000000000000000000000000009450000000000000188960004100002992                 41~NF~2142               V1        
12992      2023042020230420AP        MECAN372                 2      2440100        15160000151700000VEICULO SEM FREAR                                                                                                                                                                                                                                                                                                                                                                                                                                                                                                   0000000000000000900000000000000000000000000000000000900000000000000189000000000000000170060000000000000000000000000000000008500000000000000170060004100002992                 41~NF~2142               V1        
12992      2023042020230420AP        MECAN372                 2      4410600        15160000151700000VEICULO SEM FREAR                                                                                                                                                                                                                                                                                                                                                                                                                                                                                                   0000000000000001000000000000000000000000000000000001000000000000000090000000000000000080980000000000000000000000000000000004050000000000000080980004100002992                 41~NF~2142               V1        
13042      2023042420230425AP        MECAN372                 2      4412470        17160000090300000Examinar baixo desempenho do sistema de ar condicionado                                                                                                                                                                                                                                                                                                                                                                                                                                                             0000000000000008000000000000000000660000000000000007340000000000000971520000000000000971520000000000000000000000000000000000000000000000000971520004100003042                 41~NF~2132               V2        
13046      2023042520230425AP        MECAN375                 2      1046510        09150000091600000EXAMINAR IRREGULARIDADE NA TAMPA DA MALA                                                                                                                                                                                                                                                                                                                                                                                                                                                                            0000000000000000200000000000000000000000000000000000200000000000000024290000000000000024290000000000000000000000000000000000000000000000000024290004100003046                 41~NF~2131               V2        
13063      2023042620230426AP        MECAN372                 2      5420170        09110000091400000Examinar anomalia no carregador de indução                                                                                                                                                                                                                                                                                                                                                                                                                                                                          0000000000000000500000000000000000000000000000000000500000000000000060720000000000000060720000000000000000000000000000000000000000000000000060720004100003063                 41~NF~2137               V2        
13071      2023042720230427AP        MECAN374                 2      AAA06          14470000144800000REVISAO DOS 60.000 KM                                                                                                                                                                                                                                                                                                                                                                                                                                                                                               0000000000000000010000000000000000000000000000000000010000000000000336000000000000000336000000000000000000000000000000000016800000000000000336000004100003071                 41~NF~2167               V1        
13072      2023050520230505AP        MECAN374                 2      AAA71          08070000080800000SERV. VERIFICAR VAZAMENTO DE OLEO                                                                                                                                                                                                                                                                                                                                                                                                                                                                                   0000000000000000010000000000000000000000000000000000010000000000000450000000000000000450000000000000000000000000000000000000000000000000000450000004100003072                 41~NF~2166               V1        
13084      2023042720230427AP        MECAN374                 2      ML             11080000111000000EXAMINAR VAZAMENTO NA REGIÃO DO SEMI EIXO                                                                                                                                                                                                                                                                                                                                                                                                                                                                           0000000000000000500000000000000000000000000000000000500000000000000251880000000000000251880000000000000000000000000000000012590000000000000251880004100003084                 41~NF~2139               V2        
13084      2023042720230427AP        MECAN374                 2      3040060        11110000111200000EXAMINAR VAZAMENTO NA REGIÃO DO SEMI EIXO                                                                                                                                                                                                                                                                                                                                                                                                                                                                           0000000000000001100000000000000000000000000000000001100000000000000133580000000000000133580000000000000000000000000000000006680000000000000133580004100003084                 41~NF~2139               V2        
13104      2023042920230429AP        MECAN372                 2      0610653        10190000102800000Revisão de entrega                                                                                                                                                                                                                                                                                                                                                                                                                                                                                                  0000000000000000600000000000000000010000000000000000590000000000000158620000000000000158620000000000000000000000000000000000000000000000000158620004100003104                                          RE        
13105      2023050220230502AP        MECAN374                 2      03             08270000082800000Agenda Rapido                                                                                                                                                                                                                                                                                                                                                                                                                                                                                                       0000000000000000500000000000000000000000000000000000500000000000000000000000000000000000000000000000000000000000000000000000000000000000000000000004100003105                                          V1        
13106      2023050220230502AP        MECAN373                 2      03             08360000083700000REVISÃO AOS 10.000 KM OU 1 ANO.                                                                                                                                                                                                                                                                                                                                                                                                                                                                                     0000000000000000500000000000000000000000000000000000500000000000000000000000000000000000000000000000000000000000000000000000000000000000000000000004100003106                                          V1        
13107      2023050220230502AP        MECAN373                 5      M0041          08370000083800000REVISÃO AOS 10.000 KM OU 1 ANO.                                                                                                                                                                                                                                                                                                                                                                                                                                                                                     0000000000000001000000000000000000000000000000000001000000000000000290810000000000000290810000000000000000000000000000000014540000000000000290810004100003107                 41~NF~2130               V3        
13108      2023050220230502AP        MECAN373                 5      M0151          09370000093800000REVISÃO AOS 120.000 KM.                                                                                                                                                                                                                                                                                                                                                                                                                                                                                             0000000000000002140000000000000000000000000000000002140000000000000449400000000000000449400000000000000000000000000000000000000000000000000449400004100003108                 41~NF~2129               V1        
13109      2023050220230502AP        MECAN374                 5      M0041          09100000091100000PRIMEIRA REVISAO ESPECIAL                                                                                                                                                                                                                                                                                                                                                                                                                                                                                           0000000000000001000000000000000000000000000000000001000000000000000290810000000000000290810000000000000000000000000000000014540000000000000290810004100003109                 41~NF~2135               V3        
13110      2023050220230502AP        MECAN372                 2      9105108        09380000094200000Clipe e linha de combustivel - IT18G-2020                                                                                                                                                                                                                                                                                                                                                                                                                                                                           0000000000000000100000000000000000000000000000000000100000000000000012140000000000000012140000000000000000000000000000000000610000000000000012140004100003110                 41~NF~2136               V2        
13111      2023050220230502AP        MECAN372                 2      DIAG           09440000094500000Realizar diagnóstico da Direção eletrica                                                                                                                                                                                                                                                                                                                                                                                                                                                                            0000000000000000500000000000000000000000000000000000500000000000000180000000000000000180000000000000000000000000000000000009000000000000000180000004100003111                 41~NF~2134               V1        
13112      2023050220230502AP        MECAN372                 2      0610653        11160000111700000REVISÃO DE ENTREGa                                                                                                                                                                                                                                                                                                                                                                                                                                                                                                  0000000000000149740000000000000000000000000000000149740000000000000158620000000000000158620000000000000000000000000000000000000000000000000158620004100003112                                          RE        
13113      2023050220230502AP        MECAN372                 2      0610653        11180000112000000REVISÃO DE ENTREGA                                                                                                                                                                                                                                                                                                                                                                                                                                                                                                  0000000000000149740000000000000000000000000000000149740000000000000158620000000000000158620000000000000000000000000000000000000000000000000158620004100003113                                          RE        
13114      2023050220230502AP        MECAN374                 2      0610653        13500000135100000REVISAO DE ENTREGA                                                                                                                                                                                                                                                                                                                                                                                                                                                                                                  0000000000000149740000000000000000000000000000000149740000000000000158620000000000000158620000000000000000000000000000000000000000000000000158620004100003114                                          RE        
13115      2023050220230502AP        MECAN372                 5      M0081          14390000144000000SERVIÇO DE REVISAO DE 50.000 KM                                                                                                                                                                                                                                                                                                                                                                                                                                                                                     0000000000000001470000000000000000000000000000000001470000000000000309000000000000000309000000000000000000000000000000000000000000000000000309000004100003115                 41~NF~2145               V1        
13116      2023050220230502AP        MECAN373                 2      C0111          17010000170200000VERIFICAR OS VIDROS E PORTA LUVA                                                                                                                                                                                                                                                                                                                                                                                                                                                                                    0000000000000000860000000000000000000000000000000000860000000000000180600000000000000162540000000000000000000000000000000000000000000000000162540004100003116                 41~NF~2141               V1        
13117      2023050320230503AP        MECAN373                 2      03             08360000083700000SERVIÇO DA PRIMEIRA REVISAO                                                                                                                                                                                                                                                                                                                                                                                                                                                                                         0000000000000000500000000000000000000000000000000000500000000000000000000000000000000000000000000000000000000000000000000000000000000000000000000004100003117                                          V1        
13118      2023050320230503AP        MECAN374                 2      03             09000000090100000PRIMEIRA REVISAO                                                                                                                                                                                                                                                                                                                                                                                                                                                                                                    0000000000000000500000000000000000000000000000000000500000000000000000000000000000000000000000000000000000000000000000000000000000000000000000000004100003118                                          V1        
13119      2023050320230503AP        MECAN373                 5      M0041          08380000083900000SERVIÇO DA PRIMEIRA REVISAO                                                                                                                                                                                                                                                                                                                                                                                                                                                                                         0000000000000001000000000000000000000000000000000001000000000000000290810000000000000290810000000000000000000000000000000000000000000000000290810004100003119                                          D1        
13120      2023050320230503AP        MECAN375                 2      03             08440000084500000PRIMEIRA REVISÃO                                                                                                                                                                                                                                                                                                                                                                                                                                                                                                    0000000000000000500000000000000000000000000000000000500000000000000000000000000000000000000000000000000000000000000000000000000000000000000000000004100003120                                          V1        
13121      2023050320230503AP        MECAN375                 5      M0041          08450000084600000PRIMEIRA REVISÃO ESPECIAL                                                                                                                                                                                                                                                                                                                                                                                                                                                                                           0000000000000001000000000000000000000000000000000001000000000000000290810000000000000290810000000000000000000000000000000014540000000000000290810004100003121                 41~NF~2164               V2        
13122      2023050320230503AP        MECAN372                 2      H0042....      08560000085700000Revisão de 30.000 Km ( 3 Anos de uso )                                                                                                                                                                                                                                                                                                                                                                                                                                                                              0000000000000000330000000000000000000000000000000000330000000000000070000000000000000059500000000000000000000000000000000002980000000000000059500004100003122                 41~NF~2148               V1        
13122      2023050320230503AP        MECAN372                 5      M0061          08560000085700000Revisão de 30.000 Km ( 3 Anos de uso )                                                                                                                                                                                                                                                                                                                                                                                                                                                                              0000000000000001050000000000000000000000000000000001050000000000000220000000000000000187000000000000000000000000000000000009350000000000000187000004100003122                 41~NF~2148               V1        
13123      2023050320230503AP        MECAN374                 5      M0041          09030000090400000PRIMEIRA REVISAO ESPECIAL                                                                                                                                                                                                                                                                                                                                                                                                                                                                                           0000000000000001000000000000000000000000000000000001000000000000000290810000000000000290810000000000000000000000000000000014540000000000000290810004100003123                 41~NF~2144               V3        
13124      2023050320230504                                   5      M0051          09220000112800000REVISÃO AOS 20.000 KM OU 2 ANOS.                                                                                                                                                                                                                                                                                                                                                                                                                                                                                    0000000000000001400000000000000000000000000000000001400000000000000369600000000000000369600000000000000000000000000000000000000000000000000369600004100003124                 41~NF~2161               V1        
13125      2023050320230503AP        MECAN372                 12     TR006          09410000094200000TROCA DE OLEO E FILTRO                                                                                                                                                                                                                                                                                                                                                                                                                                                                                              0000000000000000200000000000000000000000000000000000200000000000000050000000000000000050000000000000000000000000000000000000000000000000000050000004100003125                 41~NF~2143               V1        
13126      2023050320230503AP        MECAN375                 5      M0101          09450000094600000SÉTIMA REVISÃO PREVENTIVA                                                                                                                                                                                                                                                                                                                                                                                                                                                                                           0000000000000002350000000000000000000000000000000002350000000000000493500000000000000493500000000000000000000000000000000000000000000000000493500004100003126                 41~NF~2146               V1        
13127      2023050320230508                                   9      ACC            09500000135800000ACC - TAPETES - CORTESIA                                                                                                                                                                                                                                                                                                                                                                                                                                                                                            0000000000000001000000000000000000000000000000000001000000000000000000000000000000000000000000000000000000000000000000000000000000000000000000000004100003127                                          D9        
13128      2023050320230503AP        MECAN374                 5      M0071          10290000103000000SERVIÇO, REVISAO DOS 40.000 KM                                                                                                                                                                                                                                                                                                                                                                                                                                                                                      0000000000000001600000000000000000000000000000000001600000000000000336000000000000000336000000000000000000000000000000000000000000000000000336000004100003128                 41~NF~2147               V1        
13129      2023050320230503AP        MECAN372                 2      9106272        10480000110600000Isolador Acustico do Carpete - IT 012GA-22                                                                                                                                                                                                                                                                                                                                                                                                                                                                          0000000000000002400000000000000000010000000000000002390000000000000291460000000000000291460000000000000000000000000000000000000000000000000291460004100003129                 41~NF~2175               V2        
13130      2023050320230503AP        MECAN374                 2      AAA71          11300000113100000Agenda Rapido                                                                                                                                                                                                                                                                                                                                                                                                                                                                                                       0000000000000000010000000000000000000000000000000000010000000000000060000000000000000050000000000000000000000000000000000000000000000000000050000004100003130                 41~NF~2149               V1        
13131      2023050320230503AP        MECAN375                 2      H0042......... 14150000141600000DÉCIMA QUINTA REVISÃO                                                                                                                                                                                                                                                                                                                                                                                                                                                                                               0000000000000000600000000000000000000000000000000000600000000000000126000000000000000125740000000000000000000000000000000000000000000000000125740004100003131                 41~NF~2151               V1        
13131      2023050320230503AP        MECAN375                 2      M0181          14150000141600000DÉCIMA QUINTA REVISÃO                                                                                                                                                                                                                                                                                                                                                                                                                                                                                               0000000000000001290000000000000000000000000000000001290000000000000270900000000000000270330000000000000000000000000000000000000000000000000270330004100003131                 41~NF~2151               V1        
13132      2023050320230503AP        MECAN372                 2      H0042....      16060000160700000SERVIÇO DE REVISAO DE 50.000 KM                                                                                                                                                                                                                                                                                                                                                                                                                                                                                     0000000000000000330000000000000000000000000000000000330000000000000070000000000000000059500000000000000000000000000000000000000000000000000059500004100003132                 41~NF~2156               V1        
13132      2023050320230503AP        MECAN372                 5      M0081          16060000160700000SERVIÇO DE REVISAO DE 50.000 KM                                                                                                                                                                                                                                                                                                                                                                                                                                                                                     0000000000000001520000000000000000000000000000000001520000000000000320000000000000000272000000000000000000000000000000000000000000000000000272000004100003132                 41~NF~2156               V1        
13133      2023050320230503AP        MECAN373                 5      M0061          15250000152600000SERVIÇO DE REVISAO DE 60.000 KM                                                                                                                                                                                                                                                                                                                                                                                                                                                                                     0000000000000001190000000000000000000000000000000001190000000000000249900000000000000212410000000000000000000000000000000000000000000000000212410004100003133                 41~NF~2154               V1        
13133      2023050320230503                                   2      ST-BL001       14500000153000000SERVIÇO DE REVISAO DE 60.000 KM                                                                                                                                                                                                                                                                                                                                                                                                                                                                                     0000000000000001000000000000000000000000000000000001000000000000000079800000000000000067830000000000000045000000000000000000000000000000000067830004100003133                 41~NF~2154               V1        
13133      2023050320230503                                   2      ST002          14500000153000000SERVIÇO DE REVISAO DE 60.000 KM                                                                                                                                                                                                                                                                                                                                                                                                                                                                                     0000000000000000500000000000000000000000000000000000500000000000000100800000000000000085680000000000000035000000000000000000000000000000000085680004100003133                 41~NF~2154               V1        
13134      2023050320230503AP        MECAN374                 5      M0111          16040000160500000Agenda Rapido                                                                                                                                                                                                                                                                                                                                                                                                                                                                                                       0000000000000003160000000000000000000000000000000003160000000000000663600000000000000655300000000000000000000000000000000000000000000000000655300004100003134                 41~NF~2153               V1        
13135      2023050320230503AP        MECAN375                 2      6440190        15580000160000000EXAMINAR FIVELA DO CINTO DE SEGURANÇA DESCOSTURANDO                                                                                                                                                                                                                                                                                                                                                                                                                                                                 0000000000000000600000000000000000000000000000000000600000000000000072860000000000000072860000000000000000000000000000000003640000000000000072860004100003135                 41~NF~2176               V2        
13136      2023050320230503AP        MECAN373                 12     TR006          16270000162800000TROCA DE OLEO.                                                                                                                                                                                                                                                                                                                                                                                                                                                                                                      0000000000000000200000000000000000000000000000000000200000000000000040000000000000000038460000000000000000000000000000000000000000000000000038460004100003136                 41~NF~2152               V1        
13137      2023050420230504AP        MECAN375                 12     TR015          08340000083500000SERVIÇO DE TROCA DE OLEO                                                                                                                                                                                                                                                                                                                                                                                                                                                                                            0000000000000000640000000000000000000000000000000000640000000000000049920000000000000049920000000000000000000000000000000000000000000000000049920004100003137                 41~NF~2157               V1        
13138      2023050420230504AP        MECAN372                 5      M0131          09070000090800000REVISAO DE 100.000 KM                                                                                                                                                                                                                                                                                                                                                                                                                                                                                               0000000000000001210000000000000000000000000000000001210000000000000254000000000000000254000000000000000000000000000000000000000000000000000254000004100003138                 41~NF~2158               V1        
13138      2023050420230504                                   2      ST-BL001       09000000090700000REVISAO DE 100.000 KM                                                                                                                                                                                                                                                                                                                                                                                                                                                                                               0000000000000001000000000000000000000000000000000001000000000000000060000000000000000060000000000000000040000000000000000000000000000000000060000004100003138                 41~NF~2158               V1        
13138      2023050420230504                                   2      ST002          09000000090700000REVISAO DE 100.000 KM                                                                                                                                                                                                                                                                                                                                                                                                                                                                                               0000000000000000500000000000000000000000000000000000500000000000000090000000000000000090000000000000000035000000000000000000000000000000000090000004100003138                 41~NF~2158               V1        
13139      2023050420230504                                   2      ST             10230000102500000SERVIÇO, VERIFICAR SUSPENSAO                                                                                                                                                                                                                                                                                                                                                                                                                                                                                        0000000000000001000000000000000000000000000000000001000000000000000040000000000000000040000000000000000020000000000000000000000000000000000040000004100003139                 41~NF~2159               V1        
13139      2023050420230504                                   2      ST-BL001       10230000102500000SERVIÇO, VERIFICAR SUSPENSAO                                                                                                                                                                                                                                                                                                                                                                                                                                                                                        0000000000000001000000000000000000000000000000000001000000000000000080000000000000000080000000000000000040000000000000000000000000000000000080000004100003139                 41~NF~2159               V1        
13139      2023050420230504                                   2      ST002          10230000102500000SERVIÇO, VERIFICAR SUSPENSAO                                                                                                                                                                                                                                                                                                                                                                                                                                                                                        0000000000000000500000000000000000000000000000000000500000000000000100000000000000000100000000000000000035000000000000000000000000000000000100000004100003139                 41~NF~2159               V1        
13139      2023050420230504AP        MECAN372                 2      8033140        10250000102600000SERVIÇO, VERIFICAR SUSPENSAO                                                                                                                                                                                                                                                                                                                                                                                                                                                                                        0000000000000000500000000000000000000000000000000000500000000000000105000000000000000105000000000000000000000000000000000000000000000000000105000004100003139                 41~NF~2159               V1        
13141      2023050420230504AP        MECAN375                 5      M0071          10260000102700000QUARTA REVISÃO PREVENTIVA                                                                                                                                                                                                                                                                                                                                                                                                                                                                                           0000000000000001420000000000000000000000000000000001420000000000000298200000000000000298200000000000000000000000000000000014910000000000000298200004100003141                 41~NF~2160               V1        
13143      2023050420230504AP        MECAN372                 2      1030430        13590000140500000Examinar inconformidade no porta-luva                                                                                                                                                                                                                                                                                                                                                                                                                                                                               0000000000000000300000000000000000000000000000000000300000000000000036430000000000000036430000000000000000000000000000000000000000000000000036430004100003143                 41~NF~2177               V2        
13144      2023050420230504AP        MECAN375                 5      M0061          14220000142300000TERCEIRA REVISÃO PREVENTIVA                                                                                                                                                                                                                                                                                                                                                                                                                                                                                         0000000000000001430000000000000000000000000000000001430000000000000300300000000000000300300000000000000000000000000000000000000000000000000300300004100003144                 41~NF~2162               V1        
13145      2023050420230508                                   9      ACC            14240000135900000ACC - TAPETES - TROCO                                                                                                                                                                                                                                                                                                                                                                                                                                                                                               0000000000000001000000000000000000000000000000000001000000000000000000000000000000000000000000000000000000000000000000000000000000000000000000000004100003145                                          V9        
13146      2023050420230504AP        MECAN373                 2      03             14550000145600000REVISÃO AOS 10.000 KM OU 1 ANO.                                                                                                                                                                                                                                                                                                                                                                                                                                                                                     0000000000000000500000000000000000000000000000000000500000000000000000000000000000000000000000000000000000000000000000000000000000000000000000000004100003146                                          V1        
13147      2023050420230508                                   9      ACC            14390000140000000ACC - TAPETES - TROCO                                                                                                                                                                                                                                                                                                                                                                                                                                                                                               0000000000000001000000000000000000000000000000000001000000000000000000000000000000000000000000000000000000000000000000000000000000000000000000000004100003147                                          V9        
13148      2023050420230504AP        MECAN373                 5      M0041          16040000160500000REVISÃO AOS 10.000 KM OU 1 ANO.                                                                                                                                                                                                                                                                                                                                                                                                                                                                                     0000000000000001000000000000000000000000000000000001000000000000000290810000000000000290810000000000000000000000000000000000000000000000000290810004100003148                                          D1        
13149      2023050420230504AP        MECAN373                 2      DIAG           16040000160500000SERVIÇO DE DIAGNOSTICO                                                                                                                                                                                                                                                                                                                                                                                                                                                                                              0000000000000000240000000000000000000000000000000000240000000000000050400000000000000050000000000000000000000000000000000002500000000000000050000004100003149                 41~NF~2163               V1        
13150      2023050520230505AP        MECAN373                 5      M0061          09170000091800000REVISÃO AOS 30.000 KM OU 3 ANOS.                                                                                                                                                                                                                                                                                                                                                                                                                                                                                    0000000000000002140000000000000000000000000000000002140000000000000449400000000000000449400000000000000000000000000000000000000000000000000449400004100003150                 41~NF~2165               V1        
13151      2023050520230505AP        MECAN372                 2      9100559        08140000081500000Filtro de Combustível - Inspeção e Eventual Substituição - IT 20G/2014                                                                                                                                                                                                                                                                                                                                                                                                                                              0000000000000000100000000000000000000000000000000000100000000000000012140000000000000012140000000000000000000000000000000000610000000000000012140004100003151                 41~NF~2173               V2        
13152      2023050520230505AP        MECAN374                 2      4485008        10100000103400000EXAMINAR BAIXO DESEMPENHO NO SISTEMA DE AC                                                                                                                                                                                                                                                                                                                                                                                                                                                                          0000000000000008600000000000000000020000000000000008580000000000000971520000000000000971520000000000000000000000000000000000000000000000000971520004100003152                 41~NF~2170               V2        
13153      2023050520230505AP        MECAN375                 5      M0091          08460000084700000SEXTA REVISÃO PREVENTIVA                                                                                                                                                                                                                                                                                                                                                                                                                                                                                            0000000000000001190000000000000000000000000000000001190000000000000249900000000000000249740000000000000000000000000000000012490000000000000249740004100003153                 41~NF~2193               V1        
13154      2023050520230508                                   9      ACC            09570000140000000ACC - TAPETE - TROCO                                                                                                                                                                                                                                                                                                                                                                                                                                                                                                0000000000000001000000000000000000000000000000000001000000000000000000000000000000000000000000000000000000000000000000000000000000000000000000000004100003154                                          V9        
13155      2023050520230508                                   9      ACC            09590000140000000ACC - FRISOS CROMADOS E PROTETOR - VENDA R$900,00                                                                                                                                                                                                                                                                                                                                                                                                                                                                   0000000000000001000000000000000000000000000000000001000000000000000000000000000000000000000000000000000000000000000000000000000000000000000000000004100003155                                          V9        
13156      2023050520230505AP        MECAN375                 5      M0071          10200000102100000QUARTA REVISÃO PREVENTIVA                                                                                                                                                                                                                                                                                                                                                                                                                                                                                           0000000000000001950000000000000000000000000000000001950000000000000409500000000000000374000000000000000000000000000000000000000000000000000374000004100003156                 41~NF~2168               V1        
13157      2023050520230505AP        MECAN372                 2      5430040        11380000113900000Examinar dificuldade na partida                                                                                                                                                                                                                                                                                                                                                                                                                                                                                     0000000000000000400000000000000000000000000000000000400000000000000048580000000000000048580000000000000000000000000000000002430000000000000048580004100003157                 41~NF~2172               V2        
13158      2023050520230505AP        MECAN374                 2      AAA71          15300000153100000SERVIÇO, VERIFICAR BARULHO NA PARTE DIANTEIRA DO CARRO                                                                                                                                                                                                                                                                                                                                                                                                                                                              0000000000000000010000000000000000000000000000000000010000000000000060000000000000000060000000000000000000000000000000000000000000000000000060000004100003158                 41~NF~2169               V1        
13159      2023050520230505AP        MECAN375                 2      03             14270000142800000PRIMEIRA REVISÃO PREVENTIVA                                                                                                                                                                                                                                                                                                                                                                                                                                                                                         0000000000000000500000000000000000000000000000000000500000000000000000000000000000000000000000000000000000000000000000000000000000000000000000000004100003159                                          V1        
13160      2023050520230505AP        MECAN375                 5      M0041          14280000142900000PRIMEIRA REVISÃO ESPECIAL                                                                                                                                                                                                                                                                                                                                                                                                                                                                                           0000000000000001000000000000000000000000000000000001000000000000000290810000000000000290810000000000000000000000000000000000000000000000000290810004100003160                                          D1        
13161      2023050520230505AP        MECAN372                 2      03             14570000145800000SUBST. BATERIA                                                                                                                                                                                                                                                                                                                                                                                                                                                                                                      0000000000000000500000000000000000000000000000000000500000000000000000000000000000000000000000000000000000000000000000000000000000000000000000000004100003161                                          V1        
13162      2023050520230505AP        MECAN373                 2      5430040        16090000161000000EXAMINAR DIFICULDADE  NA PARTIDA.                                                                                                                                                                                                                                                                                                                                                                                                                                                                                   0000000000000001000000000000000000000000000000000001000000000000000048580000000000000048580000000000000000000000000000000000000000000000000048580004100003162                 41~NF~2171               V2        
13163      2023050520230505AP        MECAN372                 2      0610653        16160000161700000REVISÃO DE ENTREGA                                                                                                                                                                                                                                                                                                                                                                                                                                                                                                  0000000000000149740000000000000000000000000000000149740000000000000158620000000000000158620000000000000000000000000000000000000000000000000158620004100003163                                          RE        
13164      2023050620230506AP        MECAN372                 2      0610653        07330000073400000REVISÃO DE ENTREGA                                                                                                                                                                                                                                                                                                                                                                                                                                                                                                  0000000000000000600000000000000000000000000000000000600000000000000158620000000000000158620000000000000000000000000000000000000000000000000158620004100003164                                          RE        
13165      2023050620230506AP        MECAN375                 5      M0071          08210000082200000QUARTA REVISÃO PREVENTIVA                                                                                                                                                                                                                                                                                                                                                                                                                                                                                           0000000000000001380000000000000000000000000000000001380000000000000289800000000000000289800000000000000000000000000000000000000000000000000289800004100003165                 41~NF~2181               V1        
13166      2023050620230506AP        MECAN374                 5      M0081          08220000082300000SERVIÇO, DE REVISAO DE 50MIL                                                                                                                                                                                                                                                                                                                                                                                                                                                                                        0000000000000000300000000000000000000000000000000000300000000000000063000000000000000060000000000000000000000000000000000000000000000000000060000004100003166                 41~NF~2174               V1        
13167      2023050620230508AP        MECAN373                 2      1035580        08330000084200000EXAMINAR IRREGULARIDADE NO CONSOLE DO TETO.                                                                                                                                                                                                                                                                                                                                                                                                                                                                         0000000000000000200000000000000002010000000000000001810000000000000024290000000000000024290000000000000000000000000000000000000000000000000024290004100003167                 41~NF~2213               V2        
13168      2023050620230508                                   9      ACC            08350000140000000acc - protetor - cortesia                                                                                                                                                                                                                                                                                                                                                                                                                                                                                           0000000000000001000000000000000000000000000000000001000000000000000000000000000000000000000000000000000000000000000000000000000000000000000000000004100003168                                          D9        
13169      2023050620230506                                   2      03             08490000092700000REVISÃO AOS 10.000 KM OU 1 ANO.                                                                                                                                                                                                                                                                                                                                                                                                                                                                                     0000000000000000500000000000000000000000000000000000500000000000000000000000000000000000000000000000000000000000000000000000000000000000000000000004100003169                                          V1        
13170      2023050620230506AP        MECAN373                 5      M0041          09550000095600000REVISÃO AOS 10.000 KM OU 1 ANO.                                                                                                                                                                                                                                                                                                                                                                                                                                                                                     0000000000000001000000000000000000000000000000000001000000000000000290810000000000000290810000000000000000000000000000000014540000000000000290810004100003170                 41~NF~2179               V3        
13171      2023050620230506AP        MECAN373                 2      03             09550000095600000REVISÃO AOS 10.000 KM OU 1 ANO.                                                                                                                                                                                                                                                                                                                                                                                                                                                                                     0000000000000000500000000000000000000000000000000000500000000000000000000000000000000000000000000000000000000000000000000000000000000000000000000004100003171                                          V1        
13172      2023050620230506AP        MECAN375                 2      TR011          09400000094100000SEXTA REVISÃO                                                                                                                                                                                                                                                                                                                                                                                                                                                                                                       0000000000000000200000000000000000000000000000000000200000000000000300000000000000000300000000000000000000000000000000000000000000000000000300000004100003172                 41~NF~2180               V1        
13173      2023050620230506AP        MECAN373                 5      M0041          10010000100200000REVISÃO AOS 10.000 KM OU 1 ANO.                                                                                                                                                                                                                                                                                                                                                                                                                                                                                     0000000000000001000000000000000000000000000000000001000000000000000290810000000000000290810000000000000000000000000000000014540000000000000290810004100003173                 41~NF~2178               V3        
13174      2023050620230506AP        MECAN372                 9      ACE            10570000105800000INSTALAÇÃO CAMERA DE RÉ E SENSOPR DE ESTACIONAMENTO                                                                                                                                                                                                                                                                                                                                                                                                                                                                 0000000000000001000000000000000000000000000000000001000000000000000200000000000000000200000000000000000000000000000000000000000000000000000200000004100003174                 41~NF~2182               V9        
13175      2023050620230506AP        MECAN372                 5      M0061          11030000110400000REVISÃO DE 30.000 KM                                                                                                                                                                                                                                                                                                                                                                                                                                                                                                0000000000000001480000000000000000000000000000000001480000000000000310000000000000000279000000000000000000000000000000000013950000000000000279000004100003175                 41~NF~2183               V1        
13176      2023050820230508AP        MECAN375                 5      M0061          08150000081600000TERCEIRA REVISÃO PREVENTIVA                                                                                                                                                                                                                                                                                                                                                                                                                                                                                         0000000000000000760000000000000000000000000000000000760000000000000159600000000000000159600000000000000000000000000000000000000000000000000159600004100003176                 41~NF~2185               V1        
13177      2023050820230508AP        MECAN374                 5      M0051          08420000084300000Agenda Rapido                                                                                                                                                                                                                                                                                                                                                                                                                                                                                                       0000000000000001400000000000000000000000000000000001400000000000000350000000000000000315000000000000000000000000000000000000000000000000000315000004100003177                 41~NF~2184               V1        
13178      2023050820230508                                   9      ACC            08310000140100000ACC - TAPETE - TROCO NATALIA                                                                                                                                                                                                                                                                                                                                                                                                                                                                                        0000000000000001000000000000000000000000000000000001000000000000000000000000000000000000000000000000000000000000000000000000000000000000000000000004100003178                                          V9        
13179      2023050820230508                                   9      ACC            08340000140100000ACC - SANTO ANTONIO CROMADO, NOME CHEVROLET E PROTETOR - VENDA                                                                                                                                                                                                                                                                                                                                                                                                                                                      0000000000000001000000000000000000000000000000000001000000000000000000000000000000000000000000000000000000000000000000000000000000000000000000000004100003179                                          V9        
13180      2023050820230508AP        MECAN375                 2      ML             08560000090300000EXAMINAR TRINCOS NA TELA DO MYLINK                                                                                                                                                                                                                                                                                                                                                                                                                                                                                  0000000000000000500000000000000000000000000000000000500000000000000451220000000000000451220000000000000000000000000000000022560000000000000451220004100003180                 41~NF~2212               V2        
13180      2023050820230508AP        MECAN375                 2      3430990        08540000085600000EXAMINAR TRINCOS NA TELA DO MYLINK                                                                                                                                                                                                                                                                                                                                                                                                                                                                                  0000000000000000300000000000000000000000000000000000300000000000000036430000000000000036430000000000000000000000000000000001820000000000000036430004100003180                 41~NF~2212               V2        
13181      2023050920230509AP        MECAN374                 2      4041510        14540000145500000VEICULO SEM PARTIDA                                                                                                                                                                                                                                                                                                                                                                                                                                                                                                 0000000000000000200000000000000000000000000000000000200000000000000024290000000000000024290000000000000000000000000000000000000000000000000024290004100003181                 41~NF~2245               V2        
13182      2023050820230508AP        MECAN373                 12     TR007          10440000104500000TROCA DE OLEO.                                                                                                                                                                                                                                                                                                                                                                                                                                                                                                      0000000000000000200000000000000000000000000000000000200000000000000060000000000000000060000000000000000000000000000000000000000000000000000060000004100003182                 41~NF~2187               V1        
13183      2023050820230508AP        MECAN375                 5      M0051          11160000111700000SEGUNDA REVISÃO PREVENTIVA                                                                                                                                                                                                                                                                                                                                                                                                                                                                                          0000000000000001400000000000000000000000000000000001400000000000000385000000000000000385000000000000000000000000000000000000000000000000000385000004100003183                 41~NF~2188               V1        
13183      2023050820230508                                   2      ST-BL001       11160000111700000SEGUNDA REVISÃO PREVENTIVA                                                                                                                                                                                                                                                                                                                                                                                                                                                                                          0000000000000001000000000000000000000000000000000001000000000000000080000000000000000080000000000000000040000000000000000000000000000000000080000004100003183                 41~NF~2188               V1        
13183      2023050820230508                                   2      ST002          11160000111700000SEGUNDA REVISÃO PREVENTIVA                                                                                                                                                                                                                                                                                                                                                                                                                                                                                          0000000000000000500000000000000000000000000000000000500000000000000100000000000000000100000000000000000035000000000000000000000000000000000100000004100003183                 41~NF~2188               V1        
13184      2023050820230508AP        MECAN373                 5      M0121          14150000141600000REVISÃO AOS 90.000 KM OU 9 ANOS.                                                                                                                                                                                                                                                                                                                                                                                                                                                                                    0000000000000001710000000000000000000000000000000001710000000000000359100000000000000359100000000000000000000000000000000000000000000000000359100004100003184                 41~NF~2189               V1        
13185      2023050820230508                                   9      ACC            14280000164000000ACC - TAPETES E PROTETOR - TROCO WALLESKA                                                                                                                                                                                                                                                                                                                                                                                                                                                                           0000000000000001000000000000000000000000000000000001000000000000000000000000000000000000000000000000000000000000000000000000000000000000000000000004100003185                                          V9        
13187      2023050820230508AP        MECAN375                 2      03             15370000153800000SERVIÇOS, EXAMINAR VEICULO CHEGOU SEM FUNCIONAR                                                                                                                                                                                                                                                                                                                                                                                                                                                                     0000000000000000500000000000000000000000000000000000500000000000000000000000000000000000000000000000000000000000000000000000000000000000000000000004100003187                                          V1        
13188      2023050820230508                                   5      M0051          15460000173400000REVISÃO AOS 20.000 KM OU 2 ANOS.                                                                                                                                                                                                                                                                                                                                                                                                                                                                                    0000000000000001400000000000000000000000000000000001400000000000000350700000000000000280560000000000000000000000000000000000000000000000000280560004100003188                 41~NF~2191               V1        
13189      2023050820230511                                   9      ACC            17060000093600000ACC - TAPETE - TROCO                                                                                                                                                                                                                                                                                                                                                                                                                                                                                                0000000000000001000000000000000000000000000000000001000000000000000000000000000000000000000000000000000000000000000000000000000000000000000000000004100003189                                          V9        
13190      2023050820230509                                   9      ACC            17080000153800000ACC - TAPETE DA MALA E PROTETOR DO CARTER - (FALTA FRISOS) VENDA                                                                                                                                                                                                                                                                                                                                                                                                                                                    0000000000000001000000000000000000000000000000000001000000000000000000000000000000000000000000000000000000000000000000000000000000000000000000000004100003190                                          V9        
13191      2023050920230509AP        MECAN373                 5      M0081          11200000112100000REVISÃO AOS 50.000 KM OU 5 ANOS.                                                                                                                                                                                                                                                                                                                                                                                                                                                                                    0000000000000001000000000000000000000000000000000001000000000000000210000000000000000208160000000000000000000000000000000010410000000000000208160004100003191                 41~NF~2195               V1        
13192      2023050920230509AP        MECAN375                 5      M0121          08080000080900000NOVA REVISÃO                                                                                                                                                                                                                                                                                                                                                                                                                                                                                                        0000000000000001430000000000000000000000000000000001430000000000000300300000000000000267870000000000000000000000000000000013390000000000000267870004100003192                 41~NF~2204               V1        
13193      2023050920230509AP        MECAN374                 5      M0071          09090000091000000SERVIÇO DA QUARTA REVISAO                                                                                                                                                                                                                                                                                                                                                                                                                                                                                           0000000000000001590000000000000000000000000000000001590000000000000333900000000000000333900000000000000000000000000000000000000000000000000333900004100003193                 41~NF~2194               V1        
13194      2023050920230509AP        MECAN372                 2      4412470        08530000111500000Examinar baixo desempenho do sistema de ar condicionado                                                                                                                                                                                                                                                                                                                                                                                                                                                             0000000000000008000000000000000000100000000000000007900000000000000971520000000000000971520000000000000000000000000000000000000000000000000971520004100003194                 41~NF~2214               V2        
13196      2023050920230509AP        MECAN373                 2      03             09370000093800000REVISÃO AOS 10.000 KM OU 1 ANO.                                                                                                                                                                                                                                                                                                                                                                                                                                                                                     0000000000000000500000000000000000000000000000000000500000000000000000000000000000000000000000000000000000000000000000000000000000000000000000000004100003196                                          V1        
