1576529    202302092023020920230515V6   1         9             1    40321     44564     9BGEB48A0NG1750422     RUTH                                  00001174507403000020000000020000104100001630000015340000001v6                                                                                                                                                                                                                                                                                                                                                                                                                                                                                                                  0000000000000000000000000000000000000000000020000000080000000000008939510000000000000644810000000000008294700000000000004526730000000000000000000000000000004526730000200576529                 QFG4B41     
1576530    202302092023020920230512V6   1                       1    40321     44564     9BGEB48A0NG1750422     RUTH                                  00001174507403000020000000020000104700001630000009520000000                                                                                                                                                                                                                                                                                                                                                                                                                                                                                                                    0000000000000000000000000000000000000000000030000000000000000000001723500000000000001723500000000000000000000000000000000000000000000000000000000000000000000000000000200576530                 QFG4B41     
1577206    202303012023030120230509V6   1         9             1    20070     44225     3GNCJ8EZ4KL1786842     RUTH                                  00015509893400000059110000059110160100001630000014070000001v6                                                                                                                                                                                                                                                                                                                                                                                                                                                                                                                  0000000000000000000000000000000000000000000010000000150000000000051056110000000000000000000000000000051056110000000000027830520000000000000000000000000000027830520000200577206                 QGR3A92     
1577326    202303062023030620230504V2   1                       1    40321     44362     9BGEP69H0LG2348952     RUTH                                  00041312872420000050551000050551084000000900000016510000000                                                                                                                                                                                                                                                                                                                                                                                                                                                                                                                    0000000000000000000000000000000000000000000040000000010000000000001887690000000000001319110000000000000568580000000000000346310000000000000284290000000000000062020000200577326                 QGX5D76     
1577526    202303102023031020230526V6   1         75            1    40315     43859     8AGBN68S0HR1302282     RUTH                                  00003336588413000046263000046263083900001630000017160000001v6                                                                                                                                                                                                                                                                                                                                                                                                                                                                                                                  0000000000000000000000000000000000000000000040000000140000000000044890130000000000003987500000000000040902630000000000018580570000000000000000000000000000018580570000200577526                 QGQ0283     
1577540    202303102023031020230512V6   1                       1    40321     44490     9BGEN48H0MG1242952     RUTH                                  00073775592415000056759000056759101700001630000015110000000                                                                                                                                                                                                                                                                                                                                                                                                                                                                                                                    0000000000000000000000000000000000000000000020000000000000000000002594000000000000002594000000000000000000000000000000000000000000000000000000000000000000000000000000200577540                 RGG5F39     
1577670    202303142023031420230502V2   1                       1    20        43110     9BG148LP0EC4367202     RUTH                                  00005098438403000325208000325208105100001630000007150000000                                                                                                                                                                                                                                                                                                                                                                                                                                                                                                                    0000000000000000000000000000000000000000000110000000060000000000010500570000000000008977910000000000001522660000000000000556830000000000000338830000000000000218000000200577670                 OWB2I14     
1577689    202303142023031420230509V6   1         1             1    40321     43783     9BGKS48U0HG2378342     RUTH                                  00001173139478000105795000105795162400001630000014010000001v6                                                                                                                                                                                                                                                                                                                                                                                                                                                                                                                  0000000000000000000000000000000000000000000070000000270000000000015377330000000000003472500000000000011904830000000000005608860000000000000000000000000000005608860000200577689                 QGS2413     
1577858    202303202023032020230515V1   1                       1    20070     44527     9BGEP76B0NB1189232     UBIRACY                               00091645522415000019228000019228141900001600000015280000000                                                                                                                                                                                                                                                                                                                                                                                                                                                                                                                    0000000000000000000000000000000000000000000030000000080000000000001261190000000000000410000000000000000851190000000000000378360000000000000123000000000000000255360000200577858                 RGK9A08     
1578002    202303222023032220230503V6   1                       1    40321     43909     9BGKL48U0JB1666452     RUTH                                  00067254330491000175794000175794152600001530000015550000000v6                                                                                                                                                                                                                                                                                                                                                                                                                                                                                                                  0000000000000000000000000000000000000000000010000000070000000000005421980000000000000000000000000000005421980000000000003162980000000000000000000000000000003162980000200578002                 QGS3680     
1578004    202303222023032220230509V6   1         52            1    40321     44475     9BGEB48A0MG1883732     RUTH                                  00010604090463000009789000009789153800001600000014100000001v6                                                                                                                                                                                                                                                                                                                                                                                                                                                                                                                  0000000000000000000000000000000000000000000020000000110000000000009573370000000000000588000000000000008985370000000000005230920000000000000000000000000000005230920000200578004                 RGE8D92     
1578006    202303222023032220230505V6   1                       1    40321     44475     9BGEB48A0MG1883732     RUTH                                  00010604090463000009789000009789154900001600000015170000000                                                                                                                                                                                                                                                                                                                                                                                                                                                                                                                    0000000000000000000000000000000000000000000030000000000000000000003192000000000000003192000000000000000000000000000000000000000000000000000000000000000000000000000000200578006                 RGE8D92     
1578025    202303232023032320230515V6   1         1             2    20327     44274     935SLHMZ1HB5137662     RUTH                                  00037949594420000084007000084007084400001630000015320000001v6                                                                                                                                                                                                                                                                                                                                                                                                                                                                                                                  0000000000000000000000000000000000000000000010000000060000000000019125000000000000000000000000000000019125000000000000010591200000000000000000000000000000010591200000200578025                 QGN5040     
1578027    202303232023032320230510V6   1                       2    20327     44274     935SLHMZ1HB5137662     RUTH                                  00037949594420000084007000084007085300001630000016280000000V6                                                                                                                                                                                                                                                                                                                                                                                                                                                                                                                  0000000000000000000000000000000000000000000030000000010000000000002695240000000000001600000000000000001095240000000000000353240000000000000000000000000000000353240000200578027                 QGN5040     
1578030    202303232023032320230524V6   1         53            5    120334    995228    9BWAG412XGT5032342     RUTH                                  00079204724404000096467000096467091700001630000011330000001                                                                                                                                                                                                                                                                                                                                                                                                                                                                                                                    0000000000000000000000000000000000000000000020000000020000000000001451980000000000000928000000000000000523980000000000000153480000000000000000000000000000000153480000200578030                 OWG0995     
1578031    202303232023032320230524V6   1                       5    120334    995228    9BWAG412XGT5032342     RUTH                                  00079204724404000096467000096467092500001630000015080000000                                                                                                                                                                                                                                                                                                                                                                                                                                                                                                                    0000000000000000000000000000000000000000000030000000000000000000002230000000000000002230000000000000000000000000000000000000000000000000000000000000000000000000000000200578031                 OWG0995     
1578084    202303242023032420230509V6   1         53            1    40321     43919     9BGKS48U0JG2213162     RUTH                                  00003207453414000056093000056093090000001630000013590000001v6                                                                                                                                                                                                                                                                                                                                                                                                                                                                                                                  0000000000000000000000000000000000000000000050000000290000000000028896230000000000005150000000000000023746230000000000012610590000000000000000000000000000012610590000200578084                 QGL6419     
1578090    202303242023032420230522V1   1         6             1    20309     44132     9BGKS69V0KG2982302     MARCIOR                               00018252389449000125549000125549103000001730000014550000001v6                                                                                                                                                                                                                                                                                                                                                                                                                                                                                                                  0000000000000000000000000000000000000000000110000000420000000000060667320000000000006208200000000000054459120000000000028546480000000000000000000000000000028546480000200578090                 QGW6A14     
1578093    202303242023032420230510V1   1         53            1    40321     44391     9BGEP48H0LG2352812     JOAOVP                                00007895689428000050101000050101103700001048000017350000001V6                                                                                                                                                                                                                                                                                                                                                                                                                                                                                                                  0000000000000000000000000000000000000000000010000000090000000000049067250000000000000000000000000000049067250000000000020955590000000000000000000000000000020955590000200578093                 RGH4I95     
1578138    202303272023032720230509D4   1                       1    40321     44588     9BGEB69A0PG1008572     MARCIOR                               02286479000108000010457000010457085600001200000008160000000                                                                                                                                                                                                                                                                                                                                                                                                                                                                                                                    0000000000000000000000000000000000000000000010000000030000000000000148030000000000000002690000000000000145340000000000000000000000000000000000000000000000000000000000200578138                 RUA9E20     
1578242    202303292023032920230515V6   1         10            1    40321     44474     9BGEB69H0MG1671152     RUTH                                  00065520319472000025434000025434095200001000000015410000001v6                                                                                                                                                                                                                                                                                                                                                                                                                                                                                                                  0000000000000000000000000000000000000000000050000000420000000000051976430000000000007019000000000000044957430000000000022398410000000000000000000000000000022398410000200578242                 RGG9G20     
1578244    202303292023032920230509V6   1                       1    40321     44474     9BGEB69H0MG1671152     RUTH                                  00065520319472000025434000025434101100001030000017260000000                                                                                                                                                                                                                                                                                                                                                                                                                                                                                                                    0000000000000000000000000000000000000000000010000000000000000000002173000000000000002173000000000000000000000000000000000000000000000000000000000000000000000000000000200578244                 RGG9G20     
1578246    202303292023032920230519V6   1         6             1    20070     44640     9BGEB76H0PB1449632     RUTH                                  00002656970423000014901000014901104000001100000008480000001V6                                                                                                                                                                                                                                                                                                                                                                                                                                                                                                                  0000000000000000000000000000000000000000000060000000290000000000027858690000000000006032000000000000021826690000000000012565920000000000000000000000000000012565920000200578246                 OJW6C66     
1578247    202303292023032920230508V6   1                       1    20070     44640     9BGEB76H0PB1449632     RUTH                                  00002656970423000014901000014901104200001100000017010000000                                                                                                                                                                                                                                                                                                                                                                                                                                                                                                                    0000000000000000000000000000000000000000000010000000020000000000009523470000000000000250000000000000009273470000000000004590640000000000000000000000000000004590640000200578247                 OJW6C66     
1578300    202303302023033020230520V6   1         72            1    20312     42970     8AGCN48X0BR2511482     RUTH                                  00046893270410000133272000133272101300001630000010140000001V6                                                                                                                                                                                                                                                                                                                                                                                                                                                                                                                  0000000000000000000000000000000000000000000040000000180000000000023320970000000000002491540000000000020829430000000000011031650000000000000000000000000000011031650000200578300                 NZH0122     
1578302    202303302023033020230517V6   1                       1    20312     42970     8AGCN48X0BR2511482     RUTH                                  00046893270410000133272000133272101600001630000016510000000                                                                                                                                                                                                                                                                                                                                                                                                                                                                                                                    0000000000000000000000000000000000000000000040000000000000000000002468460000000000002468460000000000000000000000000000000000000000000000000000000000000000000000000000200578302                 NZH0122     
1578332    202303312023033120230509V6   1         10            1    20070     44626     9BGEP76B0PB1741022     RUTH                                  00079077420487000012589000012589075600001630000013500000001v6                                                                                                                                                                                                                                                                                                                                                                                                                                                                                                                  0000000000000000000000000000000000000000000060000000330000000000039340490000000000004496000000000000034844490000000000017655390000000000000000000000000000017655390000200578332                 OJY3J50     
1578346    202303312023033120230524V6   1         53            1    40321     44365     9BGKL48U0HB1388782     RUTH                                  00007311668417000055127000055127085400001630000011240000001V6                                                                                                                                                                                                                                                                                                                                                                                                                                                                                                                  0000000000000000000000000000000000000000000060000000280000000000029560870000000000005003000000000000024557870000000000012665940000000000000000000000000000012665940000200578346                 PYK3002     
1578400    202303312023033120230530I2   1                       1    20147     21669     JANPR66PV710232532     CHARLES_OS                            08029092000144001003000001003000161000001630000017290000000                                                                                                                                                                                                                                                                                                                                                                                                                                                                                                                    0000000000000000000000000000000000000000000010000000150000000000000803780000000000000000000000000000000803780000000000000000000000000000000000000000000000000000000000200578400                 MXH9845     
1578418    202304012023040120230530V6   1                       1    20070     45122     8AGEP76B0PR1318342     RUTH                                  09114091000160000000011000000011084400000900000018170000000                                                                                                                                                                                                                                                                                                                                                                                                                                                                                                                    0000000000000000000000000000000000000000000020000000000000000000000400000000000000000400000000000000000000000000000000000000000000000000000000000000000000000000000000200578418                             
1578433    202304032023040320230502V2   1                       1    20070     44527     9BGEP76B0NB1858682     JOAOR                                 00009547926454000024939000024939080400001730000006480000000                                                                                                                                                                                                                                                                                                                                                                                                                                                                                                                    0000000000000000000000000000000000000000000010000000010000000000002537730000000000001807120000000000000730610000000000000000000000000000000000000000000000000000000000200578433                 RGM6B57     
1578461    202304032023040320230515V6   1         10            1    20070     44626     9BGEP76B0PB1379372     RUTH                                  00008985975447000007665000007665151300001530000015290000001v6                                                                                                                                                                                                                                                                                                                                                                                                                                                                                                                  0000000000000000000000000000000000000000000040000000310000000000035589290000000000004639190000000000030950100000000000015340020000000000000000000000000000015340020000200578461                 OJY2F87     
1578470    202304042023040420230510V2   1                       1    40320     44654     9BGJJ7520PB2218462     THIAGOM                               06291731000110000002722000002722075800001148000007110000000 V1 para V2                                                                                                                                                                                                                                                                                                                                                                                                                                                                                                         0000000000000000000000000000000000000000000020000000110000000000003004170000000000001539260000000000001464910000000000000076360000000000000000000000000000000076360000200578470                 OJW7E71     
1578514    202304042023040420230530V6   1                       1    40321     44636     9BGEN69H0PG2824992     RUTH                                  09114091000160000000011000000011113500001200000018180000000                                                                                                                                                                                                                                                                                                                                                                                                                                                                                                                    0000000000000000000000000000000000000000000010000000000000000000000250000000000000000250000000000000000000000000000000000000000000000000000000000000000000000000000000200578514                             
1578611    202304062023040620230502V6   1                       1    40321     44397     9BGEB48A0LG2353302     RUTH                                  00057030952472000070461000070461091600001630000011480000000v6                                                                                                                                                                                                                                                                                                                                                                                                                                                                                                                  0000000000000000000000000000000000000000000020000000100000000000012197720000000000000850000000000000011347720000000000006732490000000000000000000000000000006732490000200578611                 QGW6E97     
1578654    202304102023041020230503V6   1                       1    40321     44482     9BGEY48H0MG1920252     RUTH                                  00079218792415000020667000020667084100001630000011500000000                                                                                                                                                                                                                                                                                                                                                                                                                                                                                                                    0000000000000000000000000000000000000000000040000000000000000000002426940000000000002426940000000000000000000000000000000000000000000000000000000000000000000000000000200578654                 RGN1C76     
1578655    202304102023041020230522V6   1         10            1    20070     44450     9BGEX76H0MB1962102     RUTH                                  00004538272418000025625000025625084800001630000014430000001                                                                                                                                                                                                                                                                                                                                                                                                                                                                                                                    0000000000000000000000000000000000000000000060000000210000000000027863760000000000004646000000000000023217760000000000011465490000000000000000000000000000011465490000200578655                 RGE9H62     
1578672    202304102023041020230531D4   1                       1    40321     44623     9BGEA48A0PG2561422     PAULON                                00000842692436000003644000003644110200001148000016240000000                                                                                                                                                                                                                                                                                                                                                                                                                                                                                                                    0000000000000000000000000000000000000000000010000000010000000000000031490000000000000000000000000000000031490000000000000000000000000000000000000000000000000000000000200578672                 OJW3J73     
1578681    202304102023041020230502V2   1                       1    40321     44637     9BGEB48A0PG1133622     ROBSON                                00005556664412000009936000009936113500001200000006530000000                                                                                                                                                                                                                                                                                                                                                                                                                                                                                                                    0000000000000000000000000000000000000000000010000000010000000000002318780000000000001807120000000000000511660000000000000000000000000000000000000000000000000000000000200578681                 RGL4E94     
1578707    202304112023041120230502V2   1                       1    40321     44588     9BGEB48A0PG1594622     JOAOR                                 01487145000121000013469000013469080200000918000007300000000                                                                                                                                                                                                                                                                                                                                                                                                                                                                                                                    0000000000000000000000000000000000000000000010000000010000000000002861210000000000000293660000000000002567550000000000000000000000000000000000000000000000000000000000200578707                 RZO6E46     
1578712    202304112023041120230522V6   1         6             1    40321     43915     9BGKC48V0JG3171192     RUTH                                  00022175245420000021280000021280085700001630000014160000001v6                                                                                                                                                                                                                                                                                                                                                                                                                                                                                                                  0000000000000000000000000000000000000000000070000000110000000000012117690000000000005466500000000000006651190000000000002906970000000000000000000000000000002906970000200578712                 QGN0292     
1578713    202304112023041120230518V6   1                       1    40321     43915     9BGKC48V0JG3171192     RUTH                                  00022175245420000021280000021280090500001630000011580000000v6                                                                                                                                                                                                                                                                                                                                                                                                                                                                                                                  0000000000000000000000000000000000000000000020000000010000000000004161610000000000000500000000000000003661610000000000001985860000000000000000000000000000001985860000200578713                 QGN0292     
1578757    202304112023041120230502V6   1                       1    40321     44129     9BGKS48U0KG4971812     RUTH                                  00000790735490000051579000051579165100001700000010440000000v6                                                                                                                                                                                                                                                                                                                                                                                                                                                                                                                  0000000000000000000000000000000000000000000030000000010000000000003272820000000000001233150000000000002039670000000000001121820000000000000000000000000000001121820000200578757                 QGW2H49     
1578759    202304122023041220230502V2   1                       1    20        44545     9BG148DK0NC4240602     THIAGOM                               03446400000385000066689000066689074200000930000006560000000 V1 para V2                                                                                                                                                                                                                                                                                                                                                                                                                                                                                                         0000000000000000000000000000000000000000000010000000010000000000005991840000000000001156700000000000004835140000000000000114300000000000000114300000000000000000000000200578759                 RGK9G47     
1578837    202304142023041420230512V1   1                       1    2         43225     8AGSU19F0FR1366822     JGERALDO                              00001186810440000050124000050124074400000800000009480000000                                                                                                                                                                                                                                                                                                                                                                                                                                                                                                                    0000000000000000000000000000000000000000000010000000010000000000001390000000000000000000000000000000001390000000000000000730000000000000000000000000000000000730000000200578837                 QFL2J20     
1578857    202304142023041420230503V2   1                       1    22        44516     9BG156FK0NC4016642     ROBSON                                00394494011847000034134000034134110300001130000007560000000                                                                                                                                                                                                                                                                                                                                                                                                                                                                                                                    0000000000000000000000000000000000000000000010000000010000000000000440340000000000000000000000000000000440340000000000000000000000000000000000000000000000000000000000200578857                 RGK4H25     
1578872    202304142023041420230523V2   1                       1    40321     44360     9BGEB69A0LG1418812     MARCIOR                               00021621152472000036125000036125163200001800000014080000000                                                                                                                                                                                                                                                                                                                                                                                                                                                                                                                    0000000000000000000000000000000000000000000010000000010000000000000279970000000000000045180000000000000234790000000000000000000000000000000000000000000000000000000000200578872                 RGN2G18     
1578913    202304172023041720230502V2   1                       1    40321     24575     9BGEB48H0MG2089642     MARCIOR                               00006151440471000023194000023194082300001700000008010000000                                                                                                                                                                                                                                                                                                                                                                                                                                                                                                                    0000000000000000000000000000000000000000000010000000010000000000002318780000000000001807120000000000000511660000000000000000000000000000000000000000000000000000000000200578913                 RGG0E61     
1578920    202304172023041720230509V6   1         10            1    20070     44632     9BGEX76H0PB2275872     RUTH                                  42131592000120000000791000000791091000001630000013530000001v6                                                                                                                                                                                                                                                                                                                                                                                                                                                                                                                  0000000000000000000000000000000000000000000050000000050000000000005105560000000000001296000000000000003809560000000000001819370000000000000000000000000000001819370000200578920                 OJY8J91     
1578930    202304172023041720230517V2   1                       1    40321     43909     9BGKL48U0JB2448582     RUTH                                  00023010304404000132602000132602110000001130000009200000000 V1 para V2                                                                                                                                                                                                                                                                                                                                                                                                                                                                                                         0000000000000000000000000000000000000000000050000000040000000000002801020000000000002268710000000000000532310000000000000304430000000000000233800000000000000070630000200578930                 QGZ8873     
1578974    202304182023041820230522V6   1         6             1    20309     44132     9BGKS69V0KG2982302     RUTH                                  00018252389449000125549000125549091400001630000014530000001                                                                                                                                                                                                                                                                                                                                                                                                                                                                                                                    0000000000000000000000000000000000000000000010000000000000000000001200000000000000001200000000000000000000000000000000000000000000000000000000000000000000000000000000200578974                 QGW6A14     
1578975    202304182023041820230517V2   1                       1    40321     44631     9BGEB48A0PG2818662     RUTH                                  08029092000225000000010000000010092100001330000010050000000                                                                                                                                                                                                                                                                                                                                                                                                                                                                                                                    0000000000000000000000000000000000000000000010000000020000000000002040540000000000000293660000000000001746880000000000000064490000000000000000000000000000000064490000200578975                             
1578978    202304182023041820230517V6   1                       1    20309     44132     9BGKS69V0KG2982302     RUTH                                  00018252389449000125549000125549092600001630000010380000000V6                                                                                                                                                                                                                                                                                                                                                                                                                                                                                                                  0000000000000000000000000000000000000000000030000000050000000000004540760000000000000800000000000000003740760000000000001593930000000000000000000000000000001593930000200578978                 QGW6A14     
1578979    202304182023041820230515V6   1         50            1    40321     44621     9BGEN69H0PG1402292     RUTH                                  00076175499468000024239000024239093000001630000015250000001v6                                                                                                                                                                                                                                                                                                                                                                                                                                                                                                                  0000000000000000000000000000000000000000000010000000110000000000007930440000000000000000000000000000007930440000000000003023220000000000000000000000000000003023220000200578979                 OJW6J74     
1578980    202304182023041820230513V6   1                       1    40321     44621     9BGEN69H0PG1402292     RUTH                                  00076175499468000024239000024239093600001630000010350000000v6                                                                                                                                                                                                                                                                                                                                                                                                                                                                                                                  0000000000000000000000000000000000000000000040000000100000000000011449790000000000003500000000000000007949790000000000004116590000000000000000000000000000004116590000200578980                 OJW6J74     
1578983    202304182023041820230530V6   1                       1    40321     44619     9BGEB69A0PG2941932     RUTH                                  09114091000160000000010000000010100700001630000018180000000                                                                                                                                                                                                                                                                                                                                                                                                                                                                                                                    0000000000000000000000000000000000000000000010000000000000000000000084000000000000000084000000000000000000000000000000000000000000000000000000000000000000000000000000200578983                             
1578989    202304182023041820230524D4   1                       1    40320     44541     9BGJP7520PB1681912     MARCIOR                               08309536000103000035464000035464105800001200000015030000000ORDEM DE COMPRA 1.197/2023 N PROCESSO 1.984/2023  PR EMPENHO 238 SOLICITAO 249  ORDEM DE SERVIO                                                                                                                                                                                                                                                                                                                                                                                                                0000000000000000000000000000000000000000000010000000010000000000000012430000000000000000000000000000000012430000000000000000000000000000000000000000000000000000000000200578989                 RGN6H67     
1578996    202304182023041820230519V6   1         28            1    40321     44660     9BGEB69H0PG2602082     RUTH                                  09114091000160000000011000000011143300001500000009350000001AVARIA DE CARRETA                                                                                                                                                                                                                                                                                                                                                                                                                                                                                                   0000000000000000000000000000000000000000000010000000000000000000000348000000000000000348000000000000000000000000000000000000000000000000000000000000000000000000000000200578996                 FXM0F61     
1579033    202304192023041920230517V6   1                       1    20070     45116     9BGEB76H0PB2497462     RUTH                                  09114091000160000000011000000011093800001000000016330000000                                                                                                                                                                                                                                                                                                                                                                                                                                                                                                                    0000000000000000000000000000000000000000000010000000000000000000000167000000000000000167000000000000000000000000000000000000000000000000000000000000000000000000000000200579033                             
1579036    202304192023041920230517V6   1                       1    40320     44654     9BGJJ7520PB1437342     RUTH                                  09114091000160000026120000026120101500001030000016340000000                                                                                                                                                                                                                                                                                                                                                                                                                                                                                                                    0000000000000000000000000000000000000000000010000000000000000000000167000000000000000167000000000000000000000000000000000000000000000000000000000000000000000000000000200579036                 OJY9H99     
1579042    202304192023041920230517V6   1                       1    20070     44633     9BGEN76H0PB2486792     RUTH                                  09114091000160000000012000000012114700001200000016350000000                                                                                                                                                                                                                                                                                                                                                                                                                                                                                                                    0000000000000000000000000000000000000000000010000000000000000000000084000000000000000084000000000000000000000000000000000000000000000000000000000000000000000000000000200579042                             
1579053    202304192023041920230515V6   1                       1    40321     44389     9BGEN48H0LG1849222     RUTH                                  00008566283449000026493000026493143900001500000015360000000                                                                                                                                                                                                                                                                                                                                                                                                                                                                                                                    0000000000000000000000000000000000000000000030000000020000000000002967250000000000000200000000000000002767250000000000000685750000000000000000000000000000000685750000200579053                 QGX3B65     
1579062    202304202023042020230504V2   1                       1    20070     44531     9BGEP76B0NB1627432     THIAGOM                               31803909000101000019728000019728074600001418000010480000000                                                                                                                                                                                                                                                                                                                                                                                                                                                                                                                    0000000000000000000000000000000000000000000010000000010000000000002537730000000000001807120000000000000730610000000000000000000000000000000000000000000000000000000000200579062                 RGG4H72     
1579091    202304202023042020230511SF   1                       1    20309     44134     9BGKT69V0KG3914422     JOELDESF                              08029092000144000081992000081992142500001430000011230000000                                                                                                                                                                                                                                                                                                                                                                                                                                                                                                                    0000000000000000000000000000000000000000000010000000000000000000000500000000000000000500000000000000000000000000000000000000000000000000000000000000000000000000000000200579091                 QGW7C59     
1579124    202304222023042220230510V2   1                       1    40321     44570     9BGEN69H0MG1282382     JGERALDO                              16670085000155000042141000042141104900001118000015580000000                                                                                                                                                                                                                                                                                                                                                                                                                                                                                                                    0000000000000000000000000000000000000000000010000000020000000000000959350000000000000813200000000000000146150000000000000014210000000000000000000000000000000014210000200579124                 RFX2J30     
1579128    202304242023042420230517VF   1                       1    20070     44450     9BGEX76H0MB1962102     CHARLES_OS                            00004538272418000025625000025625074700001500000009140000000                                                                                                                                                                                                                                                                                                                                                                                                                                                                                                                    0000000000000000000000000000000000000000000010000000000000000000000100000000000000000100000000000000000000000000000000000000000000000000000000000000000000000000000000200579128                 RGE9H62     
1579159    202304242023042420230519V2   1                       1    20070     44436     9BGEP76B0MB2215312     RUTH                                  00006737373496000045892000045892112200001130000016430000000                                                                                                                                                                                                                                                                                                                                                                                                                                                                                                                    0000000000000000000000000000000000000000000020000000000000000000000633650000000000000633650000000000000000000000000000000061910000000000000061910000000000000000000000200579159                 RGH0H07     
1579161    202304242023042420230505V2   1                       1    40320     44643     9BGJP7520PB1221692     JGERALDO                              00000926583425000038174000038174114600001800000009290000000                                                                                                                                                                                                                                                                                                                                                                                                                                                                                                                    0000000000000000000000000000000000000000000010000000020000000000002636610000000000000067770000000000002568840000000000000000000000000000000000000000000000000000000000200579161                 RGM7G03     
1579171    202304242023042420230505V2   1                       1    40316     43797     9BGJC6920HB1404622     MARCIOR                               00003503428496000156499000156499144400001730000011010000000 V1 para V2                                                                                                                                                                                                                                                                                                                                                                                                                                                                                                         0000000000000000000000000000000000000000000010000000010000000000001044880000000000000112940000000000000931940000000000000051720000000000000000000000000000000051720000200579171                 QGJ6358     
1579185    202304252023042520230519V6   1         41            1    40320     44506     9BGJP7520MB1624082     RUTH                                  00053087534749000031005000031005075300000830000009390000001V6                                                                                                                                                                                                                                                                                                                                                                                                                                                                                                                  0000000000000000000000000000000000000000000040000000110000000000014847870000000000003152420000000000011695450000000000005494010000000000000000000000000000005494010000200579185                 RLS7C80     
1579186    202304252023042520230519V6   1                       1    40320     44506     9BGJP7520MB1624082     RUTH                                  00053087534749000031005000031005075500000830000010350000000                                                                                                                                                                                                                                                                                                                                                                                                                                                                                                                    0000000000000000000000000000000000000000000010000000000000000000003133580000000000003133580000000000000000000000000000000000000000000000000000000000000000000000000000200579186                 RLS7C80     
1579187    202304252023042520230504V2   1                       1    20070     44528     9BGEY76H0NB1261032     MARCIOR                               00017585384491000022900000022900080300001730000009490000000                                                                                                                                                                                                                                                                                                                                                                                                                                                                                                                    0000000000000000000000000000000000000000000010000000010000000000002537730000000000001807120000000000000730610000000000000000000000000000000000000000000000000000000000200579187                 RGI9J17     
1579193    202304252023042520230522V6   1         53            1    40321     44475     9BGEB48H0NG1309962     RUTH                                  00010962865486000019713000019713082500001630000014070000001v6                                                                                                                                                                                                                                                                                                                                                                                                                                                                                                                  0000000000000000000000000000000000000000000020000000160000000000019652270000000000000329000000000000019323270000000000010973570000000000000000000000000000010973570000200579193                 RLU7C67     
1579194    202304252023042520230523V6   1                       1    40321     44475     9BGEB48H0NG1309962     RUTH                                  00010962865486000019713000019713082900001630000015340000000                                                                                                                                                                                                                                                                                                                                                                                                                                                                                                                    0000000000000000000000000000000000000000000030000000000000000000002626000000000000002626000000000000000000000000000000000000000000000000000000000000000000000000000000200579194                 RLU7C67     
1579201    202304252023042520230524V9   1                       1    20270     45155     9BGEB43B0PB2421442     NATHALIA                              00022232010406000000010000000010085900001700000012080000000                                                                                                                                                                                                                                                                                                                                                                                                                                                                                                                    0000000000000000000000000000000000000000000010000000030000000000005300000000000000000000000000000000005300000000000000000000000000000000000000000000000000000000000000200579201                             
1579205    202304252023042520230506VF   1                       1    20309     44133     9BGKS69V0KG3234932     CHARLES_OS                            24532251000185000086162000086162092500000930000010560000000                                                                                                                                                                                                                                                                                                                                                                                                                                                                                                                    0000000000000000000000000000000000000000000030000000000000000000000780000000000000000780000000000000000000000000000000000000000000000000000000000000000000000000000000200579205                 QGY3G22     
1579224    202304252023042520230504V2   1                       1    20070     44527     9BGEP76B0NB1839652     JOAOVP                                00007765048430000046665000046665142600001730000010090000000                                                                                                                                                                                                                                                                                                                                                                                                                                                                                                                    0000000000000000000000000000000000000000000010000000010000000000002537730000000000001807120000000000000730610000000000000000000000000000000000000000000000000000000000200579224                 RGK9D73     
1579228    202304252023042520230525V2   1                       1    40321     44631     9BGEB48A0PG2430072     MARCIOR                               00080720293472000006159000006159154500001218000007130000000                                                                                                                                                                                                                                                                                                                                                                                                                                                                                                                    0000000000000000000000000000000000000000000020000000040000000000001455620000000000000858380000000000000597240000000000000000000000000000000000000000000000000000000000200579228                 RQB7D88     
1579235    202304262023042620230519V6   1         72            1    40321     44390     9BGEB69A0LG2274772     RUTH                                  00088628825800000089236000089236075700000830000008420000001V6                                                                                                                                                                                                                                                                                                                                                                                                                                                                                                                  0000000000000000000000000000000000000000000040000000090000000000007403230000000000000949290000000000006453940000000000002641390000000000000000000000000000002641390000200579235                 QGW4C56     
1579237    202304262023042620230518V6   1                       1    40321     44390     9BGEB69A0LG2274772     RUTH                                  00088628825800000089236000089236080300000830000016250000000                                                                                                                                                                                                                                                                                                                                                                                                                                                                                                                    0000000000000000000000000000000000000000000020000000000000000000002790710000000000002790710000000000000000000000000000000000000000000000000000000000000000000000000000200579237                 QGW4C56     
1579260    202304262023042620230509V2   1                       1    20        44458     9BG148MK0MC4232952     JGERALDO                              00000147754844000065876000065876102900001800000015220000000                                                                                                                                                                                                                                                                                                                                                                                                                                                                                                                    0000000000000000000000000000000000000000000010000000020000000000002681050000000000000406600000000000002274450000000000000373100000000000000000000000000000000373100000200579260                 RGE7D22     
1579266    202304262023042620230505V1   1                       1    40321     44397     9BGEB48A0LG2808272     LUISC                                 00044806477400000037001000037001113800001030000010260000000                                                                                                                                                                                                                                                                                                                                                                                                                                                                                                                    0000000000000000000000000000000000000000000010000000010000000000001953300000000000000950000000000000001003300000000000000353300000000000000000000000000000000353300000200579266                 QGY6I47     
1579267    202304262023042620230505SF   1                       1    20309     43918     9BGKT69V0JG1301292     JOELDESF                              08029092000144000039928000039928114300001200000013420000000                                                                                                                                                                                                                                                                                                                                                                                                                                                                                                                    0000000000000000000000000000000000000000000010000000000000000000000850000000000000000850000000000000000000000000000000000000000000000000000000000000000000000000000000200579267                 QGZ7596     
1579269    202304262023042620230505SF   1                       6    20149     124583    9BD341A5XLY6464762     JOELDESF                              08029092000144000009406000009406123800001300000013430000000                                                                                                                                                                                                                                                                                                                                                                                                                                                                                                                    0000000000000000000000000000000000000000000010000000000000000000000500000000000000000500000000000000000000000000000000000000000000000000000000000000000000000000000000200579269                 QGX2H79     
1579271    202304262023042620230508SN   1                       1    20070     44039     3GNDJ8CZ0JL2640152     JOELDESF                              08029092000144000037762000037762134600001400000012380000000VERIFICAR VIDA UTIL DO OLEO VERIFICAR SUSPENAO E FREIOS DO VEICULO                                                                                                                                                                                                                                                                                                                                                                                                                                                 0000000000000000000000000000000000000000000010000000030000000000000137470000000000000000000000000000000137470000000000000000000000000000000000000000000000000000000000200579271                 QGO5088     
1579273    202304262023042620230505V2   1                       1    20070     44438     9BGEP76B0MB1110762     JOAOVP                                00042246458404000027909000027909141400001718000008480000000                                                                                                                                                                                                                                                                                                                                                                                                                                                                                                                    0000000000000000000000000000000000000000000010000000010000000000002537730000000000001807120000000000000730610000000000000000000000000000000000000000000000000000000000200579273                 QGY4G07     
1579290    202304262023042620230503V9   1                       1    20270     45146     9BGEN43B0PB2515792     NATHALIA                              00007994785476000000010000000010144900001730000016300000000                                                                                                                                                                                                                                                                                                                                                                                                                                                                                                                    0000000000000000000000000000000000000000000010000000010000000000003419000000000000000000000000000000003419000000000000000000000000000000000000000000000000000000000000200579290                             
1579292    202304262023042620230502V1   1                       1    20        44465     9BG148FK0MC4106812     ALYSONM                               24517641000186000063338000063338150400001800000010260000000                                                                                                                                                                                                                                                                                                                                                                                                                                                                                                                    0000000000000000000000000000000000000000000030000000090000000000006031560000000000000883260000000000005148300000000000001785560000000000000035140000000000001750420000200579292                 RGG0E58     
1579293    202304262023042620230523V2   1                       1    20070     44527     9BGEP76B0MB1122072     THIAGOM                               00007294399921000115280000115280152400001718000008160000000 V1 para V2                                                                                                                                                                                                                                                                                                                                                                                                                                                                                                         0000000000000000000000000000000000000000000020000000000000000000001053280000000000001053280000000000000000000000000000000000000000000000000000000000000000000000000000200579293                 RKK1A64     
1579296    202304262023042620230505SF   1                       1    20        44116     9BG148MK0KC4164092     JOELDESF                              08029092000144000063877000063877155100001600000013410000000                                                                                                                                                                                                                                                                                                                                                                                                                                                                                                                    0000000000000000000000000000000000000000000010000000000000000000000200000000000000000200000000000000000000000000000000000000000000000000000000000000000000000000000000200579296                 QGR6799     
1579297    202304262023042620230502V1   1                       1    40321     43256     9BGKS48B0EG3324452     ROBSON                                00032842767420000092767000092767160300001630000016440000000                                                                                                                                                                                                                                                                                                                                                                                                                                                                                                                    0000000000000000000000000000000000000000000020000000110000000000001888300000000000000809000000000000001079300000000000000000000000000000000000000000000000000000000000200579297                 OWC1511     
1579299    202304262023042620230530V2   1                       1    20        44465     9BG148FK0MC4106812     ALYSONM                               24517641000186000063338000063338170400001800000011140000000                                                                                                                                                                                                                                                                                                                                                                                                                                                                                                                    0000000000000000000000000000000000000000000010000000020000000000002307950000000000000406600000000000001901350000000000000000000000000000000000000000000000000000000000200579299                 RGG0E58     
1579301    202304262023042620230508SF   1                       1    40321     43909     9BGKL48U0JB2745232     JOELDESF                              08029092000144000039910000039910171000001730000015560000000                                                                                                                                                                                                                                                                                                                                                                                                                                                                                                                    0000000000000000000000000000000000000000000010000000000000000000001700000000000000001700000000000000000000000000000000000000000000000000000000000000000000000000000000200579301                 QGM7066     
1579308    202304272023042720230509D1   1                       1    20070     44640     9BGEB76H0PB1812022     PAULON                                00083814108434000010009000010009082800000918000008160000000                                                                                                                                                                                                                                                                                                                                                                                                                                                                                                                    0000000000000000000000000000000000000000000010000000030000000000000185150000000000000000000000000000000185150000000000000000000000000000000000000000000000000000000000200579308                 RGL1I89     
1579312    202304272023042720230508V2   1                       1    20070     44527     9BGEP76B0NB1858682     JOAOR                                 00009547926454000025489000025489085400001230000016010000000                                                                                                                                                                                                                                                                                                                                                                                                                                                                                                                    0000000000000000000000000000000000000000000010000000010000000000003025970000000000000293660000000000002732310000000000000000000000000000000000000000000000000000000000200579312                 RGM6B57     
1579313    202304272023042720230531V6   1                       3    20148     21193     9BFZH55L0M80780782     RUTH                                  24532251000185000026025000026025091200001630000016040000000                                                                                                                                                                                                                                                                                                                                                                                                                                                                                                                    0000000000000000000000000000000000000000000020000000000000000000000230000000000000000230000000000000000000000000000000000000000000000000000000000000000000000000000000200579313                 RGG8A88     
1579316    202304272023042720230531V6   1                       3    20148     21193     9BFZH55L0M80780782     RUTH                                  24532251000185000026025000026025092100001630000016110000000                                                                                                                                                                                                                                                                                                                                                                                                                                                                                                                    0000000000000000000000000000000000000000000030000000000000000000001570000000000000001570000000000000000000000000000000000000000000000000000000000000000000000000000000200579316                 RGG8A88     
1579317    202304272023042720230512V2   1                       1    20        45131     9BG148DK0PC4355942     MARCIOR                               03446400000385000009889000009889092200001230000014080000000                                                                                                                                                                                                                                                                                                                                                                                                                                                                                                                    0000000000000000000000000000000000000000000010000000000000000000000502300000000000000502300000000000000000000000000000000000000000000000000000000000000000000000000000200579317                 RGM9E20     
1579322    202304272023042720230510V2   1                       1    40321     44564     9BGEB48A0NG1883302     ROBSON                                00091617570478000009321000009321094100001000000016420000000                                                                                                                                                                                                                                                                                                                                                                                                                                                                                                                    0000000000000000000000000000000000000000000010000000010000000000000200510000000000000045180000000000000155330000000000000000000000000000000000000000000000000000000000200579322                 RGL9H48     
1579325    202304272023042720230530V6   1         1             1    40320     44459     9BGJP7520MB1902582     RUTH                                  16528677000307000029816000029816102200001630000016440000001v6                                                                                                                                                                                                                                                                                                                                                                                                                                                                                                                  0000000000000000000000000000000000000000000020000000200000000000017666180000000000000441800000000000017224380000000000008595240000000000000000000000000000008595240000200579325                 QYQ4E04     
1579326    202304272023042720230530V6   1                       1    40320     44459     9BGJP7520MB1902582     RUTH                                  16528677000307000029816000029816102700001630000015070000000                                                                                                                                                                                                                                                                                                                                                                                                                                                                                                                    0000000000000000000000000000000000000000000040000000000000000000002888200000000000002888200000000000000000000000000000000000000000000000000000000000000000000000000000200579326                 QYQ4E04     
1579328    202304272023042720230511V2   1                       1    40320     44289     9BGJD7520MB1174252     PAULON                                04819323000162000051320000051320103900001230000009520000000                                                                                                                                                                                                                                                                                                                                                                                                                                                                                                                    0000000000000000000000000000000000000000000020000000020000000000001425810000000000000203310000000000001222500000000000000000000000000000000000000000000000000000000000200579328                 QZW4B67     
1579329    202304272023042720230519V6   1         1             1    40321     43791     9BGKS48V0HG1755192     RUTH                                  00027388794468000072450000072450103900001630000009070000001V6                                                                                                                                                                                                                                                                                                                                                                                                                                                                                                                  0000000000000000000000000000000000000000000020000000020000000000004994650000000000000334000000000000004660650000000000002422690000000000000000000000000000002422690000200579329                 QGM6141     
1579330    202304272023042720230516V6   1                       1    40321     43791     9BGKS48V0HG1755192     RUTH                                  00027388794468000072450000072450104200001630000015440000000                                                                                                                                                                                                                                                                                                                                                                                                                                                                                                                    0000000000000000000000000000000000000000000040000000000000000000002166000000000000002166000000000000000000000000000000000000000000000000000000000000000000000000000000200579330                 QGM6141     
1579331    202304272023042720230503V6   1                       1    20070     44438     9BGEP76B0MB1117892     RUTH                                  00002732210439000017456000017456104400001100000015360000000v6                                                                                                                                                                                                                                                                                                                                                                                                                                                                                                                  0000000000000000000000000000000000000000000040000000010000000000001307360000000000000888960000000000000418400000000000000281360000000000000072160000000000000209200000200579331                 RGF4A55     
1579343    202304272023042720230508SF   1                       6    20149     125831    9BD358A7HLYK413962     JOELDESF                              08029092000144000028973000028973165400001700000010380000000                                                                                                                                                                                                                                                                                                                                                                                                                                                                                                                    0000000000000000000000000000000000000000000010000000000000000000000750000000000000000750000000000000000000000000000000000000000000000000000000000000000000000000000000200579343                 QGY4G77     
1579350    202304282023042820230530V6   1                       1    40321     45176     9BGEB48H0RG1013882     RUTH                                  09114091000160000000011000000011082900000900000018180000000                                                                                                                                                                                                                                                                                                                                                                                                                                                                                                                    0000000000000000000000000000000000000000000010000000000000000000000084000000000000000084000000000000000000000000000000000000000000000000000000000000000000000000000000200579350                             
1579369    202304282023042820230508SF   1                       1    120333    124406    9BGKS48V0KG4492272     JOELDESF                              08029092000144000029066000029066100300001030000010390000000                                                                                                                                                                                                                                                                                                                                                                                                                                                                                                                    0000000000000000000000000000000000000000000010000000000000000000000950000000000000000950000000000000000000000000000000000000000000000000000000000000000000000000000000200579369                 QGQ9D46     
1579375    202304282023042820230504V1   1                       1    40320     44320     9BGJG7520LB1110942     ROBSON                                33541368003646000059154000059154111200001130000017170000000                                                                                                                                                                                                                                                                                                                                                                                                                                                                                                                    0000000000000000000000000000000000000000000040000000110000000000002917870000000000000778700000000000002139170000000000000592990000000000000000000000000000000592990000200579375                 QYE8594     
