2023050212            12     HERIANEC            02899421            02899421 12~192391~0                   S0000000000000001000000000000000008470
2023051012            12     HERIANEC            05485091            05485091 12~192758~0                   S0000000000000001000000000000000059050
2023052912            12     DCRUZ               05485091            05485091 12~193559~0                   S0000000000000001000000000000000059050
2023051712            12     ECASSIANO           0890100440                   12~970877                     E0000000000000012000000000000000544440
2023051612            12     DDONATO             09130913            09130913 12~192984~0                   S0000000000000004000000000000000062000
2023050512            12     DGALVAO             09598708            09598708 12~192579~0                   S0000000000000005000000000000000053550
2023051012            12     ECASSIANO           09598708            09598708 12~969958                     E0000000000000010000000000000000105000
2023051312            12     JONATHAN1           09598708            09598708 12~192900~0                   S0000000000000001000000000000000010500
2023052212            12     ECASSIANO           10129                        12~971494                     E0000000000000010000000000000001545800
2023052412            12     JONATHAN1           10129                        12~193374~0                   S0000000000000001000000000000000154580
2023050312            12     DDONATO             103001                       12~192459~0                   S0000000000000012000000000000000231120
2023051612            12     JONATHAN1           103001                       12~192998~0                   S0000000000000001000000000000000019260
2023051712            12     AGOMES              103001                       12~193070~0                   S0000000000000002000000000000000038520
2023052612            12     JONATHAN1           103001                       12~193505~0                   S0000000000000002000000000000000038520
2023052612            12     JONATHAN1           103004                       12~193505~0                   S0000000000000004000000000000000055720
2023051212            12     JONATHAN1           10305                        12~192855~0                   S0000000000000001000000000000000274330
2023051612            12     JONATHAN1           10305                        12~192998~0                   S0000000000000001000000000000000274330
2023050612            12     DCRUZ               103424                       12~969434                     E0000000000000001000000000000000156690
2023050912            12     DCRUZ               103424                       12~192669~0                   S0000000000000001000000000000000156690
2023051612            12     ECASSIANO           103424                       12~970683                     E0000000000000001000000000000000161350
2023050212            12     JONATHAN1           11030669            11030669 12~192392~0                   S0000000000000001000000000000000010530
2023051112            12     CSOUZA              11056093            11056093 12~192789~0                   S0000000000000005000000000000000037750
2023051612            12     ESALVINO            11056093            11056093 12~192981~0                   S0000000000000030000000000000000226500
2023052912            12     DDONATO             11056093            11056093 12~193530~0                   S0000000000000005000000000000000037750
2023051212            12     JONATHAN1           11085932            11085932 12~192852~0                   S0000000000000001000000000000000013910
2023051212            12     ECASSIANO           11096251            11096251 12~970263                     E0000000000000001000000000000000029070
2023051512            12     JONATHAN1           11096251            11096251 12~192912~0                   S0000000000000002000000000000000058140
2023051912            12     DCRUZ               11096251            11096251 12~971245                     E0000000000000010000000000000000291800
2023053112            12     JCORREA             11344                        12~193687~0                   S0000000000000002000000000000000132940
2023052412            12     JCORREA             11548125            11548125 12~193346~0                   S0000000000000001000000000000000017160
2023052512            12     DCRUZ               11548125            11548125 12~971888                     E0000000000000003000000000000000041730
2023052512            12     JCORREA             11548125            11548125 12~193399~0                   S0000000000000003000000000000000041730
2023051912            12     ECASSIANO           11589289            11589289 12~971117                     E0000000000000028000000000000000010360
2023051912            12     DCRUZ               11589295            11589295 12~971245                     E0000000000000008000000000000000064240
2023051912            12     DCRUZ               11602185            11602185 12~971245                     E0000000000000002000000000000000005240
2023051012            12     JONATHAN1           11611063            11611063 12~192769~0                   S0000000000000001000000000000000011840
2023051912            12     ECASSIANO           11611063            11611063 12~971117                     E0000000000000020000000000000000243600
2023050912            12     ECASSIANO           11611334            11611334 12~969680                     E0000000000000008000000000000000054400
2023051812            12     ECASSIANO           11612035            11612035 12~971011                     E0000000000000020000000000000000176200
2023052212            12     AGOMES              11612035            11612035 12~193221~0                   S0000000000000003000000000000000026430
2023050512            12     JONATHAN1           1215JB                       12~192549~0                   S0000000000000001000000000000000021600
2023050812            12     JONATHAN1           1215JB                       12~192622~0                   S0000000000000001000000000000000021600
2023050812            12     DCRUZ               1215JB                       12~0                          E0000000000000001000000000000000021600
2023050812            12     JONATHAN1           1215JB                       12~192625~0                   S0000000000000001000000000000000021600
2023051112            12     CSOUZA              1215JB                       12~192819~0                   S0000000000000012000000000000000259200
2023051612            12     JONATHAN1           1215JB                       12~192998~0                   S0000000000000001000000000000000021600
2023052212            12     JONATHAN1           1215JB                       12~193256~0                   S0000000000000002000000000000000043200
2023052312            12     CSOUZA              1215JB                       12~193298~0                   S0000000000000012000000000000000259200
2023052412            12     JONATHAN1           1215JB                       12~193374~0                   S0000000000000002000000000000000043200
2023050812            12     DCRUZ               12594875            12594875 12~192648~0                   S0000000000000002000000000000000092600
2023052512            12     ECASSIANO           12594875            12594875 12~971992                     E0000000000000002000000000000000093960
2023050312            12     JONATHAN1           12616850            12616850 12~192455~0                   S0000000000000001000000000000000009920
2023050512            12     ESALVINO            12616850            12616850 12~192602~0                   S0000000000000001000000000000000009920
2023050512            12     DCRUZ               12616850            12616850 12~0                          E0000000000000001000000000000000009920
2023050512            12     ESALVINO            12616850            12616850 12~192604~0                   S0000000000000001000000000000000009920
2023050512            12     DCRUZ               12616850            12616850 12~0                          E0000000000000001000000000000000009920
2023050612            12     ESALVINO            12616850            12616850 12~192616~0                   S0000000000000001000000000000000009920
2023050312            12     JONATHAN1           12625215            12625215 12~192457~0                   S0000000000000001000000000000000178550
2023053112            12     ECASSIANO           12625215            12625215 12~972530                     E0000000000000001000000000000000178540
2023052912            12     DDONATO             12625219            12625219 12~193528~0                   S0000000000000001000000000000001600820
2023051712            12     ECASSIANO           12625458            12625458 12~970813                     E0000000000000004000000000000001270120
2023052212            12     ECASSIANO           12625560            12625560 12~971412                     E0000000000000001000000000000000352900
2023050912            12     JCORREA             12629737            12629737 12~192717~0                   S0000000000000001000000000000000117000
2023052012            12     AGOMES              12629737            12629737 12~193207~0                   S0000000000000001000000000000000117000
2023050512            12     ESALVINO            12636838            12636838 12~192602~0                   S0000000000000001000000000000000066210
2023050512            12     DCRUZ               12636838            12636838 12~0                          E0000000000000001000000000000000066210
2023050512            12     ESALVINO            12636838            12636838 12~192604~0                   S0000000000000001000000000000000066210
2023050512            12     DCRUZ               12636838            12636838 12~0                          E0000000000000001000000000000000066210
2023050612            12     ESALVINO            12636838            12636838 12~192616~0                   S0000000000000001000000000000000066210
2023051312            12     JONATHAN1           12636838            12636838 12~192906~0                   S0000000000000001000000000000000066210
2023050312            12     ECASSIANO           12640048            12640048 12~968948                     E0000000000000001000000000000000888900
2023050312            12     ECASSIANO           12640381            12640381 12~968939                     E0000000000000001000000000000001253350
2023051012            12     AGOMES              12643564            12643564 12~192734~0                   S0000000000000001000000000000000007800
2023050412            12     DDONATO             12643582            12643582 12~192488~0                   S0000000000000001000000000000000232960
2023051012            12     AGOMES              12643582            12643582 12~192734~0                   S0000000000000001000000000000000232960
2023051812            12     ECASSIANO           12644510            12644510 12~971011                     E0000000000000003000000000000001196580
2023052712            12     DCRUZ               12650486            12650486 12~972186                     E0000000000000001000000000000000045370
2023052912            12     DDONATO             12650486            12650486 12~193528~0                   S0000000000000001000000000000000045370
2023051912            12     ECASSIANO           12654110            12654110 12~971117                     E0000000000000020000000000000001439200
2023051812            12     ECASSIANO           12663277            12663277 12~971011                     E0000000000000012000000000000000275280
2023050612            12     DCRUZ               12671625            12671625 12~969434                     E0000000000000001000000000000000350750
2023050512            12     DDONATO             12674112            12674112 12~192589~0                   S0000000000000004000000000000000373720
2023050912            12     ECASSIANO           12674112            12674112 12~969680                     E0000000000000004000000000000000392640
2023051112            12     ECASSIANO           12674112            12674112 12~970143                     E0000000000000008000000000000000716640
2023050912            12     JONATHAN1           12682079            12682079 12~192680~0                   S0000000000000001000000000000001076330
2023051612            12     ECASSIANO           12682079            12682079 12~970684                     E0000000000000001000000000000001070370
2023052312            12     ECASSIANO           12682079            12682079 12~971619                     E0000000000000001000000000000001133300
2023052512            12     JONATHAN1           12706595            12706595 12~193395~0                   S0000000000000001000000000000000048030
2023053112            12     CSOUZA              12706595            12706595 12~193678~0                   S0000000000000002000000000000000096060
2023051712            12     DCRUZ               12708717            12708717 12~193080~0                   S0000000000000001000000000000000353700
2023051812            12     ECASSIANO           12708717            12708717 12~970990                     E0000000000000003000000000000001096020
2023051012            12     ECASSIANO           1300525                      12~969798                     E0000000000000036000000000000003399120
2023052412            12     ECASSIANO           13263724            13263724 12~971699                     E0000000000000001000000000000000041860
2023052512            12     ECASSIANO           13301783            13301783 12~972006                     E0000000000000001000000000000000121820
2023052612            12     AGOMES              13301783            13301783 12~193470~0                   S0000000000000001000000000000000121820
2023051812            12     ECASSIANO           13324655            13324655 12~970973                     E0000000000000001000000000000000120410
2023052612            12     AGOMES              13324655            13324655 12~193470~0                   S0000000000000001000000000000000120410
2023052212            12     ECASSIANO           13337770            13337770 12~971507                     E0000000000000001000000000000000260820
2023052412            12     ECASSIANO           13429568            13429568 12~971693                     E0000000000000001000000000000000376990
2023051912            12     ECASSIANO           13488275            13488275 12~971117                     E0000000000000003000000000000000010230
2023051012            12     ECASSIANO           1350005                      12~969798                     E0000000000000024000000000000002423040
2023051112            12     ECASSIANO           13502348            13502348 12~970202                     E0000000000000001000000000000000029870
2023051112            12     ECASSIANO           13502353            13502353 12~970202                     E0000000000000001000000000000000154330
2023051212            12     ECASSIANO           13502353            13502353 12~970263                     E0000000000000001000000000000000154410
2023051912            12     DCRUZ               13502353            13502353 12~971245                     E0000000000000020000000000000003100400
2023052212            12     CSOUZA              13502353            13502353 12~193264~0                   S0000000000000001000000000000000155020
2023052912            12     JONATHAN1           13502353            13502353 12~193545~0                   S0000000000000001000000000000000155020
2023052912            12     JONATHAN1           13502353            13502353 12~11964~0                    S0000000000000001000000000000000155020
2023053112            12     JONATHAN1           13502353            13502353 12~193671~0                   S0000000000000001000000000000000155020
2023052412            12     ECASSIANO           13503380            13503380 12~971734                     E0000000000000001000000000000000030750
2023052412            12     ECASSIANO           13503380            13503380 12~971734                     E0000000000000001000000000000000038720
2023052912            12     JONATHAN1           13503380            13503380 12~193572~0                   S0000000000000002000000000000000077440
2023051812            12     ECASSIANO           13503395            13503395 12~971011                     E0000000000000010000000000000000028400
2023051612            12     JONATHAN1           13505131            13505131 12~193023~0                   S0000000000000001000000000000000204330
2023052212            12     ECASSIANO           13505131            13505131 12~971518                     E0000000000000002000000000000000353340
2023050812            12     AGOMES              13508023            13508023 12~192623~0                   S0000000000000001000000000000000043440
2023051912            12     JONATHAN1           13511955            13511955 12~193192~0                   S0000000000000001000000000000000159640
2023051912            12     DCRUZ               13513995            13513995 12~971245                     E0000000000000003000000000000000489840
2023051212            12     ECASSIANO           13515907            13515907 12~970341                     E0000000000000002000000000000000855940
2023051712            12     ECASSIANO           13518380            13518380 12~970866                     E0000000000000001000000000000000340200
2023050412            12     ECASSIANO           13526495            13526495 12~968974                     E0000000000000001000000000000000039910
2023051812            12     HERIANEC            13526495            13526495 12~193125~0                   S0000000000000001000000000000000039910
2023051812            12     DCRUZ               13526495            13526495 12~0                          E0000000000000001000000000000000039910
2023051812            12     HERIANEC            13526495            13526495 12~193130~0                   S0000000000000001000000000000000039910
2023051912            12     ECASSIANO           13526495            13526495 12~971117                     E0000000000000010000000000000000402500
2023052412            12     HERIANEC            13526495            13526495 12~193356~0                   S0000000000000001000000000000000040250
2023051812            12     ECASSIANO           13530011            13530011 12~970990                     E0000000000000003000000000000000548940
2023050812            12     JONATHAN1           13540602            13540602 12~192641~0                   S0000000000000001000000000000000089040
2023051112            12     JONATHAN1           13540602            13540602 12~192814~0                   S0000000000000001000000000000000089040
2023053012            12     JONATHA             13540602            13540602 12~193623~0                   S0000000000000001000000000000000089040
2023051112            12     ECASSIANO           13540925            13540925 12~970120                     E0000000000000001000000000000000271580
2023051912            12     DCRUZ               13540925            13540925 12~971122                     E0000000000000001000000000000000553040
2023051212            12     ECASSIANO           13544913            13544913 12~970255                     E0000000000000020000000000000001465800
2023051212            12     ECASSIANO           13544913            13544913 12~970255                     E0000000000000020000000000000001465800
2023051212            12     ESALVINO            13544913            13544913 12~192870~0                   S0000000000000010000000000000000732900
2023051212            12     ESALVINO            13544913            13544913 12~192874~0                   S0000000000000005000000000000000366450
2023051212            12     ESALVINO            13544913            13544913 12~192894~0                   S0000000000000006000000000000000439740
2023051612            12     ESALVINO            13544913            13544913 12~192981~0                   S0000000000000006000000000000000439740
2023051612            12     ESALVINO            13544913            13544913 12~193006~0                   S0000000000000005000000000000000366450
2023051612            12     ESALVINO            13544913            13544913 12~193016~0                   S0000000000000003000000000000000219870
2023051912            12     DDONATO             13544913            13544913 12~193155~0                   S0000000000000003000000000000000219870
2023052512            12     CSOUZA              13544913            13544913 12~193403~0                   S0000000000000002000000000000000146580
2023050212            12     JONATHAN1           13583373            13583373 12~192400~0                   S0000000000000001000000000000000078580
2023051912            12     DCRUZ               13583411            13583411 12~971245                     E0000000000000001000000000000000014550
2023052312            12     JONATHAN1           13590792            13590792 12~193314~0                   S0000000000000001000000000000000082800
2023051212            12     ECASSIANO           15173510            15173510 12~970263                     E0000000000000002000000000000000030820
2023051212            12     DDONATO             19283184            19283184 12~192845~0                   S0000000000000001000000000000000093560
2023051712            12     ECASSIANO           19283184            19283184 12~970811                     E0000000000000010000000000000000961500
2023051712            12     ECASSIANO           19283184            19283184 12~970811                     E0000000000000010000000000000000968900
2023051712            12     ECASSIANO           19283184            19283184 12~970811                     E0000000000000010000000000000000972400
2023051712            12     ECASSIANO           19283184            19283184 12~970811                     E0000000000000010000000000000000974500
2023051712            12     ECASSIANO           19283184            19283184 12~970811                     E0000000000000010000000000000000975800
2023052512            12     AGOMES              19283184            19283184 12~193424~0                   S0000000000000010000000000000000975800
2023050312            12     JONATHAN1           19283185            19283185 12~192444~0                   S0000000000000001000000000000000181300
2023051712            12     ECASSIANO           19283185            19283185 12~970813                     E0000000000000005000000000000000605900
2023050512            12     DGALVAO             19314697            19314697 12~192579~0                   S0000000000000004000000000000000181840
2023051212            12     JONATHAN1           19314697            19314697 12~192843~0                   S0000000000000001000000000000000045460
2023051712            12     ECASSIANO           19314697            19314697 12~970821                     E0000000000000010000000000000000457200
2023051712            12     ECASSIANO           19314697            19314697 12~970821                     E0000000000000010000000000000000458300
2023051712            12     ECASSIANO           19314697            19314697 12~970821                     E0000000000000010000000000000000459000
2023051712            12     ECASSIANO           19314697            19314697 12~970821                     E0000000000000010000000000000000459500
2023051712            12     ECASSIANO           19314697            19314697 12~970821                     E0000000000000010000000000000000459800
2023051712            12     ECASSIANO           19314697            19314697 12~970821                     E0000000000000010000000000000000460000
2023051712            12     ECASSIANO           19314697            19314697 12~970821                     E0000000000000010000000000000000460200
2023052512            12     DGALVAO             19314697            19314697 12~193389~0                   S0000000000000001000000000000000046020
2023052512            12     ESALVINO            19314697            19314697 12~193427~0                   S0000000000000004000000000000000184080
2023053112            12     CSOUZA              19314697            19314697 12~193713~0                   S0000000000000005000000000000000230100
2023051712            12     ECASSIANO           19314700            19314700 12~970821                     E0000000000000010000000000000000605500
2023051712            12     ECASSIANO           19314700            19314700 12~970821                     E0000000000000010000000000000000605500
2023051612            12     ECASSIANO           19347338            19347338 12~970680                     E0000000000000096000000000000000905280
2023051612            12     ECASSIANO           19347338            19347338 12~970730                     E0000000000000004000000000000000037720
2023051612            12     CSOUZA              19347338            19347338 12~192992~0                   S0000000000000040000000000000000377200
2023051612            12     JCORREA             19347338            19347338 12~193014~0                   S0000000000000052000000000000000490360
2023051912            12     ECASSIANO           19347338            19347338 12~971124                     E0000000000000080000000000000000722400
2023051912            12     JONATHAN1           19347338            19347338 12~193182~0                   S0000000000000040000000000000000361200
2023051912            12     JCORREA             19347338            19347338 12~193191~0                   S0000000000000016000000000000000144480
2023053112            12     CSOUZA              19347338            19347338 12~193672~0                   S0000000000000020000000000000000180600
2023051712            12     ECASSIANO           19347340            19347340 12~970834                     E0000000000000200000000000000001640000
2023051912            12     JONATHAN1           19347340            19347340 12~193182~0                   S0000000000000200000000000000001640000
2023052012            12     DCRUZ               19347340            19347340 12~971357                     E0000000000000100000000000000000765000
2023052312            12     JONATHAN1           19347340            19347340 12~193285~0                   S0000000000000004000000000000000030600
2023052312            12     CSOUZA              19347340            19347340 12~193298~0                   S0000000000000040000000000000000306000
2023052612            12     CSOUZA              19347340            19347340 12~193507~0                   S0000000000000020000000000000000153000
2023053112            12     CSOUZA              19347340            19347340 12~193672~0                   S0000000000000020000000000000000153000
2023051612            12     ECASSIANO           19347349            19347349 12~970681                     E0000000000000032000000000000000311040
2023051612            12     ECASSIANO           19347349            19347349 12~970730                     E0000000000000068000000000000000660960
2023051612            12     CSOUZA              19347349            19347349 12~192992~0                   S0000000000000040000000000000000388800
2023051612            12     JCORREA             19347349            19347349 12~193014~0                   S0000000000000052000000000000000505440
2023051912            12     ECASSIANO           19347349            19347349 12~971124                     E0000000000000080000000000000000744800
2023051912            12     JONATHAN1           19347349            19347349 12~193182~0                   S0000000000000040000000000000000372400
2023051912            12     JCORREA             19347349            19347349 12~193191~0                   S0000000000000016000000000000000148960
2023052312            12     DDONATO             19347349            19347349 12~193276~0                   S0000000000000004000000000000000037240
2023052412            12     JCORREA             19347349            19347349 12~193342~0                   S0000000000000020000000000000000186200
2023052612            12     CSOUZA              19347349            19347349 12~193507~0                   S0000000000000008000000000000000074480
2023050412            12     JCORREA             19348434            19348434 12~192509~0                   S0000000000000002000000000000000150700
2023051712            12     ECASSIANO           19349213            19349213 12~970820                     E0000000000000002000000000000000176200
2023051712            12     ECASSIANO           19349213            19349213 12~970820                     E0000000000000002000000000000000174340
2023051712            12     ECASSIANO           19349213            19349213 12~970820                     E0000000000000002000000000000000173220
2023051712            12     ECASSIANO           19349213            19349213 12~970820                     E0000000000000002000000000000000172480
2023051712            12     ECASSIANO           19349213            19349213 12~970820                     E0000000000000002000000000000000171940
2023051712            12     ECASSIANO           19349213            19349213 12~970820                     E0000000000000002000000000000000171540
2023051712            12     ECASSIANO           19349213            19349213 12~970820                     E0000000000000002000000000000000171240
2023051712            12     ECASSIANO           19349213            19349213 12~970820                     E0000000000000002000000000000000170980
2023051712            12     ECASSIANO           19349213            19349213 12~970820                     E0000000000000002000000000000000170780
2023051712            12     ECASSIANO           19349213            19349213 12~970820                     E0000000000000002000000000000000170620
2023051712            12     ECASSIANO           19349213            19349213 12~970820                     E0000000000000002000000000000000170480
2023051712            12     ECASSIANO           19349213            19349213 12~970820                     E0000000000000002000000000000000170340
2023051712            12     ECASSIANO           19349213            19349213 12~970820                     E0000000000000002000000000000000170240
2023051712            12     ECASSIANO           19349213            19349213 12~970820                     E0000000000000002000000000000000170140
2023051712            12     ECASSIANO           19349213            19349213 12~970820                     E0000000000000002000000000000000170060
2023051712            12     ECASSIANO           19349224            19349224 12~970835                     E0000000000000002000000000000000297400
2023051712            12     ECASSIANO           19349225            19349225 12~970820                     E0000000000000002000000000000000204340
2023051712            12     ECASSIANO           19349225            19349225 12~970820                     E0000000000000002000000000000000204340
2023051712            12     ECASSIANO           19349225            19349225 12~970820                     E0000000000000002000000000000000204340
2023051712            12     ECASSIANO           19349225            19349225 12~970820                     E0000000000000002000000000000000204340
2023051712            12     ECASSIANO           19349225            19349225 12~970820                     E0000000000000002000000000000000204340
2023052612            12     AGOMES              19349225            19349225 12~193476~0                   S0000000000000002000000000000000204340
2023051812            12     ECASSIANO           19349321            19349321 12~970973                     E0000000000000002000000000000000424900
2023050612            12     JONATHAN1           19350511            19350511 12~192607~0                   S0000000000000001000000000000000024860
2023050912            12     JONATHAN1           19350511            19350511 12~192665~0                   S0000000000000001000000000000000024860
2023050312            12     DDONATO             19351403            19351403 12~192459~0                   S0000000000000002000000000000000158200
2023050412            12     JONATHAN1           19351403            19351403 12~192494~0                   S0000000000000001000000000000000079100
2023050412            12     JONATHAN1           19351403            19351403 12~192498~0                   S0000000000000001000000000000000079100
2023050512            12     JONATHAN1           19351403            19351403 12~192554~0                   S0000000000000001000000000000000079100
2023050512            12     JONATHAN1           19351403            19351403 12~192596~0                   S0000000000000005000000000000000395500
2023051012            12     ESALVINO            19351403            19351403 12~192724~0                   S0000000000000001000000000000000079100
2023051512            12     ESALVINO            19351403            19351403 12~192925~0                   S0000000000000002000000000000000158200
2023051612            12     ECASSIANO           19351403            19351403 12~970680                     E0000000000000040000000000000003197200
2023051612            12     ECASSIANO           19351403            19351403 12~970680                     E0000000000000020000000000000001600200
2023052212            12     JCORREA             19351403            19351403 12~193225~0                   S0000000000000003000000000000000240030
2023052212            12     JONATHAN1           19351403            19351403 12~193253~0                   S0000000000000001000000000000000080010
2023052912            12     CSOUZA              19351403            19351403 12~193546~0                   S0000000000000010000000000000000800100
2023053012            12     JCORREA             19351403            19351403 12~193613~0                   S0000000000000002000000000000000160020
2023051512            12     ECASSIANO           19376259            19376259 12~970465                     E0000000000000005000000000000000131350
2023051612            12     JONATHAN1           19376259            19376259 12~192987~0                   S0000000000000001000000000000000026270
2023052512            12     JONATHAN1           19376259            19376259 12~193393~0                   S0000000000000001000000000000000026270
2023053012            12     ECASSIANO           19376259            19376259 12~972380                     E0000000000000015000000000000000385350
2023053012            12     CSOUZA              19376259            19376259 12~193603~0                   S0000000000000010000000000000000256900
2023052212            12     ECASSIANO           20036                        12~971494                     E0000000000000010000000000000000704300
2023050312            12     DDONATO             20055                        12~192459~0                   S0000000000000004000000000000000220920
2023050412            12     JONATHAN1           20055                        12~192494~0                   S0000000000000001000000000000000055230
2023051612            12     JONATHAN1           20055                        12~192998~0                   S0000000000000001000000000000000055230
2023052212            12     ECASSIANO           20055                        12~971494                     E0000000000000030000000000000001836000
2023052212            12     ECASSIANO           20143                        12~971494                     E0000000000000015000000000000001075200
2023052312            12     JCORREA             20143                        12~193296~0                   S0000000000000002000000000000000143360
2023052012            12     DGALVAO             20145                        12~193213~0                   S0000000000000001000000000000000068230
2023052212            12     ECASSIANO           20145                        12~971494                     E0000000000000005000000000000000363000
2023052212            12     ECASSIANO           20189                        12~971494                     E0000000000000040000000000000002568800
2023052512            12     ESALVINO            20189                        12~193427~0                   S0000000000000004000000000000000256880
2023052712            12     JONATHAN1           20189                        12~193513~0                   S0000000000000001000000000000000064220
2023052412            12     ECASSIANO           20914866            20914866 12~971702                     E0000000000000003000000000000000113910
2023052512            12     DCRUZ               216                          12~971891                     E0000000000000001000000000000000439530
2023052512            12     JCORREA             216                          12~193402~0                   S0000000000000001000000000000000439530
2023050412            12     ECASSIANO           23408808            23408808 12~968970                     E0000000000000001000000000000000889090
2023051212            12     ECASSIANO           23408808            23408808 12~970404                     E0000000000000001000000000000000889090
2023051712            12     ECASSIANO           23408808            23408808 12~970828                     E0000000000000001000000000000000889090
2023051612            12     DDONATO             23508972            23508972 12~193011~0                   S0000000000000001000000000000000378940
2023052212            12     ECASSIANO           24236933            24236933 12~971504                     E0000000000000003000000000000001137360
2023052912            12     DCRUZ               24236933            24236933 12~193550~0                   S0000000000000002000000000000000758240
2023053012            12     ECASSIANO           24272406            24272406 12~972380                     E0000000000000001000000000000003169540
2023051812            12     ECASSIANO           24295087            24295087 12~970990                     E0000000000000002000000000000001961580
2023050212            12     ECASSIANO           24422061            24422061 12~968532                     E0000000000000010000000000000002111800
2023050912            12     JONATHAN1           24422061            24422061 12~192682~0                   S0000000000000001000000000000000211180
2023051512            12     DDONATO             24422061            24422061 12~192945~0                   S0000000000000001000000000000000211180
2023051912            12     ESALVINO            24422061            24422061 12~193190~0                   S0000000000000001000000000000000211180
2023050212            12     ECASSIANO           24422066            24422066 12~968669                     E0000000000000005000000000000000227850
2023050412            12     JCORREA             24436052            24436052 12~192519~0                   S0000000000000001000000000000000148240
2023050412            12     CSOUZA              24578210            24578210 12~192511~0                   S0000000000000001000000000000001057130
2023050812            12     JONATHAN1           24578211            24578211 12~192642~0                   S0000000000000001000000000000000961590
2023051712            12     ECASSIANO           24578211            24578211 12~970834                     E0000000000000001000000000000000965210
2023051712            12     ECASSIANO           24578211            24578211 12~970834                     E0000000000000001000000000000000968420
2023051712            12     ECASSIANO           24578211            24578211 12~970834                     E0000000000000001000000000000000971300
2023051712            12     ECASSIANO           24578211            24578211 12~970834                     E0000000000000001000000000000000973890
2023051712            12     ECASSIANO           24578211            24578211 12~970834                     E0000000000000001000000000000000976230
2023051712            12     ECASSIANO           24578211            24578211 12~970834                     E0000000000000001000000000000000978360
2023051712            12     ECASSIANO           24578211            24578211 12~970834                     E0000000000000001000000000000000980300
2023051712            12     ECASSIANO           24578211            24578211 12~970834                     E0000000000000001000000000000000982080
2023051712            12     ECASSIANO           24578211            24578211 12~970834                     E0000000000000001000000000000000983720
2023051712            12     ECASSIANO           24578211            24578211 12~970834                     E0000000000000001000000000000000985230
2023051712            12     JONATHAN1           24578211            24578211 12~193075~0                   S0000000000000001000000000000000985230
2023052412            12     JONATHAN1           24578211            24578211 12~11962~0                    S0000000000000001000000000000000985230
2023052612            12     DDONATO             24578211            24578211 12~193445~0                   S0000000000000001000000000000000985230
2023052912            12     DDONATO             24578211            24578211 12~193574~0                   S0000000000000001000000000000000985230
2023052312            12     ESALVINO            24578225            24578225 12~193286~0                   S0000000000000003000000000000000387600
2023051212            12     ESALVINO            24578230            24578230 12~192847~0                   S0000000000000002000000000000000166700
2023052512            12     DDONATO             24578231            24578231 12~193388~0                   S0000000000000002000000000000000171100
2023050412            12     JONATHAN1           24578500            24578500 12~192503~0                   S0000000000000001000000000000000308000
2023052312            12     ESALVINO            24578500            24578500 12~193305~0                   S0000000000000001000000000000000308000
2023050912            12     DCRUZ               24578614            24578614 12~192716~0                   S0000000000000003000000000000000106110
2023051712            12     JONATHAN1           24578614            24578614 12~193025~0                   S0000000000000001000000000000000035370
2023051512            12     DDONATO             24578654            24578654 12~192942~0                   S0000000000000003000000000000000117750
2023052612            12     ECASSIANO           24578675            24578675 12~972055                     E0000000000000003000000000000000119610
2023053112            12     DCRUZ               24578675            24578675 12~193696~0                   S0000000000000001000000000000000039870
2023050412            12     ECASSIANO           24578852            24578852 12~968977                     E0000000000000002000000000000000889340
2023051612            12     DCRUZ               24578852            24578852 12~193019~0                   S0000000000000001000000000000000444670
2023053012            12     JCORREA             24579314            24579314 12~193611~0                   S0000000000000001000000000000003905480
2023050212            12     ECASSIANO           24579467            24579467 12~968532                     E0000000000000001000000000000000238720
2023050212            12     JONATHAN1           24579467            24579467 12~192425~0                   S0000000000000001000000000000000238720
2023052212            12     ECASSIANO           24579467            24579467 12~971542                     E0000000000000001000000000000000254390
2023050912            12     DDONATO             24579487            24579487 12~192674~0                   S0000000000000010000000000000000345300
2023051212            12     ECASSIANO           24579487            24579487 12~970254                     E0000000000000065000000000000001970150
2023051812            12     ESALVINO            24579487            24579487 12~193108~0                   S0000000000000010000000000000000303100
2023051812            12     ESALVINO            24579487            24579487 12~193110~0                   S0000000000000004000000000000000121240
2023051912            12     ESALVINO            24579487            24579487 12~193190~0                   S0000000000000004000000000000000121240
2023052912            12     JONATHAN1           24579487            24579487 12~193573~0                   S0000000000000001000000000000000030310
2023051212            12     ECASSIANO           24579488            24579488 12~970256                     E0000000000000050000000000000003114000
2023051812            12     JONATHAN1           24579488            24579488 12~193113~0                   S0000000000000001000000000000000062280
2023052412            12     JONATHAN1           24579488            24579488 12~193355~0                   S0000000000000001000000000000000062280
2023052412            12     DCRUZ               24579488            24579488 12~0                          E0000000000000001000000000000000062280
2023052512            12     ESALVINO            24579488            24579488 12~193421~0                   S0000000000000001000000000000000062280
2023051712            12     ECASSIANO           24579728            24579728 12~970812                     E0000000000000001000000000000000436190
2023051712            12     ECASSIANO           24579728            24579728 12~970812                     E0000000000000001000000000000000436190
2023050512            12     ESALVINO            24579936            24579936 12~192599~0                   S0000000000000001000000000000000057800
2023051112            12     ECASSIANO           24579936            24579936 12~970200                     E0000000000000002000000000000000117300
2023051212            12     ESALVINO            24579936            24579936 12~192849~0                   S0000000000000001000000000000000058650
2023051712            12     JONATHAN1           24579936            24579936 12~193050~0                   S0000000000000001000000000000000058650
2023051812            12     ECASSIANO           24579936            24579936 12~970965                     E0000000000000007000000000000000350630
2023051812            12     ECASSIANO           24579936            24579936 12~971012                     E0000000000000020000000000000001128600
2023051812            12     JONATHAN1           24579936            24579936 12~193136~0                   S0000000000000003000000000000000169290
2023052312            12     JONATHAN1           24579936            24579936 12~193282~0                   S0000000000000002000000000000000112860
2023052412            12     JCORREA             24579936            24579936 12~193383~0                   S0000000000000001000000000000000056430
2023052512            12     DDONATO             24579936            24579936 12~193425~0                   S0000000000000003000000000000000169290
2023051712            12     ECASSIANO           24579976            24579976 12~970830                     E0000000000000012000000000000001122120
2023051212            12     ECASSIANO           24580126            24580126 12~970255                     E0000000000000010000000000000000111900
2023050512            12     DCRUZ               24580486            24580486 12~192600~0                   S0000000000000001000000000000000029390
2023052212            12     DCRUZ               24580510            24580510 12~193263~0                   S0000000000000001000000000000000369300
2023051212            12     ECASSIANO           24581173            24581173 12~970255                     E0000000000000002000000000000000262360
2023050312            12     ECASSIANO           24581174            24581174 12~968838                     E0000000000000001000000000000000134880
2023050312            12     JONATHAN1           24581174            24581174 12~192455~0                   S0000000000000001000000000000000134880
2023051212            12     ECASSIANO           24581174            24581174 12~970251                     E0000000000000003000000000000000486540
2023052912            12     DDONATO             24581174            24581174 12~193539~0                   S0000000000000001000000000000000162180
2023050312            12     DDONATO             24581370            24581370 12~192459~0                   S0000000000000001000000000000000180750
2023050212            12     JONATHAN1           24581397            24581397 12~192409~0                   S0000000000000001000000000000000117380
2023051912            12     JONATHAN1           24581803            24581803 12~193187~0                   S0000000000000001000000000000000144230
2023051212            12     ECASSIANO           24581894            24581894 12~970253                     E0000000000000130000000000000002587000
2023051212            12     ESALVINO            24581894            24581894 12~192894~0                   S0000000000000010000000000000000199000
2023052912            12     JONATHAN1           24581894            24581894 12~193542~0                   S0000000000000001000000000000000019900
2023052912            12     JCORREA             24581894            24581894 12~193551~0                   S0000000000000004000000000000000079600
2023052912            12     DDONATO             24581894            24581894 12~193553~0                   S0000000000000002000000000000000039800
2023053012            12     JCORREA             24581894            24581894 12~193637~0                   S0000000000000005000000000000000099500
2023053112            12     DCRUZ               24581894            24581894 12~0                          E0000000000000005000000000000000099500
2023051512            12     ECASSIANO           24582404            24582404 12~970465                     E0000000000000001000000000000000078870
2023051512            12     HERIANEC            24582404            24582404 12~192952~0                   S0000000000000001000000000000000078870
2023052412            12     JONATHAN1           24582665            24582665 12~193361~0                   S0000000000000001000000000000000320360
2023050212            12     ECASSIANO           24582667            24582667 12~968668                     E0000000000000003000000000000000313320
2023050412            12     ECASSIANO           24582667            24582667 12~968977                     E0000000000000001000000000000000104500
2023050412            12     JCORREA             24582667            24582667 12~192519~0                   S0000000000000002000000000000000209000
2023050512            12     JCORREA             24582667            24582667 12~192570~0                   S0000000000000003000000000000000313500
2023050812            12     CSOUZA              24582667            24582667 12~192645~0                   S0000000000000001000000000000000104500
2023051012            12     ESALVINO            24582667            24582667 12~192761~0                   S0000000000000001000000000000000104500
2023051212            12     ECASSIANO           24582667            24582667 12~970361                     E0000000000000001000000000000000104590
2023051212            12     ESALVINO            24582667            24582667 12~192886~0                   S0000000000000003000000000000000313770
2023051512            12     JONATHAN1           24582667            24582667 12~192922~0                   S0000000000000001000000000000000104590
2023051712            12     ECASSIANO           24582667            24582667 12~970827                     E0000000000000002000000000000000209560
2023051712            12     JONATHAN1           24582667            24582667 12~193059~0                   S0000000000000001000000000000000104780
2023051812            12     ECASSIANO           24582667            24582667 12~970980                     E0000000000000030000000000000003163200
2023051812            12     ECASSIANO           24582667            24582667 12~970980                     E0000000000000010000000000000001054800
2023052512            12     JONATHAN1           24582667            24582667 12~193386~0                   S0000000000000001000000000000000105480
2023052612            12     JONATHAN1           24582667            24582667 12~193468~0                   S0000000000000001000000000000000105480
2023052912            12     JCORREA             24582667            24582667 12~193560~0                   S0000000000000001000000000000000105480
2023050912            12     DGALVAO             24583134            24583134 12~192699~0                   S0000000000000003000000000000000119640
2023051712            12     ECASSIANO           24583134            24583134 12~970875                     E0000000000000008000000000000000335520
2023051712            12     ESALVINO            24583134            24583134 12~193058~0                   S0000000000000004000000000000000167760
2023051912            12     ECASSIANO           24583134            24583134 12~971117                     E0000000000000010000000000000000408900
2023051812            12     ECASSIANO           24583550            24583550 12~971003                     E0000000000000002000000000000000804380
2023052412            12     DDONATO             24583550            24583550 12~193322~0                   S0000000000000001000000000000000402190
2023052612            12     DDONATO             24584392            24584392 12~193493~0                   S0000000000000001000000000000000337840
2023052912            12     ESALVINO            24584392            24584392 12~193538~0                   S0000000000000001000000000000000337840
2023051512            12     DCRUZ               24585032            24585032 12~192956~0                   S0000000000000001000000000000000300950
2023051612            12     DCRUZ               24585032            24585032 12~193019~0                   S0000000000000002000000000000000601900
2023051812            12     ECASSIANO           24585032            24585032 12~971032                     E0000000000000001000000000000000318850
2023051812            12     ECASSIANO           24585032            24585032 12~971032                     E0000000000000001000000000000000326480
2023050412            12     ECASSIANO           24586072            24586072 12~968990                     E0000000000000001000000000000001973350
2023050412            12     ECASSIANO           24586072            24586072 12~968990                     E0000000000000001000000000000001973350
2023050412            12     ECASSIANO           24586072            24586072 12~968990                     E0000000000000001000000000000001973350
2023052212            12     ECASSIANO           24586075            24586075 12~971551                     E0000000000000001000000000000001280000
2023052212            12     DGALVAO             24586075            24586075 12~193261~0                   S0000000000000001000000000000001280000
2023050412            12     ECASSIANO           24586076            24586076 12~968990                     E0000000000000001000000000000001258970
2023050412            12     ECASSIANO           24586076            24586076 12~968990                     E0000000000000001000000000000001262030
2023050412            12     ECASSIANO           24586076            24586076 12~968990                     E0000000000000001000000000000001263560
2023052512            12     JCORREA             24586076            24586076 12~193396~0                   S0000000000000001000000000000001263560
2023051212            12     ECASSIANO           24586232            24586232 12~970253                     E0000000000000010000000000000000116800
2023052512            12     JONATHAN1           24586232            24586232 12~193386~0                   S0000000000000001000000000000000011680
2023051512            12     ECASSIANO           24586235            24586235 12~970465                     E0000000000000001000000000000000056360
2023051512            12     HERIANEC            24586235            24586235 12~192952~0                   S0000000000000001000000000000000056360
2023051812            12     ECASSIANO           24586235            24586235 12~970971                     E0000000000000001000000000000000066910
2023052212            12     JONATHAN1           24586359            24586359 12~193220~0                   S0000000000000001000000000000000365270
2023052412            12     ESALVINO            24586359            24586359 12~193338~0                   S0000000000000001000000000000000365270
2023053012            12     ECASSIANO           24586360            24586360 12~972380                     E0000000000000001000000000000000402080
2023053012            12     ECASSIANO           24586360            24586360 12~972381                     E0000000000000001000000000000000402080
2023050912            12     JONATHAN1           24586361            24586361 12~192682~0                   S0000000000000001000000000000000402240
2023051512            12     DDONATO             24586361            24586361 12~192945~0                   S0000000000000001000000000000000402240
2023050612            12     DCRUZ               24586382            24586382 12~969434                     E0000000000000005000000000000000462350
2023051112            12     ECASSIANO           24586382            24586382 12~970193                     E0000000000000050000000000000005312500
2023051112            12     ECASSIANO           24586382            24586382 12~970193                     E0000000000000050000000000000005345500
2023051812            12     CSOUZA              24586382            24586382 12~193146~0                   S0000000000000001000000000000000106910
2023052412            12     JONATHAN1           24586382            24586382 12~193347~0                   S0000000000000001000000000000000106910
2023052912            12     CSOUZA              24586382            24586382 12~193529~0                   S0000000000000001000000000000000106910
2023050312            12     ESALVINO            24586650            24586650 12~192453~0                   S0000000000000006000000000000000137100
2023050312            12     DGALVAO             24586650            24586650 12~192471~0                   S0000000000000010000000000000000228500
2023050512            12     JONATHAN1           24586650            24586650 12~192549~0                   S0000000000000001000000000000000022850
2023050512            12     DDONATO             24586650            24586650 12~192569~0                   S0000000000000002000000000000000045700
2023050912            12     DGALVAO             24586650            24586650 12~192699~0                   S0000000000000010000000000000000228500
2023051012            12     ESALVINO            24586650            24586650 12~192737~0                   S0000000000000004000000000000000091400
2023051112            12     JONATHAN1           24586650            24586650 12~192821~0                   S0000000000000004000000000000000091400
2023051212            12     ESALVINO            24586650            24586650 12~192847~0                   S0000000000000010000000000000000228500
2023051612            12     JONATHAN1           24586650            24586650 12~193013~0                   S0000000000000002000000000000000045700
2023051712            12     JCORREA             24586650            24586650 12~193035~0                   S0000000000000010000000000000000228500
2023051712            12     DGALVAO             24586650            24586650 12~193064~0                   S0000000000000004000000000000000091400
2023051712            12     DGALVAO             24586650            24586650 12~193072~0                   S0000000000000002000000000000000045700
2023051712            12     DCRUZ               24586650            24586650 12~0                          E0000000000000010000000000000000228500
2023051712            12     JCORREA             24586650            24586650 12~193078~0                   S0000000000000010000000000000000228500
2023051812            12     DGALVAO             24586650            24586650 12~193128~0                   S0000000000000010000000000000000228500
2023051812            12     DCRUZ               24586650            24586650 12~0                          E0000000000000010000000000000000228500
2023051812            12     DGALVAO             24586650            24586650 12~193138~0                   S0000000000000010000000000000000228500
2023052612            12     JCORREA             24586650            24586650 12~193437~0                   S0000000000000010000000000000000228500
2023052612            12     JONATHAN1           24586650            24586650 12~193453~0                   S0000000000000005000000000000000114250
2023052612            12     ESALVINO            24586650            24586650 12~193478~0                   S0000000000000004000000000000000091400
2023052612            12     JONATHAN1           24586650            24586650 12~193490~0                   S0000000000000001000000000000000022850
2023052912            12     DDONATO             24586650            24586650 12~193553~0                   S0000000000000002000000000000000045700
2023053012            12     JCORREA             24586650            24586650 12~193613~0                   S0000000000000004000000000000000091400
2023051912            12     DCRUZ               24587011            24587011 12~971245                     E0000000000000004000000000000000031480
2023052212            12     DDONATO             24587011            24587011 12~193228~0                   S0000000000000002000000000000000015740
2023052912            12     JCORREA             24587011            24587011 12~193551~0                   S0000000000000002000000000000000015740
2023050212            12     DDONATO             24587020            24587020 12~192399~0                   S0000000000000001000000000000000469270
2023050912            12     DDONATO             24587020            24587020 12~192661~0                   S0000000000000001000000000000000469270
2023050912            12     JONATHAN1           24587020            24587020 12~11952~0                    S0000000000000001000000000000000469270
2023051112            12     DDONATO             24587020            24587020 12~192805~0                   S0000000000000001000000000000000469270
2023051212            12     CSOUZA              24587020            24587020 12~192890~0                   S0000000000000001000000000000000469270
2023052412            12     JCORREA             24587020            24587020 12~193344~0                   S0000000000000001000000000000000469270
2023053112            12     JONATHAN1           24587020            24587020 12~193661~0                   S0000000000000001000000000000000469270
2023050212            12     DDONATO             24587738            24587738 12~192399~0                   S0000000000000006000000000000000069060
2023050212            12     JCORREA             24587738            24587738 12~192402~0                   S0000000000000010000000000000000115100
2023050212            12     JONATHAN1           24587738            24587738 12~11944~0                    S0000000000000001000000000000000011510
2023050312            12     ESALVINO            24587738            24587738 12~192453~0                   S0000000000000004000000000000000046040
2023051712            12     JCORREA             24587738            24587738 12~193035~0                   S0000000000000002000000000000000023020
2023051712            12     DGALVAO             24587738            24587738 12~193072~0                   S0000000000000005000000000000000057550
2023051712            12     DCRUZ               24587738            24587738 12~0                          E0000000000000002000000000000000023020
2023051712            12     JCORREA             24587738            24587738 12~193078~0                   S0000000000000002000000000000000023020
2023051812            12     DGALVAO             24587738            24587738 12~193128~0                   S0000000000000010000000000000000115100
2023051812            12     DCRUZ               24587738            24587738 12~0                          E0000000000000010000000000000000115100
2023051812            12     JONATHAN1           24587738            24587738 12~193136~0                   S0000000000000003000000000000000034530
2023051812            12     DGALVAO             24587738            24587738 12~193138~0                   S0000000000000010000000000000000115100
2023053012            12     ESALVINO            24587738            24587738 12~193615~0                   S0000000000000003000000000000000034530
2023050212            12     JONATHAN1           24588545            24588545 12~192406~0                   S0000000000000001000000000000000158290
2023052912            12     DDONATO             24588546            24588546 12~193533~0                   S0000000000000001000000000000000142940
2023052212            12     ECASSIANO           24588730            24588730 12~971417                     E0000000000000001000000000000000137060
2023050312            12     ECASSIANO           24588988            24588988 12~968838                     E0000000000000001000000000000000350010
2023050912            12     DDONATO             24588988            24588988 12~192703~0                   S0000000000000001000000000000000350010
2023051012            12     ECASSIANO           24588988            24588988 12~969958                     E0000000000000001000000000000000345100
2023051112            12     JCORREA             24588988            24588988 12~192822~0                   S0000000000000001000000000000000345100
2023051212            12     ECASSIANO           24588988            24588988 12~970358                     E0000000000000001000000000000000376230
2023051712            12     ECASSIANO           24588988            24588988 12~970827                     E0000000000000001000000000000000376230
2023051712            12     JCORREA             24588988            24588988 12~193035~0                   S0000000000000002000000000000000752460
2023051712            12     DCRUZ               24588988            24588988 12~0                          E0000000000000002000000000000000752460
2023051712            12     JCORREA             24588988            24588988 12~193078~0                   S0000000000000002000000000000000752460
2023051812            12     ECASSIANO           24588988            24588988 12~971082                     E0000000000000001000000000000000376230
2023053012            12     ECASSIANO           24589744            24589744 12~972380                     E0000000000000001000000000000000866000
2023051912            12     ECASSIANO           24589757            24589757 12~971118                     E0000000000000002000000000000000724940
2023050312            12     JONATHAN1           24590404            24590404 12~192455~0                   S0000000000000001000000000000000133480
2023050412            12     CSOUZA              24590694            24590694 12~192511~0                   S0000000000000001000000000000000099100
2023050812            12     JONATHAN1           24590694            24590694 12~192642~0                   S0000000000000001000000000000000099100
2023050912            12     JCORREA             24590694            24590694 12~192673~0                   S0000000000000001000000000000000099100
2023051712            12     JONATHAN1           24590694            24590694 12~193075~0                   S0000000000000001000000000000000099100
2023052212            12     CSOUZA              24590694            24590694 12~193236~0                   S0000000000000001000000000000000099100
2023052412            12     JONATHAN1           24590694            24590694 12~11962~0                    S0000000000000001000000000000000099100
2023052412            12     JONATHAN1           24590694            24590694 12~193374~0                   S0000000000000001000000000000000099100
2023053012            12     CSOUZA              24590694            24590694 12~193586~0                   S0000000000000001000000000000000099100
2023053012            12     DCRUZ               24590694            24590694 12~0                          E0000000000000001000000000000000099100
2023053012            12     CSOUZA              24590694            24590694 12~193589~0                   S0000000000000001000000000000000099100
2023050812            12     JONATHAN1           24591047            24591047 12~11948~0                    S0000000000000001000000000000000282640
2023052412            12     ECASSIANO           24591047            24591047 12~971734                     E0000000000000002000000000000000615380
2023052412            12     DDONATO             24591047            24591047 12~193360~0                   S0000000000000001000000000000000307690
2023050512            12     ESALVINO            24591057            24591057 12~192599~0                   S0000000000000001000000000000000241070
2023051112            12     CSOUZA              24591057            24591057 12~192789~0                   S0000000000000001000000000000000241070
2023052412            12     JONATHAN1           24591057            24591057 12~193328~0                   S0000000000000001000000000000000241070
2023050912            12     JONATHAN1           24591142            24591142 12~192672~0                   S0000000000000001000000000000000169720
2023051512            12     DGALVAO             24591142            24591142 12~192946~0                   S0000000000000006000000000000001018320
2023052312            12     JCORREA             24591142            24591142 12~193302~0                   S0000000000000002000000000000000339440
2023052612            12     JONATHAN1           24591142            24591142 12~193500~0                   S0000000000000003000000000000000509160
2023051812            12     DDONATO             24591145            24591145 12~193141~0                   S0000000000000003000000000000001873080
2023051912            12     ECASSIANO           24591145            24591145 12~971124                     E0000000000000003000000000000001910730
2023052412            12     ESALVINO            24591145            24591145 12~193338~0                   S0000000000000001000000000000000636910
2023052912            12     DCRUZ               24591145            24591145 12~193561~0                   S0000000000000001000000000000000636910
2023052612            12     JONATHAN1           24591169            24591169 12~193467~0                   S0000000000000001000000000000000143770
2023051512            12     ECASSIANO           24591474            24591474 12~970465                     E0000000000000001000000000000000042420
2023051812            12     CSOUZA              24591518            24591518 12~193101~0                   S0000000000000005000000000000000152100
2023051212            12     JONATHAN1           24591704            24591704 12~192899~0                   S0000000000000001000000000000000060040
2023052312            12     JONATHAN1           24591704            24591704 12~193282~0                   S0000000000000002000000000000000120080
2023050912            12     AGOMES              25186240            25186240 12~192663~0                   S0000000000000001000000000000000057710
2023053012            12     DDONATO             25192905            25192905 12~193616~0                   S0000000000000001000000000000000453030
2023051712            12     ECASSIANO           25193557            25193557 12~970825                     E0000000000000001000000000000000920220
2023051212            12     ECASSIANO           25197327            25197327 12~970372                     E0000000000000001000000000000000084170
2023051712            12     ECASSIANO           25197327            25197327 12~970809                     E0000000000000001000000000000000084860
2023051812            12     ECASSIANO           25197327            25197327 12~971003                     E0000000000000002000000000000000170800
2023052612            12     JONATHAN1           25198740            25198740 12~193483~0                   S0000000000000001000000000000000087680
2023051212            12     ECASSIANO           25199309            25199309 12~970334                     E0000000000000002000000000000000256880
2023051612            12     JONATHAN1           25203200            25203200 12~192999~0                   S0000000000000001000000000000000459050
2023050812            12     DDONATO             25204525            25204525 12~192650~0                   S0000000000000001000000000000000285880
2023051012            12     DDONATO             25204525            25204525 12~192763~0                   S0000000000000001000000000000000285880
2023051212            12     ECASSIANO           25204525            25204525 12~970334                     E0000000000000001000000000000000285880
2023051612            12     DDONATO             25204525            25204525 12~193011~0                   S0000000000000001000000000000000285880
2023052612            12     ECASSIANO           25204526            25204526 12~972055                     E0000000000000002000000000000000279540
2023052912            12     DCRUZ               25204526            25204526 12~193558~0                   S0000000000000001000000000000000139770
2023051012            12     DDONATO             25204556            25204556 12~192763~0                   S0000000000000002000000000000000665460
2023051512            12     ECASSIANO           25204556            25204556 12~970457                     E0000000000000002000000000000000658220
2023052412            12     ESALVINO            25204556            25204556 12~193351~0                   S0000000000000001000000000000000329110
2023052612            12     ECASSIANO           25204556            25204556 12~972055                     E0000000000000010000000000000003362500
2023050412            12     ECASSIANO           25204558            25204558 12~969111                     E0000000000000002000000000000000700000
2023050512            12     DCRUZ               25204558            25204558 12~192538~0                   S0000000000000002000000000000000700000
2023050512            12     JLIRA               25204558            25204558 12~969226                     E0000000000000002000000000000000700000
2023050512            12     ECASSIANO           25204558            25204558 12~969394                     E0000000000000004000000000000001028000
2023050512            12     DCRUZ               25204558            25204558 12~192600~0                   S0000000000000002000000000000000514000
2023051112            12     ECASSIANO           25204558            25204558 12~970134                     E0000000000000004000000000000000815440
2023051112            12     JCORREA             25204558            25204558 12~192840~0                   S0000000000000001000000000000000203860
2023051912            12     JCORREA             25204558            25204558 12~193191~0                   S0000000000000001000000000000000203860
2023052312            12     AGOMES              25204558            25204558 12~193294~0                   S0000000000000001000000000000000203860
2023052412            12     DCRUZ               25204558            25204558 12~193379~0                   S0000000000000001000000000000000203860
2023053012            12     ECASSIANO           25204558            25204558 12~972385                     E0000000000000003000000000000000632310
2023053012            12     ECASSIANO           25204558            25204558 12~972387                     E0000000000000004000000000000000845120
2023053112            12     JCORREA             25204558            25204558 12~193659~0                   S0000000000000001000000000000000211280
2023050412            12     DCRUZ               25775833            25775833 12~192532~0                   S0000000000000001000000000000000084870
2023051812            12     ECASSIANO           25775833            25775833 12~971011                     E0000000000000010000000000000000858300
2023052412            12     JCORREA             25775833            25775833 12~193344~0                   S0000000000000001000000000000000085830
2023052912            12     HERIANEC            25775833            25775833 12~193564~0                   S0000000000000001000000000000000085830
2023053112            12     JONATHAN1           25775833            25775833 12~193653~0                   S0000000000000001000000000000000085830
2023051812            12     ECASSIANO           25798301            25798301 12~971012                     E0000000000000002000000000000000128240
2023050412            12     ECASSIANO           25824250            25824250 12~969111                     E0000000000000002000000000000000389260
2023050512            12     ESALVINO            25824250            25824250 12~192576~0                   S0000000000000002000000000000000389260
2023050512            12     ECASSIANO           25824252            25824252 12~969255                     E0000000000000001000000000000000086970
2023050512            12     ESALVINO            25824252            25824252 12~192576~0                   S0000000000000001000000000000000086970
2023050512            12     JONATHAN1           25936865            25936865 12~192603~0                   S0000000000000001000000000000000132940
2023050212            12     JONATHAN1           25FC0225                     12~192380~0                   S0000000000000001000000000000000011770
2023050212            12     JONATHAN1           25FC0225                     12~192385~0                   S0000000000000001000000000000000011770
2023050912            12     JONATHAN1           25FC0225                     12~192665~0                   S0000000000000001000000000000000011770
2023051812            12     DDONATO             25FC0225                     12~193129~0                   S0000000000000001000000000000000011770
2023052212            12     JONATHAN1           25FC0225                     12~193253~0                   S0000000000000001000000000000000011770
2023052312            12     DDONATO             25FC0225                     12~193272~0                   S0000000000000001000000000000000011770
2023052612            12     DDONATO             25FC0225                     12~193440~0                   S0000000000000001000000000000000011770
2023052612            12     JONATHAN1           25FC0225                     12~193499~0                   S0000000000000001000000000000000011770
2023052912            12     DCRUZ               25FC0225                     12~193559~0                   S0000000000000060000000000000000706200
2023051612            12     ESALVINO            25FL5949                     12~193024~0                   S0000000000000024000000000000000217680
2023051812            12     CSOUZA              25FL5949                     12~193101~0                   S0000000000000005000000000000000045350
2023051812            12     JCORREA             25FL5949                     12~193144~0                   S0000000000000006000000000000000054420
2023051212            12     ECASSIANO           26053326            26053326 12~970368                     E0000000000000001000000000000000034630
2023051712            12     ECASSIANO           26053326            26053326 12~970831                     E0000000000000001000000000000000035300
2023050512            12     ESALVINO            26064029            26064029 12~192576~0                   S0000000000000001000000000000000040160
2023051212            12     ECASSIANO           26210982            26210982 12~970262                     E0000000000000001000000000000000062450
2023051812            12     ECASSIANO           26210982            26210982 12~971006                     E0000000000000002000000000000000125440
2023052612            12     JONATHAN1           26210982            26210982 12~193442~0                   S0000000000000001000000000000000062720
2023050412            12     ECASSIANO           26212145            26212145 12~968973                     E0000000000000001000000000000000039720
2023051212            12     ECASSIANO           26212145            26212145 12~970263                     E0000000000000001000000000000000039720
2023051912            12     ECASSIANO           26212145            26212145 12~971117                     E0000000000000004000000000000000158920
2023051912            12     ECASSIANO           26212147            26212147 12~971117                     E0000000000000005000000000000000264400
2023053012            12     JONATHAN1           26212147            26212147 12~193641~0                   S0000000000000001000000000000000052880
2023051812            12     JONATHAN1           26212166            26212166 12~193089~0                   S0000000000000001000000000000000103450
2023052612            12     JONATHAN1           26212166            26212166 12~193442~0                   S0000000000000002000000000000000206900
2023051812            12     ECASSIANO           26212167            26212167 12~971021                     E0000000000000001000000000000000353890
2023051812            12     ECASSIANO           26212167            26212167 12~971021                     E0000000000000001000000000000000354240
2023051812            12     ECASSIANO           26212167            26212167 12~971021                     E0000000000000001000000000000000354440
2023051812            12     ECASSIANO           26212167            26212167 12~971021                     E0000000000000001000000000000000354580
2023051912            12     ECASSIANO           26212167            26212167 12~971119                     E0000000000000001000000000000000354680
2023051812            12     JONATHAN1           26212168            26212168 12~193089~0                   S0000000000000001000000000000000350070
2023051812            12     ECASSIANO           26212168            26212168 12~971021                     E0000000000000001000000000000000352220
2023051812            12     ECASSIANO           26212168            26212168 12~971021                     E0000000000000001000000000000000353290
2023051812            12     ECASSIANO           26212168            26212168 12~971021                     E0000000000000001000000000000000353930
2023051812            12     ECASSIANO           26212168            26212168 12~971021                     E0000000000000001000000000000000354360
2023051812            12     ECASSIANO           26212168            26212168 12~971021                     E0000000000000001000000000000000354660
2023051812            12     ECASSIANO           26212168            26212168 12~971021                     E0000000000000001000000000000000354890
2023051812            12     ECASSIANO           26212168            26212168 12~971021                     E0000000000000001000000000000000355070
2023051812            12     ECASSIANO           26212168            26212168 12~971021                     E0000000000000001000000000000000355210
2023051812            12     ECASSIANO           26212168            26212168 12~971021                     E0000000000000001000000000000000355330
2023051812            12     ECASSIANO           26212168            26212168 12~971021                     E0000000000000001000000000000000355430
2023051812            12     ECASSIANO           26212168            26212168 12~971021                     E0000000000000001000000000000000355510
2023051812            12     ECASSIANO           26212168            26212168 12~971021                     E0000000000000001000000000000000355580
2023051812            12     ECASSIANO           26212168            26212168 12~971021                     E0000000000000001000000000000000355640
2023051812            12     ECASSIANO           26212168            26212168 12~971021                     E0000000000000001000000000000000355700
2023051812            12     ECASSIANO           26212168            26212168 12~971021                     E0000000000000001000000000000000355740
2023051112            12     ECASSIANO           26212551            26212551 12~970195                     E0000000000000002000000000000000133020
2023052612            12     ECASSIANO           26213046            26213046 12~972090                     E0000000000000001000000000000000624630
2023051912            12     JONATHAN1           26216304            26216304 12~11957~0                    S0000000000000002000000000000000034340
2023051812            12     ECASSIANO           26218100            26218100 12~971008                     E0000000000000002000000000000000174720
2023050412            12     DCRUZ               26218101            26218101 12~192518~0                   S0000000000000001000000000000000126430
2023050812            12     DCRUZ               26218101            26218101 12~192648~0                   S0000000000000001000000000000000126430
2023052212            12     ECASSIANO           26218101            26218101 12~971540                     E0000000000000001000000000000000133390
2023052312            12     ECASSIANO           26218101            26218101 12~971626                     E0000000000000001000000000000000130240
2023050412            12     ECASSIANO           26223687            26223687 12~968973                     E0000000000000002000000000000000082680
2023052512            12     DDONATO             26223757            26223757 12~193419~0                   S0000000000000002000000000000000072640
2023051812            12     ECASSIANO           26224655            26224655 12~971055                     E0000000000000002000000000000000026700
2023051712            12     ECASSIANO           26224695            26224695 12~970808                     E0000000000000001000000000000000168120
2023051812            12     ECASSIANO           26224695            26224695 12~971011                     E0000000000000002000000000000000338180
2023051912            12     ECASSIANO           26224709            26224709 12~971117                     E0000000000000003000000000000000424080
2023051912            12     ECASSIANO           26224719            26224719 12~971117                     E0000000000000005000000000000000211850
2023051912            12     ECASSIANO           26224720            26224720 12~971117                     E0000000000000004000000000000000096240
2023051712            12     DCRUZ               26225295            26225295 12~193080~0                   S0000000000000001000000000000000065390
2023051712            12     DCRUZ               26225296            26225296 12~193080~0                   S0000000000000001000000000000000067280
2023051912            12     DCRUZ               26226059            26226059 12~971245                     E0000000000000003000000000000000152040
2023052312            12     HERIANEC            26226059            26226059 12~193307~0                   S0000000000000001000000000000000050680
2023052912            12     DCRUZ               26226059            26226059 12~0                          E0000000000000001000000000000000047340
2023052912            12     AGOMES              26226059            26226059 12~193568~0                   S0000000000000001000000000000000050680
2023052312            12     HERIANEC            26226097            26226097 12~193307~0                   S0000000000000001000000000000000027850
2023052912            12     DCRUZ               26226097            26226097 12~0                          E0000000000000001000000000000000027850
2023052912            12     AGOMES              26226097            26226097 12~193568~0                   S0000000000000001000000000000000027850
2023052512            12     DCRUZ               26227736            26227736 12~0                          E0000000000000001000000000000000034030
2023052512            12     DCRUZ               26232141            26232141 12~971899                     E0000000000000002000000000000000927880
2023050612            12     DCRUZ               26232145            26232145 12~969434                     E0000000000000001000000000000000458470
2023052512            12     DCRUZ               26232145            26232145 12~971899                     E0000000000000002000000000000000897720
2023051712            12     HERIANEC            26237255            26237255 12~193053~0                   S0000000000000001000000000000000546770
2023050412            12     DDONATO             26240656            26240656 12~192525~0                   S0000000000000001000000000000000339970
2023052212            12     ECASSIANO           26240656            26240656 12~971516                     E0000000000000001000000000000000342470
2023051812            12     JONATHAN1           26241944            26241944 12~193104~0                   S0000000000000001000000000000000043250
2023050812            12     DCRUZ               26241947            26241947 12~192646~0                   S0000000000000001000000000000000114920
2023052212            12     ECASSIANO           26241947            26241947 12~971540                     E0000000000000001000000000000000127790
2023052212            12     DCRUZ               26242867            26242867 12~193257~0                   S0000000000000001000000000000000874700
2023053012            12     JONATHAN1           26244312            26244312 12~193593~0                   S0000000000000001000000000000000047550
2023050812            12     DCRUZ               26248152            26248152 12~192646~0                   S0000000000000001000000000000000158360
2023052212            12     JONATHAN1           26249758            26249758 12~193231~0                   S0000000000000001000000000000000094230
2023051212            12     ECASSIANO           26249760            26249760 12~970251                     E0000000000000005000000000000000550100
2023052212            12     JONATHAN1           26249760            26249760 12~193231~0                   S0000000000000001000000000000000110020
2023051912            12     DCRUZ               26250791            26250791 12~971245                     E0000000000000003000000000000000044250
2023050412            12     ECASSIANO           26251920            26251920 12~969061                     E0000000000000001000000000000000290000
2023050512            12     JONATHAN1           26251920            26251920 12~192550~0                   S0000000000000001000000000000000290000
2023050512            12     DCRUZ               26251920            26251920 12~0                          E0000000000000001000000000000000290000
2023051212            12     ECASSIANO           26252693            26252693 12~970263                     E0000000000000001000000000000000034590
2023052312            12     HERIANEC            26252693            26252693 12~193307~0                   S0000000000000001000000000000000034590
2023051512            12     HERIANEC            26255406            26255406 12~192951~0                   S0000000000000001000000000000000577240
2023052312            12     HERIANEC            26260865            26260865 12~193307~0                   S0000000000000001000000000000000712880
2023052912            12     DCRUZ               26260865            26260865 12~0                          E0000000000000001000000000000000694350
2023052912            12     AGOMES              26260865            26260865 12~193568~0                   S0000000000000001000000000000000712880
2023051812            12     ECASSIANO           26262064            26262064 12~971024                     E0000000000000001000000000000000453000
2023051812            12     ECASSIANO           26262064            26262064 12~971024                     E0000000000000001000000000000000453000
2023050412            12     ECASSIANO           26271785            26271785 12~969083                     E0000000000000001000000000000000064510
2023051712            12     DCRUZ               26272439            26272439 12~193080~0                   S0000000000000001000000000000000106320
2023052912            12     DCRUZ               26272439            26272439 12~193550~0                   S0000000000000001000000000000000106320
2023051212            12     ECASSIANO           26273298            26273298 12~970249                     E0000000000000001000000000000000206190
2023051212            12     ECASSIANO           26273302            26273302 12~970249                     E0000000000000001000000000000000350670
2023051512            12     HERIANEC            26279908            26279908 12~192951~0                   S0000000000000001000000000000000023980
2023051512            12     HERIANEC            26279909            26279909 12~192951~0                   S0000000000000001000000000000000023260
2023051212            12     ECASSIANO           26280572            26280572 12~970262                     E0000000000000001000000000000000089060
2023051512            12     DDONATO             26280572            26280572 12~192957~0                   S0000000000000001000000000000000089060
2023051812            12     ECASSIANO           26280577            26280577 12~971010                     E0000000000000001000000000000000329520
2023051812            12     ECASSIANO           26280577            26280577 12~971010                     E0000000000000001000000000000000332600
2023051812            12     ECASSIANO           26280577            26280577 12~971010                     E0000000000000001000000000000000334140
2023050312            12     ECASSIANO           26280578            26280578 12~968838                     E0000000000000001000000000000000325320
2023051212            12     ECASSIANO           26280578            26280578 12~970267                     E0000000000000001000000000000000329800
2023051512            12     DDONATO             26280578            26280578 12~192957~0                   S0000000000000001000000000000000329800
2023051812            12     ECASSIANO           26280578            26280578 12~971010                     E0000000000000001000000000000000332790
2023051812            12     ECASSIANO           26280578            26280578 12~971010                     E0000000000000001000000000000000334290
2023052612            12     ECASSIANO           26280587            26280587 12~972090                     E0000000000000001000000000000000085290
2023051512            12     ECASSIANO           26282305            26282305 12~970457                     E0000000000000001000000000000000136580
2023051512            12     HERIANEC            26282305            26282305 12~192951~0                   S0000000000000001000000000000000136580
2023050512            12     ECASSIANO           26285349            26285349 12~969255                     E0000000000000001000000000000001449070
2023051812            12     ECASSIANO           26285349            26285349 12~971060                     E0000000000000001000000000000001490720
2023051812            12     ECASSIANO           26285349            26285349 12~971060                     E0000000000000001000000000000001504600
2023051812            12     ECASSIANO           26285349            26285349 12~971060                     E0000000000000001000000000000001511540
2023050912            12     DGALVAO             26285825            26285825 12~192708~0                   S0000000000000001000000000000000282650
2023050312            12     AGOMES              26287384            26287384 12~192480~0                   S0000000000000001000000000000000182300
2023052212            12     ECASSIANO           26287384            26287384 12~971509                     E0000000000000001000000000000000184980
2023051912            12     ECASSIANO           26287515            26287515 12~971117                     E0000000000000003000000000000000218430
2023052312            12     HERIANEC            26287515            26287515 12~193307~0                   S0000000000000001000000000000000072810
2023052312            12     HERIANEC            26288275            26288275 12~193307~0                   S0000000000000001000000000000000546050
2023052912            12     DCRUZ               26288279            26288279 12~0                          E0000000000000001000000000000000666750
2023052912            12     AGOMES              26288279            26288279 12~193568~0                   S0000000000000001000000000000000666750
2023050812            12     DCRUZ               26288295            26288295 12~192646~0                   S0000000000000001000000000000000588000
2023052312            12     DDONATO             26288298            26288298 12~193316~0                   S0000000000000001000000000000000615940
2023051512            12     DCRUZ               26292544            26292544 12~192959~0                   S0000000000000001000000000000000105710
2023051812            12     ECASSIANO           26292666            26292666 12~971009                     E0000000000000002000000000000000252680
2023051812            12     DCRUZ               26293891            26293891 12~193145~0                   S0000000000000001000000000000001528710
2023051112            12     ECASSIANO           26294290            26294290 12~970202                     E0000000000000001000000000000000076570
2023051712            12     DCRUZ               26300142            26300142 12~193080~0                   S0000000000000001000000000000000713110
2023052912            12     DCRUZ               26300142            26300142 12~0                          E0000000000000001000000000000000710140
2023052912            12     AGOMES              26300142            26300142 12~193568~0                   S0000000000000001000000000000000713110
2023051912            12     ECASSIANO           26300285            26300285 12~971119                     E0000000000000001000000000000001208030
2023051512            12     ECASSIANO           26304639            26304639 12~970457                     E0000000000000001000000000000000145130
2023051512            12     HERIANEC            26304639            26304639 12~192951~0                   S0000000000000001000000000000000145130
2023051912            12     ECASSIANO           26306227            26306227 12~971113                     E0000000000000001000000000000000048340
2023051912            12     JONATHAN1           26306227            26306227 12~193170~0                   S0000000000000001000000000000000048340
2023052512            12     ECASSIANO           26306227            26306227 12~972015                     E0000000000000001000000000000000048520
2023052512            12     DCRUZ               26306471            26306471 12~0                          E0000000000000001000000000000001938920
2023050412            12     ECASSIANO           26306472            26306472 12~968967                     E0000000000000001000000000000001796700
