1814567436      000000814567436ALLAN JOSE DANTAS DA MOTA                                                                                                                                                                               FCNrua presbito profirio da silva                                                                      capim macio                                       NATAL                                             RN590824200839803682408398036824202305130000000000000200002023051300000000000002000000000000040                                                  000000000000000000                                                                                                    000000000000000000
11045244481     000001045244481MARCOS THADEU SILVA DE AZEVEDO                                                                                                                                                                          FCNAVENIDA DOS EUCALIPTOS BL G A PTO 102                                                               NEOPOLIS                                          NATAL                                             RN591517100849675111208496751112202305310000000000000022082023053100000000000000220800000000040                                                  000000000000000000                                                                                                    000000000000000000
11048927490     000001048927490GILSON DE OLIVEIRA BRILHANTE                                                                                                                                                                            FCNPARACATI                                                                                            PLANALTO                                          NATAL                                             RN590000000848715738908487157389201702140000000000000489602023050200000000000003800000000000040                                                  000000000000000000                                                                                                    000000000000000000
11130613402     000001130613402MARIA APARECIDA DE FREITAS PEREIRA                                                                                                                                                                      FCNRUA TRINTA E CINCO                                                                                  CAJUPIRANGA                                       PARNAMIRIM                                        RN591572600848823477108488176457201202040000000000000130002023052400000000000001900000000000041                                                  000000000000000000cida_kaka19@hotmail.com                                                                             000000000000000000
11136663495     000001136663495KAIO JULIO DE SOUZA MAIA                                                                                                                                                                                FCNR PIRAPORA CONJUNTO PIRANGI                                                                         NEOPOLES                                          NATAL                                             RN590883300849816261608498162616202303240000000000000240002023051900000000000003500000000000040                                                  000000000000000000pepakaio@hotmail.com                                                                                000000000000000000
11220617482     000001220617482JOAO MARIA PEREIRA                                                                                                                                                                                      FCNAV JESSE PINTO FREIRE AP AUTO PECAS  MACAIBA                                                        CENTRO                                            MACAIBA                                           RN592800000849168864608491688646202104070000000000000600002023050400000000000005225000000000040                                                  000000000000000000                                                                                                    000000000000000000
11244066451     000001244066451RAPHAEL MACHADO DE MENESES CUNHA                                                                                                                                                                        FCNAV CEL ESTEVAM                                                                                      ALECRIM                                           NATAL                                             RN590350000849981056008499810560202305030000000000000830002023050300000000000008300000000000040                                                  000000000000000000raphaelcunha@gmail.com                                                                              000000000000000000
11732336431     000001732336431JOANDERSON LINS DE ARAUJO                                                                                                                                                                               FCNRUA MATUSALEM                                                                                       BOM PASTOR                                        NATAL                                             RN590600800848811513108488115131201511300000000000000200002023050400000000000000050000000000040                                                  000000000000000000joandersonlins@gmail.com                                                                            000000000000000000
12261556411     000002261556411JOSENBERG AMANSO ARAUJO                                                                                                                                                                                 FCNJOSE CEABRA QUADRA 12 BLCO M                                                                        VILAGE DOS MARES                                  NATAL                                             RN590785100849967060608499670606201402170000000000000006002023050400000000000001800000000000040                                                  000000000000000000                                                                                                    000000000000000000
12295260477     000002295260477EVANDRO SALDANHA TOSCANO                                                                                                                                                                                FCNRUA GUSTAVO CESAR DE MEDEIROS                                                                       RAINHA DO PRADO                                   NATAL                                             RN590000000849902011008499020110202201040000000000000130002023052700000000000000800000000000040                                                  000000000000000000                                                                                                    000000000000000000
12369934450     000002369934450EDSON DE MEDEIROS SILVA                                                                                                                                                                                 FCNAV DAO SILVEIRA                                                                                     CANDELARIA                                        NATAL                                             RN590669000848155774208481557742202305110000000000000120002023051100000000000001200000000000040                                                  000000000000000000                                                                                                    000000000000000000
12428676423     000002428676423FLAVIO BEZERRA DE MOURA                                                                                                                                                                                 FCNRNEOPOLIS 2925                                                                                      SANTA CATARINA                                    NATAL                                             RN591104400843082824208488056368200809120000000000000069392023050500000000000001400000000000040CADASTRO COMPLETO                                 000000000000000000navel@natalveiculos.com.br                                                                          000000000000000000
12469683467     000002469683467ANTONIO MARCOS DE LIMA MEDIROS                                                                                                                                                                          FCNCARTEIRO JOSE LUCIO                                                                                 NEOPOLIS                                          NATAL                                             RN590801600849195539608491955396202305260000000000000100002023052600000000000001000000000000040                                                  000000000000000000                                                                                                    000000000000000000
12483177417     000002483177417UBIRACY DA SILVA GOMES                                                                                                                                                                                  FCNTRAV  SAO LUIZ                                                                                      PLANALTO                                          NATAL                                             RN590732160843605539908499511867200603150000000000000012002023053000000000000001960000000000040Oficina 2007                                      000000000000000000UBIRACY-123@HOTMAIL.COM                                                                             000000000000000000
12498239421     000002498239421PAULO ALEX SANDRO SILVA DE NEGREIROS                                                                                                                                                                    FCNPRAIA DE BARRETA 16 CONDBARCELON                                                                    NOVA PARNAMIRIM                                   NATAL                                             RN590000000848819290808491359472200705080000000000000020802023051900000000000000600000000000041Oficina 2007                                      000000000000000000alexnegreiros1749@gmail.com                                                                         000000000000000000
12514691400     000002514691400IVANILSON PEDRO PEREIRA                                                                                                                                                                                 FCNSITIO BARROS PEDRO SN                                                                               CENTRO                                            LAJES PINTADAS                                    RN590000000848861080008488610800201505190000000000000055002023050200000000000001120000000000040                                                  000000000000000000navel@natalveiculos.com.br                                                                          000000000000000000
12654410480     000002654410480KLEDSON DE MENEZES SALES                                                                                                                                                                                FCNAV MARIA LACERDA MONTENEGRO                                                                         NOVA PARNAMIRIM                                   PARNAMIRIM                                        RN591526000843608156208494074278201007170000000000000061002023052400000000000002900000000000041CADASTRO COMPLETO                                 000000000000000000kledsonms@hotmail.com                                                                               000000000000000000
12754698400     000002754698400EDUARDO CESAR DE MELO SILVA                                                                                                                                                                             FCNRUA PROFESSOR TENORIO                                                                               ALECRIM                                           NATAL                                             RN590373600848816403008488164030202305170000000000000150002023051700000000000001098000000000050                                                  000000000000000000edujjs@gmail.com                                                                                    000000000000000000
12821750404     000002821750404JOSE LAURIMAR MARTINS DE MELO                                                                                                                                                                           FCNENG JOAQUIM CARDOSO                                                                                 PITIMBU                                           NATAL                                             RN590690100848872165008488721650201211160000000000000028002023050400000000000000780000000000040CONCESSIONÁRIAS OUTRA MARCA                       000000000000000000NAVEL@NATALVEICULOS.COM.BR                                                                          000000000000000000
12900387400     000002900387400HEVERTON APOENNA LEITE PALMEIRA                                                                                                                                                                         FCNRUA RAIMUNDO BASTOS DA SILVA AP 1702 CHACON                                                         CANDELARIA                                        NATAL                                             RN590646100849634262708496342627202208160000000000000384002023051900000000000003111000000000050                                                  000000000000000000heverton.palmeira@gmail.com                                                                         000000000000000000
13110522403     000003110522403FABIO MEDEIROS DE AZEVEDO                                                                                                                                                                               FCNAVENIDA PRUDENTE DE MORAIS AP 1004                                                                  LAGOA NOVA                                        NATAL                                             RN590562000849972735808499727358201512100000000000000210212023050400000000000000700000000000040                                                  000000000000000000                                                                                                    000000000000000000
13247417400     000003247417400FANUEL DANTAS DE SOUZA                                                                                                                                                                                  FCNAVELINO ANDRE DE CARVALHO                                                                           NOVA ESPERANA                                     PARNAMIRIM                                        RN591445000848803892008488038920202305170000000000000204112023051700000000000002041100000000040                                                  000000000000000000                                                                                                    000000000000000000
13516535466     000003516535466JOSE LUCIO TERTULIANO DA SILVA                                                                                                                                                                          FCNelisa branco pereira dos santos                                                                     PQ DAS NAOES                                      PARNAMIRIM                                        RN590000000849999999908499999999201810240000000000000055002023051500000000000002000000000000040                                                  000000000000000000                                                                                                    000000000000000000
13524044425     000003524044425CLAUDIO RODRIGUES DA COSTA NETO                                                                                                                                                                         FCNAV AYRTON SENNA N153C                                                                               NEOPOLIS                                          NATAL                                             RN590861000848812546808488125468201110200000000000000199982023053100000000000002800000000000040                                                  000000000000000000navel@natalveiculos.com.br                                                                          000000000000000000
13524470440     000003524470440JOAO MARIA JUSTINO DA FONSECA                                                                                                                                                                           FCNrua dos cometas                                                                                     planalto                                          NATAL                                             RN590732000848872219308488722193202305230000000000000140002023052300000000000001400000000000040                                                  000000000000000000                                                                                                    000000000000000000
13745489438     000003745489438LAELSON RAIMUNDO PEREIRA                                                                                                                                                                                FCNDEP LAURO ARRUDA CAMARA                                                                             BELA VISTA                                        PASSA E FICA                                      RN592180000848823549608488235796202305310000000000000290002023053100000000000002900000000000040                                                  000000000000000000                                                                                                    000000000000000000
14392680444     000004392680444MANOEL DA COSTA BELMONT                                                                                                                                                                                 FCNSALATIEL RUFINO DOS SANTOS                                                                          VALE DO SOL                                       PARNAMIRIM                                        RN591500000843272518008499955786200908030000000000000070002023051200000000000002800000000000040FROTISTAS                                         000000000000000000SEC.SERVICOS@NATALVEICULOS.COM.BR                                                                   000000000000000000
14484965429     000004484965429HELIO MEDEIROS DE DEUS                                                                                                                                                                                  FCNRUA ITAJA 14                                                                                        LAGOA NOVA                                        NATAL                                             RN590622700843211805500000000000202111180000000000000140002023051900000000000008700000000000040CADASTRO COMPLETO                                 000000000000000000navel@natalveiculos.com.br                                                                          000000000000000000
14519946476     000004519946476LUIS CARLOS DE LIMA RODRIGUES                                                                                                                                                                           FCNfrancisco dias                                                                                      extremox                                          NATAL                                             RN595750000849465570708494655707202303240000000000000400002023051600000000000001700000000000040                                                  000000000000000000                                                                                                    000000000000000000
14920683480     000004920683480JOELSON FERREIRA DA COSTA                                                                                                                                                                               FCNRUA ZENAIDE PEREIRA                                                                                 NEOPOLIS                                          NATAL                                             RN590861400849966073908499660739202305100000000000000340002023051000000000000003400000000000040                                                  000000000000000000joelsonbass@gmail.com                                                                               000000000000000000
15038226477     000005038226477ANTONIO SANTOS JUNIOR                                                                                                                                                                                   FCNARISTIDES LOBO 631                                                                                  L SECA                                            NATAL                                             RN590222100843212196708488217979202305230000000000000001002023052300000000000000010000000000040CADASTRO COMPLETO                                 000000000000000000antoniojr001@zipmail.com.br                                                                         000000000000000000
15060037444     000005060037444RODRIGO DA SILVA FERREIRA                                                                                                                                                                               FCNSITIO SERRA DO DOUTOR                                                                               ZONA RURAL                                        CAMPO REDONDO                                     RN592300000848885553208491100076202303240000000000000180002023050900000000000001716700000000051                                                  000000000000000000rodsilva35@gmail.com                                                                                000000000000000000
15179023467     000005179023467FELIPE DUARTE BEZERRA                                                                                                                                                                                   FCNSERRA MACAE                                                                                         PITIMBU                                           NATAL                                             RN590680900848748058508487480585202104080000000000000176612023050200000000000000600000000000040                                                  000000000000000000                                                                                                    000000000000000000
15231560499     000005231560499ADRIANO ALVES MONTEIRO                                                                                                                                                                                  FCNVILA LOBOS                                                                                          CANDELARIA                                        NATAL                                             RN590654400849149090508499298896201212200000000000000386002023050900000000000003500000000000041                                                  000000000000000000cc413@gm.com                                                                                        000000000000000000
15440639454     000005440639454DENILSON MIRANDA PENHA                                                                                                                                                                                  FCNRUA DOUTOR CARLOS MATHEUS                                                                           MONTE CASTELO                                     PARNAMIRIM                                        RN591462100818825640608188256406202305030000000000000124002023050300000000000001240000000000041                                                  000000000000000000denilsonmp1@gmail.com                                                                               000000000000000000
15628363499     000005628363499HUGO LEONARDO DA SILVA ARAUJO                                                                                                                                                                           FCNRua do Rosrio                                                                                       Candelria                                         NATAL                                             RN590654300848187870408481878704202305020000000000000480002023050200000000000004800000000000040                                                  000000000000000000                                                                                                    000000000000000000
15687963499     000005687963499ANTONIO JOSENILDO DA SILVA                                                                                                                                                                              FCNPARQUE DAS ESTRELAS                                                                                 PARQUE DAS ARVORES                                PARNAMIRIM                                        RN591542150949120355009491203550202207010000000000000144002023052600000000000002900000000000040                                                  000000000000000000                                                                                                    000000000000000000
15986941454     000005986941454TIAGO SOARES DE ARAUJO                                                                                                                                                                                  FCNVALDERCI VICTOR DA SILVA                                                                            SANTA LUZIA                                       NOVA CRUZ                                         RN592150000849198908308491989083202305160000000000000500002023051600000000000005000000000000040                                                  000000000000000000                                                                                                    000000000000000000
16493126436     000006493126436FABIO DE OLIVEIRA TEIXEIRA                                                                                                                                                                              FCNRUA DA DELEGACIA                                                                                    CAJUEIRO                                          TOUROS                                            RN595840000849182091908401820919202212280000000000000090002023051600000000000000950000000000040                                                  000000000000000000fabio_oliteixeira@hotmail.com                                                                       000000000000000000
16547602419     000006547602419CILENE ROMAO DA SILVA                                                                                                                                                                                   FCNROSADALIA                                                                                           JARDIM                                            SAO GONCALO DO AMARANTE                           RN592935250848807330108488073301202111240000000000000624002023053100000000000004260000000000040                                                  000000000000000000                                                                                                    000000000000000000
16657195400     000006657195400JENNIFFER GUIMARAES APOLINARIO MONTEIRO                                                                                                                                                                 FCNESTRELA DO HIDAIA                                                                                   NEOPOLIS                                          NATAL                                             RN590880900819933169008199331690202303010000000000000020002023052900000000000000550000000000040                                                  000000000000000000contatojenniffer@gmail.com                                                                          000000000000000000
16923949408     000006923949408JOSIVAN CAMILO BARBOSA                                                                                                                                                                                  FCNRUA REDENO                                                                                          SANTO ANTONIO                                     NATAL                                             RN590661800849907227208499072272202301120000000000000123002023051300000000000000900000000000040                                                  000000000000000000navel@natalveiculos.com.br                                                                          000000000000000000
17060407405     000007060407405ALESSANDRA RAYANE MEDEIROS DOS SANTOS                                                                                                                                                                   FCNRUA BACABAL                                                                                         AMARANTE                                          SAO GONCALO DO AMARANTE                           RN592966410848832503308488325033202201310000000000000460502023051600000000000000490000000000040                                                  000000000000000000alessandrarmsantos@gmail.com                                                                        000000000000000000
17185622409     000007185622409MARCOS PAULO TAVARES MEDEIROS                                                                                                                                                                           FCNAV MARIA LACERDA MONTINEGRO                                                                         NOVA PARNAMIRIM                                   PARNAMIRIM                                        RN591526000848849929508488499295202305220000000000000550002023052200000000000005500000000000040                                                  000000000000000000                                                                                                    000000000000000000
17234906436     000007234906436PAULO HENRIQUE SILVA AMORIM                                                                                                                                                                             FCNRUA PARACATI                                                                                        PLANALTO                                          NATAL                                             RN590731000849628806908496288069202305290000000000000540002023052900000000000005400000000000040                                                  000000000000000000                                                                                                    000000000000000000
17461907433     000007461907433DANIEL SOARES CANDIDO                                                                                                                                                                                   FCNRUA DR MARIO CAMRO                                                                                  CENTRO                                            BOA SAUDE                                         RN592600000848852764908488527649202305240000000000000100002023052400000000000001000000000000040                                                  000000000000000000                                                                                                    000000000000000000
19119777400     000009119777400NELSON PILAR GOIS JUNIOR                                                                                                                                                                                FCNRUA DJAIR GONALO DA ROCHA                                                                           ROSA DOS VENTOS                                   PARNAMIRIM                                        RN591415000849482571108494825711202208150000000000000018002023051500000000000000120000000000040                                                  000000000000000000                                                                                                    000000000000000000
19137108492     000009137108492RAPHAEL HEMERSON ALBUQUERQUE SANTOS                                                                                                                                                                     FCNrua rio pardo                                                                                       pitimbu                                           NATAL                                             RN590683500849709506108497095061000000000000000000000000000000000000000000000000000000000000  0                                                  000000000000000000                                                                                                    000000000000000000
19164966437     000009164966437ROBSON SILVA DANTAS VALENCA                                                                                                                                                                             FCNRUA JOAQUIM CAMARAO DE OLIVEIRA                                                                     MARCUJA                                           SANTA CRUZ                                        RN592000000849929218408499292184202305250000000000000020002023052500000000000000200000000000040                                                  000000000000000000                                                                                                    000000000000000000
19449431442     000009449431442JANDERSON FERREIRA DE OLIVEIRA                                                                                                                                                                          FCNrua aude de flechas                                                                                 PAJUARA                                           NATAL                                             RN591331900848722363408487223634202003120000000000000045002023053000000000000000930000000000040                                                  000000000000000000jandersonoliveira@gmail.com                                                                         000000000000000000
19603751472     000009603751472MANOEL VARELA NETO                                                                                                                                                                                      FCNRUA LAGO DA PEDRA                                                                                   PITIMBU                                           NATAL                                             RN590686000849945481508499445075201910300000000000000060002023051800000000000001900000000000051CADASTRO COMPLETO                                 000000000000000000frank.varela@hotmail.com                                                                            000000000000000000
19612297487     000009612297487JOAO BOSCO BARROSO                                                                                                                                                                                      FCNR IGUATAMA CONJUNTO PIRANGI                                                                         NEOPOLIS                                          NATAL                                             RN590881600843217565708491358553200504060000000000000620002023053000000000000000150000000000040CADASTRO COMPLETO                                 000000000000000000bosco@espacialautopecas.com.br                                                                      000000000000000000
19618585409     000009618585409KELMA LEANDRA GUIMARAES DA CRUZ                                                                                                                                                                         FCNAVENIDA PILOTO PEREIRA TIM                                                                          CENTRO                                            PARNAMIRIM                                        RN590000000849442022308494420223201911300000000000001100002023050300000000000003900000000000040                                                  000000000000000000                                                                                                    000000000000000000
110568977408    000010568977408CLEDSON LUCAS FERREIRA DESOUZA                                                                                                                                                                          FCNRUA MARANATA                                                                                        PLANALTO                                          NATAL                                             RN590732400849127722708491277227202305050000000000000380002023050500000000000003800000000000040                                                  000000000000000000lucascledson499@gmail.com                                                                           000000000000000000
113113780497    000013113780497HELIO FURTADO MACIEL DA COSTA                                                                                                                                                                           FCNDAS CASTANHOLAS 10                                                                                  NOVA PARNAMIRIM                                   PARNAMIRIM                                        RN591514360843208558608499810980200902270000000000000556002023051000000000000009000000000000041                                                  000000000000000000NAVEL@NATALVEICULOS.COM.BR                                                                          000000000000000000
114386593420    000014386593420JOAO DE DEUS SILVA                                                                                                                                                                                      FCNR DOS CANARIOS 8106                                                                                 C SATELITE                                        NATAL                                             RN590690200843218110900000000000200202200000000000000018122023053100000000000000900000000000040CONCESSIONÁRIAS OUTRA MARCA                       000000000000000000sec.servicos@natalveiculos.com.br                                                                   000000000000000000
120228368472    000020228368472MANOEL NAZARENO DE OLIVEIRA                                                                                                                                                                             FCNR AUDE CASTELO BRANCO                                                                               PAJUSSARA                                         NATAL                                             RN591332300848768631408487686314202104290000000000000375032023051700000000000000300000000000040                                                  000000000000000000nazarenooliveira@gmail.com                                                                          000000000000000000
122963480415    000022963480415JOSE  TAVARES   DA   ROCHA                                                                                                                                                                              FCNRUA   JOAO LEO  GONZAGA  8                                                                          COAP IPACUACU                                     NATAL                                             RN595080000849971388008499713890202302020000000000000268002023051500000000000000100000000000040                                                  000000000000000000navel@natalveiculos.com.br                                                                          000000000000000000
123031867491    000023031867491MARIA DOS SANTOS FERREIRA XAVIER                                                                                                                                                                        FCNAV ABEL CABRAL AP 2014 BL F COND ALAMEDA BOA                                                        NOVA PARNAMIRIM                                   PARNAMIRIM                                        RN591512500849116160308491161603201104130000000000000102002023051900000000000001800000000000041                                                  000000000000000000mmdossantos440@gmail.com                                                                            000000000000000000
125450301472    000025450301472ANA PAULA MARIANO DE OLIVEIRA                                                                                                                                                                           FCNAV ALAMEDA DAS MANSOES                                                                              BLOCO 27 AP 204                                   NATAL                                             RN591251000849122496708492172772202010150000000000000289852023051700000000000003300000000000040                                                  000000000000000000ana_matiano@gmail.com                                                                               000000000000000000
126077361453    000026077361453CLAUDIONOR BARROSO BARBALHO                                                                                                                                                                             FCNRUA DAS ANDORINHAS                                                                                  PITIMBU                                           NATAL                                             RN590673900843218192608491118585200307090000000000000037622023052400000000000002660000000000040CADASTRO COMPLETO                                 000000000000000000claudionorbarbalho1946@hotmail.com                                                                  000000000000000000
127254755468    000027254755468ERALDO CORDEIRO DE LIMA                                                                                                                                                                                 FCNAV ESDRAS CESAR DA SILVA CASA 16                                                                    POTENGI                                           NATAL                                             RN591082400848101208508481012085202305120000000000000210002023052500000000000008500000000000050CADASTRO COMPLETO                                 000000000000000000eraldo.cordeiro09@gmail.com                                                                         000000000000000000
128261976491    000028261976491MARIA LEONOR DELGADO DE FREITAS                                                                                                                                                                         FCNAV PORTO DE PEDRAS                                                                                  NEOPOLIS                                          NATAL                                             RN590866400849136131308491361313202111220000000000002610002023051300000000000000200000000000041CADASTRO COMPLETO                                 000000000000000000mleonordelgado@hotmail.com                                                                          000000000000000000
128938798453    000028938798453JANILSON FREIRE DE OLIVEIRA                                                                                                                                                                             FCNRUA PADRE JOAO MARIA                                                                                COHABINAL                                         PARNAMIRIM                                        RN591407100848152364308481523643202105270000000000000199002023051600000000000006050000000000040CADASTRO COMPLETO                                 000000000000000000jf821314@gmail.com                                                                                  000000000000000000
128978510159    000028978510159EDUARDO CARLOS DA SILVA                                                                                                                                                                                 FCNR VER MANOEL CORINGA DE LEMOS                                                                       P NEGRA                                           NATAL                                             RN590901900849497358108487798437201804030000000000000017412023052900000000000000160000000000040                                                  000000000000000000arianeeduardo@hotmail.com                                                                           000000000000000000
134603824491    000034603824491FATIMA REGINA DE ANDRADE LIRA MOTA                                                                                                                                                                      FCNRUA DES GERENIAS PINHEIRO DA CAMARA FILHO AP 1307 BL A                                              PONTA NEGRA                                       NATAL                                             RN590000000819596423108195964231201811090000000000000260002023053100000000000000200000000000040                                                  000000000000000000fralmota@hotmail.com                                                                                000000000000000000
135370457867    000035370457867NIVALDO MATIAS DE MELO                                                                                                                                                                                  FCNTRAVESSA BELA VISTA                                                                                 CENTRO                                            SAO JOSE DE MIPIBU                                RN591620000849478554408494785544202205100000000000000050002023052300000000000000250000000000040                                                  000000000000000000                                                                                                    000000000000000000
135819014472    000035819014472FRANCISCO LUIZ SANTOS DE LIMA                                                                                                                                                                           FCNAV MARANGUAPE                                                                                       NOSSA SENHORA DA APRESENTAO                       NATAL                                             RN591140000848861113808488611138202301180000000000000450002023050900000000000005000000000000040                                                  000000000000000000franciscojoiasrn@gmail.com                                                                          000000000000000000
139281329468    000039281329468PAULO SERGIO BEZERRA DA SILVA                                                                                                                                                                           FCNRN RUA TOMAZ MATIAS84 CASA                                                                          NOVA PARNAMIRIM                                   PARNAMIRIM                                        RN591500000849905727008499057270201601270000000000000085002023051500000000000000230000000000040CADASTRO COMPLETO                                 000000000000000000sec.servicos@natalveiculos.com.br                                                                   000000000000000000
141611802849    000041611802849RENATO SERRA                                                                                                                                                                                            FCNR DONA MARIA CAMARA 1997                                                                            CAPIM MACIO                                       NATAL                                             RN590824300843642117108499852963200912180000000000000023002023052600000000000000250000000000040CADASTRO COMPLETO                                 000000000000000000sec.servicos@natalveiculos.com.br                                                                   000000000000000000
146536388453    000046536388453JOSE AILTON ALVES DE ANDRADE                                                                                                                                                                            FCNRUA FLOR DA SERRA                                                                                   PITIMBU                                           NATAL                                             RN590695150843218768608499727857200502280000000000000039002023053000000000000001700000000000041CADASTRO COMPLETO                                 000000000000000000ailtonandrade144@gmail.com                                                                          000000000000000000
150065467434    000050065467434JORGE EDUARDO DA SILVA                                                                                                                                                                                  FCNAV MOEZANIEL DE CARVALHO                                                                            CENTRO                                            SAO JOSE DE MIPIBU                                RN591620000849993038908499930389202305110000000000002100002023051100000000000021000000000000040                                                  000000000000000000                                                                                                    000000000000000000
150333100468    000050333100468HERACLITO MARIA SOARES JUNIOR                                                                                                                                                                           FCNR ANIBAL BRANDAOBL FAP 401                                                                          NOVA PARNAMIRIM                                   NATAL                                             RN590890000849994116608499941166201703240000000000002839002023050500000000000003800000000000040CADASTRO COMPLETO                                 000000000000000000navel@natalveiculos.com.br                                                                          000000000000000000
150370103491    000050370103491GENILDA CARINA DA SILVA                                                                                                                                                                                 FCNRUA BARAUNAAS 571A                                                                                  DIX SPTE ROSADO                                   NATAL                                             RN000000000888884282008888842820202305260000000000000180002023052600000000000001800000000000041CADASTRO COMPLETO                                 000000000000000000navel@natalveiculos.com.br                                                                          000000000000000000
150961381434    000050961381434ROGERIO CEZAR PESSOA E SILVA                                                                                                                                                                            FONAV ERIVAN FRANCA                                                                                    PONTA NEGRA                                       NATAL                                             RN590901000849625493508496254935202106300000000000000500002023051700000000000002500000000000040                                                  000000000000000000rogeriopessoa@gmail.com                                                                             000000000000000000
151066874468    000051066874468MARIA CARMELITA IVO DE MACEDO                                                                                                                                                                           FCNRUA CONSOLACAO                                                                                      NOSSA SENHORA DA APRESENTACAO                     NATAL                                             RN591150400849484232508486312225202205130000000000000700002023052500000000000001800000000000041                                                  000000000000000000mariliaivo.diretora@gmail.com                                                                       000000000000000000
152344886400    000052344886400MANOEL DAVI DO NASCIMENTO NETO                                                                                                                                                                          FCNRUA PADRE CICERO                                                                                    CENTRO                                            LAGOA NOVA                                        RN593900000849975315808499753158201208080000000000000120002023053000000000000001800000000000040FROTISTAS                                         000000000000000000                                                                                                    000000000000000000
152388441404    000052388441404MAINALDO SOARES DOS SANTOS                                                                                                                                                                              FCNRIO PARDO                                                                                           PITIMBU                                           NATAL                                             RN590683500843218389608499266992201207020000000000000180002023053000000000000001500000000000040                                                  000000000000000000navel@natalveiculos.com.br                                                                          000000000000000000
154731135400    000054731135400LUCIANO BERNARDO DE OLIVEIRA                                                                                                                                                                            FCNJANDAIRA                                                                                            NORDESTE                                          NATAL                                             RN590423600849907188908499071889202205100000000000004854002023051500000000000002500000000000040                                                  000000000000000000                                                                                                    000000000000000000
155353290453    000055353290453FRANCISCO ALZIBERTO BESSA                                                                                                                                                                               FCNAv Comandante Petit                                                                                 boa esperana                                      PARNAMIRIM                                        RN591401900849123827008491238270202305170000000000000280002023051700000000000002800000000000040                                                  000000000000000000                                                                                                    000000000000000000
162549413415    000062549413415JOVITA MONTEIRO DA SILVA                                                                                                                                                                                FCNrua rio guaju                                                                                       pitimbu                                           NATAL                                             RN590683700849864929908498649299202305260000000000000300002023052600000000000003000000000000040                                                  000000000000000000                                                                                                    000000000000000000
165571371404    000065571371404GIOVANI DUARTE QUEIROZ PINTO                                                                                                                                                                            FCNAV  GOV SILVIO PEDROSA AP 2001 ED PORTO SALINAS                                                     AREIA PRETA                                       NATAL                                             RN590141000842010209708499434114200710190000000000000122412023052700000000000001497600000000051CADASTRO COMPLETO                                 000000000000000000giovanidqp@gmail.com                                                                                000000000000000000
166340772404    000066340772404WELLINGTON SEBASTIAO GONZAGA                                                                                                                                                                            FCNTRAV SANTO HILARIO 55                                                                               PLANALTO                                          NATAL                                             RN590731130843207879908499507086200905200000000000001150002023050500000000000006000000000000040CADASTRO COMPLETO                                 000000000000000000wellingtongonzaga@hotmail.com                                                                       000000000000000000
167161162491    000067161162491MARCOS DANIEL DE MEDEIROS                                                                                                                                                                               FCNAVENIDA DOS CAIAPOS AP 2006 TORRE MILAO                                                             PITIMBU                                           NATAL                                             RN590674000848839629908488396299201608190000000000001150002023050200000000000000700000000000040                                                  000000000000000000mdmeletro@gmail.com                                                                                 000000000000000000
170039057445    000070039057445EWERTON RODRIGUES DA SILVA                                                                                                                                                                              FCNTRAV VAGALUPIA                                                                                      PRAIA DO MEIO                                     NATAL                                             RN590101500848808212208488082122201609010000000000000360002023051200000000000006900000000000040                                                  000000000000000000                                                                                                    000000000000000000
170340447400    000070340447400ALDRYN SALDANHA RODRIGUES LIMA                                                                                                                                                                          FCNRUA JAIRO TINOCO                                                                                    LAGOA NOVA                                        NATAL                                             RN590545300849604919008496049190201302190000000000001000002023050400000000000000800000000000041                                                  000000000000000000aldrynlima@tjrn.jus.br                                                                              000000000000000000
170421486490    000070421486490YAZAN SEREDDIN                                                                                                                                                                                          FCNMARIA LACEERDA MONTINEGRO                                                                           NOVA PARNAMIRIM                                   PARNAMIRIM                                        RN591526000849851299908498512999202112070000000000000550002023051000000000000002300000000000040                                                  000000000000000000yazan_sarildeen@hotmail.com                                                                         000000000000000000
170695503405    000070695503405CAIO FERNANDO FERREIRA DO NASCIMENTO                                                                                                                                                                    FCNCARLOS FILGUEIRA                                                                                    PLANALTO                                          NATAL                                             RN590731660848603077708486030777202212160000000000000239002023052200000000000005990000000000040                                                  000000000000000000                                                                                                    000000000000000000
170792771400    000070792771400SEBASTIAO ARAUJO DE AZEVEDO                                                                                                                                                                             FCNRUA ANTONIO BASILO DANTAS                                                                           MARIA  TERCEIRA                                   PARELHAS                                          RN593600000849962653808498387050200705040000000000000110912023050900000000000000200000000000040CADASTRO COMPLETO                                 000000000000000000tiao_sebast@hotmail.com                                                                             000000000000000000
172192070420    000072192070420JOAO MARIA DE ANDRADE                                                                                                                                                                                   FCNRUA SALTO DO CEU N  14A NSAPRESENTACAO                                                              NSAPRESENTACAO                                    NATAL                                             RN590000000849403659008494036590201001300000000000000129212023052000000000000000100000000000041                                                  000000000000000000sec.servicos@natalveiculos.com.br                                                                   000000000000000000
179222676491    000079222676491ANSELMO ESTANISLAU SANTOS DE MEDEIROS                                                                                                                                                                   FCNDAS PASTORINHAS                                                                                     LAGOA AZUL                                        NATAL                                             RN591387100848898607308488986073202305030000000000000160002023050300000000000001600000000000041                                                  000000000000000000estanislaumedeiros@yahoo.com.br                                                                     000000000000000000
179230849472    000079230849472CARLOS ANTONIO DE ANDRADE                                                                                                                                                                               FCNRUA MIRAMANGUE 100                                                                                  FELIPE CAMARAO                                    NATAL                                             RN590541800843205514608488871233202210110000000000000480002023051800000000000000360000000000040                                                  000000000000000000ARACIJ@HOTMAIL.COM                                                                                  000000000000000000
180545017491    000080545017491LUIS FERREIRA DA SILVA805                                                                                                                                                                               FCNrua judui dantas do nascimento                                                                      mangabeira 1                                      NATAL                                             RN580561408088603192480886031924202305020000000000000100002023050200000000000001000000000000040                                                  000000000000000000                                                                                                    000000000000000000
183889744400    000083889744400DINARTE LYRA LIMA                                                                                                                                                                                       FCNRUA ADAIL PAMPLONA DE MENEZES BL 5 AP 403                                                           NOVA PARNAMIRIM                                   PARNAMIRIM                                        RN591516800843232368908488429006201210240000000000000200002023050500000000000000840000000000041                                                  000000000000000000DINARTELYRA@YAHOO.COM.BR                                                                            000000000000000000
190385071434    000090385071434WENDELL DE MOURA MATIAS                                                                                                                                                                                 FCNRUA EPITACIO MELO                                                                                   CENTRO                                            CAMPO GRANDE                                      RN596800000849883451508488245153202110010000000000000424002023052900000000000004035000000000050                                                  000000000000000000wendelll@hotmail.com                                                                                000000000000000000
191438039468    000091438039468ULISSES ALVES DE ARAUJO                                                                                                                                                                                 FCNPOVOADO ROCA DO URUBU A                                                                             ROCHA DO URUBU                                    FLORANIA                                          RN593350000849986573408498190287202301160000000000000240002023053000000000000002300000000000040                                                  000000000000000000vendasdiretas@espacialautopecas.com.br                                                              000000000000000000
191505135400    000091505135400LUIS ANTONIO CARNEIRO DA SILVA                                                                                                                                                                          FCNRUA ANTONIO PINHEIRO                                                                                DIXSEPT ROSADO                                    NATAL                                             RN590521500848819649908488196499202003090000000000000208302023051600000000000000180000000000041CADASTRO COMPLETO                                 000000000000000000LUISANTONIO74@GMAIL.COM                                                                             000000000000000000
191527333434    000091527333434ELIEZER LEVI DA SILVA                                                                                                                                                                                   FCNRUA PADRE JOAO MARIA                                                                                COHABINAL                                         PARNAMIRIM                                        RN591407100842030410408492236195200701020000000000000230002023052700000000000000600000000000041Oficina 2007                                      000000000000000000levi2801@yahoo.com.br                                                                               000000000000000000
193908229472    000093908229472VERIDIANO MAIA DOS SANTOS                                                                                                                                                                               FCNRUA CUBA                                                                                            PARQUE DAS NAES                                   PARNAMIRIM                                        RN592661580849925373008499253730202305030000000000000563002023053000000000000000200000000000040                                                  000000000000000000dianomaia@gmail.com                                                                                 000000000000000000
12005020000180  002005020000180HPPNEUS E AUTOPECAS LTDA                                                                                                                                                                                JCNBR 117 TREVO DA ENTRADA SN                                                                          CENTRO                                            UMARIZAL                                          RN598650000843397244508499725570201111170000000000001078802023051700000000000019368000000000040CONCESSIONÁRIAS OUTRA MARCA                       000000000002500000evolucaocontabilidadeuzl@dominioboxe.com.br                                                         000000000000000000
13035948000170  003035948000170RENATO SERRA                                                                                                                                                                                            JCNRUA ELIA BARROS 9108                                                                                PONTA NEGRA                                       NATAL                                             RN590901400843642117108499210776201102280000000000000021002023052600000000000000400000000000041CONCESSIONÁRIAS OUTRA MARCA                       000000000000000000marebrisanatal@gmail.com                                                                            000000000000000000
13446400000385  003446400000385CITYLOC CT  LOCACAO DE VEICULOS E SERVICOS LTDA                                                     CITYCAR                                                                                             JCNRUA REITOR ONOFRE LOPES GALPAO A LOTES 7 E 8 QUADRA 10                                              CANDELARIA                                        NATAL                                             RN590662300843312554208491017524201908170000000000000400002023053000000000000004800000000000050                                                  000000000007000000esc.servicos@natalveiculos.com.br                                                                   000000000000000000
13571167000109  003571167000109MENEZES E MATIAS LTDA                                                                                                                                                                                   JCNRUA BUMBA MEU BOI 30 TERREO                                                                         LAGOA AZUL                                        NATAL                                             RN591350000843661555100000000000200901150000000000000204002023052900000000000038191200000000040CONCESSIONÁRIAS OUTRA MARCA                       000000000001000000sec.servicos@natalveiculos.com.br                                                                   000000000000000000
14139781000150  004139781000150W M DE OLIVEIRA  EPP                                                                                                                                                                                    JCNAV CUNHA DA MOTA                                                                                    CENTRO                                            MOSSORO                                           RN596001600843317599608499020624202305030000000000004949502023050300000000000049495000000000040                                                  000000000001000000comercialdospneus@ig.com.br                                                                         000000000000000000
14198047000162  004198047000162R PONTES LOCADORA DE VEICULOS LTDA ME                                                                                                                                                                   JCNAV ERIVAN FRANCA SALA 16 A                                                                          PONTA NEGRA                                       NATAL                                             RN590901000843201728608487560988200709140000000000001490002023053100000000000003790000000000040Oficina 2007                                      000000000004000000financeiro@mirassolrentacar.com.br                                                                  000000000000000000
14798469000330  004798469000330GNC AUTOMOTORES LTDA                                                                                                                                                                                    JCNAV LUIS VIANA CONCESSIONARIA                                                                        SAO CRISTOVAO                                     SALVADOR                                          BA415003000713616804407181257304201408280000000000000513742023053000000000000014938600000000040                                                  000000000001000000nfe@grupognc.com.br                                                                                 000000000000000000
15236182000118  005236182000118P DE T P GOMES                                                                                                                                                                                          JCNAV DO CONTORNO 06 BR 304 KM 46                                                                      ALTO DO SUMARE                                    MOSSORO                                           RN596335520843312125108487215744200508230000000000002400002023050400000000000014131800000000041CONCESSIONÁRIAS OUTRA MARCA                       000000000003000000PDETPGOMES@HOTMAIL.COM                                                                              000000000000000000
15519136000126  005519136000126RICARDO HENRIQUE DE SOUZA                                                                                                                                                                               JCNAV ANTONIO SEVERIANO DA CAMARA                                                                      CENTRO                                            JOAO CAMARA                                       RN595500000849454644708494546447202104070000000000002695202023052600000000000028379200000000040                                                  000000000001200000ricardohenrique05@yahoo.com.br                                                                      000000000000000000
17233713000144  007233713000144ISAIAS PAIXAO DA SILVA ME                                                                                                                                                                               JCNR LUIZ BELARMINO DA COSTA 3526  CX POSTAL 16                                                        CENTRO                                            GOIANINHA                                         RN591730000843243208608488463543200604120000000000000006402023050400000000000004500000000000040Oficina 2007                                      000000000000000000sec.servicos@natalveiculos.com.br                                                                   000000000000000000
18228979000161  008228979000161COSTEIRA LOCADORA DE VEIC EIRELI                                                                                                                                                                        JONAV RUI BARBOSA                                                                                      LAGOA NOVA                                        NATAL                                             RN590563000843234328408432343284201110170000000000000047342023052400000000000001600000000000040                                                  000000000000800000adm.costeira@hotmail.com                                                                            000000000000000000
18399834000123  008399834000123POSTO PLANALTO LTDA                                                                                                                                                                                     JCNAV SENADOR SALGADO FILHO 2580                                                                       CANDELARIA                                        NATAL                                             RN059063000843217253508494073993200303180000000000000867032023051900000000000000670000000000040CADASTRO COMPLETO                                 000000000000300000planaltonatal@terra.com.br                                                                          000000000000000000
18554891000130  008554891000130MARIZALDO SOUZA DE ARAUJO ME                                                                                                                                                                            JCNDOM LEME                                                                                            CENTRO                                            PARNAMIRIM                                        RN591401850842720333908494073340201007050000000000000986402023051000000000000001389400000000040CONCESSIONÁRIAS OUTRA MARCA                       000000000002500000aparecida24@bol.com.br                                                                              000000000000000000
18584693000380  008584693000380JOSE HERICO AUTOPECAS LTDA                                                                          HP PNEUS E AUTOPECAS                                                                                JCNRUA JOAQUIM TEIXEIRA DE MOURA 383                                                                   BOA VIAGEM                                        APODI                                             RN597000000843397244508499725570201909260000000000000561122023051700000000000012912000000000040                                                  000000000000400000financeiro.hppneus@globomail.com                                                                    000000000000000000
19111857000153  009111857000153JOSE DE ARIMATEA BEZERRA MORAIS ME                                                                                                                                                                      JONAV GOV TARCISIO DE VASCONCELOS MAIA LOTE 103                                                        CANDELARIA                                        NATAL                                             RN590660350843206885808491268452200211200000000000000083742023050500000000000001611100000000040CONCESSIONÁRIAS OUTRA MARCA                       000000000004000000sofiatnfe@gmail.com                                                                                 000000000000000000
19196986000191  009196986000191JCBENTO DE LIMA ME                                                                                                                                                                                      JCNCAPRICHOSOS DE PILARES                                                                              JARDIM PLANALTO                                   PARNAMIRIM                                        RN591451550843645432708494181187200903050000000000001685002023052600000000000001480000000000040CONCESSIONÁRIAS OUTRA MARCA                       000000000000500000NAVEL@NATALVEICULOS.COM.BR                                                                          000000000000000000
110873711000124 010873711000124JOSE LEONARDO BARBOSA DANTAS ME                                                                                                                                                                         JCNAV RUI BARBOSA 23                                                                                   LAGOA NOVA                                        NATAL                                             RN590563000843084676808491125800201001040000000000000460802023052300000000000012348000000000040CONCESSIONÁRIAS OUTRA MARCA                       000000000001500000POTIGUAR@POTIGUAR.COM.BR                                                                            000000000000000000
111523267000180 011523267000180LA DE BRITO FREIOS  SERVICOS ME                                                                                                                                                                         JCNRUA DINARTE MARIZ 241 A                                                                             CENTRO                                            MACAIBA                                           RN592800000843271427508494410706201401200000000000000320002023050300000000000002580000000000040CONCESSIONÁRIAS OUTRA MARCA                       000000000001200000LUIZADRIANOBRITO@HOTMAIL.COM                                                                        000000000000000000
111936085000130 011936085000130LOJAO DAS PECAS  MULTIMARCAS LTDA                                                                                                                                                                       JONRUA PRESIDENTE JOSE BENTO 459                                                                       ALECRIM                                           NATAL                                             RN590373000843615101700000000000200408140000000000000074972023052300000000000090811200000000040CONCESSIONÁRIAS OUTRA MARCA                       000000000006000000CONTASAPAGAR@LOJAODASPECAS.COM.BR                                                                   000000000000000000
111936648000190 011936648000190CAR SERVICOS LANTERNAGEM E PINTURA LTDA ME                                                                                                                                                              JONRUA MARECHAL HERMES 517                                                                             BOM JARDIM                                        MOSSORO                                           RN596002100843321496500000000000200201020000000000000571122023051000000000000014660200000000041CONCESSIONÁRIAS OUTRA MARCA                       000000000006500000financeirocarservicos@outlook.com                                                                   000000000000000000
112212973000173 012212973000173BOA TERRA AUTOMOVEIS DE ARAPIRACA LTDA                                                                                                                                                                  JONMARECHAL DEODORO DA FONSECA                                                                         JARDIM TROPICAL                                   ARAPIRACA                                         AL573160610824009153608235299888200908030000000000000323002023052200000000000017944100000000040CADASTRO COMPLETO                                 000000000002000000contasapagar@boaterraveiculos.com.br                                                                000000000000000000
112215362000189 012215362000189J P DA SILVA JUNIOR                                                                                 2A LOCAÇOES INTELIGENTES                                                                            JCNAV BAIA DOS GOLFINHOS                                                                               PRAIA DA PIPA                                     TIBAU DO SUL                                      RN591780000849191919108491919191202305310000000000000010002023053100000000000000100000000000040                                                  000000000000000000joaojunior21@live.com                                                                               000000000000000000
112483495000136 012483495000136MISTERCAR CENTRO DE REPARACAO AUTOMOTIVA LTDA                                                                                                                                                           JONAVGOVERNADOR TACISIO DE VASCONCELOS MAIA                                                            CANDELARIA                                        NATAL                                             RN590657800843207451308400000000201010220000000000000973962023052600000000000000800700000000040CONCESSIONÁRIAS OUTRA MARCA                       000000000004000000valneibione@gmail.com                                                                               000000000000000000
112801601000182 012801601000182PROTASIO LOCACAO E TURISMO LTDA                                                                                                                                                                         JONAV ENGENHEIRO ROBERTO FREIRE                                                                        CAPIM MACIO                                       NATAL                                             RN590786000844008282908496204010200201170000000000000017352023052200000000000001380000000000040CONCESSIONÁRIAS OUTRA MARCA                       000000000002500000composddes@protour.com.br                                                                           000000000000000000
116904145000157 016904145000157ELAINE E VANESSA OFICINA AUTOMOTIVA LTDA                                                            DS PNEUS                                                                                            JCNAV SENADOR SALGADO FILHO                                                                            CANDELARIA                                        NATAL                                             RN590640000843206877200000000000201308060000000000000477602023053000000000000035556000000000040                                                  000000000001000000dspneusltda@gmail.com.br                                                                            000000000000000000
117857389000199 017857389000199SEVERINO DO RAMOS PEDRO                                                                                                                                                                                 JCNR CAMPANARIO                                                                                        NEOPOLIS                                          NATAL                                             RN590843400848859432608488594326201905170000000000000348002023052500000000000007176000000000040                                                  000000000000500000sdpsilva10@gmail.com                                                                                000000000000000000
118484846000100 018484846000100G V N DOS SANTOS  ME                                                                                                                                                                                    JONAV PRESIDENTE DUTRA                                                                                 ILHA DE SANTA LUIZA                               MOSSORO                                           RN596250000843062322808488262826201312100000000000000161962023052500000000000010311000000000040CONCESSIONÁRIAS OUTRA MARCA                       000000000002000000FUZAOSERVICE@GMAIL.COM                                                                              000000000000000000
120660039000142 020660039000142AUTOMOBILE COMERCIO DE PECAS LTDA                                                                                                                                                                       JONAV DAO SILVEIRA LETRA A                                                                             CANDELARIA                                        NATAL                                             RN590661800843207691308402076913201608270000000000000014002023051900000000000018018800000000040                                                  000000000001000000financeiro@automobilepecas.com.br                                                                   000000000000000000
120918940000171 020918940000171EDUARDO TEIXEIRA BATISTA DA SILVA 03675323447                                                                                                                                                           JCNAV DOUTOR LUIS ANTONIO                                                                              CENTRO                                            PARNAMIRIM                                        RN591400900843645131008488651954202212190000000000000588002023052400000000000006456000000000040                                                  000000000000200000edlennon_dark@hotmail.com                                                                           000000000000000000
121007691000125 021007691000125RN AUTOCAR COMERCIO DE AUTOPECAS EIRELI                                                             RN AUTOCAR                                                                                          JCNENG ROBERTO BEZERRA FREIRE                                                                          SAO GONCALO DO AMARANTE                           SAO GONCALO DO AMARANTE                           RN592973960843278661308491277385201708090000000000002990002023052900000000000004900000000000040                                                  000000000001700000rnautocar1@gmail.com                                                                                000000000000000000
122921897000129 022921897000129M BRASIL BELTRAO COMERCIO VAREJISTA  ME                                                                                                                                                                 JCNRUA 29 DE OUTUBRO                                                                                   CENTRO                                            ACU                                               RN596500000843331219308433312193201508040000000000000600002023052600000000000034200000000000040                                                  000000000004500000knowhowcontabil@yahoo.com.br                                                                        000000000000000000
124546366000129 024546366000129MULTCAR CENTRO AUTOMOTIVO LTDA EPP                                                                                                                                                                      JONRUA JOAQUIM TEODORO DE OLIVEIRA                                                                     NOVA PARNAMIRIM                                   PARNAMIRIM                                        RN591513900842030224408420302244201702240000000000000042002023051700000000000001800000000000041                                                  000000000002500000capsnparnamirim.pecas@yahoo.com.br                                                                  000000000000000000
126064375000109 026064375000109JUDMILLER CORREIA DOS SANTOS 00847196488                                                                                                                                                                JCNR PRESIDENTE CASTELO BRANCO                                                                         BOM PASTOR                                        NATAL                                             RN590601000848817752008488177520202305020000000000000249002023050200000000000002490000000000040                                                  000000000000000000santosjudmiller@gmail.com                                                                           000000000000000000
126876864000165 026876864000165COMERCIAL OIL EXPRESS LTDA  ME                                                                                                                                                                          JCNAV PILOTO PEREIRA TIM BR 101                                                                        CENTRO                                            PARNAMIRIM                                        RN591400010849864876608488357237202006040000000000000840002023052900000000000002900000000000040                                                  000000000000800000comercialoilexpress@hotmaill.com                                                                    000000000000000000
127363410000153 027363410000153A  E AUTOPECAS E SERVICOS LTDA                                                                                                                                                                          JCNAV FELIPE CAMARAO                                                                                   ROSA DOS VENTOS                                   PARNAMIRIM                                        RN591415800849618230208496182302202103180000000000000377602023052400000000000005600000000000040                                                  000000000000800000edsonautopecas20@gmail.com                                                                          000000000000000000
127668694000196 027668694000196ALMERINDA SOILA DA ROSA FERREIRA  ME                                                                                                                                                                    JCNAV GOVERNADOR TARCISIO DE VASCONCELOS MAIA                                                          CANDELARIA                                        NATAL                                             RN590660350843206814408432068144201708240000000000000158002023052900000000000009900000000000040                                                  000000000000400000topcaroficinarn@gmail.com                                                                           000000000000000000
129305098000177 029305098000177T C SERVICOS AUTOMOTIVOS LTDA  EPP                                                                  T C SERVICOS                                                                                        JONAV INTERVENTOR MARIO CAMARA                                                                         ALECRIM                                           NATAL                                             RN590326000843223626008494073135201902010000000000000503242023051600000000000001031600000000040                                                  000000000003600000financeiro@tcautospa.com.br                                                                         000000000000000000
129957873000179 029957873000179D DALYSON PINHEIRO                                                                                  AUTO ELETRICA PINHEIRO                                                                              JCNAV DOUTOR LUIZ CARLOS                                                                               DOM ELIZEU                                        ACU                                               RN596500000843331488508499429295202102250000000000001313282023053000000000000013225200000000040                                                  000000000000000000autoelet@hotmail.com                                                                                000000000000000000
133780782000188 033780782000188AB DA SILVA COMERCIO VEICULOS EIRELI                                                                                                                                                                    JCNLUCIA VIVEIROS                                                                                      NEOPOLIS                                          NATAL                                             RN590860050849620328208496203282202305260000000000000060002023052600000000000000600000000000040                                                  000000000000000000                                                                                                    000000000000000000
135865657000104 035865657000104V L DE OLIVEIRA LIMA                                                                                BARAGADA AUTO PECAS                                                                                 JCNRUA NOVA JERUSALEM QUADRA 05 LOTE A                                                                 CENTRO                                            EXTREMOZ                                          RN595750000849963449308499634493202210050000000000001867202023052300000000000022747200000000040                                                  000000000001500000mccsobrinho@gmail.com                                                                               000000000000000000
