10000000001007300000000010073ESPACIAL AUTO PECAS LTDA                          FFNAV. NASCIMENTO DE CASTRO                          LAGOA NOVA                                        2408102 NATAL                                             RN59056450AV. NASCIMENTO DE CASTRO                          LAGOA NOVA                                        2408102 NATAL                                             RN59056450AV. NASCIMENTO DE CASTRO                          LAGOA NOVA                                        2408102 NATAL                                             RN59056450084032041000000000000000084032041000marcos.marcal@nbsi.com.br                                                                           marcos.marcal@nbsi.com.br                                                                           000000000000000000000000000                                                                                                                  .                   . MSOUTROS                                            00000000000000000019000101                                                                       000000000002005022520100127201012292010122900000000
10000005684048900000056840489VALERIO HENRIQUE MARQUES SOUTO                    FCNRUA MARCOS CAVALCANTE                             QUINTAS                                           2408102 NATAL                                             RN59035050                                                                                                                                                                        RUA MARCOS CAVALCANTE                             QUINTAS                                           2408102 NATAL                                             RN59035050000000000000000000000000084999326510valeriohmsouto@gmail.com                                                                            valeriohmsouto@gmail.com                                                                            100000000000000000000000000                                                                                                                  1719464             ITMCOUTROS                                            00000000000000000019780424                                                                       000000000002021071320210715202305082023050800000000
10000005690641200000056906412ROGERIO DE OLIVEIRA BARBOSA                       FCNRUA DOS COLIBRIS                                  AMARANTE                                          2412005 SAO GONCALO DO AMARANTE                           RN59296545RUA DOS COLIBRIS                                  AMARANTE                                          2412005 SAO GONCALO DO AMARANTE                           RN59296545RUA DOS COLIBRIS                                  AMARANTE                                          2412005 SAO GONCALO DO AMARANTE                           RN59296545084988747876084988747876084988747876rogertur2015@gmail.com                                                                              rogertur2015@gmail.com                                                                              100000000000000000000000000                                                                                                                  12628868            ITMOMOTORISTA                                         00000000000000000019741113                                                                       000000000002018113020210925202109252021092500000000
10000006632947700000066329477HILDERLINE CAMARA DE OLIVEIRA                     FCNRUA LUCIA VIVEIROS  AP - 306 - RES. CENTRAL PARK  NEOPOLIS                                          2408102 NATAL                                             RN59086005RUA LUCIA VIVEIROS  AP - 306 - RES. CENTRAL PARK  NEOPOLIS                                          2408102 NATAL                                             RN59086005RUA LUCIA VIVEIROS                                NEOPOLIS                                          2408102 NATAL                                             RN59086005084996334020084996334020084996334020hilderlinec@hotmail.com                                                                             hilderlinec@hotmail.com                                                                             100000000000000000000000000                                                                                                                  001382666           SSFSFUNCIONARIO PUBLICO                               00000000000000000019750201                                                                       000000000002020101320230413202305102023051000000000
10000026334640400000263346404SIDNEY GURGEL                                     FCNAV. HERMES DA FONSECA                             TIROL                                             2408102 NATAL                                             RN59014555AV. HERMES DA FONSECA                             TIROL                                             2408102 NATAL                                             RN59014555AV. HERMES DA FONSECA                             TIROL                                             2408102 NATAL                                             RN59014555084996230809000000000000084999828527sgur@terra.com.br                                                                                   sgur@terra.com.br                                                                                   000000000000000000000000000                                                                                                                  48070               SSMCMEDICO                                            00000000000000000019381120                                                                       000000000002004123020141016202305032023050300000000
10000028616200800000286162008JULIA MONTEIRO SCHENKEL                           FCNRUA PRAIA DO RIO DOCE APTO 703                    PONTA NEGRA                                       2408102 NATAL                                             RN59094480RUA PRAIA DO RIO DOCE APTO 703                    PONTA NEGRA                                       2408102 NATAL                                             RN59094480RUA PRAIA DO RIO DOCE                             PONTA NEGRA                                       2408102 NATAL                                             RN59094480084994427373084994427373084994427373juliamonteiroschenkel@gmail.com                                                                     juliamonteiroschenkel@gmail.com                                                                     100000000000000000000000000                                                                                                                  1080696171          ISFCADMINISTRACAO                                     00000000000000000019840425                                                                       000000000002021022220230505202305052023050500000000
10000031754341500000317543415FRANCISCO DE OLIVEIRA CABRAL JUNIOR               FCNRUA PADRE CICERO BATISTA CS 5 RESIDENCIAL EDEM    EMAUS                                             2403251 PARNAMIRIM                                        RN59148330RUA PADRE CICERO BATISTA CS 5 RESIDENCIAL EDEM    EMAUS                                             2403251 PARNAMIRIM                                        RN59148330RUA PADRE CICERO BATISTA                          EMAUS                                             2403251 PARNAMIRIM                                        RN59148330084036432641000000000000084988481176cabralprof@yahoo.com                                                                                cabralprof@yahoo.com                                                                                000000000000000000000000000                                                                                                                  71548               RNMSOUTROS                                            00000000000000000019450203                                                                       000000000002002112020100608202305222023052200000000
10000056755686700000567556867REGINA DE FATIMA DOS SANTOS BRAZ                  FCNRUA DOUTOR MUCIO VILLAR RIBEIRO DANTAS CASA E9    PONTA NEGRA                                       2408102 NATAL                                             RN59092580RUA DOUTOR MUCIO VILLAR RIBEIRO DANTAS CASA E9    PONTA NEGRA                                       2408102 NATAL                                             RN59092580RUA DOUTOR MUCIO VILLAR RIBEIRO DANTAS            PONTA NEGRA                                       2408102 NATAL                                             RN59092580084032362006084999828760084999810255santosbraz@gmail.com                                                                                santosbraz@gmail.com                                                                                000000000000000000000000000                                                                                                                  3672494             SSFCACESSORIA                                         00000000000000000019550520                                                                       000000000002010112020120821202305302023053000000000
10000058798242000000587982420JOSE DE OLIVIERA E SILVA                          FCNRUA ANISIO DE SOUZA                               LAGOA NOVA                                        2408102 NATAL                                             RN59064330RUA ANISIO DE SOUZA                               LAGOA NOVA                                        2408102 NATAL                                             RN59064330RUA ANISIO DE SOUZA                               LAGOA NOVA                                        2408102 NATAL                                             RN59064330084032342167084999835663084999835663joseoliveira2015@yahoo.com.br                                                                       joseoliveira2015@yahoo.com.br                                                                       000000000000000000000000000                                                                                                                  66220               IMMSOUTROS                                            00000000000000000019421227                                                                       000000000002016122020161221202305032023050300000000
10000073693340900000736933409CRISTIANO CLAYTON SOUZA LIMA                      FCNRUA JOSE DAMIAO                                   ABOLICAO                                          2408003 MOSSORO                                           RN59619140RUA JOSE DAMIAO                                   ABOLICAO                                          2408003 MOSSORO                                           RN59619140RUA JOSE DAMIAO                                   ABOLICAO                                          2408003 MOSSORO                                           RN59619140084988990810084988990810084988990810arionemaia@gmail.com                                                                                arionemaia@gmail.com                                                                                000000000000000000000000000                                                                                                                  1.536.596           SSMSCOMERCIANTE                                       00000000000000000019790520                                                                       000000000002005012020230418202305252023052500000000
10000080567843300000805678433BOANERGES VICTOR SOARES DE ARAUJO                 FCNRUA PROFESSOR CLEMENTINO CAMARA  AP 1101          BARRO VERMELHO                                    2408102 NATAL                                             RN59030330RUA PROFESSOR CLEMENTINO CAMARA  AP 1101          BARRO VERMELHO                                    2408102 NATAL                                             RN59030330RUA PROFESSOR CLEMENTINO CAMARA                   BARRO VERMELHO                                    2408102 NATAL                                             RN59030330084099535174000000000000084099535174boanergesvee@hotmail.com                                                                            boanergesvee@hotmail.com                                                                            100000000000000000000000000                                                                                                                  1848704             SSMSACADEMIA DE GINASTICA                             00000000000000000019900129                                                                       000000000002023022720230228202305312023053100000000
10000080648347400000806483474ISA LEANDRO SOARES AQUINO SILVA                   FCNAV DOS CAIAPOS  CASA 217                          PITIMBU                                           2408102 NATAL                                             RN59067400AV DOS CAIAPOS  CASA 217                          PITIMBU                                           2408102 NATAL                                             RN59067400AV DOS CAIAPOS                                    PITIMBU                                           2408102 NATAL                                             RN59067400084032183626000000000000084999837822isa.leandro@hotmail.com                                                                             isa.leandro@hotmail.com                                                                             100000000000000000000000000                                                                                                                  1634640             SSFSECONOMISTA                                        00000000000000000019800711                                                                       000000000002007102420071026200910142009101400000000
10000082867240700000828672407VILMA FERREIRA DA SILVA                           FCNAVENIDA AGACI DE SOUZA                            CENTRO                                            2401503 BARCELONA                                         RN59410000AVENIDA AGACI DE SOUZA                            CENTRO                                            2401503 BARCELONA                                         RN59410000AVENIDA AGACI DE SOUZA                            CENTRO                                            2401503 BARCELONA                                         RN59410000084988009874000000000000084988009874vilmaluna74@gmail.com                                                                               vilmaluna74@gmail.com                                                                               000000000000000000000000000                                                                                                                  1892920             SSMSTAXISTA                                           00000000000000000019760514                                                                       000000000002023050320230509202305162023051600000000
10000082961247500000829612475SUZIENNE COSME BILRO DA SILVA P MEDEIROS          FCNRUA CEARA MIRIM APT 702                           TIROL                                             2408102 NATAL                                             RN59020240RUA CEARA MIRIM APT 702                           TIROL                                             2408102 NATAL                                             RN59020240RUA CEARA MIRIM                                   TIROL                                             2408102 NATAL                                             RN59020240084999295585084999295585084999295585patriotamedeiros@gmail.com                                                                          patriotamedeiros@gmail.com                                                                          100000000000000000000000000                                                                                                                  1657017             RNMCPSICOLOGO                                         00000000000000000019800312                                                                       000000000002004123000000000000000000000000000000000
10000083135642100000831356421MARCIA PEREIRA DOS ANJOS                          FCNRUA RIO AZUL  LD AP-301 BL C                      EMAUS                                             2403251 PARNAMIRIM                                        RN59148743RUA RIO AZUL  LD AP-301 BL C                      EMAUS                                             2403251 PARNAMIRIM                                        RN59148743RUA RIO AZUL                                      EMAUS                                             2403251 PARNAMIRIM                                        RN59148743084988478060000000000000084999069109marciarn@yahoo.com.br                                                                               marciarn@yahoo.com.br                                                                               100000000000000000000000000                                                                                                                  1622329             ITFSENFERMEIRA                                        00000000000000000019790907                                                                       000000000002014121720230414202305112023051100000000
10000083970940400000839709404MARCELO HENRIQUE DIAS FERREIRA                    FCNAV. DAS AMERICAS                                  NOVA PARNAMIRIM                                   2403251 PARNAMIRIM                                        RN59158150AVENIDA AYRTON SENNA BL B AP 203                  NOVA PARNAMIRIM                                   2403251 PARNAMIRIM                                        RN59151600AV. DAS AMERICAS                                  NOVA PARNAMIRIM                                   2403251 PARNAMIRIM                                        RN59158150084988269204084988269204084988269204marcelloreal@hotmail.com                                                                            marcelloreal@hotmail.com                                                                            100000000000000000000000000                                                                                                                  1701154             ITMSBANCARIO                                          00000000000000000019830219                                                                       000000000002011100820120120202305292023052900000000
10000085556246300000855562463HERIKA PESSOA COSTA MARINHO                       FCNRUA MINISTRO MIGUEL SEABRA FAGUNDES               PITIMBU                                           2408102 NATAL                                             RN59066390RUA MINISTRO MIGUEL SEABRA FAGUNDES               PITIMBU                                           2408102 NATAL                                             RN59066390RUA MINISTRO MIGUEL SEABRA FAGUNDES               PITIMBU                                           2408102 NATAL                                             RN59066390084999176920000000000000084999176920herikamarinho2009@hotmail.com                                                                       herikamarinho2009@hotmail.com                                                                       000000000000000000000000000                                                                                                                  1890388             ITFCARQUITETO                                         00000000000000000019790901                                                                       000000000002021070620211011202305302023053000000000
10000085827045500000858270455LUCIANA SOUTO DE MEDEIROS                         FCNDESEMBARGADOR ADAUTO MAIA                         LAGOA NOVA                                        2408102 NATAL                                             RN59054480DESEMBARGADOR ADAUTO MAIA                         LAGOA NOVA                                        2408102 NATAL                                             RN59054480DESEMBARGADOR ADAUTO MAIA                         LAGOA NOVA                                        2408102 NATAL                                             RN59054480084998637353000000000000084998637353lusouto.direito@gmail.com                                                                           lusouto.direito@gmail.com                                                                           100000000000000000000000000                                                                                                                  1552736             SSFSFISIOTERAPEUTA                                    00000000000000000019790317                                                                       000000000002004123020020129202305052023050500000000
10000085888745200000858887452ADRIANO OLIVEIRA FERNANDES                        FCNR SAO PEDRO 68                                    DIX SEPT ROSADO                                   2408102 NATAL                                             RN59000000                                                                                                                                                                        R SAO PEDRO 68                                    DIX SEPT ROSADO                                   2408102 NATAL                                             RN59000000084032230435000000000000084999293779navel@natalveiculos.com.br                                                                          navel@natalveiculos.com.br                                                                          000000000000000000000000000                                                                                                                  1614584             SSMCTAXISTA                                           00000000000000000019791112                                                                       000000000002009070620090706202305152023051500000000
10000093571747100000935717471RODRIGO FERNANDES DE LIMA                         FCNRUA CAMAPUA                                       PIUM                                              2403251 PARNAMIRIM                                        RN59160414RUA CAMAPUA                                       PIUM                                              2403251 PARNAMIRIM                                        RN59160414RUA CAMAPUA                                       PIUM                                              2403251 PARNAMIRIM                                        RN59160414084991449204084991449204084991449204rodrigofernandestrt21@gmail.com                                                                     rodrigofernandestrt21@gmail.com                                                                     100000000000000000000000000                                                                                                                  308211131           TJMSADJUNTO DE DIREITO                                00000000000000000019810819                                                                       000000000002011092620120223202305022023050200000000
10000095857443000000958574430ROBERVAL GOIS CARDOSO JUNIOR                      FCNAVENIDA DAS BRANCAS DUNAS                         CANDELARIA                                        2408102 NATAL                                             RN59064720AVENIDA DAS BRANCAS DUNAS                         CANDELARIA                                        2408102 NATAL                                             RN59064720AVENIDA DAS BRANCAS DUNAS                         CANDELARIA                                        2408102 NATAL                                             RN59064720084081179546084981179546084981179546robervaljr@gmail.com                                                                                robervaljr@gmail.com                                                                                100000000000000000000000000                                                                                                                  1851557             ITMSOUTROS                                            00000000000000000019800627                                                                       000000000002016070520160705202305292023052900000000
10000096492341600000964923416ERICA SOUZA MEDEIROS                              FCNRUA JORNALISTA FRANCISCO SINEDINO AP 401          LAGOA NOVA                                        2408102 NATAL                                             RN59062570RUA JORNALISTA FRANCISCO SINEDINO AP 401          LAGOA NOVA                                        2408102 NATAL                                             RN59062570RUA JORNALISTA FRANCISCO SINEDINO                 LAGOA NOVA                                        2408102 NATAL                                             RN59062570084988112449084994045591084988112449ericasouzamed@gmail.com                                                                             ericasouzamed@gmail.com                                                                             000000000000000000000000000                                                                                                                  1685977             ITFSADMINISTRACAO                                     00000000000000000019810710                                                                       000000000002006073120220520202305222023052200000000
10000097176940000000971769400ALYSON GUIMARAES DE OLIVEIRA                      FCNTABELIAO JOSE PROCOPIO                            CENTRO                                            2406700 LAJES                                             RN59000000TABELIAO JOSE PROCOPIO                            CENTRO                                            2406700 LAJES                                             RN59000000TABELIAO JOSE PROCOPIO                            CENTRO                                            2406700 LAJES                                             RN59000000084999821872000000000000000000000000                                                                                                                                                                                                        000000000000000000000000000                                                                                                                  2212403             ITMSAUTONOMO                                          00000000000000000019790425                                                                       000000000002014122420141224202305262023052600000000
10000097290742400000972907424FRANKLIN GLEDSON FERREIRA DA SILVA                FCNRUA SAMPAIO CORREIA                               BOM PASTOR                                        2408102 NATAL                                             RN59060150                                                                                                                                                                        RUA SAMPAIO CORREIA                               BOM PASTOR                                        2408102 NATAL                                             RN59060150084988337851000000000000084981695793franklingledson@bol.com.br                                                                          franklingledson@bol.com.br                                                                          000000000000000000000000000                                                                                                                  1672989             SSMSOUTROS                                            00000000000000000019820202                                                                       000000000002022010520220105202305062023050600000000
10000099798247000000997982470JOSE ROBERTO ALVES                                FCNRUA LUCIA VIVEIROS  BLOCO 05 AP 1705              NEOPOLIS                                          2408102 NATAL                                             RN59086005RUA LUCIA VIVEIROS  BLOCO 05 AP 1705              NEOPOLIS                                          2408102 NATAL                                             RN59086005RUA LUCIA VIVEIROS                                NEOPOLIS                                          2408102 NATAL                                             RN59086005084000000000084991289796084991289796pdigital2007@hotmail.com                                                                            pdigital2007@hotmail.com                                                                            100000000000000000000000000                                                                                                                  1845814             SSMSOUTROS                                            00000000000000000019790111                                                                       000000000002021033120230519202305192023051900000000
10000102872813100001028728131RANDERSON BORGES DE PAULA NASCENTE                FCNRUA IRMAOS CRISPIM, Q10, LOTE                     ITAMARATY                                         5201108 ANAPOLIS                                          GO75050120RUA IRMAOS CRISPIM, Q10, LOTE                     ITAMARATY                                         5201108 ANAPOLIS                                          GO75050120RUA IRMAOS CRISPIM, Q10, LOTE                     ITAMARATY                                         5201108 ANAPOLIS                                          GO75050120062991192129062991192129062991192129rand_nascente@hotmail.com                                                                           rand_nascente@hotmail.com                                                                           000000000000000000000000000                                                                                                                  4848657             DGMOAUTONOMO                                          00000000000000000019880502                                                                       000000000002023051900000000000000000000000000000000
10000104870044500001048700445EDERSON PIRES XAVIER DE MEDEIROS                  FCNAV DOUTOR SILVIO BEZERRA DE MELO                  CENTRO                                            2408102 NATAL                                             RN59390000AV DOUTOR SILVIO BEZERRA DE MELO                  CENTRO                                            2408102 NATAL                                             RN59390000AV DOUTOR SILVIO BEZERRA DE MELO                  CENTRO                                            2408102 NATAL                                             RN59390000000000000000084999822344084999822344piresxavier@hotmsil.com                                                                             piresxavier@hotmsil.com                                                                             100000000000000000000000000                                                                                                                  1712490             SSMCPRODUTOR RURAL                                    00000000000000000019820405                                                                       000000000002017112420180131202305032023050300000000
10000105837245900001058372459LYANA PATRICIA DE FREITAS CAMARA PESSOA           FCNRUA AGUA DOCE CS -B CJ STA CATARINA               POTENGI                                           2408102 NATAL                                             RN59112470RUA AGUA DOCE CS -B CJ STA CATARINA               POTENGI                                           2408102 NATAL                                             RN59112470RUA AGUA DOCE                                     POTENGI                                           2408102 NATAL                                             RN59112470084987425232084000000000084981334616camara_lyana@hotmail.com                                                                            camara_lyana@hotmail.com                                                                            100000000000000000000000000                                                                                                                  1923266             SSFSOUTROS                                            00000000000000000019821121                                                                       000000000002015033120150331202305032023050300000000
10000106427849300001064278493TOMAS SILVEIRA GUIMARAES FILHO                    FCNRUA SACHET APT 900 RESID MIRANTE JOAO OLI         RIBEIRA                                           2408102 NATAL                                             RN59012420RUA SACHET APT 900 RESID MIRANTE JOAO OLI         RIBEIRA                                           2408102 NATAL                                             RN59012420RUA SACHET                                        RIBEIRA                                           2408102 NATAL                                             RN59012420084032117567084032043000084994310080TOMAS@NATALVEICULOS.COM.BR                                                                          TOMAS@NATALVEICULOS.COM.BR                                                                          000000000000000000000000000                                                                                                                  1680495             RNMSPRODUTOR RURAL                                    00000000000000000019820510                                                                       000000000002004120720080623202109102021091000000000
10000106530445500001065304455MARIA LUIZA DA SILVA SANTOS                       FCNMANOEL MIRANDA                                    ALECRIM                                           2408102 NATAL                                             RN59037250                                                                                                                                                                        MANOEL MIRANDA                                    ALECRIM                                           2408102 NATAL                                             RN59037250084098705089000000000000084988738641acessorios@espacialautopecas.com.br                                                                 acessorios@espacialautopecas.com.br                                                                 000000000000000000000000000                                                                                                                  1848435             ITFSPRODUTOR RURAL                                    00000000000000000019801117                                                                       000000000002022111120221111202305192023051900000000
10000107436744800001074367448BRENNO CARLOS DA SILVA                            FCNAV. AIRTON SENNA CERANBI                          NEOPOLIS                                          2408102 NATAL                                             RN59088100                                                                                                                                                                        AV. AIRTON SENNA CERANBI                          NEOPOLIS                                          2408102 NATAL                                             RN59088100084998185295000000000000084999101216sec.servicos@natalveiculos.com.br                                                                   sec.servicos@natalveiculos.com.br                                                                   000000000000000000000000000                                                                                                                  ITEP                ITMSACESSORIA                                         00000000000000000019820220                                                                       000000000002009121120091211202305312023053100000000
10000109295943200001092959432KLEBER MOZART MEDEIROS DA SILVA                   FCNRua Domingos Sávio                                ribeira                                           2408102 NATAL                                             RN59012490                                                                                                                                                                        Rua Domingos Sávio                                ribeira                                           2408102 NATAL                                             RN59012490000000000000000000000000084997070258kleber.mozart83@gmail.com                                                                           kleber.mozart83@gmail.com                                                                           000000000000000000000000000                                                                                                                  1.917.000           SSMCOUTROS                                            00000000000000000019830706                                                                       000000000002023042420230425202305092023050900000000
10000112543448100001125434481FRANCISCO SERGIO LUCAS                            FCNRUA ALBERTINO DE OLIVEIRA NOVA PARNAMIRIM         NOVA PARNAMIRIM                                   2403251 PARNAMIRIM                                        RN59152800                                                                                                                                                                        RUA ALBERTINO DE OLIVEIRA                         NOVA PARNAMIRIM                                   2403251 PARNAMIRIM                                        RN59152800084999598688084999598688084999598688evangeneide@hotmail.com                                                                             evangeneide@hotmail.com                                                                             000000000000000000000000000                                                                                                                  1901439             ITMSMOTORISTA DE TRANSPORTE DE CARGA                  00000000000000000019830316                                                                       000000000002022100120230511202305112023051100000000
10000113348649500001133486495HYGOR ALEXSANDRO DE MORAES BATISTA                FCNRUA CAMPO ALEGRE CONDOMINIO ECOVILLE II CS 19     CAJUPIRANGA                                       2403251 PARNAMIRIM                                        RN59156740RUA CAMPO ALEGRE CONDOMINIO ECOVILLE II CS 19     CAJUPIRANGA                                       2403251 PARNAMIRIM                                        RN59156740RUA CAMPO ALEGRE                                  CAJUPIRANGA                                       2403251 PARNAMIRIM                                        RN59156740084987156536084987156536084987156536hyggoralexsandro@hotmail.com                                                                        hyggoralexsandro@hotmail.com                                                                        100000000000000000000000000                                                                                                                  1880631             SSMSOUTROS                                            00000000000000000019810506                                                                       000000000002004123020200807202305272023052700000000
10000114136947800001141369478BRUNO GURGEL BEZERRA                              FCNRUA JOSE SEABRA Q 15 BL C                         CAPIM MACIO                                       2408102 NATAL                                             RN59078510RUA JOSE SEABRA Q 15 BL C                         CAPIM MACIO                                       2408102 NATAL                                             RN59078510RUA JOSE SEABRA                                   CAPIM MACIO                                       2408102 NATAL                                             RN59078510084000000000084000000000084994242192brunogurgelfed@gmail.com                                                                            brunogurgelfed@gmail.com                                                                            100000000000000000000000000                                                                                                                  1840541             SSMSOUTROS                                            00000000000000000019820428                                                                       000000000002012090120200730202305192023051900000000
10000114438145200001144381452HELICLECIO PEREIRA DA SILVA                       FCNRITA PEREIRA DE MACEDO                            BARRO VERMELHO                                    2408102 NATAL                                             RN59022140                                                                                                                                                                        RITA PEREIRA DE MACEDO                            BARRO VERMELHO                                    2408102 NATAL                                             RN59022140084988181365084988181365084988181365helicleciosilva@gmail.com                                                                           helicleciosilva@gmail.com                                                                           100000000000000000000000000                                                                                                                  1733695             SSMSFUNCIONARIO PUBLICO                               00000000000000000019820312                                                                       000000000002010010920100120202305262023052600000000
10000114765588000001147655880ANTONIO JOSE DE QUEIROZ                           FCNTV TRAVESSA DOS ANJOS A                           ALECRIM                                           2408102 NATAL                                             RN59037801TV TRAVESSA DOS ANJOS A                           ALECRIM                                           2408102 NATAL                                             RN59037801TV TRAVESSA DOS ANJOS A                           ALECRIM                                           2408102 NATAL                                             RN59037801084987537235084987537235084987537235wqueiroz1908@gmail.com                                                                              wqueiroz1908@gmail.com                                                                              100000000000000000000000000                                                                                                                  569587              SSMCPRODUTOR RURAL                                    00000000000000000019570513                                                                       000000000002016011100000000000000000000000000000000
10000115531742400001155317424LEONARDO GUEDES NOGUEIRA                          FCNALAMEDA DAS NAÇÕES                                CANDELARIA                                        2408102 NATAL                                             RN59064740                                                                                                                                                                        ALAMEDA DAS NAÇÕES                                CANDELARIA                                        2408102 NATAL                                             RN59064740000000000000000000000000084999557007leonardoguedes_@yahoo.com.br                                                                        leonardoguedes_@yahoo.com.br                                                                        100000000000000000000000000                                                                                                                  0200                ssMSOUTROS                                            00000000000000000018991230                                                                       000000000002022110420200901202305192023051900000000
10000116713445100001167134451MAIRA COSTA LOPES DE SA LEITAO                    FCNAV NASCIMENTO DE CASTRO                           LAGOA NOVA                                        2408102 NATAL                                             RN59056450AV NASCIMENTO DE CASTRO                           LAGOA NOVA                                        2408102 NATAL                                             RN59056450AV NASCIMENTO DE CASTRO                           LAGOA NOVA                                        2408102 NATAL                                             RN59056450084988992915000000000000084996882619                                                                                                                                                                                                        000000000000000000000000000                                                                                                                  0012                SSFOPRODUTOR RURAL                                    00000000000000000019930213                                                                       000000000002020112520201125202305062023050600000000
10000116985445100001169854451RICARDO JOSE VILAR DA COSTA                       FCNRUA CONSELHEIRO BRITO GUERRA ED HERMITA CANSANCAO TIROL                                             2408102 NATAL                                             RN59015040RUA CONSELHEIRO BRITO GUERRA ED HERMITA CANSANCAO TIROL                                             2408102 NATAL                                             RN59015040RUA CONSELHEIRO BRITO GUERRA                      TIROL                                             2408102 NATAL                                             RN59015040084991922466084991922466084991922466rjvilar5@gmail.com                                                                                  rjvilar5@gmail.com                                                                                  100000000000000000000000000                                                                                                                  1739673             SSMCOUTROS                                            00000000000000000019820306                                                                       000000000002022020420230214202305302023053000000000
10000117186848000001171868480JOHNATY RAFAEL GADELHA DE MEDEIROS                FCNAV BACHAREL TOMAZ LANDIM                          IGAPO                                             2408102 NATAL                                             RN59104000AV BACHAREL TOMAZ LANDIM                          IGAPO                                             2408102 NATAL                                             RN59104000AV BACHAREL TOMAZ LANDIM                          IGAPO                                             2408102 NATAL                                             RN59104000084988763371084988763371084988763371johnatyrafael@icloud.com                                                                            johnatyrafael@icloud.com                                                                            000000000000000000000000000                                                                                                                  1873616             SSMSCOMERCIANTE                                       00000000000000000019830226                                                                       000000000002023052200000000000000000000000000000000
10000117981249200001179812492LAURO LUCIO DE ALMEIDA SILVEIRA                   FCNRUA DES HEMETERIO FERNANDES APTO 1203             TIROL                                             2408102 NATAL                                             RN59015110RUA DES HEMETERIO FERNANDES APTO 1203             TIROL                                             2408102 NATAL                                             RN59015110RUA DES HEMETERIO FERNANDES                       TIROL                                             2408102 NATAL                                             RN59015110084994182754084994182754084994182754llas.rn@gmail.com                                                                                   llas.rn@gmail.com                                                                                   100000000000000000000000000                                                                                                                  1825453             SSMSFUNCIONARIO PUBLICO                               00000000000000000019810830                                                                       000000000002016082920160830202305042023050400000000
10000118056441300001180564413DIOGO BARNABE TAVARES                             FCNRUA DOUTOR ORLANDO AZEVEDO                        CENTRO                                            2408102 NATAL                                             RN59255000RUA DOUTOR ORLANDO AZEVEDO                        CENTRO                                            2408102 NATAL                                             RN59255000RUA DOUTOR ORLANDO AZEVEDO                        CENTRO                                            2408102 NATAL                                             RN59255000084988974672000000000000084986229979cleidinhapmss@hotmail.com                                                                           cleidinhapmss@hotmail.com                                                                           100000000000000000000000000                                                                                                                  1772573             ITMCPRODUTOR RURAL                                    00000000000000000019801225                                                                       000000000002017072020170829202305082023050800000000
10000118163841000001181638410FABIO JOSE DA SILVA                               FCNRUA ROSAS FERNANDES                               NOVA ESPERANÇA                                    2403251 PARNAMIRIM                                        RN59000000                                                                                                                                                                        RUA ROSAS FERNANDES                               NOVA ESPERANÇA                                    2403251 PARNAMIRIM                                        RN59000000084991566490084991566490084991566490                                                                                                                                                                                                        000000000000000000000000000                                                                                                                  2043420             SSMCESTOQUISTA                                        00000000000000000019801013                                                                       000000000002019020720230502202305022023050200000000
10000118582844300001185828443LAMONIARA MENDES QUERINO FELIX                    FCNRUA GASPAR HENRIQUE CRUZ                          EMAUS                                             2403251 PARNAMIRIM                                        RN59149190RUA GASPAR HENRIQUE CRUZ                          EMAUS                                             2403251 PARNAMIRIM                                        RN59149190RUA GASPAR HENRIQUE CRUZ                          EMAUS                                             2403251 PARNAMIRIM                                        RN59149190084981850950000000000000084981850950giovanni-g@hotmail.com                                                                              giovanni-g@hotmail.com                                                                              100000000000000000000000000                                                                                                                  2265553             ITFCPROFESSOR                                         00000000000000000019810919                                                                       000000000002022110920221110202305252023052500000000
10000119098245500001190982455CESAR AUGUSTO GODEIRO DE MOURA JUNIOR             FCNRUA MARCOS FALCAO                                 NOSSA SENHORA DE NAZARE                           2408102 NATAL                                             RN59060380RUA MARCOS FALCAO                                 NOSSA SENHORA DE NAZARE                           2408102 NATAL                                             RN59060380RUA MARCOS FALCAO                                 NOSSA SENHORA DE NAZARE                           2408102 NATAL                                             RN59060380084999670135084999670135084999670165cesaraugusto3082@gmail.com                                                                          cesaraugusto3082@gmail.com                                                                          100000000000000000000000000                                                                                                                  001626965           SSMCMOTORISTA                                         00000000000000000019820630                                                                       000000000002019031820220405202305202023052000000000
10000119117444100001191174441CICERO ALYSSON CAVALCANTI DOS SANTOS              FCNRUA DAS CARNAUBAS                                 PITIMBU                                           2408102 NATAL                                             RN59067630RUA DAS CARNAUBAS                                 PITIMBU                                           2408102 NATAL                                             RN59067630RUA DAS CARNAUBAS                                 PITIMBU                                           2408102 NATAL                                             RN59067630084991254846000000000000084991254846cacsnatal@hotmail.com                                                                               cacsnatal@hotmail.com                                                                               100000000000000000000000000                                                                                                                  5659744             SSMCMILITAR                                           00000000000000000019840128                                                                       000000000002021112520230511202305292023052900000000
10000120689642600001206896426AGEILSON CLAUDIO DE OLIVEIRA BARBOSA              FCNRUA DO AREIAL                                     ROCAS                                             2408102 NATAL                                             RN59010130RUA DO AREIAL                                     ROCAS                                             2408102 NATAL                                             RN59010130RUA DO AREIAL                                     ROCAS                                             2408102 NATAL                                             RN59010130084999708122084999708122084987236415fb0781259@gmail.com                                                                                 fb0781259@gmail.com                                                                                 000000000000000000000000000                                                                                                                  2827796             SSMSAGENTE ADMINISTRATIVO                             00000000000000000019831126                                                                       000000000002011051620110531202305252023052500000000
10000122557549400001225575494TANIA MARIA CARVALHO DA COSTA VICENTE             FCNRUA AGRESTINA  BLOCO I AP 403                     PLANALTO                                          2408102 NATAL                                             RN59073270RUA AGRESTINA  BLOCO I AP 403                     PLANALTO                                          2408102 NATAL                                             RN59073270RUA AGRESTINA                                     PLANALTO                                          2408102 NATAL                                             RN59073270084999838294084999838294084999838294taniamaria_001@hotmail.com                                                                          taniamaria_001@hotmail.com                                                                          100000000000000000000000000                                                                                                                  2058504             SSFSCONTADORA                                         00000000000000000019820613                                                                       000000000002022111220230412202305252023052500000000
10000123266548700001232665487FRANCISCO ROCHA DE OLIVEIRA                       FCNAV. ROMUALDO GALVAO                               LAGOA SECA                                        2408102 NATAL                                             RN59056100RUA ROMUALDO GALVAO                               LAGOA NOVA                                        2408102 NATAL                                             RN59056100AV. ROMUALDO GALVAO                               LAGOA SECA                                        2408102 NATAL                                             RN59056100084981088820084032116738084996041664francismarocha@gmail.com                                                                            francismarocha@gmail.com                                                                            100000000000000000000000000                                                                                                                  59733               MAMSAPOSENTADO                                        00000000000000000019341112                                                                       000000000002012010720120712202305112023051100000000
10000124087248800001240872488IVONEIDE BERNARDINO DE OLIVEIRA                   FCNRUA ALAMEDA DAS FLORES                            NOVA PARNAMIRIM                                   2403251 PARNAMIRIM                                        RN59150485RUA ALAMEDA DAS FLORES                            NOVA PARNAMIRIM                                   2403251 PARNAMIRIM                                        RN59150485RUA ALAMEDA DAS FLORES                            NOVA PARNAMIRIM                                   2403251 PARNAMIRIM                                        RN59150485084996765934084996765934084996765934representacoeseduardo@hotmail.com                                                                   representacoeseduardo@hotmail.com                                                                   100000000000000000000000000                                                                                                                  2013532             ITFCVENDEDOR                                          00000000000000000019830530                                                                       000000000002022091620230413202305102023051000000000
10000125316542400001253165424EDNEIDE DOS SANTOS NASCIMENTO                     FCN RUA SENADOR CARLOS ALBERTO                       CENTRO                                            2407708 MONTANHAS                                         RN59198000 RUA SENADOR CARLOS ALBERTO                       CENTRO                                            2407708 MONTANHAS                                         RN59198000 RUA SENADOR CARLOS ALBERTO                       CENTRO                                            2407708 MONTANHAS                                         RN59198000084988734996084996797326084988567147edneiden4@gmail.com                                                                                 edneiden4@gmail.com                                                                                 100000000000000000000000000                                                                                                                  1715770             SSFSPROFESSORA                                        00000000000000000019820821                                                                       000000000002017051720171125202305272023052700000000
10000125950349600001259503496MARIANE MACEDO MATOS SANTOS                       FCNRUA ALMIRANTE TEOTONIO CARVALHO                   TIROL                                             2408102 NATAL                                             RN59015100RUA ALMIRANTE TEOTONIO CARVALHO                   TIROL                                             2408102 NATAL                                             RN59015100RUA ALMIRANTE TEOTONIO CARVALHO                   TIROL                                             2408102 NATAL                                             RN59015100084999651220000000000000084998182462torresemanuel@gmail.com                                                                             torresemanuel@gmail.com                                                                             100000000000000000000000000                                                                                                                  2088516             ITFCCOMERCIANTE                                       00000000000000000019820930                                                                       000000000002014103020150109202305222023052200000000
10000125997140600001259971406DANIEL CASTRO DOS SANTOS                          FCNRUA CACIMBA                                       NORDESTE                                          2408102 NATAL                                             RN59042380RUA CACIMBA                                       NORDESTE                                          2408102 NATAL                                             RN59042380RUA CACIMBA                                       NORDESTE                                          2408102 NATAL                                             RN59042380084994150162084994150162084994150162daniel.dancastro@gmail.com                                                                          daniel.dancastro@gmail.com                                                                          000000000000000000000000000                                                                                                                  1680050             SSMSMICRO EMPRESARIO                                  00000000000000000019830504                                                                       000000000002018111920181120202305252023052500000000
10000126671842700001266718427ANA CARLA PEREIRA DE SOUZA                        FCNRUA GOIANINHA                                     REGOMOLEIRO                                       2412005 SAO GONCALO DO AMARANTE                           RN59298673RUA GOIANINHA                                     REGOMOLEIRO                                       2412005 SAO GONCALO DO AMARANTE                           RN59298673RUA GOIANINHA                                     REGOMOLEIRO                                       2412005 SAO GONCALO DO AMARANTE                           RN59298673084998483996084998483996084998483996anacarlapimentelsouza@gmail.com                                                                     anacarlapimentelsouza@gmail.com                                                                     100000000000000000000000000                                                                                                                  2018192             SSFSPROFESSORA                                        00000000000000000019840227                                                                       000000000002022111220230525202305252023052500000000
10000128009241600001280092416VANESSA GOMES CORTES DE MEDEIROS                  FCNRUA PROFESSORA GIPSE MONTE NEGRO  AP 04D          CAPIM MACIO                                       2408102 NATAL                                             RN59080060                                                                                                                                                                        RUA PROFESSORA GIPSE MONTE NEGRO                  CAPIM MACIO                                       2408102 NATAL                                             RN59080060084996055530084996055530084996055530vgcortes@hotmail.com                                                                                vgcortes@hotmail.com                                                                                000000000000000000000000000                                                                                                                  1878035             SSFCADMINISTRACAO                                     00000000000000000019830221                                                                       000000000002019071220190712202305102023051000000000
10000129870943100001298709431JOSE NILSON DE OLIVEIRA MANOEL                    FCNRUA LAGOA LIMPA 1060                              CENTRO                                            2408300 NOVA CRUZ                                         RN59215000RUA LAGOA LIMPA 1060                              CENTRO                                            2408300 NOVA CRUZ                                         RN59215000RUA LAGOA LIMPA 1060                              CENTRO                                            2408300 NOVA CRUZ                                         RN59215000084991177895084001177895084991177895clanilson@gmail.com                                                                                 clanilson@gmail.com                                                                                 000000000000000000000000000                                                                                                                  2249060             ITMSVENDA DE PECAS E ACESSORIOS                       00000000000000000019820609                                                                       000000000002009090320090903202305252023052500000000
10000130998044600001309980446WALLERIO AMERICO ALVES DOS SANTOS                 FCNRUA FLORENCA APTO 903                             PONTA NEGRA                                       2408102 NATAL                                             RN59091150RUA FLORENCA APTO 903                             PONTA NEGRA                                       2408102 NATAL                                             RN59091150RUA FLORENCA                                      PONTA NEGRA                                       2408102 NATAL                                             RN59091150084991642964084981072253084981072253wallerio@hotmail.com                                                                                wallerio@hotmail.com                                                                                000000000000000000000000000                                                                                                                  14706               ITMSMEDICO                                            00000000000000000019821230                                                                       000000000002017050520170519202305182023051800000000
10000131297449400001312974494JOAO PAULO DE ASSIS SOUSA                         FCNRUA SANTA LUZIA CASA                              GOLANDIM                                          2412005 SAO GONCALO DO AMARANTE                           RN59296036RUA SANTA LUZIA CASA                              GOLANDIM                                          2412005 SAO GONCALO DO AMARANTE                           RN59296036RUA SANTA LUZIA                                   GOLANDIM                                          2412005 SAO GONCALO DO AMARANTE                           RN59296036084991154689000000000000084991154689joaopaulo@gmail.com                                                                                 joaopaulo@gmail.com                                                                                 100000000000000000000000000                                                                                                                  2220057             SSMSCOMERCIANTE                                       00000000000000000019820531                                                                       000000000002020092400000000000000000000000000000000
10000131868446300001318684463FABIOLA MARIZ DA FONSECA                          FCNRUA OLAVO LACERDA MONTENEGRO RESIDENCIAL ECOVILLE PARQUE DAS NACOES                                 2403251 PARNAMIRIM                                        RN59158400RUA OLAVO LACERDA MONTENEGRO RESIDENCIAL ECOVILLE PARQUE DAS NACOES                                 2403251 PARNAMIRIM                                        RN59158400RUA OLAVO LACERDA MONTENEGRO                      PARQUE DAS NACOES                                 2403251 PARNAMIRIM                                        RN59158400000000000000084998031999084987626649euriam@gmail.com                                                                                    euriam@gmail.com                                                                                    100000000000000000000000000                                                                                                                  1.955.829           ITFCAGENTE ADMINISTRATIVO                             00000000000000000019830707EURIAM BARROS DE ARAUJO                           Total     02787173497000000000002008011920090923202305232023052300000000
10000132168545900001321685459EDILMO NASCIMENTO DA SILVA                        FCNRUA AURORA                                        JARDIM LOLA                                       2408102 NATAL                                             RN59000000                                                                                                                                                                        RUA AURORA                                        JARDIM LOLA                                       2408102 NATAL                                             RN59000000084981025917084991439681084981025917edilmonascimento7@gmail.com                                                                         edilmonascimento7@gmail.com                                                                         100000000000000000000000000                                                                                                                  2033058             ITMSVIGILANTE                                         00000000000000000019830126                                                                       000000000002009121420091214202305222023052200000000
10000132544245300001325442453DEMOSTENES CORREIA DE MEDEIROS                    FCNRUA PRINCESA ISABEL                               CENTRO                                            2402204 CANGUARETAMA                                      RN59190000RUA PRINCESA ISABEL                               CENTRO                                            2402204 CANGUARETAMA                                      RN59190000RUA PRINCESA ISABEL                               CENTRO                                            2402204 CANGUARETAMA                                      RN59190000084988517753084991909044084991909044posto101@hotmail.com                                                                                posto101@hotmail.com                                                                                100000000000000000000000000                                                                                                                  439.419             SSMSOUTROS                                            00000000000000000019370509                                                                       000000000002004011220030423202305262023052600000000
10000135701643300001357016433NAJANA MAYANA RIBEIRO FREIRE DOS SANTOS           FCNRUA DAS EMBARCAÇÕES                               NOVA PARNAMIRIM                                   2403251 PARNAMIRIM                                        RN59152820                                                                                                                                                                        RUA DAS EMBARCAÇÕES                               NOVA PARNAMIRIM                                   2403251 PARNAMIRIM                                        RN59152820000000000000000000000000084988392847najana3@gmail.com                                                                                   najana3@gmail.com                                                                                   000000000000000000000000000                                                                                                                  2376955             ITFCPRODUTOR RURAL                                    00000000000000000019890601                                                                       000000000002021101620230420202305132023051300000000
10000136044646000001360446460PAULO DHIEGO FERREIRA LIMA                        FCNRUA PROF ADOLFO RAMIRES APTO 201, QD 14, BL H     CAPIM MACIO                                       2408102 NATAL                                             RN59078460RUA PROF ADOLFO RAMIRES APTO 201, QD 14, BL H     CAPIM MACIO                                       2408102 NATAL                                             RN59078460RUA PROF ADOLFO RAMIRES                           CAPIM MACIO                                       2408102 NATAL                                             RN59078460084996573101084996573101084996573101dhiegolima_1@hotmail.com                                                                            dhiegolima_1@hotmail.com                                                                            100000000000000000000000000                                                                                                                  1674145             ITMCFUNCIONARIO PUBLICO                               00000000000000000019860102                                                                       000000000002023051520230518202305192023051900000000
10000136646549000001366465490CARLOS EDUARDO JACOME DE SOUZA                    FCNAVENIDA ANTONIO BASILIO  CASA                     LAGOA NOVA                                        2408102 NATAL                                             RN59056275AVENIDA ANTONIO BASILIO  CASA                     LAGOA NOVA                                        2408102 NATAL                                             RN59056275AVENIDA ANTONIO BASILIO                           LAGOA NOVA                                        2408102 NATAL                                             RN59056275084988284651000000000000084988284351carloseduardo@gmail.com                                                                             carloseduardo@gmail.com                                                                             100000000000000000000000000                                                                                                                  1697937             SSMSADMINISTRACAO                                     00000000000000000019860701                                                                       000000000002022110120230519202305192023051900000000
10000136997643700001369976437IVES KLEITON DA SILVEIRA                          FCNRUA SAO CRISTOVAO AP 302 BL A                     LAGOA NOVA                                        2408102 NATAL                                             RN59056290RUA SAO CRISTOVAO AP 302 BL A                     LAGOA NOVA                                        2408102 NATAL                                             RN59056290RUA SAO CRISTOVAO                                 LAGOA NOVA                                        2408102 NATAL                                             RN59056290084991265393084991265393084991265393iveskleiton@hotmail.com                                                                             iveskleiton@hotmail.com                                                                             100000000000000000000061900                                                                                                                  1710402             ITMSADVOGADO                                          00000000000000000019890620                                                                       000000000002022052320230526202305262023052600000000
10000137612249900001376122499RENATA PACHECO DE FIGUEIREDO                      FCNRUA TEOTONIO FREIRE  R SUN RIVER, AP 503, T-C     RIBEIRA                                           2408102 NATAL                                             RN59012110RUA TEOTONIO FREIRE  R SUN RIVER, AP 503, T-C     RIBEIRA                                           2408102 NATAL                                             RN59012110RUA TEOTONIO FREIRE                               RIBEIRA                                           2408102 NATAL                                             RN59012110084999544246084996671004084999544246reepacheco93@gmail.com                                                                              reepacheco93@gmail.com                                                                              100000000000000000000000000                                                                                                                  001823044           ITFCPUBLICITARIO                                      00000000000000000019931223                                                                       000000000002019011120190115202305112023051100000000
10000138735042000001387350420HUGO DE AMORIM OLIVEIRA                           FCNDAS BRANCAS DUNAS                                 CANDELARIA                                        2408102 NATAL                                             RN59064720                                                                                                                                                                        DAS BRANCAS DUNAS                                 CANDELARIA                                        2408102 NATAL                                             RN59064720084998790545084998790545084998790545hugozl@hotmail.com                                                                                  hugozl@hotmail.com                                                                                  100000000000000000000000000                                                                                                                  002395065           SSMCMEDICO                                            00000000000000000019870531                                                                       000000000002020021720230513202305132023051300000000
10000140131132600001401311326ACACIA JESSICA MAIA DE MOURA                      FCNAVENIDA DOS IPÊS RES. NEGUIMEIRA AP.103           NEOPOLIS                                          2408102 NATAL                                             RN00000000                                                                                                                                                                        AVENIDA DOS IPÊS                                  NEOPOLIS                                          2408102 NATAL                                             RN00000000000000000000085997732954085997732954acaciajessica@hotmail.com                                                                           acaciajessica@hotmail.com                                                                           000000000000000000000000000                                                                                                                  321837397           SSFSASSISTENTE SOCIAL                                 00000000000000000019871017                                                                       000000000002013091920130920202305162023051600000000
10000143264346000001432643460JOSE VIDAL NETO                                   FCNRUA LAFAIETE DIOGENES                             SAO JUDAS TADEU                                   2409407 PAU DOS FERROS                                    RN59900000RUA LAFAIETE DIOGENES                             SAO JUDAS TADEU                                   2409407 PAU DOS FERROS                                    RN59900000RUA LAFAIETE DIOGENES                             SAO JUDAS TADEU                                   2409407 PAU DOS FERROS                                    RN59900000084981180543084981180543084981180543vidal@gmail.com                                                                                     vidal@gmail.com                                                                                     100000000000000000000000000                                                                                                                  2310159             ITMCMEDICO                                            00000000000000000019880226                                                                       000000000002023052200000000000000000000000000000000
10000147911648300001479116483WENDELL NELSON DE ARAUJO SILVA                    FCNRUA MATERLANDIA CASA                              NEOPOLIS                                          2408102 NATAL                                             RN59086530RUA MATERLANDIA CASA                              NEOPOLIS                                          2408102 NATAL                                             RN59086530RUA MATERLANDIA                                   NEOPOLIS                                          2408102 NATAL                                             RN59086530084996119629000000000000084996119629penjamimnatan2019@gmail.com                                                                         penjamimnatan2019@gmail.com                                                                         100000000000000000000000000                                                                                                                  2149191             SSMSADMINISTRACAO                                     00000000000000000019890410                                                                       000000000002022112120221221202305192023051900000000
10000150125844300001501258443SAMI SILVA BARATA                                 FCNRUA ERVA CIDREIRA                                 PAJUCARA                                          2408102 NATAL                                             RN59122379RUA ERVA CIDREIRA                                 PAJUCARA                                          2408102 NATAL                                             RN59122379RUA ERVA CIDREIRA                                 PAJUCARA                                          2408102 NATAL                                             RN59122379084996032105084996032105084996032105samisilvabarata@hotmail.com                                                                         samisilvabarata@hotmail.com                                                                         100000000000000000000000000                                                                                                                  2515613             SSMSCOMERCIANTE                                       00000000000000000019901227                                                                       000000000002022022320220809202305052023050500000000
10000166242144300001662421443JOSE WILDENBERG OLIVEIRA DAMASCENA                FCNRUA DAS VERBENAS CS 02                            JARDINS                                           2412005 SAO GONCALO DO AMARANTE                           RN59293390RUA DAS VERBENAS CS 02                            JARDINS                                           2412005 SAO GONCALO DO AMARANTE                           RN59293390RUA DAS VERBENAS                                  JARDINS                                           2412005 SAO GONCALO DO AMARANTE                           RN59293390084994002999084994002999084994002999josewildembergoliveira@gmail.com                                                                    josewildembergoliveira@gmail.com                                                                    100000000000000000000035000                                                                                                                  003006418           ITMSAPOSENTADO                                        00000000000000000019940526                                                                       000000000002022100620221022202305112023051100000000
10000168530848100001685308481EMANUEL FAGNER LUCIANO SANTOS                     FCNR. FREI SERAFIM DE CATANDIA                       CENTRO                                            2408300 NOVA CRUZ                                         RN59215000                                                                                                                                                                        R. FREI SERAFIM DE CATANDIA                       CENTRO                                            2408300 NOVA CRUZ                                         RN59215000084986217993084994018141084994018141emanuelfagne@gmail.com                                                                              emanuelfagne@gmail.com                                                                              000000000000000000000000000                                                                                                                  003134634           SSMSAUTONOMO                                          00000000000000000019961112                                                                       000000000002018111920191015202305112023051100000000
10000169060845500001690608455PEDRO VINICIUS DE SOUZA BARBOSA                   FCNRUA COUTO MAGALHAES LOTE 1                        NOSSA SENHORA DA APRESENTACAO                     2408102 NATAL                                             RN59114211                                                                                                                                                                        RUA COUTO MAGALHAES                               NOSSA SENHORA DA APRESENTACAO                     2408102 NATAL                                             RN59114211000000000000000000000000084987598726pedrovin810@gmail.com                                                                               pedrovin810@gmail.com                                                                               000000000000000000000000000                                                                                                                  006153544           SSMSOUTROS                                            00000000000000000020050718                                                                       000000000002023052620230529202305292023052900000000
10000172024145700001720241457RODOLFO MENDONCA DE ARAUJO                        FCNRUA ISMAEL PEREIRA DA SILVA                       CAPIM MACIO                                       2408102 NATAL                                             RN59082000RUA ISMAEL PEREIRA DA SILVA                       CAPIM MACIO                                       2408102 NATAL                                             RN59082000RUA ISMAEL PEREIRA DA SILVA                       CAPIM MACIO                                       2408102 NATAL                                             RN59082000084996979410084996979410084996979410felipedidier18@gmail.com                                                                            felipedidier18@gmail.com                                                                            000000000000000000000000000                                                                                                                  2753602             SSMSCONTADOR                                          00000000000000000019950704                                                                       000000000002023050520230513202305192023051900000000
10000172616840900001726168409EDUARDO VIANA MAIA                                FCNRUA PAULO DE ALBUQUERQUE                          BOA VISTA                                         2408003 MOSSORO                                           RN59605090RUA PAULO DE ALBUQUERQUE                          BOA VISTA                                         2408003 MOSSORO                                           RN59605090RUA PAULO DE ALBUQUERQUE                          BOA VISTA                                         2408003 MOSSORO                                           RN59605090084987871000084987871000084987871000falconveiculos.rn@gmail.com                                                                         falconveiculos.rn@gmail.com                                                                         000000000000000000000000000                                                                                                                  003204250           ITMOAUTONOMO                                          00000000000000000019980905                                                                       000000000002023052600000000000000000000000000000000
10000174370709600001743707096EDSON JEAN TAVARES                                FCNRUA RIANOPOLIS                                    PITIMBU                                           2408102 NATAL                                             RN59069390RUA RIANOPOLIS                                    PITIMBU                                           2408102 NATAL                                             RN59069390RUA RIANOPOLIS                                    PITIMBU                                           2408102 NATAL                                             RN59069390000000000000094981478484094981478484edsonjean77@gmail.com                                                                               edsonjean77@gmail.com                                                                               100000000000000000000000000                                                                                                                  9081456973          ITMCFUNCIONARIO PUBLICO                               00000000000000000020220826TAIANE FARIA BASIL                                          13142812750000000000002022112520230112202305192023051900000000
10000175153949000001751539490ALLANY JOYCE DE ASSUNCAO MOREIRA                  FCNSERGIPE CASA                                      IGAPO                                             2408102 NATAL                                             RN59104170                                                                                                                                                                        SERGIPE                                           IGAPO                                             2408102 NATAL                                             RN59104170000000000000000000000000084996689268allanyjoyce6@gmail.com.br                                                                           allanyjoyce6@gmail.com.br                                                                           000000000000000000000000000                                                                                                                  003194704           SSFSCONSULTOR DE VENDAS                               00000000000000000019960521                                                                       000000000002023030620230320202305222023052200000000
10000175544549000001755445490MARCUS PAULO SOARES DANTAS                        FCNRua Antônio farache                               CAPIM MACIO                                       2408102 NATAL                                             RN59082110                                                                                                                                                                        Rua Antônio farache                               CAPIM MACIO                                       2408102 NATAL                                             RN59082110000000000000000000000000084998992035mpsdantas15@gmail.com                                                                               mpsdantas15@gmail.com                                                                               000000000000000000000000000                                                                                                                  003.194.76          ITMSENGENHEIRO DE MANUTENCAO                          00000000000000000019970317                                                                       000000000002022021020220219202305272023052700000000
10000176407340100001764073401JOYCE MYLENA RODRIGUES FERNANDES                  FCNRUA CRICIUMA                                      POTENGI                                           2408102 NATAL                                             RN59112320RUA CRICIUMA                                      POTENGI                                           2408102 NATAL                                             RN59112320RUA CRICIUMA                                      POTENGI                                           2408102 NATAL                                             RN59112320084999377447084999377447084999377447joycemylena1864k@hotmail.com                                                                        joycemylena1864k@hotmail.com                                                                        000000000000000000000000000                                                                                                                  3198730             ITFCCOMERCIANTE                                       00000000000000000019970813                                                                       000000000002023052620230526202305262023052600000000
10000182996042300001829960423FARLEY GERTRUDES DE SOUZA                         FCNRUA FRANCISCO QUEIROZ CASA                        VALADAO                                           2407203 MACAU                                             RN59500000RUA FRANCISCO QUEIROZ CASA                        VALADAO                                           2407203 MACAU                                             RN59500000RUA FRANCISCO QUEIROZ                             VALADAO                                           2407203 MACAU                                             RN59500000084998313893084998313893084998313893gertrudesfarley@gmail.com                                                                           gertrudesfarley@gmail.com                                                                           000000000000000000000000000                                                                                                                  4961544             MTMSCOMERCIANTE                                       00000000000000000020001106                                                                       000000000002023052600000000000000000000000000000000
10000183449240800001834492408VANESSA HENRIQUE NUNES DE SOUSA                   FCNRUA OESTE REFFESA                                 LAGOA AZUL                                        2408102 NATAL                                             RN59129474RUA OESTE REFFESA                                 LAGOA AZUL                                        2408102 NATAL                                             RN59129474RUA OESTE REFFESA                                 LAGOA AZUL                                        2408102 NATAL                                             RN59129474084988918090000000000000084988918090vanessa_h.nunes@hotmail.com                                                                         vanessa_h.nunes@hotmail.com                                                                         100000000000000000000000000                                                                                                                  003288854           ITFSABASTECIMENTO DE COMBUSTIVEL                      00000000000000000019950118                                                                       000000000002022080820220808202305042023050400000000
10000183498046100001834980461MARIA JOSE DOS SANTOS FERREIRA                    FCNRUA LAVRAS CASA                                   NEOPOLIS                                          2408102 NATAL                                             RN59086410RUA LAVRAS CASA                                   NEOPOLIS                                          2408102 NATAL                                             RN59086410RUA LAVRAS                                        NEOPOLIS                                          2408102 NATAL                                             RN59086410084988231062084988231062084988231062mjcasa4360@gmail.com                                                                                mjcasa4360@gmail.com                                                                                000000000000000000000000000                                                                                                                  475913              SSFSADMINISTRACAO                                     00000000000000000019551027                                                                       000000000002022112220230519202305192023051900000000
