10000007340141200000073401412ESTEFANIO FERREIRA GONCALVES                      FCNRUA BEL PLINIO LUCIO SOUTO LIMA CASA A            BODOCONGO II                                      2504009 CAMPINA GRANDE                                    PB58433264RUA BEL PLINIO LUCIO SOUTO LIMA CASA A            BODOCONGO II                                      2504009 CAMPINA GRANDE                                    PB58433264RUA BEL PLINIO LUCIO SOUTO LIMA                   BODOCONGO II                                      2504009 CAMPINA GRANDE                                    PB58433264083988914235000000000000083988914235estefaniofg@gmail.com                                                                               estefaniofg@gmail.com                                                                               000000000000000000000000000                                                                                                                  1710112             SSMSAUTONOMO                                          00000000000000000019750311                                                                       000000000002018052620180526202305312023053100000000
10000007657340000000076573400LUCIENE BORBUREMA NUNES                           FCNJOSE BARBOSA DE MENEZES                           SANTA TEREZINHA                                   2504009 CAMPINA GRANDE                                    PB58449000                                                                                                                                                                        JOSE BARBOSA DE MENEZES                           SANTA TEREZINHA                                   2504009 CAMPINA GRANDE                                    PB58449000000000000000000000000000083987150878lucienenunes175@gmail.com                                                                           lucienenunes175@gmail.com                                                                           000000000000000000000000000                                                                                                                  1928866             SSFCOUTROS                                            00000000000000000019720409                                                                       000000000002023022220230222202302232023022300000000
10000033370044900000333700449JOAO SILVEIRA GUIMARAES FILHO                     FCNRUA ALVARO DE ARAUJO PEREIRA QD JLT               JARDIM TAVARES                                    2504009 CAMPINA GRANDE                                    PB58402300RUA ALVARO DE ARAUJO PEREIRA QD JLT               JARDIM TAVARES                                    2504009 CAMPINA GRANDE                                    PB58402300RUA ALVARO DE ARAUJO PEREIRA                      JARDIM TAVARES                                    2504009 CAMPINA GRANDE                                    PB58402300000000000000083021018000083021018000silveira@daosilveira.com.br                                                                         silveira@daosilveira.com.br                                                                         000000000000000000001500000                                                                                                                  79.705 SSP          2VMCEMPRESARIO                                        00000000000000000019460423                                                                       000000000002002112020120514202305312023053100000000
10000074646540800000746465408GERALDO BEZERRA LIMA JUNIOR                       FCNDESEMBARGADOR TRINDADE AP 1401                    CENTRO                                            2504009 CAMPINA GRANDE                                    PB58400277DESEMBARGADOR TRINDADE AP 1401                    CENTRO                                            2504009 CAMPINA GRANDE                                    PB58400277DESEMBARGADOR TRINDADE                            CENTRO                                            2504009 CAMPINA GRANDE                                    PB58400277083991163263000000000000083991163263gbezerrajunior@yahoo.com                                                                            gbezerrajunior@yahoo.com                                                                            100000000000000000000000000                                                                                                                  1291804             SSMCDATILOGRAFO                                       00000000000000000019761218                                                                       000000000002017070420171017202305092023050900000000
10000077792440400000777924404MURIELLY MORAIS DE MEDEIROS FELIPE                FONRUA OTILIA DONATO                                 PRATA                                             2504009 CAMPINA GRANDE                                    PB58428778RUA SEVERINO SOARES                               JD  GUANABARA                                     2510808 PATOS                                             PB58701380RUA OTILIA DONATO                                 PRATA                                             2504009 CAMPINA GRANDE                                    PB58428778083999188482083999188482083999188482muriellymed@gmail.com                                                                               muriellymed@gmail.com                                                                               000000000000000000000000000                                                                                                                  001541762           SSFOOUTROS                                            00000000000000000019800107                                                                       000000000002011051620230527202305272023052700000000
10000079902847900000799028479CARLA COSTA BORJA                                 FCNFELIX ARAUJO APTO 02                              CENTRO                                            2502508 BOQUEIRAO                                         PB58450000                                                                                                                                                                        FELIX ARAUJO                                      CENTRO                                            2502508 BOQUEIRAO                                         PB58450000083993172818000000000000000000000000carlaborja37@hotmail.com                                                                            carlaborja37@hotmail.com                                                                            000000000000000000000000000                                                                                                                  6816053             SSMSFUNCIONARIO PUBLICO                               00000000000000000019771202                                                                       000000000002022020820220308202305312023053100000000
10000080914845500000809148455MUCIO DA SILVA COUTINHO                           FCNPEDRO PEREIRA DE ALMEIDA                          PRESIDENTE                                        2504009 CAMPINA GRANDE                                    PB58417540                                                                                                                                                                        PEDRO PEREIRA DE ALMEIDA                          PRESIDENTE                                        2504009 CAMPINA GRANDE                                    PB58417540000000000000000000000000083991945531muciocoutinho@gmail.com                                                                             muciocoutinho@gmail.com                                                                             000000000000000000000000000                                                                                                                  2868683             SSMCOUTROS                                            00000000000000000019781002                                                                       000000000002023042820230502202305022023050200000000
10000083198741300000831987413GEORGE SANTOS SOUZA                               FCNRUA JOSE ALVEZ NASCIMENTO                         TRES IRMAS                                        2504009 CAMPINA GRANDE                                    PB58423825                                                                                                                                                                        RUA JOSE ALVEZ NASCIMENTO                         TRES IRMAS                                        2504009 CAMPINA GRANDE                                    PB58423825083988105132000000000000000000000000george98742@hotmaill.com                                                                            george98742@hotmaill.com                                                                            100000000000000000000000000                                                                                                                  0000000             SSMCADMINISTRADOR                                     00000000000000000018991230                                                                       000000000002022122020221221202305272023052700000000
10000099680149900000996801499ANDREIA MAIANA DE ALMEIDA LIMA                    FCNR. ESPIRITO SANTO                                 JARDIM PAULISTANO                                 2504009 CAMPINA GRANDE                                    PB58414030R. ESPIRITO SANTO                                 JARDIM PAULISTANO                                 2504009 CAMPINA GRANDE                                    PB58414030R. ESPIRITO SANTO                                 JARDIM PAULISTANO                                 2504009 CAMPINA GRANDE                                    PB58414030083999922676000000000000083988284481andreiamal28@gmail.com                                                                              andreiamal28@gmail.com                                                                              100000000000000000000000000                                                                                                                  2.453.084           SSFCOUTROS                                            00000000000000000019800415                                                                       000000000002007090320170209202305252023052500000000
10000105233447400001052334474FERNANDO ANTONIO FERNANDES SOBREIRA JUNIOR        FCNRUA OLEGARIO MARIANO AP 101                       CATOLE                                            2504009 CAMPINA GRANDE                                    PB58410124RUA OLEGARIO MARIANO AP 101                       CATOLE                                            2504009 CAMPINA GRANDE                                    PB58410124RUA OLEGARIO MARIANO                              CATOLE                                            2504009 CAMPINA GRANDE                                    PB58410124083991399343000000000000083999999999fernandinho_cad@hotmail.com                                                                         fernandinho_cad@hotmail.com                                                                         000000000000000000000000000                                                                                                                  3316339             SSMSADMINISTRACAO MUNICIPAL                           00000000000000000019930612                                                                       000000000002022083020220831202305182023051800000000
10000127131442800001271314428RERISSON LIZANDRO FARIAS BEZERRA                  FCNCARMELITA SILVA ARAUJO                            CINZA                                             2504009 CAMPINA GRANDE                                    PB58423500                                                                                                                                                                        CARMELITA SILVA ARAUJO                            CINZA                                             2504009 CAMPINA GRANDE                                    PB58423500083988407140000000000000000000000000rerissonnlizandro@gmail.com                                                                         rerissonnlizandro@gmail.com                                                                         000000000000000000000000000                                                                                                                  3013629             SSMSAUTONOMO                                          00000000000000000019850123                                                                       000000000002018083120221219202305312023053100000000
10000128491248500001284912485ALEXSANDRO TOMAZ DOS SANTOS                       FCNJOAO BATISTA NEVES                                CENTRO                                            2515104 SAO SEBASTIAO DE LAGOA DE ROCA                    PB58119000JOAO BATISTA NEVES                                CENTRO                                            2515104 SAO SEBASTIAO DE LAGOA DE ROCA                    PB58119000JOAO BATISTA NEVES                                CENTRO                                            2515104 SAO SEBASTIAO DE LAGOA DE ROCA                    PB58119000083986781067000000000000073991595555alexsandro.23437@gmail.com                                                                          alexsandro.23437@gmail.com                                                                          000000000000000000000000000                                                                                                                  2765055             SSMCOUTROS                                            00000000000000000019820520                                                                       000000000002019091220191007202305242023052400000000
10000137171455000001371714550ANA CAROLINA NUNES CARVALHO                       FCNAV MAL FLORIANO PEIXOTO COND PARKVILLE            SERROTAO                                          2504009 CAMPINA GRANDE                                    PB58434500AV MAL FLORIANO PEIXOTO COND PARKVILLE            SERROTAO                                          2504009 CAMPINA GRANDE                                    PB58434500AV MAL FLORIANO PEIXOTO                           SERROTAO                                          2504009 CAMPINA GRANDE                                    PB58434500083981289904000000000000083981289904rangel.vncmenezes@gmail.com                                                                         rangel.vncmenezes@gmail.com                                                                         100000000000000000000000000                                                                                                                  1114431052          SSFCCOMERCIANTE                                       00000000000000000019850128                                                                       000000000002023013120230131202304152023041500000000
10000141590149000001415901490DAVI LEITE COSTA                                  FCNSANTA CATARINA                                    JARDIM PAULISTANO                                 2504009 CAMPINA GRANDE                                    PB58415260STA CATARINA                                      JARDIM PAULISTANO                                 2504009 CAMPINA GRANDE                                    PB58415260SANTA CATARINA                                    JARDIM PAULISTANO                                 2504009 CAMPINA GRANDE                                    PB58415260083998881314000000000000083998881314davileitecostaadm@gmail.com                                                                         davileitecostaadm@gmail.com                                                                         000000000000000000000000000                                                                                                                  2972774             SSMCOUTROS                                            00000000000000000019860414                                                                       000000000002022031420220314202305202023052000000000
10000144454840900001444548409PAULO CESAR DA SILVA                              FCNR. PARANA                                         JOSE PINHEIRO                                     2504009 CAMPINA GRANDE                                    PB58407277R. PARANA                                         JOSE PINHEIRO                                     2504009 CAMPINA GRANDE                                    PB58407277R. PARANA                                         JOSE PINHEIRO                                     2504009 CAMPINA GRANDE                                    PB58407277083986381339000000000000083981402768paulocesar5438@gmail.com                                                                            paulocesar5438@gmail.com                                                                            100000000000000000000000000                                                                                                                  3157402             PBMCADMINISTRACAO                                     00000000000000000019880427                                                                       000000000002020072220200728202305242023052400000000
10000147536740600001475367406MARIA APARECIDA DA SILVA MARTINS                  FCNSIT LAGOA SALGADA                                 AREA RURAL                                        2503506 CACIMBA DE DENTRO                                 PB58230000SIT LAGOA SALGADA                                 AREA RURAL                                        2503506 CACIMBA DE DENTRO                                 PB58230000SIT LAGOA SALGADA                                 AREA RURAL                                        2503506 CACIMBA DE DENTRO                                 PB58230000083996981543000000000000083981499767cimar2683@gmail.com                                                                                 cimar2683@gmail.com                                                                                 000000000000000000000000000                                                                                                                  2512196             SSFCFUNCIONARIO PUBLICO                               00000000000000000019811123                                                                       000000000002020040720200414202305092023050900000000
10000160789940000001607899400ARIZALDO RODRIGUES VASCONCELOS                    FCNANA PAULA RAMOS DE MEDEIROS                       MALVINAS                                          2504009 CAMPINA GRANDE                                    PB58433413                                                                                                                                                                        ANA PAULA RAMOS DE MEDEIROS                       MALVINAS                                          2504009 CAMPINA GRANDE                                    PB58433413083033250200083033250200083986476468arizaldo.vasconcelos@gmail.com                                                                      arizaldo.vasconcelos@gmail.com                                                                      000000000000000000000000000                                                                                                                  3255133             SSMCMECANICO                                          00000000000000000019900525                                                                       000000000002014121820150305202305172023050800000000
10000165117648500001651176485RICARDO ANTERO DE OLIVEIRA SANTOS                 FCNRUA SEVERINO VIEIRA                               JOSE PINHEIRO                                     2504009 CAMPINA GRANDE                                    PB58407268                                                                                                                                                                        RUA SEVERINO VIEIRA                               JOSE PINHEIRO                                     2504009 CAMPINA GRANDE                                    PB58407268083981367602000000000000000000000000deniseeuriques25@gmail.com                                                                          deniseeuriques25@gmail.com                                                                          000000000000000000000000000                                                                                                                  4075816             SSMSACESSORIA                                         00000000000000000019920903                                                                       000000000002020010920200122202305112023051100000000
10000165492040100001654920401ESLANNYA OLIVEIRA DE SOUSA                        FCNFARMACEUTICO JOAO NOBREGA CASA                    CRUZEIRO                                          2504009 CAMPINA GRANDE                                    PB58415445FARMACEUTICO JOAO NOBREGA CASA                    CRUZEIRO                                          2504009 CAMPINA GRANDE                                    PB58415445FARMACEUTICO JOAO NOBREGA                         CRUZEIRO                                          2504009 CAMPINA GRANDE                                    PB58415445083993082137000000000000000000000000esoliveira2008@hotmail.com                                                                          esoliveira2008@hotmail.com                                                                          000000000000000000000000000                                                                                                                  3745617             SSFSCONTADOR                                          00000000000000000019921017                                                                       000000000002018032820180329202305242023052400000000
10000191666440700001916664407JARDINICE PEREIRA ALVES                           FCNRUA AGENOR VASCONCELOS, 277                       CATOLE                                            2504009 CAMPINA GRANDE                                    PB58104690                                                                                                                                                                        RUA AGENOR VASCONCELOS, 277                       CATOLE                                            2504009 CAMPINA GRANDE                                    PB58104690083033373531000000000000083993227094navel@natalveiculos.com.br                                                                          navel@natalveiculos.com.br                                                                          000000000000000000000000000                                                                                                                  1867620             SSFSOUTROS                                            00000000000000000019520229                                                                       000000000002004070220210423202305242023052400000000
10000204759447200002047594472ADEMAR JOSE VELOSO DA SILVEIRA                    FCNRUA APRIGIO VELLOSO                               BODOCONGO                                         2504009 CAMPINA GRANDE                                    PB58430380RUA APRIGIO VELLOSO                               BODOCONGO                                         2504009 CAMPINA GRANDE                                    PB58430380RUA APRIGIO VELLOSO                               BODOCONGO                                         2504009 CAMPINA GRANDE                                    PB58430380083033332043083987300940083987300950ademarveloso@ig.com.br                                                                              ademarveloso@ig.com.br                                                                              000000000000000000000000000                                                                                                                  154853              SSMSOUTROS                                            00000000000000000019510319                                                                       000000000002010011120140529202305052023050500000000
10000205320945300002053209453OTONIEL CAETANO BATISTA                           FCNALMIRANTE BARROSO  BL P AP 208                    QUARENTA                                          2504009 CAMPINA GRANDE                                    PB58416170ALMIRANTE BARROSO  BL P AP 208                    QUARENTA                                          2504009 CAMPINA GRANDE                                    PB58416170ALMIRANTE BARROSO                                 QUARENTA                                          2504009 CAMPINA GRANDE                                    PB58416170083999804331000000000000083999804331otonielcb@gmail.com                                                                                 otonielcb@gmail.com                                                                                 000000000000000000000000000                                                                                                                  0714736816          PEMVAPOSENTADO                                        00000000000000000019440705                                                                       000000000002012111220130513202305122023051200000000
10000207795550300002077955503JAMERSON SILVA DE ALBURQUERQUE JUNIOR             FCNRUA TOMAZ SOARES DE SOUZA                         CATOLE                                            2504009 CAMPINA GRANDE                                    PB58410235RUA TOMAZ SOARES DE SOUZA                         CATOLE                                            2504009 CAMPINA GRANDE                                    PB58410235RUA TOMAZ SOARES DE SOUZA                         CATOLE                                            2504009 CAMPINA GRANDE                                    PB58410235081979078687000000000000081979078687albuquerquefismed@gmail.com                                                                         albuquerquefismed@gmail.com                                                                         000000000000000000000000000                                                                                                                  36796948            SSMCMEDICO                                            00000000000000000019860607                                                                       000000000002021120620220208202305032023050300000000
10000213457342200002134573422ROBERTO PINTO DE OLIVEIRA FILHO                   FCNRUA ARNALDO DE ALBUQUERQUE  APTO 3401             ALTO BRANCO                                       2504009 CAMPINA GRANDE                                    PB58401480RUA ARNALDO DE ALBUQUERQUE  APTO 3401             ALTO BRANCO                                       2504009 CAMPINA GRANDE                                    PB58401480RUA ARNALDO DE ALBUQUERQUE                        ALTO BRANCO                                       2504009 CAMPINA GRANDE                                    PB58401480083999319681000000000000025078756858rpintofilho@uol.com.br                                                                              rpintofilho@uol.com.br                                                                              100000000000000000000000000                                                                                                                  1627608             SSMCCOMERCIANTE                                       00000000000000000019760222                                                                       000000000002019081420190904202305102023051000000000
10000219894248800002198942488DEBORA MARIA GONDIM MEDEIROS                      FCNPROF.  XAVIER JUNIOR  CASA                        CENTRO                                            2501104 AREIA                                             PB58397000PROFESSOR XAVIER JUNIOR  CASA                     CENTRO                                            2501104 AREIA                                             PB58397000PROF.  XAVIER JUNIOR                              CENTRO                                            2501104 AREIA                                             PB58397000083991088470000000000000083991088470dezinhagondim@hotmail.com                                                                           dezinhagondim@hotmail.com                                                                           000000000000000000000000000                                                                                                                  1968023             SSMSPROFESSORA                                        00000000000000000019760801                                                                       000000000002017080720170815202305312023053100000000
10000221939245700002219392457ALAIDE FILGUEIRA DE SOUZA                         FCNPC DA CONCEICAO                                   CENTRO                                            2517001 UMBUZEIRO                                         PB58497000PC DA CONCEICAO                                   CENTRO                                            2517001 UMBUZEIRO                                         PB58497000PC DA CONCEICAO                                   CENTRO                                            2517001 UMBUZEIRO                                         PB58497000083981730060000000000000083981730060amparofsaguiar@hotmail.com                                                                          amparofsaguiar@hotmail.com                                                                          000000000000000000000000000                                                                                                                  162121              SSFVDO LAR                                            00000000000000000019360628                                                                       000000000002020091820200923202305172023051700000000
10000228126843800002281268438IRINALDO PEREIRA DA SILVA FILHO                   FCNJOAO PESSOA                                       CENTRO                                            2504306 CATOLE DO ROCHA                                   PB58884000                                                                                                                                                                        JOAO PESSOA                                       CENTRO                                            2504306 CATOLE DO ROCHA                                   PB58884000083096124168000000000000083096124168navel@natalveiculos.com.br                                                                          navel@natalveiculos.com.br                                                                          100000000000000000000000000                                                                                                                  2035494             SSMSAUTONOMO                                          00000000000000000019760827                                                                       000000000002012080120120801201208010000000000000000
10000236606948000002366069480LINCOLN DA SILVA DINIZ                            FCNRUA ANTONIO GUEDES DE ANDRADE  CASA               CATOLE                                            2504009 CAMPINA GRANDE                                    PB58410223RUA ANTONIO GUEDES DE ANDRADE  CASA               CATOLE                                            2504009 CAMPINA GRANDE                                    PB58410223RUA ANTONIO GUEDES DE ANDRADE                     CATOLE                                            2504009 CAMPINA GRANDE                                    PB58410223083987400475000000000000083987400475lincoln.ufcg@gmail.com                                                                              lincoln.ufcg@gmail.com                                                                              000000000000000000000000000                                                                                                                  2307471             SSMSSERVIDOR PUBLICO FEDERAL                          00000000000000000019771001                                                                       000000000002017021620170221202305262023052600000000
10000240842340600002408423406ROBERTO DA SILVA NUNES                            FCNR. JOAQUIM AMORIM JUNIOR                          BODOCONGO                                         2504009 CAMPINA GRANDE                                    PB58430200R. JOAQUIM AMORIN JUNIOR                          BODOCONGO                                         2504009 CAMPINA GRANDE                                    PB58430200R. JOAQUIM AMORIM JUNIOR                          BODOCONGO                                         2504009 CAMPINA GRANDE                                    PB58430200083999266112000000000000083999266112cavalcanteefreita@gmail.com                                                                         cavalcanteefreita@gmail.com                                                                         000000000000000000000000000                                                                                                                  2166971             SSMOAUTONOMO                                          00000000000000000019760518                                                                       000000000002018102020230530202305302023053000000000
10000242436048000002424360480VERONICA CAVALCANTI PEDROSA                       FCNFERNANDO GOMES DE ARAUJO  CASA                    SANDRA CAVALCANTI                                 2504009 CAMPINA GRANDE                                    PB58410858                                                                                                                                                                        FERNANDO GOMES DE ARAUJO                          SANDRA CAVALCANTI                                 2504009 CAMPINA GRANDE                                    PB58410858083998185998000000000000083998185998nit.oliveira@gmail.com                                                                              nit.oliveira@gmail.com                                                                              000000000000000000000000000                                                                                                                  2125223             SSFCADMINISTRACAO                                     00000000000000000019780503                                                                       000000000002023050800000000000000000000000000000000
10000243982046600002439820466CRISTIANO PEDRO FERREIRA                          FCNRUA MOCINHA CALDAS                                NOVA BRASILIA                                     2515302 SAPE                                              PB58340000RUA MOCINHA CALDAS                                NOVA BRASILIA                                     2515302 SAPE                                              PB58340000RUA MOCINHA CALDAS                                NOVA BRASILIA                                     2515302 SAPE                                              PB58340000083991324299000000000000083991324299cristianopedro3@gmail.com                                                                           cristianopedro3@gmail.com                                                                           000000000000000000000000000                                                                                                                  2172556             SSMSADMINISTRACAO                                     00000000000000000019760722                                                                       000000000002021050820210517202305192023051900000000
10000247722340200002477223402MICHELE TEIXEIRA SILVA                            FCNRIUA JOAO FRCO DA MOTA                            CATOLE                                            2504009 CAMPINA GRANDE                                    PB58410253                                                                                                                                                                        RIUA JOAO FRCO DA MOTA                            CATOLE                                            2504009 CAMPINA GRANDE                                    PB58410253000000000000000000000000083981561347micheleteixeira_cg@hotmail.com                                                                      micheleteixeira_cg@hotmail.com                                                                      000000000000000000000000000                                                                                                                  2120873             SSFSOUTROS                                            00000000000000000019770512                                                                       000000000002023052920230530202305302023053000000000
10000252600347400002526003474JULIERME MACIEL RIBEIRO                           FCNRUA  DOUTOR JOAO TAVARES, 183                     SANTA CRUZ                                        2504009 CAMPINA GRANDE                                    PB58417195                                                                                                                                                                        RUA  DOUTOR JOAO TAVARES, 183                     SANTA CRUZ                                        2504009 CAMPINA GRANDE                                    PB58417195083988867342000000000000083988034031juliermerotam@hotmail.com                                                                           juliermerotam@hotmail.com                                                                           000000000000000000000000000                                                                                                                  2177983             SSMCOUTROS                                            00000000000000000019770220                                                                       000000000002011091220230531202305312023053100000000
10000260003140500002600031405FABRICIO VIANA DE SOUZA                           FCNAV JOAO WALLIG  LOTE H113                         ITARARE                                           2504009 CAMPINA GRANDE                                    PB58411160AV JOAO WALLIG  LOTE H113                         ITARARE                                           2504009 CAMPINA GRANDE                                    PB58411160AV JOAO WALLIG                                    ITARARE                                           2504009 CAMPINA GRANDE                                    PB58411160083981851313000000000000083981851313fabricio.cgdpb@gmail.com                                                                            fabricio.cgdpb@gmail.com                                                                            100000000000000000000000000                                                                                                                  2008234             SSMCOUTROS                                            00000000000000000019790814                                                                       000000000002022122420221228202305082023050800000000
10000260211540100002602115401LAUDENICE DOS SANTOS OLIVEIRA DANTAS              FCNR. JOSE BERNARDINO AP1503                         VILA CABRAL                                       2504009 CAMPINA GRANDE                                    PB58408027RUA JOSE BERNARDINO AP1503                        VILA CABRAL                                       2504009 CAMPINA GRANDE                                    PB58104375R. JOSE BERNARDINO                                VILA CABRAL                                       2504009 CAMPINA GRANDE                                    PB58408027083998258600083998258600083988726308laudenicecg@hotmail.com                                                                             laudenicecg@hotmail.com                                                                             000000000000000000000000000                                                                                                                  2187855             SSFDCOMERCIANTE                                       00000000000000000019790411                                                                       000000000002022111720221121202305162023051600000000
10000263614743800002636147438ANDREA  SILVA DE ALMEIDA                          FCNEUCLIDES CAROLINA DE LIMA                         SANTA ROSA                                        2504009 CAMPINA GRANDE                                    PB58400036                                                                                                                                                                        EUCLIDES CAROLINA DE LIMA                         SANTA ROSA                                        2504009 CAMPINA GRANDE                                    PB58400036083999828969000000000000000000000000deainfantil@hotmail.com                                                                             deainfantil@hotmail.com                                                                             100000000000000000000000000                                                                                                                  1928845             SSFSPROFESSOR                                         00000000000000000019760211                                                                       000000000002017041820170420202305132023051300000000
10000275101940400002751019404RONALDO URBANO PEREIRA                            FCNPROF MANOEL SIMOES CASA                           CENTRO                                            2506301 GUARABIRA                                         PB58200000PROF MANOEL SIMOES CASA                           CENTRO                                            2506301 GUARABIRA                                         PB58200000PROF MANOEL SIMOES                                CENTRO                                            2506301 GUARABIRA                                         PB58200000083987284999000000000000000000000000ronaldoupereira@hotmail.com                                                                         ronaldoupereira@hotmail.com                                                                         100000000000000000000000000                                                                                                                  1835339             SSMSADMINISTRACAO                                     00000000000000000019780112                                                                       000000000002022102020221022202305062023050600000000
10000279433441700002794334417WALKIRIA CORDEIRO LEITE                           FCNRUA ALUISIO LIMA  APT 703                         CATOLE                                            2504009 CAMPINA GRANDE                                    PB58410258                                                                                                                                                                        RUA ALUISIO LIMA                                  CATOLE                                            2504009 CAMPINA GRANDE                                    PB58410258000000000000083996098481083996098481walkiria_cordeiro@hotmail.com                                                                       walkiria_cordeiro@hotmail.com                                                                       000000000000000000000000000                                                                                                                  1927989S            SSMCADVOGADO                                          00000000000000000019760314                                                                       000000000002023050820230510202305102023051000000000
10000282609342800002826093428AMANDA  GEMIMA DE AGUIAR                          FCNSEVEIRINO PEREIRA RODRIGUES                       PRESIDENTE MEDICI                                 2504009 CAMPINA GRANDE                                    PB58417760SEVEIRINO PEREIRA RODRIGUES CASA                  PRESIDENTE MEDICI                                 2504009 CAMPINA GRANDE                                    PB58417760SEVEIRINO PEREIRA RODRIGUES                       PRESIDENTE MEDICI                                 2504009 CAMPINA GRANDE                                    PB58417760083981343553000000000000083981343553amandagemima42@gmail.com                                                                            amandagemima42@gmail.com                                                                            000000000000000000000000000                                                                                                                  2179217             SSMSADJUNTO DE DIREITO                                00000000000000000019760430                                                                       000000000002020081420200818202305312023053100000000
10000286608243500002866082435WAGNER BEZERRA DE OLIVEIRA                        FCNRUA MANOEL DO CARMO                               CENTRO                                            2501575 BARRA DE SANTANA                                  PB58458000                                                                                                                                                                        RUA MANOEL DO CARMO                               CENTRO                                            2501575 BARRA DE SANTANA                                  PB58458000000000000000083988911757083988911757wagnerr.bezerra8080@iclod.com                                                                       wagnerr.bezerra8080@iclod.com                                                                       000000000000000000000000000                                                                                                                  489950              SSMCMOTORISTA                                         00000000000000000019800407                                                                       000000000002023052020230520202305202023052000000000
10000286610540000002866105400WELLINGTON BERNARDO DE FREITAS                    FCNRUA 15 DE NOVEMBRO                                PALMEIRA                                          2504009 CAMPINA GRANDE                                    PB58401475RUA 15 DE NOVEMBRO                                PALMEIRA                                          2504009 CAMPINA GRANDE                                    PB58401475RUA 15 DE NOVEMBRO                                PALMEIRA                                          2504009 CAMPINA GRANDE                                    PB58401475083988098418000000000000083988098418WB.DRUA.MEX@YAHOO.COM.BR                                                                            WB.DRUA.MEX@YAHOO.COM.BR                                                                            000000000000000000000000000                                                                                                                  2316962             SSMSAUTONOMO                                          00000000000000000019790121                                                                       000000000002013112020200520202305292023052900000000
10000287147347100002871473471JOSE ERIVALDO DA SILVA                            FCNJOSE DE OLIVEIRA PINTO                            BAIRRO NOVO                                       2502508 BOQUEIRAO                                         PB58450000JOSE DE OLIVEIRA PINTO                            BAIRRO NOVO                                       2502508 BOQUEIRAO                                         PB58450000JOSE DE OLIVEIRA PINTO                            BAIRRO NOVO                                       2502508 BOQUEIRAO                                         PB58450000083996848789083033912180083991126313jerysilva@bol.com.br                                                                                jerysilva@bol.com.br                                                                                100000000000000000000000000                                                                                                                  1726299             SSMSPROFESSOR                                         00000000000000000019740815                                                                       000000000002014010920140513202305042023050400000000
10000295856149600002958561496MARCOS ANTONIO DE OLIVEIRA SOUSA                  FCN SITIO LAGOA DE DENTRO AREA RURAL                 SAO JOSE DA MATA                                  2504009 CAMPINA GRANDE                                    PB58400000 SITIO LAGOA DE DENTRO AREA RURAL                 SAO JOSE DA MATA                                  2504009 CAMPINA GRANDE                                    PB58400000 SITIO LAGOA DE DENTRO                            SAO JOSE DA MATA                                  2504009 CAMPINA GRANDE                                    PB58400000083988453582083988453582083988453582marcospolicapo4@gmail.com                                                                           marcospolicapo4@gmail.com                                                                           100000000000000000000000000                                                                                                                  2370161             SSMCEMPRESARIO                                        00000000000000000019790216                                                                       000000000002011122220200616202305292023052900000000
10000299494942300002994949423AGLAILSON GLEDSON CABRAL DE OLIVEIRA              FCNR. DR CLAUDIO ABILIO ARAGAO                       CASA NOVA                                         2612505 SANTA CRUZ DO CAPIBARIBE                          PE58415625 ANA VILAR                                        CRUZEIRO                                          2504009 CAMPINA GRANDE                                    PB58415625R. DR CLAUDIO ABILIO ARAGAO                       CASA NOVA                                         2612505 SANTA CRUZ DO CAPIBARIBE                          PE58415625083033355410083987758820083987758820aglailsonquimica@hotmail.com                                                                        aglailsonquimica@hotmail.com                                                                        000000000000000000000000000                                                                                                                  2159758             SSMCPROFESSOR                                         00000000000000000019781027                                                                       000000000002013051620130516202305092023050900000000
10000308315340600003083153406FLAVIA DE PAIVA MEDEIROS DE OLIVEIRA              FCNLEONTINA TAVARES DE MACEDO                        NOVA BRASILIA                                     2504009 CAMPINA GRANDE                                    PB58406870                                                                                                                                                                        LEONTINA TAVARES DE MACEDO                        NOVA BRASILIA                                     2504009 CAMPINA GRANDE                                    PB58406870083030632199083988075927083999226660flaviadepaivamedeirosde@gmail.com                                                                   flaviadepaivamedeirosde@gmail.com                                                                   000000000000000000000000000                                                                                                                  1.986.330           SSFSOUTROS                                            00000000000000000019771024                                                                       000000000002002022620131024202305262023052600000000
10000316892742200003168927422FLAUBERTO JOSE MARTINS ALMEIDA                    FCNR. ROSA FARIAS DANTAS                             NOVO CRUZEIRO                                     2504009 CAMPINA GRANDE                                    PB58415448                                                                                                                                                                        R. ROSA FARIAS DANTAS                             NOVO CRUZEIRO                                     2504009 CAMPINA GRANDE                                    PB58415448000000000000000000000000083996045656flauberto.almeida@hotmail.com                                                                       flauberto.almeida@hotmail.com                                                                       000000000000000000000000000                                                                                                                  2431722             SSMCCONTADOR                                          00000000000000000019800802                                                                       000000000002022050420220506202305292023052900000000
10000318401649800003184016498JOSE ROBERTO DE ARAUJO                            FCNRua Jos Honrio da Silva                         SERROTAO                                          2504009 CAMPINA GRANDE                                    PB58434655                                                                                                                                                                        Rua Jos Honrio da Silva                         SERROTAO                                          2504009 CAMPINA GRANDE                                    PB58434655083988507905000000000000083088507905                                                                                                                                                                                                        000000000000000000000000000                                                                                                                  2321281             SSMSREPRESENTANTE COMERCIAL                           00000000000000000019791026                                                                       000000000002016051820160521202301242023012400000000
10000319988465200003199884652FABIANO PEIXOTO DE OLIVEIRA                       FCNRUA CRICIUMA                                      AMARANTE                                          2412005 SAO GONCALO DO AMARANTE                           RN59290000RUA CRICIUMA                                      AMARANTE                                          2412005 SAO GONCALO DO AMARANTE                           RN59290000RUA CRICIUMA                                      AMARANTE                                          2412005 SAO GONCALO DO AMARANTE                           RN59290000000000000000083000000000083996211994fabianopeixoto123456789@gmail.com                                                                   fabianopeixoto123456789@gmail.com                                                                   100000000000000000000000000                                                                                                                  1441160             ITMSTAXISTA                                           00000000000000000019760603                                                                       000000000002016012520210120202305292023052900000000
10000323060340000003230603400ALESSANDRA TORRES FERREIRA                        FONR.MARIA CAROLINA AMORIM PEREIRA ZILI              TRES IRMAS                                        2504009 CAMPINA GRANDE                                    PB58423323R.MARIA CAROLINA AMORIM PEREIRA ZILI              TRES IRMAS                                        2504009 CAMPINA GRANDE                                    PB58423323R.MARIA CAROLINA AMORIM PEREIRA ZILI              TRES IRMAS                                        2504009 CAMPINA GRANDE                                    PB58423323083987006772083987006772083987006772jdavidcgd@hotmail.com                                                                               jdavidcgd@hotmail.com                                                                               000000000000000000000000000                                                                                                                  2453055             SSFSAIMENTICIO                                        00000000000000000019790309                                                                       000000000002020022120200222202305242023052400000000
10000324971842400003249718424JOSE SALATIEL DE MELO PEREIRA                     FCNR AUREA MOURA RIBEIRO A                           ACACIO FIGUEIREDO                                 2504009 CAMPINA GRANDE                                    PB58421365R AUREA MOURA RIBEIRO A                           ACACIO FIGUEIREDO                                 2504009 CAMPINA GRANDE                                    PB58421365R AUREA MOURA RIBEIRO                             ACACIO FIGUEIREDO                                 2504009 CAMPINA GRANDE                                    PB58421365083033229786083988009974083991473717SALATIELMELLO0702@GMAIL.COM                                                                         SALATIELMELLO0702@GMAIL.COM                                                                         100000000000000000000000000                                                                                                                  2264067             SSMSPROFESSOR                                         00000000000000000019770207                                                                       000000000002016033120160813202305272023052700000000
10000336629249000003366292490TATIANE DO CARMO MARCEDO DE OLIVEIRA              FCNPRAA SIGISMUNDO ARANHA                           CENTRO                                            2502706 BORBOREMA                                         PB58394000                                                                                                                                                                        PRAA SIGISMUNDO ARANHA                           CENTRO                                            2502706 BORBOREMA                                         PB58394000000000000000083993064822083993064822tatyvl650@gmail.com                                                                                 tatyvl650@gmail.com                                                                                 000000000000000000000000000                                                                                                                  2117801             SSFDENFERMEIRA                                        00000000000000000019781027                                                                       000000000002023050220230524202305242023052400000000
10000340030445000003400304450JOSE UBIRAJARA DE FARIAS                          FCNRUA SAO BRAZ                                      NEOPOLIS                                          2408102 NATAL                                             RN59086240RUA SAO BRAZ                                      NEOPOLIS                                          2408102 NATAL                                             RN59086240RUA SAO BRAZ                                      NEOPOLIS                                          2408102 NATAL                                             RN59086240083030657553083982158840083986538177jf261095@gmail.com                                                                                  jf261095@gmail.com                                                                                  000000000000000000000000000                                                                                                                  2125131             SSMCCOMERCIANTE                                       00000000000000000019780714                                                                       000000000002016041920160423202305312023053100000000
10000341487945000003414879450CLEITON ELIEL BRAZ FEITOSA                        FCNEPAMINONDAS DE AZEVEDO                            CENTRO                                            2509701 MONTEIRO                                          PB58500000                                                                                                                                                                        EPAMINONDAS DE AZEVEDO                            CENTRO                                            2509701 MONTEIRO                                          PB58500000000000000000000000000000083998531535cleitoneliel@gmail.com                                                                              cleitoneliel@gmail.com                                                                              000000000000000000000000000                                                                                                                  2523051             SS COUTROS                                            00000000000000000019791005                                                                       000000000002023052320230523202305232023052300000000
10000341842346900003418423469NATAN AGRA                                        FCNRUA BUENOS AIRES                                  JARDIM TAVARES                                    2504009 CAMPINA GRANDE                                    PB58402060RUA BUENOS AIRES CASA                             JARDIM TAVARES                                    2504009 CAMPINA GRANDE                                    PB58402060RUA BUENOS AIRES                                  JARDIM TAVARES                                    2504009 CAMPINA GRANDE                                    PB58402060083987564532000000000000083987564532natanagra@msn.com                                                                                   natanagra@msn.com                                                                                   000000000000000000000000000                                                                                                                  2445512             SSMOCOMERCIANTE                                       00000000000000000019791012                                                                       000000000002016120720161210202305312023053100000000
10000343479141800003434791418EVANDRO MENDONCA CARNEIRO                         FCNAROJADO DE LISBOA                                 MONTE SANTO                                       2504009 CAMPINA GRANDE                                    PB58000000                                                                                                                                                                        AROJADO DE LISBOA                                 MONTE SANTO                                       2504009 CAMPINA GRANDE                                    PB58000000000000000000000000000000083988265867                                                                                                                                                                                                        000000000000000000000000000                                                                                                                  1805418             SSMCOUTROS                                            00000000000000000019760601                                                                       000000000002023050820230508202305082023050800000000
10000349200041000003492000410ISRRAEL WESLEY DE MELO COSTA                      FCNAV FLORIANO PEIXOTO                               MALVINAS                                          2504009 CAMPINA GRANDE                                    PB58434500                                                                                                                                                                        AV FLORIANO PEIXOTO                               MALVINAS                                          2504009 CAMPINA GRANDE                                    PB58434500000000000000000000000000083988730591isrraelwesley@hotmail.com                                                                           isrraelwesley@hotmail.com                                                                           000000000000000000000000000                                                                                                                  2316100             SSMCAUTONOMO                                          00000000000000000019800812                                                                       000000000002022020120220201202305252023052500000000
10000350208042900003502080429CLEBIA FERNANDES ALMEIDA                          FCNR. ARRUDA CAMARA APT 303                          SANTO ANTONIO                                     2504009 CAMPINA GRANDE                                    PB58406020                                                                                                                                                                        R. ARRUDA CAMARA                                  SANTO ANTONIO                                     2504009 CAMPINA GRANDE                                    PB58406020083981585990083991128812083981585990biafernandeschave@hotmail.com                                                                       biafernandeschave@hotmail.com                                                                       000000000000000000000000000                                                                                                                  2536924             SSFCOUTROS                                            00000000000000000019790714                                                                       000000000002009052920120914202305052023050500000000
10000351778942900003517789429LEONARDO DE ARAUJO COSTA                          FCNBENEDITO MOTA                                     ALTO BRANCO                                       2408102 NATAL                                             RN58401718                                                                                                                                                                        BENEDITO MOTA                                     ALTO BRANCO                                       2408102 NATAL                                             RN58401718000000000000000000000000083993121229leonardocosta1980@gmail.com                                                                         leonardocosta1980@gmail.com                                                                         000000000000000000000000000                                                                                                                  2188997             SSMCOUTROS                                            00000000000000000019800726                                                                       000000000002022090920220922202305022023050200000000
10000357809548600003578095486JOSILENE MACENA DE OLIVEIRA                       FCNRUA INES DO CARMO TORRES                          SERROTAO                                          2504009 CAMPINA GRANDE                                    PB58400000                                                                                                                                                                        RUA INES DO CARMO TORRES                          SERROTAO                                          2504009 CAMPINA GRANDE                                    PB58400000000000000000000000000000083988286015josilenemaacena@gmail.com                                                                           josilenemaacena@gmail.com                                                                           000000000000000000000000000                                                                                                                  2558377             SS COUTROS                                            00000000000000000019810717                                                                       000000000002023051820230518202305182023051800000000
10000361604246100003616042461EDILENE BARBOSA MENINO                            FCNRUA HUMBERTO BATISTA DE LIMA AP 202               CATOLE                                            2504009 CAMPINA GRANDE                                    PB58410530RUA HUMBERTO BATISTA DE LIMA AP 202               CATOLE                                            2504009 CAMPINA GRANDE                                    PB58410530RUA HUMBERTO BATISTA DE LIMA                      CATOLE                                            2504009 CAMPINA GRANDE                                    PB58410530081989835922000000000000081989835922edinha12326@hotmail.com                                                                             edinha12326@hotmail.com                                                                             000000000000000000000000000                                                                                                                  6146268             SSFSADMINISTRACAO                                     00000000000000000019720310                                                                       000000000002021051720210518202305082023050800000000
10000364709448000003647094480MARCELA ARNAUD DE SOUSA                           FCNDOUTOR EDESIO SILVA                               JARDIM PAULISTANO                                 2504009 CAMPINA GRANDE                                    PB58415270DOUTOR EDESIO SILVA                               JARDIM PAULISTANO                                 2504009 CAMPINA GRANDE                                    PB58415270DOUTOR EDESIO SILVA                               JARDIM PAULISTANO                                 2504009 CAMPINA GRANDE                                    PB58415270083991045677000000000000083988335720joseroberto2@ap2contabilidade.com.br                                                                joseroberto2@ap2contabilidade.com.br                                                                100000000000000000000000000                                                                                                                  2287443             SSFSCONTADOR                                          00000000000000000019810206                                                                       000000000002016062220160702202305152023051500000000
10000381235548500003812355485ANTONIA CRISTINA MENDES DE MENEZES                FCNR JOAO LACERDA  CASA                              CENTRO                                            2507200 ITATUBA                                           PB58376000R JOAO LACERDA  CASA                              CENTRO                                            2507200 ITATUBA                                           PB58376000R JOAO LACERDA                                    CENTRO                                            2507200 ITATUBA                                           PB58376000083988816095000000000000083988816095crismenezes16@hotmail.com                                                                           crismenezes16@hotmail.com                                                                           100000000000000000000000000                                                                                                                  SSP                 PBFSPROFESSOR                                         00000000000000000019780727                                                                       000000000002018092520181002202305022023050200000000
10000385870841000003858708410ALYSSON GREYSSON SATIRO DA SILVA                  FCNR. FRANCISCO CALIXTO                              MONTE SANTO                                       2504009 CAMPINA GRANDE                                    PB58400750R. FRANCISCO CALIXTO                              MONTE SANTO                                       2504009 CAMPINA GRANDE                                    PB58400750R. FRANCISCO CALIXTO                              MONTE SANTO                                       2504009 CAMPINA GRANDE                                    PB58400750083033227233000000000000083996120567alyssongreysson@hotmail.com                                                                         alyssongreysson@hotmail.com                                                                         000000000000000000000000000                                                                                                                  2605270             SSMSESTOQUISTA                                        00000000000000000019810806                                                                       000000000002017030320170914202305162023051600000000
10000390508543700003905085437JULIO CEZAR AQUINO FEITOSA                        FCNJOSE BRAZ DE FRANCA                               CENTRO                                            2512507 QUEIMADAS                                         PB58400000JOSE BRAZ DE FRANCA                               CENTRO                                            2512507 QUEIMADAS                                         PB58400000JOSE BRAZ DE FRANCA                               CENTRO                                            2512507 QUEIMADAS                                         PB58400000083998040546000000000000000000000000dan_andreie@outlook.com                                                                             dan_andreie@outlook.com                                                                             100000000000000000000000000                                                                                                                  4243159             SSMCOUTROS                                            00000000000000000019811013                                                                       000000000002023052920230529202305292023052900000000
10000392235749000003922357490KENIA CRIS GOMES FERNANDES                        FCNRUA PROF LUIZA CASTRO LAGO                        LAURITZEN                                         2504009 CAMPINA GRANDE                                    PB58401340RUA PROFESSORA  LUIZA DE CASTRO LAGO CASA         LAURITZEN                                         2504009 CAMPINA GRANDE                                    PB58401340RUA PROF LUIZA CASTRO LAGO                        LAURITZEN                                         2504009 CAMPINA GRANDE                                    PB58401340083033801006083099254298083988894120kcgf2102@gmail.com                                                                                  kcgf2102@gmail.com                                                                                  000000000000000000000000000                                                                                                                  2646135             SSFSSECRETARIA                                        00000000000000000019820221                                                                       000000000002012040720121010202305222023052200000000
10000393828441200003938284412LUCIANO HONORATO DE SOUZA                         FCNPADRE CICERO                                      LAGOA DO MATO                                     2504009 CAMPINA GRANDE                                    PB58398000                                                                                                                                                                        PADRE CICERO                                      LAGOA DO MATO                                     2504009 CAMPINA GRANDE                                    PB58398000083999639578000000000000000000000000brenolyrasoyza@gmail.com                                                                            brenolyrasoyza@gmail.com                                                                            100000000000000000000000000                                                                                                                  2603071             SSFSTAXISTA                                           00000000000000000019800323                                                                       000000000002017062220171007202305052023050500000000
10000394295749300003942957493CELIO ROBERTO SOARES DE CARLI                     FCNRUA EPAMINODAS DE AZEVEDO                         CENTRO                                            2509701 MONTEIRO                                          PB58500000                                                                                                                                                                        RUA EPAMINODAS DE AZEVEDO                         CENTRO                                            2509701 MONTEIRO                                          PB58500000000000000000083998360373083999518858celiodecarli@gmail.com                                                                              celiodecarli@gmail.com                                                                              100000000000000000000000000                                                                                                                  2324984             SSMCBIOMEDICA                                         00000000000000000019820902                                                                       000000000002020120720201211202305252023052500000000
10000396171648000003961716480JOAO GOMES DA SILVA                               FCNSITIO GRAVATA DE CAIXA DAGUA                      AREA RURAL                                        2512507 QUEIMADAS                                         PB58475000SITIO GRAVATA DE CAIXA DAGUA                      AREA RURAL                                        2512507 QUEIMADAS                                         PB58475000SITIO GRAVATA DE CAIXA DAGUA                      AREA RURAL                                        2512507 QUEIMADAS                                         PB58475000083986530256083986530256083986530256gomesjoao6759@gmail.com                                                                             gomesjoao6759@gmail.com                                                                             000000000000000000000000000                                                                                                                  2632151             SSMSCOMERCIARIO                                       00000000000000000019800718                                                                       000000000002023052920230531202305312023053100000000
10000396957749700003969577497IONE PEREIRA DE LIMA                              FCNANTONIO ALVES DE LIMA                             JARDIM CONTINENTAL                                2504009 CAMPINA GRANDE                                    PB58403350                                                                                                                                                                        ANTONIO ALVES DE LIMA                             JARDIM CONTINENTAL                                2504009 CAMPINA GRANDE                                    PB58403350083988936933000000000000083988936933dequeirosione@gmail.com                                                                             dequeirosione@gmail.com                                                                             000000000000000000000000000                                                                                                                  2319503             SSFCDO LAR                                            00000000000000000019800704                                                                       000000000002023052420230524202305242023052400000000
10000409430447900004094304479PEDRO LUCIANO DA SILVA                            FCNJOSE MARIANO DA SILVA                             CENTRO                                            2500304 ALAGOA GRANDE                                     PB58388000JOSE MARIANO DA SILVA                             CENTRO                                            2500304 ALAGOA GRANDE                                     PB58388000JOSE MARIANO DA SILVA                             CENTRO                                            2500304 ALAGOA GRANDE                                     PB58388000000000000000000000000000083993624489pl2071167@gmail.com                                                                                 pl2071167@gmail.com                                                                                 100000000000000000000000000                                                                                                                  2363359             SSMCTAXISTA                                           00000000000000000019781009                                                                       000000000002018062620180713202305292023052900000000
10000410005649400004100056494KHEVENNY KARLLOS ALVES CARVALHO                   FCNR. JOSE DO O AP 601                               LAURITZEN                                         2504009 CAMPINA GRANDE                                    PB58401411R. JOSE DO O APTO 601                             LAURITZEN                                         2504009 CAMPINA GRANDE                                    PB58401411R. JOSE DO O                                      LAURITZEN                                         2504009 CAMPINA GRANDE                                    PB58401411083988937627000000000000083998083413khevennykarllos@gmail.com                                                                           khevennykarllos@gmail.com                                                                           000000000000000000000000000                                                                                                                  2568612             SSMSGERENTE                                           00000000000000000019811011                                                                       000000000002013031920130412202305302023053000000000
10000426855949300004268559493LEANDRO LINS DIAS                                 FCNRUA GAMA                                          LIGEIRO                                           2512507 QUEIMADAS                                         PB58475000                                                                                                                                                                        RUA GAMA                                          LIGEIRO                                           2512507 QUEIMADAS                                         PB58475000083091854626000000000000000000000000                                                                                                                                                                                                        100000000000000000000000000                                                                                                                  123456              PBMSACESSORIA                                         00000000000000000019700504                                                                       000000000002023051220230512202305122023051200000000
10000436035944600004360359446DANIEL SANTOS SILVA                               FCNJOAO BRASILIA DA  SILVA FILHO                     DINAMERICA                                        2504009 CAMPINA GRANDE                                    PB58432330JOAO BRASILIA DA  S. FILHO CASA                   DINAMERICA                                        2504009 CAMPINA GRANDE                                    PB58432330JOAO BRASILIA DA  SILVA FILHO                     DINAMERICA                                        2504009 CAMPINA GRANDE                                    PB58432330083988075036000000000000083988075036santoschc2012@gmail.com                                                                             santoschc2012@gmail.com                                                                             000000000000000000000000000                                                                                                                  19182               PMMSFUNCIONARIO PUBLICO                               00000000000000000019820920                                                                       000000000002019083020190912202305312023053100000000
10000445087641500004450876415SEVERINO BATISTA DE SOUZA                         FCNRUA MARIA ARRUDA DE FIGUEIREDO OU 667             MONTE SANTO                                       2504009 CAMPINA GRANDE                                    PB58100000RUA MARIA ARRUDA DE FIGUEIREDO                    MONTE SANTO                                       2504009 CAMPINA GRANDE                                    PB58100000RUA MARIA ARRUDA DE FIGUEIREDO                    MONTE SANTO                                       2504009 CAMPINA GRANDE                                    PB58100000083033212235000000000000083988494604helder.crispimm@hotmail.com                                                                         helder.crispimm@hotmail.com                                                                         000000000000000000000000000                                                                                                                  151343 SSP          . MCOUTROS                                            00000000000000000019520117                                                                       000000000002003103020130112202305242023052400000000
10000446182346600004461823466GLORIA GERCIANE ALMEIDA DE ARAUJO                 FCNDR. ALBERTO SABIN                                 PRES. MEDICE                                      2504009 CAMPINA GRANDE                                    PB58417628DR. ALBERTO SABIN                                 PRES. MEDICE                                      2504009 CAMPINA GRANDE                                    PB58417628DR. ALBERTO SABIN                                 PRES. MEDICE                                      2504009 CAMPINA GRANDE                                    PB58417628083088868222083088868222083988868222GLORIA_GERCIANE@HOTMAIL.COM                                                                         GLORIA_GERCIANE@HOTMAIL.COM                                                                         000000000000000000000000000                                                                                                                  2560813             SSFDBANCARIA                                          00000000000000000019820223                                                                       000000000002012100120130103202305312023053100000000
10000449876349100004498763491JOSE VICENTE DEDE FERREIRA                        FCNSEVERINO CANDIDO FERNANDES CASA                   CATOLE                                            2504009 CAMPINA GRANDE                                    PB58410453SEVERINO CANDIDO FERNANDES CASA                   CATOLE                                            2504009 CAMPINA GRANDE                                    PB58410453SEVERINO CANDIDO FERNANDES                        CATOLE                                            2504009 CAMPINA GRANDE                                    PB58410453083993981551000000000000000000000000dedef3126@gmail.com                                                                                 dedef3126@gmail.com                                                                                 000000000000000000000000000                                                                                                                  150569              SSMSEMPREENDIMENTOS                                   00000000000000000019471005                                                                       000000000002023030720230308202305092023050900000000
10000451630149000004516301490JOELTON ARCO VERDE DA VEIGA                       FCNRUA PAULO OVIDIO DE LUCENA                        CENTRO                                            2506905 ITABAIANA                                         PB58360000RUA PAULO OVIDIO DE LUCENA                        CENTRO                                            2506905 ITABAIANA                                         PB58360000RUA PAULO OVIDIO DE LUCENA                        CENTRO                                            2506905 ITABAIANA                                         PB58360000083991679439000000000000083991145455joeltontaxi@gmail.com                                                                               joeltontaxi@gmail.com                                                                               100000000000000000000000000                                                                                                                  2427455             SSMCTAXISTA                                           00000000000000000019810513                                                                       000000000002022060920220613202305262023052600000000
10000465789447100004657894471EMERSON DA COSTA SILVA                            FCNRUA ANA PAULA RAMOS DE MEDEIROS                   RAMADINHA  II                                     2504009 CAMPINA GRANDE                                    PB58433413RUA ANA PAULA RAMOS DE MEDEIROS                   RAMADINHA  II                                     2504009 CAMPINA GRANDE                                    PB58433413RUA ANA PAULA RAMOS DE MEDEIROS                   RAMADINHA  II                                     2504009 CAMPINA GRANDE                                    PB58433413083982005048000000000000083982005048emerson.limaogalego@gmail.com                                                                       emerson.limaogalego@gmail.com                                                                       100000000000000000000000000                                                                                                                  2848739             SSMSADMINISTRACAO                                     00000000000000000019820923                                                                       000000000002019052820190530202305302023053000000000
10000466752849400004667528494ILDA DE FATIMA DE OLIVEIRA SANTOS SILVA           FCNRUA JOAO CAPITULINO                               CENTRO                                            2507705 JUAZEIRINHO                                       PB58660000                                                                                                                                                                        RUA JOAO CAPITULINO                               CENTRO                                            2507705 JUAZEIRINHO                                       PB58660000000000000000083991747431083996775855hildasantoss@gmail.com                                                                              hildasantoss@gmail.com                                                                              000000000000000000000000000                                                                                                                  2797604             SSFCOUTROS                                            00000000000000000019830417                                                                       000000000002021092420210930202305272023052700000000
10000475913558800004759135588GENILSON VITORIANO DOS SANTOS LIMA                FCNRua Alzira Figueiredo,                            Centro                                            2408102 NATAL                                             RN58410755                                                                                                                                                                        Rua Alzira Figueiredo,                            Centro                                            2408102 NATAL                                             RN58410755000000000000079988130562079088130562genilson.vitoriano@gmail.com                                                                        genilson.vitoriano@gmail.com                                                                        000000000000000000000000000                                                                                                                  32401817            SSMSSEGURANCA                                         00000000000000000019930213                                                                       000000000002023050520230510202305102023051000000000
10000475987241800004759872418CAMILA PONTES CAMPOS                              FCNSTA CECILIA                                       SANTO ANTONIO                                     2504009 CAMPINA GRANDE                                    PB58406015STA CECILIA                                       SANTO ANTONIO                                     2504009 CAMPINA GRANDE                                    PB58406015STA CECILIA                                       SANTO ANTONIO                                     2504009 CAMPINA GRANDE                                    PB58406015083993071119083986007371083986007371camilapcampos@hotmail.com                                                                           camilapcampos@hotmail.com                                                                           000000000000000000000000000                                                                                                                  2667993             SSMSENFERMEIRA                                        00000000000000000019840524                                                                       000000000002023053120230531202305312023053100000000
10000484232940800004842329408MARCELO DIAS ROSA                                 FCNANTENOR NAVARRO                                   CENTRO                                            2506004 ESPERANCA                                         PB58135000ANTENOR NAVARRO                                   CENTRO                                            2506004 ESPERANCA                                         PB58135000ANTENOR NAVARRO                                   CENTRO                                            2506004 ESPERANCA                                         PB58135000083991523077000000000000083991146667diasmarcelo173@gmail.com                                                                            diasmarcelo173@gmail.com                                                                            000000000000000000000000000                                                                                                                  4027842             SSMSABASTECIMENTO DE COMBUSTIVEL                      00000000000000000019980216                                                                       000000000002023032220230322202305052023050500000000
10000486668142000004866681420JOAO CAMILO FILHO                                 FCNR. CLOVIS AGRA BRANDAO DE QUEIROZ                 JARDIM PAULISTANO                                 2504009 CAMPINA GRANDE                                    PB58415195R. CLOVIS AGRA BRANDAO DE QUEIROZ                 JARDIM PAULISTANO                                 2504009 CAMPINA GRANDE                                    PB58415195R. CLOVIS AGRA BRANDAO DE QUEIROZ                 JARDIM PAULISTANO                                 2504009 CAMPINA GRANDE                                    PB58415195083033349176000000000000083999154409walpcamilo@gmail.com                                                                                walpcamilo@gmail.com                                                                                100000000000000000000000000                                                                                                                  NAO INFORM          . MSOUTROS                                            00000000000000000019000101                                                                       000000000001999061520151229202305102023051000000000
10000488872340000004888723400GILBERTO ANTONIO CARNEIRO                         FCNRUA SALVINO MIRANDA                               CENTRO                                            2512705 REMIGIO                                           PB58398000RUA SALVINO MIRANDA                               CENTRO                                            2512705 REMIGIO                                           PB58398000RUA SALVINO MIRANDA                               CENTRO                                            2512705 REMIGIO                                           PB58398000083033641514000000000000083999345261NFEFATURDAS@GMAIL.COM                                                                               NFEFATURDAS@GMAIL.COM                                                                               000000000000000000000000000                                                                                                                  208096              SSMCOUTROS                                            00000000000000000019500710                                                                       000000000002014040320140403202305312023053100000000
