11             61198164004319ISENTO        PORTO SEGURO/NATAL/61198164004319                                                                   AV. PRUDENTE DE MORAIS                            LAGOA NOVA                                        2408102 NATAL                                             RN5905620084 3087281184 30872800           andrea@espacialautopecas.com.br                                                                     00000000020050120200201032023053120230531
110            61550141009129              LIBERTY PAULISTA/SAO PAULO-BROOKLIN/61550141009129                                                  PRACA JOAO DURAN ALONSO ED. RONALDO SAMPAIO FERREIBROOKLIN NOVO                                     3550308 SAO PAULO                                         SP0457107011 2182-18011 2182-17885 3486-460richard.silva@libertyseguros.com.br                                                                 00000000020060502200608152023052220230522
128            61573796000166108063509113  ALLIANZ/SAO PAULO/CONSOLACAO/61573796000166                                                         RUA EUGENIO DE MEDEIROS 5  ANDAR                  PINHEIROS                                         3550308 SAO PAULO                                         SP0542500011 3741300411 37413004           heriane@espacialautopecas.com.br                                                                    00000000020050112200201102023051920230519
141            61550141009129              LIBERTY/SAOPAULO/0091-29                                                                            PRACA JOAO DURAN ALONSO ED. RONALDO SAMPAIO FERREIBROOKLIN NOVO                                     3550308 SAO PAULO                                         SP0457107011 2182-18011 2182-17885 3486-460richard.silva@libertyseguros.com.br                                                                 00000000020060502200608152023052220230522
150            61100145000159108433166119  INDIANA/SAOPAULO/61.100.145/0001-59                                                                 RUA DR.GERALDO CAMPOS MOREIRA                     BROOKLIN NOVO                                     3550308 SAO PAULO                                         SP0457402011 3115-31111 3115-31111 32483985esc.servicos@natalveiculos.com.br                                                                   00000000020041113200411122023051520230515
152            29980158007917              HDI- SEGUROS NATAL 0079-17                                                                          AVENIDA PRUDENTE DE MORAIS BL UNICO - LOJA 6      LAGOA NOVA                                        2408102 NATAL                                             RN5905620084 3206574684 3206406884 33113356esc.servicos@natalveiculos.com.br                                                                   00000000020080702200807022023052920230529
153            33448150005938ISENTO        AZUL COMPANHIA DE SEGUROS                                                                           AV PRUDENTE DE MORAIS                             LAGOA NOVA                                        2408102 NATAL                                             RN5906463021 3906663021 3906663021 39066630andrea@espacialautopecas.com.br                                                                     00000000020120806201208062023053120230531
16             92682038018823ISENTO        BRADESCO/NATAL/92682038018823                                                                       AV.PRUDENTE DE MORAIS  N  944                     TIROL                                             2408102 NATAL                                             RN5902000084 3211-55184 36151212           andrea@espacialautopecas.com.br                                                                     00000000020061113200611172023052220230522
172            61573796003424              ALLIANZ SEGUROS S/A NATAL                                                                           AV . AFONSO PENA, 957  COD.JARDINS DO ALTO COND JATIROL                                             2408102 NATAL                                             RN5902026584 3201030484 3201030484 32010304allianz.gm@slvconsultoria.com                                                                       00000000020150518201505212023052620230526
175            33164021000959ISENTO        TOKIO MARINE SEGURADORA S.A                                                                         ROMUALDO GALVAO, 1805                             LAGOA NOVA                                        2408102 NATAL                                             RN5905610584 3231 145                      esc.servicos@natalveiculos.com.br                                                                   00000000020080926200810062023053020230530
19             61074175004397ISENTO        MAPFRE  SEGUROS GERAIS S/A                                                                          AV. JAGUARARI                                     LAGOA NOVA                                        2408102 NATAL                                             RN5903262084 3223-42584 98856682           andrea@espacialautopecas.com.br                                                                     00000000020050120200201082023053120230531
