12G1F91EJ8D91160082G1F91EJ8D9116008          MARIO WELLINGTON QUEIROGA E FARIAS                20122012          PRETO                                                                                                                                                                                                             49445    000000000  KWQ4I49                                                  PASSEIO                                                                                                                                                                                                                                                                                                                                                                                                                                                                                                                                                                                                                                                                   00000000000000000000000000000000000000000000000000000000000000000000000000000000201212110000000000000000202305190000000000000000000001000                         00009124016489              1    20314     44615     
13GNAX9EJ3MS1432453GNAX9EJ3MS143245          PAULO VIRGINIO DA SILVA                           20212021          PRETA                                                                                                                                                                                                             29077    000000000  RGJ7C97                                                  PASSEIO                                                                                                                                                                                                                                                                                                                                                                                                                                                                                                                                                                                                                                                                   00000000000000000000000000000000000000000000000000000000000000000000000000000000189912300000000000000000202305310000000000000000000001001                         00013309706400              1    20147     125157    
13GNAX9EX5JS6230583GNAX9EX5JS623058          MARIA NAUZUI FERNANDES CARVALHO                   20182018          VERMELHO GLORY                                                                                                                                                                                                    38161    000000000  QSA2306                                                  UTILITÁRIOS                                                                                                                                                                                                                                                                                                                                                                                                                                                                                                                                                                                                                                                               00000000000000000000000000000000000000000000000000000000000000000000000000000000201805300000000000000000202305230000000000000000000001001                         00033295735468              1    40333     44009     
13GNAX9EX5LS5149913GNAX9EX5LS514991          ALMIR COLACO CATAO                                20202020          CINZA - GRAPHITE                                                                                                                                                                                                  49917    000000000  QGY0B76                                                  UTILITÁRIOS                                                                                                                                                                                                                                                                                                                                                                                                                                                                                                                                                                                                                                                               00000000000000000000000000000000000000000000000000000000000000000000000000000000202008180000000000000000202305030000000000000000000001000                         00013203096404              1    40333     44456     
13GNCJ8CW0GL1918673GNCJ8CW0GL191867          VALMIRA VIGOLVINO MATOS                           20162016          PRETA                                                                                                                                                                                                             43652    000000000  QFX3387                                                  UTILITÁRIOS                                                                                                                                                                                                                                                                                                                                                                                                                                                                                                                                                                                                                                                               00000000000000000000000000000000000000000000000000000000000000000000000000000000201607220000000000000000202305260000000000000000000001001                         00010887199453              1    20070     23031     
13GNCJ8CZ7KL1405153GNCJ8CZ7KL140515          JOAO SILVEIRA GUIMARAES FILHO                     20002000          PRETO OURO NEGRO                                                                                                                                                                                                  25932    000000000  QSG0A08                                                  UTILITÁRIOS                                                                                                                                                                                                                                                                                                                                                                                                                                                                                                                                                                                                                                                               00000000000000000000000000000000000000000000000000000000000000000000000000000000201812130000000000000000202305050000000000000000000001001                         00000333700449              1    20070     44213     
13GNCJ8EZ6JL2526683GNCJ8EZ6JL252668          ADEMAR JOSE VELOSO DA SILVEIRA                    20002000          BRANCO SUMMIT                                                                                                                                                                                                     48535    000000000  QSA6006                                                  UTILITÁRIOS                                                                                                                                                                                                                                                                                                                                                                                                                                                                                                                                                                                                                                                               00000000000000000000000000000000000000000000000000000000000000000000000000000000201806010000000000000000202305050000000000000000000001001                         00002047594472              1    20070     44031     
13GNDJ8CZ7JL1893283GNDJ8CZ7JL189328          DIEGO RAMOS DOS SANTOS                            20172018          BRANCO SUMMIT                                                                                                                                                                                                     154862   000000000  QFW7903                                                  UTILITÁRIOS                                                                                                                                                                                                                                                                                                                                                                                                                                                                                                                                                                                                                                                               00000000000000000000000000000000000000000000000000000000000000000000000000000000201803260000000000000000202305230000000000000000000001001                         00008259634430              1    20070     44039     
13GNDJ8CZ8JL2227733GNDJ8CZ8JL222773          ERIVALDO DA SILVA ARAUJO                          20182018          BRANCO SUMMIT                                                                                                                                                                                                     73709    000000000  QFY4463                                                  UTILITÁRIOS                                                                                                                                                                                                                                                                                                                                                                                                                                                                                                                                                                                                                                                               00000000000000000000000000000000000000000000000000000000000000000000000000000000201804060000000000000000202305120000000000000000000001001                         00007854439400              1    20070     44039     
18AGBB69S0HR1182778AGBB69S0HR118277          GERALDO BEZERRA LIMA JUNIOR                       20162017          BRANCO SUMMIT                                                                                                                                                                                                     59795    000000000  QGI6445                                                  PASSEIO                                                                                                                                                                                                                                                                                                                                                                                                                                                                                                                                                                                                                                                                   00000000000000000000000000000000000000000000000000000000000000000000000000000000201707040000000000000000202305060000000000000000000001001                         00000746465408              1    40315     43775     
18AGBB69S0JR1148718AGBB69S0JR114871          AMORIM & BRITO - ADVOGADOS ASSOCIADOS             20172018          PRETO OURO NEGRO                                                                                                                                                                                                  20009    000000000  QFW0002                                                  PASSEIO                                                                                                                                                                                                                                                                                                                                                                                                                                                                                                                                                                                                                                                                   00000000000000000000000000000000000000000000000000000000000000000000000000000000201802220000000000000000202305250000000000000000000001001                         14207101000142              1    40315     44004     
18AGBN68S0HR1330288AGBN68S0HR133028          MARIA DAS NEVES VASCONCELOS CATAO                 20162017          VERMELHO EDIBLE BERRIES                                                                                                                                                                                           70465    000000000  QFC2883                                                  PASSEIO                                                                                                                                                                                                                                                                                                                                                                                                                                                                                                                                                                                                                                                                   00000000000000000000000000000000000000000000000000000000000000000000000000000000201703130000000000000000202305110000000000000000000001001                         00020314221468              1    40315     43859     
18AGBN68S0NR1008928AGBN68S0NR100892          EMANOEL PEDRO ALBUQUERQUE FREITAS                 20212022          BRANCA                                                                                                                                                                                                            62653    000000000  QYY2D83                                                  PASSEIO                                                                                                                                                                                                                                                                                                                                                                                                                                                                                                                                                                                                                                                                   00000000000000000000000000000000000000000000000000000000000000000000000000000000202108060000000000000000202305110000000000000000000001000                         00009675676450              1    40315     44546     
18AGBN69S0HR1323978AGBN69S0HR132397          MARIA DO SOCORRO DE LIMA                          20172017          PRATA                                                                                                                                                                                                             96728    000000000  PBA8733                                                  PASSEIO                                                                                                                                                                                                                                                                                                                                                                                                                                                                                                                                                                                                                                                                   00000000000000000000000000000000000000000000000000000000000000000000000000000000201706230000000000000000202305100000000000000000000001001                         00086024280149              1    40315     43193     
18AGBN69S0NR1080428AGBN69S0NR108042          MULTI EMB.COM.DE ALIMENTOS E DESCARTAVEIS LTDA    20212022          BRANCO ABALONE                                                                                                                                                                                                    7687     000000000  RLX6C54                                                  PASSEIO                                                                                                                                                                                                                                                                                                                                                                                                                                                                                                                                                                                                                                                                   00000000000000000000000000000000000000000000000000000000000000000000000000000000202204300000000000000000202305030000000000000000000001001                         18424843000180              1    40315     44546     
18AGBP69S0LR1061958AGBP69S0LR106195          LEANDRO DE SOUZA ALBUQUERQUE                      20192020          BRANCA                                                                                                                                                                                                            36403    000000000  QSI9F04                                                  CARRO                                                                                                                                                                                                                                                                                                                                                                                                                                                                                                                                                                                                                                                                     00000000000000000000000000000000000000000000000000000000000000000000000000000000202110300000000000000000202305170000000000000000000001001                         00008250793498              1    120333    124584    
18AGCN48X0BR2271718AGCN48X0BR227171          JOAO CAMILO FILHO                                 20112011          VERMELHA                                                                                                                                                                                                          58913    000000000  NQE1554                                                  PASSEIO                                                                                                                                                                                                                                                                                                                                                                                                                                                                                                                                                                                                                                                                   00000000000000000000000000000000000000000000000000000000000000000000000000000000201405280000000000000000202305100000000000000000000001001                         00004866681420              1    20147     43614     
18AGEN76H0RR1003078AGEN76H0RR100307100195    DEBORA MARIA GONDIM MEDEIROS                      20232024202524    CINZA RUSH                                        132       JET BLACK                                                                                 5GAS/ALCOOL                                                 0        0                                                                   UTILITÁRIOS                                                                                         ALIENACAO FIDUCIARIA EM FAVOR DO BANCO GM S/A - SU                                                                                                                                                                                                                                                                                                                                                                                                                                                                                                                    00000000001319852000000000001463317600000000001435000000000000001435000000000000202305300000000000000000202305300000000000000000101000001                         00002198942488              1    20070     45204     
18AGEP76B0PR1329008AGEP76B0PR132900          DAO SILVEIRA MOTORS LTDA                          20232023          BRANCO SUMMIT                                                                                                                                                                                                     10       000000000                                                           UTILITÁRIOS                                                                                                                                                                                                                                                                                                                                                                                                                                                                                                                                                                                                                                                               00000000000000000000000000000000000000000000000000000000000000000000000000000000202302270000000000000000202303130000000000000000000001000                         08811523000120              1    20070     45122     
18AGEP76B0PR1357478AGEP76B0PR135747100194    WELLINGTON BARBOSA DO NASCIMENTO                  2023202315988     CINZA SATIN STEEL                                 12121     JET BLACK/CAPTA IN BLUE                                                                   5GAS/ALCOOL                                                 0        0                                                                   UTILITÁRIOS                                                                                         ALIENACAO FIDUCIARIA EM FAVOR DO BANCO GM S/A - RE                                                                                                                                                                                                                                                                                                                                                                                                                                                                                                                    00000000001454697000000000001639249300000000001627400000000000001627400000000000202305120000000000000000202305120000000000000000101000001                         00018149987487              1    20070     45122     
18AGSU1920GR1445758AGSU1920GR144575          JOSE SALATIEL DE MELO PEREIRA                     20162016          CINZA MOND                                                                                                                                                                                                        73876    000000000  QFA1373                                                  PASSEIO                                                                                                                                                                                                                                                                                                                                                                                                                                                                                                                                                                                                                                                                   00000000000000000000000000000000000000000000000000000000000000000000000000000000201603310000000000000000202305270000000000000000000001001                         00003249718424              1    2         43622     
193Y4SRZ85NJ83679493Y4SRZ85NJ836794          EDIVANIO PEREIRA CRUZ DE ARAUJO                   20212022          PRATA                                                                                                                                                                                                             29986    000000000  RMN2F15                                                  PASSEIO                                                                                                                                                                                                                                                                                                                                                                                                                                                                                                                                                                                                                                                                   00000000000000000000000000000000000000000000000000000000000000000000000000000000202101010000000000000000202305240000000000000000000001000                         00005625914435              213  40325     125543    
19BFZH55L7K82601019BFZH55L7K8260101123456    MARIA DE FATIMA DEMETRIO CABRAL                   2018201916        BRANCA                                            193       BRANCA                                                                                    5GAS/ALCOOL                                                 60528    0          QPH7F84                                                  PASSEIO                                                                                                                                                                                                                                                                                                                                                                                                                                                                                                                                                                                                                                                                   00000000000400000000000000000465982300000000000460000000000000000460000000000000202305250000000000000000202305250000000000000000000000001                         00041441621415              3    20148     124544    
19BG138KJ0BC4385609BG138KJ0BC438560          GILBERTO ANTONIO CARNEIRO                         20102011          VERDE                                                                                                                                                                                                             48070    000000000  NQJ8406                                                  UTILITÁRIOS                                                                                                                                                                                                                                                                                                                                                                                                                                                                                                                                                                                                                                                               00000000000000000000000000000000000000000000000000000000000000000000000000000000000000000000000000000000202305310000000000000000000001001                         00004888723400              1    20        43004     
19BG148FK0EC4251209BG148FK0EC425120          MINISTERIO DA JUSTICA E SEGURANCA PUBLICA         20142014          PRETO                                                                                                                                                                                                             113418   000000000  OVS8344                                                  UTILITÁRIOS                                                                                                                                                                                                                                                                                                                                                                                                                                                                                                                                                                                                                                                               00000000000000000000000000000000000000000000000000000000000000000000000000000000201404170000000000000000202305300000000000000000000001000                         00394494011766              1    20        43310     
19BG148FK0EC4300899BG148FK0EC430089          SEVERINO BATISTA DE SOUZA                         20142014          PRATA SWITCHBLADE                                                                                                                                                                                                 59004    000000000  OFG0683                                                  UTILITÁRIOS                                                                                                                                                                                                                                                                                                                                                                                                                                                                                                                                                                                                                                                               00000000000000000000000000000000000000000000000000000000000000000000000000000000201404300000000000000000202305240000000000000000000001001                         00004450876415              1    20        43310     
19BG148FK0MC4049319BG148FK0MC404931          DANILO ALVES SANTOS                               20202021          BRANCO SUMMIT                                                                                                                                                                                                     79877    000000000  QFF6F92                                                  UTILITÁRIOS                                                                                                                                                                                                                                                                                                                                                                                                                                                                                                                                                                                                                                                               00000000000000000000000000000000000000000000000000000000000000000000000000000000202009090000000000000000202305040000000000000000000001001                         23463143000135              1    20        44465     
19BG148FK0NC4076309BG148FK0NC407630          JOAO CARLOS AMORIM DE OLIVEIRA ME                 20212022          PRATA                                                                                                                                                                                                             19491    000000000  RLR5F86                                                  UTILITÁRIOS                                                                                                                                                                                                                                                                                                                                                                                                                                                                                                                                                                                                                                                               00000000000000000000000000000000000000000000000000000000000000000000000000000000202106170000000000000000202305160000000000000000000001001                         11546401000168              1    20        44536     
19BG148LP0DC4215689BG148LP0DC421568          ALBERTO AGUIAR LACERDA                            20122013          PRATA                                                                                                                                                                                                             93200    000000000  OFH6B68                                                  UTILITÁRIOS                                                                                                                                                                                                                                                                                                                                                                                                                                                                                                                                                                                                                                                               00000000000000000000000000000000000000000000000000000000000000000000000000000000201208130000000000000000202305220000000000000000000001000                         00006232858433              1    20        43766     
19BG148MK0FC4033739BG148MK0FC403373          ALEXSANDRO TOMAZ DOS SANTOS                       20152015          PRATA                                                                                                                                                                                                             153859   000000000  QFY0001                                                  UTILITÁRIOS                                                                                                                                                                                                                                                                                                                                                                                                                                                                                                                                                                                                                                                               00000000000000000000000000000000000000000000000000000000000000000000000000000000201501120000000000000000202305220000000000000000000001000                         00001284912485              1    20        43673     
19BG148MK0MC4038459BG148MK0MC403845          HGR LOCACOES E SERVICOS EIRELI                    20212021          PRATA SWITCHBLADE                                                                                                                                                                                                 65869    000000000  QFF3J62                                                  UTILITÁRIOS                                                                                                                                                                                                                                                                                                                                                                                                                                                                                                                                                                                                                                                               00000000000000000000000000000000000000000000000000000000000000000000000000000000202009090000000000000000202305230000000000000000000001001                         26942653000183              1    20        44458     
19BG148MK0MC4050759BG148MK0MC405075          GRANJA SOUZA CRIAÇÃO DE AVES LTDA                 20202021          PRETA                                                                                                                                                                                                             73705    000000000  QFF0C22                                                  UTILITÁRIOS                                                                                                                                                                                                                                                                                                                                                                                                                                                                                                                                                                                                                                                               00000000000000000000000000000000000000000000000000000000000000000000000000000000202009140000000000000000202305020000000000000000000001001                         20723112000188              1    20        44458     
19BG148MK0MC4132719BG148MK0MC413271          J.I.M RENT CAR LTDA                               20202021          PRETO OURO NEGRO                                                                                                                                                                                                  57847    000000000  RGE5D09                                                  UTILITÁRIOS                                                                                                                                                                                                                                                                                                                                                                                                                                                                                                                                                                                                                                                               00000000000000000000000000000000000000000000000000000000000000000000000000000000202011100000000000000000202305050000000000000000000001000                         25138383000190              1    20        44458     
19BG148MK0MC4202279BG148MK0MC420227          ANTONIO BENEVIDES DE FARIAS FILHO                 20202021          BRANCO SUMMIT                                                                                                                                                                                                     39816    000000000  RLZ5I70                                                  UTILITÁRIOS                                                                                                                                                                                                                                                                                                                                                                                                                                                                                                                                                                                                                                                               00000000000000000000000000000000000000000000000000000000000000000000000000000000202012180000000000000000202305080000000000000000000001001                         00064376672491              1    20        44458     
19BG148MK0MC4208769BG148MK0MC420876          CAIO DE SOUSA CABRAL                              20202020          BRANCO SUMMIT                                                                                                                                                                                                     70156    000000000  RLZ1C20                                                  UTILITÁRIOS                                                                                                                                                                                                                                                                                                                                                                                                                                                                                                                                                                                                                                                               00000000000000000000000000000000000000000000000000000000000000000000000000000000202012180000000000000000202305310000000000000000000001001                         00010627313442              1    20        44458     
19BG148MK0NC4178629BG148MK0NC417862          MARIVALDO EMIDIO LEITE NETO                       20202021          BRANCO SUMMIT                                                                                                                                                                                                     62743    000000000  RGJ5G16                                                  UTILITÁRIOS                                                                                                                                                                                                                                                                                                                                                                                                                                                                                                                                                                                                                                                               00000000000000000000000000000000000000000000000000000000000000000000000000000000202108160000000000000000202305230000000000000000000001000                         00005950107330              1    20        44533     
19BG148MK0PC4114199BG148MK0PC411419          RICARDO ALEXANDRE BATISTA BELARMINO               20232023          BRANCO                                                                                                                                                                                                            31026    000000000  RZO7E68                                                  UTILITÁRIOS                                                                                                                                                                                                                                                                                                                                                                                                                                                                                                                                                                                                                                                               00000000000000000000000000000000000000000000000000000000000000000000000000000000202207210000000000000000202305050000000000000000000001001                         00091773938487              1    20        44536     
19BG148MK0PC4285809BG148MK0PC428580220529    ROBERTO DA SILVA NUNES                            2022202312132     VERDE SAFARI                                      132       JET BLACK                                                                                 3DIESEL                                                     0        0                                                                   UTILITÁRIOS                                                                                         ALIENACAO FIDUCIARIA EM FAVOR DO BANCO GM S/A - SU                                                                                                                                                                                                                                                                                                                                                                                                                                                                                                                    00000000002732770800000000002966183100000000002980000000000000002980000000000000202305290000000000000000202305290000000000000000101000001                         00002408423406              1    20        44639     
19BG148MK0PC4377179BG148MK0PC437717220529    JOACIR LUIZ DA COSTA                              20222023148       BRANCO SUMMIT                                     132       JET BLACK                                                                                 3DIESEL                                                     0        0                                                                   UTILITÁRIOS                                                                                         ALIENACAO FIDUCIARIA EM FAVOR DO BANCO GM S/A - SU                                                                                                                                                                                                                                                                                                                                                                                                                                                                                                                    00000000002722870800000000002783380900000000002750000000000000002750000000000000202305220000000000000000202305220000000000000000101000001                         00069182680400              1    20        44639     
19BG148MK0PC4459619BG148MK0PC445961220529    SHELLEY NUNES PACHU SUASSUNA                      20232023202025    AZUL ECLIPSE                                      132       JET BLACK                                                                                 3DIESEL                                                     0        0                                                                   UTILITÁRIOS                                                                                                                                                                                                                                                                                                                                                                                                                                                                                                                                                                                                                                                               00000000002495327300000000002394560900000000002495327300000000002495327300000000202305030000000000000000202305030000000000000000100100001                         39661802000188              1    20        44639     
19BG148MK0PC4476469BG148MK0PC447646          DAO SILVEIRA MOTORS LTDA                          20232023          PRATA SWITCHBLADE                                                                                                                                                                                                 10       000000000                                                           UTILITÁRIOS                                                                                                                                                                                                                                                                                                                                                                                                                                                                                                                                                                                                                                                               00000000000000000000000000000000000000000000000000000000000000000000000000000000202304170000000000000000202304200000000000000000000001000                         08811523000120              1    20        44639     
19BG148MK0RC4032929BG148MK0RC403292220529    NSF TRANSPORTES LTDA ME                           202320242023      PRATA SHARK                                       132       JET BLACK                                                                                 3DIESEL                                                     0        0                                                                   UTILITÁRIOS                                                                                         COM ALIENACAO FIDUCIARIA EM FAVOR DO SICOOB PARAIB                                                                                                                                                                                                                                                                                                                                                                                                                                                                                                                    00000000002578454400000000002452531700000000002578454400000000002578454400000000202305220000000000000000202305220000000000000000101100001                         19533015000143              1    20        45217     
19BG148PK0HC4180089BG148PK0HC418008          JOAO SILVEIRA GUIMARAES FILHO                     20172017          AZUL BLUE EYES                                                                                                                                                                                                    56018    000000000  QGP0A80                                                  UTILITÁRIOS                                                                                                                                                                                                                                                                                                                                                                                                                                                                                                                                                                                                                                                               00000000000000000000000000000000000000000000000000000000000000000000000000000000201611220000000000000000202305220000000000000000000001001                         00000333700449              1    20        43757     
19BG148PK0KC4232139BG148PK0KC423213          GERALDO MONTEIRO REGIS                            20182019          PRETO OURO NEGRO                                                                                                                                                                                                  23651    000000000  OGB7161                                                  UTILITÁRIOS                                                                                                                                                                                                                                                                                                                                                                                                                                                                                                                                                                                                                                                               00000000000000000000000000000000000000000000000000000000000000000000000000000000201901230000000000000000202305250000000000000000000001001                         00020382863453              1    20        44145     
19BG148PK0KC4265919BG148PK0KC426591          REVENDEDORA DE GAS DO BRASIL LTDA                 20182019          VERMELHO CHILI                                                                                                                                                                                                    95394    000000000  QSG0140                                                  UTILITÁRIOS                                                                                                                                                                                                                                                                                                                                                                                                                                                                                                                                                                                                                                                               00000000000000000000000000000000000000000000000000000000000000000000000000000000201811220000000000000000202305290000000000000000000001001                         03092570000147              1    20        44145     
19BG148PK0MC4062259BG148PK0MC406225          EVANDRO JOVEM DE ARAUJO                           20202021          PRATA                                                                                                                                                                                                             69885    000000000  QFI1G42                                                  UTILITÁRIOS                                                                                                                                                                                                                                                                                                                                                                                                                                                                                                                                                                                                                                                               00000000000000000000000000000000000000000000000000000000000000000000000000000000202009190000000000000000202305230000000000000000000001000                         00069137846434              1    20        44512     
19BG148PK0MC4066649BG148PK0MC4066640124006146MARIA GILVERLANDIA DA SILVA PEREIRA               202020211000      PRATA                                             123       CINZA                                                                                     3DIESEL                                                     2882     0          QFH6H12                                                  PASSEIO                                                                                                                                                                                                                                                                                                                                                                                                                                                                                                                                                                                                                                                                   00000000002000000000000000002066500000000000002350000000000000002350000000000000202305080000000000000000202305080000000000000000010000001                         00008203714404              1    20147     23892     
19BG148PK0PC4413929BG148PK0PC441392220548    GRANJA SOUZA CRIAÇÃO DE AVES LTDA                 20222023148       BRANCO SUMMIT                                     18971     JET BLACK/VERY DARK ATMOSPHE                                                              3DIESEL                                                     0        0                                                                   UTILITÁRIOS                                                                                                                                                                                                                                                                                                                                                                                                                                                                                                                                                                                                                                                               00000000002778542400000000002580586700000000002778542400000000002778542400000000202305050000000000000000202305050000000000000000100100001                         20723112000188              1    20        44638     
19BG156FK0MC4019329BG156FK0MC401932          MINISTERIO DA JUSTICA E SEGURANCA PUBLICA         20202020          AZUL                                                                                                                                                                                                              79700    000000000  RLZ0A90                                                  UTILITÁRIOS                                                                                                                                                                                                                                                                                                                                                                                                                                                                                                                                                                                                                                                               00000000000000000000000000000000000000000000000000000000000000000000000000000000202011250000000000000000202305300000000000000000000001000                         00394494011766              1    22        44412     
19BG156MK0KC4451089BG156MK0KC445108          FABIO GONDIM MEPOMUCENO                           20192019          PRATA SWITCHBLADE                                                                                                                                                                                                 84222    000000000  QSF0023                                                  UTILITÁRIOS                                                                                                                                                                                                                                                                                                                                                                                                                                                                                                                                                                                                                                                               00000000000000000000000000000000000000000000000000000000000000000000000000000000201902250000000000000000202305220000000000000000000001001                         00087237520415              1    22        44121     
19BG156YK0LC4173389BG156YK0LC417338          ROBERTO PINTO DE OLIVEIRA FILHO                   20192019          VERMELHO EDIBLE BERRIES                                                                                                                                                                                           62484    000000000  QSI4318                                                  UTILITÁRIOS                                                                                                                                                                                                                                                                                                                                                                                                                                                                                                                                                                                                                                                               00000000000000000000000000000000000000000000000000000000000000000000000000000000201909030000000000000000202305100000000000000000000001001                         00002134573422              1    22        44317     
19BGEA48A0LG2169449BGEA48A0LG216944          MURIELLY MORAIS DE MEDEIROS FELIPE                20202020          BRANCO                                                                                                                                                                                                            28750    000000000  QGW9J06                                                  PASSEIO                                                                                                                                                                                                                                                                                                                                                                                                                                                                                                                                                                                                                                                                   00000000000000000000000000000000000000000000000000000000000000000000000000000000202003210000000000000000202305270000000000000000000001000                         00000777924404              1    40321     44448     
19BGEA48A0PG1578569BGEA48A0PG157856          ADRIANA MARIA DOS SANTOS                          20222022          BRANCO SUMMIT                                                                                                                                                                                                     25752    000000000  QSF6B02                                                  PASSEIO                                                                                                                                                                                                                                                                                                                                                                                                                                                                                                                                                                                                                                                                   00000000000000000000000000000000000000000000000000000000000000000000000000000000202207200000000000000000202304280000000000000000000001000                         00099704994400              1    40321     44623     
19BGEA48A0PG1820639BGEA48A0PG182063          JOSE ALVES DIAS                                   20222023          CINZA SATIN STEEL                                                                                                                                                                                                 10462    000000000  SKV9F00                                                  PASSEIO                                                                                                                                                                                                                                                                                                                                                                                                                                                                                                                                                                                                                                                                   00000000000000000000000000000000000000000000000000000000000000000000000000000000202210310000000000000000202305130000000000000000000001001                         00076618331820              1    40321     44623     
19BGEA48A0PG2524719BGEA48A0PG252471          DAO SILVEIRA MOTORS LTDA                          20222023          VERMELHO CARMIM                                                                                                                                                                                                   10       000000000                                                           PASSEIO                                                                                                                                                                                                                                                                                                                                                                                                                                                                                                                                                                                                                                                                   00000000000000000000000000000000000000000000000000000000000000000000000000000000202212230000000000000000202301030000000000000000000001000                         08811523000120              1    40321     44623     
19BGEA48A0PG2896629BGEA48A0PG289662          DAO SILVEIRA MOTORS LTDA                          20232023          VERMELHO CARMIM                                                                                                                                                                                                   10       000000000                                                           PASSEIO                                                                                                                                                                                                                                                                                                                                                                                                                                                                                                                                                                                                                                                                   00000000000000000000000000000000000000000000000000000000000000000000000000000000202303100000000000000000202303170000000000000000000001000                         08811523000391              1    40321     44623     
19BGEA48A0PG3058299BGEA48A0PG305829          JOSICLEIDE ANISIO ALMEIDA                         20232023          BRANCO SUMMIT                                                                                                                                                                                                     10       000000000                                                           PASSEIO                                                                                                                                                                                                                                                                                                                                                                                                                                                                                                                                                                                                                                                                   00000000000000000000000000000000000000000000000000000000000000000000000000000000202304190000000000000000202304200000000000000000000001000                         00076092127415              1    40321     44623     
19BGEA48A0RG1217789BGEA48A0RG121778104735    ROSEMARY BRANDAO CAVALCANTI                       20232024148       BRANCO SUMMIT                                     132       JET BLACK                                                                                 5GAS/ALCOOL                                                 0        0                                                                   PASSEIO                                                                                                                                                                                                                                                                                                                                                                                                                                                                                                                                                                                                                                                                   00000000000689110000000000000662800000000000000689110000000000000689110000000000202305220000000000000000202305220000000000000000100100001                         00008379817435              1    40321     45172     
19BGEA48H0NG1635399BGEA48H0NG163539          TATIANE DO CARMO MARCEDO DE OLIVEIRA              20202021          BRANCO                                                                                                                                                                                                            16252    000000000  RLX8C56                                                  PASSEIO                                                                                                                                                                                                                                                                                                                                                                                                                                                                                                                                                                                                                                                                   00000000000000000000000000000000000000000000000000000000000000000000000000000000202008170000000000000000202305020000000000000000000001000                         00003366292490              1    40321     124574    
19BGEA48H0PG3088559BGEA48H0PG308855104742    FABIANO MONTEIRO ARAUJO                           2023202312180     VERMELHO CARMIM                                   132       JET BLACK                                                                                 5GAS/ALCOOL                                                 0        0                                                                   PASSEIO                                                                                                                                                                                                                                                                                                                                                                                                                                                                                                                                                                                                                                                                   00000000000835420000000000000781917700000000000835420000000000000835420000000000202305090000000000000000202305090000000000000000100100001                         00057003785404              1    40321     44642     
19BGEA48HOMG1962509BGEA48HOMG196250          JOSENILDA DINIZ SIQUEIRA                          20212021          CINZA SATIN STEEL                                                                                                                                                                                                 60143    000000000  QFD8J81                                                  PASSEIO                                                                                                                                                                                                                                                                                                                                                                                                                                                                                                                                                                                                                                                                   00000000000000000000000000000000000000000000000000000000000000000000000000000000000000000000000000000000202305020000000000000000000001000                         00088465039453              1    40321     124577    
19BGEB43B0PB2397379BGEB43B0PB239737          DAO SILVEIRA MOTORS LTDA                          20232023          BRANCO SUMMIT                                                                                                                                                                                                     10       000000000                                                           UTILITÁRIOS                                                                                                                                                                                                                                                                                                                                                                                                                                                                                                                                                                                                                                                               00000000000000000000000000000000000000000000000000000000000000000000000000000000202303100000000000000000202304260000000000000000000001000                         08811523000120              1    20270     45155     
19BGEB43B0PB2475319BGEB43B0PB247531200860    IRINALDO PEREIRA DA SILVA FILHO                   20232023148       BRANCO SUMMIT                                     12644     JET BLACK/DK ASH GREY                                                                     5GAS/ALCOOL                                                 0        0                                                                   UTILITÁRIOS                                                                                         ALIENACAO FIDUCIARIA EM FAVOR DO BANCO GM S/A - NE                                                                                                                                                                                                                                                                                                                                                                                                                                                                                                                    00000000001137195000000000001235924100000000001246400000000000001246400000000000202305020000000000000000202305020000000000000000101000001                         00002281268438              1    20270     45155     
19BGEB43B0PB2476889BGEB43B0PB247688200860    OBERDA FARIAS DE SOUSA                            20232023148       BRANCO SUMMIT                                     12644     JET BLACK/DK ASH GREY                                                                     5GAS/ALCOOL                                                 0        0                                                                   UTILITÁRIOS                                                                                                                                                                                                                                                                                                                                                                                                                                                                                                                                                                                                                                                               00000000001137195000000000001223132500000000001214000000000000001214000000000000202305180000000000000000202305180000000000000000100000001                         00007891994757              1    20270     45155     
19BGEB48A0LG1532759BGEB48A0LG153275          NATAN AGRA                                        20192020          prata                                                                                                                                                                                                             24464    000000000  OGE4E11                                                  PASSEIO                                                                                                                                                                                                                                                                                                                                                                                                                                                                                                                                                                                                                                                                   00000000000000000000000000000000000000000000000000000000000000000000000000000000202001100000000000000000202305310000000000000000000001000                         00003418423469              1    40321     44393     
19BGEB48A0LG1729539BGEB48A0LG172953          SOCORRO POLLIANA M CLEMENTINO QUEIROGA            20202021          PRATA SWITCHBLADE                                                                                                                                                                                                 43168    000000000  OGE9F81                                                  PASSEIO                                                                                                                                                                                                                                                                                                                                                                                                                                                                                                                                                                                                                                                                   00000000000000000000000000000000000000000000000000000000000000000000000000000000202001150000000000000000202305270000000000000000000001001                         00090202481468              1    40321     44397     
19BGEB48A0LG2017569BGEB48A0LG201756          MARCOS ANTONIO DE OLIVEIRA SOUSA                  20202020          VERMELHO CARMIM                                                                                                                                                                                                   15681    000000000  QSI2I94                                                  PASSEIO                                                                                                                                                                                                                                                                                                                                                                                                                                                                                                                                                                                                                                                                   00000000000000000000000000000000000000000000000000000000000000000000000000000000202002110000000000000000202305290000000000000000000001001                         00002958561496              1    40321     44414     
19BGEB48A0LG2191049BGEB48A0LG219104          ADRIANA FERREIRA GOUVEIA                          20202020          BRANCO SUMMIT                                                                                                                                                                                                     25604    000000000  QSK7I05                                                  PASSEIO                                                                                                                                                                                                                                                                                                                                                                                                                                                                                                                                                                                                                                                                   00000000000000000000000000000000000000000000000000000000000000000000000000000000202003140000000000000000202305120000000000000000000001001                         00007366670405              1    40321     44415     
19BGEB48A0LG2601499BGEB48A0LG260149          EMMELYN DANTAS LOPES                              20202020          BRANCO SUMMIT                                                                                                                                                                                                     39658    000000000  QSK1D03                                                  PASSEIO                                                                                                                                                                                                                                                                                                                                                                                                                                                                                                                                                                                                                                                                   00000000000000000000000000000000000000000000000000000000000000000000000000000000202007240000000000000000202305290000000000000000000001001                         00010915319438              1    40321     44413     
19BGEB48A0LG2788219BGEB48A0LG278821          ALLAN MARTINS DE SOUZA CESARIO TAVEIRA            20202020          BRANCO SUMMIT                                                                                                                                                                                                     89941    000000000  QFE5J92                                                  PASSEIO                                                                                                                                                                                                                                                                                                                                                                                                                                                                                                                                                                                                                                                                   00000000000000000000000000000000000000000000000000000000000000000000000000000000202008240000000000000000202305190000000000000000000001001                         00010729698408              1    40321     44413     
19BGEB48A0MG1439129BGEB48A0MG143912          MATHEUS GOMES FEITOSA DE QUEIROGA                 20202020          BRANCA                                                                                                                                                                                                            70614    000000000  RLV6J10                                                  PASSEIO                                                                                                                                                                                                                                                                                                                                                                                                                                                                                                                                                                                                                                                                   00000000000000000000000000000000000000000000000000000000000000000000000000000000202011250000000000000000202305190000000000000000000001000                         00070158696409              1    40321     994906    
19BGEB48A0MG1458489BGEB48A0MG145848          JOSE PEREIRA DE SOUSA NETO                        20202021          PRATA SWITCHBLADE                                                                                                                                                                                                 36458    000000000  RLV7E60                                                  PASSEIO                                                                                                                                                                                                                                                                                                                                                                                                                                                                                                                                                                                                                                                                   00000000000000000000000000000000000000000000000000000000000000000000000000000000202011200000000000000000202305270000000000000000000001001                         00009621472490              1    40321     44475     
19BGEB48A0MG1775839BGEB48A0MG177583          JOSE VALTER BARBOSA GOMES                         20212021          BRANCO                                                                                                                                                                                                            20798    000000000  QFI6G12                                                  PASSEIO                                                                                                                                                                                                                                                                                                                                                                                                                                                                                                                                                                                                                                                                   00000000000000000000000000000000000000000000000000000000000000000000000000000000202102010000000000000000202305090000000000000000000001000                         00007269808465              1    40321     44482     
19BGEB48A0MG2147839BGEB48A0MG214783          CRISTIANO PEDRO FERREIRA                          20212021          PRATA SWITCHBLADE                                                                                                                                                                                                 30080    000000000  RLQ8D25                                                  PASSEIO                                                                                                                                                                                                                                                                                                                                                                                                                                                                                                                                                                                                                                                                   00000000000000000000000000000000000000000000000000000000000000000000000000000000202103310000000000000000202305190000000000000000000001000                         00002439820466              1    40321     44481     
19BGEB48A0NG1329629BGEB48A0NG132962          FLAUBERTO JOSE MARTINS ALMEIDA                    20212022          PRETO                                                                                                                                                                                                             33899    000000000  RLZ9J78                                                  PASSEIO                                                                                                                                                                                                                                                                                                                                                                                                                                                                                                                                                                                                                                                                   00000000000000000000000000000000000000000000000000000000000000000000000000000000202111090000000000000000202305170000000000000000000001000                         00003168927422              1    40321     44565     
19BGEB48A0NG1410259BGEB48A0NG141025          ANTONIO GUSTAVO DE LUNA SOUTO                     20212022          VERMELHO CARMIM                                                                                                                                                                                                   19047    000000000  RLW3D17                                                  PASSEIO                                                                                                                                                                                                                                                                                                                                                                                                                                                                                                                                                                                                                                                                   00000000000000000000000000000000000000000000000000000000000000000000000000000000202111260000000000000000202305230000000000000000000001001                         00006457865437              1    40321     44564     
19BGEB48A0NG1416559BGEB48A0NG141655          DIGILLA CABRAL LIRA                               20212022          PRETO OURO NEGRO                                                                                                                                                                                                  30335    000000000  RLX4J27                                                  PASSEIO                                                                                                                                                                                                                                                                                                                                                                                                                                                                                                                                                                                                                                                                   00000000000000000000000000000000000000000000000000000000000000000000000000000000202112060000000000000000202305030000000000000000000001001                         00005319167407              1    40321     44565     
19BGEB48A0NG1955369BGEB48A0NG195536          BARBARA LEONIA FARIAS BATISTA GOMES               20222022          PRATA SWITCHBLADE                                                                                                                                                                                                 19452    000000000  RLX4H23                                                  PASSEIO                                                                                                                                                                                                                                                                                                                                                                                                                                                                                                                                                                                                                                                                   00000000000000000000000000000000000000000000000000000000000000000000000000000000202203310000000000000000202305310000000000000000000001001                         00009527479444              1    40321     44564     
