1100           027135290035270798550100151 ALFA SEGURADORA S / A.                                                                              Q SRTVS, CONJUNTO D, BLOCO C, LOJA 1, TERREO      ASA SUL                                           5300108 BRASILIA                                          DF70340907           11 31755056           henrique@alfaseg.com.br                                                                             00000000020230529202305292023052920230529
140            92682038010415ISENTO        BRADESCO/JOAO PESSOA/0104/15                                                                        PARQUE SOLON DE LUCENA                            CENTRO                                            2507507 JOAO PESSOA                                       PB5801303183 2108810951 99439190           adeildosimoes@daosilveira.com.br                                                                    00000000020120427201205192023053020230516
144            33448150001860              AZUL CIA /RIO DE JANEIRO/00018-60                                                                   DA ALFANDEGA, TERREO                              CENTRO                                            3304557 RIO DE JANEIRO                                    RJ2007000021 4004-370                      PAGAMENTO.OFICINAS@AZULSEGUROS.COM.BR                                                               00000000020090721201208212023053120230531
159            61074175008201              MAPFRE/JOAOPESSOA/0082/01                                                                           AVENIDA PRESIDENTE EPITACIO PESSOA                BAIRRO DOS ESTADOS                                2507507 JOAO PESSOA                                       PB5803000083 3077979783 3077979783 30779797cobranca1@espacialautopecas.com.br                                                                  00000000020110927201311282023053120230531
164            61573796000166108063509113  ALLIANZ0001/66                                                                                      RUA EUGENIO DE MEDEIROS 5  ANDAR                  PINHEIROS                                         3550308 SAO PAULO                                         SP0542500011 3741300411 37413004           heriane@espacialautopecas.com.br                                                                    00000000020050112201207042023053120230531
172            61573796003424              ALLIANZ SEGUROS S/A NATAL                                                                           AV . AFONSO PENA, 957  COD.JARDINS DO ALTO COND JATIROL                                             2408102 NATAL                                             RN5902026584 3201030484 3201030484 32010304allianz.gm@slvconsultoria.com                                                                       00000000020150518202211252023053020230530
178            61550141014637ISENTO        LIBERTY/JOÃOPESSOA/0146-37                                                                          AV.MARANHAO                                       BAIRRO DOS ESTADOS                                2507507 JOAO PESSOA                                       PB5803026083 0800152583 99861245           adeildosimoes@daosilveira.com.br                                                                    00000000020130718201307182023052520230525
