11136663495     01136663495   KAIO JULIO DE SOUZA MAIA                          FCNR PIRAPORA                                        NEOPOLES                                          NATAL                                             RN59088330                                                  NEOPOLES                                                                                              00000000R PIRAPORA                                        NEOPOLES                                          NATAL                                             RN59088330                      84 99816261pepakaio@hotmail.com                                                                                00000000000000000000000000                                                                                                                  1865071             SSMCMILITAR                                           00000000000000000019820331                                                                       00000000202008251
16727300496     06727300496   JOILDSON WILLYAM DA SILVA APOLINARIO              FCNRUA ADOLFO GORDO                                  CIDADE DA ESPERANCA                               NATAL                                             RN59070100RUA ADOLFO GORDO                                  CIDADE DA ESPERANCA                               NATAL                                             RN59070100RUA ADOLFO GORDO                                  CIDADE DA ESPERANCA                               NATAL                                             RN5907010084 9960503684 9960503684 99605036joildosnn@hotmail.com                                                                               00000000000000000000000000                                                                                                                  1808705             SSMOAUTONOMO                                          00000000000000000019870915                                                                       00000000202304051
19162487477     09162487477   VANDERSON PINTO DA FONSECA                        FCNTRAVESSA SENADOR SALGADO FILHO                    CANDELARIA                                        NATAL                                             RN59064741TRAVESSA SENADOR SALGADO FILHO                    CANDELARIA                                        NATAL                                             RN59064741TRAVESSA SENADOR SALGADO FILHO                    CANDELARIA                                        NATAL                                             RN5906474184 99655765           84 99700888vanderson_kinho@hotmail.com                                                                         00000000000000000000000000                                                                                                                  002789495           SSMSOUTROS                                            00000000000000000019890504                                                                       00000000201107261
111751799492    11751799492   ANA THAIS ARAUJO DE LIMA                          FCNRUA AREIA BRANCA                                  PONTA NEGRA                                       NATAL                                             RN59090280RUA AREIA BRANCA                                  PONTA NEGRA                                       NATAL                                             RN59090280RUA AREIA BRANCA                                  PONTA NEGRA                                       NATAL                                             RN5909028084 98622124           84 98622124anathais@gmail.com.br                                                                               00000000000000000000000000                                                                                                                  003111793           SSFSCOMERCIANTE                                       00000000000000000019970222                                                                       00000000202305271
121442410310    21442410310   FRANCISCA BLANDINA ANDRADE TRINDADE               FCNRUA LUCIA VIVEIROS                                NEOPOLIS                                          NATAL                                             RN59086005RUA LUCIA VIVEIROS                                NEOPOLIS                                          NATAL                                             RN59086005RUA S CLEMENTE                                    JARDIM PLANALTO                                   PARNAMIRIM                                        RN5915513584 32721067           84 98865111blandinaandrade@hotmail.com                                                                         00000000000000000000000000                                                                                                                  2001010341          SSFSFUNCIONARIO PUBLICO                               00000000000000000019591110                                                                       00000000200710271
122232010406    22232010406   RONALDO AUGUSTO DE MORAIS                         FCNFAZENDA CATOLE                                    AREA RURAL                                        NOVA CRUZ                                         RN59215000FAZENDA COTOLE                                    AREA RURAL                                        NOVA CRUZ                                         RN59215000FAZENDA CATOLE                                    AREA RURAL                                        NOVA CRUZ                                         RN5921500084 3281290984 9175345784 99472647sec.servicos@natalveiculos.com.br                                                                   00000000000000000000000000                                                                                                                  425054              SSMSAUTONOMO                                          00000000000000000019601101                                                                       00000000200805291
122952462704    22952462704   FELIPE FERNANDES JUNIOR                           FCNR. DES JOAO DANTAS SALES,13                       LAGOA NOVA                                        NATAL                                             RN59056220                                                  LAGOA NOVA                                                                                            00000000R. DES JOAO DANTAS SALES,13                       LAGOA NOVA                                        NATAL                                             RN5905622084 32225381           84 98105111felipefernandesjunior05@gmail.com                                                                   00000000000000000000000000                                                                                                                  218.515             PMMSOUTROS                                            00000000000000000019460531                                                                       00000000200212041
131066836353    31066836353   JOSE WEIDER PINHEIRO FILHO                        FCNAV DR JULIANO MOREIRA                             PAJUCARA                                          NATAL                                             RN59131430AV DR JULIANO MOREIRA                             PAJUCARA                                          NATAL                                             RN59131430AV DR JULIANO MOREIRA                             PAJUCARA                                          NATAL                                             RN5913143084 9883956884 9883956884 98839568wpweider01@gmail.com                                                                                00000000000000000000000000                                                                                                                  460630              ITMCADMINISTRACAO                                     00000000000000000019680619                                                                       00000000202305311
145528368898    45528368898   LUCAS GALARDO QUINTANILHA                         FCNESTRADA PARA CATRE                                EMAUS                                             PARNAMIRIM                                        RN59148520ESTRADA PARA CATRE                                EMAUS                                             PARNAMIRIM                                        RN59148520ESTRADA PARA CATRE                                EMAUS                                             PARNAMIRIM                                        RN5914852012 9817754212 9817754212 98177542lucasgalardo@hotmail.com                                                                            00000000000000000000000000                                                                                                                  582254437           SSMSMILITAR                                           00000000000000000019970531                                                                       00000000202305091
166404266415    66404266415   MARIA MONICA DA SILVA                             FCNRUA JOAO ATAIDE DE MELO                           CENTRO                                            TANGARA                                           RN59240000RUA JOAO ATAIDE DE MELO                           CENTRO                                            TANGARA                                           RN59240000RUA JOAO ATAIDE DE MELO                           CENTRO                                            TANGARA                                           RN5924000084 9965629984 9965629984 99656299mariamnicadasilva@yahoo.com.br                                                                      00000000000000000000000000                                                                                                                  1225222             SSFSCOMERCIANTE                                       00000000000000000019710325                                                                       00000000202305191
170112879497    70112879497   INGRYD RAYANE DA SILVA                            FCNRUA PRESIDENTE LEAO VELOSO                        ALECRIM                                           NATAL                                             RN59032500RUA PRESIDENTE LEAO VELOSO                        ALECRIM                                           NATAL                                             RN59032500RUA PRESIDENTE LEAO VELOSO                        ALECRIM                                           NATAL                                             RN5903250084 9887795284 9887795284 98877952ingrydrayane394@gmail.com                                                                           00000000000000000000000000                                                                                                                  002620382           SSFSCOMERCIANTE                                       00000000000000000019950829                                                                       00000000202305181
178657458500    78657458500   JUSCELINO AFONSO DE CARVALHO                      FCNRUA SAO CAETANO                                   EMAUS                                             PARNAMIRIM                                        RN59148410RUA SAO CAETANO                                   EMAUS                                             PARNAMIRIM                                        RN59148410RUA SAO CAETANO                                   EMAUS                                             PARNAMIRIM                                        RN5914841084 9991995084 9818455484 99919950juscelino@crediuni.com                                                                              00000000000000000000000000                                                                                                                  7734065             SDMDMICRO EMPRESARIO                                  00000000000000000019770116                                                                       00000000201707191
197103799415    97103799415   FRANCISCO CANINDE DE LIMA                         FCNAV. RODRIGUES ALVES                               TIROL                                             NATAL                                             RN59020200AV. RODRIGUES ALVES                               TIROL                                             NATAL                                             RN59020200AV. RODRIGUES ALVES                               TIROL                                             NATAL                                             RN5902020084 9818656384 9818656384 98186563canindedelimagalego@gmail.com                                                                       00000000000000000000000000                                                                                                                  1482827             ITMCADMINISTRACAO                                     00000000000000000019741130                                                                       00000000202305191
140762890000193 40762890000193ESPACIAL CAR RENTAL LTDA                          JANAV NASCIMENTO DE CASTRO                           LAGOA NOVA                                        NATAL                                             RN59056450AV NASCIMENTO DE CASTRO                           LAGOA NOVA                                        NATAL                                             RN59056450AV NASCIMENTO DE CASTRO                           LAGOA NOVA                                        NATAL                                             RN5905645084 3234100784 3232455684 32062655financeiro@espacialcarrental.com.br                                                                 00000000000000000000600000ISENTO                                                          ATACADO                                                                                                                     00000000000000000000000000                                                                       00000000200501191
142023593000151 42023593000151WIND CAR MULTIMARCAS LTDA                         JCNQ QNO 1 CONJUNTO H LOTE                           CEILANDIA NORTE                                   BRASILIA                                          DF72250108Q QNO 1 CONJUNTO H LOTE                           CEILANDIA NORTE                                   BRASILIA                                          DF72250108Q QNO 1 CONJUNTO H LOTE                           CEILANDIA NORTE                                   BRASILIA                                          DF7225010861 9826607084 9826607061 98266070windcarveiculosdf@gmail.com                                                                         000000000000000000000000000805682900100 WIND CAR VEICULOS                                 VAREJO                                                                                                                      00000000000000000000000000                                                                       00000000202305091
12834834407     02834834407   SANDRO JORGE DE FARIAS DE OLIVEIRA                FCNRUA ESTRELA DO MAR                                NOVA PARNAMIRIM                                   NATAL                                             RN59151120RUA ESTRELA DO MAR                                NOVA PARNAMIRIM                                   NATAL                                             RN59151120RUA ESTRELA DO MAR                                NOVA PARNAMIRIM                                   NATAL                                             RN5915112084 99722272           84 99972227sjfoco@icloud.com                                                                                   00000000000000000000000000                                                                                                                  1621823             SSMSAGENTE                                            00000000000000000019790507                                                                       00000000202305311
11646041461     01646041461   IGOR CESAR DE ANDRADE BARRETO                     FCNAV PETRA KELLY                                    NOVA PARNAMIRIM                                   PARNAMIRIM                                        RN59152330AV PETRA KELLY                                    NOVA PARNAMIRIM                                   PARNAMIRIM                                        RN59152330AV PETRA KELLY                                    NOVA PARNAMIRIM                                   PARNAMIRIM                                        RN5915233084 9814599184 9814599184 98145991igor_cesar_20@hotmail.com                                                                           00000000000000000000000000                                                                                                                  002594219           SSMSCOMERCIANTE                                       00000000000000000019911010                                                                       00000000202305131
156559348415    56559348415   JOSE BRAZ SOARES DE FREITAS                       FCNRUA JARDIM DOS EUCALIPTOS                         NOVA PARNAMIRIM                                   PARNAMIRIM                                        RN59151750RUA JARDIM DOS EUCALIPTOS                         NOVA PARNAMIRIM                                   PARNAMIRIM                                        RN59151750RUA JARDIM DOS EUCALIPTOS                         NOVA PARNAMIRIM                                   PARNAMIRIM                                        RN5915175084 9816358084 9816358084 98163580denizemartins2010@hotmail.com                                                                       00000000000000000000000000                                                                                                                  947828              SSMCOUTROS                                            00000000000000000019660923                                                                       00000000201804301
12977382402     02977382402   JUVANEIDE LUCIANA DOS SANTOS DE MEDEIROS          FCNRUA RIO GRANDE DO SUL                             SANTO ANTONIO DO POTENGI                          SAO GONCALO DO AMARANTE                           RN59297240RUA RIO GRANDE DO SUL                             SANTO ANTONIO DO POTENGI                          SAO GONCALO DO AMARANTE                           RN59297240RUA RIO GRANDE DO SUL                             SANTO ANTONIO DO POTENGI                          SAO GONCALO DO AMARANTE                           RN5929724084 99818901           84 99818901juvaneidemedeiros@gmail.com                                                                         00000000000000000000000000                                                                                                                  1685325             ITFSACADEMIA DE GINASTICA                             00000000000000000019761004                                                                       00000000202305081
13099081400     03099081400   TELMO BEZERRA DOS SANTOS                          FCNRUA SANTA CLARA                                   FELIPE CAMARAO                                    NATAL                                             RN59072470                                                  FELIPE CAMARAO                                                                                        00000000RUA SANTA CLARA                                   FELIPE CAMARAO                                    NATAL                                             RN5907247584 9877635584 9877635584 98776355telmobezerrasantos@gmail.com                                                                        00000000000000000000000000                                                                                                                  1615430             ITMCFRIGORIFICO                                       00000000000000000019790716                                                                       00000000202305291
15010845415     05010845415   ALCIR DANTAS DE SOUZA                             FCNHAROLDO DE ALMEIDA                                LAGOA NOVA                                        NATAL                                             RN59076820RUA HAROLDO DE ALMEIDA                            LAGOA NOVA                                        NATAL                                             RN59076820HAROLDO DE ALMEIDA                                LAGOA NOVA                                        NATAL                                             RN5907682084 99637244           84 99637244alcirdantas08@hotmail.com                                                                           00000000000000000000000000                                                                                                                  000104958           SSMCAPOSENTADO                                        00000000000000000019500821                                                                       00000000201109031
15612945426     05612945426   HYLLMA LUANA E SILVA                              FCNRUA JOSE WILLIAM DE MACEDO                        SANTANA                                           SANTANA DO MATOS                                  RN59520000RUA JOSE WILLIAM DE MACEDO                        SANTANA                                           SANTANA DO MATOS                                  RN59520000RUA JOSE WILLIAM DE MACEDO                        SANTANA                                           SANTANA DO MATOS                                  RN59520000           84 96387554           gassantana.25@gmail.com                                                                             00000000000000000000000000                                                                                                                  2338693             SSFSCOSTUREIRA                                        00000000000000000019850408                                                                       00000000202305151
17979752414     07979752414   JAMILLY RAIANE GOMES DE SALES                     FCNSI TALISMA                                        ZONA RURAL                                        VERA CRUZ                                         RN59184000SI TALISMA                                        ZONA RURAL                                        VERA CRUZ                                         RN59184000SI TALISMA                                        ZONA RURAL                                        VERA CRUZ                                         RN5918400084 9879963184 9879963184 98799631rainejamilly@gmail.com                                                                              00000000000000000000000000                                                                                                                  2567360             SSFSFUNCIONARIO PUBLICO                               00000000000000000019880407                                                                       00000000202305031
18559139400     08559139400   ALMIRA FRANCISCA SILVEIRA E SOUZA                 FCNRUA CEL LUCIANO SALDANHA                          CAPIM MACIO                                       NATAL                                             RN59078390RUA CEL LUCIANO SALDANHA                          CAPIM MACIO                                       NATAL                                             RN59078390RUA CEL LUCIANO SALDANHA                          CAPIM MACIO                                       NATAL                                             RN5907839084 9992843484 9992843484 99928434helio2helio@yahoo.com.br                                                                            00000000000000000000000000                                                                                                                  157203              SSFCADMINISTRACAO                                     00000000000000000019521219                                                                       00000000202305221
112389025455    12389025455   WILLIANA GRAZIELE DOS SANTOS OLIVEIRA             FCNAVENIDA DIOCESANA                                 NOVA BETANIA                                      MOSSORO                                           RN59603200AVENIDA DIOCESANA                                 NOVA BETANIA                                      MOSSORO                                           RN59603200AVENIDA DIOCESANA                                 NOVA BETANIA                                      MOSSORO                                           RN5960320084 9993571784 9993571784 99935717willianaoliveira6@gmail.com                                                                         00000000000000000000000000                                                                                                                  3542969             SSFOAUTONOMA                                          00000000000000000019981009                                                                       00000000202305221
120078846404    20078846404   GILENE FREIRES DE ARAUJO SOUSA                    FANRUA SAO JOSE DOS CAMPOS                           POTENGI                                           NATAL                                             RN59124260RUA SAO JOSE DOS CAMPOS                           POTENGI                                           NATAL                                             RN59124260RUA SAO JOSE DOS CAMPOS                           POTENGI                                           NATAL                                             RN5912426084 9881050484 8810504384 98810504sousagilene78@gmail.com                                                                             00000000000000000000000000                                                                                                                  381475              SSFCOUTROS                                            00000000000000000019600209                                                                       00000000201202281
124326003472    24326003472   FREDERICO MAGNUS DE LARA MENEZES                  FCNRUA HUMBERTO MONTE                                CAPIM MACIO                                       NATAL                                             RN59082190RUA HUMBERTO MONTE                                CAPIM MACIO                                       NATAL                                             RN59082190RUA HUMBERTO MONTE                                CAPIM MACIO                                       NATAL                                             RN5908219084 9999168084 3642186684 99986708fmlmenezes@uol.com.br                                                                               00000000000000000000000000                                                                                                                  394511              SSMSOUTROS                                            00000000000000000019601017                                                                       00000000200501311
150350790400    50350790400   WAGNER LIMA DE CARVALHO                           FCNRUA PRINCESA ISABEL                               CIDADE ALTA                                       NATAL                                             RN59025400RUA PRINCESA ISABEL                               CIDADE ALTA                                       NATAL                                             RN59025400RUA PRINCESA ISABEL                               CIDADE ALTA                                       NATAL                                             RN5902540084 9943195884 9943195884 99431958wagner@videofotica.com.br                                                                           00000000000000000000000000                                                                                                                  457877              SSMOOUTROS                                            00000000000000000019650302                                                                       00000000200412301
156805748372    56805748372   ALEXANDRE DE PAULA PESSOA FROTA                   FCNRUA DOM JOAQUIM DE ALMEIDA                        LAGOA NOVA                                        NATAL                                             RN59056140RUA DOM JOAQUIM DE ALMEIDA                        LAGOA NOVA                                        NATAL                                             RN59056140RUA DOM JOAQUIM DE ALMEIDA                        LAGOA NOVA                                        NATAL                                             RN5905614084 9814198784 9814198784 98141987frotavez@bol.com.br                                                                                 00000000000000000000000000                                                                                                                  93002067170         ITMCCOMERCIANTE                                       00000000000000000019760715                                                                       00000000201302011
131854838000176 31854838000176AUTO SHOW COMERCIO DE VEICULOS LTDA               JCNROD SC 445                                        CENTRO                                            ICARA                                             SC88820000ROD SC 445                                        CENTRO                                            ICARA                                             SC88820000ROD SC 445                                        CENTRO                                            ICARA                                             SC8882000048 9998454648 9998454648 99984546autoshowseminovos@hotmail.com                                                                       00000000000000000000000000258865792     AUTO SHOW SEMINOVOS                               VAREJO                                                                                                                      00000000000000000000000000                                                                       00000000202305251
139556882000101 39556882000101DIVANALDO CARVALHO DE OLIVEIRA JUNIOR LTDA        JCNRUA LUCIA VIVEIROS                                NEOPOLIS                                          NATAL                                             RN59086005RUA LUCIA VIVEIROS                                NEOPOLIS                                          NATAL                                             RN59086005RUA LUCIA VIVEIROS                                NEOPOLIS                                          NATAL                                             RN5908600584 9913018484 9913018484 99130184aceleramultimarcasrn@gmail.com                                                                      00000000000000000000000000205571476     ACELERA MULTIMARCAS                               VAREJO                                                                                                                      00000000000000000000000000                                                                       00000000202305101
18771971483     08771971483   RAFAELLA LOPES ARAUJO                             FCNESTRADA PARA CATRE                                EMAUS                                             PARNAMIRIM                                        RN59148520ESTRADA PARA CATRE                                EMAUS                                             PARNAMIRIM                                        RN59148520ESTRADA PARA CATRE                                EMAUS                                             PARNAMIRIM                                        RN5914852084 99605518           84 98846555rafaellalopesa1@gmail.com                                                                           00000000000000000000000000                                                                                                                  1819827             SSFSPSICOLOGO                                         00000000000000000019900424                                                                       00000000201911191
140645274453    40645274453   GILVAN JOSE MAIA DOS SANTOS                       FCNRUA DO COQUEIRO                                   POTENGI                                           NATAL                                             RN59120510RUA DO COQUEIRO                                   POTENGI                                           NATAL                                             RN59120510RUA DO COQUEIRO                                   POTENGI                                           NATAL                                             RN5912051084 9992283584 9992283584 99922835gilvanmaiazn@gmail.com                                                                              00000000000000000000000000                                                                                                                  692935              SSMOPOLICIA MILITAR                                   00000000000000000019660711                                                                       00000000202302021
1935306412      00935306412   RENATA PATRICIA DA COSTA SILVA                    FCNRUA DO MOTOR                                      PRAIA DO MEIO                                     NATAL                                             RN59010090RUA DO MOTOR                                      PRAIA DO MEIO                                     NATAL                                             RN59010090RUA DO MOTOR                                      PRAIA DO MEIO                                     NATAL                                             RN5901009084 9881230984 9881230984 88123096renatadodance123@hotmail.com                                                                        00000000000000000000000000                                                                                                                  1728618             SSFSEDUCADOR FISICO                                   00000000000000000019791018                                                                       00000000201407151
14906487467     04906487467   TELMA DE FATIMA DE ARAUJO SILVA                   FCNRUA RIO MEARIM                                    PITIMBU                                           NATAL                                             RN59068410RUA RIO MEARIM                                    PITIMBU                                           NATAL                                             RN59068410RUA RIO MEARIM                                    PITIMBU                                           NATAL                                             RN59068410                                 telmaaraujo76@hotmail.com                                                                           00000000000000000000000000                                                                                                                  001609428           ITFCEMPRESARIA                                        00000000000000000019760823                                                                       00000000202305191
15689821420     05689821420   NEUZA SOARES LOURENÇO                             FCNRUA SETE LAGOAS                                   NOVA PARNAMIM                                     PARNAMIRIM                                        RN59150135RUA SETE LAGOAS                                   NOVA PARNAMIM                                     PARNAMIRIM                                        RN59150135RUA SETE LAGOAS                                   NOVA PARNAMIM                                     PARNAMIRIM                                        RN5915013584 9984259184 9984259184 99842591rcell_line@hotmail.com                                                                              00000000000000000000000000                                                                                                                  96287               SSFCAPOSENTADA                                        00000000000000000019870427                                                                       00000000202305051
16741300490     06741300490   RAIMUNDO FERNANDES DOS SANTOS JUNIOR              FCNAVENIDA ALTO MONTE BELO                           NEOPOLIS                                          NATAL                                             RN59086375AVENIDA ALTO MONTE BELO                           NEOPOLIS                                          NATAL                                             RN59086375AVENIDA ALTO MONTE BELO                           NEOPOLIS                                          NATAL                                             RN5908637584 9888547784 9888547784 98885477juninhorf50@gmail.com                                                                               00000000000000000000000000                                                                                                                  002592661           ITMOAUTONOMO                                          00000000000000000019930910                                                                       00000000202205261
19467217422     09467217422   MIQUEIAS DA SILVA CAMPELO                         FCNRUA ENG JOAO HELIO ALVES ROCHA                    PLANALTO                                          NATAL                                             RN59073070RUA ENG JOAO HELIO ALVES ROCHA                    PLANALTO                                          NATAL                                             RN59073070RUA ENG JOAO HELIO ALVES ROCHA                    PLANALTO                                          NATAL                                             RN5907307084 36142998           84 87013405iaracarla16@gmail.com                                                                               00000000000000000000000000                                                                                                                  2617178             SSMSTECNICA EM TELECOMUNICACOES                       00000000000000000019911220                                                                       00000000201305031
19700501515     09700501515   JULIO BENEDITO FILHO                              FCNRUA CILENO SILVA                                  NOVA PARNAMIRIM                                   PARNAMIRIM                                        RN59151270RUA CILENO SILVA                                  NOVA PARNAMIRIM                                   PARNAMIRIM                                        RN59151270RUA CILENO SILVA                                  NOVA PARNAMIRIM                                   PARNAMIRIM                                        RN5915127084 9995045384 9995045384 99950453juliojuanblack@hotmail.com                                                                          00000000000000000000000000                                                                                                                  197144              SSMCAPOSENTADO                                        00000000000000000019540329                                                                       00000000200509131
110710035420    10710035420   JONAS DE PAIVA JUNIOR                             FCNAL DOS BOSQUES                                    PARQUE DO JIQUI                                   PARNAMIRIM                                        RN59153150AL DOS BOSQUES                                    PARQUE DO JIQUI                                   PARNAMIRIM                                        RN59153150AL DOS BOSQUES                                    PARQUE DO JIQUI                                   PARNAMIRIM                                        RN5915315084 9998426584 9998426584 99984265jonas_paiva@hotmail.com                                                                             00000000000000000000000000                                                                                                                  003409644           SSMCPASTOR                                            00000000000000000019510214                                                                       00000000202305121
118241751400    18241751400   JOSUE CAMARA SOBRINHO                             FCNSIT CORREGO                                       ZONA RURAL                                        APODI                                             RN59700000SIT CORREGO                                       ZONA RURAL                                        APODI                                             RN59700000SIT CORREGO                                       ZONA RURAL                                        APODI                                             RN5970000084 9941922984 9941922984 99419229josuecamara@gmail.com                                                                               00000000000000000000000000                                                                                                                  315320              ITMOEMPREENDIMENTOS                                   00000000000000000019570405                                                                       00000000202305231
132460589115    32460589115   WALDEMAR ROBERTO DE OLIVEIRA                      FCNRUA CURSY DE ALMEIDA                              CIDADE ALTA                                       NATAL                                             RN59012450RUA CURSY DE ALMEIDA                              CIDADE ALTA                                       NATAL                                             RN59012450RUA CURSY DE ALMEIDA                              CIDADE ALTA                                       NATAL                                             RN5901245084 98802039           84 98802039waldesigner@hotmail.com                                                                             00000000000000000000000000                                                                                                                  003378802           ITMCAPOSENTADO                                        00000000000000000019640420                                                                       00000000202305101
140556360753    40556360753   FRANCISCO DE ASSIS BARBOSA                        FCNJOAQUIM RODRIGUES DA SILVA                        SANTO ANTONIO                                     NATAL                                             RN59290000JOAQUIM RODRIGUES DA SILVA                        SANTO ANTONIO                                     NATAL                                             RN59290000JOAQUIM RODRIGUES DA SILVA                        SANTO ANTONIO                                     NATAL                                             RN59290000           84 9997081284 98723641ageilson@hotmail.com                                                                                00000000000000000000000000                                                                                                                  325646              MMMCPRODUTOR RURAL                                    00000000000000000019540814                                                                       00000000201805251
142360064487    42360064487   MARCOS ANTONIO NUNES DA ROCHA                     FCNRUA PEDRO TARGINO                                 NOSSA SENHORA DE NAZARE                           NATAL                                             RN59062160RUA PEDRO TARGINO                                 NOSSA SENHORA DE NAZARE                           NATAL                                             RN59062160RUA PEDRO TARGINO                                 NOSSA SENHORA DE NAZARE                           NATAL                                             RN5906216084 98849755           84 88497558elienenu.nez2001@gmail.com                                                                          00000000000000000000000000                                                                                                                  003743847           SSMSAPOSENTADA                                        00000000000000000019640502                                                                       00000000202305091
149024914434    49024914434   MARCOS JORGE DE MORAIS                            FCNRUA PROFESSORA FRANCISCA DE MEDEIROS              PAJUCARA                                          NATAL                                             RN59000001RUA PROFESSORA FRANCISCA DE MEDEIROS              PAJUCARA                                          NATAL                                             RN59000001RUA PROFESSORA FRANCISCA DE MEDEIROS              PAJUCARA                                          NATAL                                             RN5900000184 32022533           84         marcos.jmorais@gmail.com                                                                            00000000000000000000000000                                                                                                                  787809              ITMSOUTROS                                            00000000000000000019000101                                                                       00000000200501131
165035470644    65035470644   JOSEFA BETANIA SANTOS DA SILVA                    FCNTANCREDO REGIS SANTOS DA SILVA                    BARRO VERMELHO                                    SANTA CRUZ                                        RN59200000TANCREDO REGIS SANTOS DA SILVA                    BARRO VERMELHO                                    SANTA CRUZ                                        RN59200000TANCREDO REGIS SANTOS DA SILVA                    BARRO VERMELHO                                    SANTA CRUZ                                        RN59200000                      84 99905570betaniamarques2008@hotmail.com                                                                      00000000000000000000000000                                                                                                                  SPPRN               SSFCAUTONOMA                                          00000000000000000019650706                                                                       00000000202305091
167170579472    67170579472   JOSE JAILSON FERREIRA CAMPOS                      FCNAVENIDA PREFEITO MILTON DANTAS DE MEDEIR          PARQUE DAS NACOES                                 PARNAMIRIM                                        RN59158170AVENIDA PREFEITO MILTON DANTAS DE MEDEIROS        PARQUE DAS NACOES                                 PARNAMIRIM                                        RN59158170AVENIDA PREFEITO MILTON DANTAS DE MEDEIROS        PARQUE DAS NACOES                                 PARNAMIRIM                                        RN5915817084 9961107984 9961107984 99611079rafaelaracampus@gmail.com                                                                           00000000000000000000000000                                                                                                                  03569               SSMSIMOBILIARIA                                       00000000000000000019680404                                                                       00000000202205171
187691515472    87691515472   KLEIZE TEIXEIRA ALVES                             FCNRUA DAS PERDIZES                                  PITIMBU                                           NATAL                                             RN59067480RUA DAS PERDIZES                                  PITIMBU                                           NATAL                                             RN59067480RUA DAS PERDIZES                                  PITIMBU                                           NATAL                                             RN5906748084 9881753084 9881753084 98817530ktanatal@hotmail.com                                                                                00000000000000000000000000                                                                                                                  1349199             ITMCCOMERCIANTE                                       00000000000000000019770713                                                                       00000000201908051
191424879434    91424879434   LUCIANO OLIVEIRA DUARTE                           FCNAVENIDA PRESIDENTE BANDEIRA                       LAGOA SECA                                        NATAL                                             RN59032170AVENIDA PRESIDENTE BANDEIRA                       LAGOA SECA                                        NATAL                                             RN59032170AVENIDA PRESIDENTE BANDEIRA                       LAGOA SECA                                        NATAL                                             RN5903217084 98713922           84 98713922leandroalvestb@hotmail.com                                                                          00000000000000000000000000                                                                                                                  1272973             ITMCPRODUTOR RURAL                                    00000000000000000019741012                                                                       00000000202201221
198038478487    98038478487   JOSE ROBERTO FEITOSA DE SOUSA                     FANRUA OLEGARIO DOROTEIA DUTRA                       CENTRO                                            PATU                                              RN59770000RUA OLEGARIO DOROTEIA DUTRA                       CENTRO                                            PATU                                              RN59770000RUA OLEGARIO DOROTEIA DUTRA                       CENTRO                                            PATU                                              RN5977000084 99951775           84 99951775joseroberto@gmail.com                                                                               00000000000000000000000000                                                                                                                  1755540             SSMSCOMERCIANTE                                       00000000000000000019730116                                                                       00000000201109161
117007095000178 17007095000178LC LOTERIAS LTDA                                  JCNR DA MATRIZ                                       CENTRO                                            LAGOA D ANTA                                      RN59227000R DA MATRIZ                                       CENTRO                                            LAGOA D ANTA                                      RN59227000R DA MATRIZ                                       CENTRO                                            LAGOA D ANTA                                      RN59227000           84 98635501           lagoadantaloterias@outlook.com                                                                      00000000000000000000000000                                                                VAREJO                                                                                                                      00000000000000000000000000                                                                       00000000202304261
17921315410     07921315410   JAILSON LINO DOS SANTOS                           FCNRUA PRAIA DE SANTA RITA                           NOVA PARNAMIRIM                                   PARNAMIRIM                                        RN59151560RUA PRAIA DE SANTA RITA                           NOVA PARNAMIRIM                                   PARNAMIRIM                                        RN59151560RUA PRAIA DE SANTA RITA                           NOVA PARNAMIRIM                                   PARNAMIRIM                                        RN5915156084 9912903784 9912903784 99129037jailson.lino77@gmail.com                                                                            00000000000000000000000000                                                                                                                  2740653             ITMCPRODUTOR RURAL                                    00000000000000000019851117                                                                       00000000202004081
18220612444     08220612444   ARTHUR MACEDO MELO                                FANRUA ESTRELA DO MAR                                NOVA PARNAMIRIM                                   PARNAMIRIM                                        RN59151120RUA ESTRELA DO MAR                                NOVA PARNAMIRIM                                   PARNAMIRIM                                        RN59151120RUA ESTRELA DO MAR                                NOVA PARNAMIRIM                                   PARNAMIRIM                                        RN5915112084 99845807           84 99845807arthurmmelo@hotmail.com                                                                             00000000000000000000000000                                                                                                                  2161949             SSMSCOMERCIANTE                                       00000000000000000019890303                                                                       00000000201707141
11185529454     01185529454   WEYDSON DE BRITO MONTEIRO                         FCNRUA ARISTIDES GOMES                               GILBERTO PINHEIRO                                 SANTA CRUZ                                        RN59380000RUA ARISTIDES GOMES                               GILBERTO PINHEIRO                                 SANTA CRUZ                                        RN59380000RUA ARISTIDES GOMES                                GILBERTO PINHEIRO                                SANTA CRUZ                                        RN59380000                      84 99966547weidsondebritomonteiro@gmail.com                                                                    00000000000000000000000000                                                                                                                  SSPRN               SSMCAUTONOMO                                          00000000000000000019780626                                                                       00000000202305091
11058342460     01058342460   ARY GONCALVES TAVARES                             FCNRUA SINHAZINHA WANDERLEY                          CENTRO                                            ACU                                               RN59650000RUA SINHAZINHA WANDERLEY                          CENTRO                                            ACU                                               RN59650000RUA SINHAZINHA WANDERLEY                          CENTRO                                            ACU                                               RN5965000084 9993474984 9993474984 99934749sry.gtavares@hotmail.com                                                                            00000000000000000000000000                                                                                                                  1704619             SSMSMEDICO                                            00000000000000000019810716                                                                       00000000202305041
13296786473     03296786473   HANNE BRUNO FIGUEIREDO DE MELO                    FCNRUA LUIZ PEREIRA                                  NOVA BETANIA                                      MOSSORO                                           RN59612020RUA LUIZ PEREIRA                                  NOVA BETANIA                                      MOSSORO                                           RN59612020RUA LUIZ PEREIRA                                  NOVA BETANIA                                      MOSSORO                                           RN5961202084 9962173284 9962173284 99621732hbrunomelo@hotmail.com                                                                              00000000000000000000000000                                                                                                                  1895362             ITMOAUTONOMO                                          00000000000000000019810206                                                                       00000000202305251
14624988400     04624988400   MARCELO DIAS DE ARAUJO                            FCNFAZENDA SANTO ANTONIO DOS BANCOS                  ZONA RURAL                                        SAO PAULO DO POTENGI                              RN59460000FAZENDA SANTO ANTONIO DOS BANCOS                  ZONA RURAL                                        SAO PAULO DO POTENGI                              RN59460000FAZENDA SANTO ANTONIO DOS BANCOS                  ZONA RURAL                                        SAO PAULO DO POTENGI                              RN5946000084 9991563784 9991563784 99915637md4623158@gmail.com                                                                                 00000000000000000000000000                                                                                                                  1671186             SSMSADMINISTRADOR                                     00000000000000000019820727                                                                       00000000202305061
16133222409     06133222409   DAIANE ARAUJO DE SOUSA                            FCNRUA SANTA CLARA                                   FELIPE CAMARAO                                    NATAL                                             RN59072475                                                  FELIPE CAMARAO                                                                                        00000000RUA SANTA CLARA                                   FELIPE CAMARAO                                    NATAL                                             RN5907247584 9879643284 9879643284 98796432nayaraujosousa@hotmail.com                                                                          00000000000000000000000000                                                                                                                  002280755              CVENDEDORA                                         00000000000000000019860106                                                                       00000000202305251
17050824402     07050824402   JORGE LUIZ DE SOUZA PEREIRA                       FCNRUA MONSENHOR ASSIS                               CENTRO                                            MACAU                                             RN59500000                                                  CENTRO                                                                                                00000000RUA MONSENHOR ASSIS                               CENTRO                                            MACAU                                             RN5950000084 9965034384 9965034384 99650343jorgeluiz57732@gmail.com                                                                            00000000000000000000000000                                                                                                                  1845586             SSMSOUTROS                                            00000000000000000019851016                                                                       00000000202305091
17712316449     07712316449   IRENE BATISTA DE MELO DO NASCIMENTO               FCNRUA IDALICE GONZAGA MONTENEGRO                    CENTRO                                            PENDENCIAS                                        RN59504000RUA IDALICE GONZAGA MONTENEGRO                    CENTRO                                            PENDENCIAS                                        RN59504000RUA IDALICE GONZAGA MONTENEGRO                    CENTRO                                            PENDENCIAS                                        RN5950400084 9985317984 9985317984 99853179martamariaadv2018@gmail.com                                                                         00000000000000000000000000                                                                                                                  110118              SSFCAPOSENTADA                                        00000000000000000019470713                                                                       00000000202305091
18000718405     08000718405   JUAN FELIPE SAAVEDRA DE MEDEIROS                  FCNRUA CORONEL  AURIS COELHO                         LAGOA NOVA                                        NATAL                                             RN59075050RUA CORONEL  AURIS COELHO                         LAGOA NOVA                                        NATAL                                             RN59075050RUA CORONEL  AURIS COELHO                         LAGOA NOVA                                        NATAL                                             RN5907505084 3231202584 9815033884 98150338juan.saavedra89@hotmail.com                                                                         00000000000000000000000000                                                                                                                  1886350             SSMCGERENTE                                           00000000000000000019890726                                                                       00000000201710211
19057407426     09057407426   TAWANNY KELLY FERNANDES DA SILVA                  FCNRUA JARDINS AMSTERDA                              NOVA ESPERANCA                                    PARNAMIRIM                                        RN59144808RUA JARDINS AMSTERDA                              NOVA ESPERANCA                                    PARNAMIRIM                                        RN59144808RUA JARDINS AMSTERDA                              NOVA ESPERANCA                                    PARNAMIRIM                                        RN5914480884 9943231884 9943231884 99432318consulltordigitall@gmail.com                                                                        00000000000000000000000000                                                                                                                  002974205           ITFCFISIOTERAPEUTA                                    00000000000000000019980821                                                                       00000000202305031
19590362451     09590362451   LAVINIA MEDEIROS DE GUSMAO                        FCNRUA PROFESSORA DIRCE COUTINHO                     CAPIM MACIO                                       NATAL                                             RN59082180RUA PROFESSORA DIRCE COUTINHO                     CAPIM MACIO                                       NATAL                                             RN59082180RUA PROFESSORA DIRCE COUTINHO                     CAPIM MACIO                                       NATAL                                             RN5908218084 9986716984 9986716984 99867169laviniamgusmao@gmail.com                                                                            00000000000000000000000000                                                                                                                  2947876             ITFSADMINISTRACAO                                     00000000000000000020040521                                                                       00000000202305131
110862129400    10862129400   EPAMINONDAS FERREIRA DOS SANTOS                   FCNAV DAS TULIPAS                                    CAPIM MACIO                                       NATAL                                             RN59078220AV DAS TULIPAS                                    CAPIM MACIO                                       NATAL                                             RN59078220AV DAS TULIPAS                                    CAPIM MACIO                                       NATAL                                             RN5907822084 3231880584 3223376084 99461232varejaodosplasticos@yahoo.com.br                                                                    00000000000000000000000000                                                                                                                  219504              SSMCAPOSENTADO                                        00000000000000000019561122                                                                       00000000201705161
111064719465    11064719465   ROBERIO DA SILVA                                  FCNRUA JOSEFA GABRIEL DA SILVA                       SAPUCAIA                                          GOIANINHA                                         RN59173000RUA JOSEFA GABRIEL DA SILVA                       SAPUCAIA                                          GOIANINHA                                         RN59173000RUA JOSEFA GABRIEL DA SILVA                       SAPUCAIA                                          GOIANINHA                                         RN5917300084 9940202884 9940202884 99402028roberio.06.guedes@gmail.com                                                                         00000000000000000000000000                                                                                                                  2817944             ITMOOUTROS                                            00000000000000000019960319                                                                       00000000202305171
129844339715    29844339715   AIRTON FERREIRA VIEGAS                            FCNRUA JAGUARARI                                     CANDELARIA                                        NATAL                                             RN59064500RUA JAGUARARI                                     CANDELARIA                                        NATAL                                             RN59064500RUA JAGUARARI                                     LAGOA NOVA                                        NATAL                                             RN5906450084 32348002           84 98861865airtonviegas58@gmail.com                                                                            00000000000000000000000000                                                                                                                  3368214             IFMSOUTROS                                            00000000000000000019520103                                                                       00000000200102281
137489060800    37489060800   JEFERSON ENOQUE RIBEIRO VIEIRA                    FCNRUA PARQUE DAS FRUTAS                             PARQUE DAS ARVORES                                PARNAMIRIM                                        RN59154245RUA PARQUE DAS FRUTAS                             PARQUE DAS ARVORES                                PARNAMIRIM                                        RN59154245RUA PARQUE DAS FRUTAS                             PARQUE DAS ARVORES                                PARNAMIRIM                                        RN5915424584 9998574584 9985745284 99985745jeferson3523@gmail.com                                                                              00000000000000000000000000                                                                                                                  44699606            SSMSADMINISTRACAO                                     00000000000000000019890524                                                                       00000000202305221
152797554434    52797554434   MANUEL GENN DE ASSUNCAO BARROS                    FANRUA DESEMBARGADOR DIONISIO FILGUEIRA              PETROPOLIS                                        NATAL                                             RN59014020RUA DESEMBARGADOR DIONISIO FILGUEIRA              PETROPOLIS                                        NATAL                                             RN59014020RUA DESEMBARGADOR DIONISIO FILGUEIRA              PETROPOLIS                                        NATAL                                             RN5901402084 32022572           84 99985911manuelgenn@uol.com.br                                                                               00000000000000000000000000                                                                                                                  2890.425            PEMCMEDICO                                            00000000000000000019670215                                                                       00000000200102281
158310347804    58310347804   JOAQUIM MENDES FERREIRA                           FCNRUA ISMAEL PEREIRA DA SILVA                       CAPIM MACIO                                       NATAL                                             RN59082000RUA ISMAEL PEREIRA DA SILVA                       CAPIM MACIO                                       NATAL                                             RN59082000RUA ISMAEL PEREIRA DA SILVA                       CAPIM MACIO                                       NATAL                                             RN5908200084 99961011           84 99961011ferreira495@gmail.com                                                                               00000000000000000000000000                                                                                                                  88072447            SSMCFUNCIONARIO PUBLICO                               00000000000000000019471227                                                                       00000000201610051
170397300492    70397300492   FERNANDO HENRIQUE MAGALHAES FERNANDES             FCNRUA JOAO ALVES FLOR                               CANDELARIA                                        NATAL                                             RN59066120RUA JOAO ALVES FLOR                               CANDELARIA                                        NATAL                                             RN59066120RUA JOAO ALVES FLOR                               CANDELARIA                                        NATAL                                             RN5906612084 9949023984 9949023984 99490239ferhmf@gmail.com                                                                                    00000000000000000000000000                                                                                                                  3445305             SSMSESTUDANTE                                         00000000000000000020040712                                                                       00000000202208061
172937556353    72937556353   CARLA PICANCO PEREIRA FACANHA                     FCNRUA MARIA AUXILIADORA                             TIROL                                             NATAL                                             RN59014500RUA MARIA AUXILIADORA                             TIROL                                             NATAL                                             RN59014500RUA MARIA AUXILIADORA                             TIROL                                             NATAL                                             RN5901450084 9968600084 9968600084 99686000carla.pereira@ebserh.gov.br                                                                         00000000000000000000000000                                                                                                                  3696514             SSMCPSICOLOGO                                         00000000000000000019761203                                                                       00000000202305131
178602971400    78602971400   ALEXANDRE PEREIRA PEIXOTO                         FCNAVENIDA AMINTAS BARROS                            NOVA DESCOBERTA                                   NATAL                                             RN59075250AVENIDA AMINTAS BARROS                            NOVA DESCOBERTA                                   NATAL                                             RN59075250AVENIDA AMINTAS BARROS                            NOVA DESCOBERTA                                   NATAL                                             RN5907525084 98889659           84 98889659alexandrepeixoto31@gmail.com                                                                        00000000000000000000000000                                                                                                                  15100209            SSMSQUIMICO                                           00000000000000000019740831                                                                       00000000202303021
191251460410    91251460410   ROMILSON FERREIRA MARQUES                         FANRUA RANCHO VERDE                                  PAJUCARA                                          NATAL                                             RN59135490                                                  PAJUCARA                                                                                              00000000PRAIA AZUL    122                                 GRAMORE                                           NATAL                                             RN5913549084 9889561484 9889561484 99927536romilson.marques@yahoo.com.br                                                                       00000000000000000000000000                                                                                                                  1366975             . MSOUTROS                                            00000000000000000019750403                                                                       00000000200403251
122645341000157 22645341000157RAKON RENT A CAR LTDA                             JCNPC AUGUSTO SEVERO                                 RIBEIRA                                           NATAL                                             RN59012380PC AUGUSTO SEVERO                                 RIBEIRA                                           NATAL                                             RN59012380PC AUGUSTO SEVERO                                 RIBEIRA                                           NATAL                                             RN59012380                      84 99861118rakonlocadora@gmail.com                                                                             00000000000000000000000000                                                                ATACADO                                                                                                                     00000000000000000000000000                                                                       00000000202305101
141334663491    41334663491   MARIA DAS DORES SOARES ALVES                      FCNRUA VEREADOR OLIMPIO PROCOPIO DE MOURA            NOSSA SENHORA DE NAZARE                           NATAL                                             RN59062580RUA VEREADOR OLIMPIO PROCOPIO DE MOURA            NOSSA SENHORA DE NAZARE                           NATAL                                             RN59062580RUA VEREADOR OLIMPIO PROCOPIO DE MOURA            NOSSA SENHORA DE NAZARE                           NATAL                                             RN5906258084 2226810684 9998106984 99981069marcospinheiro@uol.com.br                                                                           00000000000000000000000000                                                                                                                  192.335             SSFSOUTROS                                            00000000000000000019530722                                                                       00000000200412301
11720241457     01720241457   RODOLFO MENDONCA DE ARAUJO                        FCNRUA ISMAEL PEREIRA DA SILVA                       CAPIM MACIO                                       NATAL                                             RN59082000RUA ISMAEL PEREIRA DA SILVA                       CAPIM MACIO                                       NATAL                                             RN59082000RUA ISMAEL PEREIRA DA SILVA                       CAPIM MACIO                                       NATAL                                             RN5908200084 9969794184 9969794184 99697941felipedidier18@gmail.com                                                                            00000000000000000000000000                                                                                                                  2753602             SSMSCONTADOR                                          00000000000000000019950704                                                                       00000000202305051
144337639420    44337639420   VERONICA REGINA ALVES                             FCNRUA AUTA DE SOUZA                                 CENTRO                                            EXTREMOZ                                          RN59575000RUA AUTA DE SOUZA                                 CENTRO                                            EXTREMOZ                                          RN59575000RUA AUTA DE SOUZA                                 CENTRO                                            EXTREMOZ                                          RN59575000           84 99819054           veronicaregi@hotmail.com                                                                            00000000000000000000000000                                                                                                                  761823              ITFSPROFESSORA                                        00000000000000000019630714                                                                       00000000202305151
11360446460     01360446460   PAULO DHIEGO FERREIRA LIMA                        FCNRUA PROF ADOLFO RAMIRES                           CAPIM MACIO                                       NATAL                                             RN59078460RUA PROF ADOLFO RAMIRES                           CAPIM MACIO                                       NATAL                                             RN59078460RUA PROF ADOLFO RAMIRES                           CAPIM MACIO                                       NATAL                                             RN5907846084 9965731084 9965731084 99657310dhiegolima_1@hotmail.com                                                                            00000000000000000000000000                                                                                                                  1674145             ITMCFUNCIONARIO PUBLICO                               00000000000000000019860102                                                                       00000000202305151
13406478921     03406478921   JUAHIL GERMANO DA SILVA                           FCNRUA GREGORIO DE MATOS                             BOSQUE DAS COLINAS                                SAO JOSE DE MIPIBU                                RN59162000RUA GREGORIO DE MATOS                             BOSQUE DAS COLINAS                                SAO JOSE DE MIPIBU                                RN59162000RUA GREGORIO DE MATOS                             BOSQUE DAS COLINAS                                SAO JOSE DE MIPIBU                                RN5916200084 9990912184 9990912184 99909121administracao@technicsturbos.com.br                                                                 00000000000000000000000000                                                                                                                  72885988            SSMSADMINISTRACAO                                     00000000000000000019800517                                                                       00000000202101091
13673196758     03673196758   GEORGE ROSA KALIL                                 FCNAVENIDA MOGI MIRIM                                AREIAO                                            MOGI-GUACU                                        SP13844115AVENIDA MOGI MIRIM                                AREIAO                                            MOGI-GUACU                                        SP13844115AVENIDA MOGI MIRIM                                AREIAO                                            MOGI-GUACU                                        SP1384411519 9712842219 9712842219 97128422georgekalil@ig.com.br                                                                               00000000000000000000000000                                                                                                                  10598379            SSMOEMPRESARIO                                        00000000000000000019740329                                                                       00000000202305111
14227266483     04227266483   SHIRLEI DA SILVA LIMA                             FCNRUA GONCALVES DIAS                                TABORDA                                           SAO JOSE DE MIPIBU                                RN59162000RUA GONCALVES DIAS                                TABORDA                                           SAO JOSE DE MIPIBU                                RN59162000RUA GONCALVES DIAS                                TABORDA                                           SAO JOSE DE MIPIBU                                RN5916200084 9913929384 9913929384 99139293shirlilima@hotmail.com                                                                              00000000000000000000000000                                                                                                                  2057886             SSFCADMINISTRACAO                                     00000000000000000019830325                                                                       00000000202305201
14769127413     04769127413   RENATO SALUSTINO BEZERRA                          FCNAVENIDA NASCIMENTO DE CASTRO                      LAGOA NOVA                                        NATAL                                             RN59056450AVENIDA NASCIMENTO DE CASTRO                      LAGOA NOVA                                        NATAL                                             RN59056450AVENIDA NASCIMENTO DE CASTRO                      LAGOA NOVA                                        NATAL                                             RN5905645084 9999697084 9999697084 99996970tataoeto@yahoo.com.br                                                                               00000000000000000000000000                                                                                                                  1754508             ITMOAUTONOMO                                          00000000000000000019840320                                                                       00000000202305291
14872276469     04872276469   IASLLAN RANIERY NUNES RODRIGUES                   FCNRUA MANOEL MONTEIRO FILHO                         PASSAGEM DE AREIA                                 PARNAMIRIM                                        RN59145630RUA MANOEL MONTEIRO FILHO                         PASSAGEM DE AREIA                                 PARNAMIRIM                                        RN59145630RUA MANOEL MONTEIRO FILHO                         PASSAGEM DE AREIA                                 PARNAMIRIM                                        RN5914563084 98886484           84 98886484iasllan@hotmail.com                                                                                 00000000000000000000000000                                                                                                                  1993048             SSMSADMINISTRACAO                                     00000000000000000018991230                                                                       00000000202305201
15368161409     05368161409   ANA PAULA DE ARAUJO RIBEIRO                       FCNPEDRO DE ALMEIDA SALDANHA                         CENTRO                                            SAO VICENTE                                       RN59340000PEDRO DE ALMEIDA SALDANHA                         CENTRO                                            SAO VICENTE                                       RN59340000PEDRO DE ALMEIDA SALDANHA                         CENTRO                                            SAO VICENTE                                       RN59340000           84 99613934           paularibeirosv@yahoo.com.br                                                                         00000000000000000000000000                                                                                                                  SSPRN               SSFSADMINISTRACAO                                     00000000000000000019850128                                                                       00000000202305031
15399898438     05399898438   LILIAN ANGELICA VENCESLAU DE OLIVEIRA             FCNRUA DANTAS BARRETO                                CIDADE NOVA                                       NATAL                                             RN59072590RUA DANTAS BARRETO                                CIDADE NOVA                                       NATAL                                             RN59072590RUA DANTAS BARRETO                                CIDADE NOVA                                       NATAL                                             RN5907259084 9882168684 9882168684 98821686lilian.advogada@yahoo.com.br                                                                        00000000000000000000000000                                                                                                                  2046027             ITFSADVOGADO                                          00000000000000000019840923                                                                       00000000202305061
15609785456     05609785456   MARIA ARRUDA DE MEDEIROS                          FCNRUA SERRA BONITA                                  PITIMBU                                           NATAL                                             RN59068080RUA SERRA BONITA                                  PITIMBU                                           NATAL                                             RN59068080RUA SERRA BONITA                                  PITIMBU                                           NATAL                                             RN5906808084 9960239984 9960239984 99602399medeiros.ci@hotmail.com                                                                             00000000000000000000000000                                                                                                                  489532              SSFCCOMERCIANTE                                       00000000000000000019510315                                                                       00000000201103251
17992304489     07992304489   RICHARD ALLEN DE MEDEIROS SILVA                   FCNRUA JOAO QUIRINO DE MEDEIROS                      JOAO GARCIA DE ARAUJO                             SAO JOSE DO SERIDO                                RN59378000RUA JOAO QUIRINO DE MEDEIROS                      JOAO GARCIA DE ARAUJO                             SAO JOSE DO SERIDO                                RN59378000RUA JOAO QUIRINO DE MEDEIROS                      JOAO GARCIA DE ARAUJO                             SAO JOSE DO SERIDO                                RN5937800084 9880466084 9880466084 98804660allan@espacialautopecas.com.br                                                                      00000000000000000000000000                                                                                                                  002735040           ITMOAUTONOMO                                          00000000000000000019890916                                                                       00000000202305191
110516698478    10516698478   NATHALY DA SILVA                                  FCNRUA ANTOINE DE SAINT EXUPERY                      PITIMBU                                           NATAL                                             RN59066430RUA ANTOINE DE SAINT EXUPERY                      PITIMBU                                           NATAL                                             RN59066430RUA ANTOINE DE SAINT EXUPERY                      PITIMBU                                           NATAL                                             RN5906643084 9817556284 9817556284 98175562nathalydasilva_2016@hotmail.com                                                                     00000000000000000000000000                                                                                                                  003041045           ITFOAUTONOMA                                          00000000000000000019940103                                                                       00000000202305091
118553427404    18553427404   CLEOMINES PEREIRA DO NASCIMENTO.                  FCNAV. JAGUARARI                                     CANDELARIA                                        NATAL                                             RN59064500AV. JAGUARARI                                     CANDELARIA                                        NATAL                                             RN59064500AV. JAGUARARI                                     CANDELARIA                                        NATAL                                             RN5906450084 9886503084 9886503084 98865030cleominesnascimento@gmaill.com                                                                      00000000000000000000000000                                                                                                                  333.319             PBMSOUTROS                                            00000000000000000019000101                                                                       00000000200412301
133189285004    33189285004   RICARDO ANDRE OTTO                                FCNRUA MANDACARU                                     LAGOA NOVA                                        NATAL                                             RN59064400                                                  LAGOA NOVA                                                                                            00000000RUA MANDACARU                                     LAGOA AZUL                                        NATAL                                             RN5906440084 9998118884 9998118884 99981188ricardoaotto@gmail.com                                                                              00000000000000000000000000                                                                                                                  3012032292          SSMCOUTROS                                            00000000000000000019910504                                                                       00000000201811121
160762349549    60762349549   ELIANE DE MEDEIROS BRANDT                         FCNAVENIDA ABEL CABRAL                               NOVA PARNAMIRIM                                   PARNAMIRIM                                        RN59151250AVENIDA ABEL CABRAL                               NOVA PARNAMIRIM                                   PARNAMIRIM                                        RN59151250AVENIDA ABEL CABRAL                               NOVA PARNAMIRIM                                   PARNAMIRIM                                        RN5915125063 99279821           63 99279821em.brandt@bol.com.br                                                                                00000000000000000000000000                                                                                                                  1365633             SSFSADMINISTRACAO                                     00000000000000000019740311                                                                       00000000202305191
190399030425    90399030425   CASSIUS MARCELO DE MELO FURTADO                   FCNRUA DESEMBARGADOR REGULO TINOCO                   BARRO VERMELHO                                    NATAL                                             RN59022080RUA DESEMBARGADOR REGULO TINOCO                   BARRO VERMELHO                                    NATAL                                             RN59022080RUA DESEMBARGADOR REGULO TINOCO                   BARRO VERMELHO                                    NATAL                                             RN5902208084 9996285284 9996285284 99962852cassiusmelofurtado@gmail.com                                                                        00000000000000000000000000                                                                                                                  1128901             SSMSFOTOGRAFO                                         00000000000000000019731129                                                                       00000000202305191
191259240444    91259240444   JOSE VIEIRA DA SILVA                              FCNRUA JOAO XAVIER DOS SANTOS                        PIUM                                              PARNAMIRIM                                        RN59160710RUA JOAO XAVIER DOS SANTOS                        PIUM                                              PARNAMIRIM                                        RN59160710RUA JOAO XAVIER DOS SANTOS                        PIUM                                              PARNAMIRIM                                        RN5916071084 99188170           84 99188170josevieirav136@gmail.com                                                                            00000000000000000000000000                                                                                                                  1400748             SSMCCOMERCIANTE                                       00000000000000000019740101                                                                       00000000202305081
19267077000105  09267077000105ALTERNATIVA MULTIMARCAS LTDA-ME                   JCNAVENIDA JK                                        BOM PASTOR                                        DIVINOPOLIS                                       MG35500155AVENIDA JK                                        BOM PASTOR                                        DIVINOPOLIS                                       MG35500155AVENIDA JK                                        BOM PASTOR                                        DIVINOPOLIS                                       MG3550015537 9995685137 9995685137 99956851sandermalta@gmail.com                                                                               000000000000000000000000000011004280017 ALTERNATIVA MULTIMARCAS                           VAREJO                                                                                                                      00000000000000000000000000                                                                       00000000202203221
139360075434    39360075434   LENILMA MEIRA DA CUNHA                            FCNAV BELA PARNAMIRIM                                PARQUE DE EXPOSICOES                              PARNAMIRIM                                        RN59149380                                                  PARQUE DE EXPOSICOES                                                                                  00000000AV BELA PARNAMIRIM                                PARQUE DE EXPOSICOES                              PARNAMIRIM                                        RN59149380                      84 99957348meiracunha@gmail.com                                                                                00000000000000000000000000                                                                                                                  599308              SSFSOUTROS                                            00000000000000000019660214                                                                       00000000201812031
12318340471     02318340471   PATRICIA NEIZILDA ALBUQUERQUE GOMES               FCNRUA MANOEL ANSELMO SOARES                         NOVA DESCOBERTA                                   CEARA-MIRIM                                       RN59570000                                                  NOVA DESCOBERTA                                                                                       00000000RUA MANOEL ANSELMO SOARES                         NOVA DESCOBERTA                                   CEARA-MIRIM                                       RN5957000084 99111920           84 99111920patricinhaalbo@gmail.com                                                                            00000000000000000000000000                                                                                                                  1495013             SSFCPOLICIAL CIVIL                                    00000000000000000019770118                                                                       00000000202102051
16490862441     06490862441   LENILSON MACIEL DA SILVA                          FCNRUA GALDINO LEONARDO                              CENTRO                                            RIACHUELO                                         RN59470000RUA GALDINO LEONARDO                              CENTRO                                            RIACHUELO                                         RN59470000RUA GALDINO LEONARDO                              CENTRO                                            RIACHUELO                                         RN5947000084 9993426484 9993426484 99934264lenilson.maciel@hotmail.com                                                                         00000000000000000000000000                                                                                                                  50000787            SSMSMANUTENCAO DE EQUIPAMENTO ELTRONICO               00000000000000000019851112                                                                       00000000201905201
