11726168409     01726168409   EDUARDO VIANA MAIA                                FCNRUA PAULO DE ALBUQUERQUE                          BOA VISTA                                         MOSSORO                                           RN59605090RUA PAULO DE ALBUQUERQUE                          BOA VISTA                                         MOSSORO                                           RN59605090RUA PAULO DE ALBUQUERQUE                          BOA VISTA                                         MOSSORO                                           RN5960509084 9878710084 9878710084 98787100falconveiculos.rn@gmail.com                                                                         00000000000000000000000000                                                                                                                  003204250           ITMOAUTONOMO                                          00000000000000000019980905                                                                       00000000202305261
12520372435     02520372435   LIONECIA LOPES DOS SANTOS                         FCNRUA AYRTON SENNA                                  PAJUCARA                                          NATAL                                             RN59000001RUA AYRTON SENNA                                  PAJUCARA                                          NATAL                                             RN59000001RUA AYRTON SENNA                                  PAJUCARA                                          NATAL                                             RN5900000184 9872760484 9872760484 98727604lionecia_santos @hotmail.com                                                                        00000000000000000000000000                                                                                                                  1622261             RNFCADVOGADO                                          00000000000000000019790217                                                                       00000000201804101
13509824490     03509824490   ALEXANDRE ALVES DE OLIVEIRA                       FCNRUA SAO ROMAO I                                   DIX SEPT ROSADO                                   NATAL                                             RN59060460RUA SAO ROMAO I                                   DIX SEPT ROSADO                                   NATAL                                             RN59060460RUA SAO ROMAO I                                   DIX SEPT ROSADO                                   NATAL                                             RN5906046084 3205284784 3205284784 98841491alexandrebr@msn.com                                                                                 00000000000000000000000000                                                                                                                  2538508             SSMSCOMERCIANTE                                       00000000000000000019801216                                                                       00000000200704301
13676805488     03676805488   POLLYANA GESSICA DE MEDEIROS SILVA                FCNRUA SEVERINO TAVARES DE FARIAS                    NOVA PARNAMIRIM                                   PARNAMIRIM                                        RN59152200RUA SEVERINO TAVARES DE FARIAS                    NOVA PARNAMIRIM                                   PARNAMIRIM                                        RN59152200RUA SEVERINO TAVARES DE FARIAS                    NOVA PARNAMIRIM                                   PARNAMIRIM                                        RN5915220084 99606686           84 99606686pollyanagessica@gmail.com                                                                           00000000000000000000000000                                                                                                                  1944482             SSFCADMINISTRACAO                                     00000000000000000019810617                                                                       00000000201205181
15624781407     05624781407   FELIPE CANTALICE DA SILVA TRINDADE                FCNAV: CAPITAL MOR GOVEIA                            LAGOA NOVA                                        NATAL                                             RN59070400AV: CAPITAL MOR GOVEIA                            LAGOA NOVA                                        NATAL                                             RN59070400AV: CAPITAL MOR GOVEIA                            LAGOA NOVA                                        NATAL                                             RN5907040084 99112357                      fecansitri@gmail.com                                                                                00000000000000000000000000                                                                                                                  002132880           ITMCSERVIDOR                                          00000000000000000019850501                                                                       00000000202305171
16138990404     06138990404   JOSE ANDRADE DO NASCIMENTO                        FANRUA ANDRE AVELINO DANTAS                          QUEBRA FUZIL                                      SAO JOSE DE MIPIBU                                RN59162000RUA ANDRE AVELINO DANTAS                          QUEBRA FUZIL                                      SAO JOSE DE MIPIBU                                RN59162000RUA ANDRE AVELINO DANTAS                          QUEBRA FUZIL                                      SAO JOSE DE MIPIBU                                RN59162000           84 9944197984 99441979andradenascimento775@gmail.com                                                                      00000000000000000000000000                                                                                                                  2495493             SSMSTAXISTA                                           00000000000000000019850427                                                                       00000000201704051
16556517488     06556517488   ANIELLY MEDEIROS DE AGUIAR                        FCNRUA OTAVIO RODRIGUES                              CIDADE DA ESPERANCA                               NATAL                                             RN59070710RUA OTAVIO RODRIGUES                              CIDADE DA ESPERANCA                               NATAL                                             RN59070710RUA OTAVIO RODRIGUES                              CIDADE DA ESPERANCA                               NATAL                                             RN59070710                      84 99698706aniellyaguiarmoreira@gmail.com                                                                      00000000000000000000000000                                                                                                                  002282335           ITFCCOMERCIANTE                                       00000000000000000019871114                                                                       00000000202305201
16697475480     06697475480   CAYO BRUNO TEIXEIRA DE MACEDO                     FCNRUA BOCAIUNA                                      POTENGI                                           NATAL                                             RN59124730RUA BOCAIUNA                                      POTENGI                                           NATAL                                             RN59124730RUA BOCAIUNA                                      POTENGI                                           NATAL                                             RN59124730                      84 99105842naopossui@naopossui.com.br                                                                          00000000000000000000000000                                                                                                                  20104155            ITMSTAXISTA                                           00000000000000000019860424                                                                       00000000201503211
17982077447     07982077447   BRUNO RAFAEL DE OLIVEIRA                          FCNRUA PIRES DE CAMPOS                               PASSAGEM DE AREIA                                 PARNAMIRIM                                        RN59145830RUA PIRES DE CAMPOS                               PASSAGEM DE AREIA                                 PARNAMIRIM                                        RN59145830RUA PIRES DE CAMPOS                               PASSAGEM DE AREIA                                 PARNAMIRIM                                        RN5914583084 9817180084 9817180084 98171800brunnoraffa1990@gmail.com                                                                           00000000000000000000000000                                                                                                                  7356859             SSMSADMINISTRACAO                                     00000000000000000019900426                                                                       00000000202305151
18190921428     08190921428   ADONIS PIMENTEL DE ARAUJO                         FCNRUA PRAIA DE COTOVELO                             NOVA PARNAMIRIM                                   PARNAMIRIM                                        RN59151460RUA PRAIA DE COTOVELO                             NOVA PARNAMIRIM                                   PARNAMIRIM                                        RN59151460RUA PRAIA DE COTOVELO                             NOVA PARNAMIRIM                                   PARNAMIRIM                                        RN5915146084 9961393084 9961393084 99613930pimentel.adonis@gmail.com                                                                           00000000000000000000000000                                                                                                                  6341731             MMMCSUPERVISOR                                        00000000000000000019890115                                                                       00000000202305291
19162487477     09162487477   VANDERSON PINTO DA FONSECA                        FCNTRAVESSA SENADOR SALGADO FILHO                    CANDELARIA                                        NATAL                                             RN59064741TRAVESSA SENADOR SALGADO FILHO                    CANDELARIA                                        NATAL                                             RN59064741TRAVESSA SENADOR SALGADO FILHO                    CANDELARIA                                        NATAL                                             RN5906474184 99655765           84 99700888vanderson_kinho@hotmail.com                                                                         00000000000000000000000000                                                                                                                  002789495           SSMSOUTROS                                            00000000000000000019890504                                                                       00000000201107261
19530507429     09530507429   RAISSA CINTYA TORRES RODRIGUES DA CUNHA           FCNRUA PEDRO DE SOUZA                                BOM PASTOR                                        NATAL                                             RN59060160RUA PEDRO DE SOUZA                                BOM PASTOR                                        NATAL                                             RN59060160RUA PEDRO DE SOUZA                                BOM PASTOR                                        NATAL                                             RN5906016084 9886325484 8863254784 98863254leandroalvestb@hotmail.com                                                                          00000000000000000000000000                                                                                                                  3104936             ITFSADMINISTRACAO                                     00000000000000000019920324                                                                       00000000201812061
19638741449     09638741449   AECIO DE ARAUJO RIBEIRO                           FCNRUA SALGUEIRO                                     JARDIN PLANLTO                                    PARNAMIRIM                                        RN59155125RUA SALGUEIRO                                     JARDIN PLANLTO                                    PARNAMIRIM                                        RN59155125RUA SALGUEIRO                                     JARDIN PLANLTO                                    PARNAMIRIM                                        RN59155125                      84 99803031aecioaraujoribeiro@gmail.com                                                                        00000000000000000000000000                                                                                                                  202174              IT CAPOSENTADO                                        00000000000000000019511111                                                                       00000000202305271
112352101468    12352101468   ROSENY GUEDES ROCHA                               FCNRUA TOROROS                                       LAGO NOVA                                         NATAL                                             RN59054550RUA TOROROS                                       LAGO NOVA                                         NATAL                                             RN00000000R PATU 2510                                       LAGOA NOVA                                        NATAL                                             RN59063020                      84 98184889rosenyguedes@hotmail.com                                                                            00000000000000000000000000                                                                                                                  153505              IMFSOUTROS                                            00000000000000000019540402                                                                       00000000200412301
118263887453    18263887453   AUDENE OLIVEIRA BARBOSA                           FCNDA CAMPINA                                        CENTRO                                            SAO JOSE DE MIPIBU                                RN00000000                                                  CENTRO                                                                                                00000000DA CAMPINA                                        CENTRO                                            SAO JOSE DE MIPIBU                                RN00000000           84 9914967184 99187431audeneb.oliveira@gmail.com                                                                          00000000000000000000000000                                                                                                                  361078              SSMCTECNICO                                           00000000000000000019591117                                                                       00000000201106281
119924941420    19924941420   OTACIANA NOGUEIRA DO REGO                         FCNRUA CRONISTA SALATIEL DE VASCONCELOS SIL          PAJUCARA                                          NATAL                                             RN59132155RUA CRONISTA SALATIEL DE VASCONCELOS SILVA        PAJUCARA                                          NATAL                                             RN59132155RUA CRONISTA SALATIEL DE VASCONCELOS SILVA        PAJUCARA                                          NATAL                                             RN5913215584 9965620984 9965620984 99656209otacianarego@hotmail.com                                                                            00000000000000000000000000                                                                                                                  384326              SSFDAPOSENTADA                                        00000000000000000019570919                                                                       00000000202305291
131180973453    31180973453   VALDEMIRO PIRES DE SOUZA                          FCNRUA MARCELINO CRUZ                                CENTRO                                            NATAL                                             RN59338000RUA MARCELINO CRUZ                                CENTRO                                            NATAL                                             RN59338000RUA MARCELINO CRUZ                                CENTRO                                            NATAL                                             RN5933800084 99689385           84 99689385valdemiro@gmail.com                                                                                 00000000000000000000000000                                                                                                                  515426              SSMSOUTROS                                            00000000000000000019610131                                                                       00000000201508181
146666699491    46666699491   FERNANDO HENRIQUE DOS PRAZERES                    FCNRUA DAS EMBARCACOES                               NOVA PARNAMIRIM                                   PARNAMIRIM                                        RN59152822RUA DAS EMBARCACOES                               NOVA PARNAMIRIM                                   PARNAMIRIM                                        RN59152822RUA DAS EMBARCACOES                               NOVA PARNAMIRIM                                   PARNAMIRIM                                        RN5915282284 9999452584 9999452584 99994525fernaprazeres@hotmail.com                                                                           00000000000000000000000000                                                                                                                  782606              ITMCPROFESSOR                                         00000000000000000019680224                                                                       00000000201704131
166404266415    66404266415   MARIA MONICA DA SILVA                             FCNRUA JOAO ATAIDE DE MELO                           CENTRO                                            TANGARA                                           RN59240000RUA JOAO ATAIDE DE MELO                           CENTRO                                            TANGARA                                           RN59240000RUA JOAO ATAIDE DE MELO                           CENTRO                                            TANGARA                                           RN5924000084 9965629984 9965629984 99656299mariamnicadasilva@yahoo.com.br                                                                      00000000000000000000000000                                                                                                                  1225222             SSFSCOMERCIANTE                                       00000000000000000019710325                                                                       00000000202305191
170278903487    70278903487   ERINALDO DE ABREU                                 FCNRUA JUCA BARROS                                   CENTRO                                            LAJES                                             RN59535000RUA JUCA BARROS                                   CENTRO                                            LAJES                                             RN59535000RUA JUCA BARROS                                   CENTRO                                            LAJES                                             RN5953500084 91512383           84 91512383erinaldo.abreu_lajes@hotmail.com                                                                    00000000000000000000000000                                                                                                                  1147688             ITMCPROFESSOR                                         00000000000000000019700829                                                                       00000000202305031
170874788420    70874788420   BRUNO EWERTON PINHO ELIAS                         FCNRUA ESCRITORA MIRIAN COELI                        DIX SEPT ROSADO                                   NATAL                                             RN59054440RUA ESCRITORA MIRIAN COELI                        DIX SEPT ROSADO                                   NATAL                                             RN59054440RUA ESCRITORA MIRIAN COELI                        DIX SEPT ROSADO                                   NATAL                                             RN5905444084 99857529           84 99857529brunoewertonelias@gmail.com                                                                         00000000000000000000000000                                                                                                                  3011012             SSMSEMPRESARIO                                        00000000000000000019970406                                                                       00000000202305261
190410351415    90410351415   PAULO SERGIO DE LIRA DANTAS                       FCNAVENIDA DOS CAIAPOS                               PITIMBU                                           NATAL                                             RN59067400AVENIDA DOS CAIAPOS                               PITIMBU                                           NATAL                                             RN59067400AVENIDA DOS CAIAPOS                               PITIMBU                                           NATAL                                             RN5906740084 99115468           84 99115468paulosergio1476065@outlook.com                                                                      00000000000000000000000000                                                                                                                  1476065             SSMSADMINISTRACAO                                     00000000000000000019750301                                                                       00000000200412301
132873455000108 32873455000108IMUNIZADORA POTYGUAR E SERVICOS LTDA              JANRUA SANTA CLARA                                   FELIPE CAMARAO                                    NATAL                                             RN59072470RUA SANTA CLARA                                   FELIPE CAMARAO                                    NATAL                                             RN59072470RUA SANTA CLARA                                   FELIPE CAMARAO                                    NATAL                                             RN5907247084 9984334184 9998223284 98146152potiguar@imunizadorapotiguar.com.br                                                                 00000000000000000000700000ISENTO        IMUNIZADORA POTIGUAR                              ATACADO                                                                                                                     00000000000000000000000000                                                                       00000000202012181
143054559000107 43054559000107JOAO PEDRO F DE C SILVA                           JCNR CONSELHEIRO LAFAIETE                            NEOPOLIS                                          NATAL                                             RN59084250R CONSELHEIRO LAFAIETE                            NEOPOLIS                                          NATAL                                             RN59084250R CONSELHEIRO LAFAIETE                            NEOPOLIS                                          NATAL                                             RN5908425084 98813050                      eugenio.3232@hotmail.com                                                                            00000000000000000000000000ISENTO                                                          VAREJO                                                                                                                      00000000000000000000000000                                                                       00000000202305301
166440661434    66440661434   ANITA GARIBALDI DE CASTRO CORTEZ                  FCNRUA VIGARIO BARTOLOMEU                            CIDADE ALTA                                       NATAL                                             RN59010580                                                  CIDADE ALTA                                                                                           00000000RUA VIGARIO BARTOLOMEU                            CIDADE ALTA                                       NATAL                                             RN5901058084 99456729           84 99456729anitagaribaldi2710@gmail.com                                                                        00000000000000000000000000                                                                                                                                         CACESSORIA                                         00000000000000000018991230                                                                       00000000202305301
126969318000179 26969318000179M JUNIOR ENGENHARIA CIVIL & CONSULTORIA EIRELI    JCNAVENIDA AMINTAS BARROS                            LAGOA NOVA                                        NATAL                                             RN59075810AVENIDA AMINTAS BARROS                            LAGOA NOVA                                        NATAL                                             RN59075810AVENIDA AMINTAS BARROS                            LAGOA NOVA                                        NATAL                                             RN5907581084 9998400384 9998400384 99984003mirandajr100@hotmail.com                                                                            00000000000000000000000000              MJR ENGENHARIA & CONSULTORIA                      VAREJO                                                                                                                      00000000000000000000000000                                                                       00000000202204111
13524686451     03524686451   LUCIANO FRANCISCO DA SILVA                        FCNRUA MANOEL MIRANDA                                ALECRIM                                           NATAL                                             RN59037250RUA MANOEL MIRANDA                                ALECRIM                                           NATAL                                             RN59037250RUA MANOEL MIRANDA                                ALECRIM                                           NATAL                                             RN5903725084 32135365           84 98815622lucianofs_lucky@hotmail.com                                                                         00000000000000000000000000                                                                                                                  1624767             SSMCACESSORIA                                         00000000000000000019780328                                                                       00000000200709191
1806483474      00806483474   ISA LEANDRO SOARES AQUINO SILVA                   FCNAV DOS CAIAPOS                                    PITIMBU                                           NATAL                                             RN59067400AV DOS CAIAPOS                                    PITIMBU                                           NATAL                                             RN59067400AV DOS CAIAPOS                                    PITIMBU                                           NATAL                                             RN5906740084 32183626           84 99983782isa.leandro@hotmail.com                                                                             00000000000000000000000000                                                                                                                  1634640             SSFSECONOMISTA                                        00000000000000000019800711                                                                       00000000200710241
12494179360     02494179360   ANA CLAUDIA MONTEIRO ROCHA SANTOS                 FCNAV DOS HOLANDESES                                 OLHO DAGUA                                        SAO LUIS                                          MA65065180AV DOS HOLANDESES                                 OLHO DAGUA                                        SAO LUIS                                          MA65065180AV DOS HOLANDESES                                 OLHO DAGUA                                        SAO LUIS                                          MA6506518098 9103141098 9103141098 91031410antoniosilva.sgtfn@gmail.com                                                                        00000000000000000000000000                                                                                                                  0200983120023       SSFSAUTONOMA                                          00000000000000000019791128                                                                       00000000202305041
13477349440     03477349440   JULIO CESAR LOBATO REIS                           FCNRUA SERRA DAS CRUZES                              PITIMBU                                           NATAL                                             RN59068060RUA SERRA DAS CRUZES                              PITIMBU                                           NATAL                                             RN59068060RUA SERRA DAS CRUZES                              PITIMBU                                           NATAL                                             RN5906806084 99129963           84 99129963juliolobatoreis@gmail.com                                                                           00000000000000000000000000                                                                                                                  5467036             SSMCGERENTE                                           00000000000000000019800822                                                                       00000000201110151
14781034411     04781034411   ALINNE MEDEIROS CAMARA VIRGINIO                   FCNAV ABEL CABRAL                                    NOVA PARNAMIRIM                                   PARNAMIRIM                                        RN59151250AV ABEL CABRAL                                    NOVA PARNAMIRIM                                   PARNAMIRIM                                        RN59151250AV ABEL CABRAL                                    NOVA PARNAMIRIM                                   PARNAMIRIM                                        RN5915125084 9960432184 9960432184 99604321alinnemedeirospsi@gmail.com                                                                         00000000000000000000000000                                                                                                                  1990226             ITFCADMINISTRACAO                                     00000000000000000019840315                                                                       00000000202305221
15010123460     05010123460   JOSE WILSON DA SILVA SOBRINHO                     FCNRUA IGUATEMI                                      PAJUCARA                                          NATAL                                             RN59131560                                                  PAJUCARA                                                                                              00000000RUA RIO DAS PEDRAS                                LAGOA AZUL                                        NATAL                                             RN5923515084 99987707           84 99887907wilsonsobrinho33@gmail.com                                                                          00000000000000000000000000                                                                                                                  2185605             SSMSTAXISTA                                           00000000000000000019850429                                                                       00000000202104051
15677687405     05677687405   CYRO LUCAS FILGUEIRA SOUZA                        FCNRO RN 313 634  LT-255                             COLONIA DO PIUM/AREA RURAL                        NISIA FLORESTA                                    RN59164000RO RN 313 634  LT-255                             COLONIA DO PIUM/AREA RURAL                        NISIA FLORESTA                                    RN59164000RO RN 313 634  LT-255                             COLONIA DO PIUM/AREA RURAL                        NISIA FLORESTA                                    RN5916400084 98153848           84 98153848cyrolfsouza@gmail.com                                                                               00000000000000000000000000                                                                                                                  001748494           ITMCADMINISTRACAO                                     00000000000000000019850521                                                                       00000000202305251
16425814446     06425814446   ANDERSON ALVES DA SILVA                           FCNRUA TAMIRIM                                       PLANALTO                                          NATAL                                             RN59073290RUA TAMIRIM                                       PLANALTO                                          NATAL                                             RN59073290RUA TAMIRIM                                       PLANALTO                                          NATAL                                             RN5907329084 99915683           84 99915683anderson06425814446@gmail.com                                                                       00000000000000000000000000                                                                                                                  1940230             ITMSABASTECIMENTO DE COMBUSTIVEL                      00000000000000000019860725                                                                       00000000202305101
17372864402     07372864402   IUTEMBERGUE DE CASTRO CORTES DO NASCIMENTO        FCNAV BRIGADEIRO SALEMA                              ALTO DE SAO MANOEL                                MOSSORO                                           RN59628030                                                  ALTO DE SAO MANOEL                                                                                    00000000AV. BRIGADEIRO SALEMA                             ALTO DE SAO MANOEL                                MOSSORO                                           RN5962803084 9992195184 9992195184 99921951berguecastro@gmail.com                                                                              00000000000000000000000000                                                                                                                  2699204             ITMCADMINISTRACAO                                     00000000000000000019880715                                                                       00000000202305311
112356719415    12356719415   NIVALDO MARTINS DOS SANTOS                        FCNTV DAS DONZELAS                                   ROCAS                                             NATAL                                             RN59012190TV DAS DONZELAS                                   ROCAS                                             NATAL                                             RN59012190TV DAS DONZELAS                                   ROCAS                                             NATAL                                             RN5901219084 9881634784 9881634784 98816347nivaldomartinsantos@gmail.com                                                                       00000000000000000000210000                                                                                                                  278004              SSMCOFICIAL DE JUSTICA                                00000000000000000019571001                                                                       00000000200408281
133600805487    33600805487   ISMAEL SOUZA DO NASCIMENTO                        FCNRUA SALGUEIRO                                     JARDIM PLANALTO                                   PARNAMIRIM                                        RN59155125RUA SALGUEIRO                                     JARDIM PLANALTO                                   PARNAMIRIM                                        RN59155125RUA SALGUEIRO                                     JARDIM PLANALTO                                   PARNAMIRIM                                        RN5915512584 99128791           84 99128791ismaelsouza@hotmail.com                                                                             00000000000000000000000000                                                                                                                  597381              SSMSFUNCIONARIO PUBLICO                               00000000000000000019670125                                                                       00000000201206221
144776756315    44776756315   FABIO LUIZ DE OLIVEIRA BEZERRA                    FCNRUA PINTO MARTINS                                 AREIA PRETA                                       NATAL                                             RN59014060RUA PINTO MARTINS                                 AREIA PRETA                                       NATAL                                             RN59014060RUA PINTO MARTINS                                 AREIA PRETA                                       NATAL                                             RN5901406084 9949754184 9949754784 99497547fabiobezerra2013@gmail.com                                                                          00000000000000000000000000                                                                                                                  003768391           ITMCFUNCIONARIO PUBLICO                               00000000000000000019740127                                                                       00000000202305161
149047620453    49047620453   ALEXANDRE MAGNO VIANA DE LIMA                     FCNAVENIDA GOVERNADOR RAFAEL FERNANDES               ALECRIM                                           NATAL                                             RN59040040AVENIDA GOVERNADOR RAFAEL FERNANDES               ALECRIM                                           NATAL                                             RN59040040AVENIDA GOVERNADOR RAFAEL FERNANDES               ALECRIM                                           NATAL                                             RN5904004084 88666527           84 98866652magnoalex0206@gmail.com                                                                             00000000000000000000293900                                                                                                                  889678              ITMSAUTONOMO                                          00000000000000000019650602                                                                       00000000202305231
162916980997    62916980997   CARLOS ROBERTO CARIONI VIEIRA                     FCNAVENIDA  DAS AMERICAS                             PARQUE DAS NACOES                                 PARNAMIRIM                                        RN59158150AVENIDA  DAS AMERICAS                             PARQUE DAS NACOES                                 PARNAMIRIM                                        RN59158150AVENIDA  DAS AMERICAS                             PARQUE DAS NACOES                                 PARNAMIRIM                                        RN5915815084 9960694684 9963145484 99606946carioni.vieira@gmail.com                                                                            00000000000000000000000000                                                                                                                  17623065            SSMSMARINHEIRO E ASSEMELHADOS                         00000000000000000019680723                                                                       00000000200412301
172300248034    72300248034   KEIZI VINICIUS CENCI                              FCNRUA DA UNIVERSIDADE                               PEDRA BRANCA                                      PALHOCA                                           SC88137074RUA DA UNIVERSIDADE                               PEDRA BRANCA                                      PALHOCA                                           SC88137074RUA DA UNIVERSIDADE                               PEDRA BRANCA                                      PALHOCA                                           SC8813707448 9882549448 9882549448 98825494djkeizi@gmail.com                                                                                   00000000000000000000000000                                                                                                                  6062430332          SSMCADMINISTRACAO                                     00000000000000000019770815                                                                       00000000202305231
179238971404    79238971404   FRANCISCO ANTONIO DE FIGUEREDO LEONEZ             FCNRUA:PEDRA DO RIO CLARO,120                        IGAPO                                             NATAL                                             RN59104238RUA:PEDRA DO RIO CLARO,120                        IGAPO                                             NATAL                                             RN59104238RUA:PEDRA DO RIO CLARO,120                        IGAPO                                             NATAL                                             RN5910423884 9884121984 9122220884 99924772sec.serviços@espacialautopecas.com.br                                                               00000000000000000000000000                                                                                                                  358607383           SSMSTAXISTA                                           00000000000000000019730613                                                                       00000000200612051
187561964404    87561964404   PAULO SOARES DE LIMA                              FCNRUA LUCIA VIVEIROS                                NEOPOLIS                                          NATAL                                             RN59086005RUA LUCIA VIVEIROS                                NEOPOLIS                                          NATAL                                             RN59086005RUA LUCIA VIVEIROS                                NEOPOLIS                                          NATAL                                             RN5908600584 9994690884 9994690884 99946908paulo-futsal@hotmail.com                                                                            00000000000000000000000000                                                                                                                  001401010           SSMOPROFESSOR                                         00000000000000000019730504                                                                       00000000202305171
139556882000101 39556882000101DIVANALDO CARVALHO DE OLIVEIRA JUNIOR LTDA        JCNRUA LUCIA VIVEIROS                                NEOPOLIS                                          NATAL                                             RN59086005RUA LUCIA VIVEIROS                                NEOPOLIS                                          NATAL                                             RN59086005RUA LUCIA VIVEIROS                                NEOPOLIS                                          NATAL                                             RN5908600584 9913018484 9913018484 99130184aceleramultimarcasrn@gmail.com                                                                      00000000000000000000000000205571476     ACELERA MULTIMARCAS                               VAREJO                                                                                                                      00000000000000000000000000                                                                       00000000202305101
18594379498     08594379498   LAISE MARIA RODRIGUES BARBOSA                     FCNAV. CAPITÃO MOR GOUVEIA                           NOSSA SRA DE NAZARE                               NATAL                                             RN59060400AV. CAPITÃO MOR GOUVEIA                           NOSSA SRA DE NAZARE                               NATAL                                             RN59060400AV. CAPITÃO MOR GOUVEIA                           NOSSA SRA DE NAZARE                               NATAL                                             RN5906040084 9863978884 9863978884 98639788laisembarbosa@gmail.com                                                                             00000000000000000000000000                                                                                                                  3228475             ITFSADMINISTRACAO                                     00000000000000000019911006                                                                       00000000202305111
122591998876    22591998876   TAINA RIZZATO MENEGASSO                           FCNRUA JACARANDA                                     NOVA PARNAMIRIM                                   PARNAMIRIM                                        RN59152210RUA JACARANDA                                     NOVA PARNAMIRIM                                   PARNAMIRIM                                        RN59152210RUA JACARANDA                                     NOVA PARNAMIRIM                                   PARNAMIRIM                                        RN5915221084 99182771           84 99182771tmenegasso@gmail.com                                                                                00000000000000000000000000                                                                                                                  333049445           SSFSFUNCIONARIO PUBLICO                               00000000000000000019820614                                                                       00000000202305311
136986577400    36986577400   JOSE MARIA DE MEDEIROS                            FCNANIBAL CORREIA                                    CANDELARIA                                        NATAL                                             RN59064340                                                  CANDELARIA                                                                                            00000000ANIBAL CORREIA                                    CANDELARIA                                        NATAL                                             RN5906434084 99985329           84 99985329medeiros.jot@gmail.com                                                                              00000000000000000000000000                                                                                                                  703598              SSMCADMINISTRACAO                                     00000000000000000019631129                                                                       00000000202305251
11028728131     01028728131   RANDERSON BORGES DE PAULA NASCENTE                FCNRUA IRMAOS CRISPIM, Q10, LOTE                     ITAMARATY                                         ANAPOLIS                                          GO75050120RUA IRMAOS CRISPIM, Q10, LOTE                     ITAMARATY                                         ANAPOLIS                                          GO75050120RUA IRMAOS CRISPIM, Q10, LOTE                     ITAMARATY                                         ANAPOLIS                                          GO7505012062 9911921262 9911921262 99119212rand_nascente@hotmail.com                                                                           00000000000000000000000000                                                                                                                  4848657             DGMOAUTONOMO                                          00000000000000000019880502                                                                       00000000202305191
11410684423     01410684423   DANIEL TEODOLINO BARBOSA                          FCNAV DAO SILVEIRA                                   CANDELARIA                                        NATAL                                             RN59091100                                                  CANDELARIA                                                                                            00000000AV DAO SILVEIRA                                   CANDELARIA                                        NATAL                                             RN5909110084 9889855584 9889855584 98898555danielteteodolino@gmail.com                                                                         00000000000000000000000000                                                                                                                  124545              SSMCADMINISTRACAO                                     00000000000000000019830214                                                                       00000000202305191
15595678470     05595678470   PAULO HENRIQUE GURGEL FERNANDES DO NASCIMENTO     FCNRUA ACURSO MARINHO                                CENTRO                                            NISIA FLORESTA                                    RN59164000RUA ACURSO MARINHO                                CENTRO                                            NISIA FLORESTA                                    RN59164000RUA ACURSO MARINHO                                CENTRO                                            NISIA FLORESTA                                    RN5916400084 9910904684 9910904684 99109046paulohgurgel@yahoo.com.br                                                                           00000000000000000000000000                                                                                                                  2199137             SSMSADMINISTRACAO                                     00000000000000000019841106                                                                       00000000201408221
15600802471     05600802471   CARLOS RENILSON DE BRITO                          FCNSITIO CABACO                                      AREA RURAL                                        NATAL                                             RN59460000                                                  AREA RURAL                                                                                            00000000SITIO CABACO                                      AREA RURAL                                        NATAL                                             RN5946000084 99182590           84 99182590renilsonbrito1@gmail.com                                                                            00000000000000000000000000                                                                                                                  002410658           ITMCOUTROS                                            00000000000000000019821127                                                                       00000000202101181
15651069453     05651069453   IVAN MOREIRA DOS ANJOS                            FCNRUA KERGINALDO CAVALCANTE                         NOVA DESCOBERTA                                   NATAL                                             RN59075240RUA KERGINALDO CAVALCANTE                         NOVA DESCOBERTA                                   NATAL                                             RN59075240RUA KERGINALDO CAVALCANTE                         NOVA DESCOBERTA                                   NATAL                                             RN5907524084 32069209           84 98816025anjosivanmoreiradosanjos@gmail.com                                                                  00000000000000000000000000                                                                                                                  258086              MBMSOUTROS                                            00000000000000000019480423                                                                       00000000200412301
15854726459     05854726459   FAGNER DE PONTES SILVA                            FCNRUA GILSON DE SOUZA                               CENTRO                                            SERRINHA                                          RN59258000RUA GILSON DE SOUZA                               CENTRO                                            SERRINHA                                          RN59258000RUA GILSON DE SOUZA                               CENTRO                                            SERRINHA                                          RN5925800084 98165979                      f_agner123psilva@hotmail.com                                                                        00000000000000000000000000                                                                                                                  2616603             SSMSTAXISTA                                           00000000000000000019860525                                                                       00000000202304201
16301576420     06301576420   MARLENE BATISTA DE VASCONCELOS                    FCNRUA JOAO LINDOFO                                  TIROL                                             NATAL                                             RN59014560RUA JOAO LINDOFO                                  TIROL                                             NATAL                                             RN59014560RUA JOAO LINDOFO                                  TIROL                                             NATAL                                             RN5901456084 3222929884 3222602684 99983886marlenebvasconcelos@gmail.com                                                                       00000000000000000000057000                                                                                                                  96261               ITFSOUTROS                                            00000000000000000019480713                                                                       00000000200211201
16590941424     06590941424   MARCIA RODRIGUES DE OLIVEIRA MAIA                 FCNAVENIDA DOS CAIAPOS                               PITIMBU                                           NATAL                                             RN59067400AVENIDA DOS CAIAPOS                               PITIMBU                                           NATAL                                             RN59067400AVENIDA DOS CAIAPOS                               PITIMBU                                           NATAL                                             RN5906740084 99933446           84 99933446marciarodrigues@gmail.com.br                                                                        00000000000000000000000000                                                                                                                  002699968           SSFSCOMERCIANTE                                       00000000000000000019890925                                                                       00000000202305101
18210807412     08210807412   FRANCISCO DE ASSIS DE SOUZA JUNIOR                FCNRUA TUPI PAULISTA                                 POTENGI                                           NATAL                                             RN59124830RUA TUPI PAULISTA                                 POTENGI                                           NATAL                                             RN59124830RUA TUPI PAULISTA                                 POTENGI                                           NATAL                                             RN5912483084 99841364           84 99841364juniorsolar2014@gmail.com                                                                           00000000000000000000000000                                                                                                                  001806659           ITMSCONSULTOR DE VENDAS                               00000000000000000019901023                                                                       00000000202305231
18750079883     08750079883   ARACELI SOBREIRA BENEVIDES                        FCNAV. OLAVO LACERDA MONTENEGRO                      PARQUE DAS NACOES                                 PARNAMIRIM                                        RN59158400RUA PETRA KELLY                                   PARQUE DAS NACOES                                 PARNAMIRIM                                        RN59152330RUA PETRA KELLY                                   NOVA PARNAMIRIM                                   PARNAMIRIM                                        RN5915233084 99407325           84 99407325jrrepre@hotmail.com                                                                                 00000000000000000000000000                                                                                                                  92002295212         SSFCOUTROS                                            00000000000000000019660915                                                                       00000000200808181
110087050471    10087050471   DALISON DIEGO COSTA DE ARAUJO                     FCNRUA CAPITAO AV HERALDO CUNHA MARTINHO             NOVA PARNAMIRIM                                   PARNAMIRIM                                        RN59151590RUA CAPITAO AV HERALDO CUNHA MARTINHO             NOVA PARNAMIRIM                                   PARNAMIRIM                                        RN59151590RUA CAPITAO AV HERALDO CUNHA MARTINHO             NOVA PARNAMIRIM                                   PARNAMIRIM                                        RN5915159084 9986799084 9986799084 99867990alannalariiissa@hotmail.com                                                                         00000000000000000000000000                                                                                                                  2995436             SSFSCOMERCIANTE                                       00000000000000000019950422                                                                       00000000202305301
110572100485    10572100485   GABRIEL DE MEDEIROS ARAUJO BRITO                  FCNAV JOAO GOMES DE TORRES                           CENTRO                                            CANGUARETAMA                                      RN59190000AV JOAO GOMES DE TORRES                           CENTRO                                            CANGUARETAMA                                      RN59190000AV JOAO GOMES DE TORRES                           CENTRO                                            CANGUARETAMA                                      RN5919000084 9948341384 9948341384 99483413gabrielmedeiros030405@outlook.com                                                                   00000000000000000000000000                                                                                                                  2457054             SSMCCOMERCIANTE                                       00000000000000000019950403                                                                       00000000201912161
113878280459    13878280459   VALDETE SALVIANO FERREIRA                         FCNRUA MAXARANGUAPE                                  NOVA PARNAMIRIM                                   PARNAMIRIM                                        RN59152530RUA MAXARANGUAPE                                  NOVA PARNAMIRIM                                   PARNAMIRIM                                        RN59152530RUA MAXARANGUAPE                                  NOVA PARNAMIRIM                                   PARNAMIRIM                                        RN5915253084 9998906584 9998906584 99989065valdete1955@gmail.com                                                                               00000000000000000000070000                                                                                                                  237010              SSFOSERVIDOR                                          00000000000000000019551113                                                                       00000000202305311
116579567414    16579567414   GIOVANNA ANDRADE DA SILVA                         FCNRUA CAMBORIU                                      POTENGI                                           NATAL                                             RN59124620                                                  POTENGI                                                                                               00000000RUA CAMBORIU                                      POTENGI                                           NATAL                                             RN5912462084 99827570           84 99827570milca.andrade@yahoo.com.br                                                                          00000000000000000000000000                                                                                                                  004196580           SSFSADMINISTRADOR                                     00000000000000000020190705                                                                       00000000202305031
118241751400    18241751400   JOSUE CAMARA SOBRINHO                             FCNSIT CORREGO                                       ZONA RURAL                                        APODI                                             RN59700000SIT CORREGO                                       ZONA RURAL                                        APODI                                             RN59700000SIT CORREGO                                       ZONA RURAL                                        APODI                                             RN5970000084 9941922984 9941922984 99419229josuecamara@gmail.com                                                                               00000000000000000000000000                                                                                                                  315320              ITMOEMPREENDIMENTOS                                   00000000000000000019570405                                                                       00000000202305231
123098511400    23098511400   MARIA GORETE SOARES DE ALMEIDA                    FCNAV ABEL CABRAL                                    NOVA PARNAMIRIM                                   PARNAMIRIM                                        RN59151250AV ABEL CABRAL                                    NOVA PARNAMIRIM                                   PARNAMIRIM                                        RN59151250AV ABEL CABRAL                                    NOVA PARNAMIRIM                                   PARNAMIRIM                                        RN5915125084 9881277184 9881277184 98812771goretesoares1952@hotmail.com                                                                        00000000000000000000000000                                                                                                                  339337              SSFOACESSORIA                                         00000000000000000019520410                                                                       00000000201712301
163849895491    63849895491   MARIA GORETE PEREIRA DE ARAUJO                    FCNAV DAS AMERICAS                                   PARQUE DAS NACOES                                 PARNAMIRIM                                        RN59158150AV DAS AMERICAS                                   PARQUE DAS NACOES                                 PARNAMIRIM                                        RN59158150AV DAS AMERICAS                                   PARQUE DAS NACOES                                 PARNAMIRIM                                        RN5915815084 32084398           84 99145583goretepereira35@bol.com.br                                                                          00000000000000000000000000                                                                                                                  1.049.957           RNFSOUTROS                                            00000000000000000019680118                                                                       00000000200401301
172113502453    72113502453   JEOVANE FERNANDES SILVA DE  SOUZA                 FCNRUA TENENTE FERREIRA MALDOS                       CENTRO                                            PARNAMIRIM                                        RN59140220RUA TENENTE FERREIRA MALDOS                       CENTRO                                            PARNAMIRIM                                        RN59140220RUA TENENTE FERREIRA MALDOS                       CENTRO                                            PARNAMIRIM                                        RN5914022084 9997915184 9979151184 99979151jeovane33@gmail.com                                                                                 00000000000000000000000000                                                                                                                  1140034             SSMSOUTROS                                            00000000000000000019711224                                                                       00000000200102281
193821891491    93821891491   MARCILIO DUARTE LIMA SOBRINHO                     FCNAV.AYRTON SENNA                                   NOVA PARNAMIRIM                                   PARNAMIRIM                                        RN59151610AV.AYRTON SENNA                                   NOVA PARNAMIRIM                                   PARNAMIRIM                                        RN59151610AV.AYRTON SENNA                                   NOVA PARNAMIRIM                                   PARNAMIRIM                                        RN5915161084 3222252784 9961567684 99615676marcilio.duarte@yahoo.com                                                                           00000000000000000000000000                                                                                                                  1341424             SSMSCOMERCIANTE                                       00000000000000000019770502                                                                       00000000201310291
196828510410    96828510410   JOSE ANTONIO DO NASCIMENTO                        FCNRUA ALTO DO BILU                                  ALTO DA LIBERDADE                                 NATAL                                             RN59250000RUA ALTO DO BILU                                  ALTO DA LIBERDADE                                 NATAL                                             RN59250000RUA ALTO DO BILU                                  ALTO DA LIBERDADE                                 NATAL                                             RN5925000084 9882948384 9882948384 98829483jose.antonio@gmail.com                                                                              00000000000000000000000000                                                                                                                  1185854             ITMCADMINISTRACAO                                     00000000000000000019690308                                                                       00000000202305271
1786867000114   00786867000114CENTRO DE ASSISTENCIA SOCIAL PASTORAL EUGENIO M PIJCNRUA OTAVIO GOMES DE CASTRO                        CENTRO                                            PARNAMIRIM                                        RN59140140RUA OTAVIO GOMES DE CASTRO                        CENTRO                                            PARNAMIRIM                                        RN59140140RUA OTAVIO GOMES DE CASTRO                        CENTRO                                            PARNAMIRIM                                        RN5914014084 3645238084 3645238084 36452380casemp_solidario@hotmail.com                                                                        00000000000000000000000000              CASEMP                                            VAREJO                                                                                                                      00000000000000000000000000                                                                       00000000202305231
112801601000182 12801601000182PROTASIO LOCACAO E TURISMO LTDA                   JANAV ENGENHEIRO ROBERTO FREIRE                      CAPIM MACIO                                       NATAL                                             RN59078600AV ENGENHEIRO ROBERTO FREIRE                      CAPIM MACIO                                       NATAL                                             RN59078600AV ENGENHEIRO ROBERTO FREIRE                      CAPIM MACIO                                       NATAL                                             RN59078600           84 4008282984 99620401composddes@protour.com.br                                                                           00000000000000000002500000                                                                ATACADO                                                                                                                     00000000000000000000000000                                                                       00000000200412021
118208315000194 18208315000   PEDRO SOARES DA SILVA                             JCNAV DO PONTAL                                      BARRA DE CUNHAU                                   CANGUARETAMA                                      RN00000000AV DO PONTAL                                      BARRA DE CUNHAU                                   CANGUARETAMA                                      RN00000000AV DO PONTAL                                      BARRA DE CUNHAU                                   CANGUARETAMA                                      RN0000000084 99693017                      pedro.soares2@hotmail.com                                                                           00000000000000000000000000202878040     PEDRO SOARES DA SILVA                             VAREJO                                                                                                                      00000000000000000000000000                                                                       00000000202304291
15057567497     05057567497   RUBELAINE AMARO DE LIMA                           FCNRUA DOS LIRIOS                                    CENTRO                                            SANTO ANTONIO                                     RN59255000RUA DOS LIRIOS                                    CENTRO                                            SANTO ANTONIO                                     RN59255000RUA DOS LIRIOS                                    CENTRO                                            SANTO ANTONIO                                     RN5925500084 9948298284 9948298284 99482982ruberlaineamaro0911@gmail.com                                                                       00000000000000000000000000                                                                                                                  2458609             SSFCADMINISTRACAO                                     00000000000000000019841109                                                                       00000000201903251
16555539402     06555539402   ALINE MEDEIROS DE LIMA                            FCNAV DOS CAIAPOS                                    SATELITE                                          NATAL                                             RN59067400AV DOS CAIAPOS                                    SATELITE                                          NATAL                                             RN59067400AV DOS CAIAPOS                                    SATELITE                                          NATAL                                             RN5906740084 9874635384 96025794           alinemedeirosl@yhoo.com.br                                                                          00000000000000000000000000                                                                                                                  2038725             SSFCASSISTENTE SOCIAL                                 00000000000000000019870721                                                                       00000000201202231
11171868480     01171868480   JOHNATY RAFAEL GADELHA DE MEDEIROS                FCNAV BACHAREL TOMAZ LANDIM                          IGAPO                                             NATAL                                             RN59104000AV BACHAREL TOMAZ LANDIM                          IGAPO                                             NATAL                                             RN59104000AV BACHAREL TOMAZ LANDIM                          IGAPO                                             NATAL                                             RN5910400084 9887633784 9887633784 98876337johnatyrafael@icloud.com                                                                            00000000000000000000000000                                                                                                                  1873616             SSMSCOMERCIANTE                                       00000000000000000019830226                                                                       00000000202305221
11764073401     01764073401   JOYCE MYLENA RODRIGUES FERNANDES                  FCNRUA CRICIUMA                                      POTENGI                                           NATAL                                             RN59112320RUA CRICIUMA                                      POTENGI                                           NATAL                                             RN59112320RUA CRICIUMA                                      POTENGI                                           NATAL                                             RN5911232084 9993774484 9993774484 99937744joycemylena1864k@hotmail.com                                                                        00000000000000000000000000                                                                                                                  3198730             ITFCCOMERCIANTE                                       00000000000000000019970813                                                                       00000000202305261
11829960423     01829960423   FARLEY GERTRUDES DE SOUZA                         FCNRUA FRANCISCO QUEIROZ                             VALADAO                                           MACAU                                             RN59500000RUA FRANCISCO QUEIROZ                             VALADAO                                           MACAU                                             RN59500000RUA FRANCISCO QUEIROZ                             VALADAO                                           MACAU                                             RN5950000084 9983138984 9983138984 99831389gertrudesfarley@gmail.com                                                                           00000000000000000000000000                                                                                                                  4961544             MTMSCOMERCIANTE                                       00000000000000000020001106                                                                       00000000202305261
11971400416     01971400416   ZELIA MARIA DO NASCIMENTO CRUZ                    FCNRUA FRANCISCO FERNADO FREIRE                      CENTRO                                            BAIA FORMOSA                                      RN59194000RUA FRANCISCO FERNADO FREIRE                      CENTRO                                            BAIA FORMOSA                                      RN59194000RUA FRANCISCO FERNADO FREIRE                      CENTRO                                            BAIA FORMOSA                                      RN5919400084 99409835           84 99409835zeliamarianascimentocruz@gmail.com                                                                  00000000000000000000000000                                                                                                                  1489541             ITFCPROFESSORA                                        00000000000000000019731025                                                                       00000000202305221
12229697412     02229697412   VELUZIA MARIA MAIA CAVALCANTI DE L SOFFIATTI      FCNRUA ANA NERI                                      PETROPOLIS                                        NATAL                                             RN59020040RUA ANA NERI                                      PETROPOLIS                                        NATAL                                             RN59020040RUA ANA NERI                                      PETROPOLIS                                        NATAL                                             RN5902004084 9872822184 9872822184 98728221velmaia@yahoo.com.br                                                                                00000000000000000000000000                                                                                                                  1561719             ITFCGERENTE                                           00000000000000000019770123                                                                       00000000202305221
13601983419     03601983419   DIVANIA SILVA DE MELO                             FCNRUA DO CARRERO                                    NOVO HORIZONTE                                    CEARA-MIRIM                                       RN59570000RUA DO CARRERO                                    NOVO HORIZONTE                                    CEARA-MIRIM                                       RN59570000RUA DO CARRERO                                    NOVO HORIZONTE                                    CEARA-MIRIM                                       RN5957000084 9995264184 9995264184 99952641divanialivia@gmail.com                                                                              00000000000000000000000000                                                                                                                  001886484           SSFSGERENTE                                           00000000000000000019810510                                                                       00000000202305091
13675884473     03675884473   JOSE ANDRE DE SOUZA                               FCNRUA JOAO XXIII                                    CENTRO                                            VERA CRUZ                                         RN59184000RUA JOAO XXIII                                    CENTRO                                            VERA CRUZ                                         RN59184000RUA JOAO XXIII                                    CENTRO                                            VERA CRUZ                                         RN5918400084 9887575884 9887575884 98875758cristina_paiva@ymail.com                                                                            00000000000000000000000000                                                                                                                  2045917             ITMCCOMERCIANTE                                       00000000000000000019810721                                                                       00000000202305081
14800628466     04800628466   ANGELA GISELDA VICENTE DA SILVA                   FCNRUA CEL MAURICIO FREIRE                           CENTRO                                            SAO PEDRO                                         RN59480000RUA CEL MAURICIO FREIRE                           CENTRO                                            SAO PEDRO                                         RN59480000RUA CEL MAURICIO FREIRE                           CENTRO                                            SAO PEDRO                                         RN5948000084 9888566684 9888566684 98885666angelagiselda@hotmail.com                                                                           00000000000000000000000000                                                                                                                  001840701           SSFSPROFESSOR                                         00000000000000000019810717                                                                       00000000202001301
18443294442     08443294442   LORENNA MARA BEZERRA AMARAL                       FCNRUA DRA MIRIAN PINHEIRO DE SOUZA                  NEOPOLIS                                          NATAL                                             RN59088760RUA DRA MIRIAN PINHEIRO DE SOUZA                  NEOPOLIS                                          NATAL                                             RN59088760RUA DRA MIRIAN PINHEIRO DE SOUZA                  NEOPOLIS                                          NATAL                                             RN5908876084 9889640284 9889640284 98896402lorennamara@hotmail.com                                                                             00000000000000000000000000                                                                                                                  002209788           SSFSENFERMEIRA                                        00000000000000000019890111                                                                       00000000202305181
18606404420     08606404420   FRANCISCO BARROS DE LIMA                          FCNRUA SAO JORGE     N.39                            GOLANDIM                                          SAO GONCALO DO AMARANTE                           RN59290000RUA SAO JORGE   N.39                              GOLANDIM                                          SAO GONCALO DO AMARANTE                           RN59290000RUA SAO JORGE   N.32                              GOLANDIM                                          NATAL                                             RN5929000084 32142154           84 99829783flimabarros709@gmail.com                                                                            00000000000000000000000000                                                                                                                  325832              MMMCTAXISTA                                           00000000000000000019530406                                                                       00000000200707091
19822135491     09822135491   EDMAR PINHEIRO DE SOUSA                           FCNRUA LUCIA VIVEIROS                                NEOPOLIS                                          NATAL                                             RN59086005RUA LUCIA VIVEIROS                                NEOPOLIS                                          NATAL                                             RN59086005RUA LUCIA VIVEIROS                                NEOPOLIS                                          NATAL                                             RN5908600584 3218251684 9887639384 98702251rguedessousa@uol.com.br                                                                             00000000000000000000000000                                                                                                                  233874              SSMCOUTROS                                            00000000000000000019551006                                                                       00000000200102281
111805538705    11805538705   JONATAS FERREIRA MARINHO                          FCNRUA MANOEL THOMAS                                 ZONA RURAL                                        TIBAU DO SUL                                      RN59178000RUA MANOEL THOMAS                                 ZONA RURAL                                        TIBAU DO SUL                                      RN59178000RUA MANOEL THOMAS                                 ZONA RURAL                                        TIBAU DO SUL                                      RN5917800084 32465987           84 99697478jonatasferreiramarinho@gmail.com                                                                    00000000000000000000000000                                                                                                                  7076029             MBMSAUTONOMO                                          00000000000000000019910924                                                                       00000000201507201
111997739488    11997739488   CARLOS IHIGOR OLIMPIO DE BRITO                    FCNVI MATA                                           ZONA RURAL                                        TENENTE ANANIAS                                   RN59955000VI MATA                                           ZONA RURAL                                        TENENTE ANANIAS                                   RN59955000VI MATA                                           ZONA RURAL                                        TENENTE ANANIAS                                   RN5995500083 9984188083 9984188083 99841880carloshigor022@gmail.com                                                                            00000000000000000000000000                                                                                                                  4331908             SSMOAUTONOMO                                          00000000000000000019980407                                                                       00000000202305251
115090493472    15090493472   MARIA DE FATIMA SOARES                            FCNRUA LUIZ C MARINHO                                AUTO DE SOUZA                                     MACAIBA                                           RN59280331RUA LUIZ C MARINHO                                AUTO DE SOUZA                                     MACAIBA                                           RN59280331RUA LUIZ C MARINHO                                AUTO DE SOUZA                                     MACAIBA                                           RN5928033184 5499893 84 5499893 84 99549989fsoares2765@gmail.com                                                                               00000000000000000000000000                                                                                                                  310150              ITFSAPOSENTADA                                        00000000000000000019550215                                                                       00000000202305151
127548627491    27548627491   JOSE WILSON DOS SANTOS                            FCNRUA DAS OSTRAS                                    CENTRO                                            SAO MIGUEL DO GOSTOSO                             RN59565000RUA DAS OSTRAS                                    CENTRO                                            SAO MIGUEL DO GOSTOSO                             RN59565000RUA DAS OSTRAS                                    CENTRO                                            SAO MIGUEL DO GOSTOSO                             RN59565000                      84 99113870josewilson@hotmail.com                                                                              00000000000000000000000000                                                                                                                  503428              SSMCPRODUTOR RURAL                                    00000000000000000019570321                                                                       00000000201804111
137365458860    37365458860   BRUNO DE SOUZA SILVA                              FCNRUA JOAO GOMES                                    BODOCONGO                                         CAMPINA GRANDE                                    PB58430400RUA DOS GOLFINHOS                                 BODOCONGO                                         SÃO PAULO                                         SP03978420RUA DOS GOLFINHOS                                 CONJUNTO RES SITIO ORATORIO                       SÃO PAULO                                         SP0397842011 9739177211 9739177211 97391772bruno.elo@hotmail.com                                                                               00000000000000000000000000                                                                                                                  47213339            SSMDEMPRESARIO                                        00000000000000000019900808                                                                       00000000202203301
146280839915    46280839915   SERGIO LUIZ BAENA DE SOUZA                        FCNRUA JORNALISTA FRANCISCO SINEDINO                 LAGOA NOVA                                        NATAL                                             RN59062570RUA JORNALISTA FRANCISCO SINEDINO                 LAGOA NOVA                                        NATAL                                             RN59062570RUA MANDACARU 2160                                LAGOA NOVA                                        NATAL                                             RN5906440084 98846634           84 32316419sl_baena@yahoo.com.br                                                                               00000000000000000000000000                                                                                                                  17761633            SSMSPROFESSOR                                         00000000000000000019620305                                                                       00000000200902251
187640767415    87640767415   EMANUEL ALEIXO DE LUNA                            FCNSITIO FORMIGUEIRO                                 CIDADE DE BARCELONA                               BARCELONA                                         RN59410000SITIO FORMIGUEIRO                                 CIDADE DE BARCELONA                               BARCELONA                                         RN59410000SITIO FORMIGUEIRO                                 CIDADE DE BARCELONA                               BARCELONA                                         RN5941000084 9880617184 9880617184 98806171evamariadesouza72@gmail.com                                                                         00000000000000000000065000                                                                                                                  001410230           SSMCPROFESSOR                                         00000000000000000019730304                                                                       00000000202305231
12059979000107  02059979000107WW COMERCIO DE VEICULOS LTDA                      JCNAVENIDA VISCONDE DO RIO BRANCO                    JOAQUIM TAVORA                                    FORTALEZA                                         CE60055171AVENIDA VISCONDE DO RIO BRANCO                    JOAQUIM TAVORA                                    FORTALEZA                                         CE60055171AVENIDA VISCONDE DO RIO BRANCO                    JOAQUIM TAVORA                                    FORTALEZA                                         CE6005517185 9890008885 9890008885 98900088wwveiculos.ce@gmail.com                                                                             00000000000000000000000000069915830                                                       ATACADO                                                                                                                     00000000000000000000000000                                                                       00000000202111291
129026732000132 29026732000132J G DA SILV A ACADEMIA                            JCNRUA POETA JOSE TAVARES                            CENTRO                                            NATAL                                             RN59890000RUA POETA JOSE TAVARES                            CENTRO                                            NATAL                                             RN59890000RUA POETA JOSE TAVARES                            CENTRO                                            FRUTUOSO GOMES                                    RN59890000                      84 99625787                                                                                                    00000000000000000000499000ISENTO                                                          ATACADO                                                                                                                     00000000000000000000000000                                                                       00000000202304291
134336207000153 34336207000153M R DO C LOPES                                    JCNRUA ITAINOPOLIS                                   POTENGI                                           NATAL                                             RN59108280RUA ITAINOPOLIS                                   POTENGI                                           NATAL                                             RN59108280RUA ITAINOPOLIS                                   POTENGI                                           NATAL                                             RN5910828084 9961972984 9961972984 99619729jackgourmett@gmail.com                                                                              00000000000000000000000000205215661     JACK LANCHES GOURMET                              VAREJO                                                                                                                      00000000000000000000000000                                                                       00000000202305021
13631356420     03631356420   JAILMA KATIA PEREIRA                              FCNAVENIDA JOAO PAULO 2                              NOVA ESPERANCA                                    PARNAMIRIM                                        RN59144850AVENIDA JOAO PAULO 2                              NOVA ESPERANCA                                    PARNAMIRIM                                        RN59144850AVENIDA JOAO PAULO 2                              NOVA ESPERANCA                                    PARNAMIRIM                                        RN5914485084 9882611984 9882611984 99671000jailmal@gmail.com                                                                                   00000000000000000000000000                                                                                                                  001674809           ITFSADMINISTRACAO                                     00000000000000000019800509                                                                       00000000202009081
16473083472     06473083472   JOAO AURELIANO DE PAIVA                           FANRUA SANTO AGOSTINHO                               CANDELARIA                                        NATAL                                             RN59065650RUA SANTO AGOSTINHO                               CANDELARIA                                        NATAL                                             RN59065650RUA SANTO AGOSTINHO                               CANDELARIA                                        NATAL                                             RN5906565084 9863077984 9863077984 98630779joaoaurelianopaiva@gmail.com                                                                        00000000000000000000000000                                                                                                                  112099              ITMSAPOSENTADO                                        00000000000000000019511116                                                                       00000000202305171
156906412       00056906412   ROGERIO DE OLIVEIRA BARBOSA                       FCNRUA DOS COLIBRIS                                  AMARANTE                                          SAO GONCALO DO AMARANTE                           RN59296545RUA DOS COLIBRIS                                  AMARANTE                                          SAO GONCALO DO AMARANTE                           RN59296545RUA DOS COLIBRIS                                  AMARANTE                                          SAO GONCALO DO AMARANTE                           RN5929654584 9887478784 9887478784 98874787rogertur2015@gmail.com                                                                              00000000000000000000000000                                                                                                                  12628868            ITMOMOTORISTA                                         00000000000000000019741113                                                                       00000000201811301
12616231417     02616231417   CANDIDO DE MELO PINTO NETO                        FCNRUA DR. ARNALDO BARBALHO SIMONETTI                NOVO HORIZONTE                                    GOIANINHA                                         RN59173000RUA DR. ARNALDO BARBALHO SIMONETTI                NOVO HORIZONTE                                    GOIANINHA                                         RN59173000RUA DR. ARNALDO BARBALHO SIMONETTI                NOVO HORIZONTE                                    GOIANINHA                                         RN5917300084 99215236           84 99215236marianalptavares@hotmail.com                                                                        00000000000000000000150000                                                                                                                  1661431             SSMSOUTROS                                            00000000000000000019790824                                                                       00000000200502141
