14759872418     04759872418   CAMILA PONTES CAMPOS                              FCNSTA CECILIA                                       SANTO ANTONIO                                     CAMPINA GRANDE                                    PB58406015STA CECILIA                                       SANTO ANTONIO                                     CAMPINA GRANDE                                    PB58406015STA CECILIA                                       SANTO ANTONIO                                     CAMPINA GRANDE                                    PB5840601583 9930711183 9860073783 98600737camilapcampos@hotmail.com                                                                           00000000000000000000000000                                                                                                                  2667993             SSMSENFERMEIRA                                        00000000000000000019840524                                                                       00000000202305311
113264656434    13264656434   SEVERINO ALVES DE SOUSA                           FCNRUA CONEGO SERRAO                                 CENTRO                                            TEIXEIRA                                          PB58135000RUA CONEGO SERRAO                                 CENTRO                                            TEIXEIRA                                          PB58135000RUA CONEGO SERRAO                                 CENTRO                                            TEIXEIRA                                          PB5813500083 9985877683 9985877683 99858776severalvesdesousa@gmail.com                                                                         00000000000000000000000000                                                                                                                  171023              SSMCMEDICO                                            00000000000000000019500323                                                                       00000000200303131
141441621415    41441621415   MARIA DE FATIMA DEMETRIO CABRAL                   FCNFREI CLEMENTINO                                   CENTRO                                            LAGOA SECA                                        PB58117000FREI CLEMENTINO                                   CENTRO                                            LAGOA SECA                                        PB58117000FREI CLEMENTINO                                   CENTRO                                            LAGOA SECA                                        PB5811700083 96913366           83 99691336socialfatima@hotmail.com                                                                            00000000000000000000000000                                                                                                                  756312              SSFVPROFESSOR                                         00000000000000000019531226                                                                       00000000202111301
157003785404    57003785404   FABIANO MONTEIRO ARAUJO                           FANRUA IRINEL JOFILLE                                CENTRO                                            POCINHOS                                          PB58150000                                                  CENTRO                                                                                                00000000RUA IRINEL JOFILLE                                CENTRO                                            POCINHOS                                          PB5815000083 98133579                      fabioefabiano1968@gmail.com                                                                         00000000000000000000000000                                                                                                                  1118265             . MOOUTROS                                            00000000000000000019680329                                                                       00000000202206071
170067401422    70067401422   FERNANDA DE QUEIROZ FREITAS                       FCNFRANCISCO BADICO RAFAEL                           CENTR0                                            SUME                                              PB58540000FRANCISCO BADICO RAFAEL                           CENTR0                                            SUME                                              PB58540000FRANCISCO BADICO RAFAEL                           CENTR0                                            SUME                                              PB5854000083 99616420           83 99655911nandaqf24@gmail.com                                                                                 00000000000000000000000000                                                                                                                  3967611             SSFSADMINISTRACAO                                     00000000000000000019970426                                                                       00000000202011181
12053209453     02053209453   OTONIEL CAETANO BATISTA                           FCNALMIRANTE BARROSO                                 QUARENTA                                          CAMPINA GRANDE                                    PB58416170ALMIRANTE BARROSO                                 QUARENTA                                          CAMPINA GRANDE                                    PB58416170ALMIRANTE BARROSO                                 QUARENTA                                          CAMPINA GRANDE                                    PB5841617083 99980433           83 99980433otonielcb@gmail.com                                                                                 00000000000000000000000000                                                                                                                  0714736816          PEMVAPOSENTADO                                        00000000000000000019440705                                                                       00000000201211121
17891994757     07891994757   OBERDA FARIAS DE SOUSA                            FCNPROJETADA                                         CENTRO                                            COXIXOLA                                          PB58588000PROJETADA                                         CENTRO                                            COXIXOLA                                          PB58588000PROJETADA                                         CENTRO                                            COXIXOLA                                          PB5858800083 99841805           83 99841805oberdsousa@yahoo.com.br                                                                             00000000000000000000000000                                                                                                                  108896994           SSMSBANCARIO                                          00000000000000000019780923                                                                       00000000201707221
139661802000188               SHELLEY NUNES PACHU SUASSUNA                      JCNRUA MANOEL DE LIMA                                CENTRO                                            TAVARES                                           PB58753000RUA MANOEL DE LIMA                                CENTRO                                            TAVARES                                           PB58753000RUA MANOEL DE LIMA                                CENTRO                                            TAVARES                                           PB5875300083 99924151           83 99682216sslocadoratavares@gmail.com                                                                         00000000000000000000000000                                                                VAREJO                                                                                                                      00000000000000000000000000                                                                       00000000202105171
141207788000199 41207788000199VD AUTOMOVEIS LTDA                                JCNRUA JOSE LINS DO REGO                             PALMEIRA                                          CAMPINA GRANDE                                    PB58401145RUA JOSE LINS DO REGO                             PALMEIRA                                          CAMPINA GRANDE                                    PB58401145RUA JOSE LINS DO REGO                             PALMEIRA                                          CAMPINA GRANDE                                    PB5810161083 3322478283 3322478283 99856546vdcarltda@gmail.com                                                                                 00000000000000000000000000161264999     VD CAR                                            ATACADO                                                                                                                     00000000000000000000000000                                                                       00000000200405101
14268559493     04268559493   LEANDRO LINS DIAS                                 FCNRUA GAMA                                          LIGEIRO                                           QUEIMADAS                                         PB58475000                                                  LIGEIRO                                                                                               00000000RUA GAMA                                          LIGEIRO                                           QUEIMADAS                                         PB5847500083 91854626                                                                                                                          00000000000000000000000000                                                                                                                  123456              PBMSACESSORIA                                         00000000000000000019700504                                                                       00000000202305121
14498763491     04498763491   JOSE VICENTE DEDE FERREIRA                        FCNSEVERINO CANDIDO FERNANDES                        CATOLE                                            CAMPINA GRANDE                                    PB58410453SEVERINO CANDIDO FERNANDES                        CATOLE                                            CAMPINA GRANDE                                    PB58410453SEVERINO CANDIDO FERNANDES                        CATOLE                                            CAMPINA GRANDE                                    PB5841045383 99398155                      dedef3126@gmail.com                                                                                 00000000000000000000000000                                                                                                                  150569              SSMSEMPREENDIMENTOS                                   00000000000000000019471005                                                                       00000000202303071
15782071419     05782071419   JACIEL DA SILVA BEZERRA                           FCNRUA JOAO PEDRO FERNANDES                          SAO JOSE DA MATA                                  CAMPINA GRANDE                                    PB58441000RUA JOAO PEDRO FERNANDES                          SAO JOSE DA MATA                                  CAMPINA GRANDE                                    PB58441000RUA JOAO PEDRO FERNANDES                          SAO JOSE DA MATA                                  CAMPINA GRANDE                                    PB5844100083 9862273583 9862273583 98622735jaciel130384@gmail.com                                                                              00000000000000000000000000                                                                                                                  2805393             SSMSFARMACEUTICO                                      00000000000000000019840313                                                                       00000000201608081
110417107471    10417107471   RAFAELA MARIA MARTINS QUEIROZ                     FCNRUA SEVERINO PEREIRA RODRIGUES                    PRESIDENTE MEDICI                                 CAMPINA GRANDE                                    PB58417760RUA SEVERINO PEREIRA RODRIGUES                    PRESIDENTE MEDICI                                 CAMPINA GRANDE                                    PB58417760RUA SEVERINO PEREIRA RODRIGUES                    PRESIDENTE MEDICI                                 CAMPINA GRANDE                                    PB5841776081 99891434                      rafaelammqueiro9z@gmail.com                                                                         00000000000000000000000000                                                                                                                  2179217             SSFSMEDICA                                            00000000000000000019990424                                                                       00000000202305091
115135322434    15135322434   GERALDO JOSE DE ALMEIDA                           FCNRUA JOSE GOMES FILHO                              MALVINAS                                          CAMPINA GRANDE                                    PB58433219RUA JOSE GOMES FILHO                              MALVINAS                                          CAMPINA GRANDE                                    PB58433219RUA JOSE GOMES FILHO                              MALVINAS                                          CAMPINA GRANDE                                    PB5843321983 3339151883 9872217783 99972077GERALDOALMEIDATAXI@GMAIL.COM                                                                        00000000000000000000000000                                                                                                                  277581              SSMCTAXISTA                                           00000000000000000019541205                                                                       00000000201306101
118149987487    18149987487   WELLINGTON BARBOSA DO NASCIMENTO                  FCNMARIA DO SOCORRO TARGINO ARAUJO                   DINAMERICA                                        CAMPINA GRANDE                                    PB58432450MARIA DO SOCORRO TARGINO ARAUJO                   DINAMERICA                                        CAMPINA GRANDE                                    PB58432450MARIA DO SOCORRO TARGINO ARAUJO                   DINAMERICA                                        CAMPINA GRANDE                                    PB5843245083 98808657           83 98808657wellingtonbn60@gmail.com                                                                            00000000000000000000000000                                                                                                                  498058              SSMCADMINISTRACAO                                     00000000000000000019590527                                                                       00000000202108191
137365458860    37365458860   BRUNO DE SOUZA SILVA                              FCNRUA JOAO GOMES                                    BODOCONGO                                         CAMPINA GRANDE                                    PB58430400RUA DOS GOLFINHOS                                 BODOCONGO                                         SÃO PAULO                                         SP03978420RUA DOS GOLFINHOS                                 CONJUNTO RES SITIO ORATORIO                       SÃO PAULO                                         SP0397842011 9739177211 9739177211 97391772bruno.elo@hotmail.com                                                                               00000000000000000000000000                                                                                                                  47213339            SSMDEMPRESARIO                                        00000000000000000019900808                                                                       00000000202203301
197620270434    97620270434   WILLIAN SANTIAGO DE SOUZA                         FCNMANOEL LEONARDO GOMES                             LIBERDADE                                         CAMPINA GRANDE                                    PB58414230MANOEL LEONARDO GOMES                             LIBERDADE                                         CAMPINA GRANDE                                    PB58414230JOSE GONSALVES DE LIUCENA                         CRUZEIRO                                          CAMPINA GRANDE                                    PB5811000083 9968268683 3325556683 99682686wsantiago.campinagrande@gmail.com                                                                   00000000000000000000000000                                                                                                                  155236              SSMCVENDEDOR                                          00000000000000000019801010                                                                       00000000202004161
15625914435     05625914435   EDIVANIO PEREIRA CRUZ DE ARAUJO                   FCNAV. MARECHAL FLORIANO PEIXOTO                     SERROTAO                                          CAMPINA GRANDE                                    PB58434500AV. MARECHAL FLORIANO PEIXOTO                     SERROTAO                                          CAMPINA GRANDE                                    PB58434500AV. MARECHAL FLORIANO PEIXOTO                     SERROTAO                                          CAMPINA GRANDE                                    PB5843450084 3218036083 9964158884 98846274edivanioaraujo@gmail.com                                                                            00000000000000000000044000                                                                                                                  1816354             SSMCGERENTE                                           00000000000000000019840127                                                                       00000000200802181
19701504402     09701504402   HUGO DE SOUZA PIMENTEL                            FCNJOSE AUGUSTO BONIFACIO                            CENTRO                                            PEDRAS DE FOGO                                    PB58328000                                                  CENTRO                                                                                                00000000JOSE AUGUSTO BONIFACIO                            CENTRO                                            PEDRAS DE FOGO                                    PB5832800081 92827758                      pimentelshugo@gmail.com                                                                             00000000000000000000000000                                                                                                                  3588502             SSMSDENTISTA                                          00000000000000000019860606                                                                       00000000202304221
12424360480     02424360480   VERONICA CAVALCANTI PEDROSA                       FCNFERNANDO GOMES DE ARAUJO                          SANDRA CAVALCANTI                                 CAMPINA GRANDE                                    PB58410858                                                  SANDRA CAVALCANTI                                                                                     00000000RUA FERNANDO GOMES DE ARAUJO                      SANDRA CAVALCANTI                                 CAMPINA GRANDE                                    PB5841085883 99818599           83 99818599nit.oliveira@gmail.com                                                                              00000000000000000000000000                                                                                                                  2125223             SSFCADMINISTRACAO                                     00000000000000000019780503                                                                       00000000202305081
185345300410    85345300410   EDILTON SILVA DO NASCIMENTO                       FCNJOSE RUFINO ALMEIDA                               CENTRO                                            AREIA                                             PB58397000JOSE RUFINO ALMEIDA                               CENTRO                                            AREIA                                             PB58397000JOSE RUFINO ALMEIDA                               CENTRO                                            AREIA                                             PB5839700083 99857214           83 99857214ediltonpbnascimento19@gmail.com                                                                     00000000000000000000000000                                                                                                                  1562608             SSMDADMINISTRACAO                                     00000000000000000019720525                                                                       00000000202305301
12198942488     02198942488   DEBORA MARIA GONDIM MEDEIROS                      FCNPROF.  XAVIER JUNIOR                              CENTRO                                            AREIA                                             PB58397000PROFESSOR XAVIER JUNIOR                           CENTRO                                            AREIA                                             PB58397000PROFESSOR XAVIER JUNIOR                           CENTRO                                            AREIA                                             PB5839700083 99108847           83 99108847dezinhagondim@hotmail.com                                                                           00000000000000000000000000                                                                                                                  1968023             SSMSPROFESSORA                                        00000000000000000019760801                                                                       00000000201708071
12408423406     02408423406   ROBERTO DA SILVA NUNES                            FCNR. JOAQUIM AMORIM JUNIOR                          BODOCONGO                                         CAMPINA GRANDE                                    PB58430200R. JOAQUIM AMORIN JUNIOR                          BODOCONGO                                         CAMPINA GRANDE                                    PB58430200R. JOAQUIM AMORIN JUNIOR                          BODOCONGO                                         CAMPINA GRANDE                                    PB5843020083 99926611           83 99926611cavalcanteefreita@gmail.com                                                                         00000000000000000000000000                                                                                                                  2166971             SSMOAUTONOMO                                          00000000000000000019760518                                                                       00000000201810201
13961716480     03961716480   JOAO GOMES DA SILVA                               FCNSITIO GRAVATA DE CAIXA DAGUA                      AREA RURAL                                        QUEIMADAS                                         PB58475000SITIO GRAVATA DE CAIXA DAGUA                      AREA RURAL                                        QUEIMADAS                                         PB58475000SITIO GRAVATA DE CAIXA DAGUA                      AREA RURAL                                        QUEIMADAS                                         PB5847500083 9865302583 9865302583 98653025gomesjoao6759@gmail.com                                                                             00000000000000000000000000                                                                                                                  2632151             SSMSCOMERCIARIO                                       00000000000000000019800718                                                                       00000000202305291
14100056494     04100056494   KHEVENNY KARLLOS ALVES CARVALHO                   FCNR. JOSE DO O                                      LAURITZEN                                         CAMPINA GRANDE                                    PB58401411R. JOSE DO O                                      LAURITZEN                                         CAMPINA GRANDE                                    PB58401411R. JOSE DO O                                      LAURITZEN                                         CAMPINA GRANDE                                    PB5840141183 98893762           83 99808341khevennykarllos@gmail.com                                                                           00000000000000000000000000                                                                                                                  2568612             SSMSGERENTE                                           00000000000000000019811011                                                                       00000000201303191
15014405428     05014405428   THIAGO AUGUSTO GONCALVES DE BRITO ARAUJO          FCNENG LOURIVAL DE ANDRADE                           BODOCONGO                                         CAMPINA GRANDE                                    PB58430420ENG LOURIVAL DE ANDRADE                           BODOCONGO                                         CAMPINA GRANDE                                    PB58430420ENG LOURIVAL DE ANDRADE                           BODOCONGO                                         CAMPINA GRANDE                                    PB5843042083 99113567           83 99113567thiago.thiagogba@gmail.com                                                                          00000000000000000000000000                                                                                                                  2921273             SSMCGERENTE                                           00000000000000000019850509                                                                       00000000200906251
18203714404     08203714404   MARIA GILVERLANDIA DA SILVA PEREIRA               FCNRUA PADRE AMANCIO LEITE                           CENTRO                                            CONDADO                                           PB58714000                                                  CENTRO                                                                                                00000000RUA PADRE AMNCIO LEITE                            CENTRO                                            CAMPINA GRANDE                                    PB5871400083 9984100883 9984100883 99841008melhorpreosupermercadoxondad@gmail.com                                                              00000000000000000000000000                                                                                                                  3605746             SSMSADMINISTRADOR                                     00000000000000000019870616                                                                       00000000202305081
111387652443    11387652443   JOHNATAN VASCONCELOS SILVA                        FCNPROF ANTONIO OLIVEIRA                             BODOCONGO                                         CAMPINA GRANDE                                    PB58430235                                                  BODOCONGO                                                                                             00000000PROF ANTONIO OLIVEIRA                             BODOCONGO                                         CAMPINA GRANDE                                    PB5843023583 9911198283 2101800083 99111982johnatanvasconcelossilvaa@gmail.com                                                                 00000000000000000000000000                                                                                                                  4019846             SSMCMECANICO                                          00000000000000000019941031                                                                       00000000202103261
11617975000126  01617975000126PREFEITURA MUNICIPAL DE CASSERENGUE               JCNDURVAL DA COSTA LIRA                              CENTRO                                            CASSERENGUE                                       PB58238000DURVAL DA COSTA LIRA                              CENTRO                                            CASSERENGUE                                       PB58238000DURVAL DA COSTA LIRA                              CENTRO                                            CASSERENGUE                                       PB5823800083 98154626           83 98154626prefeitura.casserengue@gmail.com                                                                    00000000000000000000000000                                                                ATACADO                                                                                                                     00000000000000000000000000                                                                       00000000200208271
119533015000143 19533015000143NSF TRANSPORTES LTDA ME                           JCNAV MAL FLORIANO PEIXOTO                           DINAMERICA                                        CAMPINA GRANDE                                    PB58432120AV MAL FLORIANO PEIXOTO                           DINAMERICA                                        CAMPINA GRANDE                                    PB58432120SITIO CAPIM GRANDE                                ZONA RURAL                                        CAMPINA GRANDE                                    PB5044100083 99868014           83 99868014nsftransportes@gmail.com                                                                            00000000000000000000000000163143110     NSF TRANSPORTES                                   VAREJO                                                                                                                      00000000000000000000000000                                                                       00000000202108201
120723112000188 20723112000188GRANJA SOUZA CRIAÇÃO DE AVES LTDA                 JCNSITIO QUEBRA PE                                   ZONA RURAL                                        ESPERANCA                                         PB58135000SITIO QUEBRA PE                                   ZONA RURAL                                        ESPERANCA                                         PB58135000SITIO QUEBRA PE                                   ZONA RURAL                                        ESPERANCA                                         PB5813500083 99188510           83 99188510avicolasouzaltda@hotmail.com                                                                        00000000000000000000000000162368860                                                       VAREJO                                                                                                                      00000000000000000000000000                                                                       00000000202009141
18379817435     08379817435   ROSEMARY BRANDAO CAVALCANTI                       FCNHENRIQUE NOBREGA                                  TRES IRMAS                                        CAMPINA GRANDE                                    PB58423505                                                  TRES IRMAS                                                                                            00000000HENRIQUE NOBREGA                                  TRES IRMAS                                        CAMPINA GRANDE                                    PB5842350583 98833465                      rosemarybrandao0115@gmail.com                                                                       00000000000000000000000000                                                                                                                  2942113             SSFSTAXISTA                                           00000000000000000019840812                                                                       00000000202305181
110988781409    10988781409   JANDERSON COSTA LEAO LIMA                         FCNLUZINALDA EDITE ARAUJO LEITE                      SERROTAO                                          CAMPINA GRANDE                                    PB58434232RUA LUZINALDA EDITE ARAUJO LEITE                  SERROTAO                                          CAMPINA GRANDE                                    PB58434232RUA LUZINALDA EDITE ARAUJO LEITE                  SERROTAO                                          CAMPINA GRANDE                                    PB5843423283 98885848           83 98885848renally26@gmail.com                                                                                 00000000000000000000000000                                                                                                                  3912080             SSMSACESSORIA                                         00000000000000000019940329                                                                       00000000202305021
169182680400    69182680400   JOACIR LUIZ DA COSTA                              FCNR ADAO LEITAO                                     SAO JOSE                                          SANTA LUZIA                                       PB58600000R ADAO LEITAO                                     SAO JOSE                                          SANTA LUZIA                                       PB58600000R ADAO LEITAO                                     SAO JOSE                                          SANTA LUZIA                                       PB5860000083 99149055           83 99956834joacirluizcosta@gmail.com                                                                           00000000000000000000000000                                                                                                                  1346720             SSMSEMPRESARIO                                        00000000000000000019700616                                                                       00000000201311061
171344594468    71344594468   EVERALDO LEITE DA SILVA                           FCNRUA PROFESSORA DULCELINA FALCONE DE CARV          CRUZEIRO                                          CAMPINA GRANDE                                    PB58415700                                                  CRUZEIRO                                                                                              00000000RUA PROFESSORA DULCELINA FALCONE DE CARVALHO      CRUZEIRO                                          CAMPINA GRANDE                                    PB5841570083 98750125           83 99914044everaldoleite1970@gmail.com                                                                         00000000000000000000000000                                                                                                                  1400256             SSMCTAXISTA                                           00000000000000000019700117                                                                       00000000201711161
134128045000168 34128045000168SHOP CARROS COMERCIO DE PECAS E LOCACAO DE VEICULOJANRUA LUIS SOARES                                   CENTRO                                            CAMPINA GRANDE                                    PB58400016RUA LUIS SOARES                                   CENTRO                                            CAMPINA GRANDE                                    PB58400016RUA LUIS SOARES                                   CENTRO                                            CAMPINA GRANDE                                    PB5840001683 99614825           83 99614825shopcarcg@gmail.com                                                                                 00000000000000000000000000163437920                                                       ATACADO                                                                                                                     00000000000000000000000000                                                                       00000000202101211
111988730000169 11988730000169J. S. EMPREENDIMENTOS LTDA                        JCNR. JOAO SUASSUNA                                  CENTRO                                            CAMPINA GRANDE                                    PB58400036R. JOAO SUASSUNA                                  CENTRO                                            CAMPINA GRANDE                                    PB58400036R. JOAO SUASSUNA                                  CENTRO                                            CAMPINA GRANDE                                    PB58400036           83 2101800083 21018000george@daosilveira.com.br                                                                           00000000000000000000600000                                                                VAREJO                                                                                                                      00000000000000000000000000                                                                       00000000200504221
13517789429     03517789429   LEONARDO DE ARAUJO COSTA                          FCNBENEDITO MOTA                                     ALTO BRANCO                                       NATAL                                             RN58401718                                                  ALTO BRANCO                                                                                           00000000BENEDITO MOTA                                     ALTO BRANCO                                       NATAL                                             RN58401718                      83 99312122leonardocosta1980@gmail.com                                                                         00000000000000000000000000                                                                                                                  2188997             SSMCOUTROS                                            00000000000000000019800726                                                                       00000000202209091
19530256400     09530256400   ARTHUR WALLACE MACEDO VASCONCELOS                 FCNCORONEL JOAO COSTA I SILVA                        PRADA                                             CAMPINA GRANDE                                    PB58400490                                                  PRADA                                                                                                 00000000CORONEL JOAO COSTA I SILVA                        PRADA                                             CAMPINA GRANDE                                    PB5840049083 98820626           83 99616838arthurwallacemacedo@gmail.com                                                                       00000000000000000000000000                                                                                                                  3654795             SSMSOUTROS                                            00000000000000000020030702                                                                       00000000202210131
146066888749    46066888749   MARLETE RODRIGUES SANTOS                          FCNAVE JOAO ALMEIDA BARRETO, 29                      SANDRA CAVALCANTE                                 CAMPINA GRANDE                                    PB58410786                                                  SANDRA CAVALCANTE                                                                                     00000000AVE JOAO ALMEIDA BARRETO, 29                      SANDRA CAVALCANTE                                 CAMPINA GRANDE                                    PB5841078683 9883581883 3321051183 33210511navel@natalveiculos.com.br                                                                          00000000000000000000000000                                                                                                                  NAO INFORM          SSFCOUTROS                                            00000000000000000019760521                                                                       00000000200101291
12794334417     02794334417   WALKIRIA CORDEIRO LEITE                           FCNRUA ALUISIO LIMA                                  CATOLE                                            CAMPINA GRANDE                                    PB58410258                                                  CATOLE                                                                                                00000000RUA ALUISIO LIMA                                  CATOLE                                            CAMPINA GRANDE                                    PB58410258           83 9960984883 99609848walkiria_cordeiro@hotmail.com                                                                       00000000000000000000000000                                                                                                                  1927989S            SSMCADVOGADO                                          00000000000000000019760314                                                                       00000000202305081
15224869404     05224869404   GILLIARD MANOEL DANTAS DE SOUZA                   FCNFRANCISCO ZACARIAS DE MACEDO                      CENTRO                                            PICUI                                             PB58187000                                                  CENTRO                                                                                                00000000FRANCISCO ZACARIAS DE MACEDO                      CENTRO                                            PICUI                                             PB58187000           83 9817419883 98174198dantasgilliard@yahoo.com.br                                                                         00000000000000000000000000                                                                                                                  15554               SSMCVENDEDOR                                          00000000000000000019811118                                                                       00000000202204131
19675676450     09675676450   EMANOEL PEDRO ALBUQUERQUE FREITAS                 FCNRUA SOUTO MAIOR                                   CENTRO                                            CAMPINA GRANDE                                    PB58550000                                                  CENTRO                                                                                                00000000RUA SOUTO MAIOR                                   CENTRO                                            CAMPINA GRANDE                                    PB58550000           81 9980595181 99805951efreitasmed@gmail.com                                                                               00000000000000000000000000                                                                                                                  4919009             SSMSMEDICO                                            00000000000000000019920802                                                                       00000000202112091
176618331820    76618331820   JOSE ALVES DIAS                                   FCNSEZINIO  UCHOA                                    CRUZEIRO                                          CAMPINA GRANDE                                    PB58415643SEZINIO  UCHOA                                    CRUZEIRO                                          CAMPINA GRANDE                                    PB58415643SEZINIO  UCHOA                                    CRUZEIRO                                          CAMPINA GRANDE                                    PB5841564383 98722417                      lipcg@hotmail.com                                                                                   00000000000000000000000000                                                                                                                  10632583            SSMSAPOSENTADA                                        00000000000000000019550503                                                                       00000000201707171
130907810420    30907810420   RICARDO ARAUJO DE MELO                            FCNAV. VEREADOR ANTONIO JOSE RODRIGUES               MIRANTE                                           CAMPINA GRANDE                                    PB58407610AV. VEREADOR ANTONIO JOSE RODRIGUES               MIRANTE                                           CAMPINA GRANDE                                    PB58407610AV. VEREADOR ANTONIO JOSE RODRIGUES               MIRANTE                                           CAMPINA GRANDE                                    PB5840761083 98800599                      ricocg@hotmail.com                                                                                  00000000000000000000000000                                                                                                                  713 692 SS          . MCOUTROS                                            00000000000000000019620814                                                                       00000000200008191
116138511468    16138511468   ANTONIO TITO FILHO                                FCNRUA PADRE JOSE ALVES, 28                          CENTRO                                            INGA                                              PB58380000                                                  CENTRO                                                                                                00000000RUA PADRE JOSE ALVES, 28                          CENTRO                                            INGA                                              PB5838000083 33941277           83 99372144navel@natalveiculos.com.br                                                                          00000000000000000000000000                                                                                                                  293663              SSMCOUTROS                                            00000000000000000019570221                                                                       00000000200801101
157003785404    57003785404   FABIANO MONTEIRO ARAUJO                           FANRUA IRINEL JOFILLE                                CENTRO                                            POCINHOS                                          PB58150000                                                  CENTRO                                                                                                00000000RUA IRINEL JOFILLE                                CENTRO                                            POCINHOS                                          PB5815000083 98133579                      fabioefabiano1968@gmail.com                                                                         00000000000000000000000000                                                                                                                  1118265             . MOOUTROS                                            00000000000000000019680329                                                                       00000000202206071
18250793498     08250793498   LEANDRO DE SOUZA ALBUQUERQUE                      FCNRUA JOSE MENDES SOBRINHO                          CENTRO                                            JUAREZ TAVORA                                     PB58387000                                                  CENTRO                                                                                                00000000RUA JOSE MENDES SOBRINHO                          CENTRO                                            CAMPINA GRANDE                                    PB5838700083 9821817883 9821817883 98218178leandrolinken@gmail.com                                                                             00000000000000000000000000                                                                                                                  3360788             PBMSADMINISTRACAO                                     00000000000000000019890810                                                                       00000000202110301
16484099456     06484099456   ESTELA MARIS DE MEDEIROS OLIVEIRA                 FCNRUA NILI PECANHA                                  PRATA                                             CAMPINA GRANDE                                    PB58400515                                                  PRATA                                                                                                 00000000RUA NILI PECANHA                                  PRATA                                             CAMPINA GRANDE                                    PB58400515                      83 98770667estelammo@gmail.com                                                                                 00000000000000000000000000                                                                                                                  2252365             SSFSOUTROS                                            00000000000000000019860319                                                                       00000000202304031
17271833463     07271833463   RENNAN VICTOR DE FREITAS PENAFORTE                FCNRUA ANTONIO BARBOSA DE MENEZES                    MIRANTE                                           CAMPINA GRANDE                                    PB58407673                                                  MIRANTE                                                                                               00000000RUA ANTONIO BARBOSA DE MENEZES                    MIRANTE                                           CAMPINA GRANDE                                    PB58407673                      83 99676596rennan@mioche.com.br                                                                                00000000000000000000000000                                                                                                                  3061750             SSMCEMPREENDIMENTOS                                   00000000000000000018991230                                                                       00000000202305161
11052334474     01052334474   FERNANDO ANTONIO FERNANDES SOBREIRA JUNIOR        FCNRUA OLEGARIO MARIANO                              CATOLE                                            CAMPINA GRANDE                                    PB58410124RUA OLEGARIO MARIANO                              CATOLE                                            CAMPINA GRANDE                                    PB58410124RUA OLEGARIO MARIANO                              CATOLE                                            CAMPINA GRANDE                                    PB5841012483 99139934           83 99999999fernandinho_cad@hotmail.com                                                                         00000000000000000000000000                                                                                                                  3316339             SSMSADMINISTRACAO MUNICIPAL                           00000000000000000019930612                                                                       00000000202208301
151548437468    51548437468   MARIA LUCIA BARBOSA MELO                          FCNRUA MARIA VIEIRA CESAR                            ALTO BRANCO                                       CAMPINA GRANDE                                    PB58402037RUA MARIA VIEIRA CESAR                            ALTO BRANCO                                       CAMPINA GRANDE                                    PB58402037RUA MARIA VIEIRA CESAR                            ALTO BRANCO                                       CAMPINA GRANDE                                    PB5840203783 3321040883 9997801183 99988147luciabarbosa1505@gmail.com                                                                          00000000000000000000000000                                                                                                                  1079250             SSFODO LAR                                            00000000000000000019651018                                                                       00000000202105061
125082809415    25082809415   ANTONIO EMILIANO SOBRINHO                         FCNR. MANOEL PATRICIO DE SOUZA                       TRES IRMAS                                        CAMPINA GRANDE                                    PB58423170MANOEL PATRICIO DE SOUZA                          TRES IRMAS                                        CAMPINA GRANDE                                    PB58423170MANOEL PATRICIO DE SOUZA                          3 IRMAS                                           CAMPINA GRANDE                                    PB5842317083 3336976083 9992542283 99925422goemiliano@hotmail.com                                                                              00000000000000000000000000                                                                                                                  668665              SSMSFUNCIONARIO PUBLICO                               00000000000000000019610124                                                                       00000000201504281
141913400425    41913400425   VALDEMIR PORTO ALVES                              FCNRUA JOSE ARAUJO FREIRE                            PREDIDENTE MEDICI                                 CAMPINA GRANDE                                    PB58417670RUA JOSE ARAUJO FREIRE                            PREDIDENTE MEDICI                                 CAMPINA GRANDE                                    PB58417670RUA JOSE ARAUJO FREIRE                            PREDIDENTE MEDICI                                 CAMPINA GRANDE                                    PB5841767083 98766658           83 99979249VALDEMIRPORTO@HOTMAIL.COM                                                                           00000000000000000000000000                                                                                                                  983863              SSMSELETRICISTA                                       00000000000000000019631127                                                                       00000000201612051
13414879450     03414879450   CLEITON ELIEL BRAZ FEITOSA                        FCNEPAMINONDAS DE AZEVEDO                            CENTRO                                            MONTEIRO                                          PB58500000                                                  CENTRO                                                                                                00000000EPAMINONDAS DE AZEVEDO                            CENTRO                                            MONTEIRO                                          PB58500000                      83 99853153cleitoneliel@gmail.com                                                                              00000000000000000000000000                                                                                                                  2523051             SS COUTROS                                            00000000000000000019791005                                                                       00000000202305231
164376958468    64376958468   GILVAM RODRIGUES DE SOUZA                         FCNRUA JOSE VIEIRA DE SOUZA                          CRUZEIRO                                          CAMPINA GRANDE                                    PB58415455RUA JOSE VIEIRA DE SOUZA                          CRUZEIRO                                          CAMPINA GRANDE                                    PB58415455RUA JOSE VIEIRA DE SOUZA                          CRUZEIRO                                          CAMPINA GRANDE                                    PB58415455                      83 99688942gilvam@msn.com                                                                                      00000000000000000000000000                                                                                                                  1267666             SSMCOUTROS                                            00000000000000000019670922                                                                       00000000200405041
18547444440     08547444440   MAISA SOARES DE OLIVEIRA SOUTO                    FCNRUA CONS. PAULO ARAUJO SOARES                     ALTO BRANCO                                       CAMPINA GRANDE                                    PB58401494RUA CONSELHEIRO PAULO ARAUJO SOARES               ALTO BRANCO                                       CAMPINA GRANDE                                    PB58401494RUA CONSELHEIRO PAULO ARAUJO SOARES               ALTO BRANCO                                       CAMPINA GRANDE                                    PB5840149483 9884050983         83 98840509renansantacruz@gmail.com                                                                            00000000000000000000000000                                                                                                                  3500980             SSFOFARMACEUTICO                                      00000000000000000019920419                                                                       00000000201708071
113264656434    13264656434   SEVERINO ALVES DE SOUSA                           FCNRUA CONEGO SERRAO                                 CENTRO                                            TEIXEIRA                                          PB58135000RUA CONEGO SERRAO                                 CENTRO                                            TEIXEIRA                                          PB58135000RUA CONEGO SERRAO                                 CENTRO                                            TEIXEIRA                                          PB5813500083 9985877683 9985877683 99858776severalvesdesousa@gmail.com                                                                         00000000000000000000000000                                                                                                                  171023              SSMCMEDICO                                            00000000000000000019500323                                                                       00000000200303131
15552376480     05552376480   RODRIGO LUIS DE ARAUJO CAVALCANTE                 FCNRUA MANOEL LEONARDO GOMES                         JARDIM PAULISTANO                                 CAMPINA GRANDE                                    PB58415320RUA MANOEL LEONARDO GOMES                         JARDIM PAULISTANO                                 CAMPINA GRANDE                                    PB58415320RUA MANOEL LEONARDO GOMES                         JARDIM PAULISTANO                                 CAMPINA GRANDE                                    PB5841532083 98880556           83 98893064rodrigo.clementino@hotmail.com                                                                      00000000000000000000000000                                                                                                                  2651839             SSMSOUTROS                                            00000000000000000019830330                                                                       00000000202011101
120382863453    20382863453   GERALDO MONTEIRO REGIS                            FCNRUA JOAO ALVES MONTEIRO                           CENTRO                                            LAGOA SECA                                        PB58117000RUA JOAO ALVES MONTEIRO                           CENTRO                                            LAGOA SECA                                        PB58117000RUA JOAO ALVES MONTEIRO                           CENTRO                                            LAGOA SECA                                        PB5811700083 99380853           83 99380853geraldomonteiror@gmail.com                                                                          00000000000000000000000000                                                                                                                  557101              SSMSADMINISTRACAO                                     00000000000000000019600210                                                                       00000000201901231
12866105400     02866105400   WELLINGTON BERNARDO DE FREITAS                    FCNRUA 15 DE NOVEMBRO                                PALMEIRA                                          CAMPINA GRANDE                                    PB58401475RUA 15 DE NOVEMBRO                                PALMEIRA                                          CAMPINA GRANDE                                    PB58401475RUA 15 DE NOVEMBRO                                PALMEIRA                                          CAMPINA GRANDE                                    PB5840147583 98809841           83 98809841WB.DRUA.MEX@YAHOO.COM.BR                                                                            00000000000000000000000000                                                                                                                  2316962             SSMSAUTONOMO                                          00000000000000000019790121                                                                       00000000201311201
120310641420    20310641420   TERESINHA EVANGELISTA DA COSTA                    FCNR MANOEL LEONARDO GOMES                           JARDIM PAULISTANO                                 CAMPINA GRANDE                                    PB58415320R MANOEL LEONARDO GOMES                           JARDIM PAULISTANO                                 CAMPINA GRANDE                                    PB58415320R MANOEL LEONARDO GOMES                           JARDIM PAULISTANO                                 CAMPINA GRANDE                                    PB5841532083 98810720           83 99811536teca.ec@hotmail.com                                                                                 00000000000000000000000000                                                                                                                  468849              SSFSPSICOLOGO                                         00000000000000000019590112                                                                       00000000201801161
19621472490     09621472490   JOSE PEREIRA DE SOUSA NETO                        FCNSIT GRAVATAR                                      AREA RURAL                                        QUEIMADAS                                         PB58475000SIT GRAVATAR                                      AREA RURAL                                        QUEIMADAS                                         PB58475000SIT GRAVATAR                                      AREA RURAL                                        QUEIMADAS                                         PB5847500083 98603265           83 98716882enariely@hotmail.com                                                                                00000000000000000000000000                                                                                                                  3700765             SSMSADMINISTRACAO                                     00000000000000000019881119                                                                       00000000202011161
111376311000176 11376311000176FUNDO MUNICIPAL DE SAUDE REMIGIO PB               JCNRUA JOSE LAUREANO                                 CENTRO                                            CAMPINA GRANDE                                    PB58398000RUA JOSE LAUREANO                                 CENTRO                                            CAMPINA GRANDE                                    PB58398000RUA JOSE LAUREANO                                 CENTRO                                            CAMPINA GRANDE                                    PB5839800083 99936204           83 99654890danferemigio@gmail.com                                                                              00000000000000000000000000                                                                ATACADO                                                                                                                     00000000000000000000000000                                                                       00000000202305311
14360359446     04360359446   DANIEL SANTOS SILVA                               FCNJOAO BRASILIA DA  SILVA FILHO                     DINAMERICA                                        CAMPINA GRANDE                                    PB58432330JOAO BRASILIA DA  S. FILHO                        DINAMERICA                                        CAMPINA GRANDE                                    PB58432330JOAO BRASILIA DA  S. FILHO                        DINAMERICA                                        CAMPINA GRANDE                                    PB5843233083 98807503           83 98807503santoschc2012@gmail.com                                                                             00000000000000000000000000                                                                                                                  19182               PMMSFUNCIONARIO PUBLICO                               00000000000000000019820920                                                                       00000000201908301
144884311434    44884311434   SIMONE DE FATIMA AGRA DE SOUZA                    FCNRUA R.ANTENOR NAVARRO,741                         PRATA                                             CAMPINA GRANDE                                    PB99999999                                                  PRATA                                                                                                 00000000RUA R.ANTENOR NAVARRO,741                         PRATA                                             CAMPINA GRANDE                                    PB9999999983 33412600                      navel@natalveiculos.com.br                                                                          00000000000000000000000000                                                                                                                  NAO INFORM          . FSOUTROS                                            00000000000000000019000101                                                                       00000000199807141
18726760000192  08726760000192PARAIBA PLANO DE ASSISTENCIA FAMILIAR             JCNAV PEDRO I                                        SAO JOSE                                          CAMPINA GRANDE                                    PB58400414AV PEDRO I                                        SAO JOSE                                          CAMPINA GRANDE                                    PB58400414AV PEDRO I                                        SAO JOSE                                          CAMPINA GRANDE                                    PB58400414           83 9816129283 99152145edmilsonsouza@planosemprepb.com.br                                                                  00000000000000000000000000              PARAIBA PLANO DE DE ASSISTENCIA FAMILIAR          VAREJO                                                                                                                      00000000000000000000000000                                                                       00000000202301161
139661802000188               SHELLEY NUNES PACHU SUASSUNA                      JCNRUA MANOEL DE LIMA                                CENTRO                                            TAVARES                                           PB58753000RUA MANOEL DE LIMA                                CENTRO                                            TAVARES                                           PB58753000RUA MANOEL DE LIMA                                CENTRO                                            TAVARES                                           PB5875300083 99924151           83 99682216sslocadoratavares@gmail.com                                                                         00000000000000000000000000                                                                VAREJO                                                                                                                      00000000000000000000000000                                                                       00000000202105171
191773938487    91773938487   RICARDO ALEXANDRE BATISTA BELARMINO               FCNRUA JOSE DE ANDADRE                               CENTRO                                            ESPERANCA                                         PB58135000                                                  CENTRO                                                                                                00000000RUA JOSE DE ANDRADE                               CENTRO                                            ESPERANCA                                         PB5800000083 3361268283 9961805583 99969345imperialpan@hotmail.com                                                                             00000000000000000000000000                                                                                                                  1525749             SSMCOUTROS                                            00000000000000000019750511                                                                       00000000200007031
12600031405     02600031405   FABRICIO VIANA DE SOUZA                           FCNAV JOAO WALLIG                                    ITARARE                                           CAMPINA GRANDE                                    PB58411160AV JOAO WALLIG                                    ITARARE                                           CAMPINA GRANDE                                    PB58411160AV JOAO WALLIG                                    ITARARE                                           CAMPINA GRANDE                                    PB5841116083 98185131           83 98185131fabricio.cgdpb@gmail.com                                                                            00000000000000000000000000                                                                                                                  2008234             SSMCOUTROS                                            00000000000000000019790814                                                                       00000000202212241
11607899400     01607899400   ARIZALDO RODRIGUES VASCONCELOS                    FCNANA PAULA RAMOS DE MEDEIROS                       MALVINAS                                          CAMPINA GRANDE                                    PB58433413                                                  MALVINAS                                                                                              00000000ANA PAULA RAMOS DE MEDEIROS                       MALVINAS                                          CAMPINA GRANDE                                    PB5843341383 3325020083 3325020083 98647646arizaldo.vasconcelos@gmail.com                                                                      00000000000000000000000000                                                                                                                  3255133             SSMCMECANICO                                          00000000000000000019900525                                                                       00000000201412181
15781876472     05781876472   ARLINDO ALMEIDA DA SILVA                          FCNR. MANOEL ELIAS ARAUJO                            JARDIM TAVARES                                    CAMPINA GRANDE                                    PB58402022R. MANOEL ELIAS ARAUJO                            JARDIM TAVARES                                    CAMPINA GRANDE                                    PB58402022R. MANOEL ELIAS ARAUJO                            JARDIM TAVARES                                    CAMPINA GRANDE                                    PB5840202283 99342510           83 99342510arlindo.as.mp.2017@gmail.com                                                                        00000000000000000000000000                                                                                                                  179 290 SS          PBMSOUTROS                                            00000000000000000019480407                                                                       00000000200002091
175609123000123 75609123000123OURO VERDE TRANSPORTE E LOCACOES LTDA             JCNRUA JOAO CHEDE                                    CIDADE INDUSTRIAL                                 CURITIBA                                          PR81170220RUA JOAO CHEDE                                    CIDADE INDUSTRIAL                                 CURITIBA                                          PR81170220RUA JOAO BETTEGA                                  CIC                                               CURITIBA                                          PR8135000041 3239706741 3239715384 30737289sec.servicos@natalveiculos.com.br                                                                   00000000000000000000500000ISENTO                                                          ATACADO                                                                                                                     00000000000000000000000000                                                                       00000000200209261
17269808465     07269808465   JOSE VALTER BARBOSA GOMES                         FCNRUA JOAO LALIDA SILVA PINTO                       CENTRO                                            SOLANEA                                           PB58225000RUA JOAO LALIDA SILVA PINTO                       CENTRO                                            CAMPINA GRANDE                                    PB58225000RUA JOAO LALIDA SILVA PINTO                       CENTRO                                            CAMPINA GRANDE                                    PB5822500083 99671186           83 99144671valtergomes6711@gmail.com                                                                           00000000000000000000000000                                                                                                                  3065904             SSMSADMINISTRACAO                                     00000000000000000019870206                                                                       00000000201909181
14866681420     04866681420   JOAO CAMILO FILHO                                 FCNR. CLOVIS AGRA BRANDAO DE QUEIROZ                 JARDIM PAULISTANO                                 CAMPINA GRANDE                                    PB58415195R. CLOVIS AGRA BRANDAO DE QUEIROZ                 JARDIM PAULISTANO                                 CAMPINA GRANDE                                    PB58415195R. CLOVIS AGRA BRANDAO DE QUEIROZ                 JARDIM PAULISTANO                                 CAMPINA GRANDE                                    PB5841519583 33349176           83 99915440walpcamilo@gmail.com                                                                                00000000000000000000000000                                                                                                                  NAO INFORM          . MSOUTROS                                            00000000000000000019000101                                                                       00000000199906151
11651176485     01651176485   RICARDO ANTERO DE OLIVEIRA SANTOS                 FCNRUA SEVERINO VIEIRA                               JOSE PINHEIRO                                     CAMPINA GRANDE                                    PB58407268                                                  JOSE PINHEIRO                                                                                         00000000RUA SEVERINO VIEIRA                               JOSE PINHEIRO                                     CAMPINA GRANDE                                    PB5840726883 98136760                      deniseeuriques25@gmail.com                                                                          00000000000000000000000000                                                                                                                  4075816             SSMSACESSORIA                                         00000000000000000019920903                                                                       00000000202001091
120314221468    20314221468   MARIA DAS NEVES VASCONCELOS CATAO                 FCNRUA ANTONIO BARBOSA DE MENEZES                    MIRANTE                                           CAMPINA GRANDE                                    PB58407673RUA ANTONIO BARBOSA DE MENEZES                    MIRANTE                                           CAMPINA GRANDE                                    PB58407673RUA ANTONIO BARBOSA DE MENEZES                    MIRANTE                                           CAMPINA GRANDE                                    PB5840767383 33214370           83 99971446nevesvcatao@gmail.com                                                                               00000000000000000000000000                                                                                                                  256 064             SSFCOUTROS                                            00000000000000000019530805                                                                       00000000200310061
18688550492     08688550492   LARYSSE AUTHAYRA DE FARIAS                        FCNRUA SEBASTIAO IVO DE MORAIS                       CENTRO                                            GURJAO                                            PB58670000RUA SEBASTIAO IVO DE MORAIS                       CENTRO                                            GURJAO                                            PB58670000RUA SEBASTIAO IVO DE MORAIS                       CENTRO                                            GURJAO                                            PB5867000083 9886602383 9886602383 98630293larysseauthayra1310@gmail.com                                                                       00000000000000000000000000                                                                                                                  3510579             SSFSACESSORIA                                         00000000000000000019901013                                                                       00000000202104191
12053209453     02053209453   OTONIEL CAETANO BATISTA                           FCNALMIRANTE BARROSO                                 QUARENTA                                          CAMPINA GRANDE                                    PB58416170ALMIRANTE BARROSO                                 QUARENTA                                          CAMPINA GRANDE                                    PB58416170ALMIRANTE BARROSO                                 QUARENTA                                          CAMPINA GRANDE                                    PB5841617083 99980433           83 99980433otonielcb@gmail.com                                                                                 00000000000000000000000000                                                                                                                  0714736816          PEMVAPOSENTADO                                        00000000000000000019440705                                                                       00000000201211121
13199884652     03199884652   FABIANO PEIXOTO DE OLIVEIRA                       FCNRUA CRICIUMA                                      AMARANTE                                          SAO GONCALO DO AMARANTE                           RN59290000RUA CRICIUMA                                      AMARANTE                                          SAO GONCALO DO AMARANTE                           RN59290000RUA CRICIUMA                                      AMARANTE                                          SAO GONCALO DO AMARANTE                           RN59290000           83         83 99621199fabianopeixoto123456789@gmail.com                                                                   00000000000000000000000000                                                                                                                  1441160             ITMSTAXISTA                                           00000000000000000019760603                                                                       00000000201601251
13858708410     03858708410   ALYSSON GREYSSON SATIRO DA SILVA                  FCNR. FRANCISCO CALIXTO                              MONTE SANTO                                       CAMPINA GRANDE                                    PB58400750R. FRANCISCO CALIXTO                              MONTE SANTO                                       CAMPINA GRANDE                                    PB58400750R. FRANCISCO CALIXTO                              MONTE SANTO                                       CAMPINA GRANDE                                    PB5840075083 33227233           83 99612056alyssongreysson@hotmail.com                                                                         00000000000000000000000000                                                                                                                  2605270             SSMSESTOQUISTA                                        00000000000000000019810806                                                                       00000000201703031
131270603434    31270603434   RICARDO COSTA                                     FCNRUA AMARO DA COSTA BARROS                         STA ROSA                                          CAMPINA GRANDE                                    PB58416685RUA AMARO DA COSTA BARROS                         STA ROSA                                          CAMPINA GRANDE                                    PB58416685RUA AMARO DA COSTA BARROS                         STA ROSA                                          CAMPINA GRANDE                                    PB5841668583 98815553           83 98815553rcostacg@uol.com.br                                                                                 00000000000000000000000000                                                                                                                  NAO 719339          SSMCOUTROS                                            00000000000000000019610224                                                                       00000000199908191
150403842468    50403842468   IRENALDO FREIRE DA SILVA                          FCNRUA ZONA SITIO VARZEA ALEGRE,                     ZONA RURAL                                        PUXINANA                                          PB58115000                                                  ZONA RURAL                                                                                            00000000RUA ZONA SITIO VARZEA ALEGRE,                     ZONA RURAL                                        PUXINANA                                          PB5811500083 99999817           83 33102480navel@natalveiculos.com.br                                                                          00000000000000000000000000                                                                                                                  819412              SSMSOUTROS                                            00000000000000000019620130                                                                       00000000200802191
110729698408    10729698408   ALLAN MARTINS DE SOUZA CESARIO TAVEIRA            FCNRUA JOSE DE ALMEIDA JUNIOR                        CRUZEIRO                                          CAMPINA GRANDE                                    PB58415645RUA JOSE DE ALMEIDA JUNIOR                        CRUZEIRO                                          CAMPINA GRANDE                                    PB58415645RUA JOSE DE ALMEIDA JUNIOR                        CRUZEIRO                                          CAMPINA GRANDE                                    PB5841564583 99617544           83 99617544allan_cesario@hotmail.com                                                                           00000000000000000000000000                                                                                                                  3874036             SSMSABASTECIMENTO DE COMBUSTIVEL                      00000000000000000019940808                                                                       00000000202009041
11415901490     01415901490   DAVI LEITE COSTA                                  FCNSANTA CATARINA                                    JARDIM PAULISTANO                                 CAMPINA GRANDE                                    PB58415260STA CATARINA                                      JARDIM PAULISTANO                                 CAMPINA GRANDE                                    PB58415260STA CATARINA                                      JARDIM PAULISTANO                                 CAMPINA GRANDE                                    PB5841526083 99888131           83 99888131davileitecostaadm@gmail.com                                                                         00000000000000000000000000                                                                                                                  2972774             SSMCOUTROS                                            00000000000000000019860414                                                                       00000000202203141
15790145418     05790145418   ANDREY ARAUJO LIMA                                FCNJOSE OZORIO PONTES                                JK                                                PICUI                                             PB58187000JOSE OZORIO PONTES                                JK                                                PICUI                                             PB58187000JOSE OZORIO PONTES                                JK                                                PICUI                                             PB5818700083 99948477                      andreydez@hotmail.com                                                                               00000000000000000000000000                                                                                                                  2353918             SSMSPROTETICO                                         00000000000000000019860410                                                                       00000000201405261
13922357490     03922357490   KENIA CRIS GOMES FERNANDES                        FCNRUA PROF LUIZA CASTRO LAGO                        LAURITZEN                                         CAMPINA GRANDE                                    PB58401340RUA PROFESSORA  LUIZA DE CASTRO LAGO              LAURITZEN                                         CAMPINA GRANDE                                    PB58401340RUA PROF LUIZA CASTRO LAGO                        CONCEICAO                                         CAMPINA GRANDE                                    PB5840134083 3380100683 9925429883 98889412kcgf2102@gmail.com                                                                                  00000000000000000000000000                                                                                                                  2646135             SSFSSECRETARIA                                        00000000000000000019820221                                                                       00000000201204071
170117050407    70117050407   NATALIA GOUVEIA CARDOSO                           FANPROJETADA                                         CENTRO                                            CALDAS BRANDAO                                    PB58350000PROJETADA                                         CENTRO                                            CALDAS BRANDAO                                    PB58350000PROJETADA                                         CENTRO                                            CALDAS BRANDAO                                    PB5835000083 99343381           83 99343381nataliagouveia95@gmail.com                                                                          00000000000000000000000000                                                                                                                  3997466             SSFCADMINISTRACAO                                     00000000000000000019951116                                                                       00000000202212291
11916664407     01916664407   JARDINICE PEREIRA ALVES                           FCNRUA AGENOR VASCONCELOS, 277                       CATOLE                                            CAMPINA GRANDE                                    PB58104690                                                  CATOLE                                                                                                00000000RUA AGENOR VASCONCELOS, 277                       CATOLE                                            CAMPINA GRANDE                                    PB5810469083 33373531           83 99322709navel@natalveiculos.com.br                                                                          00000000000000000000000000                                                                                                                  1867620             SSFSOUTROS                                            00000000000000000019520229                                                                       00000000200407021
1996801499      00996801499   ANDREIA MAIANA DE ALMEIDA LIMA                    FCNR. ESPIRITO SANTO                                 JARDIM PAULISTANO                                 CAMPINA GRANDE                                    PB58414030R. ESPIRITO SANTO                                 JARDIM PAULISTANO                                 CAMPINA GRANDE                                    PB58414030R. ESPIRITO SANTO                                 JARDIM PAULISTANO                                 CAMPINA GRANDE                                    PB5841403083 99992267           83 98828448andreiamal28@gmail.com                                                                              00000000000000000000000000                                                                                                                  2.453.084           SSFCOUTROS                                            00000000000000000019800415                                                                       00000000200709031
132489943472    32489943472   JOAO BOSCO DE SALES                               FCNR. JOAO SEVERINO DA SILVA                         ACACIO  FIGUEIREDO                                CAMPINA GRANDE                                    PB58421340R. JOAO SEVERINO DA SILVA                         ACACIO  FIGUEIREDO                                CAMPINA GRANDE                                    PB58421340R. JOAO SEVERINO DA SILVA                         ACACIO  FIGUEIREDO                                CAMPINA GRANDE                                    PB5842134083 9910790983 99107909           boscosalesj@gmail.com                                                                               00000000000000000000000000                                                                                                                  461380              SSMCMECANICO                                          00000000000000000019610720                                                                       00000000201412261
17891994757     07891994757   OBERDA FARIAS DE SOUSA                            FCNPROJETADA                                         CENTRO                                            COXIXOLA                                          PB58588000PROJETADA                                         CENTRO                                            COXIXOLA                                          PB58588000PROJETADA                                         CENTRO                                            COXIXOLA                                          PB5858800083 99841805           83 99841805oberdsousa@yahoo.com.br                                                                             00000000000000000000000000                                                                                                                  108896994           SSMSBANCARIO                                          00000000000000000019780923                                                                       00000000201707221
13184016498     03184016498   JOSE ROBERTO DE ARAUJO                            FCNRua José Honório da Silva                         SERROTAO                                          CAMPINA GRANDE                                    PB58434655                                                  SERROTAO                                                                                              00000000vigario calixto,1587                              catole                                            CAMPINA GRANDE                                    PB5840000083 98850790           83 88507905                                                                                                    00000000000000000000000000                                                                                                                  2321281             SSMSREPRESENTANTE COMERCIAL                           00000000000000000019791026                                                                       00000000201605181
178927943449    78927943449   SILVIO CASTILHO OLIVEIRA SILVA                    FCNARAUJO CRUZ                                       CINZA                                             CAMPINA GRANDE                                    PB58120500                                                  CINZA                                                                                                 00000000ARAUJO CRUZ                                       CINZA                                             CAMPINA GRANDE                                    PB58120500           83 9869110583 99117202silviocastilho@77.com.br                                                                            00000000000000000000000000                                                                                                                  0200                ITMCPRODUTOR RURAL                                    00000000000000000019700923                                                                       00000000202103181
17581241475     07581241475   FRANCISCO ALVES BEZERRA                           FCNMARIA DAS DORES GUEDES                            BELA VISTA                                        JUNCO DO SERIDO                                   PB58640000                                                  BELA VISTA                                                                                            00000000MARIA DAS DORES GUEDES                            BELA VISTA                                        JUNCO DO SERIDO                                   PB5864000083 99901670                      achiquinho56@gmail.com                                                                              00000000000000000000000000                                                                                                                  3390606             SSMCAUTONOMO                                          00000000000000000019870429                                                                       00000000202305241
18110995000155  08110995000155ASSOCIAÇÃO DE ASSISTENCIA AO IDOSO DE CUITE       JCNRUA ANTONIO MARQUES LEITE                         SAO VICENTE                                       CUITE                                             PB58175000RUA ANTONIO MARQUES LEITE                         SAO VICENTE                                       CUITE                                             PB58175000RUA ANTONIO MARQUES LEITE                         SAO VICENTE                                       CUITE                                             PB5817500083 99635507           83 99635507halinasantos@hotmail.com                                                                            00000000000000000000000000              ASSOCIAÇÃO  DE ASSISTENCIA AO IDOSO  DE CUITE VO FVAREJO                                                                                                                      00000000000000000000000000                                                                       00000000202001311
1809148455      00809148455   MUCIO DA SILVA COUTINHO                           FCNPEDRO PEREIRA DE ALMEIDA                          PRESIDENTE                                        CAMPINA GRANDE                                    PB58417540                                                  PRESIDENTE                                                                                            00000000PEDRO PEREIRA DE ALMEIDA                          PRESIDENTE                                        CAMPINA GRANDE                                    PB58417540                      83 99194553muciocoutinho@gmail.com                                                                             00000000000000000000000000                                                                                                                  2868683             SSMCOUTROS                                            00000000000000000019781002                                                                       00000000202304281
