1198162   24591518                1  0000000000000001000000000000000016800000000000000064200000000000000030000000000000000000000000000000000006000200000000000000000000000000000000000000000000000000000000000000000000000000000000000000000000000FV~3 ~000000198162             000000000000006420
1198162   98550168                1  0000000000000004000000000000000100830000000000005222240000000000000200000000000000000000000000000000000000000000000000000000000000000000000000000000000000000000000000000000002880016500000000000000132600760FV~3 ~000000198162             000000000000130556
1198162   94757663                1  0000000000000001000000000000000031530000000000000121300000000000000080000000000000000000000000000000000016000200000000000000000000000000000000000000000000000000000000000000001060016500000000000000048600760FV~3 ~000000198162             000000000000012130
1198164   LAM-PINGO               1  0000000000000003000000000000000002410000000000000018420000000000000018000000000000000000000000000000000003600200000000000000000000000000000000000000000000000000000000000000000240016500000000000000010900760FV~3 ~000000198164             000000000000000614
1198171   24585032                19 0000000000000001000000000000000256320000000000000649740000000000000380000000000000000000000000000000000076000200000000000000000000000000000000000000000000000000000000000000000000000000000000000000000000000FV~3 ~000000198171             000000000000064974
119610    13508023                1  0000000000000001000000000000000031490000000000000081850000000000000070000000000000000004410000000000000014000200000000000000000000000000000000000000000000000000000000000000000920016500000000000000042600760FV~4 ~000000019610             000000000000008185
119611    93296979                1  0000000000000004000000000000000025430000000000000097010000000000000060000000000000000000000000000000000012000200000000000000000000000000000000000000000000000000000000000000000000000000000000000000000000000FV~4 ~000000019611             000000000000002425
1198178   98550378                1  0000000000000004000000000000000083690000000000004818280000000000000112000000000000000023600000000000000000000000000000000000000000000000000000000000000000000000000000000000001850016500000000000000085100760FV~3 ~000000198178             000000000000120457
1198181   52016651                1  0000000000000001000000000000000184560000000000000532880000000000000480000000000000000000000000000000000096000200000000000000000000000000000000000000000000000000000000000000006340016500000000000000291800760FV~3 ~000000198181             000000000000053288
119612    93221446                1  0000000000000004000000000000000039440000000000000126090000000000000100000000000000000009640000000000000020000200000000000000000000000000000000000000000000000000000000000000000000000000000000000000000000000FV~4 ~000000019612             000000000000003152
1198193   52150693                19 0000000000000001000000000000000153940000000000000385800000000000000249000000000000000101730000000000000049800200000000000000000000000000000000000000000000000000000000000000000000000000000000000000000000000FV~3 ~000000198193             000000000000038580
1198197   95943130                1  0000000000000002000000000000000059350000000000000125840000000000000091000000000000000000000000000000000018200200000000000000000000000000000000000000000000000000000000000000000000000000000000000000000000000FV~3 ~000000198197             000000000000006292
1198197   24590700                1  0000000000000001000000000000000050030000000000000151510000000000000100000000000000000000000000000000000020000200000000000000000000000000000000000000000000000000000000000000001320016500000000000000060800760FV~3 ~000000198197             000000000000015151
1198197   95227628                1  0000000000000002000000000000000156600000000000000682040000000000000230000000000000000000000000000000000046000200000000000000000000000000000000000000000000000000000000000000000000000000000000000000000000000FV~3 ~000000198197             000000000000034102
1198197   98550378                1  0000000000000012000000000000000251070000000000014454840000000000000324000000000000000000000000000000000000000000000000000000000000000000000000000000000000000000000000000000005350016500000000000000246200760FV~3 ~000000198197             000000000000120457
1198197   98550813                1  0000000000000001000000000000000052520000000000000143710000000000000080000000000000000000000000000000000016000200000000000000000000000000000000000000000000000000000000000000000000000000000000000000000000000FV~3 ~000000198197             000000000000014371
1198197   93363296                1  0000000000000004000000000000000031900000000000000140940000000000000056000000000000000000000000000000000011200200000000000000000000000000000000000000000000000000000000000000000000000000000000000000000000000FV~3 ~000000198197             000000000000003524
1198197   MB10W30                 1  0000000000000003000000000000000058580000000000000186930000000000000075000000000000000000000000000000000000000000000000000000000000000000000000000000000000000000000000000000001240016500000000000000057000760FV~3 ~000000198197             000000000000006231
1198197   WL51003                 1  0000000000000012000000000000000067310000000000000255720000000000000120000000000000000000000000000000000024000200000000000000000000000000000000000000000000000000000000000000000000000000000000000000000000000FV~3 ~000000198197             000000000000002131
1198203   93353848                19 0000000000000001000000000000000082430000000000000235030000000000000160000000000000000053660000000000000032000200000000000000000000000000000000000000000000000000000000000000000000000000000000000000000000000FV~3 ~000000198203             000000000000023503
119614    93296979                1  0000000000000002000000000000000012720000000000000048510000000000000019800000000000000000000000000000000003960200000000000000000000000000000000000000000000000000000000000000000000000000000000000000000000000FV~4 ~000000019614             000000000000002425
119614    93290890                1  0000000000000002000000000000000010120000000000000047220000000000000019000000000000000000000000000000000003800200000000000000000000000000000000000000000000000000000000000000000250016500000000000000011600760FV~4 ~000000019614             000000000000002361
1198217   98550368                19 0000000000000005000000000000004754360000000000006467670000000000004949500000000000000000000000000000000000000000000000000000000000000000000000000000000000000000000000000000000000000000000000000000000000000FV~3 ~000000198217             000000000000129353
1198219   25204558                19 0000000000000001000000000000000128530000000000000260230000000000000258000000000000000000000000000000000051600200000000000000000000000000000000000000000000000000000000000000000000000000000000000000000000000FV~3 ~000000198219             000000000000026023
1198230   52084873                1  0000000000000001000000000000000072440000000000000223330000000000000124000000000000000000000000000000000024800200000000000000000000000000000000000000000000000000000000000000000000000000000000000000000000000FV~3 ~000000198230             000000000000022333
1198232   55498703                1  0000000000000001000000000000000285900000000000000680770000000000000490000000000000000000000000000000000098000200000000000000000000000000000000000000000000000000000000000000006470016500000000000000297900760FV~3 ~000000198232             000000000000068077
1198232   25204525                1  0000000000000001000000000000000220100000000000000469170000000000000340000000000000000000000000000000000068000200000000000000000000000000000000000000000000000000000000000000000000000000000000000000000000000FV~3 ~000000198232             000000000000046917
1198238   93386267                1  0000000000000001000000000000000222340000000000000205650000000000000390000000000000000000000000000000000078000200000000000000000000000000000000000000000000000000000000000000000000000000000000000000000000000FV~3 ~000000198238             000000000000020565
119615    LAM-2POLO               1  0000000000000001000000000000000002340000000000000006660000000000000005000000000000000000000000000000000001000200000000000000000000000000000000000000000000000000000000000000000070016500000000000000003000760FV~4 ~000000019615             000000000000000666
1198253   24587738                1  0000000000000001000000000000000008560000000000000025840000000000000020000000000000000002470000000000000004000200000000000000000000000000000000000000000000000000000000000000000260016500000000000000012200760FV~3 ~000000198253             000000000000002584
1198253   90501719                1  0000000000000001000000000000000029430000000000000093490000000000000058000000000000000000000000000000000011600200000000000000000000000000000000000000000000000000000000000000000770016500000000000000035300760FV~3 ~000000198253             000000000000009349
1198255   52019504                19 0000000000000002000000000000000074560000000000000186870000000000000180000000000000000000000000000000000036000200000000000000000000000000000000000000000000000000000000000000000000000000000000000000000000000FV~3 ~000000198255             000000000000009343
1198268   24579729                19 0000000000000001000000000000000297790000000000000774290000000000000450000000000000000000000000000000000090000200000000000000000000000000000000000000000000000000000000000000000000000000000000000000000000000FV~3 ~000000198268             000000000000077429
119616    12538938                1  0000000000000001000000000000000033610000000000000087650000000000000080000000000000000000000000000000000016000200000000000000000000000000000000000000000000000000000000000000001060016500000000000000048600760FV~4 ~000000019616             000000000000008765
1198275   55495082                19 0000000000000002000000000000000643550000000000001522660000000000001038160000000000000000000000000000000207630200000000000000000000000000000000000000000000000000000000000000013700016500000000000000631200760FV~3 ~000000198275             000000000000076133
1198275   55510150                19 0000000000000002000000000000000276260000000000000687760000000000000375020000000000000000000000000000000075000200000000000000000000000000000000000000000000000000000000000000000000000000000000000000000000000FV~3 ~000000198275             000000000000034388
1198281   93307462                1  0000000000000025000000000000000463650000000000025886500000000000000522500000000000000000000000000000000000000000000000000000000000000000000000000000000000000000000000000000006310016500000000000000290500760FV~3 ~000000198281             000000000000103546
119617    26252693                1  0000000000000001000000000000000025700000000000000056670000000000000070000000000000000000000000000000000014000200000000000000000000000000000000000000000000000000000000000000000000000000000000000000000000000FV~4 ~000000019617             000000000000005667
119618    12706595                1  0000000000000001000000000000000035690000000000000091050000000000000068060000000000000022990000000000000013610200000000000000000000000000000000000000000000000000000000000000000000000000000000000000000000000FV~4 ~000000019618             000000000000009105
119618    12616850                1  0000000000000001000000000000000007450000000000000021320000000000000015940000000000000005380000000000000003190200000000000000000000000000000000000000000000000000000000000000000210016500000000000000009700760FV~4 ~000000019618             000000000000002132
1198303   93365303                19 0000000000000001000000000000000075610000000000000204200000000000000140000000000000000000000000000000000028000200000000000000000000000000000000000000000000000000000000000000000000000000000000000000000000000FV~3 ~000000198303             000000000000020420
1198308   26311890                19 0000000000000002000000000000000775830000000000001378580000000000001033920000000000000000000000000000000124070120000000000000000000000000000000000000000000000000000000000000000000000000000000000000000000000FV~3 ~000000198308             000000000000068929
1198312   12625560                1  0000000000000001000000000000000249870000000000000569700000000000000380000000000000000000000000000000000076000200000000000000000000000000000000000000000000000000000000000000000000000000000000000000000000000FV~3 ~000000198312             000000000000056970
1198321   98165412                1  0000000000000001000000000000000205260000000000000658170000000000000600000000000000000000000000000000000120000200000000000000000000000000000000000000000000000000000000000000007920016500000000000000364800760FV~3 ~000000198321             000000000000065817
1198324   24585032                1  0000000000000001000000000000000256320000000000000649740000000000000380000000000000000210670000000000000076000200000000000000000000000000000000000000000000000000000000000000000000000000000000000000000000000FV~3 ~000000198324             000000000000064974
1198325   52162268                19 0000000000000001000000000000000692800000000000002117490000000000001270000000000000000000000000000000000254000200000000000000000000000000000000000000000000000000000000000000000000000000000000000000000000000FV~3 ~000000198325             000000000000211749
1198330   90502556                1  0000000000000001000000000000000034650000000000000270470000000000000080000000000000000000000000000000000016000200000000000000000000000000000000000000000000000000000000000000001060016500000000000000048600760FV~3 ~000000198330             000000000000027047
1198330   98550553                1  0000000000000001000000000000000024640000000000001403950000000000000030000000000000000000000000000000000000000000000000000000000000000000000000000000000000000000000000000000000370016500000000000000016900760FV~3 ~000000198330             000000000000140395
1198330   98552043                1  0000000000000001000000000000000035000000000000000103770000000000000060000000000000000000000000000000000012000200000000000000000000000000000000000000000000000000000000000000000790016500000000000000036500760FV~3 ~000000198330             000000000000010377
1198330   LAM-1POLO               1  0000000000000001000000000000000000920000000000000006040000000000000010000000000000000000000000000000000002000200000000000000000000000000000000000000000000000000000000000000000130016500000000000000006100760FV~3 ~000000198330             000000000000000604
1198337   94749539                19 0000000000000001000000000000000080000000000000000268520000000000000161110000000000000107410000000000000032220200000000000000000000000000000000000000000000000000000000000000000000000000000000000000000000000FV~3 ~000000198337             000000000000026852
1198349   98550378                1  0000000000000011000000000000000235340000000000013250270000000000000297000000000000000000000000000000000000000000000000000000000000000000000000000000000000000000000000000000003690016500000000000000169900760FV~3 ~000000198349             000000000000120457
1198349   93221446                1  0000000000000004000000000000000048200000000000000126090000000000000060000000000000000000000000000000000012000200000000000000000000000000000000000000000000000000000000000000000000000000000000000000000000000FV~3 ~000000198349             000000000000003152
1198349   311529                  1  0000000000000001000000000000000013760000000000000086380000000000000019000000000000000000000000000000000003800200000000000000000000000000000000000000000000000000000000000000000000000000000000000000000000000FV~3 ~000000198349             000000000000008638
1198349   25FC0225                1  0000000000000002000000000000000013110000000000000062220000000000000024000000000000000000000000000000000004800200000000000000000000000000000000000000000000000000000000000000000000000000000000000000000000000FV~3 ~000000198349             000000000000003111
1198362   26355513                1  0000000000000001000000000000000156640000000000000471790000000000000330000000000000000000000000000000000066000200000000000000000000000000000000000000000000000000000000000000000000000000000000000000000000000FV~3 ~000000198362             000000000000047179
1198394   98550378                1  0000000000000012000000000000000256740000000000014454840000000000000324000000000000000000000000000000000000000000000000000000000000000000000000000000000000000000000000000000004020016500000000000000185300760FV~3 ~000000198394             000000000000120457
1198394   WL7530                  1  0000000000000003000000000000000027980000000000000089910000000000000045000000000000000000000000000000000009000200000000000000000000000000000000000000000000000000000000000000000000000000000000000000000000000FV~3 ~000000198394             000000000000002997
1198394   WA10456                 1  0000000000000002000000000000000027380000000000000113780000000000000060000000000000000000000000000000000012000200000000000000000000000000000000000000000000000000000000000000000790016500000000000000036500760FV~3 ~000000198394             000000000000005689
1198401   95017034                1  0000000000000001000000000000000076090000000000000176250000000000000090000000000000000000000000000000000018000200000000000000000000000000000000000000000000000000000000000000000000000000000000000000000000000FV~3 ~000000198401             000000000000017625
1198401   95227628                1  0000000000000002000000000000000156600000000000000682040000000000000280000000000000000000000000000000000056000200000000000000000000000000000000000000000000000000000000000000000000000000000000000000000000000FV~3 ~000000198401             000000000000034102
1198401   95028562                1  0000000000000002000000000000000051870000000000000195100000000000000120000000000000000000000000000000000024000200000000000000000000000000000000000000000000000000000000000000000000000000000000000000000000000FV~3 ~000000198401             000000000000009755
1198408   98550168                1  0000000000000004000000000000000097430000000000005222240000000000000152000000000000000000000000000000000000000000000000000000000000000000000000000000000000000000000000000000002030016500000000000000093500760FV~3 ~000000198408             000000000000130556
1198423   SPM18570R14             19 0000000000000004000000000000001208000000000000003770400000000000001340000000000000000000000000000000000000000000000000000000000000000000000000000000000000000000000000000000000000000000000000000000000000000FV~3 ~000000198423             000000000000094260
1198433   300175                  1  0000000000000001000000000000000029960000000000000168410000000000000100000000000000000000000000000000000020000200000000000000000000000000000000000000000000000000000000000000000000000000000000000000000000000FV~3 ~000000198433             000000000000016841
1198433   300190                  1  0000000000000001000000000000000068370000000000000266730000000000000190000000000000000000000000000000000038000200000000000000000000000000000000000000000000000000000000000000000000000000000000000000000000000FV~3 ~000000198433             000000000000026673
1198433   94702060                1  0000000000000001000000000000000038710000000000000091320000000000000060000000000000000000000000000000000012000200000000000000000000000000000000000000000000000000000000000000000790016500000000000000036500760FV~3 ~000000198433             000000000000009132
1198446   93205290                1  0000000000000001000000000000000009990000000000000033330000000000000020000000000000000000000000000000000004000200000000000000000000000000000000000000000000000000000000000000000260016500000000000000012200760FV~3 ~000000198446             000000000000003333
1198449   52129328                19 0000000000000001000000000000000241460000000000000691110000000000000420000000000000000000000000000000000084000200000000000000000000000000000000000000000000000000000000000000005540016500000000000000255400760FV~3 ~000000198449             000000000000069111
1198481   42518443                19 0000000000000001000000000000000271830000000000000738890000000000000470200000000000000000000000000000000056420120000000000000000000000000000000000000000000000000000000000000006830016500000000000000314500760FV~3 ~000000198481             000000000000073889
1198487   24590700                1  0000000000000002000000000000000100050000000000000303030000000000000160000000000000000000000000000000000032000200000000000000000000000000000000000000000000000000000000000000002110016500000000000000097300760FV~3 ~000000198487             000000000000015151
1198487   WL51003                 1  0000000000000012000000000000000067310000000000000255720000000000000120000000000000000000000000000000000024000200000000000000000000000000000000000000000000000000000000000000000000000000000000000000000000000FV~3 ~000000198487             000000000000002131
1198508   26225820                1  0000000000000001000000000000000177390000000000000469440000000000000416000000000000000000000000000000000083200200000000000000000000000000000000000000000000000000000000000000000000000000000000000000000000000FV~3 ~000000198508             000000000000046944
1198508   11571159                1  0000000000000012000000000000000026460000000000000105980000000000000084000000000000000000000000000000000016800200000000000000000000000000000000000000000000000000000000000000001110016500000000000000051100760FV~3 ~000000198508             000000000000000883
1198524   52112624                1  0000000000000001000000000000000074630000000000000355210000000000000230000000000000000000000000000000000046000200000000000000000000000000000000000000000000000000000000000000000000000000000000000000000000000FV~3 ~000000198524             000000000000035521
1198527   13530011                1  0000000000000001000000000000000104240000000000000353740000000000000230000000000000000000000000000000000046000200000000000000000000000000000000000000000000000000000000000000003040016500000000000000139800760FV~3 ~000000198527             000000000000035374
1198528   24579972                1  0000000000000001000000000000000022760000000000000086830000000000000078940000000000000000000000000000000015790200000000000000000000000000000000000000000000000000000000000000001040016500000000000000048000760FV~3 ~000000198528             000000000000008683
1198528   93397790                1  0000000000000004000000000000000028830000000000000112750000000000000060000000000000000038040000000000000012000200000000000000000000000000000000000000000000000000000000000000000790016500000000000000036500760FV~3 ~000000198528             000000000000002819
1198529   26288291                19 0000000000000001000000000000000485120000000000001419400000000000000748410000000000000541950000000000000149680200000000000000000000000000000000000000000000000000000000000000000000000000000000000000000000000FV~3 ~000000198529             000000000000141940
1198529   26347695                19 0000000000000001000000000000000485160000000000001315620000000000000717610000000000000478410000000000000143520200000000000000000000000000000000000000000000000000000000000000000000000000000000000000000000000FV~3 ~000000198529             000000000000131562
1198535   52071052                19 0000000000000001000000000000000005360000000000000027840000000000000014530000000000000009680000000000000002910200000000000000000000000000000000000000000000000000000000000000000190016500000000000000008800760FV~3 ~000000198535             000000000000002784
1198535   13502353                19 0000000000000001000000000000000115930000000000000251550000000000000171510000000000000057170000000000000034300200000000000000000000000000000000000000000000000000000000000000000000000000000000000000000000000FV~3 ~000000198535             000000000000025155
1198548   28289916                1  0000000000000001000000000000000155240000000000000393360000000000000340000000000000000017600000000000000068000200000000000000000000000000000000000000000000000000000000000000000000000000000000000000000000000FV~3 ~000000198548             000000000000039336
1198557   24581370                1  0000000000000001000000000000000114090000000000000375730000000000000200000000000000000000000000000000000040000200000000000000000000000000000000000000000000000000000000000000000000000000000000000000000000000FV~3 ~000000198557             000000000000037573
119619    26668507                1  0000000000000001000000000000000000920000000000000000000000000000000010000000000000000000000000000000000002000200000000000000000000000000000000000000000000000000000000000000000130016500000000000000006100760FV~4 ~000000019619             000000000000000000
1198572   13536230                1  0000000000000001000000000000000513730000000000001619740000000000000750000000000000000000000000000000000150000200000000000000000000000000000000000000000000000000000000000000000000000000000000000000000000000FV~3 ~000000198572             000000000000161974
1198572   13540602                1  0000000000000001000000000000000066310000000000000158600000000000000150000000000000000000000000000000000030000200000000000000000000000000000000000000000000000000000000000000001980016500000000000000091200760FV~3 ~000000198572             000000000000015860
1198576   42709519                19 0000000000000001000000000000000045600000000000000139470000000000000095090000000000000031700000000000000019020200000000000000000000000000000000000000000000000000000000000000000000000000000000000000000000000FV~3 ~000000198576             000000000000013947
1198606   24579936                1  0000000000000001000000000000000044000000000000000102950000000000000080000000000000000000000000000000000016000200000000000000000000000000000000000000000000000000000000000000001060016500000000000000048600760FV~3 ~000000198606             000000000000010295
1198610   19314697                19 0000000000000001000000000000000035510000000000000119370000000000000120000000000000000000000000000000000024000200000000000000000000000000000000000000000000000000000000000000000000000000000000000000000000000FV~3 ~000000198610             000000000000011937
1198622   93376337                1  0000000000000001000000000000001165490000000000003690760000000000002100000000000000000000000000000000000420000200000000000000000000000000000000000000000000000000000000000000000000000000000000000000000000000FV~3 ~000000198622             000000000000369076
1198636   24579148                19 0000000000000004000000000000000101300000000000000348000000000000000153960000000000000162400000000000000030790200000000000000000000000000000000000000000000000000000000000000000000000000000000000000000000000FV~3 ~000000198636             000000000000008700
1198648   GB48348                 1  0000000000000002000000000000000393600000000000001476000000000000000720000000000000000000000000000000000144000200000000000000000000000000000000000000000000000000000000000000000000000000000000000000000000000FV~3 ~000000198648             000000000000073800
1198663   93221446                19 0000000000000004000000000000000048200000000000000126090000000000000100000000000000000000000000000000000020000200000000000000000000000000000000000000000000000000000000000000000000000000000000000000000000000FV~3 ~000000198663             000000000000003152
1198663   24588545                19 0000000000000001000000000000000118730000000000000371380000000000000180000000000000000000000000000000000036000200000000000000000000000000000000000000000000000000000000000000000000000000000000000000000000000FV~3 ~000000198663             000000000000037138
1198668   26227790                1  0000000000000001000000000000000071080000000000000176080000000000000210000000000000000000000000000000000042000200000000000000000000000000000000000000000000000000000000000000000000000000000000000000000000000FV~3 ~000000198668             000000000000017608
1198670   52123693                19 0000000000000001000000000000000075340000000000000190410000000000000144830000000000000048270000000000000028970200000000000000000000000000000000000000000000000000000000000000000000000000000000000000000000000FV~3 ~000000198670             000000000000019041
1198678   93326521                1  0000000000000001000000000000000031510000000000000095700000000000000060000000000000000000000000000000000012000200000000000000000000000000000000000000000000000000000000000000000000000000000000000000000000000FV~3 ~000000198678             000000000000009570
1198678   24581537                1  0000000000000001000000000000000088950000000000000239830000000000000130000000000000000000000000000000000026000200000000000000000000000000000000000000000000000000000000000000000000000000000000000000000000000FV~3 ~000000198678             000000000000023983
1198682   BD7114                  1  0000000000000002000000000000000442300000000000001658640000000000000690000000000000000000000000000000000138000200000000000000000000000000000000000000000000000000000000000000000000000000000000000000000000000FV~3 ~000000198682             000000000000082932
119620    26668507                1  0000000000000002000000000000000001840000000000000000000000000000000020000000000000000000000000000000000004000200000000000000000000000000000000000000000000000000000000000000000260016500000000000000012200760FV~4 ~000000019620             000000000000000000
1198717   13502353                1  0000000000000001000000000000000115930000000000000251550000000000000200000000000000000028680000000000000040000200000000000000000000000000000000000000000000000000000000000000000000000000000000000000000000000FV~3 ~000000198717             000000000000025155
1198720   24581894                1  0000000000000001000000000000000013620000000000000055750000000000000030000000000000000000000000000000000006000200000000000000000000000000000000000000000000000000000000000000000400016500000000000000018200760FV~3 ~000000198720             000000000000005575
1198720   24578675                1  0000000000000001000000000000000029970000000000000083330000000000000060000000000000000000000000000000000012000200000000000000000000000000000000000000000000000000000000000000000790016500000000000000036500760FV~3 ~000000198720             000000000000008333
1198720   09129705                1  0000000000000002000000000000000024930000000000000074820000000000000060000000000000000000000000000000000012000200000000000000000000000000000000000000000000000000000000000000000790016500000000000000036500760FV~3 ~000000198720             000000000000003741
1198724   93307462                1  0000000000000003000000000000000055640000000000003106380000000000000075000000000000000000000000000000000000000000000000000000000000000000000000000000000000000000000000000000000960016500000000000000044200760FV~3 ~000000198724             000000000000103546
1198724   WL51003                 1  0000000000000001000000000000000005610000000000000021310000000000000015000000000000000000000000000000000003000200000000000000000000000000000000000000000000000000000000000000000000000000000000000000000000000FV~3 ~000000198724             000000000000002131
119621    11023589                1  0000000000000002000000000000000004820000000000000018700000000000000010000000000000000000000000000000000002000200000000000000000000000000000000000000000000000000000000000000000130016500000000000000006100760FV~4 ~000000019621             000000000000000935
1198741   93373723                19 0000000000000002000000000000000012150000000000000035700000000000000023000000000000000000000000000000000004600200000000000000000000000000000000000000000000000000000000000000000300016500000000000000014000760FV~3 ~000000198741             000000000000001785
1198748   13500144                1  0000000000000001000000000000000078090000000000000218200000000000000150000000000000000000000000000000000030000200000000000000000000000000000000000000000000000000000000000000001980016500000000000000091200760FV~3 ~000000198748             000000000000021820
119622    93264739                1  0000000000000001000000000000000004000000000000000014250000000000000012000000000000000000000000000000000002400200000000000000000000000000000000000000000000000000000000000000000000000000000000000000000000000FV~4 ~000000019622             000000000000001425
1198763   52037371                1  0000000000000001000000000000000095370000000000000246840000000000000200000000000000000000000000000000000040000200000000000000000000000000000000000000000000000000000000000000000000000000000000000000000000000FV~3 ~000000198763             000000000000024684
1198771   93221446                1  0000000000000004000000000000000048200000000000000126090000000000000100000000000000000000000000000000000020000200000000000000000000000000000000000000000000000000000000000000000000000000000000000000000000000FV~3 ~000000198771             000000000000003152
1198771   24588545                1  0000000000000001000000000000000118730000000000000371380000000000000150000000000000000000000000000000000030000200000000000000000000000000000000000000000000000000000000000000000000000000000000000000000000000FV~3 ~000000198771             000000000000037138
1198778   26699756                19 0000000000000001000000000000000035330000000000000075360000000000000103160000000000000034380000000000000020630200000000000000000000000000000000000000000000000000000000000000000000000000000000000000000000000FV~3 ~000000198778             000000000000007536
1198779   24582404                1  0000000000000001000000000000000054640000000000000144420000000000000095000000000000000000000000000000000019000200000000000000000000000000000000000000000000000000000000000000001250016500000000000000057800760FV~3 ~000000198779             000000000000014442
1198782   24586232                1  0000000000000001000000000000000008980000000000000030200000000000000025000000000000000000000000000000000005000200000000000000000000000000000000000000000000000000000000000000000000000000000000000000000000000FV~3 ~000000198782             000000000000003020
1198782   93386267X               1  0000000000000001000000000000000142300000000000000957170000000000000460000000000000000000000000000000000092000200000000000000000000000000000000000000000000000000000000000000000000000000000000000000000000000FV~3 ~000000198782             000000000000095717
1198782   24582667                1  0000000000000001000000000000000081290000000000000201270000000000000120000000000000000000000000000000000024000200000000000000000000000000000000000000000000000000000000000000000000000000000000000000000000000FV~3 ~000000198782             000000000000020127
1198783   52102775                19 0000000000000003000000000000000117680000000000000382870000000000000209700000000000000000000000000000000041940200000000000000000000000000000000000000000000000000000000000000000000000000000000000000000000000FV~3 ~000000198783             000000000000012762
1198783   52102776                19 0000000000000010000000000000000431350000000000001276220000000000000699000000000000000000000000000000000139800200000000000000000000000000000000000000000000000000000000000000000000000000000000000000000000000FV~3 ~000000198783             000000000000012762
119623    26250789                1  0000000000000001000000000000000015310000000000000056430000000000000049000000000000000000070000000000000009800200000000000000000000000000000000000000000000000000000000000000000650016500000000000000029800760FV~4 ~000000019623             000000000000005643
1198797   98551026                1  0000000000000001000000000000000435280000000000000606300000000000000500000000000000000000000000000000000000000000000000000000000000000000000000000000000000000000000000000000000000000000000000000000000000000FV~3 ~000000198797             000000000000060630
1198801   93346293                1  0000000000000001000000000000000052310000000000000187940000000000000117780000000000000053070000000000000023560200000000000000000000000000000000000000000000000000000000000000001550016500000000000000071600760FV~3 ~000000198801             000000000000018794
1198801   24578675                1  0000000000000001000000000000000029970000000000000083330000000000000052220000000000000023530000000000000010440200000000000000000000000000000000000000000000000000000000000000000690016500000000000000031800760FV~3 ~000000198801             000000000000008333
1198807   24586382                1  0000000000000001000000000000000080590000000000000277520000000000000140000000000000000000000000000000000028000200000000000000000000000000000000000000000000000000000000000000001850016500000000000000085100760FV~3 ~000000198807             000000000000027752
1198807   98550378                1  0000000000000012000000000000000256740000000000014454840000000000000324000000000000000000000000000000000000000000000000000000000000000000000000000000000000000000000000000000004020016500000000000000185300760FV~3 ~000000198807             000000000000120457
119624    EVT20W504T              1  0000000000000001000000000000000012110000000000000045880000000000000018000000000000000000000000000000000000000000000000000000000000000000000000000000000000000000000000000000000300016500000000000000013700760FV~4 ~000000019624             000000000000004588
1198842   24588546                1  0000000000000001000000000000000103530000000000000374620000000000000150000000000000000000000000000000000030000200000000000000000000000000000000000000000000000000000000000000000000000000000000000000000000000FV~3 ~000000198842             000000000000037462
1198842   93363296                1  0000000000000004000000000000000031900000000000000140940000000000000100000000000000000000000000000000000020000200000000000000000000000000000000000000000000000000000000000000000000000000000000000000000000000FV~3 ~000000198842             000000000000003524
1198853   24586382                1  0000000000000001000000000000000080590000000000000277520000000000000150000000000000000000000000000000000030000200000000000000000000000000000000000000000000000000000000000000001980016500000000000000091200760FV~3 ~000000198853             000000000000027752
1198856   98550378                19 0000000000000072000000000000001540410000000000086729040000000000001936800000000000000000000000000000000000000000000000000000000000000000000000000000000000000000000000000000024020016500000000000001106400760FV~3 ~000000198856             000000000000120457
1198857   98550378                19 0000000000000048000000000000001026940000000000057819360000000000001291200000000000000000000000000000000000000000000000000000000000000000000000000000000000000000000000000000016010016500000000000000737600760FV~3 ~000000198857             000000000000120457
1198859   52133614                19 0000000000000001000000000000000100180000000000000252620000000000000180000000000000000000000000000000000036000200000000000000000000000000000000000000000000000000000000000000000000000000000000000000000000000FV~3 ~000000198859             000000000000025262
1198860   93386267                1  0000000000000001000000000000000222340000000000000205650000000000000600000000000000000000000000000000000120000200000000000000000000000000000000000000000000000000000000000000000000000000000000000000000000000FV~3 ~000000198860             000000000000020565
119625    311529                  1  0000000000000001000000000000000013760000000000000086380000000000000030000000000000000000000000000000000006000200000000000000000000000000000000000000000000000000000000000000000000000000000000000000000000000FV~4 ~000000019625             000000000000008638
1198861   42422779                1  0000000000000001000000000000000178270000000000000374750000000000000280000000000000000000000000000000000056000200000000000000000000000000000000000000000000000000000000000000000000000000000000000000000000000FV~3 ~000000198861             000000000000037475
1198883   26290728                1  0000000000000001000000000000000175050000000000000439200000000000000330000000000000000069270000000000000066000200000000000000000000000000000000000000000000000000000000000000000000000000000000000000000000000FV~3 ~000000198883             000000000000043920
119626    95492916                1  0000000000000001000000000000000136550000000000000299890000000000000204110000000000000068520000000000000040820200000000000000000000000000000000000000000000000000000000000000002690016500000000000000124100760FV~4 ~000000019626             000000000000029989
1198888   52120737                1  0000000000000001000000000000000073410000000000000182640000000000000116230000000000000049810000000000000023250200000000000000000000000000000000000000000000000000000000000000000000000000000000000000000000000TV~3 ~000000198888             000000000000018264
1198888   52120738                1  0000000000000001000000000000000071750000000000000190690000000000000121350000000000000052000000000000000024270200000000000000000000000000000000000000000000000000000000000000000000000000000000000000000000000TV~3 ~000000198888             000000000000019069
1198888   52155811                1  0000000000000001000000000000000775580000000000002351560000000000001496450000000000000641330000000000000299290200000000000000000000000000000000000000000000000000000000000000000000000000000000000000000000000TV~3 ~000000198888             000000000000235156
1198888   52162521                1  0000000000000001000000000000001567180000000000004229230000000000002691330000000000001153420000000000000538270200000000000000000000000000000000000000000000000000000000000000000000000000000000000000000000000TV~3 ~000000198888             000000000000422923
1198888   52153505                1  0000000000000001000000000000000186940000000000000714230000000000000454510000000000000194790000000000000090900200000000000000000000000000000000000000000000000000000000000000000000000000000000000000000000000TV~3 ~000000198888             000000000000071423
1198888   52157509                1  0000000000000001000000000000000199100000000000000760710000000000000484090000000000000207460000000000000096820200000000000000000000000000000000000000000000000000000000000000000000000000000000000000000000000TV~3 ~000000198888             000000000000076071
1198889   52155811                1  0000000000000001000000000000000775580000000000002351560000000000001389560000000000000748220000000000000277910200000000000000000000000000000000000000000000000000000000000000000000000000000000000000000000000FV~3 ~000000198889             000000000000235156
1198889   52157509                1  0000000000000001000000000000000199100000000000000760710000000000000449510000000000000242040000000000000089900200000000000000000000000000000000000000000000000000000000000000000000000000000000000000000000000FV~3 ~000000198889             000000000000076071
1198889   95048411                1  0000000000000001000000000000000060470000000000000128460000000000000087590000000000000029190000000000000017520200000000000000000000000000000000000000000000000000000000000000000000000000000000000000000000000FV~3 ~000000198889             000000000000012846
119627    88905845                1  0000000000000001000000000000000006870000000000000027980000000000000020000000000000000000000000000000000004000200000000000000000000000000000000000000000000000000000000000000000000000000000000000000000000000FV~4 ~000000019627             000000000000002798
119628    LAM-PINGO               1  0000000000000001000000000000000000800000000000000006140000000000000004000000000000000002420000000000000000800200000000000000000000000000000000000000000000000000000000000000000050016500000000000000002400760FV~4 ~000000019628             000000000000000614
1198897   95265891                19 0000000000000001000000000000000236250000000000000583510000000000000390000000000000000140460000000000000078000200000000000000000000000000000000000000000000000000000000000000000000000000000000000000000000000TV~3 ~000000198897             000000000000058351
1198899   95265891                19 0000000000000001000000000000000236250000000000000583510000000000000370000000000000000160460000000000000074000200000000000000000000000000000000000000000000000000000000000000000000000000000000000000000000000FV~3 ~000000198899             000000000000058351
1198908   98550812                1  0000000000000004000000000000000152060000000000008814600000000000000180000000000000000000000000000000000000000000000000000000000000000000000000000000000000000000000000000000002260016500000000000000104200760FV~3 ~000000198908             000000000000220365
1198908   98550378                1  0000000000000012000000000000000256740000000000014454840000000000000324000000000000000000000000000000000000000000000000000000000000000000000000000000000000000000000000000000004020016500000000000000185300760FV~3 ~000000198908             000000000000120457
1198908   19314697                1  0000000000000001000000000000000035510000000000000119370000000000000060000000000000000000000000000000000012000200000000000000000000000000000000000000000000000000000000000000000000000000000000000000000000000FV~3 ~000000198908             000000000000011937
1198908   WL51003                 1  0000000000000012000000000000000067310000000000000255720000000000000120000000000000000000000000000000000024000200000000000000000000000000000000000000000000000000000000000000000000000000000000000000000000000FV~3 ~000000198908             000000000000002131
1198913   88905677                1  0000000000000001000000000000000045280000000000000133600000000000000100000000000000000000000000000000000020000200000000000000000000000000000000000000000000000000000000000000000000000000000000000000000000000FV~3 ~000000198913             000000000000013360
1198913   N367                    1  0000000000000001000000000000000046970000000000000207040000000000000100000000000000000000000000000000000020000200000000000000000000000000000000000000000000000000000000000000000000000000000000000000000000000FV~3 ~000000198913             000000000000020704
119629    EVT90GL4                1  0000000000000002000000000000000025800000000000000097760000000000000036000000000000000000000000000000000000000000000000000000000000000000000000000000000000000000000000000000000590016500000000000000027400760FV~4 ~000000019629             000000000000004888
1198937   52128453                19 0000000000000001000000000000000291070000000000000655580000000000000470000000000000000000000000000000000094000200000000000000000000000000000000000000000000000000000000000000000000000000000000000000000000000FV~3 ~000000198937             000000000000065558
1198937   52128452                19 0000000000000001000000000000000210920000000000000443400000000000000319000000000000000000000000000000000063800200000000000000000000000000000000000000000000000000000000000000000000000000000000000000000000000FV~3 ~000000198937             000000000000044340
1198943   52159067                1  0000000000000001000000000000000103060000000000000494890000000000000310000000000000000000000000000000000062000200000000000000000000000000000000000000000000000000000000000000000000000000000000000000000000000FV~3 ~000000198943             000000000000049489
1198943   11611334                1  0000000000000004000000000000000021770000000000000080590000000000000040000000000000000000000000000000000008000200000000000000000000000000000000000000000000000000000000000000000530016500000000000000024300760FV~3 ~000000198943             000000000000002015
1198944   52162787                19 0000000000000001000000000000001137240000000000002958310000000000001801880000000000000887490000000000000360380200000000000000000000000000000000000000000000000000000000000000000000000000000000000000000000000FV~3 ~000000198944             000000000000295831
1198951   98550378                1  0000000000000012000000000000000256740000000000014454840000000000000324000000000000000000000000000000000000000000000000000000000000000000000000000000000000000000000000000000004020016500000000000000185300760FV~3 ~000000198951             000000000000120457
1198952   52120737                1  0000000000000001000000000000000073410000000000000182640000000000000115820000000000000050220000000000000023160200000000000000000000000000000000000000000000000000000000000000000000000000000000000000000000000FV~3 ~000000198952             000000000000018264
1198952   52153505                1  0000000000000001000000000000000186940000000000000714230000000000000452920000000000000196380000000000000090580200000000000000000000000000000000000000000000000000000000000000000000000000000000000000000000000FV~3 ~000000198952             000000000000071423
1198952   52128452                1  0000000000000001000000000000000189830000000000000443400000000000000301260000000000000101830000000000000060250200000000000000000000000000000000000000000000000000000000000000000000000000000000000000000000000FV~3 ~000000198952             000000000000044340
1198953   26425083                1  0000000000000001000000000000000074430000000000000199620000000000000180000000000000000001470000000000000036000200000000000000000000000000000000000000000000000000000000000000000000000000000000000000000000000FV~3 ~000000198953             000000000000019962
119630    13508023                1  0000000000000001000000000000000031490000000000000081850000000000000060000000000000000000000000000000000012000200000000000000000000000000000000000000000000000000000000000000000790016500000000000000036500760FV~4 ~000000019630             000000000000008185
1198966   26227736                1  0000000000000001000000000000000025970000000000000067960000000000000067000000000000000000000000000000000013400200000000000000000000000000000000000000000000000000000000000000000000000000000000000000000000000FV~3 ~000000198966             000000000000006796
1198983   LAM-2POLO               1  0000000000000001000000000000000002340000000000000006660000000000000010000000000000000000000000000000000002000200000000000000000000000000000000000000000000000000000000000000000130016500000000000000006100760FV~3 ~000000198983             000000000000000666
1198999   52155811                1  0000000000000001000000000000000775580000000000002351560000000000001380650000000000000757130000000000000276130200000000000000000000000000000000000000000000000000000000000000000000000000000000000000000000000FV~3 ~000000198999             000000000000235156
1198999   52153505                1  0000000000000001000000000000000186940000000000000714230000000000000419350000000000000229950000000000000083870200000000000000000000000000000000000000000000000000000000000000000000000000000000000000000000000FV~3 ~000000198999             000000000000071423
1199001   55497887                1  0000000000000001000000000000000303190000000000000759870000000000000414470000000000000276320000000000000049740120000000000000000000000000000000000000000000000000000000000000000000000000000000000000000000000FV~3 ~000000199001             000000000000075987
1199001   26382625                1  0000000000000001000000000000001005940000000000002529890000000000001379940000000000000919960000000000000165590120000000000000000000000000000000000000000000000000000000000000000000000000000000000000000000000FV~3 ~000000199001             000000000000252989
1199004   24586359                19 0000000000000001000000000000000260830000000000000831800000000000000399000000000000000000000000000000000079800200000000000000000000000000000000000000000000000000000000000000000000000000000000000000000000000FV~3 ~000000199004             000000000000083180
1199004   24591142                19 0000000000000001000000000000000123300000000000000338310000000000000200000000000000000000000000000000000040000200000000000000000000000000000000000000000000000000000000000000000000000000000000000000000000000FV~3 ~000000199004             000000000000033831
1199008   90531677                1  0000000000000001000000000000000049730000000000000165010000000000000090000000000000000000000000000000000018000200000000000000000000000000000000000000000000000000000000000000001190016500000000000000054700760FV~3 ~000000199008             000000000000016501
1199008   93353848                1  0000000000000001000000000000000082430000000000000235030000000000000140000000000000000000000000000000000028000200000000000000000000000000000000000000000000000000000000000000000000000000000000000000000000000FV~3 ~000000199008             000000000000023503
1199008   24586382                1  0000000000000001000000000000000080590000000000000277520000000000000120000000000000000000000000000000000024000200000000000000000000000000000000000000000000000000000000000000001580016500000000000000073000760FV~3 ~000000199008             000000000000027752
1199008   11611063                1  0000000000000001000000000000000009010000000000000022680000000000000020000000000000000000000000000000000004000200000000000000000000000000000000000000000000000000000000000000000260016500000000000000012200760FV~3 ~000000199008             000000000000002268
1199008   09598708                1  0000000000000009000000000000000083640000000000000177210000000000000180000000000000000000000000000000000036000200000000000000000000000000000000000000000000000000000000000000002380016500000000000000109400760FV~3 ~000000199008             000000000000001969
1199014   42566653                19 0000000000000001000000000000000124780000000000000270560000000000000184470000000000000061490000000000000036890200000000000000000000000000000000000000000000000000000000000000000000000000000000000000000000000FV~3 ~000000199014             000000000000027056
1199032   94708481                19 0000000000000001000000000000000020410000000000000049910000000000000038000000000000000000000000000000000007600200000000000000000000000000000000000000000000000000000000000000000500016500000000000000023100760FV~3 ~000000199032             000000000000004991
1199032   94708483                19 0000000000000001000000000000000015500000000000000037730000000000000028000000000000000000000000000000000005600200000000000000000000000000000000000000000000000000000000000000000370016500000000000000017000760FV~3 ~000000199032             000000000000003773
1199032   94708484                19 0000000000000001000000000000000019450000000000000042850000000000000038000000000000000000000000000000000007600200000000000000000000000000000000000000000000000000000000000000000000000000000000000000000000000FV~3 ~000000199032             000000000000004285
1199032   94708477                19 0000000000000001000000000000000019660000000000000043460000000000000034000000000000000000000000000000000006800200000000000000000000000000000000000000000000000000000000000000000000000000000000000000000000000FV~3 ~000000199032             000000000000004346
1199045   98550378                1  0000000000000012000000000000000256740000000000014454840000000000000324000000000000000000000000000000000000000000000000000000000000000000000000000000000000000000000000000000004020016500000000000000185300760FV~3 ~000000199045             000000000000120457
1199045   93361391                1  0000000000000008000000000000000164320000000000000608240000000000000240000000000000000000000000000000000048000200000000000000000000000000000000000000000000000000000000000000000000000000000000000000000000000FV~3 ~000000199045             000000000000007603
1199045   19283184                1  0000000000000001000000000000000075450000000000000245630000000000000095000000000000000000000000000000000019000200000000000000000000000000000000000000000000000000000000000000000000000000000000000000000000000FV~3 ~000000199045             000000000000024563
1199074   98550378                19 0000000000000024000000000000000513470000000000028909680000000000000592560000000000000000000000000000000000000000000000000000000000000000000000000000000000000000000000000000007130016500000000000000328500760FV~3 ~000000199074             000000000000120457
1199074   98550168                19 0000000000000024000000000000000584560000000000031333440000000000000642240000000000000000000000000000000000000000000000000000000000000000000000000000000000000000000000000000007730016500000000000000356000760FV~3 ~000000199074             000000000000130556
1199077   52113277                1  0000000000000001000000000000000082130000000000000172660000000000000140000000000000000022000000000000000028000200000000000000000000000000000000000000000000000000000000000000000000000000000000000000000000000FV~3 ~000000199077             000000000000017266
1199104   26314876                1  0000000000000001000000000000000119330000000000000329540000000000000225000000000000000074580000000000000045000200000000000000000000000000000000000000000000000000000000000000002970016500000000000000136800760FV~3 ~000000199104             000000000000032954
1199105   98550378                19 0000000000000048000000000000001026940000000000057819360000000000001291200000000000000000000000000000000000000000000000000000000000000000000000000000000000000000000000000000016010016500000000000000737600760FV~3 ~000000199105             000000000000120457
1199105   93307462                19 0000000000000048000000000000000890210000000000049702080000000000000983520000000000000000000000000000000000000000000000000000000000000000000000000000000000000000000000000000011780016500000000000000542800760FV~3 ~000000199105             000000000000103546
1199106   98550378                19 0000000000000072000000000000001540410000000000086729040000000000001712880000000000002782800000000000000000000000000000000000000000000000000000000000000000000000000000000000020330016500000000000000936300760FV~3 ~000000199106             000000000000120457
1199106   93307462                19 0000000000000072000000000000001335320000000000074553120000000000001475280000000000002282400000000000000000000000000000000000000000000000000000000000000000000000000000000000017680016500000000000000814200760FV~3 ~000000199106             000000000000103546
1199106   98550168                19 0000000000000144000000000000003507390000000000188000640000000000003785760000000000005664960000000000000000000000000000000000000000000000000000000000000000000000000000000000045260016500000000000002084800760FV~3 ~000000199106             000000000000130556
1199106   98550549                19 0000000000000048000000000000001575640000000000089754240000000000002107200000000000001822560000000000000000000000000000000000000000000000000000000000000000000000000000000000026520016500000000000001221400760FV~3 ~000000199106             000000000000186988
1199116   LAM-1POLO               1  0000000000000002000000000000000001850000000000000012080000000000000020000000000000000000000000000000000004000200000000000000000000000000000000000000000000000000000000000000000260016500000000000000012200760FV~3 ~000000199116             000000000000000604
1199116   LAM-PINGO               1  0000000000000001000000000000000000800000000000000006140000000000000005000000000000000000000000000000000001000200000000000000000000000000000000000000000000000000000000000000000070016500000000000000003000760FV~3 ~000000199116             000000000000000614
1199126   98550659                19 0000000000000001000000000000000108690000000000000621080000000000000001000000000000000000000000000000000000200200000000000000000000000000000000000000000000000000000000000000000000000000000000000000000000000FV~3 ~000000199126             000000000000062108
1199134   55509157                1  0000000000000001000000000000000052400000000000000114370000000000000085000000000000000000000000000000000017000200000000000000000000000000000000000000000000000000000000000000000000000000000000000000000000000FV~3 ~000000199134             000000000000011437
1199146   13508023                1  0000000000000001000000000000000031490000000000000081850000000000000060000000000000000000000000000000000012000200000000000000000000000000000000000000000000000000000000000000000790016500000000000000036500760FV~3 ~000000199146             000000000000008185
1199146   93344704                1  0000000000000001000000000000000020480000000000000059480000000000000040000000000000000000000000000000000008000200000000000000000000000000000000000000000000000000000000000000000530016500000000000000024300760FV~3 ~000000199146             000000000000005948
1199147   13502353                1  0000000000000001000000000000000118000000000000000251550000000000000190000000000000000000000000000000000038000200000000000000000000000000000000000000000000000000000000000000000000000000000000000000000000000FV~3 ~000000199147             000000000000025155
1199151   93275736                19 0000000000000001000000000000000037230000000000000104850000000000000069900000000000000000000000000000000013980200000000000000000000000000000000000000000000000000000000000000000920016500000000000000042500760FV~3 ~000000199151             000000000000010485
1199153   95048411                1  0000000000000001000000000000000060780000000000000128460000000000000089920000000000000026860000000000000017980200000000000000000000000000000000000000000000000000000000000000000000000000000000000000000000000FV~3 ~000000199153             000000000000012846
1199153   13502353                1  0000000000000001000000000000000118000000000000000251550000000000000176080000000000000052600000000000000035220200000000000000000000000000000000000000000000000000000000000000000000000000000000000000000000000FV~3 ~000000199153             000000000000025155
1199157   24588546                19 0000000000000001000000000000000103530000000000000374620000000000000190000000000000000000000000000000000038000200000000000000000000000000000000000000000000000000000000000000000000000000000000000000000000000FV~3 ~000000199157             000000000000037462
1199157   93206675                19 0000000000000004000000000000000052640000000000000149820000000000000100000000000000000000000000000000000020000200000000000000000000000000000000000000000000000000000000000000000000000000000000000000000000000FV~3 ~000000199157             000000000000003746
1199164   52169510                19 0000000000000001000000000000000093640000000000000156470000000000000160000000000000000000000000000000000032000200000000000000000000000000000000000000000000000000000000000000000000000000000000000000000000000FV~3 ~000000199164             000000000000015647
1199169   98550378                19 0000000000000024000000000000000513470000000000028909680000000000000645600000000000000168000000000000000000000000000000000000000000000000000000000000000000000000000000000000008010016500000000000000368800760FV~3 ~000000199169             000000000000120457
1199170   98500224                1  0000000000000001000000000000000330900000000000001100620000000000000560000000000000000000000000000000000112000200000000000000000000000000000000000000000000000000000000000000000000000000000000000000000000000FV~3 ~000000199170             000000000000110062
1199177   52150693                1  0000000000000001000000000000000177180000000000000385800000000000000290000000000000000060730000000000000058000200000000000000000000000000000000000000000000000000000000000000000000000000000000000000000000000FV~3 ~000000199177             000000000000038580
1199182   25204558                19 0000000000000001000000000000000167480000000000000260230000000000000290000000000000000000000000000000000058000200000000000000000000000000000000000000000000000000000000000000000000000000000000000000000000000FV~3 ~000000199182             000000000000026023
1199199   52135242                1  0000000000000001000000000000000005010000000000000014290000000000000020000000000000000005600000000000000004000200000000000000000000000000000000000000000000000000000000000000000260016500000000000000012200760FV~3 ~000000199199             000000000000001429
1199217   24586361                1  0000000000000001000000000000000253760000000000001005590000000000000380000000000000000000000000000000000076000200000000000000000000000000000000000000000000000000000000000000000000000000000000000000000000000FV~3 ~000000199217             000000000000100559
1199217   98550378                1  0000000000000012000000000000000256740000000000014454840000000000000324000000000000000000000000000000000000000000000000000000000000000000000000000000000000000000000000000000004020016500000000000000185300760FV~3 ~000000199217             000000000000120457
1199217   WL51003                 1  0000000000000012000000000000000067310000000000000255720000000000000132000000000000000000000000000000000026400200000000000000000000000000000000000000000000000000000000000000000000000000000000000000000000000FV~3 ~000000199217             000000000000002131
1199218   19314697                1  0000000000000001000000000000000035510000000000000119370000000000000060000000000000000000000000000000000012000200000000000000000000000000000000000000000000000000000000000000000000000000000000000000000000000FV~3 ~000000199218             000000000000011937
1199220   26425083                1  0000000000000001000000000000000079540000000000000199620000000000000180000000000000000000000000000000000036000200000000000000000000000000000000000000000000000000000000000000000000000000000000000000000000000FV~3 ~000000199220             000000000000019962
1199224   94215211                1  0000000000000005000000000000000016310000000000000047880000000000000039900000000000000000000000000000000007980200000000000000000000000000000000000000000000000000000000000000000530016500000000000000024300760FV~3 ~000000199224             000000000000000958
1199224   94771599                1  0000000000000001000000000000000007660000000000000021250000000000000018480000000000000000000000000000000003700200000000000000000000000000000000000000000000000000000000000000000000000000000000000000000000000FV~3 ~000000199224             000000000000002125
1199228   98550168                1  0000000000000024000000000000000584560000000000031333440000000000000717600000000000000000000000000000000000000000000000000000000000000000000000000000000000000000000000000000008970016500000000000000413300760FV~3 ~000000199228             000000000000130556
1199235   12706595                19 0000000000000005000000000000000178450000000000000455250000000000000289500000000000000000000000000000000057900200000000000000000000000000000000000000000000000000000000000000000000000000000000000000000000000FV~3 ~000000199235             000000000000009105
1199235   98550168                19 0000000000000024000000000000000584560000000000031333440000000000000741600000000000000000000000000000000000000000000000000000000000000000000000000000000000000000000000000000009370016500000000000000431600760FV~3 ~000000199235             000000000000130556
1199237   09599302                19 0000000000000002000000000000000079250000000000000142900000000000000112000000000000000000000000000000000022400200000000000000000000000000000000000000000000000000000000000000001480016500000000000000068100760FV~3 ~000000199237             000000000000007145
1199237   09598708                19 0000000000000002000000000000000018590000000000000039380000000000000036000000000000000000000000000000000007200200000000000000000000000000000000000000000000000000000000000000000480016500000000000000021900760FV~3 ~000000199237             000000000000001969
1199238   26425083                1  0000000000000001000000000000000079540000000000000199620000000000000180000000000000000001470000000000000036000200000000000000000000000000000000000000000000000000000000000000000000000000000000000000000000000FV~3 ~000000199238             000000000000019962
1199247   93353848                19 0000000000000001000000000000000082430000000000000235030000000000000150000000000000000000000000000000000030000200000000000000000000000000000000000000000000000000000000000000000000000000000000000000000000000FV~3 ~000000199247             000000000000023503
1199247   90531677                19 0000000000000001000000000000000049730000000000000165010000000000000100000000000000000000000000000000000020000200000000000000000000000000000000000000000000000000000000000000001320016500000000000000060800760FV~3 ~000000199247             000000000000016501
1199247   94733018                19 0000000000000002000000000000000026030000000000000067300000000000000040000000000000000000000000000000000008000200000000000000000000000000000000000000000000000000000000000000000000000000000000000000000000000FV~3 ~000000199247             000000000000003365
1199248   52106426                1  0000000000000001000000000000000054630000000000000142550000000000000100000000000000000029590000000000000020000200000000000000000000000000000000000000000000000000000000000000000000000000000000000000000000000FV~3 ~000000199248             000000000000014255
1199256   19373484                1  0000000000000001000000000000000176440000000000000451440000000000000270000000000000000000000000000000000054000200000000000000000000000000000000000000000000000000000000000000000000000000000000000000000000000FV~3 ~000000199256             000000000000045144
1199256   13530011                1  0000000000000001000000000000000126800000000000000353740000000000000242000000000000000000000000000000000048400200000000000000000000000000000000000000000000000000000000000000003190016500000000000000147100760FV~3 ~000000199256             000000000000035374
1199256   98550549                1  0000000000000004000000000000000131300000000000007479520000000000000200000000000000000000000000000000000000000000000000000000000000000000000000000000000000000000000000000000002610016500000000000000120300760FV~3 ~000000199256             000000000000186988
1199256   90531677                1  0000000000000001000000000000000049730000000000000165010000000000000100000000000000000050010000000000000020000200000000000000000000000000000000000000000000000000000000000000001320016500000000000000060800760FV~3 ~000000199256             000000000000016501
1199256   103001                  1  0000000000000002000000000000000023200000000000000097100000000000000050000000000000000000000000000000000010000200000000000000000000000000000000000000000000000000000000000000000000000000000000000000000000000FV~3 ~000000199256             000000000000004855
1199256   AGUA01                  1  0000000000000004000000000000000004880000000000000041600000000000000007200000000000000004800000000000000001440200000000000000000000000000000000000000000000000000000000000000000100016500000000000000004400760FV~3 ~000000199256             000000000000001040
1199257   WL51003                 1  0000000000000001000000000000000005610000000000000021310000000000000025000000000000000000000000000000000005000200000000000000000000000000000000000000000000000000000000000000000000000000000000000000000000000FV~3 ~000000199257             000000000000002131
1199258   93316245                1  0000000000000001000000000000000018440000000000000072590000000000000040000000000000000000000000000000000008000200000000000000000000000000000000000000000000000000000000000000000000000000000000000000000000000FV~3 ~000000199258             000000000000007259
1199260   98550378                19 0000000000000072000000000000001540410000000000086729040000000000001936800000000000000000000000000000000000000000000000000000000000000000000000000000000000000000000000000000024020016500000000000001106400760FV~3 ~000000199260             000000000000120457
1199260   98550168                19 0000000000000048000000000000001169130000000000062666880000000000001483200000000000000000000000000000000000000000000000000000000000000000000000000000000000000000000000000000018740016500000000000000863100760FV~3 ~000000199260             000000000000130556
1199262   11570499                1  0000000000000006000000000000000016800000000000000052420000000000000031620000000000000010380000000000000006320200000000000000000000000000000000000000000000000000000000000000000420016500000000000000019200760FV~3 ~000000199262             000000000000000874
1199262   11569960                1  0000000000000006000000000000000015380000000000000045220000000000000028380000000000000009300000000000000005680200000000000000000000000000000000000000000000000000000000000000000370016500000000000000017300760FV~3 ~000000199262             000000000000000754
1199275   52169435                1  0000000000000001000000000000000167160000000000000476300000000000000300000000000000000000000000000000000060000200000000000000000000000000000000000000000000000000000000000000000000000000000000000000000000000FV~3 ~000000199275             000000000000047630
1199276   90531677                1  0000000000000004000000000000000198930000000000000660040000000000000319600000000000000000000000000000000063920200000000000000000000000000000000000000000000000000000000000000004220016500000000000000194300760FV~3 ~000000199276             000000000000016501
1199276   98550168                1  0000000000000048000000000000001169130000000000062666880000000000001260000000000000000000000000000000000000000000000000000000000000000000000000000000000000000000000000000000015060016500000000000000693500760FV~3 ~000000199276             000000000000130556
1199276   93307462                1  0000000000000048000000000000000890210000000000049702080000000000000988320000000000000000000000000000000000000000000000000000000000000000000000000000000000000000000000000000011860016500000000000000546500760FV~3 ~000000199276             000000000000103546
1199276   AGUA01                  1  0000000000000120000000000000000146390000000000001248000000000000000270000000000000000000000000000000000054000200000000000000000000000000000000000000000000000000000000000000003560016500000000000000164200760FV~3 ~000000199276             000000000000001040
1199282   24591690                19 0000000000000001000000000000000377990000000000000940430000000000000512960000000000000341980000000000000102590200000000000000000000000000000000000000000000000000000000000000000000000000000000000000000000000FV~3 ~000000199282             000000000000094043
1199282   26330142                19 0000000000000001000000000000000191270000000000000399620000000000000299720000000000000099900000000000000059940200000000000000000000000000000000000000000000000000000000000000000000000000000000000000000000000FV~3 ~000000199282             000000000000039962
1199282   55510150                19 0000000000000001000000000000000139050000000000000343880000000000000187570000000000000125050000000000000037510200000000000000000000000000000000000000000000000000000000000000000000000000000000000000000000000FV~3 ~000000199282             000000000000034388
1199293   52056625                19 0000000000000001000000000000000054860000000000000135510000000000000080070000000000000043120000000000000016010200000000000000000000000000000000000000000000000000000000000000000000000000000000000000000000000FV~3 ~000000199293             000000000000013551
1199295   24583134                1  0000000000000001000000000000000028820000000000000076770000000000000040000000000000000000000000000000000008000200000000000000000000000000000000000000000000000000000000000000000000000000000000000000000000000FV~3 ~000000199295             000000000000007677
1199295   24586382                1  0000000000000001000000000000000080590000000000000277520000000000000140000000000000000000000000000000000028000200000000000000000000000000000000000000000000000000000000000000001850016500000000000000085100760FV~3 ~000000199295             000000000000027752
1199295   98550549                1  0000000000000004000000000000000131300000000000007479520000000000000160000000000000000000000000000000000000000000000000000000000000000000000000000000000000000000000000000000001950016500000000000000089900760FV~3 ~000000199295             000000000000186988
1199302   93344704                1  0000000000000001000000000000000020480000000000000059480000000000000060000000000000000000000000000000000012000200000000000000000000000000000000000000000000000000000000000000000790016500000000000000036500760FV~3 ~000000199302             000000000000005948
1199315   FAP3233                 1  0000000000000002000000000000000024060000000000000145460000000000000070000000000000000000000000000000000014000200000000000000000000000000000000000000000000000000000000000000000920016500000000000000042600760FV~3 ~000000199315             000000000000007273
1199315   WL51003                 1  0000000000000012000000000000000067310000000000000255720000000000000132000000000000000000000000000000000026400200000000000000000000000000000000000000000000000000000000000000000000000000000000000000000000000FV~3 ~000000199315             000000000000002131
1199315   WA10038                 1  0000000000000004000000000000000015210000000000000062600000000000000040000000000000000000000000000000000008000200000000000000000000000000000000000000000000000000000000000000000530016500000000000000024300760FV~3 ~000000199315             000000000000001565
1199315   WA48450                 1  0000000000000002000000000000000007390000000000000029460000000000000020000000000000000000000000000000000004000200000000000000000000000000000000000000000000000000000000000000000260016500000000000000012200760FV~3 ~000000199315             000000000000001473
1199317   93326521                1  0000000000000001000000000000000030040000000000000095700000000000000080000000000000000000000000000000000016000200000000000000000000000000000000000000000000000000000000000000000000000000000000000000000000000FV~3 ~000000199317             000000000000009570
1199334   93307462                1  0000000000000006000000000000000111280000000000006212760000000000000132000000000000000000000000000000000000000000000000000000000000000000000000000000000000000000000000000000001620016500000000000000074700760FV~3 ~000000199334             000000000000103546
1199338   26376135                19 0000000000000001000000000000000096820000000000000203520000000000000490000000000000000000000000000000000098000200000000000000000000000000000000000000000000000000000000000000000000000000000000000000000000000FV~3 ~000000199338             000000000000020352
1199343   93307462                19 0000000000000048000000000000000890210000000000049702080000000000000983520000000000000000000000000000000000000000000000000000000000000000000000000000000000000000000000000000011780016500000000000000542800760FV~3 ~000000199343             000000000000103546
1199343   98550553                19 0000000000000024000000000000000591290000000000033694800000000000000658800000000000000000000000000000000000000000000000000000000000000000000000000000000000000000000000000000007790016500000000000000358600760FV~3 ~000000199343             000000000000140395
1199343   98550168                19 0000000000000048000000000000001169130000000000062666880000000000001261440000000000000000000000000000000000000000000000000000000000000000000000000000000000000000000000000000015080016500000000000000694600760FV~3 ~000000199343             000000000000130556
1199343   98550549                19 0000000000000024000000000000000787820000000000044877120000000000001088400000000000000000000000000000000000000000000000000000000000000000000000000000000000000000000000000000013830016500000000000000637100760FV~3 ~000000199343             000000000000186988
1199344   93307462                19 0000000000000048000000000000000890210000000000049702080000000000000983520000000000000000000000000000000000000000000000000000000000000000000000000000000000000000000000000000011780016500000000000000542800760FV~3 ~000000199344             000000000000103546
1199344   98550553                19 0000000000000024000000000000000591290000000000033694800000000000000658800000000000000000000000000000000000000000000000000000000000000000000000000000000000000000000000000000007790016500000000000000358600760FV~3 ~000000199344             000000000000140395
1199344   98550549                19 0000000000000048000000000000001575640000000000089754240000000000002176800000000000000000000000000000000000000000000000000000000000000000000000000000000000000000000000000000027660016500000000000001274200760FV~3 ~000000199344             000000000000186988
1199349   28289916                19 0000000000000001000000000000000155240000000000000393360000000000000290000000000000000000000000000000000058000200000000000000000000000000000000000000000000000000000000000000000000000000000000000000000000000FV~3 ~000000199349             000000000000039336
1199351   24579976                1  0000000000000003000000000000000144710000000000000694020000000000000540000000000000000000000000000000000108000200000000000000000000000000000000000000000000000000000000000000000000000000000000000000000000000FV~3 ~000000199351             000000000000023134
1199359   52018709                1  0000000000000001000000000000000008570000000000000019110000000000000016000000000000000000000000000000000003200200000000000000000000000000000000000000000000000000000000000000000000000000000000000000000000000FV~3 ~000000199359             000000000000001911
1199362   26280565                1  0000000000000001000000000000000018780000000000000061450000000000000055000000000000000000000000000000000011000200000000000000000000000000000000000000000000000000000000000000000000000000000000000000000000000FV~3 ~000000199362             000000000000006145
1199382   52140285                1  0000000000000001000000000000000721040000000000001799370000000000000990000000000000000000000000000000000198000200000000000000000000000000000000000000000000000000000000000000000000000000000000000000000000000FV~3 ~000000199382             000000000000179937
1199392   93307462                19 0000000000000048000000000000000890210000000000049702080000000000000983520000000000000000000000000000000000000000000000000000000000000000000000000000000000000000000000000000011780016500000000000000542800760FV~3 ~000000199392             000000000000103546
1199392   88904447                19 0000000000000010000000000000000198650000000000000580200000000000000339000000000000000000000000000000000067800200000000000000000000000000000000000000000000000000000000000000004470016500000000000000206100760FV~3 ~000000199392             000000000000005802
1199393   93305641                1  0000000000000001000000000000000075960000000000000228990000000000000119900000000000000000000000000000000023980200000000000000000000000000000000000000000000000000000000000000000000000000000000000000000000000FV~3 ~000000199393             000000000000022899
1199399   52169510                1  0000000000000001000000000000000100440000000000000156470000000000000180000000000000000060000000000000000036000200000000000000000000000000000000000000000000000000000000000000000000000000000000000000000000000FV~3 ~000000199399             000000000000015647
1199401   98550378                1  0000000000000012000000000000000256740000000000014454840000000000000300000000000000000000000000000000000000000000000000000000000000000000000000000000000000000000000000000000003630016500000000000000167100760FV~3 ~000000199401             000000000000120457
1199403   98550168                1  0000000000000004000000000000000097430000000000005222240000000000000200000000000000000000000000000000000000000000000000000000000000000000000000000000000000000000000000000000002820016500000000000000130000760FV~3 ~000000199403             000000000000130556
1199403   24591518                1  0000000000000001000000000000000016800000000000000064200000000000000030000000000000000000000000000000000006000200000000000000000000000000000000000000000000000000000000000000000000000000000000000000000000000FV~3 ~000000199403             000000000000006420
119631    13488275                1  0000000000000002000000000000000004790000000000000012050000000000000020000000000000000000000000000000000004000200000000000000000000000000000000000000000000000000000000000000000000000000000000000000000000000FV~4 ~000000019631             000000000000000602
1199411   98550168                1  0000000000000096000000000000002338260000000000125333760000000000002523840000000000000000000000000000000000000000000000000000000000000000000000000000000000000000000000000000030180016500000000000001389900760FV~3 ~000000199411             000000000000130556
1199411   98550549                1  0000000000000024000000000000000787820000000000044877120000000000001031760000000000000000000000000000000000000000000000000000000000000000000000000000000000000000000000000000012900016500000000000000594100760FV~3 ~000000199411             000000000000186988
1199413   24582406                19 0000000000000001000000000000000191680000000000000463190000000000000290000000000000000000000000000000000058000200000000000000000000000000000000000000000000000000000000000000000000000000000000000000000000000TV~3 ~000000199413             000000000000046319
1199418   52158969                1  0000000000000001000000000000001007140000000000002567570000000000001493860000000000000840290000000000000179260120000000000000000000000000000000000000000000000000000000000000000000000000000000000000000000000FV~3 ~000000199418             000000000000256757
1199423   98550378                19 0000000000000003000000000000000064180000000000003613710000000000000081000000000000000000000000000000000000000000000000000000000000000000000000000000000000000000000000000000001010016500000000000000046300760FV~3 ~000000199423             000000000000120457
1199423   WL51003                 19 0000000000000001000000000000000005610000000000000021310000000000000012000000000000000000000000000000000002400200000000000000000000000000000000000000000000000000000000000000000000000000000000000000000000000FV~3 ~000000199423             000000000000002131
1199427   52112626                1  0000000000000001000000000000000053440000000000000152410000000000000100000000000000000000000000000000000020000200000000000000000000000000000000000000000000000000000000000000000000000000000000000000000000000FV~3 ~000000199427             000000000000015241
1199427   WP24590                 1  0000000000000008000000000000000038300000000000000168080000000000000096000000000000000000000000000000000019200200000000000000000000000000000000000000000000000000000000000000001270016500000000000000058400760FV~3 ~000000199427             000000000000002101
119632    19347728                1  0000000000000001000000000000000010380000000000000035850000000000000015000000000000000000000000000000000003000200000000000000000000000000000000000000000000000000000000000000000000000000000000000000000000000FV~4 ~000000019632             000000000000003585
1199431   94749539                19 0000000000000001000000000000000080000000000000000268520000000000000170000000000000000000000000000000000034000200000000000000000000000000000000000000000000000000000000000000000000000000000000000000000000000FV~3 ~000000199431             000000000000026852
1199432   26425083                1  0000000000000001000000000000000079540000000000000199620000000000000150000000000000000031470000000000000030000200000000000000000000000000000000000000000000000000000000000000000000000000000000000000000000000FV~3 ~000000199432             000000000000019962
1199436   26425083                19 0000000000000001000000000000000079540000000000000199620000000000000150000000000000000031470000000000000030000200000000000000000000000000000000000000000000000000000000000000000000000000000000000000000000000TV~3 ~000000199436             000000000000019962
1199438   94751888                19 0000000000000001000000000000000027180000000000000070650000000000000080000000000000000029780000000000000016000200000000000000000000000000000000000000000000000000000000000000000000000000000000000000000000000FV~3 ~000000199438             000000000000007065
1199457   24582406                19 0000000000000001000000000000000191680000000000000463190000000000000290000000000000000000000000000000000058000200000000000000000000000000000000000000000000000000000000000000000000000000000000000000000000000FV~3 ~000000199457             000000000000046319
1199468   52039163                19 0000000000000001000000000000000013090000000000000042320000000000000022080000000000000014720000000000000004420200000000000000000000000000000000000000000000000000000000000000000290016500000000000000013400760FV~3 ~000000199468             000000000000004232
1199470   52095311                1  0000000000000001000000000000000212410000000000000488170000000000000319000000000000000000000000000000000063800200000000000000000000000000000000000000000000000000000000000000000000000000000000000000000000000FV~3 ~000000199470             000000000000048817
1199470   94708477                1  0000000000000002000000000000000039320000000000000086920000000000000060000000000000000000000000000000000012000200000000000000000000000000000000000000000000000000000000000000000000000000000000000000000000000FV~3 ~000000199470             000000000000004346
1199483   93326521                19 0000000000000002000000000000000060080000000000000191400000000000000090000000000000000000000000000000000018000200000000000000000000000000000000000000000000000000000000000000000000000000000000000000000000000FV~3 ~000000199483             000000000000009570
1199484   90446618                19 0000000000000001000000000000000000940000000000000008890000000000000010000000000000000000000000000000000002000200000000000000000000000000000000000000000000000000000000000000000000000000000000000000000000000FV~3 ~000000199484             000000000000000889
119633    09598708                1  0000000000000001000000000000000009290000000000000019690000000000000020000000000000000000000000000000000004000200000000000000000000000000000000000000000000000000000000000000000260016500000000000000012200760FV~4 ~000000019633             000000000000001969
1199491   93305641                1  0000000000000001000000000000000075960000000000000228990000000000000119900000000000000000000000000000000023980200000000000000000000000000000000000000000000000000000000000000000000000000000000000000000000000FV~3 ~000000199491             000000000000022899
1199491   88904447                1  0000000000000001000000000000000019870000000000000058020000000000000039900000000000000021600000000000000007980200000000000000000000000000000000000000000000000000000000000000000530016500000000000000024300760FV~3 ~000000199491             000000000000005802
1199491   30273                   1  0000000000000001000000000000000031330000000000000104410000000000000057930000000000000000000000000000000011590200000000000000000000000000000000000000000000000000000000000000000000000000000000000000000000000FV~3 ~000000199491             000000000000010441
1199491   94702060                1  0000000000000001000000000000000038710000000000000091320000000000000062270000000000000020750000000000000012450200000000000000000000000000000000000000000000000000000000000000000820016500000000000000037900760FV~3 ~000000199491             000000000000009132
1199501   N324                    1  0000000000000001000000000000000017630000000000000051920000000000000026000000000000000000000000000000000005200200000000000000000000000000000000000000000000000000000000000000000000000000000000000000000000000FV~3 ~000000199501             000000000000005192
1199501   98550378                1  0000000000000012000000000000000256740000000000014454840000000000000300000000000000000000000000000000000000000000000000000000000000000000000000000000000000000000000000000000003630016500000000000000167100760FV~3 ~000000199501             000000000000120457
1199501   26425083                1  0000000000000001000000000000000079540000000000000199620000000000000100000000000000000000000000000000000020000200000000000000000000000000000000000000000000000000000000000000000000000000000000000000000000000FV~3 ~000000199501             000000000000019962
112695    98550368                7  000000000000000500-00000000000436282-00000000000494950-000000000004949500000000000000000000000000000000000000000000000000000000000000000000000000000000000000000000000000000000000000000000000000000000000000FD~000000968793                000000000000129353
1198525   95017034                7  000000000000000100-00000000000007609-00000000000009000-00000000000009000000000000000000000-000000000000018000200000000000000000000000000000000000000000000000000000000000000000000000000000000000000000000000FD~000000969788                000000000000017625
1199259   WL51003                 7  000000000000000100-00000000000000561-00000000000002500-00000000000002500000000000000000000-000000000000005000200000000000000000000000000000000000000000000000000000000000000000000000000000000000000000000000FD~000000972088                000000000000002131
