1457638    20220803EQ        INSTA214                 98552025            98552025 1.11           2      1642000000000001000000000000001100000000000000001100000000000000000550000000000000000550000000000000000517100000000000000000000000000000000110000000000000000000000000000000000000000000000000000000000000000000000550000000400457638                 4~1~483400                         
1457638    20230503EQ        INSTA214                 ACS190                       1.11           2      1149000000000001000000000000000699000000000000000699000000000000000349500000000000000349500000000000000125800000000000000000000000000000000069900000000000000000000000000000000004610000000000000021250000000000000349500000400457638                 4~1~483400                         
1457638    20230503EQ        INSTA214                 26316989            26316989 1.11           2      1149000000000001000000000000000433880000000000000433880000000000000216940000000000000216940000000000000111440000000000000000000000000000000043390000000000000000000000000000000000000000000000000000000000000000000216940000400457638                 4~1~483400                         
1457638    20230503EQ        INSTA214                 98551306            98551306 1.11           2      1149000000000001000000000000001207740000000000001207740000000000000603870000000000000603870000000000000240010000000000000000000000000000000120770000000000000000000000000000000007970000000000000036720000000000000603870000400457638                 4~1~483400                         
1468156    20220613AP        Técni34                  98550168X                    E2020          2      0954000000000001000000000000000210000000000000000210000000000000000002150000000000000207850000000000000094470000000000000000000000000000000000000000000000000000000000000000000003430000000000000015800000000000000207850000400468156                 4~1~484827                         
1468156    20220613AP        Técni34                  12616850            12616850 E2020          2      0954000000000001000000000000000035230000000000000035230000000000000000360000000000000034870000000000000007460000000000000000000000000000000006970000000000000000000000000000000000460000000000000002120000000000000034870000400468156                 4~1~484827                         
1468156    20220613AP        Técni34                  12706595            12706595 E2020          2      0954000000000001000000000000000125620000000000000125620000000000000001290000000000000124330000000000000037630000000000000000000000000000000024870000000000000000000000000000000000000000000000000000000000000000000124330000400468156                 4~1~484827                         
1468156    20220613AP        Técni34                  93316245            93316245 E2020          2      0954000000000001000000000000000102000000000000000102000000000000000001050000000000000100950000000000000018590000000000000000000000000000000020190000000000000000000000000000000000000000000000000000000000000000000100950000400468156                 4~1~484827                         
1474930    20221214EQ        INSTA126                 ESP01                        1.2            9      1629000000000001000000000000000127230000000000000127230000000000000000000000000000000127230000000000000127230000000000000000000000000000000025450000000000000000000000000000000001680000000000000007740000000000000127230000400474930                 4~1~483250                         
1474930    20221111EQ        INSTA126                 LA0472                       1.2            9      1337000000000001000000000000000023500000000000000023500000000000000000000000000000000023500000000000000023500000000000000000000000000000000004700000000000000000000000000000000000310000000000000001430000000000000023500000400474930                 4~1~483250                         
1474930    20221111EQ        INSTA126                 98553665            98553665 1.2            9      1337000000000001000000000000000028280000000000000028280000000000000000000000000000000028280000000000000028280000000000000000000000000000000005660000000000000000000000000000000000370000000000000001720000000000000028280000400474930                 4~1~483250                         
1474930    20230429EQ        INSTA126                 98553665            98553665 1.2            9      0939000000000001000000000000000028280000000000000028280000000000000000000000000000000028280000000000000028280000000000000000000000000000000005660000000000000000000000000000000000370000000000000001720000000000000028280000400474930                 4~1~483250                         
1475245    20221207EQ        INSTA214                 22829859            22829859 1.2            9      0935000000000001000000000000000021290000000000000021290000000000000000000000000000000021290000000000000021290000000000000000000000000000000004260000000000000000000000000000000000280000000000000001290000000000000021290000400475245                 4~1~483252                         
1475245    20221207EQ        INSTA214                 JBR177                       1.2            9      1151000000000001000000000000000044100000000000000044100000000000000000000000000000000044100000000000000044100000000000000000000000000000000008820000000000000000000000000000000000580000000000000002680000000000000044100000400475245                 4~1~483252                         
1475245    20221130EQ        INSTA252                 JBR177                       1.2            9      1255000000000001000000000000000044100000000000000044100000000000000000000000000000000044100000000000000044100000000000000000000000000000000008820000000000000000000000000000000000580000000000000002680000000000000044100000400475245                 4~1~483252                         
1475245    20221117EQ        INSTA252                 98551284            98551284 1.2            9      0945000000000001000000000000000264810000000000000264810000000000000000000000000000000264810000000000000264810000000000000000000000000000000052960000000000000000000000000000000000000000000000000000000000000000000264810000400475245                 4~1~483252                         
1475245    20221117EQ        INSTA252                 ACS12257                     1.2            9      0945000000000001000000000000000070010000000000000070010000000000000000000000000000000070010000000000000070010000000000000000000000000000000014000000000000000000000000000000000000920000000000000004260000000000000070010000400475245                 4~1~483252                         
1475245    20221117EQ        INSTA252                 12084                        1.2            9      1008000000000001000000000000000012910000000000000012910000000000000000000000000000000012910000000000000012910000000000000000000000000000000002580000000000000000000000000000000000170000000000000000790000000000000012910000400475245                 4~1~483252                         
1475245    20221117EQ        INSTA252                 DIV062                       1.2            9      1016000000000010000000000000000002120000000000000021190000000000000000000000000000000021190000000000000021190000000000000000000000000000000004240000000000000000000000000000000000000000000000000000000000000000000021190000400475245                 4~1~483252                         
1475245    20221130EQ        INSTA214                 JBR177                       1.2            9      1608000000000001000000000000000044100000000000000044100000000000000000000000000000000044100000000000000044100000000000000000000000000000000008820000000000000000000000000000000000580000000000000002680000000000000044100000400475245                 4~1~483252                         
1475245    20221212EQ        INSTA214                 DIV062                       1.2            9      0915000000000005000000000000000002120000000000000010590000000000000000000000000000000010590000000000000010590000000000000000000000000000000002120000000000000000000000000000000000000000000000000000000000000000000010590000400475245                 4~1~483252                         
1475287    20221207EQ        INSTA214                 98553665            98553665 1.2            9      1110000000000001000000000000000028280000000000000028280000000000000000000000000000000028280000000000000028280000000000000000000000000000000005660000000000000000000000000000000000370000000000000001720000000000000028280000400475287                 4~1~483319                         
1475287    20221118EQ        INSTA214                 52042049            52042049 1.2            9      1526000000000001000000000000000102430000000000000102430000000000000000000000000000000102430000000000000102430000000000000000000000000000000020490000000000000000000000000000000000000000000000000000000000000000000102430000400475287                 4~1~483319                         
1475287    20221123EQ        INSTA214                 11611334            11611334 1.2            9      0850000000000004000000000000000008530000000000000034110000000000000000000000000000000034110000000000000034110000000000000000000000000000000006820000000000000000000000000000000000450000000000000002070000000000000034110000400475287                 4~1~483319                         
1475287    20221117EQ        INSTA252                 12084                        1.2            9      1611000000000001000000000000000012910000000000000012910000000000000000000000000000000012910000000000000012910000000000000000000000000000000002580000000000000000000000000000000000170000000000000000790000000000000012910000400475287                 4~1~483319                         
1475287    20221117EQ        INSTA252                 98551284            98551284 1.2            9      1611000000000001000000000000000264810000000000000264810000000000000000000000000000000264810000000000000264810000000000000000000000000000000052960000000000000000000000000000000000000000000000000000000000000000000264810000400475287                 4~1~483319                         
1475287    20230506EQ        INSTA214                 ACS5143                      1.2            9      1014000000000002000000000000000111450000000000000222890000000000000000000000000000000222890000000000000222890000000000000000000000000000000044580000000000000000000000000000000002940000000000000013550000000000000222890000400475287                 4~1~483319                         
1475297    20221118EQ        INSTA252                 98551284            98551284 1.2            9      0859000000000001000000000000000264810000000000000264810000000000000000000000000000000264810000000000000264810000000000000000000000000000000052960000000000000000000000000000000000000000000000000000000000000000000264810000400475297                 4~1~483333                         
1475297    20221118EQ        INSTA252                 12084                        1.2            9      0859000000000001000000000000000012910000000000000012910000000000000000000000000000000012910000000000000012910000000000000000000000000000000002580000000000000000000000000000000000170000000000000000790000000000000012910000400475297                 4~1~483333                         
1475297    20221122EQ        INSTA252                 ACS3524                      1.2            9      1611000000000001000000000000000127240000000000000127240000000000000000000000000000000127240000000000000127240000000000000000000000000000000025450000000000000000000000000000000000000000000000000000000000000000000127240000400475297                 4~1~483333                         
1475297    20230506EQ        INSTA252                 ACS1450                      1.2            9      1039000000000002000000000000000056280000000000000112570000000000000000000000000000000112570000000000000112570000000000000000000000000000000022510000000000000000000000000000000001490000000000000006840000000000000112570000400475297                 4~1~483333                         
1475297    20230506EQ        INSTA252                 FRONIXAZULSEEKER             1.2            9      1055000000000001000000000000000141670000000000000141670000000000000000000000000000000141670000000000000141670000000000000000000000000000000028330000000000000000000000000000000001870000000000000008610000000000000141670000400475297                 4~1~483333                         
1475578    20221228EQ        INSTA252                 DIV008                       1.2            9      0923000000000005000000000000000004310000000000000021540000000000000000000000000000000021540000000000000021540000000000000000000000000000000004310000000000000000000000000000000000000000000000000000000000000000000021540000400475578                 4~1~483335                         
1475578    20221215EQ        INSTA252                 98551349            98551349 1.2            9      0931000000000001000000000000000082620000000000000082620000000000000000000000000000000082620000000000000082620000000000000000000000000000000016520000000000000000000000000000000000000000000000000000000000000000000082620000400475578                 4~1~483335                         
1475578    20230120EQ        INSTA252                 ACS1450                      1.2            9      1618000000000001000000000000000056280000000000000056280000000000000000000000000000000056280000000000000056280000000000000000000000000000000011260000000000000000000000000000000000740000000000000003420000000000000056280000400475578                 4~1~483335                         
1475578    20221124EQ        INSTA252                 ESP01                        1.2            9      1432000000000001000000000000000127230000000000000127230000000000000000000000000000000127230000000000000127230000000000000000000000000000000025450000000000000000000000000000000001680000000000000007740000000000000127230000400475578                 4~1~483335                         
1475607    20221216EQ        INSTA252                 ESP01                        1.2            9      0952000000000001000000000000000127230000000000000127230000000000000000000000000000000127230000000000000127230000000000000000000000000000000025450000000000000000000000000000000001680000000000000007740000000000000127230000400475607                 4~1~483337                         
1475607    20230120EQ        INSTA126                 ACS450                       1.11           2      1628000000000001000000000000000150230000000000000150230000000000000000000000000000000150230000000000000150230000000000000000000000000000000030050000000000000000000000000000000001980000000000000009130000000000000150230000400475607                 4~1~483337                         
1476399    20221228AP        Técni354                 DIV062                       1.2            9      1021000000000005000000000000000002120000000000000010590000000000000000000000000000000010590000000000000010590000000000000000000000000000000002120000000000000000000000000000000000000000000000000000000000000000000010590000400476399                 4~1~483340                         
1476399    20221216AP        Técni354                 98553665            98553665 1.2            9      0858000000000001000000000000000028280000000000000028280000000000000000000000000000000028280000000000000028280000000000000000000000000000000005660000000000000000000000000000000000370000000000000001720000000000000028280000400476399                 4~1~483340                         
1476399    20221216AP        Técni354                 JBR177                       1.2            9      0925000000000001000000000000000044100000000000000044100000000000000000000000000000000044100000000000000044100000000000000000000000000000000008820000000000000000000000000000000000580000000000000002680000000000000044100000400476399                 4~1~483340                         
1476399    20221213AP        Técni354                 ACS190                       1.2            9      1741000000000001000000000000000125800000000000000125800000000000000000000000000000000125800000000000000125800000000000000000000000000000000025160000000000000000000000000000000001660000000000000007650000000000000125800000400476399                 4~1~483340                         
1476473    20230130EQ        INSTA252                 26307582            26307582 1.2            9      1140000000000001000000000000000108670000000000000108670000000000000002700000000000000105980000000000000108670000000000000000000000000000000021200000000000000000000000000000000000000000000000000000000000000000000105980000400476473                 4~1~483342                         
1476473    20221215EQ        INSTA252                 ACS3524                      1.2            9      1018000000000001000000000000000127240000000000000127240000000000000003160000000000000124080000000000000127240000000000000000000000000000000024820000000000000000000000000000000000000000000000000000000000000000000124080000400476473                 4~1~483342                         
1476473    20230506EQ        INSTA252                 94754425            94754425 1.2            9      1127000000000001000000000000000112740000000000000112740000000000000002800000000000000109950000000000000112740000000000000000000000000000000021990000000000000000000000000000000001450000000000000006680000000000000109950000400476473                 4~1~483342                         
1476573    20221216EQ        INSTA252                 1417                         1.2            9      1517000000000015000000000000000001000000000000000015000000000000000000000000000000000015000000000000000015000000000000000000000000000000000003000000000000000000000000000000000000000000000000000000000000000000000015000000400476573                 4~1~483348                         
1476573    20221216EQ        INSTA252                 ACS190                       1.2            9      1258000000000001000000000000000125800000000000000125800000000000000000000000000000000125800000000000000125800000000000000000000000000000000025160000000000000000000000000000000001660000000000000007650000000000000125800000400476573                 4~1~483348                         
1476573    20230506EQ        INSTA252                 FRTRACKERCINZASATIN          1.2            9      1149000000000001000000000000000156710000000000000156710000000000000000000000000000000156710000000000000156710000000000000000000000000000000031340000000000000000000000000000000002070000000000000009530000000000000156710000400476573                 4~1~483348                         
1476895    20221221EQ        INSTA252                 DIV00734                     1.2            9      1712000000000001000000000000000024580000000000000024580000000000000000510000000000000024070000000000000024580000000000000000000000000000000004810000000000000000000000000000000000320000000000000001460000000000000024070000400476895                 4~1~483349                         
1476895    20230504EQ        INSTA126                 7908411763503                1.2            9      1729000000000002000000000000000004100000000000000008210000000000000000170000000000000008040000000000000008210000000000000000000000000000000001610000000000000000000000000000000000110000000000000000490000000000000008040000400476895                 4~1~483349                         
1476895    20230504EQ        INSTA126                 7908411763480                1.2            9      1729000000000002000000000000000003270000000000000006530000000000000000140000000000000006400000000000000006530000000000000000000000000000000001280000000000000000000000000000000000080000000000000000390000000000000006400000400476895                 4~1~483349                         
1476895    20230506EQ        INSTA126                 NT303                        1.2            9      1155000000000001000000000000000012770000000000000012770000000000000000260000000000000012510000000000000012770000000000000000000000000000000002500000000000000000000000000000000000170000000000000000760000000000000012510000400476895                 4~1~483349                         
1476895    20230506EQ        INSTA126                 98553524            98553524 1.2            9      1156000000000001000000000000000039810000000000000039810000000000000000820000000000000038990000000000000039810000000000000000000000000000000007800000000000000000000000000000000000000000000000000000000000000000000038990000400476895                 4~1~483349                         
1477937    20230110EQ        INSTA126                 4398                         1.11           2      1657000000000001000000000000000078860000000000000078860000000000000000000000000000000078860000000000000078860000000000000000000000000000000015770000000000000000000000000000000000000000000000000000000000000000000078860000400477937                 4~1~484016                         
1477937    20230513EQ        INSTA126                 TVGT5503                     1.11           2      1118000000000001000000000000000259100000000000000259100000000000000000000000000000000259100000000000000259100000000000000000000000000000000051820000000000000000000000000000000000000000000000000000000000000000000259100000400477937                 4~1~484016                         
1478354    20230119EQ        INSTA126                 ACSBOX01                     1.2            9      0923000000000001000000000000001318660000000000001318660000000000000000000000000000001318660000000000001318660000000000000000000000000000000263730000000000000000000000000000000017410000000000000080170000000000001318660000400478354                 4~1~485002                         
1478354    20230203EQ        INSTA126                 ACS190                       1.2            9      0942000000000001000000000000000127530000000000000127530000000000000000000000000000000127530000000000000127530000000000000000000000000000000025510000000000000000000000000000000001680000000000000007750000000000000127530000400478354                 4~1~485002                         
1478354    20230518EQ        INSTA126                 2367                         1.2            9      1708000000000001000000000000000079970000000000000079970000000000000000000000000000000079970000000000000079970000000000000000000000000000000015990000000000000000000000000000000001060000000000000004860000000000000079970000400478354                 4~1~485002                         
1478356    20230123EQ        INSTA126                 52163609            52163609 1.2            9      0902000000000001000000000000000175120000000000000175120000000000000000000000000000000175120000000000000175120000000000000000000000000000000035020000000000000000000000000000000000000000000000000000000000000000000175120000400478356                 4~1~485003                         
1478356    20230119EQ        INSTA126                 ACSBOX01                     1.2            9      0943000000000001000000000000001318660000000000001318660000000000000000000000000000001318660000000000001318660000000000000000000000000000000263730000000000000000000000000000000017410000000000000080170000000000001318660000400478356                 4~1~485003                         
1480306    20230306AP        Técni357                 12616850            12616850 M0051          5      1505000000000001000000000000000023690000000000000023690000000000000005920000000000000017770000000000000007460000000000000000000000000000000003550000000000000000000000000000000000230000000000000001080000000000000017770000400480306                 4~1~483682                         
1480306    20230306AP        Técni357                 12706595            12706595 M0051          5      1505000000000001000000000000000125620000000000000125620000000000000031410000000000000094210000000000000037630000000000000000000000000000000018840000000000000000000000000000000000000000000000000000000000000000000094210000400480306                 4~1~483682                         
1480306    20230306AP        Técni357                 93316245            93316245 M0051          5      1505000000000001000000000000000078800000000000000078800000000000000019700000000000000059100000000000000018590000000000000000000000000000000011820000000000000000000000000000000000000000000000000000000000000000000059100000400480306                 4~1~483682                         
1480306    20230306AP        Técni357                 98551028                     M0051          5      1505000000000001000000000000000041320000000000000041320000000000000010330000000000000030990000000000000015350000000000000000000000000000000006200000000000000000000000000000000000410000000000000001880000000000000030990000400480306                 4~1~483682                         
1480306    20230306AP        Técni357                 98550811            98550811 M0051          5      1505000000000004000000000000000092000000000000000368000000000000000092000000000000000276000000000000000142010000000000000000000000000000000000000000000000000000000000000000000004550000000000000020980000000000000276000000400480306                 4~1~483682                         
1480602    20230313AP        Técni359                 25FL4722                     TR015          12     0906000000000001000000000000000010690000000000000010690000000000000000000000000000000010690000000000000010690000000000000000000000000000000002140000000000000000000000000000000000140000000000000000650000000000000010690000400480602                 4~1~484602                         
1480602    20230313AP        Técni359                 620323600                    TR015          12     0906000000000001000000000000000173830000000000000173830000000000000000000000000000000173830000000000000173830000000000000000000000000000000034770000000000000000000000000000000000000000000000000000000000000000000173830000400480602                 4~1~484602                         
1480602    20230313AP        Técni359                 90528145            90528145 TR015          12     0906000000000001000000000000000006140000000000000006140000000000000000000000000000000006140000000000000006140000000000000000000000000000000001230000000000000000000000000000000000000000000000000000000000000000000006140000400480602                 4~1~484602                         
1480602    20230313AP        Técni359                 98550549            98550549 TR015          12     0906000000000005000000000000000032620000000000000163100000000000000000000000000000000163100000000000000163100000000000000000000000000000000000000000000000000000000000000000000001940000000000000008910000000000000163100000400480602                 4~1~484602                         
1480839    20230317AP        Técni356                 94615825            94615825 AAA71          2      1453000000000001000000000000000004950000000000000004950000000000000000000000000000000004950000000000000004950000000000000000000000000000000000990000000000000000000000000000000000070000000000000000300000000000000004950000400480839                 4~1~484603                         
1480978    20230321AP        Técni377                 LAM-H7                       M0081E         5      0834000000000001000000000000000016150000000000000016150000000000000000000000000000000016150000000000000016150000000000000000000000000000000003230000000000000000000000000000000000210000000000000000980000000000000016150000400480978                 4~1~484604                         
1480978    20230321AP        Técni377                 LAM-PINGO                    M0081E         5      0843000000000001000000000000000001140000000000000001140000000000000000000000000000000001140000000000000001140000000000000000000000000000000000230000000000000000000000000000000000020000000000000000070000000000000001140000400480978                 4~1~484604                         
1480978    20230321AP        Técni377                 LAM-PINGO                    M0081E         5      0847000000000002000000000000000001140000000000000002290000000000000000000000000000000002290000000000000002290000000000000000000000000000000000460000000000000000000000000000000000030000000000000000140000000000000002290000400480978                 4~1~484604                         
1481216    20230327AP        Técni177                 25204556            25204556 8430360        2      1644000000000001000000000000000361080000000000000361080000000000000000000000000000000361080000000000000274130000000000000000000000000000000072220000000000000000000000000000000000000000000000000000000000000000000361080000400481216                 4~1~483047                         
1481216    20230418AP        Técni177                 25204558            25204558 8430310        2      0938000000000001000000000000000179860000000000000179860000000000000000000000000000000179860000000000000160670000000000000000000000000000000035970000000000000000000000000000000000000000000000000000000000000000000179860000400481216                 4~1~483047                         
1481342    20230427AP        Técni177                 26400758            26400758 4412470        2      1112000000000001000000000000000511660000000000000511660000000000000000000000000000000511660000000000000326820000000000000000000000000000000102330000000000000000000000000000000006750000000000000031110000000000000511660000400481342                 4~1~482930                         
1481342    20230427AP        Técni177                 26250789            26250789 4412470        2      1112000000000001000000000000000032860000000000000032860000000000000000000000000000000032860000000000000018900000000000000000000000000000000006570000000000000000000000000000000000430000000000000002000000000000000032860000400481342                 4~1~482930                         
1481356    20230329AP        Técni177                 24000102            24000102 MEC            2      0947000000000001000000000000008649250000000000008649250000000000003459700000000000005189550000000000003262730000000000000000000000000000001037910000000000000000000000000000000000000000000000000000000000000000005189550000400481356                 4~1~484408                         
1481356    20230329AP        Técni177                 MTE4078                      MEC            2      1610000000000001000000000000000172110000000000000172110000000000000068840000000000000103270000000000000041710000000000000000000000000000000020650000000000000000000000000000000001360000000000000006280000000000000103270000400481356                 4~1~484408                         
1481487    20230331AP        Técni359                 12616850            12616850 M0051          5      0927000000000001000000000000000007460000000000000007460000000000000000000000000000000007460000000000000007460000000000000000000000000000000001490000000000000000000000000000000000100000000000000000450000000000000007460000400481487                 4~1~483347                         
1481487    20230331AP        Técni359                 12636838            12636838 M0051          5      0927000000000001000000000000000048590000000000000048590000000000000000000000000000000048590000000000000048590000000000000000000000000000000009720000000000000000000000000000000000640000000000000002950000000000000048590000400481487                 4~1~483347                         
1481487    20230331AP        Técni359                 52101541            52101541 M0051          5      0927000000000001000000000000000026750000000000000026750000000000000000000000000000000026750000000000000026750000000000000000000000000000000005350000000000000000000000000000000000350000000000000001630000000000000026750000400481487                 4~1~483347                         
1481487    20230331AP        Técni359                 52160963            52160963 M0051          5      0927000000000001000000000000000084800000000000000084800000000000000000000000000000000084800000000000000084800000000000000000000000000000000016960000000000000000000000000000000001120000000000000005160000000000000084800000400481487                 4~1~483347                         
1481487    20230331AP        Técni359                 93205290            93205290 M0051          5      0927000000000001000000000000000010190000000000000010190000000000000000000000000000000010190000000000000010190000000000000000000000000000000002040000000000000000000000000000000000130000000000000000620000000000000010190000400481487                 4~1~483347                         
1481487    20230331AP        Técni359                 98552923            98552923 M0051          5      0927000000000001000000000000000040720000000000000040720000000000000000000000000000000040720000000000000040720000000000000000000000000000000000000000000000000000000000000000000000480000000000000002220000000000000040720000400481487                 4~1~483347                         
1481552    20230401ST        MECAN271                 12616850            12616850 03             2      0907000000000001000000000000000023690000000000000023690000000000000001980000000000000021710000000000000007460000000000000000000000000000000004340000000000000000000000000000000000290000000000000001320000000000000021710000400481552                 4~1~483141                         
1481552    20230401ST        MECAN271                 12706595            12706595 03             2      0907000000000001000000000000000125620000000000000125620000000000000010520000000000000115100000000000000037630000000000000000000000000000000023020000000000000000000000000000000000000000000000000000000000000000000115100000400481552                 4~1~483141                         
1481552    20230401ST        MECAN271                 98550168X                    03             2      0907000000000001000000000000000260000000000000000260000000000000000021770000000000000238230000000000000094470000000000000000000000000000000000000000000000000000000000000000000003930000000000000018110000000000000238230000400481552                 4~1~483141                         
1481552    20230401ST        MECAN271                 AGUA01                       03             2      0907000000000001000000000000000010000000000000000010000000000000000000840000000000000009160000000000000001720000000000000000000000000000000001830000000000000000000000000000000000120000000000000000560000000000000009160000400481552                 4~1~483141                         
1481558    20230401AP        Técni287                 12616850            12616850 M0081          5      0945000000000001000000000000000023690000000000000023690000000000000007110000000000000016580000000000000007460000000000000000000000000000000003320000000000000000000000000000000000220000000000000001010000000000000016580000400481558                 4~1~484063                         
1481558    20230401AP        Técni287                 12636838            12636838 M0081          5      0945000000000001000000000000000193020000000000000193020000000000000057910000000000000135110000000000000048590000000000000000000000000000000027020000000000000000000000000000000001780000000000000008210000000000000135110000400481558                 4~1~484063                         
1481558    20230401AP        Técni287                 84437184            84437184 M0081          5      0945000000000001000000000000000499470000000000000499470000000000000149840000000000000349630000000000000131800000000000000000000000000000000069930000000000000000000000000000000000000000000000000000000000000000000349630000400481558                 4~1~484063                         
1481558    20230401AP        Técni287                 98552923            98552923 M0081          5      0945000000000006000000000000000095000000000000000570000000000000000171000000000000000399000000000000000244350000000000000000000000000000000000000000000000000000000000000000000005450000000000000025100000000000000399000000400481558                 4~1~484063                         
1481558    20230401AP        Técni287                 84437183            84437183 M0081          5      1002000000000001000000000000000537660000000000000537660000000000000161300000000000000376360000000000000119690000000000000000000000000000000075270000000000000000000000000000000000000000000000000000000000000000000376360000400481558                 4~1~484063                         
1481678    20230404ST        MECAN271                 12616850            12616850 03             2      1416000000000001000000000000000023690000000000000023690000000000000009480000000000000014210000000000000007460000000000000000000000000000000002840000000000000000000000000000000000190000000000000000860000000000000014210000400481678                 4~1~484003                         
1481678    20230404ST        MECAN271                 12706595            12706595 03             2      1416000000000001000000000000000125620000000000000125620000000000000050250000000000000075370000000000000037630000000000000000000000000000000015070000000000000000000000000000000000000000000000000000000000000000000075370000400481678                 4~1~484003                         
1481678    20230404ST        MECAN271                 98550549X                    03             2      1416000000000001000000000000000299000000000000000299000000000000000119600000000000000179400000000000000098900000000000000000000000000000000000000000000000000000000000000000000002960000000000000013640000000000000179400000400481678                 4~1~484003                         
1481678    20230404ST        MECAN271                 JBR2772                      03             2      1416000000000001000000000000000019250000000000000019250000000000000007700000000000000011550000000000000005900000000000000000000000000000000002310000000000000000000000000000000000150000000000000000700000000000000011550000400481678                 4~1~484003                         
1481679    20230404AP        Técni34                  12616850            12616850 03             2      1417000000000001000000000000000023690000000000000023690000000000000009480000000000000014210000000000000007460000000000000000000000000000000002840000000000000000000000000000000000190000000000000000860000000000000014210000400481679                 4~1~484708                         
1481679    20230404AP        Técni34                  12636838            12636838 03             2      1417000000000001000000000000000193020000000000000193020000000000000077210000000000000115810000000000000048590000000000000000000000000000000023160000000000000000000000000000000001530000000000000007040000000000000115810000400481679                 4~1~484708                         
1481679    20230404AP        Técni34                  98552923X                    03             2      1417000000000001000000000000000399000000000000000399000000000000000159600000000000000239400000000000000157530000000000000000000000000000000000000000000000000000000000000000000003950000000000000018190000000000000239400000400481679                 4~1~484708                         
1481679    20230404AP        Técni34                  1300525                      03             2      1417000000000001000000000000000164660000000000000164660000000000000065860000000000000098800000000000000064250000000000000000000000000000000019760000000000000000000000000000000001300000000000000006010000000000000098800000400481679                 4~1~484708                         
1481739    20230502EQ        INSTA126                 7908411733001                1.11           2      1707000000000001000000000000000189900000000000000189900000000000000009490000000000000180410000000000000108790000000000000000000000000000000036080000000000000000000000000000000002380000000000000010970000000000000180410000400481739                 4~1~484808                         
1481739    20230405EQ        INSTA126                 FUNCAMISETA3                 1.11           2      0912000000000001000000000000000109900000000000000109900000000000000005500000000000000104410000000000000066920000000000000000000000000000000020880000000000000000000000000000000001380000000000000006350000000000000104410000400481739                 4~1~484808                         
1481762    20230405AP        Técni325                 42864662            42864662 9106596        2      1144000000000001000000000000000025010000000000000025010000000000000000000000000000000025010000000000000016620000000000000000000000000000000005000000000000000000000000000000000000000000000000000000000000000000000025010000400481762                 4~1~483738                         
1481940    20230411AP        Técni325                 13174241            13174241 03             2      1524000000000002000000000000000009250000000000000018500000000000000005500000000000000013000000000000000007180000000000000000000000000000000002600000000000000000000000000000000000170000000000000000790000000000000013000000400481940                 4~1~483628                         
1482193    20230414AP        Técni34                  98550168            98550168 03             2      1609000000000004000000000000000065630000000000000262520000000000000097930000000000000164590000000000000094650000000000000000000000000000000000000000000000000000000000000000000002240000000000000010310000000000000164590000400482193                 4~1~483540                         
1482193    20230414AP        Técni34                  24591518            24591518 03             2      1609000000000001000000000000000091900000000000000091900000000000000034280000000000000057620000000000000018580000000000000000000000000000000011520000000000000000000000000000000000000000000000000000000000000000000057620000400482193                 4~1~483540                         
1482193    20230420AP        Técni34                  93221445            93221445 03             2      0825000000000001000000000000000198750000000000000198750000000000000074140000000000000124610000000000000062740000000000000000000000000000000024920000000000000000000000000000000001640000000000000007580000000000000124610000400482193                 4~1~483540                         
1482193    20230418AP        Técni378                 90410741            90410741 03             2      0831000000000008000000000000000006920000000000000055360000000000000020650000000000000034710000000000000018620000000000000000000000000000000006940000000000000000000000000000000000460000000000000002110000000000000034710000400482193                 4~1~483540                         
1482193    20230418AP        Técni378                 98552043            98552043 03             2      0831000000000001000000000000000094340000000000000094340000000000000035190000000000000059150000000000000027940000000000000000000000000000000011830000000000000000000000000000000000780000000000000003600000000000000059150000400482193                 4~1~483540                         
1482193    20230418AP        Técni378                 JBR2772                      03             2      0831000000000004000000000000000019250000000000000077000000000000000028720000000000000048280000000000000023590000000000000000000000000000000009660000000000000000000000000000000000640000000000000002940000000000000048280000400482193                 4~1~483540                         
1482193    20230418AP        Técni378                 24578675            24578675 03             2      0831000000000001000000000000000075750000000000000075750000000000000028260000000000000047490000000000000030000000000000000000000000000000000009500000000000000000000000000000000000630000000000000002890000000000000047490000400482193                 4~1~483540                         
1482193    20230418AP        Técni378                 93286309            93286309 03             2      0831000000000001000000000000000126720000000000000126720000000000000047270000000000000079450000000000000039530000000000000000000000000000000015890000000000000000000000000000000001050000000000000004830000000000000079450000400482193                 4~1~483540                         
1482193    20230418AP        Técni378                 24579729            24579729 03             2      0831000000000001000000000000000703900000000000000703900000000000000262570000000000000441330000000000000297800000000000000000000000000000000088270000000000000000000000000000000000000000000000000000000000000000000441330000400482193                 4~1~483540                         
1482193    20230418AP        Técni378                 90531677            90531677 03             2      0831000000000001000000000000000150010000000000000150010000000000000055960000000000000094050000000000000048950000000000000000000000000000000018810000000000000000000000000000000001240000000000000005720000000000000094050000400482193                 4~1~483540                         
1482193    20230418AP        Técni378                 94757663            94757663 03             2      0831000000000001000000000000000110270000000000000110270000000000000041130000000000000069140000000000000031830000000000000000000000000000000013830000000000000000000000000000000000910000000000000004200000000000000069140000400482193                 4~1~483540                         
1482193    20230418AP        Técni378                 24585532            24585532 03             2      0831000000000001000000000000009550700000000000009550700000000000003562640000000000005988060000000000003020910000000000000000000000000000001197610000000000000000000000000000000000000000000000000000000000000000005988060000400482193                 4~1~483540                         
1482193    20230418AP        Técni378                 93353848            93353848 03             2      0831000000000001000000000000000213660000000000000213660000000000000079700000000000000133960000000000000082320000000000000000000000000000000026790000000000000000000000000000000000000000000000000000000000000000000133960000400482193                 4~1~483540                         
1482193    20230418AP        Técni378                 24590072            24590072 03             2      0831000000000001000000000000000022570000000000000022570000000000000008420000000000000014150000000000000009080000000000000000000000000000000002830000000000000000000000000000000000000000000000000000000000000000000014150000400482193                 4~1~483540                         
1482194    20230414AP        Técni323                 12706595            12706595 M0051          5      1620000000000001000000000000000125620000000000000125620000000000000036870000000000000088750000000000000037630000000000000000000000000000000017750000000000000000000000000000000000000000000000000000000000000000000088750000400482194                 4~1~483996                         
1482194    20230414AP        Técni323                 98550549X                    M0051          5      1620000000000001000000000000000299000000000000000299000000000000000087750000000000000211250000000000000098900000000000000000000000000000000000000000000000000000000000000000000003490000000000000016060000000000000211250000400482194                 4~1~483996                         
1482298    20230418AP        Técni323                 25204556            25204556 MEC            2      0915000000000001000000000000000909830000000000000909830000000000000000000000000000000909830000000000000274130000000000000000000000000000000181970000000000000000000000000000000000000000000000000000000000000000000909830000400482298                 4~1~484699                         
1482298    20230511AP        Técni323                 25204558            25204558 MEC            2      1616000000000001000000000000000477030000000000000477030000000000000000000000000000000477030000000000000193360000000000000000000000000000000095410000000000000000000000000000000000000000000000000000000000000000000477030000400482298                 4~1~484699                         
1482423    20230420AP        Técni287                 12708717            12708717 4032750        2      0939000000000001000000000000000431680000000000000431680000000000000000000000000000000431680000000000000271690000000000000000000000000000000086340000000000000000000000000000000000000000000000000000000000000000000431680000400482423                 4~1~484551                         
1482423    20230420AP        Técni287                 93286309            93286309 4032750        2      1002000000000001000000000000000087580000000000000087580000000000000000000000000000000087580000000000000039530000000000000000000000000000000017520000000000000000000000000000000001160000000000000005320000000000000087580000400482423                 4~1~484551                         
1482469    20230420AP        Técni287                 24236933            24236933 8481018*       2      1523000000000001000000000000000644290000000000000644290000000000000000000000000000000644290000000000000301850000000000000000000000000000000128860000000000000000000000000000000008500000000000000039170000000000000644290000400482469                 4~1~483053                         
1482469    20230420AP        Técni287                 98550134            98550134 8481018*       2      1523000000000014000000000000000089790000000000001257060000000000000000000000000000001257060000000000000704950000000000000000000000000000000000000000000000000000000000000000000020740000000000000095540000000000001257060000400482469                 4~1~483053                         
1482481    20230420AP        Técni325                 88905845            88905845 TR011          2      1707000000000001000000000000000026370000000000000026370000000000000010420000000000000015950000000000000008510000000000000000000000000000000003190000000000000000000000000000000000000000000000000000000000000000000015950000400482481                 4~1~483111                         
1482481    20230420AP        Técni325                 94757663            94757663 TR011          2      1707000000000001000000000000000110270000000000000110270000000000000043570000000000000066700000000000000031830000000000000000000000000000000013340000000000000000000000000000000000880000000000000004060000000000000066700000400482481                 4~1~483111                         
1482481    20230420AP        Técni325                 98550549X                    TR011          2      1707000000000001000000000000000275000000000000000275000000000000000108650000000000000166350000000000000098900000000000000000000000000000000000000000000000000000000000000000000002740000000000000012640000000000000166350000400482481                 4~1~483111                         
1482560    20230425AP        Técni287                 24236933            24236933 8481018*       2      0858000000000001000000000000000644290000000000000644290000000000000000000000000000000644290000000000000301850000000000000000000000000000000128860000000000000000000000000000000008500000000000000039170000000000000644290000400482560                 4~1~483048                         
1482560    20230425AP        Técni287                 98550134            98550134 8481018*       2      0858000000000014000000000000000089760000000000001256640000000000000000000000000000001256640000000000000704950000000000000000000000000000000000000000000000000000000000000000000020730000000000000095500000000000001256640000400482560                 4~1~483048                         
1482583    20230426AP        Técni384                 95017034            95017034 03             2      1049000000000001000000000000000073780000000000000073780000000000000000000000000000000073780000000000000073780000000000000000000000000000000014760000000000000000000000000000000000000000000000000000000000000000000073780000400482583                 4~1~483424                         
1482583    20230426AP        Técni384                 13502353            13502353 03             2      1049000000000001000000000000000117590000000000000117590000000000000000000000000000000117590000000000000117590000000000000000000000000000000023520000000000000000000000000000000000000000000000000000000000000000000117590000400482583                 4~1~483424                         
1482583    20230426AP        Técni384                 300342                       03             2      1153000000000001000000000000000023840000000000000023840000000000000000000000000000000023840000000000000023840000000000000000000000000000000004770000000000000000000000000000000000000000000000000000000000000000000023840000400482583                 4~1~483424                         
1482583    20230425AP        Técni384                 335668                       03             2      1250000000000001000000000000000051450000000000000051450000000000000000000000000000000051450000000000000051450000000000000000000000000000000010290000000000000000000000000000000000000000000000000000000000000000000051450000400482583                 4~1~483424                         
1482583    20230425AP        Técni384                 95227628            95227628 03             2      1250000000000002000000000000000078300000000000000156600000000000000000000000000000000156600000000000000156600000000000000000000000000000000031320000000000000000000000000000000000000000000000000000000000000000000156600000400482583                 4~1~483424                         
1482583    20230425AP        Técni384                 95048411            95048411 03             2      1250000000000001000000000000000059830000000000000059830000000000000000000000000000000059830000000000000059830000000000000000000000000000000011970000000000000000000000000000000000000000000000000000000000000000000059830000400482583                 4~1~483424                         
1482583    20230425AP        Técni384                 MB5W30D1                     03             2      1250000000000004000000000000000024710000000000000098830000000000000000000000000000000098830000000000000098830000000000000000000000000000000000000000000000000000000000000000000001130000000000000005210000000000000098830000400482583                 4~1~483424                         
1482583    20230425AP        Técni384                 WL51003                      03             2      1250000000000001000000000000000007010000000000000007010000000000000000000000000000000007010000000000000007010000000000000000000000000000000001400000000000000000000000000000000000000000000000000000000000000000000007010000400482583                 4~1~483424                         
1482587    20230503AP        Técni287                 HF51N                        03             2      1718000000000002000000000000000111000000000000000222000000000000000066600000000000000155400000000000000221700000000000000000000000000000000031080000000000000000000000000000000000000000000000000000000000000000000155400000400482587                 4~1~484580                         
1482587    20230502AP        Técni287                 N305                         03             2      1737000000000001000000000000000171810000000000000171810000000000000051540000000000000120270000000000000075020000000000000000000000000000000024050000000000000000000000000000000000000000000000000000000000000000000120270000400482587                 4~1~484580                         
1482629    20230426AP        Técni34                  84511931            84511931 2040510        2      0823000000000001000000000000002147800000000000002147800000000000000000000000000000002147800000000000001380680000000000000000000000000000000429560000000000000000000000000000000000000000000000000000000000000000002147800000400482629                 4~1~482837                         
1482629    20230426AP        Técni34                  84511932            84511932 2040510        2      0823000000000001000000000000002160310000000000002160310000000000000000000000000000002160310000000000001388720000000000000000000000000000000432060000000000000000000000000000000000000000000000000000000000000000002160310000400482629                 4~1~482837                         
1482636    20230426AP        Técni177                 26400758            26400758 4412470        2      1112000000000001000000000000000511660000000000000511660000000000000000000000000000000511660000000000000326820000000000000000000000000000000102330000000000000000000000000000000006750000000000000031110000000000000511660000400482636                 4~1~484518                         
1482637    20230426AP        Técni384                 19347728            19347728 03             2      0916000000000001000000000000000012980000000000000012980000000000000000000000000000000012980000000000000012980000000000000000000000000000000002600000000000000000000000000000000000000000000000000000000000000000000012980000400482637                 4~1~483416                         
1482637    20230426AP        Técni384                 EVT5W30                      03             2      0916000000000005000000000000000017850000000000000089240000000000000000000000000000000089240000000000000089240000000000000000000000000000000000000000000000000000000000000000000001470000000000000006780000000000000089240000400482637                 4~1~483416                         
1482643    20230426ST        MECAN271                 12616850            12616850 03             2      0941000000000001000000000000000023690000000000000023690000000000000009480000000000000014210000000000000007420000000000000000000000000000000002840000000000000000000000000000000000190000000000000000860000000000000014210000400482643                 4~1~482963                         
1482643    20230426ST        MECAN271                 12706595            12706595 03             2      0941000000000001000000000000000125620000000000000125620000000000000050250000000000000075370000000000000037630000000000000000000000000000000015070000000000000000000000000000000000000000000000000000000000000000000075370000400482643                 4~1~482963                         
1482643    20230426ST        MECAN271                 98550549X                    03             2      0941000000000001000000000000000299000000000000000299000000000000000119600000000000000179400000000000000098900000000000000000000000000000000000000000000000000000000000000000000002960000000000000013640000000000000179400000400482643                 4~1~482963                         
1482643    20230426ST        MECAN271                 JBR2772                      03             2      0941000000000001000000000000000019250000000000000019250000000000000007700000000000000011550000000000000005900000000000000000000000000000000002310000000000000000000000000000000000150000000000000000700000000000000011550000400482643                 4~1~482963                         
1482651    20230428AP        Técni384                 90354858            90354858 03             2      1641000000000001000000000000000034130000000000000034130000000000000000000000000000000034130000000000000034130000000000000000000000000000000006830000000000000000000000000000000000000000000000000000000000000000000034130000400482651                 4~1~483977                         
1482651    20230426AP        Técni384                 MB5W30D1                     03             2      1053000000000004000000000000000024710000000000000098830000000000000000000000000000000098830000000000000098830000000000000000000000000000000000000000000000000000000000000000000001130000000000000005210000000000000098830000400482651                 4~1~483977                         
1482651    20230426AP        Técni384                 WL51003                      03             2      1053000000000001000000000000000007010000000000000007010000000000000000000000000000000007010000000000000007010000000000000000000000000000000001400000000000000000000000000000000000000000000000000000000000000000000007010000400482651                 4~1~483977                         
1482651    20230426AP        Técni384                 52085071            52085071 03             2      1056000000000002000000000000000039950000000000000079910000000000000000000000000000000079910000000000000079910000000000000000000000000000000015980000000000000000000000000000000000000000000000000000000000000000000079910000400482651                 4~1~483977                         
1482651    20230426AP        Técni384                 95227628            95227628 03             2      1056000000000002000000000000000078300000000000000156600000000000000000000000000000000156600000000000000156600000000000000000000000000000000031320000000000000000000000000000000000000000000000000000000000000000000156600000400482651                 4~1~483977                         
1482651    20230426AP        Técni384                 LAM-PINGO                    03             2      1056000000000002000000000000000001140000000000000002290000000000000000000000000000000002290000000000000002290000000000000000000000000000000000460000000000000000000000000000000000030000000000000000140000000000000002290000400482651                 4~1~483977                         
1482651    20230426AP        Técni384                 LAM-1POLO                    03             2      1056000000000002000000000000000001390000000000000002780000000000000000000000000000000002780000000000000002780000000000000000000000000000000000560000000000000000000000000000000000040000000000000000170000000000000002780000400482651                 4~1~483977                         
1482651    20230426AP        Técni384                 93353848            93353848 03             2      1504000000000001000000000000000082320000000000000082320000000000000000000000000000000082320000000000000082320000000000000000000000000000000016460000000000000000000000000000000000000000000000000000000000000000000082320000400482651                 4~1~483977                         
1482651    20230426AP        Técni384                 90531677            90531677 03             2      1504000000000001000000000000000048950000000000000048950000000000000000000000000000000048950000000000000048950000000000000000000000000000000009790000000000000000000000000000000000650000000000000002980000000000000048950000400482651                 4~1~483977                         
1482651    20230509AP        Técni384                 94700314            94700314 03             2      0911000000000001000000000000000040050000000000000040050000000000000000000000000000000040050000000000000040050000000000000000000000000000000008010000000000000000000000000000000000530000000000000002440000000000000040050000400482651                 4~1~483977                         
1482651    20230428AP        Técni384                 103001                       03             2      1030000000000001000000000000000014470000000000000014470000000000000000000000000000000014470000000000000014470000000000000000000000000000000002890000000000000000000000000000000000000000000000000000000000000000000014470000400482651                 4~1~483977                         
1482651    20230427AP        Técni384                 24591057            24591057 03             2      1716000000000001000000000000000184990000000000000184990000000000000000000000000000000184990000000000000184990000000000000000000000000000000037000000000000000000000000000000000000000000000000000000000000000000000184990000400482651                 4~1~483977                         
1482659    20230428AP        Técni384                 52096409            52096409 03             2      1650000000000001000000000000000090250000000000000090250000000000000000000000000000000090250000000000000090250000000000000000000000000000000018050000000000000000000000000000000001190000000000000005490000000000000090250000400482659                 4~1~483325                         
1482659    20230426AP        Técni384                 94747898            94747898 03             2      1318000000000001000000000000000111300000000000000111300000000000000000000000000000000111300000000000000111300000000000000000000000000000000022260000000000000000000000000000000001470000000000000006770000000000000111300000400482659                 4~1~483325                         
1482683    20230503AP        Técni384                 PEL803                       03             2      1002000000000001000000000000000010170000000000000010170000000000000000000000000000000010170000000000000010170000000000000000000000000000000002030000000000000000000000000000000000130000000000000000620000000000000010170000400482683                 4~1~483326                         
1482683    20230426AP        Técni384                 MB5W30D1                     03             2      1547000000000005000000000000000024710000000000000123530000000000000000000000000000000123530000000000000123530000000000000000000000000000000000000000000000000000000000000000000001410000000000000006510000000000000123530000400482683                 4~1~483326                         
1482686    20230503AP        Técni384                 HF52B                        03             2      1002000000000002000000000000000101770000000000000203540000000000000000000000000000000203540000000000000203540000000000000000000000000000000040710000000000000000000000000000000000000000000000000000000000000000000203540000400482686                 4~1~483327                         
1482686    20230426AP        Técni384                 26312031            26312031 03             2      1618000000000001000000000000000344430000000000000344430000000000000000000000000000000344430000000000000344430000000000000000000000000000000068890000000000000000000000000000000000000000000000000000000000000000000344430000400482686                 4~1~483327                         
1482699    20230427AP        Técni356                 26401106            26401106 4412470        2      1039000000000001000000000000000730610000000000000730610000000000000000000000000000000730610000000000000461400000000000000000000000000000000146120000000000000000000000000000000009640000000000000044420000000000000730610000400482699                 4~1~484841                         
1482710    20230427AP        Técni177                 13530747            13530747 2410370        2      0900000000000001000000000000000208450000000000000208450000000000000000000000000000000208450000000000000173590000000000000000000000000000000041690000000000000000000000000000000002750000000000000012670000000000000208450000400482710                 4~1~483172                         
1482710    20230427AP        Técni177                 94755728            94755728 2410370        2      0900000000000001000000000000001274890000000000001274890000000000000000000000000000001274890000000000000764020000000000000000000000000000000254980000000000000000000000000000000016830000000000000077510000000000001274890000400482710                 4~1~483172                         
1482711    20230427AP        Técni384                 CL50FD                       03             2      0855000000000001000000000000000281390000000000000281390000000000000000000000000000000281390000000000000281390000000000000000000000000000000056280000000000000000000000000000000003710000000000000017110000000000000281390000400482711                 4~1~483328                         
1482712    20230427AP        Técni384                 24586359            24586359 03             2      1047000000000001000000000000000258550000000000000258550000000000000000000000000000000258550000000000000258550000000000000000000000000000000051710000000000000000000000000000000000000000000000000000000000000000000258550000400482712                 4~1~483329                         
1482712    20230427AP        Técni384                 24591142            24591142 03             2      1107000000000001000000000000000121400000000000000121400000000000000000000000000000000121400000000000000121400000000000000000000000000000000024280000000000000000000000000000000000000000000000000000000000000000000121400000400482712                 4~1~483329                         
1482715    20230427AP        Técni287                 12616850            12616850 E0203          2      0955000000000001000000000000000023690000000000000023690000000000000000000000000000000023690000000000000007460000000000000000000000000000000004740000000000000000000000000000000000310000000000000001440000000000000023690000400482715                 4~1~484702                         
1482715    20230427AP        Técni287                 12706595            12706595 E0203          2      0955000000000001000000000000000125620000000000000125620000000000000000000000000000000125620000000000000037630000000000000000000000000000000025120000000000000000000000000000000000000000000000000000000000000000000125620000400482715                 4~1~484702                         
1482715    20230427AP        Técni287                 98550168X                    E0203          2      0955000000000001000000000000000299000000000000000299000000000000000000000000000000000299000000000000000094470000000000000000000000000000000000000000000000000000000000000000000004930000000000000022720000000000000299000000400482715                 4~1~484702                         
1482718    20230505EQ        INSTA126                 98550849            98550849 1.11           2      1047000000000001000000000000000490000000000000000490000000000000000147000000000000000343000000000000000089050000000000000000000000000000000068600000000000000000000000000000000004530000000000000020850000000000000343000000400482718                 4~1~483210                         
1482725    20230427AP        Técni177                 13384013            13384013 MEC            2      1106000000000001000000000000008000000000000000008000000000000000000000000000000000008000000000000000003722890000000000000000000000000000001600000000000000000000000000000000000105600000000000000486400000000000008000000000400482725                 4~1~483724                         
1482726    20230427EQ        INSTA252                 98550849            98550849 1.11           2      1102000000000001000000000000000350000000000000000350000000000000000000000000000000000350000000000000000089050000000000000000000000000000000070000000000000000000000000000000000004620000000000000021280000000000000350000000400482726                 4~1~483077                         
1482734    20230427AP        Técni287                 11023589            11023589 M0061          5      1207000000000001000000000000000016760000000000000016760000000000000008630000000000000008130000000000000002480000000000000000000000000000000001630000000000000000000000000000000000110000000000000000490000000000000008130000400482734                 4~1~483030                         
1482734    20230427AP        Técni287                 88905845            88905845 M0061          5      1207000000000001000000000000000026370000000000000026370000000000000013580000000000000012790000000000000008510000000000000000000000000000000002560000000000000000000000000000000000000000000000000000000000000000000012790000400482734                 4~1~483030                         
1482734    20230427AP        Técni287                 93316245            93316245 M0061          5      1207000000000001000000000000000078800000000000000078800000000000000040580000000000000038220000000000000018590000000000000000000000000000000007640000000000000000000000000000000000000000000000000000000000000000000038220000400482734                 4~1~483030                         
1482734    20230427AP        Técni287                 93363296            93363296 M0061          5      1207000000000004000000000000000049690000000000000198760000000000000102370000000000000096390000000000000037880000000000000000000000000000000019280000000000000000000000000000000000000000000000000000000000000000000096390000400482734                 4~1~483030                         
1482734    20230427AP        Técni287                 94757663            94757663 M0061          5      1207000000000001000000000000000144850000000000000144850000000000000074600000000000000070250000000000000031830000000000000000000000000000000014050000000000000000000000000000000000930000000000000004270000000000000070250000400482734                 4~1~483030                         
1482734    20230427AP        Técni287                 98550549X                    M0061          5      1207000000000001000000000000000299000000000000000299000000000000000153990000000000000145010000000000000098900000000000000000000000000000000000000000000000000000000000000000000002390000000000000011020000000000000145010000400482734                 4~1~483030                         
1482734    20230427AP        Técni287                 1350005                      M0061          5      1207000000000001000000000000000210140000000000000210140000000000000108230000000000000101910000000000000063470000000000000000000000000000000020380000000000000000000000000000000001350000000000000006200000000000000101910000400482734                 4~1~483030                         
1482741    20230427AP        Técni323                 26344554            26344554 6440840        2      1453000000000001000000000000000137180000000000000137180000000000000000000000000000000137180000000000000086550000000000000000000000000000000027440000000000000000000000000000000000000000000000000000000000000000000137180000400482741                 4~1~483054                         
1482741    20230427AP        Técni323                 26375235            26375235 6440840        2      1453000000000001000000000000000354570000000000000354570000000000000000000000000000000354570000000000000232480000000000000000000000000000000070910000000000000000000000000000000000000000000000000000000000000000000354570000400482741                 4~1~483054                         
1482747    20230504AP        Técni287                 24587020            24587020 4041250        2      0848000000000001000000000000000931940000000000000931940000000000000000000000000000000931940000000000000365490000000000000000000000000000000186390000000000000000000000000000000000000000000000000000000000000000000931940000400482747                 4~1~483275                         
1482747    20230427AP        Técni287                 94749539            94749539 4413100        2      1507000000000001000000000000000168720000000000000168720000000000000000000000000000000168720000000000000090080000000000000000000000000000000033740000000000000000000000000000000000000000000000000000000000000000000168720000400482747                 4~1~483275                         
1482747    20230427AP        Técni287                 93286309            93286309 4413100        2      1509000000000001000000000000000087580000000000000087580000000000000000000000000000000087580000000000000039530000000000000000000000000000000017520000000000000000000000000000000001160000000000000005320000000000000087580000400482747                 4~1~483275                         
1482756    20230427EQ        INSTA252                 26355515            26355515 1.11           2      1544000000000001000000000000000650000000000000000650000000000000000000000000000000000650000000000000000167600000000000000000000000000000000130000000000000000000000000000000000000000000000000000000000000000000000650000000400482756                 4~1~483285                         
1482756    20230427EQ        INSTA252                 ACS192                       1.11           2      1544000000000001000000000000000750000000000000000750000000000000000000000000000000000750000000000000000290030000000000000000000000000000000150000000000000000000000000000000000009900000000000000045600000000000000750000000400482756                 4~1~483285                         
1482763    20230427AP        Técni323                 52151788            52151788 9103388        2      1628000000000001000000000000000026520000000000000026520000000000000000000000000000000026520000000000000005160000000000000000000000000000000005300000000000000000000000000000000000000000000000000000000000000000000026520000400482763                 4~1~482896                         
1482763    20230427AP        Técni323                 11589289            11589289 9103388        2      1628000000000007000000000000000000450000000000000003150000000000000000000000000000000003150000000000000001840000000000000000000000000000000000630000000000000000000000000000000000040000000000000000190000000000000003150000400482763                 4~1~482896                         
1482767    20230427ST        MECAN271                 12616850            12616850 03             2      1624000000000001000000000000000007460000000000000007460000000000000000000000000000000007460000000000000007460000000000000000000000000000000001490000000000000000000000000000000000100000000000000000450000000000000007460000400482767                 4~1~483253                         
1482767    20230427ST        MECAN271                 12706595            12706595 03             2      1624000000000001000000000000000037630000000000000037630000000000000000000000000000000037630000000000000037630000000000000000000000000000000007530000000000000000000000000000000000000000000000000000000000000000000037630000400482767                 4~1~483253                         
1482767    20230427ST        MECAN271                 98550811            98550811 03             2      1624000000000004000000000000000035500000000000000142010000000000000000000000000000000142010000000000000142010000000000000000000000000000000000000000000000000000000000000000000002340000000000000010790000000000000142010000400482767                 4~1~483253                         
1482787    20230428AP        Técni177                 42734409            42734409 7441760        5      0824000000000001000000000000004638220000000000004638220000000000000000000000000000004638220000000000003363630000000000000000000000000000000927640000000000000000000000000000000000000000000000000000000000000000004638220000400482787                 4~1~482836                         
1482788    20230428AP        TAPEC50                  26400759            26400759 4485008        2      0818000000000001000000000000000080170000000000000080170000000000000000000000000000000080170000000000000058940000000000000000000000000000000016030000000000000000000000000000000001060000000000000004870000000000000080170000400482788                 4~1~484517                         
1482788    20230428AP        TAPEC50                  13508023            13508023 4485008        2      0818000000000001000000000000000060430000000000000060430000000000000000000000000000000060430000000000000031230000000000000000000000000000000012090000000000000000000000000000000000800000000000000003670000000000000060430000400482788                 4~1~484517                         
1482789    20230502AP        Técni384                 ABRACADEIRA07                03             2      0958000000000001000000000000000001360000000000000001360000000000000000000000000000000001360000000000000001360000000000000000000000000000000000270000000000000000000000000000000000020000000000000000080000000000000001360000400482789                 4~1~483330                         
1482789    20230428AP        Técni384                 20189                        03             2      0820000000000001000000000000000046660000000000000046660000000000000000000000000000000046660000000000000046660000000000000000000000000000000009330000000000000000000000000000000000000000000000000000000000000000000046660000400482789                 4~1~483330                         
1482789    20230428AP        Técni384                 103001                       03             2      1029000000000001000000000000000014470000000000000014470000000000000000000000000000000014470000000000000014470000000000000000000000000000000002890000000000000000000000000000000000000000000000000000000000000000000014470000400482789                 4~1~483330                         
1482789    20230502AP        Técni384                 52030394X                    03             2      0912000000000001000000000000000006000000000000000006000000000000000000000000000000000006000000000000000006000000000000000000000000000000000001200000000000000000000000000000000000000000000000000000000000000000000006000000400482789                 4~1~483330                         
1482789    20230502AP        Técni384                 ABRACADEIRA03                03             2      0912000000000002000000000000000000990000000000000001970000000000000000000000000000000001970000000000000001970000000000000000000000000000000000390000000000000000000000000000000000030000000000000000120000000000000001970000400482789                 4~1~483330                         
1482789    20230502AP        Técni384                 ABRACADEIRA04                03             2      0924000000000002000000000000000001460000000000000002910000000000000000000000000000000002910000000000000002910000000000000000000000000000000000580000000000000000000000000000000000040000000000000000180000000000000002910000400482789                 4~1~483330                         
1482789    20230502AP        Técni384                 ABRACADEIRA07                03             2      1108000000000001000000000000000001360000000000000001360000000000000000000000000000000001360000000000000001360000000000000000000000000000000000270000000000000000000000000000000000020000000000000000080000000000000001360000400482789                 4~1~483330                         
1482797    20230428ST        MECAN271                 26402610            26402610 1416740        2      0848000000000001000000000000000153880000000000000153880000000000000000000000000000000153880000000000000114860000000000000000000000000000000030780000000000000000000000000000000000000000000000000000000000000000000153880000400482797                 4~1~483059                         
1482799    20230428AP        Técni384                 82220                        03             2      0858000000000001000000000000000121210000000000000121210000000000000000000000000000000121210000000000000121210000000000000000000000000000000024240000000000000000000000000000000001600000000000000007370000000000000121210000400482799                 4~1~483753                         
1482799    20230428AP        Técni384                 83210                        03             2      0858000000000001000000000000000159200000000000000159200000000000000000000000000000000159200000000000000159200000000000000000000000000000000031840000000000000000000000000000000002100000000000000009680000000000000159200000400482799                 4~1~483753                         
1482799    20230428AP        Técni384                 82210                        03             2      0858000000000001000000000000000121210000000000000121210000000000000000000000000000000121210000000000000121210000000000000000000000000000000024240000000000000000000000000000000001600000000000000007370000000000000121210000400482799                 4~1~483753                         
1482799    20230428AP        Técni384                 83220                        03             2      0858000000000001000000000000000159200000000000000159200000000000000000000000000000000159200000000000000159200000000000000000000000000000000031840000000000000000000000000000000002100000000000000009680000000000000159200000400482799                 4~1~483753                         
1482801    20230428AP        Técni356                 25203199            25203199 4032750        2      0918000000000001000000000000000285930000000000000285930000000000000000000000000000000285930000000000000164810000000000000000000000000000000057190000000000000000000000000000000003770000000000000017380000000000000285930000400482801                 4~1~483056                         
1482801    20230428AP        Técni356                 93286309            93286309 4032750        2      0918000000000001000000000000000087580000000000000087580000000000000000000000000000000087580000000000000039530000000000000000000000000000000017520000000000000000000000000000000001160000000000000005320000000000000087580000400482801                 4~1~483056                         
1482804    20230428AP        Técni365                 26400758            26400758 4412470        2      1024000000000001000000000000000511660000000000000511660000000000000000000000000000000511660000000000000326820000000000000000000000000000000102330000000000000000000000000000000006750000000000000031110000000000000511660000400482804                 4~1~484834                         
1482830    20230428ST        MECAN271                 24591057            24591057 4032750        2      1600000000000001000000000000000304320000000000000304320000000000000000000000000000000304320000000000000184990000000000000000000000000000000060860000000000000000000000000000000000000000000000000000000000000000000304320000400482830                 4~1~483060                         
1482830    20230428ST        MECAN271                 93286309            93286309 4032750        2      1600000000000001000000000000000087580000000000000087580000000000000000000000000000000087580000000000000039530000000000000000000000000000000017520000000000000000000000000000000001160000000000000005320000000000000087580000400482830                 4~1~483060                         
1482831    20230428AP        TAPEC50                  26400759            26400759 4485008        2      1610000000000001000000000000000080170000000000000080170000000000000000000000000000000080170000000000000058940000000000000000000000000000000016030000000000000000000000000000000001060000000000000004870000000000000080170000400482831                 4~1~484848                         
1482831    20230428AP        TAPEC50                  13508023            13508023 4485008        2      1610000000000001000000000000000060430000000000000060430000000000000000000000000000000060430000000000000031230000000000000000000000000000000012090000000000000000000000000000000000800000000000000003670000000000000060430000400482831                 4~1~484848                         
1482837    20230428AP        TAPEC50                  13540604            13540604 8050190        2      1615000000000001000000000000000813480000000000000813480000000000000000000000000000000813480000000000000465690000000000000000000000000000000162700000000000000000000000000000000010740000000000000049460000000000000813480000400482837                 4~1~485182                         
1482844    20230428AP        Técni323                 11589289            11589289 9103388        2      1653000000000007000000000000000000450000000000000003150000000000000000000000000000000003150000000000000001840000000000000000000000000000000000630000000000000000000000000000000000040000000000000000190000000000000003150000400482844                 4~1~482892                         
1482844    20230428AP        Técni323                 52151788            52151788 9103388        2      1653000000000001000000000000000026520000000000000026520000000000000000000000000000000026520000000000000005160000000000000000000000000000000005300000000000000000000000000000000000000000000000000000000000000000000026520000400482844                 4~1~482892                         
1482859    20230429ST        MECAN271                 24582406            24582406 MEC            2      0858000000000001000000000000000270000000000000000270000000000000000000000000000000000270000000000000000185190000000000000000000000000000000054000000000000000000000000000000000000000000000000000000000000000000000270000000400482859                 4~1~483375                         
1482859    20230429ST        MECAN271                 94702060            94702060 MEC            2      0858000000000001000000000000000083020000000000000083020000000000000000000000000000000083020000000000000036100000000000000000000000000000000016600000000000000000000000000000000001100000000000000005050000000000000083020000400482859                 4~1~483375                         
1482860    20230429AP        Técni359                 12616850            12616850 M0111          5      0855000000000001000000000000000023690000000000000023690000000000000004010000000000000019680000000000000007460000000000000000000000000000000003940000000000000000000000000000000000260000000000000001200000000000000019680000400482860                 4~1~483568                         
1482860    20230429AP        Técni359                 12636838            12636838 M0111          5      0855000000000001000000000000000193020000000000000193020000000000000032710000000000000160310000000000000048590000000000000000000000000000000032060000000000000000000000000000000002120000000000000009750000000000000160310000400482860                 4~1~483568                         
1482860    20230429AP        Técni359                 52101541            52101541 M0111          5      0855000000000001000000000000000123000000000000000123000000000000000020840000000000000102160000000000000026750000000000000000000000000000000020430000000000000000000000000000000001350000000000000006210000000000000102160000400482860                 4~1~483568                         
1482860    20230429AP        Técni359                 52160963            52160963 M0111          5      0855000000000001000000000000000264370000000000000264370000000000000044800000000000000219570000000000000084800000000000000000000000000000000043910000000000000000000000000000000002900000000000000013350000000000000219570000400482860                 4~1~483568                         
1482860    20230429AP        Técni359                 98550134            98550134 M0111          5      0855000000000002000000000000000127670000000000000255340000000000000043270000000000000212070000000000000100710000000000000000000000000000000000000000000000000000000000000000000003500000000000000016120000000000000212070000400482860                 4~1~483568                         
1482860    20230429AP        Técni359                 98551028                     M0111          5      0855000000000002000000000000000021320000000000000042640000000000000007230000000000000035410000000000000030690000000000000000000000000000000007080000000000000000000000000000000000470000000000000002150000000000000035410000400482860                 4~1~483568                         
1482860    20230429AP        Técni359                 98552923X                    M0111          5      0855000000000001000000000000000399000000000000000399000000000000000067610000000000000331390000000000000157530000000000000000000000000000000000000000000000000000000000000000000005470000000000000025190000000000000331390000400482860                 4~1~483568                         
1482863    20230429AP        TAPEC50                  24587020            24587020 4041250        2      0916000000000001000000000000000931940000000000000931940000000000000000000000000000000931940000000000000365490000000000000000000000000000000186390000000000000000000000000000000000000000000000000000000000000000000931940000400482863                 4~1~483055                         
1482865    20230509EQ        INSTA126                 7908411733063                1.11           2      1055000000000001000000000000000189900000000000000189900000000000000018990000000000000170910000000000000108800000000000000000000000000000000034180000000000000000000000000000000002260000000000000010390000000000000170910000400482865                 4~1~483525                         
1482865    20230429EQ        INSTA126                 7908411733018                1.11           2      0928000000000001000000000000000189900000000000000189900000000000000018990000000000000170910000000000000108800000000000000000000000000000000034180000000000000000000000000000000002260000000000000010390000000000000170910000400482865                 4~1~483525                         
1482867    20230429AP        Técni365                 24422061            24422061 MEC            2      0929000000000001000000000000000650000000000000000650000000000000000221010000000000000428990000000000000169820000000000000000000000000000000085800000000000000000000000000000000000000000000000000000000000000000000428990000400482867                 4~1~482917                         
1482867    20230429AP        Técni365                 93205290            93205290 MEC            2      0929000000000002000000000000000044580000000000000089160000000000000030320000000000000058840000000000000020390000000000000000000000000000000011770000000000000000000000000000000000780000000000000003580000000000000058840000400482867                 4~1~482917                         
1482867    20230429AP        Técni365                 24422066            24422066 MEC            2      1037000000000001000000000000000135760000000000000135760000000000000046160000000000000089600000000000000028650000000000000000000000000000000017920000000000000000000000000000000000000000000000000000000000000000000089600000400482867                 4~1~482917                         
1482867    20230429AP        Técni365                 11516327X                    MEC            2      1122000000000001000000000000000008000000000000000008000000000000000002720000000000000005280000000000000001360000000000000000000000000000000001060000000000000000000000000000000000070000000000000000320000000000000005280000400482867                 4~1~482917                         
1482867    20230502AP        Técni365                 24581803            24581803 MEC            2      0915000000000001000000000000000464090000000000000464090000000000000157800000000000000306290000000000000110600000000000000000000000000000000061260000000000000000000000000000000000000000000000000000000000000000000306290000400482867                 4~1~482917                         
1482872    20230429AP        Técni384                 52169435            52169435 03             2      1002000000000001000000000000000167080000000000000167080000000000000000000000000000000167080000000000000167080000000000000000000000000000000033420000000000000000000000000000000000000000000000000000000000000000000167080000400482872                 4~1~483324                         
1482875    20230523ST        MECAN376                 02                           03             2      0933000000000001000000000000000032000000000000000032000000000000000000000000000000000032000000000000000032000000000000000000000000000000000006400000000000000000000000000000000000000000000000000000000000000000000032000000400482875                 4~1~485781                         
1482875    20230522ST        MECAN376                 VR90GL4                      03             2      1530000000000002000000000000000016240000000000000032490000000000000000000000000000000032490000000000000032490000000000000000000000000000000000000000000000000000000000000000000000540000000000000002470000000000000032490000400482875                 4~1~485781                         
1482875    20230512ST        MECAN376                 LA0472                       03             2      1508000000000001000000000000000022110000000000000022110000000000000000000000000000000022110000000000000022110000000000000000000000000000000004420000000000000000000000000000000000290000000000000001340000000000000022110000400482875                 4~1~485781                         
1482875    20230508ST        MECAN376                 LAM-PINGO                    03             2      1000000000000002000000000000000001140000000000000002290000000000000000000000000000000002290000000000000002290000000000000000000000000000000000460000000000000000000000000000000000030000000000000000140000000000000002290000400482875                 4~1~485781                         
1482875    20230512ST        MECAN376                 98550549            98550549 03             2      1131000000000004000000000000000032620000000000000130480000000000000000000000000000000130480000000000000130480000000000000000000000000000000000000000000000000000000000000000000001550000000000000007130000000000000130480000400482875                 4~1~485781                         
1482875    20230512ST        MECAN376                 12616850            12616850 03             2      1131000000000001000000000000000007460000000000000007460000000000000000000000000000000007460000000000000007460000000000000000000000000000000001490000000000000000000000000000000000100000000000000000450000000000000007460000400482875                 4~1~485781                         
1482875    20230511ST        MECAN376                 301420                       03             2      0913000000000001000000000000000023880000000000000023880000000000000000000000000000000023880000000000000023880000000000000000000000000000000004780000000000000000000000000000000000000000000000000000000000000000000023880000400482875                 4~1~485781                         
1482875    20230530ST        MECAN376                 ABRACADEIRA08                03             2      0850000000000001000000000000000002590000000000000002590000000000000000000000000000000002590000000000000002590000000000000000000000000000000000520000000000000000000000000000000000030000000000000000160000000000000002590000400482875                 4~1~485781                         
1482875    20230531ST        MECAN376                 DIV017                       03             2      1745000000010000000000000000000000030000000000000286280000000000000000000000000000000286280000000000000286280000000000000000000000000000000057260000000000000000000000000000000000000000000000000000000000000000000286280000400482875                 4~1~485781                         
1482875    20230503ST        MECAN376                 0890321185                   03             2      0949000000000001000000000000000017510000000000000017510000000000000000000000000000000017510000000000000017510000000000000000000000000000000003500000000000000000000000000000000000230000000000000001060000000000000017510000400482875                 4~1~485781                         
1482875    20230503ST        MECAN376                 JBRRYC003                    03             2      0949000000000001000000000000000050740000000000000050740000000000000000000000000000000050740000000000000050740000000000000000000000000000000010150000000000000000000000000000000000000000000000000000000000000000000050740000400482875                 4~1~485781                         
1482875    20230503ST        MECAN376                 52084725X                    03             2      0954000000000001000000000000000090000000000000000090000000000000000000000000000000000090000000000000000090000000000000000000000000000000000018000000000000000000000000000000000000000000000000000000000000000000000090000000400482875                 4~1~485781                         
1482875    20230503ST        MECAN376                 JBRRYC003                    03             2      1022000000000001000000000000000050740000000000000050740000000000000000000000000000000050740000000000000050740000000000000000000000000000000010150000000000000000000000000000000000000000000000000000000000000000000050740000400482875                 4~1~485781                         
1482876    20230503EQ        INSTA126                 26254479            26254479 1.11           2      0902000000000001000000000000000201000000000000000201000000000000000003940000000000000197060000000000000069960000000000000000000000000000000000000000000000000000000000000000000000000000000000000000000000000000000197060000400482876                                                    
