1215261    20230526               0                   11589295            11589295 REQ            1      1654000000000004000000000000000015000000000000000060000000000000000024340000000000000035660000000000000032140000000000000000000000000000000004280000000000000000000000000000000000520000000000000002380000000000000035660001200215261                 12~3~193543                        
1215261    20230525               0                   52100322            52100322 REQ            1      1118000000000001000000000000000126330000000000000126330000000000000051250000000000000075080000000000000072780000000000000000000000000000000009010000000000000000000000000000000000000000000000000000000000000000000075080001200215261                 12~3~193543                        
1215261    20230526               0                   52097821            52097821 REQ            1      1130000000000001000000000000000576060000000000000576060000000000000233720000000000000342340000000000000234240000000000000000000000000000000041080000000000000000000000000000000004970000000000000022900000000000000342340001200215261                 12~3~193543                        
1215261    20230510               0                   52055791            52055791 REQ            1      1426000000000001000000000000001599410000000000001599410000000000000648900000000000000950510000000000000827340000000000000000000000000000000114060000000000000000000000000000000000000000000000000000000000000000000950510001200215261                 12~3~193543                        
1215261    20230510               0                   52043231            52043231 REQ            1      1426000000000001000000000000000553610000000000000553610000000000000224610000000000000329000000000000000231650000000000000000000000000000000039480000000000000000000000000000000000000000000000000000000000000000000329000001200215261                 12~3~193543                        
1215261    20230510               0                   52150627            52150627 REQ            1      1426000000000001000000000000001462750000000000001462750000000000000593460000000000000869290000000000000568930000000000000000000000000000000104320000000000000000000000000000000000000000000000000000000000000000000869290001200215261                 12~3~193543                        
1215261    20230510               0                   52150628            52150628 REQ            1      1426000000000001000000000000001462750000000000001462750000000000000593460000000000000869290000000000000580310000000000000000000000000000000104320000000000000000000000000000000000000000000000000000000000000000000869290001200215261                 12~3~193543                        
1215261    20230510               0                   52090369            52090369 REQ            1      1426000000000001000000000000001802690000000000001802690000000000000731380000000000001071310000000000000696770000000000000000000000000000000128560000000000000000000000000000000000000000000000000000000000000000001071310001200215261                 12~3~193543                        
1215261    20230510               0                   52159359            52159359 REQ            1      1426000000000001000000000000002082790000000000002082790000000000000845020000000000001237770000000000000883100000000000000000000000000000000000000000000000000000000000000000000000000000000000000000000000000000001237770001200215261                 12~3~193543                        
1215261    20230510               0                   52140147            52140147 REQ            1      1426000000000001000000000000002609500000000000002609500000000000001058710000000000001550790000000000001101460000000000000000000000000000000000000000000000000000000000000000000000000000000000000000000000000000001550790001200215261                 12~3~193543                        
1215261    20230510               0                   52087649            52087649 REQ            1      1426000000000001000000000000000268110000000000000268110000000000000108780000000000000159330000000000000121250000000000000000000000000000000000000000000000000000000000000000000000000000000000000000000000000000000159330001200215261                 12~3~193543                        
1215261    20230510               0                   52089238            52089238 REQ            1      1426000000000001000000000000000307390000000000000307390000000000000124710000000000000182680000000000000159040000000000000000000000000000000000000000000000000000000000000000000000000000000000000000000000000000000182680001200215261                 12~3~193543                        
1215261    20230524               0                   52073582            52073582 REQ            1      1644000000000001000000000000000461400000000000000461400000000000000187200000000000000274200000000000000221290000000000000000000000000000000032900000000000000000000000000000000000000000000000000000000000000000000274200001200215261                 12~3~193543                        
1215261    20230522               0                   13513995            13513995 REQ            1      0859000000000001000000000000000435720000000000000435720000000000000176780000000000000258940000000000000163280000000000000000000000000000000031070000000000000000000000000000000000000000000000000000000000000000000258940001200215261                 12~3~193543                        
1215261    20230522               0                   94747899            94747899 REQ            1      0859000000000001000000000000000072590000000000000072590000000000000029450000000000000043140000000000000034660000000000000000000000000000000005180000000000000000000000000000000000630000000000000002880000000000000043140001200215261                 12~3~193543                        
1215261    20230522               0                   52154567            52154567 REQ            1      0859000000000001000000000000000101810000000000000101810000000000000041310000000000000060500000000000000057570000000000000000000000000000000007260000000000000000000000000000000000880000000000000004050000000000000060500001200215261                 12~3~193543                        
1215945    20230228AP        MECAN315                 25204556            25204556 MEC            2      0837000000000001000000000000000576770000000000000576770000000000000003340000000000000573430000000000000332730000000000000000000000000000000000000000000000000000000000000000000000000000000000000000000000000000000573430001200215945                 12~3~192709                        
1215945    20230228AP        MECAN315                 98551028                     MEC            2      0837000000000003000000000000000036510000000000000109520000000000000000630000000000000108880000000000000057540000000000000000000000000000000000000000000000000000000000000000000001800000000000000008280000000000000108880001200215945                 12~3~192709                        
1215945    20230505AP        MECAN315                 25204558            25204558 MEC            2      1538000000000001000000000000000400000000000000000400000000000000000002320000000000000397680000000000000257000000000000000000000000000000000000000000000000000000000000000000000000000000000000000000000000000000000397680001200215945                 12~3~192709                        
1216188    20230311AP        MECAN291                 52145467            52145467 4417120        GRL    0837000000000001000000000000000125000000000000000125000000000000000000000000000000000125000000000000000102330000000000000000000000000000000000000000000000000000000000000000000002060000000000000009500000000000000125000001200216188                 12~3~192960                        
1216300    20230317AP        MECAN291                 98500212            98500212 03             2      1022000000000001000000000000000439290000000000000439290000000000000000000000000000000439290000000000000439290000000000000000000000000000000000000000000000000000000000000000000000000000000000000000000000000000000439290001200216300                 12~3~193250                        
1216300    20230317AP        MECAN291                 93361395            93361395 03             2      1023000000000008000000000000000029410000000000000235260000000000000000000000000000000235260000000000000235260000000000000000000000000000000000000000000000000000000000000000000000000000000000000000000000000000000235260001200216300                 12~3~193250                        
1216300    20230317AP        MECAN291                 88904447            88904447 03             2      1113000000000001000000000000000022810000000000000022810000000000000000000000000000000022810000000000000022810000000000000000000000000000000000000000000000000000000000000000000000270000000000000001230000000000000022810001200216300                 12~3~193250                        
1216520    20230510               0                   93339100            93339100 REQ            1      0954000000000001000000000000000018330000000000000018330000000000000006190000000000000012140000000000000007800000000000000000000000000000000000000000000000000000000000000000000000170000000000000000770000000000000012140001200216520                 12~3~192954                        
1216520    20230510               0                   52127845            52127845 REQ            1      1150000000000001000000000000000223330000000000000223330000000000000075460000000000000147870000000000000097650000000000000000000000000000000000000000000000000000000000000000000000000000000000000000000000000000000147870001200216520                 12~3~192954                        
1216520    20230331               0                   52133883            52133883 REQ            1      1112000000000001000000000000000703790000000000000703790000000000000237790000000000000466000000000000000346900000000000000000000000000000000000000000000000000000000000000000000000000000000000000000000000000000000466000001200216520                 12~3~192954                        
1216520    20230331               0                   52073582            52073582 REQ            1      1112000000000001000000000000000304850000000000000304850000000000000103000000000000000201850000000000000176130000000000000000000000000000000000000000000000000000000000000000000000000000000000000000000000000000000201850001200216520                 12~3~192954                        
1216520    20230331               0                   52066754            52066754 REQ            1      1112000000000001000000000000000260920000000000000260920000000000000088160000000000000172760000000000000145720000000000000000000000000000000000000000000000000000000000000000000002240000000000000010310000000000000172760001200216520                 12~3~192954                        
1216520    20230331               0                   52066755            52066755 REQ            1      1112000000000001000000000000000262390000000000000262390000000000000088650000000000000173740000000000000148620000000000000000000000000000000000000000000000000000000000000000000002250000000000000010370000000000000173740001200216520                 12~3~192954                        
1216520    20230331               0                   94747899            94747899 REQ            1      1112000000000001000000000000000072590000000000000072590000000000000024530000000000000048060000000000000033380000000000000000000000000000000000000000000000000000000000000000000000650000000000000002980000000000000048060001200216520                 12~3~192954                        
1216520    20230331               0                   13513995            13513995 REQ            1      1112000000000001000000000000000252400000000000000252400000000000000085280000000000000167120000000000000173820000000000000000000000000000000000000000000000000000000000000000000000000000000000000000000000000000000167120001200216520                 12~3~192954                        
1216520    20230331               0                   94746850            94746850 REQ            1      1112000000000001000000000000000197660000000000000197660000000000000066780000000000000130880000000000000095560000000000000000000000000000000000000000000000000000000000000000000000000000000000000000000000000000000130880001200216520                 12~3~192954                        
1216520    20230331               0                   52137557            52137557 REQ            1      1112000000000001000000000000000169550000000000000169550000000000000057290000000000000112260000000000000095020000000000000000000000000000000000000000000000000000000000000000000000000000000000000000000000000000000112260001200216520                 12~3~192954                        
1216520    20230331               0                   52137556            52137556 REQ            1      1112000000000001000000000000000231610000000000000231610000000000000078250000000000000153360000000000000098370000000000000000000000000000000000000000000000000000000000000000000000000000000000000000000000000000000153360001200216520                 12~3~192954                        
1216520    20230331               0                   52137181            52137181 REQ            1      1112000000000001000000000000001491600000000000001491600000000000000503970000000000000987630000000000000755800000000000000000000000000000000000000000000000000000000000000000000000000000000000000000000000000000000987630001200216520                 12~3~192954                        
1216520    20230331               0                   52137180            52137180 REQ            1      1112000000000001000000000000001491600000000000001491600000000000000503970000000000000987630000000000000764460000000000000000000000000000000000000000000000000000000000000000000000000000000000000000000000000000000987630001200216520                 12~3~192954                        
1216520    20230331               0                   52087649            52087649 REQ            1      1112000000000001000000000000000268110000000000000268110000000000000090590000000000000177520000000000000121250000000000000000000000000000000000000000000000000000000000000000000000000000000000000000000000000000000177520001200216520                 12~3~192954                        
1216520    20230331               0                   52159359            52159359 REQ            1      1112000000000001000000000000002082390000000000002082390000000000000703570000000000001378820000000000000883100000000000000000000000000000000000000000000000000000000000000000000000000000000000000000000000000000001378820001200216520                 12~3~192954                        
1216520    20230331               0                   52159763            52159763 REQ            1      1112000000000001000000000000003788640000000000003788640000000000001280060000000000002508580000000000001688600000000000000000000000000000000000000000000000000000000000000000000000000000000000000000000000000000002508580001200216520                 12~3~192954                        
1216520    20230512               0                   52106426            52106426 REQ            1      0947000000000001000000000000000129590000000000000129590000000000000043780000000000000085810000000000000073160000000000000000000000000000000000000000000000000000000000000000000000000000000000000000000000000000000085810001200216520                 12~3~192954                        
1216520    20230515               0                   93295145            93295145 REQ            1      1645000000000001000000000000000080000000000000000080000000000000000027030000000000000052970000000000000060990000000000000000000000000000000000000000000000000000000000000000000000530000000000000002450000000000000052970001200216520                 12~3~192954                        
1216520    20230515               0                   94700208            94700208 REQ            1      1645000000000001000000000000000040000000000000000040000000000000000013510000000000000026490000000000000025620000000000000000000000000000000000000000000000000000000000000000000000000000000000000000000000000000000026490001200216520                 12~3~192954                        
1216520    20230515               0                   KIT STP 111                  REQ            1      1645000000000001000000000000000040000000000000000040000000000000000013510000000000000026490000000000000028490000000000000000000000000000000000000000000000000000000000000000000000440000000000000002010000000000000026490001200216520                 12~3~192954                        
1216520    20230515               0                   98551032            98551032 REQ            1      1645000000000003000000000000000060000000000000000180000000000000000060820000000000000119180000000000000104080000000000000000000000000000000000000000000000000000000000000000000001460000000000000006710000000000000119180001200216520                 12~3~192954                        
1216520    20230515               0                   24590696            24590696 REQ            1      1645000000000001000000000000000400000000000000000400000000000000000135150000000000000264850000000000000279900000000000000000000000000000000000000000000000000000000000000000000000000000000000000000000000000000000264850001200216520                 12~3~192954                        
1216520    20230515               0                   26304812            26304812 REQ            1      1645000000000001000000000000000500000000000000000500000000000000000168930000000000000331070000000000000332390000000000000000000000000000000000000000000000000000000000000000000000000000000000000000000000000000000331070001200216520                 12~3~192954                        
1216520    20230515               0                   FFMDOT4                      REQ            1      1645000000000001000000000000000012780000000000000012780000000000000004320000000000000008460000000000000008730000000000000000000000000000000000000000000000000000000000000000000000100000000000000000450000000000000008460001200216520                 12~3~192954                        
1216520    20230515               0                   11609737            11609737 REQ            1      1645000000000001000000000000000060000000000000000060000000000000000020270000000000000039730000000000000041870000000000000000000000000000000000000000000000000000000000000000000000480000000000000002230000000000000039730001200216520                 12~3~192954                        
1216520    20230515               0                   13503356            13503356 REQ            1      1645000000000001000000000000000050000000000000000050000000000000000016890000000000000033110000000000000032510000000000000000000000000000000000000000000000000000000000000000000000550000000000000002520000000000000033110001200216520                 12~3~192954                        
1216520    20230515               0                   52157165            52157165 REQ            1      1645000000000001000000000000000500000000000000000500000000000000000168930000000000000331070000000000000373940000000000000000000000000000000000000000000000000000000000000000000003710000000000000017080000000000000331070001200216520                 12~3~192954                        
1216520    20230515               0                   52159289            52159289 REQ            1      1645000000000001000000000000000500000000000000000500000000000000000168930000000000000331070000000000000290220000000000000000000000000000000000000000000000000000000000000000000004320000000000000019920000000000000331070001200216520                 12~3~192954                        
1216520    20230515               0                   1350139                      REQ            1      1645000000000001000000000000000152700000000000000152700000000000000051590000000000000101110000000000000106120000000000000000000000000000000000000000000000000000000000000000000001180000000000000005420000000000000101110001200216520                 12~3~192954                        
1216520    20230406               0                   52124912            52124912 REQ            1      1431000000000001000000000000000808750000000000000808750000000000000273250000000000000535500000000000000442500000000000000000000000000000000000000000000000000000000000000000000000000000000000000000000000000000000535500001200216520                 12~3~192954                        
1216520    20230406               0                   52155877            52155877 REQ            1      1431000000000001000000000000000667230000000000000667230000000000000225440000000000000441790000000000000424790000000000000000000000000000000000000000000000000000000000000000000000000000000000000000000000000000000441790001200216520                 12~3~192954                        
1216520    20230505               0                   52170723            52170723 REQ            1      0959000000000001000000000000001316520000000000001316520000000000000444810000000000000871710000000000000597450000000000000000000000000000000000000000000000000000000000000000000000000000000000000000000000000000000871710001200216520                 12~3~192954                        
1216520    20230505               0                   52134090            52134090 REQ            1      0959000000000001000000000000000329550000000000000329550000000000000111340000000000000218210000000000000169720000000000000000000000000000000000000000000000000000000000000000000000000000000000000000000000000000000218210001200216520                 12~3~192954                        
1216520    20230505               0                   52157606            52157606 REQ            1      0959000000000001000000000000000035820000000000000035820000000000000012100000000000000023720000000000000018020000000000000000000000000000000000000000000000000000000000000000000000000000000000000000000000000000000023720001200216520                 12~3~192954                        
1216520    20230505               0                   52157607            52157607 REQ            1      0959000000000001000000000000000037290000000000000037290000000000000012600000000000000024690000000000000017750000000000000000000000000000000000000000000000000000000000000000000000000000000000000000000000000000000024690001200216520                 12~3~192954                        
1216520    20230417               0                   52101916            52101916 REQ            1      0902000000000001000000000000000225500000000000000225500000000000000076190000000000000149310000000000000118590000000000000000000000000000000000000000000000000000000000000000000000000000000000000000000000000000000149310001200216520                 12~3~192954                        
1216520    20230403               0                   52101538            52101538 REQ            1      0958000000000001000000000000000266190000000000000266190000000000000089940000000000000176250000000000000112740000000000000000000000000000000000000000000000000000000000000000000002470000000000000011380000000000000176250001200216520                 12~3~192954                        
1216520    20230403               0                   94706854            94706854 REQ            1      0958000000000001000000000000000070580000000000000070580000000000000023850000000000000046730000000000000039160000000000000000000000000000000000000000000000000000000000000000000000610000000000000002790000000000000046730001200216520                 12~3~192954                        
1216520    20230403               0                   52159766            52159766 REQ            1      0958000000000001000000000000003788640000000000003788640000000000001280060000000000002508580000000000001129640000000000000000000000000000000000000000000000000000000000000000000000000000000000000000000000000000002508580001200216520                 12~3~192954                        
1216520    20230403               0                   52140146            52140146 REQ            1      0958000000000001000000000000004270780000000000004270780000000000001442960000000000002827820000000000002068130000000000000000000000000000000000000000000000000000000000000000000000000000000000000000000000000000002827820001200216520                 12~3~192954                        
1216621    20230511               0                   26699868            26699868 REQ            1      1430000000000001000000000000000049980000000000000049980000000000000019680000000000000030300000000000000021090000000000000000000000000000000000000000000000000000000000000000000000000000000000000000000000000000000030300001200216621                 12~3~193684                        
1216621    20230511               0                   26244313            26244313 REQ            1      1601000000000001000000000000000268620000000000000268620000000000000105790000000000000162830000000000000081820000000000000000000000000000000000000000000000000000000000000000000000000000000000000000000000000000000162830001200216621                 12~3~193684                        
1216621    20230511               0                   26224657            26224657 REQ            1      1701000000000001000000000000000117830000000000000117830000000000000046400000000000000071430000000000000039440000000000000000000000000000000000000000000000000000000000000000000000000000000000000000000000000000000071430001200216621                 12~3~193684                        
1216621    20230404               0                   26284578            26284578 REQ            1      1051000000000001000000000000001345090000000000001345090000000000000529720000000000000815370000000000000616530000000000000000000000000000000000000000000000000000000000000000000000000000000000000000000000000000000815370001200216621                 12~3~193684                        
1216621    20230404               0                   26212147            26212147 REQ            1      1051000000000001000000000000000090820000000000000090820000000000000035770000000000000055050000000000000052880000000000000000000000000000000000000000000000000000000000000000000000000000000000000000000000000000000055050001200216621                 12~3~193684                        
1216621    20230404               0                   26309589            26309589 REQ            1      1051000000000001000000000000003000710000000000003000710000000000001181720000000000001818990000000000001254290000000000000000000000000000000000000000000000000000000000000000000000000000000000000000000000000000001818990001200216621                 12~3~193684                        
1216621    20230404               0                   26344869            26344869 REQ            1      1051000000000001000000000000000506700000000000000506700000000000000199550000000000000307150000000000000231580000000000000000000000000000000000000000000000000000000000000000000000000000000000000000000000000000000307150001200216621                 12~3~193684                        
1216621    20230404               0                   26344871            26344871 REQ            1      1051000000000001000000000000001617840000000000001617840000000000000637130000000000000980710000000000000767930000000000000000000000000000000000000000000000000000000000000000000000000000000000000000000000000000000980710001200216621                 12~3~193684                        
1216621    20230404               0                   26223758            26223758 REQ            1      1051000000000001000000000000000057490000000000000057490000000000000022640000000000000034850000000000000031190000000000000000000000000000000000000000000000000000000000000000000000450000000000000002060000000000000034850001200216621                 12~3~193684                        
1216621    20230404               0                   26280578            26280578 REQ            1      1051000000000001000000000000000654770000000000000654770000000000000257860000000000000396910000000000000334290000000000000000000000000000000000000000000000000000000000000000000000000000000000000000000000000000000396910001200216621                 12~3~193684                        
1216621    20230404               0                   26356944            26356944 REQ            1      1056000000000001000000000000003247860000000000003247860000000000001279050000000000001968810000000000001947480000000000000000000000000000000000000000000000000000000000000000000000000000000000000000000000000000001968810001200216621                 12~3~193684                        
1216621    20230531               0                   42422779            42422779 REQ            1      1529000000000001000000000000000441160000000000000441160000000000000173740000000000000267420000000000000226710000000000000000000000000000000000000000000000000000000000000000000000000000000000000000000000000000000267420001200216621                 12~3~193684                        
1216621    20230526               0                   13503395            13503395 REQ            1      1001000000000001000000000000000020160000000000000020160000000000000007940000000000000012220000000000000002840000000000000000000000000000000000000000000000000000000000000000000000190000000000000000870000000000000012220001200216621                 12~3~193684                        
1216621    20230420               0                   26311883            26311883 REQ            1      1501000000000001000000000000000682180000000000000682180000000000000268650000000000000413530000000000000350060000000000000000000000000000000000000000000000000000000000000000000000000000000000000000000000000000000413530001200216621                 12~3~193684                        
1216621    20230420               0                   26307045            26307045 REQ            1      1501000000000001000000000000000539230000000000000539230000000000000212360000000000000326870000000000000242260000000000000000000000000000000000000000000000000000000000000000000004350000000000000020050000000000000326870001200216621                 12~3~193684                        
1216621    20230414               0                   26292329            26292329 REQ            1      1544000000000001000000000000000565620000000000000565620000000000000222750000000000000342870000000000000283250000000000000000000000000000000000000000000000000000000000000000000000000000000000000000000000000000000342870001200216621                 12~3~193684                        
1216621    20230414               0                   26262065            26262065 REQ            1      1544000000000001000000000000000916700000000000000916700000000000000361010000000000000555690000000000000475390000000000000000000000000000000000000000000000000000000000000000000000000000000000000000000000000000000555690001200216621                 12~3~193684                        
1216621    20230414               0                   26293813            26293813 REQ            1      1544000000000001000000000000000212190000000000000212190000000000000083560000000000000128630000000000000121000000000000000000000000000000000000000000000000000000000000000000000000000000000000000000000000000000000128630001200216621                 12~3~193684                        
1216621    20230414               0                   26292327            26292327 REQ            1      1544000000000001000000000000000552660000000000000552660000000000000217650000000000000335010000000000000276780000000000000000000000000000000000000000000000000000000000000000000000000000000000000000000000000000000335010001200216621                 12~3~193684                        
1216621    20230510               0                   98551028                     REQ            1      1427000000000003000000000000000036510000000000000109520000000000000043130000000000000066390000000000000061530000000000000000000000000000000000000000000000000000000000000000000000840000000000000003880000000000000066390001200216621                 12~3~193684                        
1216621    20230510               0                   26700213            26700213 REQ            1      1533000000000001000000000000000064560000000000000064560000000000000025420000000000000039140000000000000014700000000000000000000000000000000000000000000000000000000000000000000000590000000000000002700000000000000039140001200216621                 12~3~193684                        
1216621    20230510               0                   26699866            26699866 REQ            1      1533000000000001000000000000000083510000000000000083510000000000000032890000000000000050620000000000000017610000000000000000000000000000000000000000000000000000000000000000000000750000000000000003470000000000000050620001200216621                 12~3~193684                        
1216621    20230428               0                   26367243            26367243 REQ            1      1026000000000001000000000000004824170000000000004824170000000000001899830000000000002924340000000000002790990000000000000000000000000000000000000000000000000000000000000000000000000000000000000000000000000000002924340001200216621                 12~3~193684                        
1216621    20230428               0                   26695217            26695217 REQ            1      1027000000000001000000000000000510940000000000000510940000000000000201220000000000000309720000000000000268720000000000000000000000000000000000000000000000000000000000000000000000000000000000000000000000000000000309720001200216621                 12~3~193684                        
1216621    20230428               0                   26274175            26274175 REQ            1      1123000000000001000000000000000184390000000000000184390000000000000072620000000000000111770000000000000097140000000000000000000000000000000000000000000000000000000000000000000000000000000000000000000000000000000111770001200216621                 12~3~193684                        
1216621    20230506               0                   26307959            26307959 REQ            1      1122000000000001000000000000003598350000000000003598350000000000001417080000000000002181270000000000001202030000000000000000000000000000000000000000000000000000000000000000000000000000000000000000000000000000002181270001200216621                 12~3~193684                        
1216621    20230512               0                   26699866            26699866 REQ            1      1535000000000001000000000000000083510000000000000083510000000000000032890000000000000050620000000000000017610000000000000000000000000000000000000000000000000000000000000000000000750000000000000003470000000000000050620001200216621                 12~3~193684                        
1216621    20230406               0                   26212185            26212185 REQ            1      0856000000000001000000000000000295390000000000000295390000000000000116330000000000000179060000000000000144680000000000000000000000000000000000000000000000000000000000000000000000000000000000000000000000000000000179060001200216621                 12~3~193684                        
1216621    20230406               0                   26700212            26700212 REQ            1      0856000000000001000000000000000033260000000000000033260000000000000013100000000000000020160000000000000013990000000000000000000000000000000000000000000000000000000000000000000000270000000000000001240000000000000020160001200216621                 12~3~193684                        
1216621    20230406               0                   26318045            26318045 REQ            1      0856000000000001000000000000000045690000000000000045690000000000000017990000000000000027700000000000000016810000000000000000000000000000000000000000000000000000000000000000000000380000000000000001740000000000000027700001200216621                 12~3~193684                        
1216621    20230505               0                   26700162            26700162 REQ            1      1508000000000001000000000000000116900000000000000116900000000000000046040000000000000070860000000000000054010000000000000000000000000000000000000000000000000000000000000000000001170000000000000005390000000000000070860001200216621                 12~3~193684                        
1216621    20230505               0                   26285349            26285349 REQ            1      1508000000000001000000000000002648670000000000002648670000000000001043080000000000001605590000000000001511540000000000000000000000000000000000000000000000000000000000000000000000000000000000000000000000000000001605590001200216621                 12~3~193684                        
1216621    20230505               0                   11610544            11610544 REQ            1      1533000000000002000000000000000018000000000000000036000000000000000014180000000000000021820000000000000017570000000000000000000000000000000000000000000000000000000000000000000000290000000000000001330000000000000021820001200216621                 12~3~193684                        
1216621    20230523               0                   26403937            26403937 REQ            1      1520000000000001000000000000008130830000000000008130830000000000003202040000000000004928790000000000002219040000000000000000000000000000000000000000000000000000000000000000000000000000000000000000000000000000004928790001200216621                 12~3~193684                        
1216621    20230509               0                   93286309            93286309 REQ            1      1507000000000001000000000000000126720000000000000126720000000000000049900000000000000076820000000000000042400000000000000000000000000000000000000000000000000000000000000000000001140000000000000005260000000000000076820001200216621                 12~3~193684                        
1216621    20230509               0                   AGUA01                       REQ            1      1507000000000004000000000000000010000000000000000040000000000000000015750000000000000024250000000000000005770000000000000000000000000000000000000000000000000000000000000000000000400000000000000001840000000000000024250001200216621                 12~3~193684                        
1216621    20230509               0                   26306227            26306227 REQ            1      1530000000000001000000000000000104240000000000000104240000000000000041050000000000000063190000000000000048520000000000000000000000000000000000000000000000000000000000000000000000000000000000000000000000000000000063190001200216621                 12~3~193684                        
1216642    20230404AP        INSTA320                 DIV00735                     1.11           2      1737000000000001000000000000000043600000000000000043600000000000000000000000000000000043600000000000000043600000000000000000000000000000000000000000000000000000000000000000000000720000000000000003310000000000000043600001200216642                 12~3~192496                        
1216732    20230411AP        INSTA320                 ACS1901                      1.11           2      1129000000000001000000000000000600000000000000000600000000000000000300000000000000000300000000000000000313090000000000000000000000000000000000000000000000000000000000000000000004950000000000000022800000000000000300000001200216732                 12~3~193152                        
1216732    20230411AP        INSTA320                 ACS1902                      1.11           2      1129000000000001000000000000000700000000000000000700000000000000000350000000000000000350000000000000000313090000000000000000000000000000000000000000000000000000000000000000000005780000000000000026600000000000000350000001200216732                 12~3~193152                        
1216732    20230411AP        INSTA320                 26355515            26355515 1.11           2      1129000000000001000000000000000400000000000000000400000000000000000200000000000000000200000000000000000163430000000000000000000000000000000000000000000000000000000000000000000000000000000000000000000000000000000200000001200216732                 12~3~193152                        
1216732    20230411AP        INSTA320                 52177596            52177596 1.11           2      1129000000000001000000000000003200000000000000003200000000000000001600000000000000001600000000000000001588090000000000000000000000000000000000000000000000000000000000000000000000000000000000000000000000000000001600000001200216732                 12~3~193152                        
1216732    20230411AP        INSTA320                 98553843            98553843 1.11           2      1129000000000001000000000000002200000000000000002200000000000000001100000000000000001100000000000000000991330000000000000000000000000000000000000000000000000000000000000000000000000000000000000000000000000000001100000001200216732                 12~3~193152                        
1216732    20230411AP        INSTA320                 98553954            98553954 1.11           2      1129000000000001000000000000001090000000000000001090000000000000000545000000000000000545000000000000000603490000000000000000000000000000000000000000000000000000000000000000000000000000000000000000000000000000000545000001200216732                 12~3~193152                        
1216732    20230411AP        INSTA320                 98553976            98553976 1.11           2      1129000000000001000000000000000500000000000000000500000000000000000250000000000000000250000000000000000481310000000000000000000000000000000000000000000000000000000000000000000001770000000000000008160000000000000250000001200216732                 12~3~193152                        
1216732    20230411AP        INSTA320                 98553977            98553977 1.11           2      1129000000000001000000000000000280000000000000000280000000000000000140000000000000000140000000000000000087000000000000000000000000000000000000000000000000000000000000000000000001880000000000000008660000000000000140000001200216732                 12~3~193152                        
1216742    20230412AP        INSTA320                 98553977            98553977 1.11           2      0923000000000001000000000000000087000000000000000087000000000000000000000000000000000087000000000000000087000000000000000000000000000000000000000000000000000000000000000000000001010000000000000004640000000000000087000001200216742                 12~3~192495                        
1216763    20230413AP        INSTA320                 NT1104                       1.11           2      1551000000000001000000000000000847070000000000000847070000000000000000000000000000000847070000000000000847070000000000000000000000000000000000000000000000000000000000000000000000000000000000000000000000000000000847070001200216763                 12~3~192427                        
1216763    20230413AP        INSTA320                 26316989            26316989 1.11           2      1751000000000001000000000000000140330000000000000140330000000000000000000000000000000140330000000000000140330000000000000000000000000000000000000000000000000000000000000000000000000000000000000000000000000000000140330001200216763                 12~3~192427                        
1216763    20230413AP        INSTA320                 ACS190                       1.11           2      1007000000000001000000000000000164550000000000000164550000000000000000000000000000000164550000000000000164550000000000000000000000000000000000000000000000000000000000000000000002720000000000000012510000000000000164550001200216763                 12~3~192427                        
1216763    20230413AP        INSTA320                 26355515            26355515 1.11           2      1007000000000001000000000000000163430000000000000163430000000000000000000000000000000163430000000000000163430000000000000000000000000000000000000000000000000000000000000000000000000000000000000000000000000000000163430001200216763                 12~3~192427                        
1216763    20230413AP        INSTA320                 98551348            98551348 1.11           2      1007000000000001000000000000000098750000000000000098750000000000000000000000000000000098750000000000000098750000000000000000000000000000000000000000000000000000000000000000000000000000000000000000000000000000000098750001200216763                 12~3~192427                        
1216763    20230413AP        INSTA320                 98551306            98551306 1.11           2      1140000000000001000000000000000333660000000000000333660000000000000000000000000000000333660000000000000333660000000000000000000000000000000000000000000000000000000000000000000003880000000000000017850000000000000333660001200216763                 12~3~192427                        
1216812    20230531               0                   93291111            93291111 REQ            1      1001000000000001000000000000000350000000000000000350000000000000000126640000000000000223360000000000000251700000000000000000000000000000000000000000000000000000000000000000000003690000000000000016980000000000000223360001200216812                 12~3~193676                        
1216812    20230531               0                   11571159            11571159 REQ            1      1432000000000001000000000000000012000000000000000012000000000000000004340000000000000007660000000000000004350000000000000000000000000000000000000000000000000000000000000000000000130000000000000000580000000000000007660001200216812                 12~3~193676                        
1216812    20230531               0                   0890100440                   REQ            1      1432000000000002000000000000000080000000000000000160000000000000000057890000000000000102110000000000000090730000000000000000000000000000000000000000000000000000000000000000000001680000000000000007760000000000000102110001200216812                 12~3~193676                        
1216812    20230531               0                   94760584            94760584 REQ            1      1432000000000001000000000000000800000000000000000800000000000000000289460000000000000510540000000000000486740000000000000000000000000000000061260000000000000000000000000000000000000000000000000000000000000000000510540001200216812                 12~3~193676                        
1216812    20230531               0                   84150738            84150738 REQ            1      1432000000000001000000000000003000000000000000003000000000000000001085480000000000001914520000000000001787580000000000000000000000000000000000000000000000000000000000000000000000000000000000000000000000000000001914520001200216812                 12~3~193676                        
1216812    20230418               0                   52159766            52159766 REQ            1      1522000000000001000000000000004167500000000000004167500000000000001507910000000000002659590000000000001814940000000000000000000000000000000000000000000000000000000000000000000000000000000000000000000000000000002659590001200216812                 12~3~193676                        
1216812    20230418               0                   52159763            52159763 REQ            1      1522000000000001000000000000004167500000000000004167500000000000001507910000000000002659590000000000001688600000000000000000000000000000000000000000000000000000000000000000000000000000000000000000000000000000002659590001200216812                 12~3~193676                        
1216812    20230418               0                   52101538            52101538 REQ            1      1522000000000001000000000000000266190000000000000266190000000000000096310000000000000169880000000000000144860000000000000000000000000000000000000000000000000000000000000000000002800000000000000012910000000000000169880001200216812                 12~3~193676                        
1216812    20230418               0                   52140146            52140146 REQ            1      1522000000000001000000000000004484310000000000004484310000000000001622540000000000002861770000000000002068130000000000000000000000000000000000000000000000000000000000000000000000000000000000000000000000000000002861770001200216812                 12~3~193676                        
1216812    20230531               0                   52087649            52087649 REQ            1      0907000000000001000000000000000275040000000000000275040000000000000099520000000000000175520000000000000121250000000000000000000000000000000000000000000000000000000000000000000000000000000000000000000000000000000175520001200216812                 12~3~193676                        
1216812    20230428               0                   52066755            52066755 REQ            1      1116000000000001000000000000000262390000000000000262390000000000000094940000000000000167450000000000000148620000000000000000000000000000000000000000000000000000000000000000000002760000000000000012730000000000000167450001200216812                 12~3~193676                        
1216812    20230428               0                   52066754            52066754 REQ            1      1116000000000001000000000000000260920000000000000260920000000000000094410000000000000166510000000000000145720000000000000000000000000000000000000000000000000000000000000000000002750000000000000012650000000000000166510001200216812                 12~3~193676                        
1216812    20230428               0                   52166719            52166719 REQ            1      1116000000000001000000000000000582670000000000000582670000000000000210820000000000000371850000000000000337090000000000000000000000000000000000000000000000000000000000000000000000000000000000000000000000000000000371850001200216812                 12~3~193676                        
1216812    20230426               0                   52140272            52140272 REQ            1      0926000000000001000000000000000106120000000000000106120000000000000038400000000000000067720000000000000055810000000000000000000000000000000000000000000000000000000000000000000000000000000000000000000000000000000067720001200216812                 12~3~193676                        
1216812    20230530               0                   94746850            94746850 REQ            1      1149000000000001000000000000000197660000000000000197660000000000000071520000000000000126140000000000000095560000000000000000000000000000000000000000000000000000000000000000000000000000000000000000000000000000000126140001200216812                 12~3~193676                        
1216812    20230417               0                   52134090            52134090 REQ            1      1500000000000001000000000000000329550000000000000329550000000000000119240000000000000210310000000000000170930000000000000000000000000000000000000000000000000000000000000000000000000000000000000000000000000000000210310001200216812                 12~3~193676                        
1216812    20230417               0                   13526495            13526495 REQ            1      1500000000000001000000000000000076460000000000000076460000000000000027670000000000000048790000000000000040250000000000000000000000000000000000000000000000000000000000000000000000000000000000000000000000000000000048790001200216812                 12~3~193676                        
1216812    20230417               0                   52137181            52137181 REQ            1      1500000000000001000000000000001491600000000000001491600000000000000539700000000000000951900000000000000770950000000000000000000000000000000000000000000000000000000000000000000000000000000000000000000000000000000951900001200216812                 12~3~193676                        
1216812    20230417               0                   52137180            52137180 REQ            1      1500000000000001000000000000001491600000000000001491600000000000000539700000000000000951900000000000000773110000000000000000000000000000000000000000000000000000000000000000000000000000000000000000000000000000000951900001200216812                 12~3~193676                        
1216812    20230417               0                   52129205            52129205 REQ            1      1500000000000001000000000000001230320000000000001230320000000000000445160000000000000785160000000000000506700000000000000000000000000000000000000000000000000000000000000000000000000000000000000000000000000000000785160001200216812                 12~3~193676                        
1216812    20230417               0                   52140271            52140271 REQ            1      1500000000000001000000000000000158870000000000000158870000000000000057480000000000000101390000000000000055390000000000000000000000000000000000000000000000000000000000000000000000000000000000000000000000000000000101390001200216812                 12~3~193676                        
1216812    20230417               0                   52133883            52133883 REQ            1      1500000000000001000000000000000714150000000000000714150000000000000258400000000000000455750000000000000379660000000000000000000000000000000000000000000000000000000000000000000000000000000000000000000000000000000455750001200216812                 12~3~193676                        
1216812    20230417               0                   52159359            52159359 REQ            1      1500000000000001000000000000002082920000000000002082920000000000000753650000000000001329270000000000000883100000000000000000000000000000000000000000000000000000000000000000000000000000000000000000000000000000001329270001200216812                 12~3~193676                        
1216812    20230417               0                   52073582            52073582 REQ            1      1500000000000001000000000000000461400000000000000461400000000000000166950000000000000294450000000000000221290000000000000000000000000000000000000000000000000000000000000000000000000000000000000000000000000000000294450001200216812                 12~3~193676                        
1216812    20230417               0                   94747899            94747899 REQ            1      1500000000000001000000000000000072590000000000000072590000000000000026260000000000000046330000000000000034660000000000000000000000000000000000000000000000000000000000000000000000760000000000000003520000000000000046330001200216812                 12~3~193676                        
1216812    20230417               0                   94706854            94706854 REQ            1      1500000000000001000000000000000070580000000000000070580000000000000025540000000000000045040000000000000039870000000000000000000000000000000000000000000000000000000000000000000000740000000000000003420000000000000045040001200216812                 12~3~193676                        
1216848    20230419               0                   26224720            26224720 REQ            1      1404000000000001000000000000000052950000000000000052950000000000000015130000000000000037820000000000000022800000000000000000000000000000000000000000000000000000000000000000000000530000000000000002430000000000000037820001200216848                 12~3~192704                        
1216848    20230419               0                   26224719            26224719 REQ            1      1404000000000001000000000000000086890000000000000086890000000000000024830000000000000062060000000000000036160000000000000000000000000000000000000000000000000000000000000000000000860000000000000003940000000000000062060001200216848                 12~3~192704                        
1216848    20230419               0                   26210982            26210982 REQ            1      1404000000000001000000000000000119980000000000000119980000000000000034280000000000000085700000000000000061920000000000000000000000000000000000000000000000000000000000000000000000000000000000000000000000000000000085700001200216848                 12~3~192704                        
1216848    20230419               0                   26252693            26252693 REQ            1      1404000000000001000000000000000056670000000000000056670000000000000016190000000000000040480000000000000034050000000000000000000000000000000000000000000000000000000000000000000000000000000000000000000000000000000040480001200216848                 12~3~192704                        
1216848    20230419               0                   26347695            26347695 REQ            1      1404000000000001000000000000001315620000000000001315620000000000000375890000000000000939730000000000000648770000000000000000000000000000000000000000000000000000000000000000000000000000000000000000000000000000000939730001200216848                 12~3~192704                        
1216865    20230420AP        INSTA320                 26307581            26307581 1.11           2      0910000000000001000000000000000290000000000000000290000000000000000000000000000000000290000000000000000127650000000000000000000000000000000000000000000000000000000000000000000000000000000000000000000000000000000290000001200216865                 12~3~193607                        
1216897    20230424AP        INSTA320                 52042048            52042048 1.11           2      1654000000000001000000000000000300000000000000000300000000000000000010000000000000000290000000000000000128610000000000000000000000000000000000000000000000000000000000000000000000000000000000000000000000000000000290000001200216897                 12~3~192482                        
1216943    20230426AP        MECAN291                 22895243            22895243 1              4      1507000000000001000000000000000004770000000000000004770000000000000000000000000000000004770000000000000004770000000000000000000000000000000000000000000000000000000000000000000000000000000000000000000000000000000004770001200216943                 12~3~193248                        
1216957    20230428               0                   26310048            26310048 REQ            1      1118000000000001000000000000001891880000000000001891880000000000000742200000000000001149680000000000001031930000000000000000000000000000000000000000000000000000000000000000000000000000000000000000000000000000001149680001200216957                 12~3~192829                        
1216957    20230427               0                   26288279            26288279 REQ            1      1141000000000001000000000000001623650000000000001623650000000000000636970000000000000986680000000000000666750000000000000000000000000000000000000000000000000000000000000000000000000000000000000000000000000000000986680001200216957                 12~3~192829                        
1216957    20230427               0                   26307959            26307959 REQ            1      1141000000000001000000000000002389200000000000002389200000000000000937300000000000001451900000000000001202030000000000000000000000000000000000000000000000000000000000000000000000000000000000000000000000000000001451900001200216957                 12~3~192829                        
1216976    20230428AP        INSTA320                 26355515            26355515 1.11           2      1006000000000001000000000000000399000000000000000399000000000000000000000000000000000399000000000000000163430000000000000000000000000000000000000000000000000000000000000000000000000000000000000000000000000000000399000001200216976                 12~3~193037                        
1216976    20230428AP        INSTA320                 52167086            52167086 1.11           2      1006000000000001000000000000000400000000000000000400000000000000000000000000000000000400000000000000000193750000000000000000000000000000000000000000000000000000000000000000000005680000000000000026160000000000000400000001200216976                 12~3~193037                        
1216977    20230419               0                   26224718            26224718 REQ            1      1404000000000001000000000000000228790000000000000228790000000000000067560000000000000161230000000000000121680000000000000000000000000000000000000000000000000000000000000000000002150000000000000009900000000000000161230001200216977                 12~3~192832                        
1216977    20230419               0                   26306658            26306658 REQ            1      1404000000000001000000000000000517100000000000000517100000000000000152700000000000000364400000000000000264260000000000000000000000000000000000000000000000000000000000000000000000000000000000000000000000000000000364400001200216977                 12~3~192832                        
1216977    20230420               0                   26288296            26288296 REQ            1      1452000000000001000000000000001555020000000000001555020000000000000459210000000000001095810000000000000626350000000000000000000000000000000000000000000000000000000000000000000000000000000000000000000000000000001095810001200216977                 12~3~192832                        
1216978    20230428AP        MECAN358                 26213046            26213046 4041510        2      1032000000000001000000000000000861470000000000000861470000000000000000000000000000000861470000000000000676250000000000000000000000000000000000000000000000000000000000000000000011480000000000000052860000000000000861470001200216978                 12~3~192961                        
1216994    20230503AP        INSTA320                 ACS190                       1.11           2      0907000000000001000000000000000350000000000000000350000000000000000000000000000000000350000000000000000164550000000000000000000000000000000000000000000000000000000000000000000005780000000000000026600000000000000350000001200216994                 12~3~192558                        
1216994    20230503AP        INSTA320                 98551309            98551309 1.11           2      0907000000000001000000000000000650000000000000000650000000000000000000000000000000000650000000000000000361290000000000000000000000000000000000000000000000000000000000000000000009100000000000000041890000000000000650000001200216994                 12~3~192558                        
1216994    20230503AP        INSTA320                 26316989            26316989 1.11           2      0907000000000001000000000000000250000000000000000250000000000000000000000000000000000250000000000000000140330000000000000000000000000000000000000000000000000000000000000000000000000000000000000000000000000000000250000001200216994                 12~3~192558                        
1216994    20230503AP        INSTA320                 26273601            26273601 1.11           2      0907000000000001000000000000000250000000000000000250000000000000000000000000000000000250000000000000000140960000000000000000000000000000000045000000000000000000000000000000000003380000000000000015580000000000000250000001200216994                 12~3~192558                        
1217010    20230502AP        MECAN358                 98550549X                    TR007          12     0828000000000001000000000000000275000000000000000275000000000000000147600000000000000127400000000000000097270000000000000000000000000000000000000000000000000000000000000000000002100000000000000009680000000000000127400001200217010                 12~3~192384                        
1217010    20230502AP        MECAN358                 24591518            24591518 TR007          12     0828000000000001000000000000000058690000000000000058690000000000000031500000000000000027190000000000000030420000000000000000000000000000000000000000000000000000000000000000000000000000000000000000000000000000000027190001200217010                 12~3~192384                        
1217010    20230502AP        MECAN358                 90528145            90528145 TR007          12     0828000000000001000000000000000044050000000000000044050000000000000023640000000000000020410000000000000007880000000000000000000000000000000000000000000000000000000000000000000000000000000000000000000000000000000020410001200217010                 12~3~192384                        
1217011    20230502AP        MECAN315                 12616850            12616850 M0051          5      0832000000000001000000000000000016180000000000000016180000000000000002450000000000000013730000000000000009920000000000000000000000000000000000000000000000000000000000000000000000230000000000000001040000000000000013730001200217011                 12~3~192421                        
1217011    20230502AP        MECAN315                 12706595            12706595 M0051          5      0832000000000001000000000000000091050000000000000091050000000000000013770000000000000077280000000000000048030000000000000000000000000000000000000000000000000000000000000000000000000000000000000000000000000000000077280001200217011                 12~3~192421                        
1217011    20230502AP        MECAN315                 1350113                      M0051          5      0832000000000001000000000000000142840000000000000142840000000000000021610000000000000121230000000000000116860000000000000000000000000000000000000000000000000000000000000000000000000000000000000000000000000000000121230001200217011                 12~3~192421                        
1217011    20230502AP        MECAN315                 13508023            13508023 M0051          5      0832000000000001000000000000000095000000000000000095000000000000000014370000000000000080630000000000000043440000000000000000000000000000000000000000000000000000000000000000000001330000000000000006130000000000000080630001200217011                 12~3~192421                        
1217011    20230502AP        MECAN315                 93316245            93316245 M0051          5      0832000000000001000000000000000064180000000000000064180000000000000009710000000000000054470000000000000024190000000000000000000000000000000000000000000000000000000000000000000000000000000000000000000000000000000054470001200217011                 12~3~192421                        
1217011    20230502AP        MECAN315                 98550168X                    M0051          5      0832000000000001000000000000000260000000000000000260000000000000000039340000000000000220660000000000000093040000000000000000000000000000000000000000000000000000000000000000000003640000000000000016770000000000000220660001200217011                 12~3~192421                        
1217012    20230502AP        MECAN291                 WP10472                      E0203          2      0851000000000001000000000000000026180000000000000026180000000000000006160000000000000020020000000000000012440000000000000000000000000000000000000000000000000000000000000000000000270000000000000001240000000000000020020001200217012                 12~3~192389                        
1217012    20230502AP        MECAN291                 12616850            12616850 E0203          2      0851000000000001000000000000000016180000000000000016180000000000000003800000000000000012380000000000000009920000000000000000000000000000000000000000000000000000000000000000000000160000000000000000750000000000000012380001200217012                 12~3~192389                        
1217012    20230502AP        MECAN291                 12706595            12706595 E0203          2      0851000000000001000000000000000091050000000000000091050000000000000021410000000000000069640000000000000048030000000000000000000000000000000000000000000000000000000000000000000000000000000000000000000000000000000069640001200217012                 12~3~192389                        
1217012    20230502AP        MECAN291                 93316245            93316245 E0203          2      0851000000000001000000000000000064180000000000000064180000000000000015090000000000000049090000000000000024190000000000000000000000000000000000000000000000000000000000000000000000000000000000000000000000000000000049090001200217012                 12~3~192389                        
1217012    20230502AP        MECAN291                 98550168X                    E0203          2      0851000000000001000000000000000260000000000000000260000000000000000061130000000000000198870000000000000093040000000000000000000000000000000000000000000000000000000000000000000003280000000000000015110000000000000198870001200217012                 12~3~192389                        
1217013    20230502FU        PINTO371                 11612035            11612035 PIN            1      0917000000000001000000000000000055410000000000000055410000000000000000050000000000000055360000000000000008420000000000000000000000000000000000000000000000000000000000000000000000880000000000000004040000000000000055360001200217013                 12~3~192557                        
1217013    20230502FU        PINTO371                 26212183            26212183 PIN            1      0917000000000001000000000000000295390000000000000295390000000000000000270000000000000295120000000000000136190000000000000000000000000000000000000000000000000000000000000000000000000000000000000000000000000000000295120001200217013                 12~3~192557                        
1217013    20230502FU        PINTO371                 26344868            26344868 PIN            1      0917000000000001000000000000000439930000000000000439930000000000000000410000000000000439520000000000000254520000000000000000000000000000000000000000000000000000000000000000000000000000000000000000000000000000000439520001200217013                 12~3~192557                        
1217014    20230502AP        MECAN297                 AGUA01                       E0203          2      0915000000000001000000000000000010000000000000000010000000000000000000050000000000000009950000000000000001440000000000000000000000000000000000000000000000000000000000000000000000160000000000000000760000000000000009950001200217014                 12~3~192408                        
1217014    20230502AP        MECAN297                 24587738            24587738 E0203          2      0915000000000001000000000000000026140000000000000026140000000000000000130000000000000026010000000000000011510000000000000000000000000000000000000000000000000000000000000000000000380000000000000001750000000000000026010001200217014                 12~3~192408                        
1217014    20230502AP        MECAN297                 24591518            24591518 E0203          2      0915000000000001000000000000000058690000000000000058690000000000000000300000000000000058390000000000000030420000000000000000000000000000000000000000000000000000000000000000000000000000000000000000000000000000000058390001200217014                 12~3~192408                        
1217014    20230502AP        MECAN297                 52102242            52102242 E0203          2      0915000000000001000000000000000109650000000000000109650000000000000000560000000000000109090000000000000028450000000000000000000000000000000000000000000000000000000000000000000001690000000000000007770000000000000109090001200217014                 12~3~192408                        
1217014    20230502AP        MECAN297                 90528145            90528145 E0203          2      0915000000000001000000000000000044050000000000000044050000000000000000230000000000000043820000000000000007880000000000000000000000000000000000000000000000000000000000000000000000000000000000000000000000000000000043820001200217014                 12~3~192408                        
1217014    20230502AP        MECAN297                 90531677            90531677 E0203          2      0915000000000001000000000000000162470000000000000162470000000000000000830000000000000161640000000000000057430000000000000000000000000000000000000000000000000000000000000000000002430000000000000011190000000000000161640001200217014                 12~3~192408                        
1217014    20230502AP        MECAN297                 93230926            93230926 E0203          2      0915000000000004000000000000000037210000000000000148840000000000000000760000000000000148080000000000000075790000000000000000000000000000000000000000000000000000000000000000000000000000000000000000000000000000000148080001200217014                 12~3~192408                        
1217014    20230502AP        MECAN297                 93316245            93316245 E0203          2      0915000000000001000000000000000064180000000000000064180000000000000000330000000000000063850000000000000024190000000000000000000000000000000000000000000000000000000000000000000000000000000000000000000000000000000063850001200217014                 12~3~192408                        
1217014    20230502AP        MECAN297                 93353848            93353848 E0203          2      0915000000000001000000000000000242090000000000000242090000000000000001240000000000000240850000000000000106980000000000000000000000000000000000000000000000000000000000000000000000000000000000000000000000000000000240850001200217014                 12~3~192408                        
1217014    20230502AP        MECAN297                 94757663            94757663 E0203          2      0915000000000001000000000000000124880000000000000124880000000000000000640000000000000124240000000000000040500000000000000000000000000000000000000000000000000000000000000000000001860000000000000008570000000000000124240001200217014                 12~3~192408                        
1217014    20230502AP        MECAN297                 98550549X                    E0203          2      0915000000000001000000000000000275000000000000000275000000000000000001410000000000000273590000000000000097270000000000000000000000000000000000000000000000000000000000000000000004510000000000000020790000000000000273590001200217014                 12~3~192408                        
1217015    20230502AP        MECAN291                 1300525                      E0203          2      1017000000000001000000000000000181130000000000000181130000000000000054450000000000000126680000000000000071760000000000000000000000000000000000000000000000000000000000000000000001750000000000000008050000000000000126680001200217015                 12~3~192396                        
1217015    20230502AP        MECAN291                 1350005                      E0203          2      1017000000000001000000000000000231150000000000000231150000000000000069490000000000000161660000000000000104270000000000000000000000000000000000000000000000000000000000000000000002160000000000000009940000000000000161660001200217015                 12~3~192396                        
1217015    20230502AP        MECAN291                 24591518            24591518 E0203          2      1017000000000001000000000000000058690000000000000058690000000000000017640000000000000041050000000000000030420000000000000000000000000000000000000000000000000000000000000000000000000000000000000000000000000000000041050001200217015                 12~3~192396                        
1217015    20230502AP        MECAN291                 52102242            52102242 E0203          2      1017000000000001000000000000000109650000000000000109650000000000000032960000000000000076690000000000000028450000000000000000000000000000000000000000000000000000000000000000000001150000000000000005310000000000000076690001200217015                 12~3~192396                        
1217015    20230502AP        MECAN291                 90528145            90528145 E0203          2      1017000000000001000000000000000044050000000000000044050000000000000013240000000000000030810000000000000007880000000000000000000000000000000000000000000000000000000000000000000000000000000000000000000000000000000030810001200217015                 12~3~192396                        
1217015    20230502AP        MECAN291                 93205290            93205290 E0203          2      1017000000000003000000000000000028980000000000000086940000000000000026140000000000000060800000000000000040210000000000000000000000000000000000000000000000000000000000000000000000820000000000000003780000000000000060800001200217015                 12~3~192396                        
1217015    20230502AP        MECAN291                 98550549X                    E0203          2      1043000000000001000000000000000275000000000000000275000000000000000082670000000000000192330000000000000097270000000000000000000000000000000000000000000000000000000000000000000003170000000000000014620000000000000192330001200217015                 12~3~192396                        
1217016    20230502AP        MECAN315                 1350113                      03             2      1020000000000001000000000000000142840000000000000142840000000000000015920000000000000126920000000000000116860000000000000000000000000000000000000000000000000000000000000000000000000000000000000000000000000000000126920001200217016                 12~3~192403                        
1217016    20230502AP        MECAN315                 24591518            24591518 03             2      1020000000000001000000000000000058690000000000000058690000000000000006540000000000000052150000000000000030420000000000000000000000000000000000000000000000000000000000000000000000000000000000000000000000000000000052150001200217016                 12~3~192403                        
1217016    20230502AP        MECAN315                 52102242            52102242 03             2      1020000000000001000000000000000109650000000000000109650000000000000012220000000000000097430000000000000028450000000000000000000000000000000000000000000000000000000000000000000001500000000000000006890000000000000097430001200217016                 12~3~192403                        
1217016    20230502AP        MECAN315                 90528145            90528145 03             2      1020000000000001000000000000000044050000000000000044050000000000000004910000000000000039140000000000000007880000000000000000000000000000000000000000000000000000000000000000000000000000000000000000000000000000000039140001200217016                 12~3~192403                        
1217016    20230502AP        MECAN315                 98550549X                    03             2      1020000000000001000000000000000275000000000000000275000000000000000030640000000000000244360000000000000097270000000000000000000000000000000000000000000000000000000000000000000004030000000000000018570000000000000244360001200217016                 12~3~192403                        
1217018    20230511AP        MECAN358                 13540925            13540925 4022020        2      1651000000000001000000000000000312610000000000000312610000000000000000000000000000000312610000000000000553040000000000000000000000000000000000000000000000000000000000000000000000000000000000000000000000000000000312610001200217018                 12~3~193375                        
1217019    20230503FU        PINTO237                 26307959            26307959 MP             4      1016000000000001000000000000001512000000000000001512000000000000000000000000000000001512000000000000001202030000000000000000000000000000000000000000000000000000000000000000000000000000000000000000000000000000001512000001200217019                 12~3~192848                        
1217019    20230503FU        PINTO237                 26343315            26343315 MP             4      1016000000000001000000000000000200560000000000000200560000000000000000000000000000000200560000000000000137850000000000000000000000000000000000000000000000000000000000000000000000000000000000000000000000000000000200560001200217019                 12~3~192848                        
1217021    20230502AP        MECAN297                 24588730            24588730 4417120        GRL    1404000000000001000000000000000171070000000000000171070000000000000000000000000000000171070000000000000133810000000000000000000000000000000000000000000000000000000000000000000000000000000000000000000000000000000171070001200217021                 12~3~192467                        
1217021    20230502AP        MECAN297                 24590700            24590700 4417120        GRL    1404000000000001000000000000000100000000000000000100000000000000000000000000000000000100000000000000000072660000000000000000000000000000000000000000000000000000000000000000000001350000000000000006230000000000000100000001200217021                 12~3~192467                        
1217022    20230502AP        MECAN291                 12616850            12616850 03             2      1408000000000001000000000000000021320000000000000021320000000000000003160000000000000018160000000000000009920000000000000000000000000000000000000000000000000000000000000000000000260000000000000001190000000000000018160001200217022                 12~3~192417                        
1217022    20230502AP        MECAN291                 12706595            12706595 03             2      1408000000000001000000000000000091050000000000000091050000000000000013480000000000000077570000000000000048030000000000000000000000000000000000000000000000000000000000000000000000000000000000000000000000000000000077570001200217022                 12~3~192417                        
1217022    20230502AP        MECAN291                 98550549X                    03             2      1408000000000001000000000000000275000000000000000275000000000000000040730000000000000234270000000000000097270000000000000000000000000000000000000000000000000000000000000000000003870000000000000017800000000000000234270001200217022                 12~3~192417                        
1217024    20230502AP        MECAN291                 12616850            12616850 M0061          5      1450000000000001000000000000000021320000000000000021320000000000000000280000000000000021040000000000000009920000000000000000000000000000000000000000000000000000000000000000000000310000000000000001410000000000000021040001200217024                 12~3~192430                        
1217024    20230502AP        MECAN291                 12706595            12706595 M0061          5      1450000000000001000000000000000091050000000000000091050000000000000001180000000000000089870000000000000048030000000000000000000000000000000000000000000000000000000000000000000000000000000000000000000000000000000089870001200217024                 12~3~192430                        
1217024    20230502AP        MECAN291                 93316245            93316245 M0061          5      1450000000000001000000000000000072590000000000000072590000000000000000940000000000000071650000000000000024190000000000000000000000000000000000000000000000000000000000000000000000000000000000000000000000000000000071650001200217024                 12~3~192430                        
1217024    20230502AP        MECAN291                 98550168X                    M0061          5      1450000000000001000000000000000260000000000000000260000000000000000003370000000000000256630000000000000093040000000000000000000000000000000000000000000000000000000000000000000004230000000000000019500000000000000256630001200217024                 12~3~192430                        
1217025    20230502AP        MECAN315                 12616850            12616850 M0101          5      1456000000000001000000000000000021320000000000000021320000000000000003080000000000000018240000000000000009920000000000000000000000000000000000000000000000000000000000000000000000260000000000000001200000000000000018240001200217025                 12~3~192423                        
1217025    20230502AP        MECAN315                 12636838            12636838 M0101          5      1456000000000001000000000000000130610000000000000130610000000000000018870000000000000111740000000000000066210000000000000000000000000000000000000000000000000000000000000000000001570000000000000007230000000000000111740001200217025                 12~3~192423                        
1217025    20230502AP        MECAN315                 1300525                      M0101          5      1456000000000001000000000000000181130000000000000181130000000000000026170000000000000154960000000000000071760000000000000000000000000000000000000000000000000000000000000000000002210000000000000010200000000000000154960001200217025                 12~3~192423                        
1217025    20230502AP        MECAN315                 13540602            13540602 M0101          5      1456000000000001000000000000000248890000000000000248890000000000000035960000000000000212930000000000000089030000000000000000000000000000000000000000000000000000000000000000000003150000000000000014490000000000000212930001200217025                 12~3~192423                        
1217025    20230502AP        MECAN315                 52101541            52101541 M0101          5      1456000000000001000000000000000082750000000000000082750000000000000011960000000000000070790000000000000035560000000000000000000000000000000000000000000000000000000000000000000001020000000000000004690000000000000070790001200217025                 12~3~192423                        
1217025    20230502AP        MECAN315                 98552923X                    M0101          5      1456000000000001000000000000000399000000000000000399000000000000000057650000000000000341350000000000000112770000000000000000000000000000000000000000000000000000000000000000000005630000000000000025940000000000000341350001200217025                 12~3~192423                        
1217026    20230502AP        MECAN315                 52064859            52064859 7020700        2      1508000000000001000000000000000388970000000000000388970000000000000000000000000000000388970000000000000344460000000000000000000000000000000000000000000000000000000000000000000004550000000000000020960000000000000388970001200217026                 12~3~192469                        
1217029    20230502AP        MECAN291                 12616850            12616850 M0091          5      1546000000000001000000000000000021320000000000000021320000000000000002080000000000000019240000000000000009920000000000000000000000000000000000000000000000000000000000000000000000280000000000000001270000000000000019240001200217029                 12~3~192416                        
1217029    20230502AP        MECAN291                 12706595            12706595 M0091          5      1546000000000001000000000000000091050000000000000091050000000000000008870000000000000082180000000000000048030000000000000000000000000000000000000000000000000000000000000000000000000000000000000000000000000000000082180001200217029                 12~3~192416                        
1217029    20230502AP        MECAN291                 93316245            93316245 M0091          5      1546000000000001000000000000000072590000000000000072590000000000000007070000000000000065520000000000000024190000000000000000000000000000000000000000000000000000000000000000000000000000000000000000000000000000000065520001200217029                 12~3~192416                        
1217029    20230502AP        MECAN291                 98550168X                    M0091          5      1546000000000001000000000000000260000000000000000260000000000000000025340000000000000234660000000000000093040000000000000000000000000000000000000000000000000000000000000000000003870000000000000017830000000000000234660001200217029                 12~3~192416                        
1217031    20230503AP        MECAN291                 LAM-H4                       M0121          5      0834000000000001000000000000000015000000000000000015000000000000000002010000000000000012990000000000000009280000000000000000000000000000000000000000000000000000000000000000000000210000000000000000990000000000000012990001200217031                 12~3~192438                        
1217031    20230503AP        MECAN291                 24591518            24591518 M0121          5      0834000000000001000000000000000058690000000000000058690000000000000007860000000000000050830000000000000030420000000000000000000000000000000000000000000000000000000000000000000000000000000000000000000000000000000050830001200217031                 12~3~192438                        
1217031    20230503AP        MECAN291                 52102242            52102242 M0121          5      0834000000000001000000000000000109650000000000000109650000000000000014690000000000000094960000000000000028450000000000000000000000000000000000000000000000000000000000000000000001450000000000000006700000000000000094960001200217031                 12~3~192438                        
1217031    20230503AP        MECAN291                 90528145            90528145 M0121          5      0834000000000001000000000000000044050000000000000044050000000000000005900000000000000038150000000000000007880000000000000000000000000000000000000000000000000000000000000000000000000000000000000000000000000000000038150001200217031                 12~3~192438                        
1217031    20230503AP        MECAN291                 93230926            93230926 M0121          5      0834000000000001000000000000000037210000000000000037210000000000000004990000000000000032220000000000000018950000000000000000000000000000000000000000000000000000000000000000000000000000000000000000000000000000000032220001200217031                 12~3~192438                        
1217031    20230503AP        MECAN291                 93316245            93316245 M0121          5      0834000000000001000000000000000072590000000000000072590000000000000009730000000000000062860000000000000024190000000000000000000000000000000000000000000000000000000000000000000000000000000000000000000000000000000062860001200217031                 12~3~192438                        
1217031    20230503AP        MECAN291                 94757663            94757663 M0121          5      0834000000000001000000000000000124880000000000000124880000000000000016730000000000000108150000000000000040500000000000000000000000000000000000000000000000000000000000000000000001600000000000000007350000000000000108150001200217031                 12~3~192438                        
1217031    20230503AP        MECAN291                 98550168X                    M0121          5      0834000000000001000000000000000260000000000000000260000000000000000034840000000000000225160000000000000093040000000000000000000000000000000000000000000000000000000000000000000003710000000000000017110000000000000225160001200217031                 12~3~192438                        
1217031    20230503AP        MECAN291                 93230926            93230926 M0121          5      0840000000000003000000000000000037210000000000000111630000000000000014960000000000000096670000000000000056850000000000000000000000000000000000000000000000000000000000000000000000000000000000000000000000000000000096670001200217031                 12~3~192438                        
1217032    20230503AP        MECAN315                 12616850            12616850 03             2      0839000000000001000000000000000009920000000000000009920000000000000003320000000000000006600000000000000009920000000000000000000000000000000000000000000000000000000000000000000000070000000000000000310000000000000006600001200217032                 12~3~192439                        
1217032    20230503AP        MECAN315                 12706595            12706595 03             2      0839000000000001000000000000000048030000000000000048030000000000000016090000000000000031950000000000000048030000000000000000000000000000000000000000000000000000000000000000000000000000000000000000000000000000000031950001200217032                 12~3~192439                        
1217032    20230503AP        MECAN315                 52102242            52102242 03             2      0839000000000001000000000000000028450000000000000028450000000000000009530000000000000018920000000000000028450000000000000000000000000000000000000000000000000000000000000000000000200000000000000000920000000000000018920001200217032                 12~3~192439                        
1217032    20230503AP        MECAN315                 93316245            93316245 03             2      0839000000000001000000000000000024190000000000000024190000000000000008100000000000000016090000000000000024190000000000000000000000000000000000000000000000000000000000000000000000000000000000000000000000000000000016090001200217032                 12~3~192439                        
1217032    20230503AP        MECAN315                 98550549X                    03             2      0839000000000001000000000000000097270000000000000097270000000000000032580000000000000064700000000000000097270000000000000000000000000000000000000000000000000000000000000000000001070000000000000004920000000000000064700001200217032                 12~3~192439                        
1217034    20230503AP        MECAN358                 12616850            12616850 03             2      0840000000000001000000000000000021320000000000000021320000000000000000140000000000000021180000000000000009920000000000000000000000000000000000000000000000000000000000000000000000310000000000000001420000000000000021180001200217034                 12~3~192448                        
1217034    20230503AP        MECAN358                 12706595            12706595 03             2      0840000000000001000000000000000091050000000000000091050000000000000000580000000000000090470000000000000048030000000000000000000000000000000000000000000000000000000000000000000000000000000000000000000000000000000090470001200217034                 12~3~192448                        
1217034    20230503AP        MECAN358                 98550168X                    03             2      0840000000000001000000000000000260000000000000000260000000000000000001650000000000000258350000000000000093040000000000000000000000000000000000000000000000000000000000000000000004260000000000000019630000000000000258350001200217034                 12~3~192448                        
1217036    20230503AP        MECAN291                 SPM23550R19                  E0203          2      0934000000000004000000000000000750000000000000003000000000000000000000000000000000003000000000000000002360000000000000000000000000000000000000000000000000000000000000000000000000000000000000000000000000000000003000000001200217036                 12~3~192440                        
1217037    20230505               0                   93286309            93286309 REQ            1      0955000000000001000000000000000126720000000000000126720000000000000029000000000000000097720000000000000053640000000000000000000000000000000000000000000000000000000000000000000001400000000000000006430000000000000097720001200217037                 12~3~192639                        
1217037    20230505               0                   AGUA01                       REQ            1      0955000000000004000000000000000010000000000000000040000000000000000009150000000000000030850000000000000005770000000000000000000000000000000000000000000000000000000000000000000000510000000000000002340000000000000030850001200217037                 12~3~192639                        
1217037    20230505               0                   26261699            26261699 REQ            1      0955000000000001000000000000000558250000000000000558250000000000000127760000000000000430490000000000000318280000000000000000000000000000000000000000000000000000000000000000000000000000000000000000000000000000000430490001200217037                 12~3~192639                        
1217037    20230505               0                   26271785            26271785 REQ            1      0955000000000001000000000000000136170000000000000136170000000000000031160000000000000105010000000000000064510000000000000000000000000000000000000000000000000000000000000000000000000000000000000000000000000000000105010001200217037                 12~3~192639                        
1217037    20230505               0                   26306808            26306808 REQ            1      0955000000000001000000000000000550260000000000000550260000000000000125940000000000000424320000000000000300510000000000000000000000000000000000000000000000000000000000000000000000000000000000000000000000000000000424320001200217037                 12~3~192639                        
1217037    20230505               0                   26348460            26348460 REQ            1      0955000000000001000000000000001700900000000000001700900000000000000389280000000000001311620000000000000880020000000000000000000000000000000000000000000000000000000000000000000000000000000000000000000000000000001311620001200217037                 12~3~192639                        
1217038    20230503AP        AUX.M380                 26355515            26355515 1.11           2      0935000000000001000000000000000399000000000000000399000000000000000000000000000000000399000000000000000163430000000000000000000000000000000000000000000000000000000000000000000000000000000000000000000000000000000399000001200217038                 12~3~192441                        
1217039    20230503AP        MECAN358                 98550549X                    E0203          2      1021000000000001000000000000000275000000000000000275000000000000000130920000000000000144080000000000000097270000000000000000000000000000000000000000000000000000000000000000000002380000000000000010950000000000000144080001200217039                 12~3~192481                        
1217039    20230503AP        MECAN358                 24591518            24591518 E0203          2      1021000000000001000000000000000058690000000000000058690000000000000027940000000000000030750000000000000030420000000000000000000000000000000000000000000000000000000000000000000000000000000000000000000000000000000030750001200217039                 12~3~192481                        
1217039    20230503AP        MECAN358                 90528145            90528145 E0203          2      1021000000000001000000000000000044050000000000000044050000000000000020970000000000000023080000000000000007880000000000000000000000000000000000000000000000000000000000000000000000000000000000000000000000000000000023080001200217039                 12~3~192481                        
1217039    20230503AP        MECAN358                 09598708            09598708 E0203          2      1407000000000001000000000000000055620000000000000055620000000000000026480000000000000029140000000000000010710000000000000000000000000000000000000000000000000000000000000000000000430000000000000001990000000000000029140001200217039                 12~3~192481                        
1217039    20230503AP        MECAN358                 11611063            11611063 E0203          2      1407000000000001000000000000000062900000000000000062900000000000000029950000000000000032950000000000000011840000000000000000000000000000000000000000000000000000000000000000000000490000000000000002270000000000000032950001200217039                 12~3~192481                        
1217040    20230503AP        INSTA320                 ACS190                       1.11           2      1147000000000001000000000000000350000000000000000350000000000000000000000000000000000350000000000000000164550000000000000000000000000000000000000000000000000000000000000000000005780000000000000026600000000000000350000001200217040                 12~3~192547                        
1217040    20230503AP        INSTA320                 26355513            26355513 1.11           2      1147000000000001000000000000000390000000000000000390000000000000000000000000000000000390000000000000000191040000000000000000000000000000000000000000000000000000000000000000000000000000000000000000000000000000000390000001200217040                 12~3~192547                        
