1457638    202110262021102620230508V9   1                       1    20070     44527     9BGEP76B0NB1309564     BRUNAL                                00009120839480000000010000000010154700001630000011330000000                                                                                                                                                                                                                                                                                                                                                                                                                                                                                                                    0000000000000000000000000000000000000000000010000000040000000000003440620000000000000000000000000000003440620000000000001720310000000000000000000000000000001720310000400457638                             
1468156    202206132022061320230522V1   1                       1    20070     44527     9BGEP76B0NB1155184     ALDO                                  00015284882881000009664000009664114900001730000014470000000                                                                                                                                                                                                                                                                                                                                                                                                                                                                                                                    0000000000000000000000000000000000000000000020000000040000000000000597850000000000000125000000000000000472850000000000000004850000000000000000000000000000000004850000400468156                 RGL6D37     
1474930    202211092022110920230505S9   1                       1    120333    124805    8AGBB68S0KR1209554     JESSICAP                              09114091000160000019361000019361150500001600000014280000000                                                                                                                                                                                                                                                                                                                                                                                                                                                                                                                    0000000000000000000000000000000000000000000010000000040000000000000330270000000000000122980000000000000207290000000000000000000000000000000000000000000000000000000000400474930                 QGW2J89     
1475245    202211172022111720230505S9   1                       6    20149     124583    9BD341A5XLY6877324     JESSICAP                              09114091000160000000010000000010093600001300000014320000000                                                                                                                                                                                                                                                                                                                                                                                                                                                                                                                    0000000000000000000000000000000000000000000010000000090000000000000550000000000000000016900000000000000533100000000000000000000000000000000000000000000000000000000000400475245                 QGY1D47     
1475287    202211172022111720230506S9   1                       1    120333    124404    9BGKL48U0KB1598744     JESSICAP                              09114091000160000000012000000012154900001630000010170000000                                                                                                                                                                                                                                                                                                                                                                                                                                                                                                                    0000000000000000000000000000000000000000000010000000060000000000000700000000000000000034570000000000000665430000000000000000000000000000000000000000000000000000000000400475287                 BCP8192     
1475297    202211182022111820230506S9   1                       5    120334    124911    9BWAA45U7FP5505814     JESSICAP                              09114091000160000073939000073939083500001030000010590000000                                                                                                                                                                                                                                                                                                                                                                                                                                                                                                                    0000000000000000000000000000000000000000000010000000050000000000000700000000000000000040800000000000000659200000000000000000000000000000000000000000000000000000000000400475297                 QGE8A80     
1475578    202211242022112420230506S9   1                       1    20309     44134     9BGKT69V0KG2356964     JESSICAP                              09114091000160000046024000046024143000001800000011020000000                                                                                                                                                                                                                                                                                                                                                                                                                                                                                                                    0000000000000000000000000000000000000000000010000000040000000000000350000000000000000062330000000000000287670000000000000000000000000000000000000000000000000000000000400475578                 QGY4C94     
1475607    202211252022112520230506S9   1                       1    40321     43912     9BGKT48V0JG1775554     JESSICAP                              09114091000160000031510000031510111600001400000011170000000                                                                                                                                                                                                                                                                                                                                                                                                                                                                                                                    0000000000000000000000000000000000000000000020000000020000000000000350000000000000000072540000000000000277460000000000000000000000000000000000000000000000000000000000400475607                 QGU2901     
1476399    202212132022121420230506S9   1                       1    120333    124439    9BGKT69V0KG2822664     JESSICAP                              09114091000160000030909000030909173900000900000011200000000                                                                                                                                                                                                                                                                                                                                                                                                                                                                                                                    0000000000000000000000000000000000000000000010000000040000000000000255000000000000000046230000000000000208770000000000000000000000000000000000000000000000000000000000400476399                 POA8B02     
1476473    202212152022121520230506S9   1                       2    20327     125123    935SLYFYYFB5088874     JESSICAP                              09114091000160000048666000048666101300001300000011290000000                                                                                                                                                                                                                                                                                                                                                                                                                                                                                                                    0000000000000000000000000000000000000000000010000000030000000000000349150000000000000000500000000000000348650000000000000008650000000000000000000000000000000008650000400476473                 QGA1540     
1476573    202212162022121620230506S9   1                       16   20324     124808    93HGH8860LK1031234     JESSICAP                              09114091000160000000010000000010125700001430000011530000000                                                                                                                                                                                                                                                                                                                                                                                                                                                                                                                    0000000000000000000000000000000000000000000010000000030000000000000300500000000000000002990000000000000297510000000000000000000000000000000000000000000000000000000000400476573                 RGN1I32     
1476895    202212212022122120230506S9   1                       2    120335    125120    98RDB21B0KA0029894     JESSICAP                              09114091000160000049129000049129170800001800000011570000000                                                                                                                                                                                                                                                                                                                                                                                                                                                                                                                    0000000000000000000000000000000000000000000010000000050000000000000092400000000000000000500000000000000091900000000000000001900000000000000000000000000000000001900000400476895                 QGY6611     
1477937    202301102023011020230513S9   1                       1    40316     43439     9BGJB69VCHB1266644     JESSICAP                              09114091000160000050001000050001165500001730000011220000000                                                                                                                                                                                                                                                                                                                                                                                                                                                                                                                    0000000000000000000000000000000000000000000010000000020000000000000337960000000000000000000000000000000337960000000000000000000000000000000000000000000000000000000000400477937                 PYH0F28     
1478354    202301192023011920230523D9   1                       1    20070     44633     9BGEN76H0PB1798124     BRUNAL                                00079144950420000000012000000012092100001000000017470000000                                                                                                                                                                                                                                                                                                                                                                                                                                                                                                                    0000000000000000000000000000000000000000000010000000030000000000001700000000000000000173830000000000001526170000000000000000000000000000000000000000000000000000000000400478354                             
1478356    202301192023011920230523D9   1                       1    40321     44625     9BGEY48H0PG2577614     BRUNAL                                00079144950420000000011000000011093900001030000018480000000                                                                                                                                                                                                                                                                                                                                                                                                                                                                                                                    0000000000000000000000000000000000000000000010000000020000000000001700000000000000000206220000000000001493780000000000000000000000000000000000000000000000000000000000400478356                             
1479546    202302142023021420230520RE   1                       1    20070     44626     9BGEP76B0PB2191054     JOSAILDO                              09114091000160000000010000000010143900001500000009280000000                                                                                                                                                                                                                                                                                                                                                                                                                                                                                                                    0000000000000000000000000000000000000000000010000000000000000000000149740000000000000149740000000000000000000000000000000000000000000000000000000000000000000000000000400479546                             
1480176    202303022023030220230502V1   1                       1    40320     44643     9BGJP7520PB1215514     LUIZM                                 03608326000194000014927000014927122500001318000012290000000                                                                                                                                                                                                                                                                                                                                                                                                                                                                                                                    0000000000000000000000000000000000000000000010000000000000000000000000200000000000000000200000000000000000000000000000000000000000000000000000000000000000000000000000400480176                 RGL8G34     
1480306    202303062023030620230510V1   1                       1    40321     44414     9BGEB69H0MG2003924     ABIMAEL                               00009612202443000015308000015308150500001718000014510000000                                                                                                                                                                                                                                                                                                                                                                                                                                                                                                                    0000000000000000000000000000000000000000000010000000050000000000001007430000000000000370000000000000000637430000000000000279430000000000000120070000000000000159360000400480306                 QYU4B45     
1480387    202303082023030820230526V1   1                       1    40321     44464     9BGKD69U0MB1938994     ANDREF                                00042970660768000025229000025229084900001000000008270000000                                                                                                                                                                                                                                                                                                                                                                                                                                                                                                                    0000000000000000000000000000000000000000000010000000000000000000000000500000000000000000500000000000000000000000000000000000000000000000000000000000000000000000000000400480387                 RGE4E73     
1480422    202303082023030820230502V1   1                       1    20        44538     9BG148PK0NC4353644     ERNANDE                               00012374121453000008909000008909155100001700000011510000000                                                                                                                                                                                                                                                                                                                                                                                                                                                                                                                    0000000000000000000000000000000000000000000010000000000000000000000001000000000000000001000000000000000000000000000000000000000000000000000000000000000000000000000000400480422                 RGJ9B79     
1480510    202303102023031020230527V1   1                       1    40320     44583     9BGJB7520NB1275244     ANDREF                                19445705000140000022147000022147083200001500000009200000000 V1 para V2                                                                                                                                                                                                                                                                                                                                                                                                                                                                                                         0000000000000000000000000000000000000000000010000000000000000000000000500000000000000000500000000000000000000000000000000000000000000000000000000000000000000000000000400480510                 RGK1B90     
1480602    202303132023031320230519D3   1                       1    20        43110     9BG144CP0FC4230124     CLAUDIONOR                            09114091000160000146062000146062090400000918000010180000000                                                                                                                                                                                                                                                                                                                                                                                                                                                                                                                    0000000000000000000000000000000000000000000010000000040000000000000433760000000000000080000000000000000353760000000000000000000000000000000000000000000000000000000000400480602                 QGB5626     
1480659    202303142023031420230519V1   1                       1    22        44317     9BG156YK0LC4257364     LUIZM                                 00001893796426000071991000071991094000001018000012130000000                                                                                                                                                                                                                                                                                                                                                                                                                                                                                                                    0000000000000000000000000000000000000000000010000000000000000000000000250000000000000000250000000000000000000000000000000000000000000000000000000000000000000000000000400480659                 RGG5C55     
1480839    202303172023031720230519D3   1                       1    20        43110     9BG144CP0FC4230124     RONNEY                                09114091000160000146294000146294145300001600000010190000000                                                                                                                                                                                                                                                                                                                                                                                                                                                                                                                    0000000000000000000000000000000000000000000010000000010000000000000014950000000000000010000000000000000004950000000000000000000000000000000000000000000000000000000000400480839                 QGB5626     
1480890    202303202023032020230503D4   1                       1    40321     44599     9BGEB48A0NG1491794     ERNANDE                               00008949882477000006449000006449084100001000000011280000000                                                                                                                                                                                                                                                                                                                                                                                                                                                                                                                    0000000000000000000000000000000000000000000010000000000000000000000000010000000000000000010000000000000000000000000000000000000000000000000000000000000000000000000000400480890                 RGI1G30     
1480978    202303212023032120230519D3   1                       1    20270     44500     9BGCA8030MB1505254     ANDERSONF                             09114091000160000052880000052880082800000930000010200000000                                                                                                                                                                                                                                                                                                                                                                                                                                                                                                                    0000000000000000000000000000000000000000000010000000030000000000000059580000000000000040000000000000000019580000000000000000000000000000000000000000000000000000000000400480978                 RGE9D97     
1481009    202303212023032120230531D4   1                       1    40321     44651     9BGEB69H0PG1246914     ERNANDE                               04836002000176000010899000010899113100001218000010450000000                                                                                                                                                                                                                                                                                                                                                                                                                                                                                                                    0000000000000000000000000000000000000000000010000000000000000000000000010000000000000000010000000000000000000000000000000000000000000000000000000000000000000000000000400481009                 DJO9B64     
1481030    202303212023032120230503V1   1                       1    20309     44132     9BGKS69V0KG3608684     ANDREF                                00002910726401000028158000028158170500001800000017050000000                                                                                                                                                                                                                                                                                                                                                                                                                                                                                                                    0000000000000000000000000000000000000000000010000000000000000000000030000000000000000030000000000000000000000000000000000000000000000000000000000000000000000000000000400481030                 QGP2J16     
1481076    202303222023032220230520RE   1                       1    20070     44640     9BGEB76H0PB2380724     JOSAILDO                              09114091000160000000010000000010143400001500000009280000000                                                                                                                                                                                                                                                                                                                                                                                                                                                                                                                    0000000000000000000000000000000000000000000010000000000000000000000158620000000000000158620000000000000000000000000000000000000000000000000000000000000000000000000000400481076                             
1481077    202303222023032220230520RE   1                       1    20270     45155     9BGEB43B0PB2407584     JOSAILDO                              09114091000160000000010000000010143700001500000009280000000                                                                                                                                                                                                                                                                                                                                                                                                                                                                                                                    0000000000000000000000000000000000000000000010000000000000000000000158620000000000000158620000000000000000000000000000000000000000000000000000000000000000000000000000400481077                             
1481195    202303252023032520230502V1   1                       1    40321     44564     9BGEB48A0NG1804894     LUIZM                                 00059121327491000023140000023140084700001000000012280000000                                                                                                                                                                                                                                                                                                                                                                                                                                                                                                                    0000000000000000000000000000000000000000000010000000000000000000000000200000000000000000200000000000000000000000000000000000000000000000000000000000000000000000000000400481195                 RGL6J63     
1481216    202303272023032720230503V2   1                       1    40321     44619     9BGEB69A0PG2693764     ARIS                                  00005692751640000008023000008023090500001718000016590000000                                                                                                                                                                                                                                                                                                                                                                                                                                                                                                                    0000000000000000000000000000000000000000000020000000020000000000001489680000000000000948740000000000000540940000000000000085050000000000000085050000000000000000000000400481216                 OJW7G92     
1481311    202303282023032820230503D4   1                       1    20070     995056    9BGEB76H0PB1703374     LUIZM                                 00002568325798000011777000011777141200001600000011290000000                                                                                                                                                                                                                                                                                                                                                                                                                                                                                                                    0000000000000000000000000000000000000000000010000000000000000000000000010000000000000000010000000000000000000000000000000000000000000000000000000000000000000000000000400481311                 RKJ8E40     
1481342    202303282023032820230502V2   1                       1    40321     44420     9BGEA48H0LG2353634     ARIS                                  09114091000160000023739000023739165600001800000017030000000                                                                                                                                                                                                                                                                                                                                                                                                                                                                                                                    0000000000000000000000000000000000000000000020000000020000000000002483580000000000001939060000000000000544520000000000000000000000000000000000000000000000000000000000400481342                 QGW9J47     
1481356    202303292023032920230517V1   1                       1    20        43322     9BG148MK0EC4428544     ARIS                                  00001979628408000123654000123654094600001200000016180000000                                                                                                                                                                                                                                                                                                                                                                                                                                                                                                                    0000000000000000000000000000000000000000000010000000020000000000009321360000000000000500000000000000008821360000000000003528540000000000000000000000000000003528540000400481356                 OGF1A54     
1481487    202303312023033120230506S1   1                       1    120333    125784    9BG148PK0MC4067524     CLAUDIONOR                            09114091000160000010709000010709092600001000000011480000000                                                                                                                                                                                                                                                                                                                                                                                                                                                                                                                    0000000000000000000000000000000000000000000010000000060000000000000717510000000000000499000000000000000218510000000000000000000000000000000000000000000000000000000000400481487                 QGZ8J57     
1481552    202304012023040120230504V1   1                       1    40321     44656     9BGEB48H0PG1289264     LUIZM                                 02275901000111000010825000010825090600000948000015290000000                                                                                                                                                                                                                                                                                                                                                                                                                                                                                                                    0000000000000000000000000000000000000000000030000000040000000000000519310000000000000100000000000000000419310000000000000035110000000000000000000000000000000035110000400481552                 OJW5D87     
1481558    202304012023040120230515V1   1                       1    20        44465     9BG148FK0MC4048534     ANDREF                                36731508000107000050187000050187094400001200000010410000000                                                                                                                                                                                                                                                                                                                                                                                                                                                                                                                    0000000000000000000000000000000000000000000010000000050000000000002422840000000000000599000000000000001823840000000000000726850000000000000179700000000000000547150000400481558                 RGG0C56     
1481573    202304012023040120230520RE   1                       1    40320     44643     9BGJP7520PB2431754     JOSAILDO                              09114091000160000000010000000010113200001200000009280000000                                                                                                                                                                                                                                                                                                                                                                                                                                                                                                                    0000000000000000000000000000000000000000000010000000000000000000000158620000000000000158620000000000000000000000000000000000000000000000000000000000000000000000000000400481573                             
1481678    202304042023040420230513V1   1                       1    40321     44637     9BGEB48A0PG1573084     LUIZM                                 40762890000193000010115000010115141500001518000010260000000                                                                                                                                                                                                                                                                                                                                                                                                                                                                                                                    0000000000000000000000000000000000000000000010000000040000000000000467560000000000000000000000000000000467560000000000000187020000000000000000000000000000000187020000400481678                 OJY1C65     
1481679    202304042023040420230520V1   1                       1    22        45105     9BG156YK0PC4093414     ALDO                                  40762890000193000010463000010463141700001700000010440000000 D4 para V2                                                                                                                                                                                                                                                                                                                                                                                                                                                                                                         0000000000000000000000000000000000000000000010000000040000000000000780370000000000000000000000000000000780370000000000000312150000000000000000000000000000000312150000400481679                 OJW3D06     
1481739    202304052023040520230522V9   1                       1    20070     44527     9BGEP76B0NB1155184     BRUNAL                                00015284882881000009665000009665091100001000000013250000000                                                                                                                                                                                                                                                                                                                                                                                                                                                                                                                    0000000000000000000000000000000000000000000010000000020000000000000299800000000000000000000000000000000299800000000000000014990000000000000000000000000000000014990000400481739                             
1481762    202304052023040520230511V2   1                       1    40337     44548     1G1F76S05L41245214     GUSTAVOM                              00050780484991000022480000022480112700001130000008490000000                                                                                                                                                                                                                                                                                                                                                                                                                                                                                                                    0000000000000000000000000000000000000000000010000000010000000000000296080000000000000271070000000000000025010000000000000000000000000000000000000000000000000000000000400481762                 RGI8G75     
1481773    202304052023040520230522V3   1                       1    40321     124574    9BGEY48H0NG1629924     ANDREF                                00022209719453000004727000004727142200001700000017000000000                                                                                                                                                                                                                                                                                                                                                                                                                                                                                                                    0000000000000000000000000000000000000000000010000000000000000000000290810000000000000290810000000000000000000000000000000000000000000000000000000000000000000000000000400481773                 RGJ9I83     
1481779    202304052023040520230531D4   1                       1    40321     44457     9BGKD48U0MB2538234     CLAUDIONOR                            25138383000190000010238000010238152800001600000010470000000                                                                                                                                                                                                                                                                                                                                                                                                                                                                                                                    0000000000000000000000000000000000000000000010000000000000000000000000010000000000000000010000000000000000000000000000000000000000000000000000000000000000000000000000400481779                 RGI1C60     
1481838    202304062023040620230526V1   1                       1    40321     44457     9BGKD48U0MB1855254     ANDREF                                36731508000107000010987000010987160800001800000010160000000                                                                                                                                                                                                                                                                                                                                                                                                                                                                                                                    0000000000000000000000000000000000000000000010000000000000000000000000500000000000000000500000000000000000000000000000000000000000000000000000000000000000000000000000400481838                 RGF8I40     
1481940    202304112023041120230510V1   1                       1    40315     44394     8AGBY69S0LR1027444     GUSTAVOM                              22035136000170000040669000040669104000001218000010280000000                                                                                                                                                                                                                                                                                                                                                                                                                                                                                                                    0000000000000000000000000000000000000000000010000000010000000000000018500000000000000000000000000000000018500000000000000005500000000000000000000000000000000005500000400481940                 RGE2I64     
1481943    202304112023041120230506SG   1                       6    20149     125498    988226165KKB894104     JOELDES                               09114091000160000154283000154283104200001100000010190000000                                                                                                                                                                                                                                                                                                                                                                                                                                                                                                                    0000000000000000000000000000000000000000000010000000000000000000000655000000000000000655000000000000000000000000000000000000000000000000000000000000000000000000000000400481943                 PCX7C05     
1482161    202304142023041420230526V1   1                       1    40321     44478     9BGEY69H0MG1753644     ANDREF                                00005600802471000051587000051587100400001730000010160000000                                                                                                                                                                                                                                                                                                                                                                                                                                                                                                                    0000000000000000000000000000000000000000000010000000000000000000000000500000000000000000500000000000000000000000000000000000000000000000000000000000000000000000000000400482161                 RGE6D21     
1482193    202304142023041420230509V1   1         1             1    40321     44365     9BGKL48U0LB1461384     ALDO                                  00015569209468000039076000039076160600001800000014230000001v1                                                                                                                                                                                                                                                                                                                                                                                                                                                                                                                  0000000000000000000000000000000000000000000010000000140000000000011733450000000000000000000000000000011733450000000000004376860000000000000000000000000000004376860000400482193                 QGX4A89     
1482194    202304142023041420230513V1   1                       1    40321     44631     9BGEB48A0PG1722964     GABRIEL                               07893237000198000021800000021800161400001648000010140000000                                                                                                                                                                                                                                                                                                                                                                                                                                                                                                                    0000000000000000000000000000000000000000000010000000020000000000000574620000000000000150000000000000000424620000000000000124620000000000000000000000000000000124620000400482194                 RGN6J56     
1482202    202304142023041420230502V1   1                       1    40321     44620     9BGEN48H0PG1119334     LUIZM                                 00033622078715000006340000006340164700001800000012290000000                                                                                                                                                                                                                                                                                                                                                                                                                                                                                                                    0000000000000000000000000000000000000000000010000000000000000000000000200000000000000000200000000000000000000000000000000000000000000000000000000000000000000000000000400482202                 RGM2H04     
1482221    202304152023041520230526V1   1                       1    40321     44660     9BGEB69H0PG1377234     ANDREF                                00001144381452000010470000010470100200001200000008280000000                                                                                                                                                                                                                                                                                                                                                                                                                                                                                                                    0000000000000000000000000000000000000000000010000000000000000000000000500000000000000000500000000000000000000000000000000000000000000000000000000000000000000000000000400482221                             
1482230    202304152023041520230526V1   1                       1    40321     44395     9BGEY48H0MG1254494     ERNANDE                               00000971769400000019562000019562104600001118000016140000000                                                                                                                                                                                                                                                                                                                                                                                                                                                                                                                    0000000000000000000000000000000000000000000010000000000000000000000001000000000000000001000000000000000000000000000000000000000000000000000000000000000000000000000000400482230                 RLW4J20     
1482298    202304182023041820230520V1   1                       1    40321     44651     9BGEB69A0PG1717834     GABRIEL                               10215988000160000007070000007070091500001730000010040000000PEDIDO DE COMPRA 4508088642                                                                                                                                                                                                                                                                                                                                                                                                                                                                                         0000000000000000000000000000000000000000000010000000020000000000002375860000000000000989000000000000001386860000000000000000000000000000000000000000000000000000000000400482298                 RUV9G15     
1482423    202304202023042020230518V2   1                       1    20070     44436     9BGEB76H0MB2349874     ANDREF                                40787152000109000018290000018290082500001200000016070000000                                                                                                                                                                                                                                                                                                                                                                                                                                                                                                                    0000000000000000000000000000000000000000000010000000020000000000000677380000000000000158120000000000000519260000000000000000000000000000000000000000000000000000000000400482423                 RGH7F58     
1482469    202304202023042020230503V2   1                       1    20        44295     9BG148MK0MC4047154     ANDREF                                12598528000193000045577000045577151700001800000017350000000                                                                                                                                                                                                                                                                                                                                                                                                                                                                                                                    0000000000000000000000000000000000000000000010000000020000000000002307950000000000000406600000000000001901350000000000000000000000000000000000000000000000000000000000400482469                 RGE6D63     
1482481    202304202023042020230504V1   1                       1    40321     44124     9BGKS48V0KG4725984     GUSTAVOM                              00003882972475000030201000030201170700001730000012130000000                                                                                                                                                                                                                                                                                                                                                                                                                                                                                                                    0000000000000000000000000000000000000000000010000000030000000000000431640000000000000020000000000000000411640000000000000162640000000000000000000000000000000162640000400482481                 QGW3B19     
1482518    202304242023042420230527V1   1                       1    40321     44468     9BGEB69A0MG1695394     ANDREF                                00079141366468000022147000022147080900001730000009190000000                                                                                                                                                                                                                                                                                                                                                                                                                                                                                                                    0000000000000000000000000000000000000000000010000000000000000000000000500000000000000000500000000000000000000000000000000000000000000000000000000000000000000000000000400482518                 RME9H17     
1482560    202304242023042420230503V2   1                       1    120333    125474    9BG148FK0MC4217974     ANDREF                                36731508000107000052441000052441171600001800000017020000000                                                                                                                                                                                                                                                                                                                                                                                                                                                                                                                    0000000000000000000000000000000000000000000010000000020000000000002307530000000000000406600000000000001900930000000000000000000000000000000000000000000000000000000000400482560                 RGG9F39     
1482577    202304252023042520230522V1   1                       1    20070     44225     9BGEP76B0PB1812914     LUIZM                                 40762890000193000000014000000014110300001200000016190000000                                                                                                                                                                                                                                                                                                                                                                                                                                                                                                                    0000000000000000000000000000000000000000000010000000000000000000000000200000000000000000200000000000000000000000000000000000000000000000000000000000000000000000000000400482577                 RGM1D39     
1482583    202304252023042520230508SN   1                       1    40316     43798     9BGJC6920HB2108034     JOELDES                               09114091000160000079857000079857111600001130000013230000000VERIFICAR VIDA UTIL DO OLEO VERIFICAR SUSPENAO E FREIOS DO VEICULO                                                                                                                                                                                                                                                                                                                                                                                                                                                 0000000000000000000000000000000000000000000010000000080000000000000588940000000000000000000000000000000588940000000000000000000000000000000000000000000000000000000000400482583                 PCT1145     
1482587    202304252023042520230519V1   1                       1    40320     44583     9BGJB7520NB1275244     ANDREF                                00002450686436000022147000022147113500001200000008360000000 V1 para V2                                                                                                                                                                                                                                                                                                                                                                                                                                                                                                         0000000000000000000000000000000000000000000010000000020000000000000393810000000000000000000000000000000393810000000000000118140000000000000000000000000000000118140000400482587                 RGK1B90     
1482629    202304262023042620230502V2   1                       1    22        44412     9BG156YK0LC4375414     ALDO                                  00055533140468000031185000031185080400001530000008420000000                                                                                                                                                                                                                                                                                                                                                                                                                                                                                                                    0000000000000000000000000000000000000000000010000000020000000000004534000000000000000225890000000000004308110000000000000000000000000000000000000000000000000000000000400482629                 RGK0B07     
1482636    202304262023042620230518V2   1                       1    40321     44474     9BGEB69H0MG1341634     ARIS                                  00087773244472000035011000035011090600001730000014530000000                                                                                                                                                                                                                                                                                                                                                                                                                                                                                                                    0000000000000000000000000000000000000000000010000000010000000000002318780000000000001807120000000000000511660000000000000000000000000000000000000000000000000000000000400482636                 RGF3G79     
1482637    202304262023042620230508SN   1                       213  40325     125358    93YHSR3H5JJ9510904     JOELDES                               09114091000160000032438000032438091500000930000012400000000VERIFICAR A NESSECIDADE DA TROCA DO OLEO VERIFICAR FREIOS E SUSPENSO                                                                                                                                                                                                                                                                                                                                                                                                                                               0000000000000000000000000000000000000000000010000000020000000000000102220000000000000000000000000000000102220000000000000000000000000000000000000000000000000000000000400482637                 QGK2077     
1482643    202304262023042620230503V1   1                       1    40321     44637     9BGEB48A0PG1573424     LUIZM                                 40762890000193000009843000009843094000001200000009500000000                                                                                                                                                                                                                                                                                                                                                                                                                                                                                                                    0000000000000000000000000000000000000000000010000000040000000000000467560000000000000000000000000000000467560000000000000187020000000000000000000000000000000187020000400482643                 OJY1C57     
1482651    202304262023042620230512SN   1                       1    40321     43654     9BGKT48R0GG1041594     JOELDES                               09114091000160000082235000082235105100001100000017380000000VERIFICAR VIDA UTIL DO OLEO VERIFICAR SISTEMA DE FREIOS E SUSPANSO                                                                                                                                                                                                                                                                                                                                                                                                                                                 0000000000000000000000000000000000000000000010000000120000000000000752330000000000000000000000000000000752330000000000000000000000000000000000000000000000000000000000400482651                 QGE2978     
1482659    202304262023042620230506SG   1                       1    40321     43407     9BGKT48L0FG2117624     JOELDES                               09114091000160000102369000102369131700001330000010460000000TROCAS OS 2 EMBLEMAS DO VEICULO                                                                                                                                                                                                                                                                                                                                                                                                                                                                                     0000000000000000000000000000000000000000000010000000020000000000000201550000000000000000000000000000000201550000000000000000000000000000000000000000000000000000000000400482659                 QGB5569     
1482683    202304262023042620230506SG   1                       17   20335     124609    9BRBD3HE2J03652414     JOELDES                               09114091000160000051741000051741154600001600000010480000000TROCA DE OLEO DADO EM GARANTIA PELO GERENTE                                                                                                                                                                                                                                                                                                                                                                                                                                                                         0000000000000000000000000000000000000000000010000000020000000000000133700000000000000000000000000000000133700000000000000000000000000000000000000000000000000000000000400482683                 QGW6078     
1482686    202304262023042620230506SG   1                       1    40321     44656     9BGEB48A0MG1594344     JOELDES                               09114091000160000046548000046548161700001630000010500000000TROCAR PASTILHAS E DISCO DE FREIO DO VEICULO AUTORIZADO PELO GERENTE                                                                                                                                                                                                                                                                                                                                                                                                                                                0000000000000000000000000000000000000000000010000000020000000000000547970000000000000000000000000000000547970000000000000000000000000000000000000000000000000000000000400482686                 RGH0I50     
1482699    202304272023042720230522V2   1                       1    20070     44527     9BGEP76B0NB1585874     RONNEY                                00047241055420000018533000018533082800001730000015160000000                                                                                                                                                                                                                                                                                                                                                                                                                                                                                                                    0000000000000000000000000000000000000000000010000000010000000000002537730000000000001807120000000000000730610000000000000000000000000000000000000000000000000000000000400482699                 RGG3F82     
1482702    202304272023042720230503V3   1                       1    40320     44658     9BGJF7520PB1443574     ALDO                                  09240589000170000010297000010297083400001100000009450000000                                                                                                                                                                                                                                                                                                                                                                                                                                                                                                                    0000000000000000000000000000000000000000000010000000000000000000000264370000000000000264370000000000000000000000000000000000000000000000000000000000000000000000000000400482702                             
1482710    202304272023042720230504V2   1                       1    40321     44457     9BGKD48U0MB2458394     ARIS                                  00006460039410000016112000016112085300001500000017300000000                                                                                                                                                                                                                                                                                                                                                                                                                                                                                                                    0000000000000000000000000000000000000000000020000000020000000000001641470000000000000158130000000000001483340000000000000000000000000000000000000000000000000000000000400482710                 RGI6I45     
1482711    202304272023042720230506SG   1                       1    40321     44125     9BGKS48V0KG2337554     JOELDES                               09114091000160000013000000013000085400000900000010510000000TROCAR BATERIA AUTORIZADO PELO GERENTE                                                                                                                                                                                                                                                                                                                                                                                                                                                                              0000000000000000000000000000000000000000000010000000010000000000000281390000000000000000000000000000000281390000000000000000000000000000000000000000000000000000000000400482711                 QGR6C42     
1482712    202304272023042720230506SG   1                       1    40321     44188     9BGKL48U0KB1504774     JOELDES                               09114091000160000070000000070000085700000900000010540000000VERIFICAR BARULHO NA EMBREAGEM                                                                                                                                                                                                                                                                                                                                                                                                                                                                                      0000000000000000000000000000000000000000000010000000020000000000000379950000000000000000000000000000000379950000000000000000000000000000000000000000000000000000000000400482712                 QGR2I42     
1482715    202304272023042720230520V1   1                       1    40321     44572     9BGEB69H0PG1294874     ANDREF                                04836002000176000010159000010159095400001000000010110000000O.S LEASEPLAN 348979                                                                                                                                                                                                                                                                                                                                                                                                                                                                                                0000000000000000000000000000000000000000000030000000030000000000000608310000000000000160000000000000000448310000000000000000000000000000000000000000000000000000000000400482715                 CCU7C43     
1482718    202304272023042720230505V9   1                       1    40333     45177     3GNAX9EJ0PL1404464     BRUNAL                                00069072787404000000010000000010100600001100000011020000000                                                                                                                                                                                                                                                                                                                                                                                                                                                                                                                    0000000000000000000000000000000000000000000010000000010000000000000490000000000000000000000000000000000490000000000000000147000000000000000000000000000000000147000000400482718                             
1482725    202304272023042720230510V1   1                       1    40315     43512     9BGPB69N0FB1954424     ARIS                                  13738306000191000092870000092870105700001230000017190000000                                                                                                                                                                                                                                                                                                                                                                                                                                                                                                                    0000000000000000000000000000000000000000000010000000010000000000009000000000000000001000000000000000008000000000000000000000000000000000000000000000000000000000000000400482725                 PMV3177     
1482726    202304272023042720230504V9   1                       213  40325     124906    93YRBB009PJ2483144     JESSICAP                              00018838073449000000006000000006110000001330000009540000000                                                                                                                                                                                                                                                                                                                                                                                                                                                                                                                    0000000000000000000000000000000000000000000010000000010000000000000350000000000000000000000000000000000350000000000000000000000000000000000000000000000000000000000000400482726                 RGN2I87     
1482734    202304272023042720230503V1   1                       1    40321     44457     9BGKD48U0MB1956414     ANDREF                                00033966591120000029978000029978120300001248000015540000000                                                                                                                                                                                                                                                                                                                                                                                                                                                                                                                    0000000000000000000000000000000000000000000010000000070000000000001395680000000000000421000000000000000974680000000000000712480000000000000210500000000000000501980000400482734                 RGE6F53     
1482735    202304272023042720230504V2   1                       1    40320     44643     9BGJP7520PB1234624     ARIS                                  00006256038428000023899000023899133700001730000017330000000                                                                                                                                                                                                                                                                                                                                                                                                                                                                                                                    0000000000000000000000000000000000000000000020000000000000000000000498100000000000000498100000000000000000000000000000000000000000000000000000000000000000000000000000400482735                 OJW4C84     
1482741    202304272023042720230503V2   1                       1    40321     44619     9BGEB69A0PG1775844     GABRIEL                               00001849938814000024850000024850142800001548000017390000000                                                                                                                                                                                                                                                                                                                                                                                                                                                                                                                    0000000000000000000000000000000000000000000010000000020000000000000627280000000000000135530000000000000491750000000000000000000000000000000000000000000000000000000000400482741                             
1482745    202304272023042720230503V3   1                       1    20070     44626     9BGEP76B0PB1376444     CLAUDIONOR                            05631396000199000010900000010900145100001618000009430000000                                                                                                                                                                                                                                                                                                                                                                                                                                                                                                                    0000000000000000000000000000000000000000000010000000000000000000000290810000000000000290810000000000000000000000000000000000000000000000000000000000000000000000000000400482745                 RGL4H19     
1482747    202304272023042720230505V2   1                       1    40321     44457     9BGKD48U0MB1956414     ANDREF                                00033966591120000029978000029978145700001630000015400000000                                                                                                                                                                                                                                                                                                                                                                                                                                                                                                                    0000000000000000000000000000000000000000000020000000030000000000001391540000000000000203300000000000001188240000000000000022620000000000000022620000000000000000000000400482747                 RGE6F53     
1482749    202304272023042720230505SF   1                       1    20070     44225     3GNCJ8CZ7JL1841424     JOELDES                               09114091000160000070520000070520145900001500000009510000000                                                                                                                                                                                                                                                                                                                                                                                                                                                                                                                    0000000000000000000000000000000000000000000010000000000000000000000750000000000000000750000000000000000000000000000000000000000000000000000000000000000000000000000000400482749                 QGX3I71     
1482756    202304272023042720230505V9   1                       1    20070     44436     9BGEB76H0MB1571504     JESSICAP                              00000286162008000033156000033156153200001700000016010000000                                                                                                                                                                                                                                                                                                                                                                                                                                                                                                                    0000000000000000000000000000000000000000000010000000020000000000001400000000000000000000000000000000001400000000000000000000000000000000000000000000000000000000000000400482756                             
1482760    202304272023042720230505V2   1                       1    40321     44457     9BGKD48U0MB1956414     ANDREF                                00033966591120000029978000029978154900001730000015470000000                                                                                                                                                                                                                                                                                                                                                                                                                                                                                                                    0000000000000000000000000000000000000000000020000000000000000000000649410000000000000649410000000000000000000000000000000000000000000000000000000000000000000000000000400482760                 RGE6F53     
1482763    202304272023042720230502V2   1                       1    40320     43135     9BGJC75Z0DB2737084     GABRIEL                               00046540415400000107529000107529161700001700000014350000000 V1 para V2                                                                                                                                                                                                                                                                                                                                                                                                                                                                                                         0000000000000000000000000000000000000000000010000000020000000000000079670000000000000050000000000000000029670000000000000003490000000000000003490000000000000000000000400482763                 PGM5A31     
1482767    202304272023042720230505D1   1                       1    40321     44624     9BGEN48H0PG1186524     LUIZM                                 00013076817434000010512000010512162300001718000014380000000                                                                                                                                                                                                                                                                                                                                                                                                                                                                                                                    0000000000000000000000000000000000000000000010000000030000000000000187100000000000000000000000000000000187100000000000000000000000000000000000000000000000000000000000400482767                 RGM7A55     
1482780    202304272023042720230526V1   1                       1    40333     44231     3GNAX9EX9KS6234194     ANDREF                                00002261672403000024552000024552164200001730000008290000000                                                                                                                                                                                                                                                                                                                                                                                                                                                                                                                    0000000000000000000000000000000000000000000010000000000000000000000000500000000000000000500000000000000000000000000000000000000000000000000000000000000000000000000000400482780                 OXO1B61     
1482787    202304282023042820230502V2   1                       1    20070     44225     3GNCJ8CZ8KL4018144     ARIS                                  00060238887715000024909000024909080600001218000008400000000                                                                                                                                                                                                                                                                                                                                                                                                                                                                                                                    0000000000000000000000000000000000000000000010000000010000000000004954470000000000000316250000000000004638220000000000000000000000000000000000000000000000000000000000400482787                 QGX4D77     
1482788    202304282023042820230518V2   1                       1    40321     44624     9BGEN48H0PG2446854     ERNANDE                               00047391570478000012734000012734081100001730000014520000000                                                                                                                                                                                                                                                                                                                                                                                                                                                                                                                    0000000000000000000000000000000000000000000010000000020000000000002083250000000000001942650000000000000140600000000000000000000000000000000000000000000000000000000000400482788                 RQB1E99     
1482789    202304282023042820230506SG   1                       1    2         43555     8AGSU1920FR1581034     JOELDES                               09114091000160000070718000070718081900000830000010540000000OBS CARRO COM VAZAMENTO DE AGUA                                                                                                                                                                                                                                                                                                                                                                                                                                                                                     0000000000000000000000000000000000000000000010000000070000000000000074730000000000000000000000000000000074730000000000000000000000000000000000000000000000000000000000400482789                 OWD1363     
1482797    202304282023042820230503V2   1                       1    40321     44623     9BGEA48A0PG1153204     LUIZM                                 00075077515468000007739000007739084600001018000017470000000                                                                                                                                                                                                                                                                                                                                                                                                                                                                                                                    0000000000000000000000000000000000000000000010000000010000000000000244240000000000000090360000000000000153880000000000000000000000000000000000000000000000000000000000400482797                 RGM2H73     
1482799    202304282023042820230511SG   1                       1900 40334     125590    9BHGA811BLP1651764     JOELDES                               09114091000160000033008000033008085700000900000010010000000TROCAR AS 4 BORACHAS DAS PORTAS DO VEICULO                                                                                                                                                                                                                                                                                                                                                                                                                                                                          0000000000000000000000000000000000000000000010000000040000000000000560820000000000000000000000000000000560820000000000000000000000000000000000000000000000000000000000400482799                 QGW5F79     
1482801    202304282023042820230503V2   1                       1    40321     44637     9BGEB48A0PG1909984     RONNEY                                03608326000194000015014000015014090700001218000017420000000                                                                                                                                                                                                                                                                                                                                                                                                                                                                                                                    0000000000000000000000000000000000000000000010000000020000000000000509040000000000000135530000000000000373510000000000000000000000000000000000000000000000000000000000400482801                 OJY9G39     
1482804    202304282023042820230522V2   1                       1    40321     124577    9BGEA48A0NG1708574     ISAIAS                                00001259503496000023589000023589095900001730000015080000000                                                                                                                                                                                                                                                                                                                                                                                                                                                                                                                    0000000000000000000000000000000000000000000010000000010000000000002318780000000000001807120000000000000511660000000000000000000000000000000000000000000000000000000000400482804                 RGG9H32     
1482819    202304282023042820230505SF   1                       5    120334    124911    9BWAA45U9GP0915244     JOELDES                               09114091000160000057157000057157142000001430000009510000000                                                                                                                                                                                                                                                                                                                                                                                                                                                                                                                    0000000000000000000000000000000000000000000010000000000000000000000400000000000000000400000000000000000000000000000000000000000000000000000000000000000000000000000000400482819                 QGI3590     
1482830    202304282023042820230503V2   1                       1    40320     44654     9BGJJ7520PB1759204     LUIZM                                 00077853750463000007542000007542155700001718000017480000000                                                                                                                                                                                                                                                                                                                                                                                                                                                                                                                    0000000000000000000000000000000000000000000010000000020000000000000662970000000000000271070000000000000391900000000000000000000000000000000000000000000000000000000000400482830                 RQA8G07     
1482831    202304282023042820230522V2   1                       1    120333    125485    9BGEB76H0NB1668044     ERNANDE                               09114091000160000042637000042637160600001630000015230000000 V1 para V2                                                                                                                                                                                                                                                                                                                                                                                                                                                                                                         0000000000000000000000000000000000000000000010000000020000000000002083250000000000001942650000000000000140600000000000000000000000000000000000000000000000000000000000400482831                 RGH2C51     
1482837    202304282023042820230525V2   1                       1    40333     44207     3GNAX9EX9KS5506824     ERNANDE                               00001064278493000019760000019760161400001630000015570000000 V1 para V2                                                                                                                                                                                                                                                                                                                                                                                                                                                                                                         0000000000000000000000000000000000000000000010000000010000000000000903840000000000000090360000000000000813480000000000000000000000000000000000000000000000000000000000400482837                 RGI0D17     
1482844    202304282023042820230502V2   1                       1    40320     43444     9BGJB75Z0EB1233284     GABRIEL                               00005391588448000092360000092360164300001730000014140000000                                                                                                                                                                                                                                                                                                                                                                                                                                                                                                                    0000000000000000000000000000000000000000000010000000020000000000000079670000000000000050000000000000000029670000000000000003490000000000000003490000000000000000000000400482844                 OWA8J07     
1482859    202304292023042920230508V1   1                       1    40320     43581     9BGJC75E0GB1905024     LUIZM                                 00010806415487000190252000190252085100001030000009540000000                                                                                                                                                                                                                                                                                                                                                                                                                                                                                                                    0000000000000000000000000000000000000000000010000000020000000000000403020000000000000050000000000000000353020000000000000003020000000000000003020000000000000000000000400482859                 QGH5725     
1482860    202304292023042920230509V1   1                       1    20        44598     9BG148FK0NC4169704     CLAUDIONOR                            02909308000180000080587000080587085400001000000016010000000                                                                                                                                                                                                                                                                                                                                                                                                                                                                                                                    0000000000000000000000000000000000000000000010000000070000000000001917060000000000000616000000000000001301060000000000000220460000000000000000000000000000000220460000400482860                 RGM3I15     
1482863    202304292023042920230503V2   1                       1    40321     44457     9BGKD48U0MB2396314     ERNANDE                               25138383000190000049334000049334091400001030000017400000000 V1 para V2                                                                                                                                                                                                                                                                                                                                                                                                                                                                                                         0000000000000000000000000000000000000000000010000000010000000000001044880000000000000112940000000000000931940000000000000000000000000000000000000000000000000000000000400482863                 RGG7G44     
1482865    202304292023042920230509VA   1                       1    40321     44390     9BGEB69A0LG2310214     BRUNAL                                00004765421708000288451000288451092300001030000011410000000                                                                                                                                                                                                                                                                                                                                                                                                                                                                                                                    0000000000000000000000000000000000000000000010000000020000000000000379800000000000000000000000000000000379800000000000000037980000000000000000000000000000000037980000400482865                 QGW8G87     
1482867    202304292023042920230502V1   1                       1    40316     43340     9BGJC6930FB2117034     ISAIAS                                00096997796400000141129000141129092800001800000016160000000                                                                                                                                                                                                                                                                                                                                                                                                                                                                                                                    0000000000000000000000000000000000000000000010000000050000000000001747010000000000000400000000000000001347010000000000000458010000000000000000000000000000000458010000400482867                 QGD6773     
1482872    202304292023042920230506SG   1                       1    120333    124406    9BGKS48V0HG1159294     JOELDES                               09114091000160000087973000087973100000001030000010400000000VERIFICAR BARULHO NO FREIO                                                                                                                                                                                                                                                                                                                                                                                                                                                                                          0000000000000000000000000000000000000000000010000000010000000000000167080000000000000000000000000000000167080000000000000000000000000000000000000000000000000000000000400482872                 QGI8F87     
