1202305020811099500015512 068JVSILVA             2   0000002728        1923843   217010    12~3~192384                                                 000000000030000000010000000000000377740000000000000000000000000000000377740000000000000202740000000000000000000000000000000202740000000000000175000000000000000175000000000000000000000000000000000271150000000000000135570000000000000135570000000000000000000000000000000000000000000000000000000000000000000000000000000000000000000000000000000000000000000000000000000000000000000000000000000000000002100000000000000009680000000000000175009BGJP7520LB186058
1202305020811099500015512 068JVSILVA             2   0000002728        61551A    217010    12~A~61551                                                  000000000000000000010000000000000040000000000000000040000000000000000000000000000000000000000000000000000000000000000000000000000000000000000040000000000000000000000000000000000040000000000000000000000000000000000000000000000000000000000000000000000000000000000000000000000000000000000000000000000000000000000000000000000000000000000000000000000000000000000002000000000000000000000000000000000000660000000000000003040000000000000040009BGJP7520LB186058
1202305020008846503945312 068ARIZALDO            2   0000001446        1923893   217012    12~3~192389                                                 000000000050000000030000000000000457590000000000000000000000000000000457590000000000000107590000000000000000000000000000000107590000000000000350000000000000000350000000000000000000000000000000000375260000000000000187630000000000000187630000000000000000000000000000000000000000000000000000000000000000000000000000000000000000000000000000000000000000000000000000000000000000000000000000000000000003710000000000000017100000000000000350009BGEA48HOMG196250
1202305020008846503945312 068ARIZALDO            2   0000001446        61552A    217012    12~A~61552                                                  000000000000000000030000000000000400000000000000000400000000000000000000000000000000000000000000000000000000000000000000000000000000000000000400000000000000000000000000000000000400000000000000000000000000000000000000000000000000000000000000000000000000000000000000000000000000000000000000000000000000000000000000000000000000000000000000000000000000000000000020000000000000000000000000000000000006600000000000000030400000000000000400009BGEA48HOMG196250
1202305020873778500019112 068ARIZALDO            2   0000002728        1923933   217015    12~3~192393                                                 010000000070000000040000000000000793480000000000000000000000000000000793480000000000000103480000000000000000000000000000000103480000000000000690000000000000000690000000000000000000000000000000000631240000000000000315620000000000000315620000000000000000000000000000000000000000000000000000000000000000000000000000000000000000000000000000000000000000000000000000000000000000000000000000000000000008620000000000000039670000000000000690009BGJJ7520PB185966
1202305020873778500019112 068ARIZALDO            2   0000002728        61553A    217015    12~A~61553                                                  010000000000000000040000000000000510000000000000000510000000000000000000000000000000000000000000000000000000000000000000000000000000000000000510000000000000000000000000000000000510000000000000000000000000000000000000000000000000000000000000000000000000000000000000000000000000000000000000000000000000000000000000000000000000000000000000000000000000000000000025500000000000000000000000000000000008420000000000000038760000000000000510009BGJJ7520PB185966
1202305020873778500019112 068ARIZALDO            2   0000002728        1923963   217015    12~3~192396                                                 000000000070000000040000000000000986610000000000000000000000000000000986610000000000000296610000000000000000000000000000000296610000000000000690000000000000000690000000000000000000000000000000000760540000000000000380270000000000000380270000000000000000000000000000000000000000000000000000000000000000000000000000000000000000000000000000000000000000000000000000000000000000000000000000000000000009050000000000000041700000000000000690009BGJJ7520PB185966
1202305020873778500019112 068ARIZALDO            2   0000002728        61554A    217015    12~A~61554                                                  000000000000000000040000000000000510000000000000000510000000000000000000000000000000000000000000000000000000000000000000000000000000000000000510000000000000000000000000000000000510000000000000000000000000000000000000000000000000000000000000000000000000000000000000000000000000000000000000000000000000000000000000000000000000000000000000000000000000000000000025500000000000000000000000000000000008420000000000000038760000000000000510009BGJJ7520PB185966
1202305020000080914845512 068JCOSTA              2   0000001446        1924033   217016    12~3~192403                                                 000000000050000000040000000000000630230000000000000000000000000000000630230000000000000070230000000000000000000000000000000070230000000000000560000000000000000560000000000000000000000000000000000561770000000000000280890000000000000280890000000000000000000000000000000000000000000000000000000000000000000000000000000000000000000000000000000000000000000000000000000000000000000000000000000000000005530000000000000025460000000000000560009BGJP7520PB184591
1202305020000080914845512 068JCOSTA              2   0000001446        61555A    217016    12~A~61555                                                  000000000000000000040000000000000160000000000000000160000000000000000000000000000000000000000000000000000000000000000000000000000000000000000160000000000000000000000000000000000160000000000000000000000000000000000000000000000000000000000000000000000000000000000000000000000000000000000000000000000000000000000000000000000000000000000000000000000000000000000008000000000000000000000000000000000002640000000000000012160000000000000160009BGJP7520PB184591
1202305020000381235548512 068KSANTOS             2   0000001446        1924083   217014    12~3~192408                                                 000000000110000000050000000000001265990000000000000000000000000000001265990000000000000006490000000000000000000000000000000006490000000000001259500000000000001259500000000000000000000000000000000963750000000000000481880000000000000481880000000000000000000000000000000000000000000000000000000000000000000000000000000000000000000000000000000000000000000000000000000000000000000000000000000000000011030000000000000050830000000000001259509BGKT69V0KG162479
1202305020000381235548512 068KSANTOS             2   0000001446        61558A    217014    12~A~61558                                                  000000000000000000050000000000000530500000000000000530500000000000000000000000000000000000000000000000000000000000000000000000000000000000000530500000000000000000000000000000000530500000000000000000000000000000000000000000000000000000000000000000000000000000000000000000000000000000000000000000000000000000000000000000000000000000000000000000000000000000000026520000000000000000000000000000000008760000000000000040320000000000000530509BGKT69V0KG162479
1202305020000767666143912 068ARIZALDO            2   0000001446        1924163   217029    12~3~192416                                                 000000000040000000010000000000000444960000000000000000000000000000000444960000000000000043360000000000000000000000000000000043360000000000000401600000000000000401600000000000000000000000000000000350380000000000000175190000000000000175190000000000000000000000000000000000000000000000000000000000000000000000000000000000000000000000000000000000000000000000000000000000000000000000000000000000000004150000000000000019100000000000000401609BGEN48H0LG143707
1202305020000767666143912 068ARIZALDO            2   0000001446        61559A    217029    12~A~61559                                                  000000000000000000010000000000000288400000000000000288400000000000000000000000000000000000000000000000000000000000000000000000000000000000000288400000000000000000000000000000000288400000000000000000000000000000000000000000000000000000000000000000000000000000000000000000000000000000000000000000000000000000000000000000000000000000000000000000000000000000000014420000000000000000000000000000000004760000000000000021920000000000000288409BGEN48H0LG143707
1202305020004488431143412 068ARIZALDO            2   0000001446        1924173   217022    12~3~192417                                                 000000000030000000010000000000000387370000000000000000000000000000000387370000000000000057370000000000000000000000000000000057370000000000000330000000000000000330000000000000000000000000000000000310460000000000000155230000000000000155230000000000000000000000000000000000000000000000000000000000000000000000000000000000000000000000000000000000000000000000000000000000000000000000000000000000000004130000000000000018990000000000000330009BGEB48A0PG145254
1202305020000351778942912 068JCOSTA              2   0000001446        1924213   217011    12~3~192421                                                 000000000060000000040000000000000669250000000000000000000000000000000669250000000000000101250000000000000000000000000000000101250000000000000568000000000000000568000000000000000000000000000000000670970000000000000335490000000000000335490000000000000000000000000000000000000000000000000000000000000000000000000000000000000000000000000000000000000000000000000000000000000000000000000000000000000005200000000000000023940000000000000568009BGEB76H0NB108253
1202305020000351778942912 068JCOSTA              2   0000001446        61560A    217011    12~A~61560                                                  000000000000000000040000000000000478000000000000000478000000000000000000000000000000000000000000000000000000000000000000000000000000000000000478000000000000000000000000000000000478000000000000000000000000000000000000000000000000000000000000000000000000000000000000000000000000000000000000000000000000000000000000000000000000000000000000000000000000000000000023900000000000000000000000000000000007890000000000000036330000000000000478009BGEB76H0NB108253
1202305022072311200018812 068JCOSTA              2   0000001446        1924233   217025    12~3~192423                                                 000000000060000000050000000000001063700000000000000000000000000000001063700000000000000153700000000000000000000000000000000153700000000000000910000000000000000910000000000000000000000000000000000770520000000000000385260000000000000385260000000000000000000000000000000000000000000000000000000000000000000000000000000000000000000000000000000000000000000000000000000000000000000000000000000000000013840000000000000063750000000000000910009BG148MK0MC405075
1202305022072311200018812 068JCOSTA              2   0000001446        61561A    217025    12~A~61561                                                  000000000000000000050000000000000790000000000000000790000000000000000000000000000000000000000000000000000000000000000000000000000000000000000790000000000000000000000000000000000790000000000000000000000000000000000000000000000000000000000000000000000000000000000000000000000000000000000000000000000000000000000000000000000000000000000000000000000000000000000039500000000000000000000000000000000013040000000000000060040000000000000790009BG148MK0MC405075
1202305020881152300012012 068EAGUIAR             2   0000000000        1924273   216763    12~3~192427                                                 000000000060000000010000000000001747790000000000000000000000000000001747790000000000000000000000000000000000000000000000000000000000000000001747790000000000001747790000000000000000000000000000003495580000000000001747790000000000001747790000000000000000000000000000000000000000000000000000000000000000000000000000000000000000000000000000000000000000000000000000000000000000000000000000000000000006600000000000000030360000000000001747799BGEB76H0PB246770
1202305020008842513440412 068ARIZALDO            2   0000001446        1924303   217024    12~3~192430                                                 000000000040000000010000000000000444960000000000000000000000000000000444960000000000000005760000000000000000000000000000000005760000000000000439200000000000000439200000000000000000000000000000000350380000000000000175190000000000000175190000000000000000000000000000000000000000000000000000000000000000000000000000000000000000000000000000000000000000000000000000000000000000000000000000000000000004540000000000000020910000000000000439209BGEB76H0MB100333
1202305020008842513440412 068ARIZALDO            2   0000001446        61562A    217024    12~A~61562                                                  000000000000000000010000000000000310800000000000000310800000000000000000000000000000000000000000000000000000000000000000000000000000000000000310800000000000000000000000000000000310800000000000000000000000000000000000000000000000000000000000000000000000000000000000000000000000000000000000000000000000000000000000000000000000000000000000000000000000000000000015540000000000000000000000000000000005130000000000000023620000000000000310809BGEB76H0MB100333
1202305030007146417441512 068ARIZALDO            2   0000001446        1924383   217031    12~3~192438                                                 000000000090000000020000000000000833700000000000000000000000000000000833700000000000000111720000000000000000000000000000000111720000000000000721980000000000000721980000000000000000000000000000000619110000000000000309550000000000000309550000000000000000000000000000000000000000000000000000000000000000000000000000000000000000000000000000000000000000000000000000000000000000000000000000000000000006970000000000000032150000000000000721989BGKT69R0GG219652
1202305030007146417441512 068ARIZALDO            2   0000001446        61563A    217031    12~A~61563                                                  000000000000000000020000000000000360020000000000000360020000000000000000000000000000000000000000000000000000000000000000000000000000000000000360020000000000000000000000000000000360020000000000000000000000000000000000000000000000000000000000000000000000000000000000000000000000000000000000000000000000000000000000000000000000000000000000000000000000000000000018000000000000000000000000000000000005940000000000000027360000000000000360029BGKT69R0GG219652
1202305030881152300012012 068JCOSTA              2   0000000000        1924393   217032    12~3~192439                                                 000000000050000000010000000000000207860000000000000000000000000000000207860000000000000069610000000000000000000000000000000069610000000000000138250000000000000138250000000000000000000000000000000415750000000000000207870000000000000207870000000000000000000000000000000000000000000000000000000000000000000000000000000000000000000000000000000000000000000000000000000000000000000000000000000000000001340000000000000006150000000000000138258AGBN69S0NR108042
1202305030881603500010512 068ARIZALDO            2   0000002770        61564A    217023    12~A~61564                                                  000000000000000000010000000000000290810000000000000290810000000000000000000000000000000000000000000000000000000000000000000000000000000000000290810000000000000000000000000000000290810000000000000000000000000000000000000000000000000000000000000000000000000000000000000000000000000000000000000000000000000000000000000000000000000000000000000000000000000000000014540000000000000000000000000000000004800000000000000022100000000000000290819BGEB48A0PG145254
1202305030001320309640412 068ARIZALDO            2   0000001446        1924403   217036    12~3~192440                                                 000000000010000000020000000000003000000000000000000000000000000000003000000000000000000000000000000000000000000000000000000000000000000000003000000000000000003000000000000000000000000000000000004720000000000000002360000000000000002360000000000000000000000000000000000000000000000000000000000000000000000000000000000000000000000000000000000000000000000000000000000000000000000000000000000000000000000000000000000000000000000000003000003GNAX9EX5LS514991
1202305030001320309640412 068ARIZALDO            2   0000001446        61565A    217036    12~A~61565                                                  000000000000000000020000000000000160000000000000000160000000000000000000000000000000000000000000000000000000000000000000000000000000000000000160000000000000000000000000000000000160000000000000000000000000000000000000000000000000000000000000000000000000000000000000000000000000000000000000000000000000000000000000000000000000000000000000000000000000000000000008000000000000000000000000000000000002640000000000000012160000000000000160003GNAX9EX5LS514991
1202305030002988703841512 068EAGUIAR             2   0000001446        1924413   217038    12~3~192441                                                 000000000010000000010000000000000399000000000000000000000000000000000399000000000000000000000000000000000000000000000000000000000000000000000399000000000000000399000000000000000000000000000000000326860000000000000163430000000000000163430000000000000000000000000000000000000000000000000000000000000000000000000000000000000000000000000000000000000000000000000000000000000000000000000000000000000000000000000000000000000000000000000399009BGEB76H0RB102745
1202305032732802500017512 068JCOSTA              2   0000002770        61566A    217017    12~A~61566                                                  000000000000000000010000000000000264370000000000000264370000000000000000000000000000000000000000000000000000000000000000000000000000000000000264370000000000000000000000000000000264370000000000000000000000000000000000000000000000000000000000000000000000000000000000000000000000000000000000000000000000000000000000000000000000000000000000000000000000000000000013220000000000000000000000000000000004360000000000000020090000000000000264379BGJP7520PB184591
1202305030000207795550312 068JVSILVA             2   0000001446        1924483   217034    12~3~192448                                                 000000000030000000010000000000000372370000000000000000000000000000000372370000000000000002370000000000000000000000000000000002370000000000000370000000000000000370000000000000000000000000000000000301990000000000000151000000000000000151000000000000000000000000000000000000000000000000000000000000000000000000000000000000000000000000000000000000000000000000000000000000000000000000000000000000000004570000000000000021050000000000000370009BGEY69H0PG158173
1202305030000901875449812 068ARIZALDO            2   0000001446        1924623   217053    12~3~192462                                                 000000000090000000010000000000001087850000000000000000000000000000001087850000000000000122650000000000000000000000000000000122650000000000000965200000000000000965200000000000000000000000000000000899160000000000000449580000000000000449580000000000000000000000000000000000000000000000000000000000000000000000000000000000000000000000000000000000000000000000000000000000000000000000000000000000000008660000000000000039830000000000000965209BGKS48L0DG243445
1202305030000901875449812 068ARIZALDO            2   0000001446        61567A    217053    12~A~61567                                                  000000000000000000010000000000000338800000000000000338800000000000000000000000000000000000000000000000000000000000000000000000000000000000000338800000000000000000000000000000000338800000000000000000000000000000000000000000000000000000000000000000000000000000000000000000000000000000000000000000000000000000000000000000000000000000000000000000000000000000000016940000000000000000000000000000000005590000000000000025750000000000000338809BGKS48L0DG243445
1202305030872676000019212 068KSANTOS             3   0000001424        1924673   217021    12~3~192467                                                 000000000020000000010000000000000271070000000000000000000000000000000271070000000000000000000000000000000000000000000000000000000000000000000271070000000000000271070000000000000000000000000000000412950000000000000206470000000000000206470000000000000000000000000000000000000000000000000000000000000000000000000000000000000000000000000000000000000000000000000000000000000000000000000000000000000001350000000000000006230000000000000271079BGJJ7520PB178834
1202305030872676000019212 068KSANTOS             3   0000001424        61568A    217021    12~A~61568                                                  000000000000000000010000000000000406610000000000000406610000000000000000000000000000000000000000000000000000000000000000000000000000000000000406610000000000000000000000000000000406610000000000000000000000000000000000000000000000000000000000000000000000000000000000000000000000000000000000000000000000000000000000000000000000000000000000000000000000000000000020330000000000000000000000000000000006710000000000000030900000000000000406619BGJJ7520PB178834
1202305032072311200018812 068JCOSTA              3   0000001424        1924693   217026    12~3~192469                                                 000000000010000000010000000000000388970000000000000000000000000000000388970000000000000000000000000000000000000000000000000000000000000000000388970000000000000388970000000000000000000000000000000688920000000000000344460000000000000344460000000000000000000000000000000000000000000000000000000000000000000000000000000000000000000000000000000000000000000000000000000000000000000000000000000000000004550000000000000020960000000000000388979BG148MK0MC405075
1202305032072311200018812 068JCOSTA              3   0000001424        61569A    217026    12~A~61569                                                  000000000000000000010000000000000045180000000000000045180000000000000000000000000000000000000000000000000000000000000000000000000000000000000045180000000000000000000000000000000045180000000000000000000000000000000000000000000000000000000000000000000000000000000000000000000000000000000000000000000000000000000000000000000000000000000000000000000000000000000002260000000000000000000000000000000000750000000000000003430000000000000045189BG148MK0MC405075
1202305030000594298245712 068JCOSTA              2   0000001446        1924753   217042    12~3~192475                                                 000000000070000000040000000000002448860000000000000000000000000000002448860000000000000073260000000000000000000000000000000073260000000000002375600000000000002375600000000000000000000000000000003447720000000000001723860000000000001723860000000000000000000000000000000000000000000000000000000000000000000000000000000000000000000000000000000000000000000000000000000000000000000000000000000000000006280000000000000028920000000000002375609BGKR48G0GG163614
1202305030000594298245712 068JCOSTA              2   0000001446        61570A    217042    12~A~61570                                                  000000000000000000040000000000000468400000000000000468400000000000000000000000000000000000000000000000000000000000000000000000000000000000000468400000000000000000000000000000000468400000000000000000000000000000000000000000000000000000000000000000000000000000000000000000000000000000000000000000000000000000000000000000000000000000000000000000000000000000000023420000000000000000000000000000000007730000000000000035600000000000000468409BGKR48G0GG163614
1202305030000517178249012 068JVSILVA             2   0000001446        1924813   217039    12~3~192481                                                 000000000050000000030000000000000496260000000000000000000000000000000496260000000000000236260000000000000000000000000000000236260000000000000260000000000000000260000000000000000000000000000000000316240000000000000158120000000000000158120000000000000000000000000000000000000000000000000000000000000000000000000000000000000000000000000000000000000000000000000000000000000000000000000000000000000003300000000000000015210000000000000260009BGKS69V0KG394873
1202305030000517178249012 068JVSILVA             2   0000001446        61571A    217039    12~A~61571                                                  000000000000000000030000000000000140000000000000000140000000000000000000000000000000000000000000000000000000000000000000000000000000000000000140000000000000000000000000000000000140000000000000000000000000000000000000000000000000000000000000000000000000000000000000000000000000000000000000000000000000000000000000000000000000000000000000000000000000000000000007000000000000000000000000000000000002310000000000000010640000000000000140009BGKS69V0KG394873
1202305030949424500019712 074EDJANIRA_A          2   0000002716        1924823   216897    12~3~192482                                                 000000000010000000010000000000000300000000000000000000000000000000000300000000000000000010000000000000000000000000000000000010000000000000000290000000000000000290000000000000000000000000000000000257210000000000000128610000000000000128610000000000000000000000000000000000000000000000000000000000000000000000000000000000000000000000000000000000000000000000000000000000000000000000000000000000000000000000000000000000000000000000000290009BGJP7520PB251288
1202305030000531916740712 068JVSILVA             2   0000001446        1924853   217054    12~3~192485                                                 000000000050000000030000000000000479760000000000000000000000000000000479760000000000000040560000000000000000000000000000000040560000000000000439200000000000000439200000000000000000000000000000000363780000000000000181890000000000000181890000000000000000000000000000000000000000000000000000000000000000000000000000000000000000000000000000000000000000000000000000000000000000000000000000000000000004720000000000000021750000000000000439209BGEB48A0NG141655
1202305030000531916740712 068JVSILVA             2   0000001446        61572A    217054    12~A~61572                                                  000000000000000000030000000000000410800000000000000410800000000000000000000000000000000000000000000000000000000000000000000000000000000000000410800000000000000000000000000000000410800000000000000000000000000000000000000000000000000000000000000000000000000000000000000000000000000000000000000000000000000000000000000000000000000000000000000000000000000000000020540000000000000000000000000000000006780000000000000031220000000000000410809BGEB48A0NG141655
1202305040881152300012012 074EDJANIRA_A          2   0000000000        1924953   216742    12~3~192495                                                 000000000010000000010000000000000087000000000000000000000000000000000087000000000000000000000000000000000000000000000000000000000000000000000087000000000000000087000000000000000000000000000000000174000000000000000087000000000000000087000000000000000000000000000000000000000000000000000000000000000000000000000000000000000000000000000000000000000000000000000000000000000000000000000000000000000001010000000000000004640000000000000087009BGEN43B0PB246895
1202305040881152300012012 074EDJANIRA_A          2   0000000000        1924963   216642    12~3~192496                                                 000000000010000000010000000000000043600000000000000000000000000000000043600000000000000000000000000000000000000000000000000000000000000000000043600000000000000043600000000000000000000000000000000087190000000000000043600000000000000043600000000000000000000000000000000000000000000000000000000000000000000000000000000000000000000000000000000000000000000000000000000000000000000000000000000000000000720000000000000003310000000000000043609BGEB48A0PG292068
1202305040000287147347112 068ARIZALDO            2   0000001446        1925043   217061    12~3~192504                                                 000000000070000000050000000000000964320000000000000000000000000000000964320000000000000125520000000000000000000000000000000125520000000000000838800000000000000838800000000000000000000000000000000786010000000000000393000000000000000393000000000000000000000000000000000000000000000000000000000000000000000000000000000000000000000000000000000000000000000000000000000000000000000000000000000000000007850000000000000036200000000000000838809BGPB69M0EB138324
1202305040000287147347112 068ARIZALDO            2   0000001446        61573A    217061    12~A~61573                                                  000000000000000000050000000000000561200000000000000561200000000000000000000000000000000000000000000000000000000000000000000000000000000000000561200000000000000000000000000000000561200000000000000000000000000000000000000000000000000000000000000000000000000000000000000000000000000000000000000000000000000000000000000000000000000000000000000000000000000000000028060000000000000000000000000000000009260000000000000042650000000000000561209BGPB69M0EB138324
1202305040000953025640012 068ARIZALDO            2   0000002728        1925293   217064    12~3~192529                                                 000000000030000000010000000000000372370000000000000000000000000000000372370000000000000037370000000000000000000000000000000037370000000000000335000000000000000335000000000000000000000000000000000301990000000000000151000000000000000151000000000000000000000000000000000000000000000000000000000000000000000000000000000000000000000000000000000000000000000000000000000000000000000000000000000000000004140000000000000019050000000000000335009BGEY48H0PG102192
1202305040002031619446812 068JCOSTA              2   0000001446        1925313   217066    12~3~192531                                                 000000000040000000020000000000000467370000000000000000000000000000000467370000000000000007370000000000000000000000000000000007370000000000000460000000000000000460000000000000000000000000000000000388870000000000000194430000000000000194430000000000000000000000000000000000000000000000000000000000000000000000000000000000000000000000000000000000000000000000000000000000000000000000000000000000000005880000000000000027130000000000000460009BGEN76H0PB154213
1202305040002031619446812 068JCOSTA              2   0000001446        61574A    217066    12~A~61574                                                  000000000000000000020000000000000060000000000000000060000000000000000000000000000000000000000000000000000000000000000000000000000000000000000060000000000000000000000000000000000060000000000000000000000000000000000000000000000000000000000000000000000000000000000000000000000000000000000000000000000000000000000000000000000000000000000000000000000000000000000003000000000000000000000000000000000000990000000000000004560000000000000060009BGEN76H0PB154213
1202305042346314300013512 068JCOSTA              2   0000001446        1925333   217059    12~3~192533                                                 000000000060000000010000000000001299750000000000000000000000000000001299750000000000000139750000000000000000000000000000000139750000000000001160000000000000001160000000000000000000000000000000001157610000000000000578810000000000000578810000000000000000000000000000000000000000000000000000000000000000000000000000000000000000000000000000000000000000000000000000000000000000000000000000000000000017000000000000000078300000000000001160009BG148FK0MC404931
1202305042346314300013512 068JCOSTA              2   0000001446        61575A    217059    12~A~61575                                                  000000000000000000010000000000000490000000000000000490000000000000000000000000000000000000000000000000000000000000000000000000000000000000000490000000000000000000000000000000000490000000000000000000000000000000000000000000000000000000000000000000000000000000000000000000000000000000000000000000000000000000000000000000000000000000000000000000000000000000000024500000000000000000000000000000000008090000000000000037240000000000000490009BG148FK0MC404931
1202305040004160499740012 068ARIZALDO            2   0000001437        1925353   217071    12~3~192535                                                 000000000040000000010000000000000430330000000000000000000000000000000430330000000000000040330000000000000000000000000000000040330000000000000390000000000000000390000000000000000000000000000000000355610000000000000177810000000000000177810000000000000000000000000000000000000000000000000000000000000000000000000000000000000000000000000000000000000000000000000000000000000000000000000000000000000004920000000000000022620000000000000390009BGEN69H0NG182460
1202305040004160499740012 068ARIZALDO            2   0000001437        61576A    217071    12~A~61576                                                  000000000000000000010000000000000390000000000000000390000000000000000000000000000000000000000000000000000000000000000000000000000000000000000390000000000000000000000000000000000390000000000000000000000000000000000000000000000000000000000000000000000000000000000000000000000000000000000000000000000000000000000000000000000000000000000000000000000000000000000019500000000000000000000000000000000006440000000000000029640000000000000390009BGEN69H0NG182460
1202305050006916508442012 068JVSILVA             2   0000001446        1925413   217072    12~3~192541                                                 000000000030000000010000000000000353790000000000000000000000000000000353790000000000000178790000000000000000000000000000000178790000000000000175000000000000000175000000000000000000000000000000000261800000000000000130900000000000000130900000000000000000000000000000000000000000000000000000000000000000000000000000000000000000000000000000000000000000000000000000000000000000000000000000000000000002390000000000000011040000000000000175009BGKL69U0JG191969
1202305050006916508442012 068JVSILVA             2   0000001446        61577A    217072    12~A~61577                                                  000000000000000000010000000000000040000000000000000040000000000000000000000000000000000000000000000000000000000000000000000000000000000000000040000000000000000000000000000000000040000000000000000000000000000000000000000000000000000000000000000000000000000000000000000000000000000000000000000000000000000000000000000000000000000000000000000000000000000000000002000000000000000000000000000000000000660000000000000003040000000000000040009BGKL69U0JG191969
1202305050001098878140912 068EAGUIAR             2   0000002716        1925473   217040    12~3~192547                                                 000000000060000000010000000000002000000000000000000000000000000000002000000000000000000000000000000000000000000000000000000000000000000000002000000000000000002000000000000000000000000000000000001777210000000000000888600000000000000888600000000000000000000000000000000000000000000000000000000000000000000000000000000000000000000000000000000000000000000000000000000000000000000000000000000000000016470000000000000075850000000000002000009BGEY69H0PG256449
1202305050000205320945312 068EAGUIAR             2   0000002716        1925483   217041    12~3~192548                                                 000000000010000000010000000000000290000000000000000000000000000000000290000000000000000000000000000000000000000000000000000000000000000000000290000000000000000290000000000000000000000000000000000268570000000000000134290000000000000134290000000000000000000000000000000000000000000000000000000000000000000000000000000000000000000000000000000000000000000000000000000000000000000000000000000000000000000000000000000000000000000000000290009BGEB48A0PG286568
1202305050000813362644712 068JCAMPOS             2   0000001446        1925573   217013    12~3~192557                                                 000000000030000000020000000000000790730000000000000000000000000000000790730000000000000000730000000000000000000000000000000000730000000000000790000000000000000790000000000000000000000000000000000798270000000000000399130000000000000399130000000000000000000000000000000000000000000000000000000000000000000000000000000000000000000000000000000000000000000000000000000000000000000000000000000000000000880000000000000004040000000000000790009BGEB69A0MG126906
1202305050000813362644712 068JCAMPOS             2   0000001446        61578A    217013    12~A~61578                                                  000000000000000000020000000000001120000000000000001120000000000000000000000000000000000000000000000000000000000000000000000000000000000000001120000000000000000000000000000000001120000000000000000000000000000000000000000000000000000000000000000000000000000000000000000000000000000000000000000000000000000000000000000000000000000000000000000000000000000000000056000000000000000000000000000000000018480000000000000085120000000000001120009BGEB69A0MG126906
1202305050006732618849112 074EDJANIRA_A          2   0000002716        1925583   216994    12~3~192558                                                 000000000040000000010000000000001500000000000000000000000000000000001500000000000000000000000000000000000000000000000000000000000000000000001500000000000000001500000000000000000000000000000000001614250000000000000807130000000000000807130000000000000000000000000000000000000000000000000000000000000000000000000000000000000000000000000000000000000000000000000000000000000000000000000000000000000018260000000000000084070000000000001500009BGEP76B0PB234914
1202305050001769118446812 068JVSILVA             2   0000001446        1925593   217076    12~3~192559                                                 000000000050000000020000000000000669690000000000000000000000000000000669690000000000000060890000000000000000000000000000000060890000000000000608800000000000000608800000000000000000000000000000000551340000000000000275670000000000000275670000000000000000000000000000000000000000000000000000000000000000000000000000000000000000000000000000000000000000000000000000000000000000000000000000000000000004180000000000000019240000000000000608809BGEP69H0MG205928
1202305050001769118446812 068JVSILVA             2   0000001446        61579A    217076    12~A~61579                                                  000000000000000000020000000000000391200000000000000391200000000000000000000000000000000000000000000000000000000000000000000000000000000000000391200000000000000000000000000000000391200000000000000000000000000000000000000000000000000000000000000000000000000000000000000000000000000000000000000000000000000000000000000000000000000000000000000000000000000000000019560000000000000000000000000000000006460000000000000029730000000000000391209BGEP69H0MG205928
1202305050000350208042912 068ARIZALDO            2   0000001437        1925603   217075    12~3~192560                                                 000000000050000000030000000000000555170000000000000000000000000000000555170000000000000105970000000000000000000000000000000105970000000000000449200000000000000449200000000000000000000000000000000436870000000000000218440000000000000218440000000000000000000000000000000000000000000000000000000000000000000000000000000000000000000000000000000000000000000000000000000000000000000000000000000000000005000000000000000023040000000000000449209BGEY69H0LG288962
1202305050000350208042912 068ARIZALDO            2   0000001437        61580A    217075    12~A~61580                                                  000000000000000000030000000000000430800000000000000430800000000000000000000000000000000000000000000000000000000000000000000000000000000000000430800000000000000000000000000000000430800000000000000000000000000000000000000000000000000000000000000000000000000000000000000000000000000000000000000000000000000000000000000000000000000000000000000000000000000000000021540000000000000000000000000000000007110000000000000032740000000000000430809BGEY69H0LG288962
1202305050000803007140012 068EAGUIAR             2   0000002716        1925633   217060    12~3~192563                                                 000000000010000000010000000000000280000000000000000000000000000000000280000000000000000000000000000000000000000000000000000000000000000000000280000000000000000280000000000000000000000000000000000268570000000000000134290000000000000134290000000000000000000000000000000000000000000000000000000000000000000000000000000000000000000000000000000000000000000000000000000000000000000000000000000000000000000000000000000000000000000000000280009BGED48H0PG302161
1202305050007134459446812 068EAGUIAR             2   0000002728        1925643   217069    12~3~192564                                                 000000000050000000010000000000001700000000000000000000000000000000001700000000000000000000000000000000000000000000000000000000000000000000001700000000000000001700000000000000000000000000000000001614540000000000000807270000000000000807270000000000000000000000000000000000000000000000000000000000000000000000000000000000000000000000000000000000000000000000000000000000000000000000000000000000000016410000000000000075540000000000001700009BGJP7520RB107873
1202305050001513532243412 068EAGUIAR             2   0000002728        1925653   217070    12~3~192565                                                 000000000040000000010000000000001450000000000000000000000000000000001450000000000000000000000000000000000000000000000000000000000000000000001450000000000000001450000000000000000000000000000000001357330000000000000678660000000000000678660000000000000000000000000000000000000000000000000000000000000000000000000000000000000000000000000000000000000000000000000000000000000000000000000000000000000016410000000000000075540000000000001450009BGJP7520RB108863
1202305050000484232940812 068JCOSTA              2   0000001446        61582A    217083    12~A~61582                                                  000000000000000000010000000000000100000000000000000100000000000000000000000000000000000000000000000000000000000000000000000000000000000000000100000000000000000000000000000000000100000000000000000000000000000000000000000000000000000000000000000000000000000000000000000000000000000000000000000000000000000000000000000000000000000000000000000000000000000000000005000000000000000000000000000000000001650000000000000007600000000000000100009BGEY69H0PG234680
1202305050000994332149012 068JVSILVA             2   0000001446        1925853   217073    12~3~192585                                                 000000000020000000010000000000000824730000000000000000000000000000000824730000000000000104730000000000000000000000000000000104730000000000000720000000000000000720000000000000000000000000000000000657360000000000000328680000000000000328680000000000000000000000000000000000000000000000000000000000000000000000000000000000000000000000000000000000000000000000000000000000000000000000000000000000000000000000000000000000000000000000000720009BGEY69H0LG11041 
1202305050000994332149012 068JVSILVA             2   0000001446        61583A    217073    12~A~61583                                                  000000000000000000010000000000000120000000000000000120000000000000000000000000000000000000000000000000000000000000000000000000000000000000000120000000000000000000000000000000000120000000000000000000000000000000000000000000000000000000000000000000000000000000000000000000000000000000000000000000000000000000000000000000000000000000000000000000000000000000000006000000000000000000000000000000000001980000000000000009120000000000000120009BGEY69H0LG11041 
1202305050000970150440212 068EAGUIAR             2   0000002728        1925863   217074    12~3~192586                                                 000000000030000000010000000000001080000000000000000000000000000000001080000000000000000000000000000000000000000000000000000000000000000000001080000000000000001080000000000000000000000000000000000873790000000000000436890000000000000436890000000000000000000000000000000000000000000000000000000000000000000000000000000000000000000000000000000000000000000000000000000000000000000000000000000000000016520000000000000076080000000000001080009BGEP76B0RB108913
1202305050000204759447212 068ARIZALDO            2   0000001446        1925923   217082    12~3~192592                                                 000000000060000000010000000000000897500000000000000000000000000000000897500000000000000218700000000000000000000000000000000218700000000000000678800000000000000678800000000000000000000000000000000753210000000000000376600000000000000376600000000000000000000000000000000000000000000000000000000000000000000000000000000000000000000000000000000000000000000000000000000000000000000000000000000000000006580000000000000030320000000000000678803GNCJ8EZ6JL252668
1202305050000204759447212 068ARIZALDO            2   0000001446        61584A    217082    12~A~61584                                                  000000000000000000010000000000000291200000000000000291200000000000000000000000000000000000000000000000000000000000000000000000000000000000000291200000000000000000000000000000000291200000000000000000000000000000000000000000000000000000000000000000000000000000000000000000000000000000000000000000000000000000000000000000000000000000000000000000000000000000000014560000000000000000000000000000000004800000000000000022130000000000000291203GNCJ8EZ6JL252668
1202305050000393828441212 068ARIZALDO            2   0000001446        1925973   217087    12~3~192597                                                 000000000060000000020000000000000605810000000000000000000000000000000605810000000000000248810000000000000000000000000000000248810000000000000357000000000000000357000000000000000000000000000000000455900000000000000227950000000000000227950000000000000000000000000000000000000000000000000000000000000000000000000000000000000000000000000000000000000000000000000000000000000000000000000000000000000002860000000000000013220000000000000357009BGJC7520JB122693
1202305050000393828441212 068ARIZALDO            2   0000001446        61585A    217087    12~A~61585                                                  000000000000000000020000000000000120000000000000000120000000000000000000000000000000000000000000000000000000000000000000000000000000000000000120000000000000000000000000000000000120000000000000000000000000000000000000000000000000000000000000000000000000000000000000000000000000000000000000000000000000000000000000000000000000000000000000000000000000000000000006000000000000000000000000000000000001980000000000000009120000000000000120009BGJC7520JB122693
1202305052513838300019012 068JCOSTA              2   0000002770        61586A    217084    12~A~61586                                                  000000000000000000010000000000000490000000000000000490000000000000000000000000000000000196000000000000000196000000000000000000000000000000000294000000000000000000000000000000000294000000000000000000000000000000000000000000000000000000000000000000000000000000000000000000000000000000000000000000000000000000000000000000000000000000000000000000000000000000000014700000000000000000000000000000000004850000000000000022340000000000000294009BG148MK0MC413271
1202305050002503649149112 068JCOSTA              2   0000001446        61587A    217077    12~A~61587                                                  000000000000000000010000000000000200000000000000000200000000000000000000000000000000000000000000000000000000000000000000000000000000000000000200000000000000000000000000000000000200000000000000000000000000000000000000000000000000000000000000000000000000000000000000000000000000000000000000000000000000000000000000000000000000000000000000000000000000000000000010000000000000000000000000000000000003300000000000000015200000000000000200009BGKT69V0JG172674
1202305060006907361949112 068JCOSTA              2   0000001446        1926063   217089    12~3~192606                                                 000000000050000000010000000000000539960000000000000000000000000000000539960000000000000008960000000000000000000000000000000008960000000000000531000000000000000531000000000000000000000000000000000437250000000000000218620000000000000218620000000000000000000000000000000000000000000000000000000000000000000000000000000000000000000000000000000000000000000000000000000000000000000000000000000000000005880000000000000027110000000000000531009BGEN69H0MG177008
1202305060006907361949112 068JCOSTA              2   0000001446        61588A    217089    12~A~61588                                                  000000000000000000010000000000000289000000000000000289000000000000000000000000000000000000000000000000000000000000000000000000000000000000000289000000000000000000000000000000000289000000000000000000000000000000000000000000000000000000000000000000000000000000000000000000000000000000000000000000000000000000000000000000000000000000000000000000000000000000000014450000000000000000000000000000000004770000000000000021960000000000000289009BGEN69H0MG177008
1202305060001095562142912 068JVSILVA             2   0000001446        1926113   217093    12~3~192611                                                 000000000050000000030000000000000692100000000000000000000000000000000692100000000000000073300000000000000000000000000000000073300000000000000618800000000000000618800000000000000000000000000000000589830000000000000294910000000000000294910000000000000000000000000000000000000000000000000000000000000000000000000000000000000000000000000000000000000000000000000000000000000000000000000000000000000005330000000000000024560000000000000618809BGEN48H0PG164633
1202305060001095562142912 068JVSILVA             2   0000001446        61589A    217093    12~A~61589                                                  000000000000000000030000000000000181200000000000000181200000000000000000000000000000000000000000000000000000000000000000000000000000000000000181200000000000000000000000000000000181200000000000000000000000000000000000000000000000000000000000000000000000000000000000000000000000000000000000000000000000000000000000000000000000000000000000000000000000000000000009060000000000000000000000000000000002990000000000000013770000000000000181209BGEN48H0PG164633
1202305060001095562142912 068JVSILVA             3   0000001424        61590A    217094    12~A~61590                                                  000000000000000000010000000000000290810000000000000290810000000000000000000000000000000000000000000000000000000000000000000000000000000000000290810000000000000000000000000000000290810000000000000000000000000000000000000000000000000000000000000000000000000000000000000000000000000000000000000000000000000000000000000000000000000000000000000000000000000000000014540000000000000000000000000000000004800000000000000022100000000000000290819BGEN48H0PG164633
1202305060000275101940412 068JCOSTA              2   0000002728        1926133   217097    12~3~192613                                                 000000000040000000010000000000000467370000000000000000000000000000000467370000000000000047370000000000000000000000000000000047370000000000000420000000000000000420000000000000000000000000000000000388870000000000000194430000000000000194430000000000000000000000000000000000000000000000000000000000000000000000000000000000000000000000000000000000000000000000000000000000000000000000000000000000000005360000000000000024690000000000000420009BGEX76H0PB184084
1202305060009177393848712 068JCOSTA              2   0000001446        1926143   217078    12~3~192614                                                 000000000060000000010000000000001276890000000000000000000000000000001276890000000000000166890000000000000000000000000000000166890000000000001110000000000000001110000000000000000000000000000000001036520000000000000518260000000000000518260000000000000000000000000000000000000000000000000000000000000000000000000000000000000000000000000000000000000000000000000000000000000000000000000000000000000016570000000000000076300000000000001110009BG148MK0PC411419
1202305060009177393848712 068JCOSTA              2   0000001446        61591A    217078    12~A~61591                                                  000000000000000000010000000000000490000000000000000490000000000000000000000000000000000000000000000000000000000000000000000000000000000000000490000000000000000000000000000000000490000000000000000000000000000000000000000000000000000000000000000000000000000000000000000000000000000000000000000000000000000000000000000000000000000000000000000000000000000000000024500000000000000000000000000000000008090000000000000037240000000000000490009BG148MK0PC411419
1202305060000756766540912 068JVSILVA             2   0000001446        1926153   217099    12~3~192615                                                 000000000030000000030000000000000353790000000000000000000000000000000353790000000000000193790000000000000000000000000000000193790000000000000160000000000000000160000000000000000000000000000000000261800000000000000130900000000000000130900000000000000000000000000000000000000000000000000000000000000000000000000000000000000000000000000000000000000000000000000000000000000000000000000000000000000002190000000000000010080000000000000160009BGKS48U0JG162175
1202305060000756766540912 068JVSILVA             2   0000001446        61592A    217099    12~A~61592                                                  000000000000000000030000000000000140000000000000000140000000000000000000000000000000000000000000000000000000000000000000000000000000000000000140000000000000000000000000000000000140000000000000000000000000000000000000000000000000000000000000000000000000000000000000000000000000000000000000000000000000000000000000000000000000000000000000000000000000000000000007000000000000000000000000000000000002310000000000000010640000000000000140009BGKS48U0JG162175
1202305060000785917144912 068JCOSTA              2   0000001446        1926183   217095    12~3~192618                                                 000000000040000000040000000000000482370000000000000000000000000000000482370000000000000062370000000000000000000000000000000062370000000000000420000000000000000420000000000000000000000000000000000397340000000000000198670000000000000198670000000000000000000000000000000000000000000000000000000000000000000000000000000000000000000000000000000000000000000000000000000000000000000000000000000000000005400000000000000024880000000000000420009BGEB69A0PG202681
1202305060000785917144912 068JCOSTA              2   0000001446        61593A    217095    12~A~61593                                                  000000000000000000040000000000000180000000000000000180000000000000000000000000000000000000000000000000000000000000000000000000000000000000000180000000000000000000000000000000000180000000000000000000000000000000000000000000000000000000000000000000000000000000000000000000000000000000000000000000000000000000000000000000000000000000000000000000000000000000000009000000000000000000000000000000000002970000000000000013680000000000000180009BGEB69A0PG202681
1202305080000549197346712 068ARIZALDO            2   0000001446        1926243   217101    12~3~192624                                                 000000000050000000010000000000000536030000000000000000000000000000000536030000000000000066030000000000000000000000000000000066030000000000000470000000000000000470000000000000000000000000000000000367090000000000000183540000000000000183540000000000000000000000000000000000000000000000000000000000000000000000000000000000000000000000000000000000000000000000000000000000000000000000000000000000000005730000000000000026400000000000000470009BGKS48U0KG158692
1202305080000549197346712 068ARIZALDO            2   0000001446        61594A    217101    12~A~61594                                                  000000000000000000010000000000000280000000000000000280000000000000000000000000000000000000000000000000000000000000000000000000000000000000000280000000000000000000000000000000000280000000000000000000000000000000000000000000000000000000000000000000000000000000000000000000000000000000000000000000000000000000000000000000000000000000000000000000000000000000000014000000000000000000000000000000000004620000000000000021280000000000000280009BGKS48U0KG158692
1202305080000343479141812 068JVSILVA             2   0000002728        61595A    217104    12~A~61595                                                  000000000000000000010000000000000200000000000000000200000000000000000000000000000000000050000000000000000050000000000000000000000000000000000150000000000000000000000000000000000150000000000000000000000000000000000000000000000000000000000000000000000000000000000000000000000000000000000000000000000000000000000000000000000000000000000000000000000000000000000007500000000000000000000000000000000002480000000000000011400000000000000150009BGEP48H0NG150464
1202305080000924489960412 068JVSILVA             3   0000001424        61598A    217080    12~A~61598                                                  000000000000000000020000000000000068120000000000000068120000000000000000000000000000000000000000000000000000000000000000000000000000000000000068120000000000000000000000000000000068120000000000000000000000000000000000000000000000000000000000000000000000000000000000000000000000000000000000000000000000000000000000000000000000000000000000000000000000000000000003410000000000000000000000000000000001130000000000000005170000000000000068129BGKL48U0JB108452
1202305084088922200012112 068JCOSTA              2   0000002770        61599A    217096    12~A~61599                                                  000000000000000000010000000000000290810000000000000290810000000000000000000000000000000000000000000000000000000000000000000000000000000000000290810000000000000000000000000000000290810000000000000000000000000000000000000000000000000000000000000000000000000000000000000000000000000000000000000000000000000000000000000000000000000000000000000000000000000000000014540000000000000000000000000000000004800000000000000022100000000000000290819BGEB69A0PG202681
1202305080006437667249112 068JCOSTA              2   0000001446        1926323   217102    12~3~192632                                                 000000000060000000010000000000001115760000000000000000000000000000001115760000000000000205760000000000000000000000000000000205760000000000000910000000000000000910000000000000000000000000000000000778860000000000000389430000000000000389430000000000000000000000000000000000000000000000000000000000000000000000000000000000000000000000000000000000000000000000000000000000000000000000000000000000000013700000000000000063130000000000000910009BG148MK0MC420227
1202305080006437667249112 068JCOSTA              2   0000001446        61600A    217102    12~A~61600                                                  000000000000000000010000000000000490000000000000000490000000000000000000000000000000000000000000000000000000000000000000000000000000000000000490000000000000000000000000000000000490000000000000000000000000000000000000000000000000000000000000000000000000000000000000000000000000000000000000000000000000000000000000000000000000000000000000000000000000000000000024500000000000000000000000000000000008090000000000000037240000000000000490009BG148MK0MC420227
1202305080001913027945312 068JVSILVA             2   0000001446        1926333   217105    12~3~192633                                                 000000000040000000030000000000000467370000000000000000000000000000000467370000000000000047370000000000000000000000000000000047370000000000000420000000000000000420000000000000000000000000000000000388870000000000000194430000000000000194430000000000000000000000000000000000000000000000000000000000000000000000000000000000000000000000000000000000000000000000000000000000000000000000000000000000000005360000000000000024690000000000000420009BGEB76H0PB128120
1202305080001913027945312 068JVSILVA             2   0000001446        61601A    217105    12~A~61601                                                  000000000000000000030000000000000140000000000000000140000000000000000000000000000000000000000000000000000000000000000000000000000000000000000140000000000000000000000000000000000140000000000000000000000000000000000000000000000000000000000000000000000000000000000000000000000000000000000000000000000000000000000000000000000000000000000000000000000000000000000007000000000000000000000000000000000002310000000000000010640000000000000140009BGEB76H0PB128120
1202305080005040328141512 068JCAMPOS             2   0000001446        1926393   217037    12~3~192639                                                 000000000060000000030000000000003112300000000000000000000000000000003112300000000000000712300000000000000000000000000000000712300000000000002400000000000000002400000000000000000000000000000000003395460000000000001772730000000000001622730000000000000000000000000000000000000000000000000000000000000000000000000000000000000000000000000000000000000000000000000000000000000000000000000000000000000001910000000000000008770000000000002400009BGEP76B0PB243200
1202305080005040328141512 068JCAMPOS             2   0000001446        61602A    217037    12~A~61602                                                  000000000000000000030000000000000500000000000000000500000000000000000000000000000000000000000000000000000000000000000000000000000000000000000500000000000000000000000000000000000500000000000000000150000000000000000150000000000000000000000000000000000000000000000000000000000000000000000000000000000000000000000000000000000000000000000000000000000000000000000025000000000000000000000000000000000008250000000000000038000000000000000500009BGEP76B0PB243200
1202305080881152300012012 068ARIZALDO            2   0000000000        1926403   217112    12~3~192640                                                 000000000010000000010000000000000431260000000000000000000000000000000431260000000000000000000000000000000000000000000000000000000000000000000431260000000000000431260000000000000000000000000000000862520000000000000431260000000000000431260000000000000000000000000000000000000000000000000000000000000000000000000000000000000000000000000000000000000000000000000000000000000000000000000000000000000000000000000000000000000000000000000431269BGKT69V0KG391166
1202305080004606688874912 068MASILVA             2   0000001446        61603A    217116    12~A~61603                                                  000000000000000000010000000000000060000000000000000060000000000000000000000000000000000000000000000000000000000000000000000000000000000000000060000000000000000000000000000000000060000000000000000000000000000000000000000000000000000000000000000000000000000000000000000000000000000000000000000000000000000000000000000000000000000000000000000000000000000000000003000000000000000000000000000000000000990000000000000004560000000000000060009BGKS48U0KG422698
1202305080000361604246112 068JCOSTA              2   0000001437        1926443   217113    12~3~192644                                                 000000000060000000040000000000000682800000000000000000000000000000000682800000000000000111200000000000000000000000000000000111200000000000000571600000000000000571600000000000000000000000000000000670970000000000000335490000000000000335490000000000000000000000000000000000000000000000000000000000000000000000000000000000000000000000000000000000000000000000000000000000000000000000000000000000000004970000000000000022930000000000000571609BGEP76B0MB237223
1202305080000361604246112 068JCOSTA              2   0000001437        61604A    217113    12~A~61604                                                  000000000000000000040000000000000468400000000000000468400000000000000000000000000000000000000000000000000000000000000000000000000000000000000468400000000000000000000000000000000468400000000000000000000000000000000000000000000000000000000000000000000000000000000000000000000000000000000000000000000000000000000000000000000000000000000000000000000000000000000023420000000000000000000000000000000007730000000000000035600000000000000468409BGEP76B0MB237223
1202305080000695492144012 068JVSILVA             2   0000001437        61605A    217114    12~A~61605                                                  000000000000000000010000000000000100000000000000000100000000000000000000000000000000000000000000000000000000000000000000000000000000000000000100000000000000000000000000000000000100000000000000000000000000000000000000000000000000000000000000000000000000000000000000000000000000000000000000000000000000000000000000000000000000000000000000000000000000000000000005000000000000000000000000000000000001650000000000000007600000000000000100009BGKT69V0JG262816
1202305080000260003140512 068EAGUIAR             2   0000001446        1926513   217118    12~3~192651                                                 000000000010000000010000000000000170000000000000000000000000000000000170000000000000000000000000000000000000000000000000000000000000000000000170000000000000000170000000000000000000000000000000000185280000000000000092640000000000000092640000000000000000000000000000000000000000000000000000000000000000000000000000000000000000000000000000000000000000000000000000000000000000000000000000000000000000000000000000000000000000000000000170009BGJP7520PB212298
1202305080000260003140512 068JVSILVA             2   0000001446        1926523   217119    12~3~192652                                                 000000000030000000010000000000000377740000000000000000000000000000000377740000000000000202740000000000000000000000000000000202740000000000000175000000000000000175000000000000000000000000000000000271150000000000000135570000000000000135570000000000000000000000000000000000000000000000000000000000000000000000000000000000000000000000000000000000000000000000000000000000000000000000000000000000000002100000000000000009680000000000000175009BGJP7520PB212298
1202305080000260003140512 068JVSILVA             2   0000001446        61606A    217119    12~A~61606                                                  000000000000000000010000000000000040000000000000000040000000000000000000000000000000000000000000000000000000000000000000000000000000000000000040000000000000000000000000000000000040000000000000000000000000000000000000000000000000000000000000000000000000000000000000000000000000000000000000000000000000000000000000000000000000000000000000000000000000000000000002000000000000000000000000000000000000660000000000000003040000000000000040009BGJP7520PB212298
1202305080005700378540412 068EAGUIAR             2   0000002728        1926533   217117    12~3~192653                                                 000000000010000000010000000000000080000000000000000000000000000000000080000000000000000000000000000000000000000000000000000000000000000000000080000000000000000080000000000000000000000000000000000087190000000000000043600000000000000043600000000000000000000000000000000000000000000000000000000000000000000000000000000000000000000000000000000000000000000000000000000000000000000000000000000000000001320000000000000006080000000000000080009BGEA48H0PG308855
1202305080003433866740012 068JCOSTA              2   0000001446        1926553   217110    12~3~192655                                                 000000000060000000040000000000000682800000000000000000000000000000000682800000000000000104200000000000000000000000000000000104200000000000000578600000000000000578600000000000000000000000000000000670970000000000000335490000000000000335490000000000000000000000000000000000000000000000000000000000000000000000000000000000000000000000000000000000000000000000000000000000000000000000000000000000000005050000000000000023210000000000000578609BGEN76B0MB103411
1202305080003433866740012 068JCOSTA              2   0000001446        61607A    217110    12~A~61607                                                  000000000000000000040000000000000468400000000000000468400000000000000000000000000000000000000000000000000000000000000000000000000000000000000468400000000000000000000000000000000468400000000000000000000000000000000000000000000000000000000000000000000000000000000000000000000000000000000000000000000000000000000000000000000000000000000000000000000000000000000023420000000000000000000000000000000007730000000000000035600000000000000468409BGEN76B0MB103411
1202305080000160789940012 068ARIZALDO            2   0000001446        1926603   217121    12~3~192660                                                 000000000010000000010000000000000630000000000000000000000000000000000630000000000000000000000000000000000000000000000000000000000000000000000630000000000000000630000000000000000000000000000000001261720000000000000630860000000000000630860000000000000000000000000000000000000000000000000000000000000000000000000000000000000000000000000000000000000000000000000000000000000000000000000000000000000007780000000000000035830000000000000630009BGJE6920JB119252
1202305090000578187647212 068JCOSTA              2   0000001446        1926673   217122    12~3~192667                                                 000000000050000000040000000000000587410000000000000000000000000000000587410000000000000097410000000000000000000000000000000097410000000000000490000000000000000490000000000000000000000000000000000622590000000000000311300000000000000311300000000000000000000000000000000000000000000000000000000000000000000000000000000000000000000000000000000000000000000000000000000000000000000000000000000000000004880000000000000022470000000000000490009BGEN76H0PB121094
1202305090000578187647212 068JCOSTA              2   0000001446        61608A    217122    12~A~61608                                                  000000000000000000040000000000000180000000000000000180000000000000000000000000000000000000000000000000000000000000000000000000000000000000000180000000000000000000000000000000000180000000000000000000000000000000000000000000000000000000000000000000000000000000000000000000000000000000000000000000000000000000000000000000000000000000000000000000000000000000000009000000000000000000000000000000000002970000000000000013680000000000000180009BGEN76H0PB121094
1202305090001320414940412 068JCAMPOS             2   0000001446        61609A    217115    12~A~61609                                                  000000000000000000010000000000000500000000000000000500000000000000000000000000000000000000000000000000000000000000000000000000000000000000000500000000000000000000000000000000000500000000000000000000000000000000000000000000000000000000000000000000000000000000000000000000000000000000000000000000000000000000000000000000000000000000000000000000000000000000000025000000000000000000000000000000000008250000000000000038000000000000000500009BGEP48H0MG191200
1202305090000299494942312 068ARIZALDO            2   0000001446        1926753   217124    12~3~192675                                                 000000000060000000010000000000000650170000000000000000000000000000000650170000000000000065970000000000000000000000000000000065970000000000000584200000000000000584200000000000000000000000000000000523750000000000000261870000000000000261870000000000000000000000000000000000000000000000000000000000000000000000000000000000000000000000000000000000000000000000000000000000000000000000000000000000000007210000000000000033240000000000000584209BGEP48H0LG212188
1202305090000299494942312 068ARIZALDO            2   0000001446        61610A    217124    12~A~61610                                                  000000000000000000010000000000000310800000000000000310800000000000000000000000000000000000000000000000000000000000000000000000000000000000000310800000000000000000000000000000000310800000000000000000000000000000000000000000000000000000000000000000000000000000000000000000000000000000000000000000000000000000000000000000000000000000000000000000000000000000000015540000000000000000000000000000000005130000000000000023620000000000000310809BGEP48H0LG212188
1202305090000074646540812 068ARIZALDO            2   0000001446        1926853   217091    12~3~192685                                                 000000000080000000020000000000002118220000000000000000000000000000002118220000000000000218220000000000000000000000000000000218220000000000001900000000000000001900000000000000000000000000000000002478050000000000001239020000000000001239020000000000000000000000000000000000000000000000000000000000000000000000000000000000000000000000000000000000000000000000000000000000000000000000000000000000000015970000000000000073530000000000001900008AGBB69S0HR118277
1202305090000074646540812 068ARIZALDO            2   0000001446        61612A    217091    12~A~61612                                                  000000000000000000020000000000000490000000000000000490000000000000000000000000000000000000000000000000000000000000000000000000000000000000000490000000000000000000000000000000000490000000000000000000000000000000000000000000000000000000000000000000000000000000000000000000000000000000000000000000000000000000000000000000000000000000000000000000000000000000000024500000000000000000000000000000000008090000000000000037240000000000000490008AGBB69S0HR118277
1202305090004430367043012 068JCOSTA              2   0000001446        1926903   217132    12~3~192690                                                 000000000050000000010000000000000559980000000000000000000000000000000559980000000000000059980000000000000000000000000000000059980000000000000500000000000000000500000000000000000000000000000000000376430000000000000188220000000000000188220000000000000000000000000000000000000000000000000000000000000000000000000000000000000000000000000000000000000000000000000000000000000000000000000000000000000005550000000000000025580000000000000500009BGKT48V0JG287935
1202305090004430367043012 068JCOSTA              2   0000001446        61613A    217132    12~A~61613                                                  000000000000000000010000000000000280000000000000000280000000000000000000000000000000000000000000000000000000000000000000000000000000000000000280000000000000000000000000000000000280000000000000000000000000000000000000000000000000000000000000000000000000000000000000000000000000000000000000000000000000000000000000000000000000000000000000000000000000000000000014000000000000000000000000000000000004620000000000000021280000000000000280009BGKT48V0JG287935
1202305090000147536740612 068EAGUIAR             2   0000001446        1926913   217133    12~3~192691                                                 000000000010000000010000000000000250000000000000000000000000000000000250000000000000000000000000000000000000000000000000000000000000000000000250000000000000000250000000000000000000000000000000000186950000000000000093470000000000000093470000000000000000000000000000000000000000000000000000000000000000000000000000000000000000000000000000000000000000000000000000000000000000000000000000000000000000000000000000000000000000000000000250009BGEN76H0PB235325
1202305099268203801041512 068JCAMPOS             2   0000001417        1927043   216848    12~3~192704                                                 000000000050000000010000000000001632110000000000000000000000000000001632110000000000000466320000000000000000000000000000000466320000000000001165790000000000001165790000000000000000000000000000001607390000000000000803690000000000000803690000000000000000000000000000000000000000000000000000000000000000000000000000000000000000000000000000000000000000000000000000000000000000000000000000000000000001390000000000000006370000000000001165799BGEB48A0PG124979
1202305090000558232744412 068EAGUIAR             2   0000002716        1927053   217092    12~3~192705                                                 000000000010000000010000000000000290000000000000000000000000000000000290000000000000000000000000000000000000000000000000000000000000000000000290000000000000000290000000000000000000000000000000000280660000000000000140330000000000000140330000000000000000000000000000000000000000000000000000000000000000000000000000000000000000000000000000000000000000000000000000000000000000000000000000000000000000000000000000000000000000000000000290009BGEP76B0PB219447
1202305090000449876349112 068EAGUIAR             2   0000002716        1927063   217134    12~3~192706                                                 000000000010000000010000000000000290000000000000000000000000000000000290000000000000000000000000000000000000000000000000000000000000000000000290000000000000000290000000000000000000000000000000000268570000000000000134290000000000000134290000000000000000000000000000000000000000000000000000000000000000000000000000000000000000000000000000000000000000000000000000000000000000000000000000000000000000000000000000000000000000000000000290009BGEY48H0PG210427
1202305090000713090146212 068EAGUIAR             2   0000002716        1927073   217100    12~3~192707                                                 000000000020000000010000000000002000000000000000000000000000000000002000000000000000000000000000000000000000000000000000000000000000000000002000000000000000002000000000000000000000000000000000002389240000000000001194620000000000001194620000000000000000000000000000000000000000000000000000000000000000000000000000000000000000000000000000000000000000000000000000000000000000000000000000000000000000000000000000000000000000000000002000009BGEB48A0PG149723
1202305097560912300012312 068JCOSTA              2   0000002770        1927093   215945    12~3~192709                                                 000000000030000000010000000000001086290000000000000000000000000000001086290000000000000006290000000000000000000000000000000006290000000000001080000000000000001080000000000000000000000000000000001294540000000000000647270000000000000647270000000000000000000000000000000000000000000000000000000000000000000000000000000000000000000000000000000000000000000000000000000000000000000000000000000000000001800000000000000008280000000000001080009BGEB48A0PG136126
1202305097560912300012312 068JCOSTA              2   0000002770        61614A    215945    12~A~61614                                                  000000000000000000010000000000000800000000000000000800000000000000000000000000000000000000000000000000000000000000000000000000000000000000000800000000000000000000000000000000000800000000000000000000000000000000000000000000000000000000000000000000000000000000000000000000000000000000000000000000000000000000000000000000000000000000000000000000000000000000000040000000000000000000000000000000000013200000000000000060800000000000000800009BGEB48A0PG136126
1202305090000979844444212 068JCOSTA              2   0000001446        1927113   217136    12~3~192711                                                 000000000050000000010000000000000539960000000000000000000000000000000539960000000000000088360000000000000000000000000000000088360000000000000451600000000000000451600000000000000000000000000000000437250000000000000218620000000000000218620000000000000000000000000000000000000000000000000000000000000000000000000000000000000000000000000000000000000000000000000000000000000000000000000000000000000004970000000000000022910000000000000451609BGEN48H0MG214427
1202305090000979844444212 068JCOSTA              2   0000001446        61615A    217136    12~A~61615                                                  000000000000000000010000000000000288400000000000000288400000000000000000000000000000000000000000000000000000000000000000000000000000000000000288400000000000000000000000000000000288400000000000000000000000000000000000000000000000000000000000000000000000000000000000000000000000000000000000000000000000000000000000000000000000000000000000000000000000000000000014420000000000000000000000000000000004760000000000000021920000000000000288409BGEN48H0MG214427
1202305090004914649144912 068ARIZALDO            2   0000001446        1927193   217135    12~3~192719                                                 000000000010000000010000000000000440410000000000000000000000000000000440410000000000000050410000000000000000000000000000000050410000000000000390000000000000000390000000000000000000000000000000000360260000000000000180130000000000000180130000000000000000000000000000000000000000000000000000000000000000000000000000000000000000000000000000000000000000000000000000000000000000000000000000000000000000000000000000000000000000000000000390009BGKS48B0EG249916
1202305090004914649144912 068ARIZALDO            2   0000001446        61616A    217135    12~A~61616                                                  000000000000000000010000000000000180000000000000000180000000000000000000000000000000000000000000000000000000000000000000000000000000000000000180000000000000000000000000000000000180000000000000000000000000000000000000000000000000000000000000000000000000000000000000000000000000000000000000000000000000000000000000000000000000000000000000000000000000000000000009000000000000000000000000000000000002970000000000000013680000000000000180009BGKS48B0EG249916
1202305100008602428014912 068ARIZALDO            2   0000001446        1927213   217140    12~3~192721                                                 000000000030000000010000000000000372370000000000000000000000000000000372370000000000000112370000000000000000000000000000000112370000000000000260000000000000000260000000000000000000000000000000000301990000000000000151000000000000000151000000000000000000000000000000000000000000000000000000000000000000000000000000000000000000000000000000000000000000000000000000000000000000000000000000000000000003200000000000000014740000000000000260008AGBN69S0HR132397
1202305100008602428014912 068ARIZALDO            2   0000001446        61617A    217140    12~A~61617                                                  000000000000000000010000000000000040000000000000000040000000000000000000000000000000000000000000000000000000000000000000000000000000000000000040000000000000000000000000000000000040000000000000000000000000000000000000000000000000000000000000000000000000000000000000000000000000000000000000000000000000000000000000000000000000000000000000000000000000000000000002000000000000000000000000000000000000660000000000000003040000000000000040008AGBN69S0HR132397
1202305100003551434549112 068JVSILVA             3   0000001424        1927223   217068    12~3~192722                                                 000000000010000000010000000000000542860000000000000000000000000000000542860000000000000000000000000000000000000000000000000000000000000000000542860000000000000542860000000000000000000000000000000864810000000000000432400000000000000432400000000000000000000000000000000000000000000000000000000000000000000000000000000000000000000000000000000000000000000000000000000000000000000000000000000000000007170000000000000033030000000000000542869BGEN48H0NG106526
1202305100003551434549112 068JVSILVA             3   0000001424        61618A    217068    12~A~61618                                                  000000000000000000010000000000001807120000000000001807120000000000000000000000000000000000000000000000000000000000000000000000000000000000001807120000000000000000000000000000001807120000000000000000000000000000000000000000000000000000000000000000000000000000000000000000000000000000000000000000000000000000000000000000000000000000000000000000000000000000000090360000000000000000000000000000000029820000000000000137340000000000001807129BGEN48H0NG106526
1202305100000726980846512 068JVSILVA             3   0000001424        1927233   217126    12~3~192723                                                 000000000010000000010000000000000163260000000000000000000000000000000163260000000000000000000000000000000000000000000000000000000000000000000163260000000000000163260000000000000000000000000000000275160000000000000137580000000000000137580000000000000000000000000000000000000000000000000000000000000000000000000000000000000000000000000000000000000000000000000000000000000000000000000000000000000000000000000000000000000000000000000163269BGEB48A0MG177583
1202305100000726980846512 068JVSILVA             3   0000001424        61619A    217126    12~A~61619                                                  000000000000000000010000000000000090360000000000000090360000000000000000000000000000000000000000000000000000000000000000000000000000000000000090360000000000000000000000000000000090360000000000000000000000000000000000000000000000000000000000000000000000000000000000000000000000000000000000000000000000000000000000000000000000000000000000000000000000000000000004520000000000000000000000000000000001490000000000000006870000000000000090369BGEB48A0MG177583
1202305100881603500010512 068ARIZALDO            2   0000002770        61620A    217065    12~A~61620                                                  000000000000000000010000000000000290810000000000000290810000000000000000000000000000000000000000000000000000000000000000000000000000000000000290810000000000000000000000000000000290810000000000000000000000000000000000000000000000000000000000000000000000000000000000000000000000000000000000000000000000000000000000000000000000000000000000000000000000000000000014540000000000000000000000000000000004800000000000000022100000000000000290819BGEY48H0PG102192
1202305100000840456875812 068JCOSTA              2   0000001446        1927413   217128    12~3~192741                                                 000000000060000000030000000000000650170000000000000000000000000000000650170000000000000088570000000000000000000000000000000088570000000000000561600000000000000561600000000000000000000000000000000523750000000000000261870000000000000261870000000000000000000000000000000000000000000000000000000000000000000000000000000000000000000000000000000000000000000000000000000000000000000000000000000000000006530000000000000030080000000000000561609BGEY69H0LG120686
1202305100000840456875812 068JCOSTA              2   0000001446        61621A    217128    12~A~61621                                                  000000000000000000030000000000000408400000000000000408400000000000000000000000000000000000000000000000000000000000000000000000000000000000000408400000000000000000000000000000000408400000000000000000000000000000000000000000000000000000000000000000000000000000000000000000000000000000000000000000000000000000000000000000000000000000000000000000000000000000000020420000000000000000000000000000000006740000000000000031040000000000000408409BGEY69H0LG120686
1202305100000279433441712 068ARIZALDO            2   0000001446        1927423   217143    12~3~192742                                                 000000000030000000010000000000000372370000000000000000000000000000000372370000000000000000000000000000000000000000000000000000000000000000000372370000000000000372370000000000000000000000000000000301990000000000000151000000000000000151000000000000000000000000000000000000000000000000000000000000000000000000000000000000000000000000000000000000000000000000000000000000000000000000000000000000000004600000000000000021190000000000000372379BGEB76HOPB179375
1202305100000279433441712 068ARIZALDO            3   0000001424        61622A    217144    12~A~61622                                                  000000000000000000010000000000000290810000000000000290810000000000000000000000000000000000000000000000000000000000000000000000000000000000000290810000000000000000000000000000000290810000000000000000000000000000000000000000000000000000000000000000000000000000000000000000000000000000000000000000000000000000000000000000000000000000000000000000000000000000000014540000000000000000000000000000000004800000000000000022100000000000000290819BGEB76HOPB179375
1202305100000631764046712 068APPEREIRA           3   0000001424        61623A    217125    12~A~61623                                                  000000000000000000020000000000000785980000000000000785980000000000000000000000000000000000000000000000000000000000000000000000000000000000000785980000000000000000000000000000000785980000000000000000000000000000000000000000000000000000000000000000000000000000000000000000000000000000000000000000000000000000000000000000000000000000000000000000000000000000000039300000000000000000000000000000000012970000000000000059730000000000000785989BGEB69A0MG118128
1202305100881152300012012 068EAGUIAR             2   0000000000        1927553   217151    12~3~192755                                                 000000000010000000010000000000000042700000000000000000000000000000000042700000000000000000000000000000000000000000000000000000000000000000000042700000000000000042700000000000000000000000000000000085400000000000000042700000000000000042700000000000000000000000000000000000000000000000000000000000000000000000000000000000000000000000000000000000000000000000000000000000000000000000000000000000000000500000000000000002290000000000000042709BGJJ7520PB248494
1202305100000475913558812 068ARIZALDO            2   0000001446        1927563   217147    12~3~192756                                                 000000000040000000010000000000000482370000000000000000000000000000000482370000000000000002370000000000000000000000000000000002370000000000000480000000000000000480000000000000000000000000000000000397340000000000000198670000000000000198670000000000000000000000000000000000000000000000000000000000000000000000000000000000000000000000000000000000000000000000000000000000000000000000000000000000000006430000000000000029590000000000000480009BGEB48A0PG112038
1202305100000475913558812 068ARIZALDO            2   0000001446        61624A    217147    12~A~61624                                                  000000000000000000010000000000000080000000000000000080000000000000000000000000000000000000000000000000000000000000000000000000000000000000000080000000000000000000000000000000000080000000000000000000000000000000000000000000000000000000000000000000000000000000000000000000000000000000000000000000000000000000000000000000000000000000000000000000000000000000000004000000000000000000000000000000000001320000000000000006080000000000000080009BGEB48A0PG112038
1202305100002189562740012 068JCOSTA              2   0000001446        1927653   217149    12~3~192765                                                 000000000040000000010000000000000444960000000000000000000000000000000444960000000000000053960000000000000000000000000000000053960000000000000391000000000000000391000000000000000000000000000000000350380000000000000175190000000000000175190000000000000000000000000000000000000000000000000000000000000000000000000000000000000000000000000000000000000000000000000000000000000000000000000000000000000004040000000000000018590000000000000391009BGEX76H0NB104858
1202305100002189562740012 068JCOSTA              2   0000001446        61625A    217149    12~A~61625                                                  000000000000000000010000000000000289000000000000000289000000000000000000000000000000000000000000000000000000000000000000000000000000000000000289000000000000000000000000000000000289000000000000000000000000000000000000000000000000000000000000000000000000000000000000000000000000000000000000000000000000000000000000000000000000000000000000000000000000000000000014450000000000000000000000000000000004770000000000000021960000000000000289009BGEX76H0NB104858
1202305103287138600010112 068ARIZALDO            2   0000002770        61626A    217148    12~A~61626                                                  000000000000000000010000000000000290810000000000000290810000000000000000000000000000000000000000000000000000000000000000000000000000000000000290810000000000000000000000000000000290810000000000000000000000000000000000000000000000000000000000000000000000000000000000000000000000000000000000000000000000000000000000000000000000000000000000000000000000000000000014540000000000000000000000000000000004800000000000000022100000000000000290819BGEB48A0PG112038
1202305100000820371440412 068EAGUIAR             2   0000002716        1927733   217127    12~3~192773                                                 000000000010000000010000000000002300000000000000000000000000000000002300000000000000000000000000000000000000000000000000000000000000000000002300000000000000002300000000000000000000000000000000002533020000000000001266510000000000001266510000000000000000000000000000000000000000000000000000000000000000000000000000000000000000000000000000000000000000000000000000000000000000000000000000000000000000000000000000000000000000000000002300009BG148PK0MC406664
1202305100000486668142012 068ARIZALDO            2   0000002728        1927743   217145    12~3~192774                                                 000000000060000000010000000000000797830000000000000000000000000000000797830000000000000157830000000000000000000000000000000157830000000000000640000000000000000640000000000000000000000000000000000722940000000000000361470000000000000361470000000000000000000000000000000000000000000000000000000000000000000000000000000000000000000000000000000000000000000000000000000000000000000000000000000000000001910000000000000008830000000000000640008AGCN48X0BR227171
1202305100000486668142012 068ARIZALDO            2   0000002728        61627A    217145    12~A~61627                                                  000000000000000000010000000000000260000000000000000260000000000000000000000000000000000000000000000000000000000000000000000000000000000000000260000000000000000000000000000000000260000000000000000000000000000000000000000000000000000000000000000000000000000000000000000000000000000000000000000000000000000000000000000000000000000000000000000000000000000000000013000000000000000000000000000000000004290000000000000019760000000000000260008AGCN48X0BR227171
1202305100000213457342212 068JCOSTA              2   0000001446        1927763   217142    12~3~192776                                                 000000000080000000040000000000001940410000000000000000000000000000001940410000000000000250410000000000000000000000000000000250410000000000001690000000000000001690000000000000000000000000000000001615580000000000000807790000000000000807790000000000000000000000000000000000000000000000000000000000000000000000000000000000000000000000000000000000000000000000000000000000000000000000000000000000000020470000000000000094310000000000001690009BG156YK0LC417338
1202305100000213457342212 068JCOSTA              2   0000001446        61628A    217142    12~A~61628                                                  000000000000000000040000000000000710000000000000000710000000000000000000000000000000000000000000000000000000000000000000000000000000000000000710000000000000000000000000000000000710000000000000000000000000000000000000000000000000000000000000000000000000000000000000000000000000000000000000000000000000000000000000000000000000000000000000000000000000000000000035500000000000000000000000000000000011720000000000000053960000000000000710009BG156YK0LC417338
1202305100002635413649112 068JCOSTA              2   0000001446        1927773   217161    12~3~192777                                                 000000000040000000010000000000000456050000000000000000000000000000000456050000000000000045050000000000000000000000000000000045050000000000000411000000000000000411000000000000000000000000000000000371900000000000000185950000000000000185950000000000000000000000000000000000000000000000000000000000000000000000000000000000000000000000000000000000000000000000000000000000000000000000000000000000000005250000000000000024170000000000000411009BGEP76B0NB165285
1202305100002635413649112 068JCOSTA              2   0000001446        61629A    217161    12~A~61629                                                  000000000000000000010000000000000289000000000000000289000000000000000000000000000000000000000000000000000000000000000000000000000000000000000289000000000000000000000000000000000289000000000000000000000000000000000000000000000000000000000000000000000000000000000000000000000000000000000000000000000000000000000000000000000000000000000000000000000000000000000014450000000000000000000000000000000004770000000000000021960000000000000289009BGEP76B0NB165285
1202305110003981872134912 068ARIZALDO            2   0000001446        1927833   217162    12~3~192783                                                 000000000050000000010000000000000554480000000000000000000000000000000554480000000000000014480000000000000000000000000000000014480000000000000540000000000000000540000000000000000000000000000000000459200000000000000229600000000000000229600000000000000000000000000000000000000000000000000000000000000000000000000000000000000000000000000000000000000000000000000000000000000000000000000000000000000005990000000000000027610000000000000540009BGEY69H0MG211082
1202305110003981872134912 068ARIZALDO            2   0000001446        61630A    217162    12~A~61630                                                  000000000000000000010000000000000360000000000000000360000000000000000000000000000000000000000000000000000000000000000000000000000000000000000360000000000000000000000000000000000360000000000000000000000000000000000000000000000000000000000000000000000000000000000000000000000000000000000000000000000000000000000000000000000000000000000000000000000000000000000018000000000000000000000000000000000005940000000000000027360000000000000360009BGEY69H0MG211082
1202305110000797130144812 068JCOSTA              2   0000001446        1927873   217165    12~3~192787                                                 000000000030000000010000000000000338790000000000000000000000000000000338790000000000000163790000000000000000000000000000000163790000000000000175000000000000000175000000000000000000000000000000000253330000000000000126670000000000000126670000000000000000000000000000000000000000000000000000000000000000000000000000000000000000000000000000000000000000000000000000000000000000000000000000000000000002380000000000000010940000000000000175009BGKS48G0FG415966
1202305110000797130144812 068JCOSTA              2   0000001446        61631A    217165    12~A~61631                                                  000000000000000000010000000000000040000000000000000040000000000000000000000000000000000000000000000000000000000000000000000000000000000000000040000000000000000000000000000000000040000000000000000000000000000000000000000000000000000000000000000000000000000000000000000000000000000000000000000000000000000000000000000000000000000000000000000000000000000000000002000000000000000000000000000000000000660000000000000003040000000000000040009BGKS48G0FG415966
1202305110000165117648512 068JCOSTA              2   0000002728        1927953   217163    12~3~192795                                                 000000000010000000010000000000000802000000000000000000000000000000000802000000000000000082000000000000000000000000000000000082000000000000000720000000000000000720000000000000000000000000000000000894870000000000000447440000000000000447440000000000000000000000000000000000000000000000000000000000000000000000000000000000000000000000000000000000000000000000000000000000000000000000000000000000000000000000000000000000000000000000000720009BGEY69H0LG151744
1202305110000165117648512 068JCOSTA              2   0000002728        61632A    217163    12~A~61632                                                  000000000000000000010000000000000080000000000000000080000000000000000000000000000000000000000000000000000000000000000000000000000000000000000080000000000000000000000000000000000080000000000000000000000000000000000000000000000000000000000000000000000000000000000000000000000000000000000000000000000000000000000000000000000000000000000000000000000000000000000004000000000000000000000000000000000001320000000000000006080000000000000080009BGEY69H0LG151744
