1211418    202207062022070620230524RE   1                       1    40321     44628     9BGEB69H0PG12691312    MASILVA                               08811523000120000000010000000010094100001700000009560000000                                                                                                                                                                                                                                                                                                                                                                                                                                                                                                                    0000000000000000000000000000000000000000000010000000000000000000000149740000000000000149740000000000000000000000000000000000000000000000000000000000000000000000000001200211418                             
1213863    202211082022110820230516RE   1                       1    40321     44625     9BGEY48H0PG21042712    MASILVA                               08811523000120000000010000000010115300001730000010230000000                                                                                                                                                                                                                                                                                                                                                                                                                                                                                                                    0000000000000000000000000000000000000000000010000000000000000000000149740000000000000149740000000000000000000000000000000000000000000000000000000000000000000000000001200213863                             
1214421    202212102022121020230524RE   1                       1    40321     44625     9BGEY48H0PG23592112    MASILVA                               08811523000120000000010000000010093700001730000009130000000                                                                                                                                                                                                                                                                                                                                                                                                                                                                                                                    0000000000000000000000000000000000000000000010000000000000000000000149740000000000000149740000000000000000000000000000000000000000000000000000000000000000000000000001200214421                             
1214628    202212192022121920230516RE   1                       1    20070     44626     9BGEP76B0PB21944712    MASILVA                               08811523000120000000010000000010165100001730000010260000000                                                                                                                                                                                                                                                                                                                                                                                                                                                                                                                    0000000000000000000000000000000000000000000010000000000000000000000149740000000000000149740000000000000000000000000000000000000000000000000000000000000000000000000001200214628                             
1214855    202212292022122920230520RE   1                       1    40321     44625     9BGEY48H0PG24597912    MASILVA                               08811523000120000000010000000010111700001730000008560000000                                                                                                                                                                                                                                                                                                                                                                                                                                                                                                                    0000000000000000000000000000000000000000000010000000000000000000000149740000000000000149740000000000000000000000000000000000000000000000000000000000000000000000000001200214855                             
1214954    202301032023010320230516RE   1                       1    40321     44623     9BGEA48A0PG25247112    MASILVA                               08811523000120000000010000000010084700001730000010280000000                                                                                                                                                                                                                                                                                                                                                                                                                                                                                                                    0000000000000000000000000000000000000000000010000000000000000000000149740000000000000149740000000000000000000000000000000000000000000000000000000000000000000000000001200214954                             
1215088    202301092023011020230516RE   1                       1    40321     44629     9BGEY69H0PG25644912    MASILVA                               08811523000120000000010000000010174600001730000010260000000                                                                                                                                                                                                                                                                                                                                                                                                                                                                                                                    0000000000000000000000000000000000000000000010000000000000000000000149740000000000000149740000000000000000000000000000000000000000000000000000000000000000000000000001200215088                             
1215197    202301162023011620230529RE   1                       1    40321     44631     9BGEB48A0PG26531512    MASILVA                               08811523000120000000010000000010083400001730000010310000000                                                                                                                                                                                                                                                                                                                                                                                                                                                                                                                    0000000000000000000000000000000000000000000010000000000000000000000149740000000000000149740000000000000000000000000000000000000000000000000000000000000000000000000001200215197                             
1215198    202301162023011620230516RE   1                       1    40321     44619     9BGEB69A0PG26630112    MASILVA                               08811523000120000000010000000010083600001730000010280000000                                                                                                                                                                                                                                                                                                                                                                                                                                                                                                                    0000000000000000000000000000000000000000000010000000000000000000000149740000000000000149740000000000000000000000000000000000000000000000000000000000000000000000000001200215198                             
1215261    202301182023011820230529V6   1         100           1    20309     43549     9BGKT69L0FG24475612    JCAMPOS                               00003184016498000119689000119689155300001730000010450000001,                                                                                                                                                                                                                                                                                                                                                                                                                                                                                                                   0000000000000000000000000000000000000000000010000000160000000000013982910000000000000000000000000000013982910000000000005673060000000000000000000000000000005673060001200215261                 QFB8480     
1215945    202302282023022820230509V1   1                       1    40321     44468     9BGEB48A0PG13612612    JCOSTA                                75609123000123000016052000016052083700001200000016450000000                                                                                                                                                                                                                                                                                                                                                                                                                                                                                                                    0000000000000000000000000000000000000000000010000000030000000000001886290000000000000800000000000000001086290000000000000006290000000000000000000000000000000006290001200215945                 SDR6E51     
1216081    202303062023030620230511RE   1                       1    20070     44626     9BGEP76B0PB23491412    MASILVA                               08811523000120000000010000000010115000001730000011330000000                                                                                                                                                                                                                                                                                                                                                                                                                                                                                                                    0000000000000000000000000000000000000000000010000000000000000000000158620000000000000158620000000000000000000000000000000000000000000000000000000000000000000000000001200216081                             
1216188    202303112023031120230515V2   1                       1    40320     44288     9BGJP7520MB12345412    ARIZALDO                              00003199884652000064896000064896083700001200000017240000000                                                                                                                                                                                                                                                                                                                                                                                                                                                                                                                    0000000000000000000000000000000000000000000030000000010000000000000882660000000000000757660000000000000125000000000000000000000000000000000000000000000000000000000001200216188                 RGH4E35     
1216211    202303132023031320230505D1   1                       1    20070     45122     8AGEP76B0PR13290012    JCAMPOS                               08811523000120000000010000000010104900001100000010260000000                                                                                                                                                                                                                                                                                                                                                                                                                                                                                                                    0000000000000000000000000000000000000000000010000000000000000000000180000000000000000180000000000000000000000000000000000000000000000000000000000000000000000000000001200216211                             
1216219    202303132023031320230516RE   1                       1    40321     44625     9BGEY48H0PG28480612    MASILVA                               08811523000120000000010000000010144200001730000010270000000                                                                                                                                                                                                                                                                                                                                                                                                                                                                                                                    0000000000000000000000000000000000000000000010000000000000000000000158620000000000000158620000000000000000000000000000000000000000000000000000000000000000000000000001200216219                             
1216237    202303142023031420230516RE   1                       1    40321     44631     9BGEB48A0PG28656812    MASILVA                               08811523000120000000010000000010104300001730000010270000000                                                                                                                                                                                                                                                                                                                                                                                                                                                                                                                    0000000000000000000000000000000000000000000010000000000000000000000158620000000000000158620000000000000000000000000000000000000000000000000000000000000000000000000001200216237                             
1216300    202303172023031720230522D4   1                       1    20309     43408     9BGKS69G0GG21962012    WCABRAL                               00000076573400000040132000040132101400001030000015450000000                                                                                                                                                                                                                                                                                                                                                                                                                                                                                                                    0000000000000000000000000000000000000000000010000000030000000000000697360000000000000000000000000000000697360000000000000000000000000000000000000000000000000000000001200216300                 QFK7914     
1216311    202303172023031720230516RE   1                       1    40321     44623     9BGEA48A0PG28966212    MASILVA                               08811523000391000000010000000010145800001730000010280000000                                                                                                                                                                                                                                                                                                                                                                                                                                                                                                                    0000000000000000000000000000000000000000000010000000000000000000000158620000000000000158620000000000000000000000000000000000000000000000000000000000000000000000000001200216311                             
1216465    202303272023032720230529RE   1                       1    40321     44631     9BGEB48A0PG29041012    MASILVA                               08811523000120000000010000000010145800001730000010300000000                                                                                                                                                                                                                                                                                                                                                                                                                                                                                                                    0000000000000000000000000000000000000000000010000000000000000000000158620000000000000158620000000000000000000000000000000000000000000000000000000000000000000000000001200216465                             
1216520    202303292023041420230515V6   1         40            1    20309     43921     9BGKS69V0KG22652412    JCAMPOS                               00003942957493000029387000029387141700001600000016500000001,                                                                                                                                                                                                                                                                                                                                                                                                                                                                                                                   0000000000000000000000000000000000000000000010000000400000000000026281680000000000000000000000000000026281680000000000008879760000000000000000000000000000008879760001200216520                 QSI9400     
1216621    202304042023042020230531V6   1         59            1    40321     44631     9BGEB48A0PG23365712    JCAMPOS                               00005654782495000005365000005365093800001730000015320000001,                                                                                                                                                                                                                                                                                                                                                                                                                                                                                                                   0000000000000000000000000000000000000000000010000000370000000000035924260000000000000000000000000000035924260000000000014147480000000000000000000000000000014147480001200216621                 SLD0E60     
1216622    202304042023042020230531V6   1                       1    40321     44631     9BGEB48A0PG23365712    JCAMPOS                               00005654782495000005365000005365094000001730000016000000000                                                                                                                                                                                                                                                                                                                                                                                                                                                                                                                    0000000000000000000000000000000000000000000020000000000000000000001600000000000000001600000000000000000000000000000000000000000000000000000000000000000000000000000001200216622                 SLD0E60     
1216642    202304042023040520230504D9   1                       1    40321     44631     9BGEB48A0PG29206812    EDJANIRA_A                            00011384158472000000010000000010173500000800000010420000000                                                                                                                                                                                                                                                                                                                                                                                                                                                                                                                    0000000000000000000000000000000000000000000010000000010000000000000043600000000000000000000000000000000043600000000000000000000000000000000000000000000000000000000001200216642                             
1216719    202304112023041120230529RE   1                       1    20270     45155     9BGEB43B0PB24768812    MASILVA                               08811523000120000000010000000010092500001730000010310000000                                                                                                                                                                                                                                                                                                                                                                                                                                                                                                                    0000000000000000000000000000000000000000000010000000000000000000000158620000000000000158620000000000000000000000000000000000000000000000000000000000000000000000000001200216719                             
1216723    202304112023041120230516RE   1                       1    40320     44654     9BGJJ7520PB24849412    MASILVA                               08811523000120000000010000000010093300001730000010230000000                                                                                                                                                                                                                                                                                                                                                                                                                                                                                                                    0000000000000000000000000000000000000000000010000000000000000000000158620000000000000158620000000000000000000000000000000000000000000000000000000000000000000000000001200216723                             
1216732    202304112023041120230518V9   1                       1    20270     45147     9BGEY43B0PB24379212    EAGUIAR                               00000333700449000000010000000010112400001130000017390000000                                                                                                                                                                                                                                                                                                                                                                                                                                                                                                                    0000000000000000000000000000000000000000000010000000080000000000008970000000000000000000000000000000008970000000000000004485000000000000000000000000000000004485000001200216732                             
1216742    202304122023041220230504D9   1                       1    20270     45146     9BGEN43B0PB24689512    EDJANIRA_A                            00009885221441000000010000000010091400000930000010400000000                                                                                                                                                                                                                                                                                                                                                                                                                                                                                                                    0000000000000000000000000000000000000000000010000000010000000000000087000000000000000000000000000000000087000000000000000000000000000000000000000000000000000000000001200216742                             
1216762    202304132023041320230516RE   1                       1    20070     44633     9BGEN76H0PB25001712    MASILVA                               08811523000120000000010000000010095700001730000010290000000                                                                                                                                                                                                                                                                                                                                                                                                                                                                                                                    0000000000000000000000000000000000000000000010000000000000000000000158620000000000000158620000000000000000000000000000000000000000000000000000000000000000000000000001200216762                             
1216763    202304132023041320230502D9   1                       1    20070     44640     9BGEB76H0PB24677012    EAGUIAR                               08811523000391000000010000000010100600001030000017420000000                                                                                                                                                                                                                                                                                                                                                                                                                                                                                                                    0000000000000000000000000000000000000000000010000000060000000000001747790000000000000000000000000000001747790000000000000000000000000000000000000000000000000000000001200216763                             
1216812    202304172023042420230531V6   1         44            1    20309     43205     9BGKS69V0KG38259612    JCAMPOS                               00005216217479000072798000072798142900001600000014470000001,                                                                                                                                                                                                                                                                                                                                                                                                                                                                                                                   0000000000000000000000000000000000000000000010000000260000000000027272340000000000000000000000000000027272340000000000009867830000000000000000000000000000009867830001200216812                 QSH9419     
1216848    202304192023050320230509V6   1         40            1    40321     44631     9BGEB48A0PG12497912    JCAMPOS                               00025078321420000001996000001996112600001730000016290000001,                                                                                                                                                                                                                                                                                                                                                                                                                                                                                                                   0000000000000000000000000000000000000000000010000000050000000000001632110000000000000000000000000000001632110000000000000466320000000000000000000000000000000466320001200216848                             
1216863    202304202023042020230516RE   1                       1    20        44639     9BG148MK0PC44764612    MASILVA                               08811523000120000000010000000010090100001730000010290000000                                                                                                                                                                                                                                                                                                                                                                                                                                                                                                                    0000000000000000000000000000000000000000000010000000000000000000000158620000000000000158620000000000000000000000000000000000000000000000000000000000000000000000000001200216863                             
1216865    202304202023042020230530V9   1                       1    40321     44623     9BGEA48A0PG30582912    EDJANIRA_A                            00076092127415000000010000000010090800000930000011270000000                                                                                                                                                                                                                                                                                                                                                                                                                                                                                                                    0000000000000000000000000000000000000000000010000000010000000000000290000000000000000000000000000000000290000000000000000000000000000000000000000000000000000000000001200216865                             
1216878    202304222023042220230512S6   1                       2    20151     123888    KMHD841GBHU35295012    JCAMPOS                               08811523000391000000010000000010090100000930000016130000000                                                                                                                                                                                                                                                                                                                                                                                                                                                                                                                    0000000000000000000000000000000000000000000010000000000000000000000230000000000000000230000000000000000000000000000000000000000000000000000000000000000000000000000001200216878                 QFT5794     
1216897    202304242023042420230503V9   1                       1    40320     44643     9BGJP7520PB25128812    EDJANIRA_A                            09494245000197000000010000000010165300001700000016580000000                                                                                                                                                                                                                                                                                                                                                                                                                                                                                                                    0000000000000000000000000000000000000000000010000000010000000000000300000000000000000000000000000000000300000000000000000010000000000000000000000000000000000010000001200216897                             
1216898    202304242023042420230516RE   1                       1    40320     44643     9BGJP7520PB25128812    MASILVA                               08811523000120000000010000000010170000001730000010270000000                                                                                                                                                                                                                                                                                                                                                                                                                                                                                                                    0000000000000000000000000000000000000000000010000000000000000000000158620000000000000158620000000000000000000000000000000000000000000000000000000000000000000000000001200216898                             
1216902    202304242023042420230516RE   1                       1    20270     45146     9BGEN43B0PB25107212    MASILVA                               08811523000120000000010000000010172500001730000010280000000                                                                                                                                                                                                                                                                                                                                                                                                                                                                                                                    0000000000000000000000000000000000000000000010000000000000000000000158620000000000000158620000000000000000000000000000000000000000000000000000000000000000000000000001200216902                             
1216943    202304262023042620230522D1   1                       1    20270     45155     9BGEB43B0PB23973712    APPEREIRA                             08811523000120000000010000000010144600001730000015440000000                                                                                                                                                                                                                                                                                                                                                                                                                                                                                                                    0000000000000000000000000000000000000000000010000000010000000000000004770000000000000000000000000000000004770000000000000000000000000000000000000000000000000000000001200216943                             
1216948    202304262023042620230509D6   1                       1    40321     45174     9BGEY69H0RG10244212    JCAMPOS                               08811523000120000000010000000010155100001600000008530000000                                                                                                                                                                                                                                                                                                                                                                                                                                                                                                                    0000000000000000000000000000000000000000000010000000000000000000000400000000000000000400000000000000000000000000000000000000000000000000000000000000000000000000000001200216948                             
1216957    202304272023051320230511V6   1         59            1    40321     44636     9BGEN69H0PG24865112    JCAMPOS                               00014227533368000000964000000964104400001730000016210000001,                                                                                                                                                                                                                                                                                                                                                                                                                                                                                                                   0000000000000000000000000000000000000000000010000000030000000000005904730000000000000000000000000000005904730000000000002316470000000000000000000000000000002316470001200216957                             
1216976    202304282023042820230517V9   1                       1    20070     45122     9BGEP76B0RB10891312    EDJANIRA_A                            00009701504402000000010000000010100400001030000010130000000                                                                                                                                                                                                                                                                                                                                                                                                                                                                                                                    0000000000000000000000000000000000000000000010000000020000000000000799000000000000000000000000000000000799000000000000000000000000000000000000000000000000000000000001200216976                             
1216977    202304282023042820230511V6   1                       1    40321     44631     9BGEB48A0PG12497912    JCAMPOS                               00025078321420000001996000001996101200001730000016340000000,                                                                                                                                                                                                                                                                                                                                                                                                                                                                                                                   0000000000000000000000000000000000000000000030000000030000000000003364910000000000001064000000000000002300910000000000000679470000000000000000000000000000000679470001200216977                             
1216978    202304282023042820230516V2   1                       1    40321     44623     9BGEA48A0PG15785612    JVSILVA                               00099704994400000025752000025752102800001200000008210000000                                                                                                                                                                                                                                                                                                                                                                                                                                                                                                                    0000000000000000000000000000000000000000000010000000010000000000000974420000000000000112950000000000000861470000000000000000000000000000000000000000000000000000000001200216978                 QSF6B02     
1216994    202304282023042920230505V9   1                       1    20070     44626     9BGEP76B0PB23491412    EDJANIRA_A                            00067326188491000000010000000010180000000800000011130000000                                                                                                                                                                                                                                                                                                                                                                                                                                                                                                                    0000000000000000000000000000000000000000000010000000040000000000001500000000000000000000000000000000001500000000000000000000000000000000000000000000000000000000000001200216994                             
1217010    202305022023050220230502V1   1                       1    40320     44288     9BGJP7520LB18605812    JVSILVA                               08110995000155000035670000035670082500000900000008520000000                                                                                                                                                                                                                                                                                                                                                                                                                                                                                                                    0000000000000000000000000000000000000000000010000000030000000000000417740000000000000040000000000000000377740000000000000202740000000000000000000000000000000202740001200217010                 OXO9B91     
1217011    202305022023050220230502V1   1                       1    20070     44528     9BGEB76H0NB10825312    JCOSTA                                00003517789429000015844000015844083200001000000017170000000                                                                                                                                                                                                                                                                                                                                                                                                                                                                                                                    0000000000000000000000000000000000000000000040000000060000000000001147250000000000000478000000000000000669250000000000000101250000000000000000000000000000000101250001200217011                 QYV8H15     
1217012    202305022023050220230502V1   1                       1    40321     124577    9BGEA48HOMG19625012    ARIZALDO                              00088465039453000060143000060143085100001200000009520000000                                                                                                                                                                                                                                                                                                                                                                                                                                                                                                                    0000000000000000000000000000000000000000000030000000050000000000000857590000000000000400000000000000000457590000000000000107590000000000000000000000000000000107590001200217012                 QFD8J81     
1217013    202305022023050220230505V6   1                       1    40321     44468     9BGEB69A0MG12690612    JCAMPOS                               00008133626447000007247000007247091200001030000011130000000                                                                                                                                                                                                                                                                                                                                                                                                                                                                                                                    0000000000000000000000000000000000000000000020000000030000000000001910730000000000001120000000000000000790730000000000000000730000000000000000000000000000000000730001200217013                 RLZ1J70     
1217014    202305022023050220230502V1   1                       1    20309     44135     9BGKT69V0KG16247912    KSANTOS                               00003812355485000062435000062435091500001118000015270000000                                                                                                                                                                                                                                                                                                                                                                                                                                                                                                                    0000000000000000000000000000000000000000000050000000110000000000001796490000000000000530500000000000001265990000000000000006490000000000000000000000000000000006490001200217014                 QSC7829     
1217015    202305022023050220230502V1   1                       1    40320     44654     9BGJJ7520PB18596612    ARIZALDO                              08737785000191000020796000020796101700001730000011010000000                                                                                                                                                                                                                                                                                                                                                                                                                                                                                                                    0000000000000000000000000000000000000000000040000000070000000000001496610000000000000510000000000000000986610000000000000296610000000000000000000000000000000296610001200217015                 SLA3D40     
1217016    202305022023050220230502V1   1                       1    40320     44535     9BGJP7520PB18459112    JCOSTA                                00000809148455000009963000009963102000001200000012300000000                                                                                                                                                                                                                                                                                                                                                                                                                                                                                                                    0000000000000000000000000000000000000000000040000000050000000000000790230000000000000160000000000000000630230000000000000070230000000000000000000000000000000070230001200217016                 QSC2A12     
1217017    202305022023050220230503V3   1                       1    40320     44535     9BGJP7520PB18459112    JCOSTA                                00000809148455000009963000009963102100001200000010290000000                                                                                                                                                                                                                                                                                                                                                                                                                                                                                                                    0000000000000000000000000000000000000000000010000000000000000000000264370000000000000264370000000000000000000000000000000000000000000000000000000000000000000000000001200217017                 QSC2A12     
1217018    202305022023050220230524V2   1                       1    40321     124574    9BGEA48H0NG16353912    JVSILVA                               00003366292490000016252000016252102800001148000016240000000                                                                                                                                                                                                                                                                                                                                                                                                                                                                                                                    0000000000000000000000000000000000000000000010000000010000000000000357790000000000000045180000000000000312610000000000000000000000000000000000000000000000000000000001200217018                 RLX8C56     
1217019    202305022023050920230512V2   1                       1    40321     44387     9BGEN48H0LG17530512    JCAMPOS                               00052859240497000030268000030268105900001600000009420000000                                                                                                                                                                                                                                                                                                                                                                                                                                                                                                                    0000000000000000000000000000000000000000000030000000020000000000003040670000000000001328110000000000001712560000000000000000000000000000000000000000000000000000000001200217019                 QYJ9G22     
1217021    202305022023050220230503V2   1                       1    40320     45139     9BGJJ7520PB17883412    KSANTOS                               08726760000192000007700000007700140300001600000015370000000                                                                                                                                                                                                                                                                                                                                                                                                                                                                                                                    0000000000000000000000000000000000000000000010000000020000000000000677680000000000000406610000000000000271070000000000000000000000000000000000000000000000000000000001200217021                 QFC0H92     
1217022    202305022023050220230502V1   1                       1    40321     44662     9BGEB48A0PG14525412    ARIZALDO                              00044884311434000010235000010235140800001518000016350000000                                                                                                                                                                                                                                                                                                                                                                                                                                                                                                                    0000000000000000000000000000000000000000000010000000030000000000000387370000000000000000000000000000000387370000000000000057370000000000000000000000000000000057370001200217022                 RLZ6G04     
1217023    202305022023050220230503V3   1                       1    40321     44662     9BGEB48A0PG14525412    ARIZALDO                              00044884311434000010235000010235140900001518000009530000000                                                                                                                                                                                                                                                                                                                                                                                                                                                                                                                    0000000000000000000000000000000000000000000010000000000000000000000290810000000000000290810000000000000000000000000000000000000000000000000000000000000000000000000001200217023                 RLZ6G04     
1217024    202305022023050220230502V1   1                       1    20070     44436     9BGEB76H0MB10033312    ARIZALDO                              00088425134404000030155000030155145000001548000017510000000                                                                                                                                                                                                                                                                                                                                                                                                                                                                                                                    0000000000000000000000000000000000000000000010000000040000000000000755760000000000000310800000000000000444960000000000000005760000000000000000000000000000000005760001200217024                 QSL7D45     
1217025    202305022023050220230502V1   1                       1    20        44458     9BG148MK0MC40507512    JCOSTA                                20723112000188000073705000073705145600001800000017200000000                                                                                                                                                                                                                                                                                                                                                                                                                                                                                                                    0000000000000000000000000000000000000000000050000000060000000000001853700000000000000790000000000000001063700000000000000153700000000000000000000000000000000153700001200217025                 QFF0C22     
1217026    202305022023050220230503V2   1                       1    20        44458     9BG148MK0MC40507512    JCOSTA                                20723112000188000073705000073705145700001800000015410000000                                                                                                                                                                                                                                                                                                                                                                                                                                                                                                                    0000000000000000000000000000000000000000000010000000010000000000000434150000000000000045180000000000000388970000000000000000000000000000000000000000000000000000000001200217026                 QFF0C22     
1217028    202305022023050220230516RE   1                       1    20070     45190     9BGEB76H0RB10274512    MASILVA                               08811523000120000000010000000010153700001730000010250000000                                                                                                                                                                                                                                                                                                                                                                                                                                                                                                                    0000000000000000000000000000000000000000000010000000000000000000000158620000000000000158620000000000000000000000000000000000000000000000000000000000000000000000000001200217028                             
1217029    202305022023050220230502V1   1                       1    40321     44387     9BGEN48H0LG14370712    ARIZALDO                              00007676661439000059842000059842154600001800000016300000000                                                                                                                                                                                                                                                                                                                                                                                                                                                                                                                    0000000000000000000000000000000000000000000010000000040000000000000733360000000000000288400000000000000444960000000000000043360000000000000000000000000000000043360001200217029                 QSM9D47     
1217031    202305032023050320230503V1   1                       1    20309     43659     9BGKT69R0GG21965212    ARIZALDO                              00071464174415000090460000090460083400001000000009480000000                                                                                                                                                                                                                                                                                                                                                                                                                                                                                                                    0000000000000000000000000000000000000000000020000000090000000000001193720000000000000360020000000000000833700000000000000111720000000000000000000000000000000111720001200217031                 OFB2062     
1217032    202305032023050320230503D1   1                       1    40315     44546     8AGBN69S0NR10804212    JCOSTA                                18424843000180000007687000007687083900001000000009500000000                                                                                                                                                                                                                                                                                                                                                                                                                                                                                                                    0000000000000000000000000000000000000000000010000000050000000000000207860000000000000000000000000000000207860000000000000069610000000000000000000000000000000069610001200217032                 RLX6C54     
1217033    202305032023050320230503D1   1                       1    40315     44546     8AGBN69S0NR10804212    JCOSTA                                18424843000180000007687000007687084000001000000009290000000                                                                                                                                                                                                                                                                                                                                                                                                                                                                                                                    0000000000000000000000000000000000000000000010000000000000000000000264370000000000000264370000000000000000000000000000000000000000000000000000000000000000000000000001200217033                 RLX6C54     
1217034    202305032023050320230503V1   1                       1    40321     44629     9BGEY69H0PG15817312    JVSILVA                               00002077955503000009944000009944084000001000000011540000000                                                                                                                                                                                                                                                                                                                                                                                                                                                                                                                    0000000000000000000000000000000000000000000010000000030000000000000372370000000000000000000000000000000372370000000000000002370000000000000000000000000000000002370001200217034                 QFX5B82     
1217035    202305032023050320230503D1   1                       1    40321     44629     9BGEY69H0PG15817312    JVSILVA                               00002077955503000009944000009944084100001000000011510000000                                                                                                                                                                                                                                                                                                                                                                                                                                                                                                                    0000000000000000000000000000000000000000000010000000000000000000000290810000000000000290810000000000000000000000000000000000000000000000000000000000000000000000000001200217035                 QFX5B82     
1217036    202305032023050320230503V1   1                       1    40333     44456     3GNAX9EX5LS51499112    ARIZALDO                              00013203096404000049917000049917090300001100000010000000000                                                                                                                                                                                                                                                                                                                                                                                                                                                                                                                    0000000000000000000000000000000000000000000020000000010000000000003160000000000000000160000000000000003000000000000000000000000000000000000000000000000000000000000001200217036                 QGY0B76     
1217037    202305032023051720230508V6   1                       1    20070     45160     9BGEP76B0PB24320012    JCAMPOS                               00050403281415000000010000000010092300001600000015030000000                                                                                                                                                                                                                                                                                                                                                                                                                                                                                                                    0000000000000000000000000000000000000000000030000000060000000000003612300000000000000500000000000000003112300000000000000712300000000000000000000000000000000712300001200217037                 RZX8D06     
1217038    202305032023050320230503V9   1                       1    20070     44640     9BGEB76H0RB10274512    EAGUIAR                               00029887038415000000010000000010093400001630000010030000000                                                                                                                                                                                                                                                                                                                                                                                                                                                                                                                    0000000000000000000000000000000000000000000010000000010000000000000399000000000000000000000000000000000399000000000000000000000000000000000000000000000000000000000001200217038                             
1217039    202305032023050320230503V1   1                       1    20309     44132     9BGKS69V0KG39487312    JVSILVA                               00005171782490000035443000035443101800001200000016530000000                                                                                                                                                                                                                                                                                                                                                                                                                                                                                                                    0000000000000000000000000000000000000000000030000000050000000000000636260000000000000140000000000000000496260000000000000236260000000000000000000000000000000236260001200217039                 QSG7347     
1217040    202305032023050320230505V9   1                       1    40321     44629     9BGEY69H0PG25644912    EAGUIAR                               00010988781409000000010000000010102100001730000010060000000                                                                                                                                                                                                                                                                                                                                                                                                                                                                                                                    0000000000000000000000000000000000000000000010000000060000000000002000000000000000000000000000000000002000000000000000000000000000000000000000000000000000000000000001200217040                             
1217041    202305032023050320230505V9   1                       1    40321     44631     9BGEB48A0PG28656812    EAGUIAR                               00002053209453000000010000000010103000001700000010070000000                                                                                                                                                                                                                                                                                                                                                                                                                                                                                                                    0000000000000000000000000000000000000000000010000000010000000000000290000000000000000000000000000000000290000000000000000000000000000000000000000000000000000000000001200217041                             
1217042    202305032023050320230503V1   1                       1    40321     43640     9BGKR48G0GG16361412    JCOSTA                                00005942982457000090929000090929105600001200000016190000000                                                                                                                                                                                                                                                                                                                                                                                                                                                                                                                    0000000000000000000000000000000000000000000040000000070000000000002917260000000000000468400000000000002448860000000000000073260000000000000000000000000000000073260001200217042                 QFU6849     
1217043    202305032023050320230512V9   1                       1    40321     44631     9BGEB48A0PG28656812    EAGUIAR                               00002053209453000000010000000010110300001700000015430000000                                                                                                                                                                                                                                                                                                                                                                                                                                                                                                                    0000000000000000000000000000000000000000000010000000050000000000002000000000000000000000000000000000002000000000000000000000000000000000000000000000000000000000000001200217043                             
1217046    202305032023050320230520RE   1                       1    20070     45122     8AGEP76B0PR13574712    MASILVA                               08811523000120000000010000000010112300001730000008570000000                                                                                                                                                                                                                                                                                                                                                                                                                                                                                                                    0000000000000000000000000000000000000000000010000000000000000000000158620000000000000158620000000000000000000000000000000000000000000000000000000000000000000000000001200217046                             
1217051    202305032023050320230516RE   1                       1    20        44639     9BG148MK0PC44596112    MASILVA                               08811523000120000000010000000010113400001730000010250000000                                                                                                                                                                                                                                                                                                                                                                                                                                                                                                                    0000000000000000000000000000000000000000000010000000000000000000000158620000000000000158620000000000000000000000000000000000000000000000000000000000000000000000000001200217051                             
1217052    202305032023050320230519V9   1                       1    40321     44629     9BGEY69H0PG25644912    EAGUIAR                               00010988781409000000010000000010113700001700000009550000000                                                                                                                                                                                                                                                                                                                                                                                                                                                                                                                    0000000000000000000000000000000000000000000010000000010000000000000200000000000000000000000000000000000200000000000000000000000000000000000000000000000000000000000001200217052                             
1217053    202305032023050320230503V1   1                       1    40321     43167     9BGKS48L0DG24344512    ARIZALDO                              00009018754498000090528000090528141000001700000015310000000                                                                                                                                                                                                                                                                                                                                                                                                                                                                                                                    0000000000000000000000000000000000000000000010000000090000000000001426650000000000000338800000000000001087850000000000000122650000000000000000000000000000000122650001200217053                 PGJ6444     
1217054    202305032023050320230503V1   1                       1    40321     44565     9BGEB48A0NG14165512    JVSILVA                               00005319167407000030335000030335144800001618000017140000000                                                                                                                                                                                                                                                                                                                                                                                                                                                                                                                    0000000000000000000000000000000000000000000030000000050000000000000890560000000000000410800000000000000479760000000000000040560000000000000000000000000000000040560001200217054                 RLX4J27     
1217056    202305032023050320230511V9   1                       1    20070     44626     9BGEP76B0PB23491412    EAGUIAR                               00067326188491000000010000000010153600001730000011330000000                                                                                                                                                                                                                                                                                                                                                                                                                                                                                                                    0000000000000000000000000000000000000000000010000000040000000000004880000000000000000000000000000000004880000000000000000000000000000000000000000000000000000000000001200217056                             
1217059    202305042023050420230504V1   1                       1    20        44465     9BG148FK0MC40493112    JCOSTA                                23463143000135000079877000079877092200001030000017040000000                                                                                                                                                                                                                                                                                                                                                                                                                                                                                                                    0000000000000000000000000000000000000000000010000000060000000000001789750000000000000490000000000000001299750000000000000139750000000000000000000000000000000139750001200217059                 QFF6F92     
1217060    202305042023050420230505V9   1                       1    40321     44662     9BGED48H0PG30216112    EAGUIAR                               00008030071400000000010000000010095500001700000011580000000                                                                                                                                                                                                                                                                                                                                                                                                                                                                                                                    0000000000000000000000000000000000000000000010000000010000000000000280000000000000000000000000000000000280000000000000000000000000000000000000000000000000000000000001200217060                             
1217061    202305042023050420230504V1   1                       1    40315     43282     9BGPB69M0EB13832412    ARIZALDO                              00002871473471000085573000085573102400001200000011450000000                                                                                                                                                                                                                                                                                                                                                                                                                                                                                                                    0000000000000000000000000000000000000000000050000000070000000000001525520000000000000561200000000000000964320000000000000125520000000000000000000000000000000125520001200217061                 NPZ3481     
1217063    202305042023050420230511VF   1                       1    20070     44626     9BGEP76B0PB23491412    JCAMPOS                               00067326188491000000010000000010141600001430000011330000000                                                                                                                                                                                                                                                                                                                                                                                                                                                                                                                    0000000000000000000000000000000000000000000010000000000000000000000400000000000000000400000000000000000000000000000000000000000000000000000000000000000000000000000001200217063                             
1217064    202305042023050420230504V1   1                       1    40321     24581     9BGEY48H0PG10219212    ARIZALDO                              00009530256400000008460000008460142700001600000016410000000                                                                                                                                                                                                                                                                                                                                                                                                                                                                                                                    0000000000000000000000000000000000000000000010000000030000000000000372370000000000000000000000000000000372370000000000000037370000000000000000000000000000000037370001200217064                 RLY1E44     
1217065    202305042023050420230510V3   1                       1    40321     24581     9BGEY48H0PG10219212    ARIZALDO                              00009530256400000008460000008460142700001600000011010000000                                                                                                                                                                                                                                                                                                                                                                                                                                                                                                                    0000000000000000000000000000000000000000000010000000000000000000000290810000000000000290810000000000000000000000000000000000000000000000000000000000000000000000000001200217065                 RLY1E44     
1217066    202305042023050420230504V1   1                       1    20070     44633     9BGEN76H0PB15421312    JCOSTA                                00020316194468000010359000010359150700001600000016590000000                                                                                                                                                                                                                                                                                                                                                                                                                                                                                                                    0000000000000000000000000000000000000000000020000000040000000000000527370000000000000060000000000000000467370000000000000007370000000000000000000000000000000007370001200217066                 QFV2I02     
1217067    202305042023050420230504D1   1                       1    20070     44633     9BGEN76H0PB15421312    JCOSTA                                00020316194468000010359000010359150800001600000016560000000                                                                                                                                                                                                                                                                                                                                                                                                                                                                                                                    0000000000000000000000000000000000000000000010000000000000000000000290810000000000000290810000000000000000000000000000000000000000000000000000000000000000000000000001200217067                 QFV2I02     
1217068    202305042023050420230510V2   1                       1    40321     44567     9BGEN48H0NG10652612    JVSILVA                               00035514345491000050934000050934153400001730000009250000000                                                                                                                                                                                                                                                                                                                                                                                                                                                                                                                    0000000000000000000000000000000000000000000010000000010000000000002349980000000000001807120000000000000542860000000000000000000000000000000000000000000000000000000001200217068                 RLX6I39     
1217069    202305042023050420230505V9   1                       1    40320     45198     9BGJP7520RB10787312    EAGUIAR                               00071344594468000000010000000010154900001730000012060000000                                                                                                                                                                                                                                                                                                                                                                                                                                                                                                                    0000000000000000000000000000000000000000000010000000050000000000001700000000000000000000000000000000001700000000000000000000000000000000000000000000000000000000000001200217069                             
1217070    202305042023050420230505V9   1                       1    40320     44643     9BGJP7520RB10886312    EAGUIAR                               00015135322434000000010000000010161600001730000012060000000                                                                                                                                                                                                                                                                                                                                                                                                                                                                                                                    0000000000000000000000000000000000000000000010000000040000000000001450000000000000000000000000000000001450000000000000000000000000000000000000000000000000000000000001200217070                             
1217071    202305042023050420230504V1   1                       1    40321     44580     9BGEN69H0NG18246012    ARIZALDO                              00041604997400000020553000020553163000001800000017230000000                                                                                                                                                                                                                                                                                                                                                                                                                                                                                                                    0000000000000000000000000000000000000000000010000000040000000000000820330000000000000390000000000000000430330000000000000040330000000000000000000000000000000040330001200217071                 QFN1F32     
1217072    202305052023050520230505V1   1                       1    20309     43916     9BGKL69U0JG19196912    JVSILVA                               00069165084420000039654000039654081700001000000009010000000                                                                                                                                                                                                                                                                                                                                                                                                                                                                                                                    0000000000000000000000000000000000000000000010000000030000000000000393790000000000000040000000000000000353790000000000000178790000000000000000000000000000000178790001200217072                 QFU5014     
1217073    202305052023050520230505V1   1                       1    40321     44359     9BGEY69H0LG11041 12    JVSILVA                               00009943321490000037877000037877091900001200000015520000000                                                                                                                                                                                                                                                                                                                                                                                                                                                                                                                    0000000000000000000000000000000000000000000010000000020000000000000944730000000000000120000000000000000824730000000000000104730000000000000000000000000000000104730001200217073                 RGN0J17     
1217074    202305052023050520230505V9   1                       1    20070     45122     9BGEP76B0RB10891312    EAGUIAR                               00009701504402000000010000000010095900001600000016000000000                                                                                                                                                                                                                                                                                                                                                                                                                                                                                                                    0000000000000000000000000000000000000000000010000000030000000000001080000000000000000000000000000000001080000000000000000000000000000000000000000000000000000000000001200217074                             
1217075    202305052023050520230505V1   1                       1    40321     44359     9BGEY69H0LG28896212    ARIZALDO                              00003502080429000039865000039865100900001200000011230000000                                                                                                                                                                                                                                                                                                                                                                                                                                                                                                                    0000000000000000000000000000000000000000000030000000050000000000000985970000000000000430800000000000000555170000000000000105970000000000000000000000000000000105970001200217075                 QFH8J22     
1217076    202305052023050520230505V1   1                       1    40321     44480     9BGEP69H0MG20592812    JVSILVA                               00017691184468000016578000016578102100001200000011190000000                                                                                                                                                                                                                                                                                                                                                                                                                                                                                                                    0000000000000000000000000000000000000000000020000000050000000000001060890000000000000391200000000000000669690000000000000060890000000000000000000000000000000060890001200217076                 RLR9A03     
1217077    202305052023050520230505V1   1                       1    20309     43917     9BGKT69V0JG17267412    JCOSTA                                00025036491491000077064000077064113000001200000017100000000                                                                                                                                                                                                                                                                                                                                                                                                                                                                                                                    0000000000000000000000000000000000000000000010000000000000000000000200000000000000000200000000000000000000000000000000000000000000000000000000000000000000000000000001200217077                 QFN8743     
1217078    202305052023050520230506V1   1                       1    20        44536     9BG148MK0PC41141912    JCOSTA                                00091773938487000031026000031026113000001130000011140000000                                                                                                                                                                                                                                                                                                                                                                                                                                                                                                                    0000000000000000000000000000000000000000000010000000060000000000001766890000000000000490000000000000001276890000000000000166890000000000000000000000000000000166890001200217078                 RZO7E68     
1217080    202305052023050520230508V2   1                       1    40321     43909     9BGKL48U0JB10845212    JVSILVA                               00009244899604000078283000078283140600001500000011140000000                                                                                                                                                                                                                                                                                                                                                                                                                                                                                                                    0000000000000000000000000000000000000000000020000000000000000000000068120000000000000068120000000000000000000000000000000000000000000000000000000000000000000000000001200217080                 QFY3E26     
1217081    202305052023050520230517V1   1                       1    20070     44213     3GNCJ8CZ7KL14051512    MASILVA                               00000333700449000025932000025932141000001700000017090000000                                                                                                                                                                                                                                                                                                                                                                                                                                                                                                                    0000000000000000000000000000000000000000000020000000080000000000001770790000000000000361200000000000001409590000000000000885790000000000000180600000000000000705190001200217081                 QSG0A08     
1217082    202305052023050520230505V1   1                       1    20070     44031     3GNCJ8EZ6JL25266812    ARIZALDO                              00002047594472000048535000048535143500001800000016230000000                                                                                                                                                                                                                                                                                                                                                                                                                                                                                                                    0000000000000000000000000000000000000000000010000000060000000000001188700000000000000291200000000000000897500000000000000218700000000000000000000000000000000218700001200217082                 QSA6006     
1217083    202305052023050520230505V1   1                       1    40321     44629     9BGEY69H0PG23468012    JCOSTA                                00004842329408000001208000001208145700001600000015120000000                                                                                                                                                                                                                                                                                                                                                                                                                                                                                                                    0000000000000000000000000000000000000000000010000000000000000000000100000000000000000100000000000000000000000000000000000000000000000000000000000000000000000000000001200217083                 SKV1H03     
1217084    202305052023050520230505V1   1                       1    20        44458     9BG148MK0MC41327112    JCOSTA                                25138383000190000057847000057847151800001200000016450000000                                                                                                                                                                                                                                                                                                                                                                                                                                                                                                                    0000000000000000000000000000000000000000000010000000000000000000000490000000000000000490000000000000000000000000000000000196000000000000000196000000000000000000000001200217084                 RGE5D09     
1217085    202305052023050520230516RE   1                       1    20        44638     9BG148PK0PC44139212    MASILVA                               08811523000120000000010000000010153800001730000010260000000                                                                                                                                                                                                                                                                                                                                                                                                                                                                                                                    0000000000000000000000000000000000000000000010000000000000000000000158620000000000000158620000000000000000000000000000000000000000000000000000000000000000000000000001200217085                             
1217086    202305052023050520230512V9   1                       1    20        44638     9BG148PK0PC44139212    EAGUIAR                               20723112000188000000010000000010155800001730000016490000000                                                                                                                                                                                                                                                                                                                                                                                                                                                                                                                    0000000000000000000000000000000000000000000010000000050000000000004700000000000000000000000000000000004700000000000000000100000000000000000000000000000000000100000001200217086                             
1217087    202305052023050520230505V1   1                       1    40320     43933     9BGJC7520JB12269312    ARIZALDO                              00003938284412000120123000120123160400001730000016420000000                                                                                                                                                                                                                                                                                                                                                                                                                                                                                                                    0000000000000000000000000000000000000000000020000000060000000000000725810000000000000120000000000000000605810000000000000248810000000000000000000000000000000248810001200217087                 QFX0465     
1217088    202305052023050520230505A6   1                       1    20070     45122     9BGEP76B0RB10891312    JCAMPOS                               00009701504402000000010000000010164500001700000016540000000                                                                                                                                                                                                                                                                                                                                                                                                                                                                                                                    0000000000000000000000000000000000000000000010000000000000000000000200000000000000000200000000000000000000000000000000000000000000000000000000000000000000000000000001200217088                             
