1576529    2023051520230515FP        FUNIL306                 1      C9999          14360000143700000REALIZAR SERVIÇOS DE ACORDO COM ORÇAMENTO EM ANEXO - MAPFRE SEGUROS                                                                                                                                                                                                                                                                                                                                                                                                                                                 0000000000000008000000000000000000000000000000000008000000000000000644810000000000000644810000000000000000000000000000000000000000000000000644810000200576529                 2~NF~145231              V6        
1576529    2023021020230210ES        ADMIN83                  4      1              07330000102100000REALIZAR SERVIÇOS DE ACORDO COM ORÇAMENTO EM ANEXO - MAPFRE SEGUROS                                                                                                                                                                                                                                                                                                                                                                                                                                                 0000000000000000010000000000000000120000000000000000110000000000000000000000000000000000000000000000000000000000000000000000000000000000000000000000200576529                 2~NF~145231              V6        
1576530    2023050420230504FP        FUNIL306                 1      C9999          08050000080600000O.S PARA PAGAMENTO DE FRANQUIA - MAPFRE SEGUROS                                                                                                                                                                                                                                                                                                                                                                                                                                                                     0000000000000008000000000000000000000000000000000008000000000000000400000000000000000400000000000000000000000000000000000020000000000000000400000000200576530                 2~NF~145190              V6        
1576530    2023041920230419FP        MONTA79                  1      M000           14530000145600000O.S PARA PAGAMENTO DE FRANQUIA - MAPFRE SEGUROS                                                                                                                                                                                                                                                                                                                                                                                                                                                                     0000000000000005000000000000000000000000000000000005000000000000000423500000000000000423500000000000000055000000000000000021180000000000000423500000200576530                 2~NF~145190              V6        
1576530    2023042020230422FP        AUX.P156                 4      P8888          10020000085700000VALOR: R4 1.723,50                                                                                                                                                                                                                                                                                                                                                                                                                                                                                                  0000000000000008000000000000000001950000000000000006050000000000000900000000000000000900000000000000000000000000000000000045000000000000000900000000200576530                 2~NF~145190              V6        
1577206    2023030220230302ES        ADMIN83                  4      1              07200000100000000REALIZAR REPAROS CONFORME ORÇAMENTO EM ANEXO                                                                                                                                                                                                                                                                                                                                                                                                                                                                        0000000000000000010000000000000000110000000000000000100000000000000000000000000000000000000000000000000000000000000000000000000000000000000000000000200577206                                          V6        
1577326    2023031620230316FP        AUX.P327                 2      1441554        07420000084300000FERRUGEM NO TETO PROXIMO AO PARABRISA                                                                                                                                                                                                                                                                                                                                                                                                                                                                               0000000000000002800000000000000000040000000000000002760000000000000632490000000000000496180000000000000000000000000000000000000000000000000496180000200577326                 2~NF~145022              V2        
1577326    2023031020230310FP        AUX.P327                 2      2020380        16510000175200000FERRUGEM NO TETO PROXIMO AO PARABRISA                                                                                                                                                                                                                                                                                                                                                                                                                                                                               0000000000000000800000000000000000040000000000000000760000000000000180710000000000000141760000000000000000000000000000000000000000000000000141760000200577326                 2~NF~145022              V2        
1577326    2023031620230316FP        MONTA182                 2      2024030        07410000084600000FERRUGEM NO TETO PROXIMO AO PARABRISA                                                                                                                                                                                                                                                                                                                                                                                                                                                                               0000000000000000800000000000000000050000000000000000750000000000000180710000000000000141760000000000000016260000000000000000000000000000000141760000200577326                 2~NF~145022              V2        
1577326    2023031020230310FP        MONTA182                 4      MP             16490000175200000FERRUGEM NA PARTE CENTRAL ESQUERDA DO TETO                                                                                                                                                                                                                                                                                                                                                                                                                                                                          0000000000000000300000000000000000040000000000000000260000000000000325200000000000000255110000000000000006100000000000000000000000000000000255110000200577326                 2~NF~145022              V2        
1577526    2023052620230526FP        FUNIL313                 1      C9999          08260000082800000REALIZAR SERVIÇOS DE ACORDO CM ORÇAMENTO EM ANEXO - TOKIO MARINE                                                                                                                                                                                                                                                                                                                                                                                                                                                    0000000000000008000000000000000000000000000000000008000000000000000887500000000000000887500000000000000000000000000000000000000000000000000887500000200577526                 2~NF~145526              V6        
1577526    2023052620230526FP        MECAN174                 1      MEC 1          08260000082800000REALIZAR SERVIÇOS DE ACORDO CM ORÇAMENTO EM ANEXO - TOKIO MARINE                                                                                                                                                                                                                                                                                                                                                                                                                                                    0000000000000001000000000000000000000000000000000001000000000000001300000000000000001300000000000000000000000000000000000000000000000000001300000000200577526                 2~NF~145526              V6        
1577526    2023033120230401FP        AUX.P327                 4      P8888          10020000093100000REALIZAR SERVIÇOS DE ACORDO CM ORÇAMENTO EM ANEXO - TOKIO MARINE                                                                                                                                                                                                                                                                                                                                                                                                                                                    0000000000000008000000000000000000980000000000000007020000000000001800000000000000001800000000000000000000000000000000000000000000000000001800000000200577526                 2~NF~145526              V6        
1577526    2023031120230313ES        ADMIN83                  4      1              08560000070900000REALIZAR SERVIÇOS DE ACORDO CM ORÇAMENTO EM ANEXO - TOKIO MARINE                                                                                                                                                                                                                                                                                                                                                                                                                                                    0000000000000000010000000000000001930000000000000001920000000000000000000000000000000000000000000000000000000000000000000000000000000000000000000000200577526                 2~NF~145526              V6        
1577540    2023041220230412FP        FUNIL313                 1      C9999          10290000103100000O.S PARA PAGAMENTO DE FRANQUIA                                                                                                                                                                                                                                                                                                                                                                                                                                                                                      0000000000000008000000000000000000000000000000000008000000000000000794000000000000000794000000000000000000000000000000000039700000000000000794000000200577540                 2~NF~145202              V6        
1577540    2023032720230329FP        AUX.P156                 4      P8888          15540000142700000VALOR: R$ 2,594.00                                                                                                                                                                                                                                                                                                                                                                                                                                                                                                  0000000000000008000000000000000001940000000000000006060000000000001800000000000000001800000000000000000000000000000000000090000000000000001800000000200577540                 2~NF~145202              V6        
1577670    2023041420230414VE        CAPOT11                  4      MP             15100000152300000VERIFICAR DESPALAMENTO DE PINTURA GERAL                                                                                                                                                                                                                                                                                                                                                                                                                                                                             0000000000000000300000000000000000010000000000000000290000000000002540050000000000002444190000000000000006100000000000000000000000000000002444190000200577670                 2~NF~144979              V2        
1577670    2023041120230411ES        ADMIN83                  4      1              10200000113400000VERIFICAR DESPALAMENTO DE PINTURA GERAL                                                                                                                                                                                                                                                                                                                                                                                                                                                                             0000000000000000010000000000000000050000000000000000040000000000000000000000000000000000000000000000000000000000000000000000000000000000000000000000200577670                 2~NF~144979              V2        
1577670    2023041420230414FP        AUX.P22                  2      1441164        15080000152300000VERIFICAR DESPALAMENTO DE PINTURA GERAL                                                                                                                                                                                                                                                                                                                                                                                                                                                                             0000000000000002100000000000000000010000000000000002090000000000000474370000000000000456470000000000000000000000000000000000000000000000000456470000200577670                 2~NF~144979              V2        
1577670    2023041420230414FP        AUX.P22                  2      1441364        15240000155700000VERIFICAR DESPALAMENTO DE PINTURA GERAL                                                                                                                                                                                                                                                                                                                                                                                                                                                                             0000000000000001200000000000000000020000000000000001180000000000000271070000000000000260840000000000000000000000000000000000000000000000000260840000200577670                 2~NF~144979              V2        
1577670    2023041420230415FP        AUX.P22                  2      1441564        15570000121700000VERIFICAR DESPALAMENTO DE PINTURA GERAL                                                                                                                                                                                                                                                                                                                                                                                                                                                                             0000000000000002500000000000000000150000000000000002350000000000000564720000000000000543410000000000000000000000000000000000000000000000000543410000200577670                 2~NF~144979              V2        
1577670    2023041720230417FP        AUX.P22                  2      1442964        09130000105000000VERIFICAR DESPALAMENTO DE PINTURA GERAL                                                                                                                                                                                                                                                                                                                                                                                                                                                                             0000000000000002000000000000000000070000000000000001930000000000000451780000000000000434730000000000000000000000000000000000000000000000000434730000200577670                 2~NF~144979              V2        
1577670    2023041720230417FP        AUX.P22                  2      1443164        10510000160800000VERIFICAR DESPALAMENTO DE PINTURA GERAL                                                                                                                                                                                                                                                                                                                                                                                                                                                                             0000000000000001000000000000000000220000000000000000780000000000000225890000000000000217360000000000000000000000000000000000000000000000000217360000200577670                 2~NF~144979              V2        
1577670    2023041820230418FP        AUX.P22                  2      1443544        09110000111400000VERIFICAR DESPALAMENTO DE PINTURA GERAL                                                                                                                                                                                                                                                                                                                                                                                                                                                                             0000000000000002800000000000000000090000000000000002710000000000000451780000000000000434730000000000000000000000000000000000000000000000000434730000200577670                 2~NF~144979              V2        
1577670    2023041820230418FP        AUX.P22                  2      1443844        11140000150600000VERIFICAR DESPALAMENTO DE PINTURA GERAL                                                                                                                                                                                                                                                                                                                                                                                                                                                                             0000000000000001700000000000000000160000000000000001540000000000000384010000000000000369520000000000000000000000000000000000000000000000000369520000200577670                 2~NF~144979              V2        
1577670    2023041720230418FP        AUX.P22                  2      1446674        16090000160600000VERIFICAR DESPALAMENTO DE PINTURA GERAL                                                                                                                                                                                                                                                                                                                                                                                                                                                                             0000000000000013700000000000000000010000000000000013690000000000003094690000000000002977900000000000000000000000000000000000000000000000002977900000200577670                 2~NF~144979              V2        
1577670    2023041420230414VE        CAPOT11                  2      2020380        15230000155700000VERIFICAR DESPALAMENTO DE PINTURA GERAL                                                                                                                                                                                                                                                                                                                                                                                                                                                                             0000000000000002300000000000000000020000000000000002280000000000000519550000000000000499940000000000000046760000000000000000000000000000000499940000200577670                 2~NF~144979              V2        
1577689    2023042820230428FP        FUNIL163                 1      C9999          15220000153700000REALIZAR REPAROS CONFORME ORÇAMENTO EM ANEXO                                                                                                                                                                                                                                                                                                                                                                                                                                                                        0000000000000008000000000000000000010000000000000007990000000000000760500000000000000760500000000000000000000000000000000000000000000000000760500000200577689                 2~NF~145106              V6        
1577689    2023042820230428FP        MECAN174                 2      DP             15220000153000000REALIZAR REPAROS CONFORME ORÇAMENTO EM ANEXO                                                                                                                                                                                                                                                                                                                                                                                                                                                                        0000000000000000700000000000000000010000000000000000690000000000000060000000000000000060000000000000000000000000000000000000000000000000000060000000200577689                 2~NF~145106              V6        
1577689    2023042820230428FP        MONTA182                 1      D000           15360000153700000REALIZAR REPAROS CONFORME ORÇAMENTO EM ANEXO                                                                                                                                                                                                                                                                                                                                                                                                                                                                        0000000000000001000000000000000000000000000000000001000000000000000450000000000000000450000000000000000002970000000000000000000000000000000450000000200577689                 2~NF~145106              V6        
1577689    2023041320230413FP        MECAN174                 2      E2020          07450000170300000REALIZAR REPAROS CONFORME ORÇAMENTO EM ANEXO                                                                                                                                                                                                                                                                                                                                                                                                                                                                        0000000000000001000000000000000000390000000000000000610000000000000080000000000000000080000000000000000000000000000000000000000000000000000080000000200577689                 2~NF~145106              V6        
1577689    2023041820230418FP        MECAN174                 1      MEC 1          11160000165800000REALIZAR REPAROS CONFORME ORÇAMENTO EM ANEXO                                                                                                                                                                                                                                                                                                                                                                                                                                                                        0000000000000001000000000000000000240000000000000000760000000000001072000000000000001072000000000000000000000000000000000000000000000000001072000000200577689                 2~NF~145106              V6        
1577689    2023041820230418FP        AUX.P327                 4      P8888          08260000111600000REALIZAR REPAROS CONFORME ORÇAMENTO EM ANEXO                                                                                                                                                                                                                                                                                                                                                                                                                                                                        0000000000000008000000000000000000120000000000000007880000000000001050000000000000001050000000000000000000000000000000000000000000000000001050000000200577689                 2~NF~145106              V6        
1577689    2023031520230317ES        ADMIN83                  4      1              09040000151800000REALIZAR REPAROS CONFORME ORÇAMENTO EM ANEXO                                                                                                                                                                                                                                                                                                                                                                                                                                                                        0000000000000000010000000000000002260000000000000002250000000000000000000000000000000000000000000000000000000000000000000000000000000000000000000000200577689                 2~NF~145106              V6        
1577858    2023032020230515                                   2      E0203          14190000152400000NT 2ª REVISÃO AOS 20.000 KM OU UM ANO - TRACKER 2020/2022 COM FILTRO                                                                                                                                                                                                                                                                                                                                                                                                                                                0000000000000001000000000000000000000000000000000001000000000000000080000000000000000056000000000000000000000000000000000000000000000000000056000000200577858                 2~NF~145228              V1        
1577858    2023032020230321AZ        MECAN77                  2      E2020          15100000142400000NT 2ª REVISÃO AOS 20.000 KM OU UM ANO - TRACKER 2020/2022 COM FILTRO                                                                                                                                                                                                                                                                                                                                                                                                                                                0000000000000001000000000000000000970000000000000000030000000000000080000000000000000056000000000000000016140000000000000000000000000000000056000000200577858                 2~NF~145228              V1        
1577858    2023032020230320AZ        MECAN77                  5      M0051          14190000142600000NT 2ª REVISÃO AOS 20.000 KM OU UM ANO - TRACKER 2020/2022 COM FILTRO                                                                                                                                                                                                                                                                                                                                                                                                                                                0000000000000001400000000000000000000000000000000001400000000000000250000000000000000175000000000000000022600000000000000000000000000000000175000000200577858                 2~NF~145228              V1        
1578002    2023042920230429ES        ADMIN83                  4      1              09500000122600000ORDEM DE SERVIÇO PARA PAGAMENTO DE FRANQUIA                                                                                                                                                                                                                                                                                                                                                                                                                                                                         0000000000000000010000000000000000110000000000000000100000000000000000000000000000000000000000000000000000000000000000000000000000000000000000000000200578002                                          V6        
1578004    2023050520230505FP        FUNIL313                 1      C9999          15100000151200000REALIZAR REPAROS CONFORME ORÇAMENTO EM ANEXO                                                                                                                                                                                                                                                                                                                                                                                                                                                                        0000000000000008000000000000000000000000000000000008000000000000000588000000000000000588000000000000000000000000000000000000000000000000000588000000200578004                 2~NF~145108              V6        
1578004    2023032320230323ES        ADMIN83                  4      1              07560000080100000REALIZAR REPAROS CONFORME ORÇAMENTO EM ANEXO                                                                                                                                                                                                                                                                                                                                                                                                                                                                        0000000000000000010000000000000000000000000000000000010000000000000000000000000000000000000000000000000000000000000000000000000000000000000000000000200578004                 2~NF~145108              V6        
1578006    2023050520230505FP        FUNIL313                 1      C9999          15090000151000000REALIZAR REPAROS CONFORME ORÇAMENTO EM ANEXO                                                                                                                                                                                                                                                                                                                                                                                                                                                                        0000000000000008000000000000000000000000000000000008000000000000000892000000000000000892000000000000000000000000000000000044600000000000000892000000200578006                 2~NF~145043              V6        
1578006    2023050520230505FP        MONTA182                 1      D000           15090000151000000REALIZAR REPAROS CONFORME ORÇAMENTO EM ANEXO                                                                                                                                                                                                                                                                                                                                                                                                                                                                        0000000000000001000000000000000000000000000000000001000000000000000650000000000000000650000000000000000009000000000000000032500000000000000650000000200578006                 2~NF~145043              V6        
1578006    2023042420230424FP        AUX.P327                 4      P8888          16320000165800000VALOR DA FRANQUIA R$ 3.192,00                                                                                                                                                                                                                                                                                                                                                                                                                                                                                       0000000000000008000000000000000000020000000000000007980000000000001650000000000000001650000000000000000000000000000000000082500000000000001650000000200578006                 2~NF~145043              V6        
1578025    2023032420230324ES        ADMIN83                  4      1              08520000092500000REALIZAR SERVIÇOS DE ACORDO COM ORÇAMENTO EM ANEXO - PORTO SEGURO                                                                                                                                                                                                                                                                                                                                                                                                                                                   0000000000000000010000000000000000020000000000000000010000000000000000000000000000000000000000000000000000000000000000000000000000000000000000000000200578025                                          V6        
1578027    2023051020230510FP        FUNIL313                 1      C9999          16020000160600000O.S PARA PAGAMENTO DE FRANQUIA                                                                                                                                                                                                                                                                                                                                                                                                                                                                                      0000000000000008000000000000000000000000000000000008000000000000000350000000000000000350000000000000000000000000000000000000000000000000000350000000200578027                 2~NF~145141              V6        
1578027    2023051020230510FP        MONTA79                  1      D000           16020000160600000O.S PARA PAGAMENTO DE FRANQUIA                                                                                                                                                                                                                                                                                                                                                                                                                                                                                      0000000000000001000000000000000000000000000000000001000000000000000450000000000000000450000000000000000011000000000000000000000000000000000450000000200578027                 2~NF~145141              V6        
1578027    2023042920230429FP        AUX.P327                 4      P8888          10470000122600000VALOR: R$ 2,342.00                                                                                                                                                                                                                                                                                                                                                                                                                                                                                                  0000000000000008000000000000000000070000000000000007930000000000000800000000000000000800000000000000000000000000000000000000000000000000000800000000200578027                 2~NF~145141              V6        
1578030    2023052420230524FP        AUX.P327                 4      P8888          08280000082900000REALIZAR SERVIÇOS DE ACORDO COM ORÇAMENTO EM ANEXO - AZUL SEGUROS                                                                                                                                                                                                                                                                                                                                                                                                                                                   0000000000000008000000000000000000000000000000000008000000000000000928000000000000000928000000000000000000000000000000000000000000000000000928000000200578030                 2~NF~145460              V6        
1578030    2023032320230323ES        ADMIN83                  4      1              15080000152500000REALIZAR SERVIÇOS DE ACORDO COM ORÇAMENTO EM ANEXO - AZUL SEGUROS                                                                                                                                                                                                                                                                                                                                                                                                                                                   0000000000000000010000000000000000010000000000000000000000000000000000000000000000000000000000000000000000000000000000000000000000000000000000000000200578030                 2~NF~145460              V6        
1578031    2023052320230523FP        FUNIL313                 1      C9999          10000000100100000O.S PARA PAGAMENTO DE FRANQUIA                                                                                                                                                                                                                                                                                                                                                                                                                                                                                      0000000000000008000000000000000000000000000000000008000000000000000680000000000000000680000000000000000000000000000000000034000000000000000680000000200578031                 2~NF~145464              V6        
1578031    2023050920230509VE        CAPOT11                  1      M000           14460000164400000O.S PARA PAGAMENTO DE FRANQUIA                                                                                                                                                                                                                                                                                                                                                                                                                                                                                      0000000000000005000000000000000000080000000000000004920000000000000450000000000000000450000000000000000045000000000000000022500000000000000450000000200578031                 2~NF~145464              V6        
1578031    2023051120230511FP        AUX.P327                 4      P8888          15050000163100000VALOR: R4 2,230.00                                                                                                                                                                                                                                                                                                                                                                                                                                                                                                  0000000000000008000000000000000000060000000000000007940000000000001100000000000000001100000000000000000000000000000000000055000000000000001100000000200578031                 2~NF~145464              V6        
1578084    2023050620230506FP        FUNIL313                 1      C9999          10160000101800000REALIZAR SERVIÇOS DE ACORDO COM ORÇAMENTO EM ANEXO - AZUL SEGUROS                                                                                                                                                                                                                                                                                                                                                                                                                                                   0000000000000008000000000000000000000000000000000008000000000000001330000000000000001330000000000000000000000000000000000000000000000000001330000000200578084                 2~NF~145105              V6        
1578084    2023050620230506FP        MECAN174                 1      D000           10160000101700000REALIZAR SERVIÇOS DE ACORDO COM ORÇAMENTO EM ANEXO - AZUL SEGUROS                                                                                                                                                                                                                                                                                                                                                                                                                                                   0000000000000001000000000000000000000000000000000001000000000000000720000000000000000720000000000000000000000000000000000000000000000000000720000000200578084                 2~NF~145105              V6        
1578084    2023050620230506FP        MECAN174                 1      MEC 1          10170000101800000REALIZAR SERVIÇOS DE ACORDO COM ORÇAMENTO EM ANEXO - AZUL SEGUROS                                                                                                                                                                                                                                                                                                                                                                                                                                                   0000000000000001000000000000000000000000000000000001000000000000000800000000000000000800000000000000000000000000000000000000000000000000000800000000200578084                 2~NF~145105              V6        
1578084    2023041920230419FP        AUX.P327                 4      P8888          11470000142800000REALIZAR SERVIÇOS DE ACORDO COM ORÇAMENTO EM ANEXO - AZUL SEGUROS                                                                                                                                                                                                                                                                                                                                                                                                                                                   0000000000000008000000000000000000110000000000000007890000000000002300000000000000002300000000000000000000000000000000000000000000000000002300000000200578084                 2~NF~145105              V6        
1578084    2023033020230330ES        ADMIN83                  4      1              16410000171700000REALIZAR SERVIÇOS DE ACORDO COM ORÇAMENTO EM ANEXO - AZUL SEGUROS                                                                                                                                                                                                                                                                                                                                                                                                                                                   0000000000000000010000000000000000030000000000000000020000000000000000000000000000000000000000000000000000000000000000000000000000000000000000000000200578084                 2~NF~145105              V6        
1578090    2023032420230520                                   16     CB             10300000102600000CAIXA DE TRANSMISSAO QUEBRADA                                                                                                                                                                                                                                                                                                                                                                                                                                                                                       0000000000000000010000000000000000000000000000000000010000000000000050000000000000000050000000000000000000000000000000000000000000000000000050000000200578090                 2~NF~145394              V1        
1578090    2023052020230520VE        MECAN318                 2      MEC            10250000102600000CAIXA DE TRANSMISSAO QUEBRADA                                                                                                                                                                                                                                                                                                                                                                                                                                                                                       0000000000000003000000000000000000000000000000000003000000000000003203340000000000003203340000000000000007020000000000000000000000000000003203340000200578090                 2~NF~145394              V1        
1578090    2023032420230520                                   2      ST             10300000102600000CAIXA DE TRANSMISSAO QUEBRADA                                                                                                                                                                                                                                                                                                                                                                                                                                                                                       0000000000000001000000000000000000000000000000000001000000000000001619000000000000001619000000000000000000000000000000000000000000000000001619000000200578090                 2~NF~145394              V1        
1578090    2023050420230504ES        ADMIN83                  4      1              14260000152100000CAIXA DE TRANSMISSAO QUEBRADA                                                                                                                                                                                                                                                                                                                                                                                                                                                                                       0000000000000000010000000000000000040000000000000000030000000000000000000000000000000000000000000000000000000000000000000000000000000000000000000000200578090                 2~NF~145394              V1        
1578090    2023051120230517VE        MECAN318                 2      3040190        09430000111700000Agenda Rapido                                                                                                                                                                                                                                                                                                                                                                                                                                                                                                       0000000000000001000000000000000000980000000000000000020000000000000062400000000000000062400000000000000002340000000000000000000000000000000062400000200578090                 2~NF~145394              V1        
1578090    2023051020230510VE        MECAN318                 2      3040210        11060000150900000Agenda Rapido                                                                                                                                                                                                                                                                                                                                                                                                                                                                                                       0000000000000001000000000000000000170000000000000000830000000000000062400000000000000062400000000000000002340000000000000000000000000000000062400000200578090                 2~NF~145394              V1        
1578090    2023051020230516VE        MECAN318                 2      4050420        08390000094400000Agenda Rapido                                                                                                                                                                                                                                                                                                                                                                                                                                                                                                       0000000000000001000000000000000000030000000000000000970000000000000039000000000000000039000000000000000002340000000000000000000000000000000039000000200578090                 2~NF~145394              V1        
1578090    2023050920230509VE        MECAN318                 2      4067150        13540000183800000Agenda Rapido                                                                                                                                                                                                                                                                                                                                                                                                                                                                                                       0000000000000000400000000000000000120000000000000000280000000000000094060000000000000094060000000000000000940000000000000000000000000000000094060000200578090                 2~NF~145394              V1        
1578090    2023050820230509VE        MECAN318                 2      8441370        08160000091600000Agenda Rapido                                                                                                                                                                                                                                                                                                                                                                                                                                                                                                       0000000000000001000000000000000000960000000000000000040000000000000039000000000000000039000000000000000002340000000000000000000000000000000039000000200578090                 2~NF~145394              V1        
1578090    2023032420230506VE        MECAN379                 2      8441410        10340000102900000Agenda Rapido                                                                                                                                                                                                                                                                                                                                                                                                                                                                                                       0000000000000001000000000000000000050000000000000000950000000000000039000000000000000039000000000000000002340000000000000000000000000000000039000000200578090                 2~NF~145394              V1        
1578090    2023042820230516VE        MECAN318                 2      8441780        14390000153600000Agenda Rapido                                                                                                                                                                                                                                                                                                                                                                                                                                                                                                       0000000000000002900000000000000001980000000000000000920000000000001000000000000000001000000000000000000006790000000000000000000000000000001000000000200578090                 2~NF~145394              V1        
1578093    2023050820230508ES        ADMIN83                  4      1              11390000114300000CAIXA DE TRASMISSAO VAZANDO                                                                                                                                                                                                                                                                                                                                                                                                                                                                                         0000000000000000010000000000000000000000000000000000010000000000000000000000000000000000000000000000000000000000000000000000000000000000000000000000200578093                                          V1        
1578138    2023032720230327VE        MECAN318                 5      M0041          09140000103900000NT 1ª REVISÃO AOS 10.000 KM OU UM ANO --- ONIX   2022/2023  ASPIRADO SEM FILTRO                                                                                                                                                                                                                                                                                                                                                                                                                                     0000000000000000010000000000000000060000000000000000050000000000000002690000000000000002690000000000000000050000000000000000000000000000000002690000200578138                                          D4        
1578242    2023051520230515FP        FUNIL163                 1      C9999          14300000143100000REALIZAR REPAROS CONFORME ORÇAMENTO EM ANEXO                                                                                                                                                                                                                                                                                                                                                                                                                                                                        0000000000000008000000000000000000000000000000000008000000000000002799000000000000002799000000000000000000000000000000000000000000000000002799000000200578242                 2~NF~145233              V6        
1578242    2023051520230515FP        MECAN174                 1      D000           14300000143200000REALIZAR REPAROS CONFORME ORÇAMENTO EM ANEXO                                                                                                                                                                                                                                                                                                                                                                                                                                                                        0000000000000001000000000000000000000000000000000001000000000000000750000000000000000750000000000000000000000000000000000000000000000000000750000000200578242                 2~NF~145233              V6        
1578242    2023042220230424FP        AUX.P22                  4      P8888          08590000074900000REALIZAR REPAROS CONFORME ORÇAMENTO EM ANEXO                                                                                                                                                                                                                                                                                                                                                                                                                                                                        0000000000000008000000000000000001950000000000000006050000000000002900000000000000002900000000000000000000000000000000000000000000000000002900000000200578242                 2~NF~145233              V6        
1578242    2023032920230329ES        ADMIN83                  4      1              10040000141000000REALIZAR REPAROS CONFORME ORÇAMENTO EM ANEXO                                                                                                                                                                                                                                                                                                                                                                                                                                                                        0000000000000000010000000000000000170000000000000000160000000000000000000000000000000000000000000000000000000000000000000000000000000000000000000000200578242                 2~NF~145233              V6        
1578242    2023032920230515                                   1      STF            09520000143200000INSTALAÇÃO DE DUAS FAIXAS NA PORTA DIANTERIA ESQUERDA / RODA                                                                                                                                                                                                                                                                                                                                                                                                                                                        0000000000000000500000000000000000000000000000000000500000000000000570000000000000000570000000000000000000000000000000000000000000000000000570000000200578242                 2~NF~145233              V6        
1578244    2023050820230508FP        MECAN174                 1      MEC 1          10060000100700000ORDEM DE SERVIÇO PARA PAGAMENTO DE FRANQUIA                                                                                                                                                                                                                                                                                                                                                                                                                                                                         0000000000000001000000000000000000000000000000000001000000000000002173000000000000002173000000000000000000000000000000000108650000000000002173000000200578244                 2~NF~145123              V6        
1578246    2023051820230518FP        FUNIL306                 1      C9999          15300000153200000REALIZAR REPAROS CONFORME ORÇAMENTO EM ANEXO                                                                                                                                                                                                                                                                                                                                                                                                                                                                        0000000000000008000000000000000000000000000000000008000000000000001962000000000000001962000000000000000000000000000000000000000000000000001962000000200578246                 2~NF~145330              V6        
1578246    2023050420230504FP        MONTA182                 1      D000           11140000171300000REALIZAR REPAROS CONFORME ORÇAMENTO EM ANEXO                                                                                                                                                                                                                                                                                                                                                                                                                                                                        0000000000000001000000000000000000250000000000000000750000000000000820000000000000000820000000000000000003510000000000000000000000000000000820000000200578246                 2~NF~145330              V6        
1578246    2023051820230518FP        MECAN174                 1      MEC 1          15300000153200000REALIZAR REPAROS CONFORME ORÇAMENTO EM ANEXO                                                                                                                                                                                                                                                                                                                                                                                                                                                                        0000000000000001000000000000000000000000000000000001000000000000000700000000000000000700000000000000000000000000000000000000000000000000000700000000200578246                 2~NF~145330              V6        
1578246    2023033020230330FP        MONTA79                  1      M000           09090000110500000REALIZAR REPAROS CONFORME ORÇAMENTO EM ANEXO                                                                                                                                                                                                                                                                                                                                                                                                                                                                        0000000000000005000000000000000000080000000000000004920000000000000250000000000000000250000000000000000021450000000000000000000000000000000250000000200578246                 2~NF~145330              V6        
1578246    2023042820230428FP        AUX.P327                 4      P8888          08030000084500000REALIZAR REPAROS CONFORME ORÇAMENTO EM ANEXO                                                                                                                                                                                                                                                                                                                                                                                                                                                                        0000000000000008000000000000000000030000000000000007970000000000002300000000000000002300000000000000000000000000000000000000000000000000002300000000200578246                 2~NF~145330              V6        
1578246    2023032920230329ES        ADMIN83                  4      1              14100000143300000REALIZAR REPAROS CONFORME ORÇAMENTO EM ANEXO                                                                                                                                                                                                                                                                                                                                                                                                                                                                        0000000000000000010000000000000000020000000000000000010000000000000000000000000000000000000000000000000000000000000000000000000000000000000000000000200578246                 2~NF~145330              V6        
1578247    2023050820230508FP        MECAN174                 1      MEC 1          11070000111300000ORDEM DE SERVIÇO PARA PAGAMENTO DA FRANQUIA                                                                                                                                                                                                                                                                                                                                                                                                                                                                         0000000000000001000000000000000000000000000000000001000000000000000250000000000000000250000000000000000000000000000000000000000000000000000250000000200578247                 2~NF~145082              V6        
1578300    2023051820230518FP        FUNIL306                 1      C9999          15570000155800000REALIZAR SERVIÇOS DE ACORDO COM ORÇAMENTO EM ANEXO - ALLIANZ SEGUROS                                                                                                                                                                                                                                                                                                                                                                                                                                                0000000000000008000000000000000000000000000000000008000000000000000791540000000000000791540000000000000000000000000000000000000000000000000791540000200578300                 2~NF~145356              V6        
1578300    2023051820230518FP        AUX.P327                 4      P8888          15570000155800000REALIZAR SERVIÇOS DE ACORDO COM ORÇAMENTO EM ANEXO - ALLIANZ SEGUROS                                                                                                                                                                                                                                                                                                                                                                                                                                                0000000000000008000000000000000000000000000000000008000000000000000900000000000000000900000000000000000000000000000000000000000000000000000900000000200578300                 2~NF~145356              V6        
1578300    2023033020230519                                   1      STF            10130000152200000REALIZAR SERVIÇOS DE ACORDO COM ORÇAMENTO EM ANEXO - ALLIANZ SEGUROS                                                                                                                                                                                                                                                                                                                                                                                                                                                0000000000000000500000000000000000000000000000000000500000000000000800000000000000000800000000000000000000000000000000000000000000000000000800000000200578300                 2~NF~145356              V6        
1578300    2023033020230330ES        ADMIN83                  4      1              14180000143400000REALIZAR SERVIÇOS DE ACORDO COM ORÇAMENTO EM ANEXO - ALLIANZ SEGUROS                                                                                                                                                                                                                                                                                                                                                                                                                                                0000000000000000010000000000000000010000000000000000000000000000000000000000000000000000000000000000000000000000000000000000000000000000000000000000200578300                 2~NF~145356              V6        
1578302    2023051120230511FP        MONTA182                 1      D000           14550000161400000O.S PARA PAGAMENTO DE FRANQUIA                                                                                                                                                                                                                                                                                                                                                                                                                                                                                      0000000000000001000000000000000000050000000000000000950000000000000500000000000000000500000000000000000015800000000000000025000000000000000500000000200578302                 2~NF~145302              V6        
1578302    2023051120230511FP        MONTA79                  1      M000           14550000171800000O.S PARA PAGAMENTO DE FRANQUIA                                                                                                                                                                                                                                                                                                                                                                                                                                                                                      0000000000000005000000000000000000100000000000000004900000000000000500000000000000000500000000000000000096550000000000000025000000000000000500000000200578302                 2~NF~145302              V6        
1578302    2023051720230517FP        MECAN174                 1      MEC 1          16130000161400000ALLIANZ SEGUROS                                                                                                                                                                                                                                                                                                                                                                                                                                                                                                     0000000000000001000000000000000000000000000000000001000000000000000468460000000000000468460000000000000000000000000000000023420000000000000468460000200578302                 2~NF~145302              V6        
1578302    2023042820230428FP        AUX.P327                 4      P8888          10260000113200000ALLIANZ SEGUROS                                                                                                                                                                                                                                                                                                                                                                                                                                                                                                     0000000000000008000000000000000000050000000000000007950000000000001000000000000000001000000000000000000000000000000000000050000000000000001000000000200578302                 2~NF~145302              V6        
1578332    2023050920230509FP        FUNIL313                 1      C9999          10520000105500000REALIZAR SERVIÇOS DE ACORDO COM ORÇAMENTO EM ANEXO - LIBERTY                                                                                                                                                                                                                                                                                                                                                                                                                                                        0000000000000008000000000000000000000000000000000008000000000000001226000000000000001226000000000000000000000000000000000000000000000000001226000000200578332                 2~NF~145103              V6        
1578332    2023050920230509FP        MECAN174                 1      D000           10530000105500000REALIZAR SERVIÇOS DE ACORDO COM ORÇAMENTO EM ANEXO - LIBERTY                                                                                                                                                                                                                                                                                                                                                                                                                                                        0000000000000001000000000000000000000000000000000001000000000000000520000000000000000520000000000000000000000000000000000000000000000000000520000000200578332                 2~NF~145103              V6        
1578332    2023050920230509FP        MECAN174                 1      MEC 1          10520000105300000REALIZAR SERVIÇOS DE ACORDO COM ORÇAMENTO EM ANEXO - LIBERTY                                                                                                                                                                                                                                                                                                                                                                                                                                                        0000000000000001000000000000000000000000000000000001000000000000000700000000000000000700000000000000000000000000000000000000000000000000000700000000200578332                 2~NF~145103              V6        
1578332    2023041820230418FP        AUX.P22                  4      P8888          07470000090900000REALIZAR SERVIÇOS DE ACORDO COM ORÇAMENTO EM ANEXO - LIBERTY                                                                                                                                                                                                                                                                                                                                                                                                                                                        0000000000000008000000000000000000060000000000000007940000000000001850000000000000001850000000000000000000000000000000000000000000000000001850000000200578332                 2~NF~145103              V6        
1578332    2023033120230509                                   1      STF            07560000105500000REALIZAR SERVIÇOS DE ACORDO COM ORÇAMENTO EM ANEXO - LIBERTY                                                                                                                                                                                                                                                                                                                                                                                                                                                        0000000000000000500000000000000000000000000000000000500000000000000200000000000000000200000000000000000000000000000000000000000000000000000200000000200578332                 2~NF~145103              V6        
1578332    2023033120230331ES        ADMIN83                  4      1              08540000100300000REALIZAR SERVIÇOS DE ACORDO COM ORÇAMENTO EM ANEXO - LIBERTY                                                                                                                                                                                                                                                                                                                                                                                                                                                        0000000000000000010000000000000000050000000000000000040000000000000000000000000000000000000000000000000000000000000000000000000000000000000000000000200578332                 2~NF~145103              V6        
1578346    2023052420230524FP        FUNIL306                 1      C9999          08220000082400000REALIZAR SERVIÇOS DE ACORDO COM ORÇAMENTO EM ANEXO - AZUL SEGUROS                                                                                                                                                                                                                                                                                                                                                                                                                                                   0000000000000008000000000000000000000000000000000008000000000000002073000000000000002073000000000000000000000000000000000000000000000000002073000000200578346                 2~NF~145458              V6        
1578346    2023052420230524FP        MONTA182                 1      D000           08220000082400000REALIZAR SERVIÇOS DE ACORDO COM ORÇAMENTO EM ANEXO - AZUL SEGUROS                                                                                                                                                                                                                                                                                                                                                                                                                                                   0000000000000001000000000000000000000000000000000001000000000000000850000000000000000850000000000000000003510000000000000000000000000000000850000000200578346                 2~NF~145458              V6        
1578346    2023052420230524FP        MECAN174                 2      E2020          08230000082400000REALIZAR SERVIÇOS DE ACORDO COM ORÇAMENTO EM ANEXO - AZUL SEGUROS                                                                                                                                                                                                                                                                                                                                                                                                                                                   0000000000000001000000000000000000000000000000000001000000000000000080000000000000000080000000000000000000000000000000000000000000000000000080000000200578346                 2~NF~145458              V6        
1578346    2023052420230524FP        MECAN174                 1      MEC 1          08220000082300000REALIZAR SERVIÇOS DE ACORDO COM ORÇAMENTO EM ANEXO - AZUL SEGUROS                                                                                                                                                                                                                                                                                                                                                                                                                                                   0000000000000001000000000000000000000000000000000001000000000000000700000000000000000700000000000000000000000000000000000000000000000000000700000000200578346                 2~NF~145458              V6        
1578346    2023042820230428FP        AUX.P327                 4      P8888          15390000160700000REALIZAR SERVIÇOS DE ACORDO COM ORÇAMENTO EM ANEXO - AZUL SEGUROS                                                                                                                                                                                                                                                                                                                                                                                                                                                   0000000000000008000000000000000000020000000000000007980000000000001300000000000000001300000000000000000000000000000000000000000000000000001300000000200578346                 2~NF~145458              V6        
1578346    2023033120230403ES        ADMIN83                  4      1              14420000081900000REALIZAR SERVIÇOS DE ACORDO COM ORÇAMENTO EM ANEXO - AZUL SEGUROS                                                                                                                                                                                                                                                                                                                                                                                                                                                   0000000000000000010000000000000002730000000000000002720000000000000000000000000000000000000000000000000000000000000000000000000000000000000000000000200578346                 2~NF~145458              V6        
1578400    2023033120230331ES        ADMIN82                  2      03             16270000162800000REQUISIÇÃO                                                                                                                                                                                                                                                                                                                                                                                                                                                                                                          0000000000000000500000000000000000000000000000000000500000000000000000000000000000000000000000000000000000000000000000000000000000000000000000000000200578400                                          I2        
1578418    2023040320230403VE        CAPOT11                  1      M000           15010000165700000RECUPERAR E PINTAR LATERAL TRASEIRA ESQUERDA                                                                                                                                                                                                                                                                                                                                                                                                                                                                        0000000000000005000000000000000000080000000000000004920000000000000150000000000000000150000000000000000045000000000000000007500000000000000150000000200578418                 2~NF~145619              V6        
1578418    2023040120230403FP        AUX.P22                  4      P8888          09070000081800000VALOR AJUSTADO R$400,00                                                                                                                                                                                                                                                                                                                                                                                                                                                                                             0000000000000008000000000000000001970000000000000006030000000000000250000000000000000250000000000000000000000000000000000012500000000000000250000000200578418                 2~NF~145619              V6        
1578433    2023040320230403VE        MECAN329                 2      4412470        08140000082400000VERIFICAR AR CONDICIONADO COM BAIXA EFICIENCIA                                                                                                                                                                                                                                                                                                                                                                                                                                                                      0000000000000008000000000000000000010000000000000007990000000000001807120000000000001807120000000000000108430000000000000000000000000000001807120000200578433                 2~NF~144976              V2        
1578461    2023051520230515FP        FUNIL163                 1      C9999          14490000145000000REALIZAR REPAROS CONFORME ORÇAMENTO EM ANEXO                                                                                                                                                                                                                                                                                                                                                                                                                                                                        0000000000000008000000000000000000000000000000000008000000000000001589190000000000001589190000000000000000000000000000000000000000000000001589190000200578461                 2~NF~145229              V6        
1578461    2023051520230515FP        MONTA182                 1      D000           14490000145000000REALIZAR REPAROS CONFORME ORÇAMENTO EM ANEXO                                                                                                                                                                                                                                                                                                                                                                                                                                                                        0000000000000001000000000000000000000000000000000001000000000000000750000000000000000750000000000000000003330000000000000000000000000000000750000000200578461                 2~NF~145229              V6        
1578461    2023042820230429FP        AUX.P22                  4      P8888          09070000083500000REALIZAR REPAROS CONFORME ORÇAMENTO EM ANEXO                                                                                                                                                                                                                                                                                                                                                                                                                                                                        0000000000000008000000000000000000980000000000000007020000000000002300000000000000002300000000000000000000000000000000000000000000000000002300000000200578461                 2~NF~145229              V6        
1578461    2023040420230405ES        ADMIN83                  4      1              15020000083600000REALIZAR REPAROS CONFORME ORÇAMENTO EM ANEXO                                                                                                                                                                                                                                                                                                                                                                                                                                                                        0000000000000000010000000000000000730000000000000000720000000000000000000000000000000000000000000000000000000000000000000000000000000000000000000000200578461                 2~NF~145229              V6        
1578470    2023041920230419VE        MECAN381                 2      ML             11320000142800000 verificar veiculo com falhamento e luz de injeção acesa                                                                                                                                                                                                                                                                                                                                                                                                                                                            0000000000000000500000000000000000120000000000000000380000000000000477580000000000000477580000000000000000000000000000000000000000000000000477580000200578470                 2~NF~145124              V2        
1578470    2023041820230419VE        MECAN381                 2      4066890        14550000083300000 verificar veiculo com falhamento e luz de injeção acesa                                                                                                                                                                                                                                                                                                                                                                                                                                                            0000000000000004700000000000000000730000000000000003970000000000001061680000000000001061680000000000000000000000000000000000000000000000001061680000200578470                 2~NF~145124              V2        
1578514    2023040420230404FP        AUX.P22                  4      P8888          11400000144700000VEICULO ENVIADO POR RAFAELA E AUTORIZADO POR POLYANA                                                                                                                                                                                                                                                                                                                                                                                                                                                                0000000000000008000000000000000000130000000000000007870000000000000250000000000000000250000000000000000000000000000000000012500000000000000250000000200578514                 2~NF~145620              V6        
1578611    2023041920230419VE        CAPOT11                  1      M000           08090000142800000VALOR: R$ 5.015,23                                                                                                                                                                                                                                                                                                                                                                                                                                                                                                  0000000000000005000000000000000000260000000000000004740000000000000330000000000000000330000000000000000045000000000000000000000000000000000330000000200578611                 2~NF~144987              V6        
1578611    2023041920230419FP        AUX.P22                  4      P8888          16300000164200000SINISTRO: 104202303271301                                                                                                                                                                                                                                                                                                                                                                                                                                                                                           0000000000000008000000000000000000010000000000000007990000000000000520000000000000000520000000000000000000000000000000000000000000000000000520000000200578611                 2~NF~144987              V6        
1578654    2023041920230419FP        FUNIL306                 1      C9999          15330000153400000O.S PARA PAGAMENTO DE FRANQUIA                                                                                                                                                                                                                                                                                                                                                                                                                                                                                      0000000000000008000000000000000000000000000000000008000000000000000626940000000000000626940000000000000000000000000000000031350000000000000626940000200578654                 2~NF~145000              V6        
1578654    2023041920230419FP        MONTA182                 1      D000           15330000153400000O.S PARA PAGAMENTO DE FRANQUIA                                                                                                                                                                                                                                                                                                                                                                                                                                                                                      0000000000000001000000000000000000000000000000000001000000000000000500000000000000000500000000000000000009000000000000000025000000000000000500000000200578654                 2~NF~145000              V6        
1578654    2023041320230413FP        AUX.P156                 4      P8888          15290000153000000O.S PARA PAGAMENTO DE FRANQUIA                                                                                                                                                                                                                                                                                                                                                                                                                                                                                      0000000000000008000000000000000000000000000000000008000000000000001100000000000000001100000000000000000000000000000000000055000000000000001100000000200578654                 2~NF~145000              V6        
1578654    2023041020230419                                   1      STF            08410000153400000O.S PARA PAGAMENTO DE FRANQUIA                                                                                                                                                                                                                                                                                                                                                                                                                                                                                      0000000000000000500000000000000000000000000000000000500000000000000200000000000000000200000000000000000000000000000000000010000000000000000200000000200578654                 2~NF~145000              V6        
1578655    2023052020230520FP        FUNIL306                 1      C9999          10090000101200000REALIZAR SERVIÇOS DE ACORDO COM ORÇAMENTO EM ANEXO - LIBERTY SEGUROS                                                                                                                                                                                                                                                                                                                                                                                                                                                0000000000000008000000000000000000000000000000000008000000000000001226000000000000001226000000000000000000000000000000000000000000000000001226000000200578655                 2~NF~145392              V6        
1578655    2023052020230520FP        MECAN174                 2      E2020          10110000101200000REALIZAR SERVIÇOS DE ACORDO COM ORÇAMENTO EM ANEXO - LIBERTY SEGUROS                                                                                                                                                                                                                                                                                                                                                                                                                                                0000000000000001000000000000000000000000000000000001000000000000000220000000000000000220000000000000000000000000000000000000000000000000000220000000200578655                 2~NF~145392              V6        
1578655    2023052020230520FP        MECAN174                 1      MEC 1          10100000101100000REALIZAR SERVIÇOS DE ACORDO COM ORÇAMENTO EM ANEXO - LIBERTY SEGUROS                                                                                                                                                                                                                                                                                                                                                                                                                                                0000000000000001000000000000000000000000000000000001000000000000000600000000000000000600000000000000000000000000000000000000000000000000000600000000200578655                 2~NF~145392              V6        
