1457638    2021102620211101EQ        INSTA214                 2      1.11           15530000080900000INST: PELICULA ESTETICA                                                                                                                                                                                                                                                                                                                                                                                                                                                                                             0000000000000000010000000000000003440000000000000003430000000000000000000000000000000000000000000000000000200000000000000000000000000000000000000000400457638                                          V9        
1468156    2022061320220613AP        Técni34                  2      E0203          10210000104600000PRIMEIRA REVISAO.                                                                                                                                                                                                                                                                                                                                                                                                                                                                                                   0000000000000001000000000000000000020000000000000000980000000000000065000000000000000065000000000000000021520000000000000000000000000000000065000000400468156                 4~NF~150429              V1        
1468156    2022061320220613AP        Técni34                  2      E2020          09530000102100000PRIMEIRA REVISAO.                                                                                                                                                                                                                                                                                                                                                                                                                                                                                                   0000000000000001000000000000000000020000000000000000980000000000000060000000000000000060000000000000000021520000000000000000000000000000000060000000400468156                 4~NF~150429              V1        
1474930    2022111120221111EQ        INSTA126                 9      1.2            13360000143700000SERVIÇO DE POLIMENTO                                                                                                                                                                                                                                                                                                                                                                                                                                                                                                0000000000000000500000000000000000040000000000000000460000000000000122980000000000000122980000000000000004000000000000000000000000000000000122980000400474930                                          S9        
1475245    2022111720221212EQ        INSTA214                 9      1.2            09430000093700000INST. SOM AM/FM                                                                                                                                                                                                                                                                                                                                                                                                                                                                                                     0000000000000000500000000000000000150000000000000000350000000000000016900000000000000016900000000000000004000000000000000000000000000000000016900000400475245                                          S9        
1475287    2022111720230506EQ        INSTA214                 9      1.2            15550000101600000INST: ANTENA                                                                                                                                                                                                                                                                                                                                                                                                                                                                                                        0000000000000000500000000000000000040000000000000000460000000000000034570000000000000034570000000000000004000000000000000000000000000000000034570000400475287                                          S9        
1475297    2022111820230506EQ        INSTA252                 9      1.2            08560000105900000INST. SOM AM/FM                                                                                                                                                                                                                                                                                                                                                                                                                                                                                                     0000000000000000500000000000000000070000000000000000430000000000000040800000000000000040800000000000000004000000000000000000000000000000000040800000400475297                                          S9        
1475578    2022112420230120EQ        INSTA252                 9      1.2            14310000162300000SERVIÇO DE REVITALIZAÇÃO                                                                                                                                                                                                                                                                                                                                                                                                                                                                                            0000000000000000500000000000000000820000000000000000320000000000000062330000000000000062330000000000000004000000000000000000000000000000000062330000400475578                                          S9        
1475607    2023012020230120EQ        INSTA126                 2      1.11           16270000164300000INST. REVITALIZAÇÃO E PROTEÇÃO DE PINTURA                                                                                                                                                                                                                                                                                                                                                                                                                                                                           0000000000000000010000000000000000010000000000000000000000000000000000000000000000000000000000000000000000080000000000000000000000000000000000000000400475607                                          S9        
1475607    2022112520230506                                   9      1.2            11160000110900000INST. REVITALIZAÇÃO E PROTEÇÃO DE PINTURA                                                                                                                                                                                                                                                                                                                                                                                                                                                                           0000000000000000500000000000000000000000000000000000500000000000000072540000000000000072540000000000000000000000000000000000000000000000000072540000400475607                                          S9        
1476399    2022121320221228AP        Técni354                 9      1.2            17400000102800000INST.PELICULA ESTETICA                                                                                                                                                                                                                                                                                                                                                                                                                                                                                              0000000000000000500000000000000000790000000000000000290000000000000046230000000000000046230000000000000001200000000000000000000000000000000046230000400476399                                          S9        
1476473    2022121520230506EQ        INSTA252                 9      1.2            10140000112800000INST.SENSOR DE RÉ                                                                                                                                                                                                                                                                                                                                                                                                                                                                                                   0000000000000000500000000000000000010000000000000000490000000000000000500000000000000000500000000000000004000000000000000000000000000000000000500000400476473                                          S9        
1476573    2022121620230506EQ        INSTA252                 9      1.2            12580000115200000INST.PELICULA DE ESTETICA                                                                                                                                                                                                                                                                                                                                                                                                                                                                                           0000000000000000500000000000000000080000000000000000420000000000000002990000000000000002990000000000000004000000000000000000000000000000000002990000400476573                                          S9        
1476895    2022122120230506EQ        INSTA252                 9      1.2            17090000115600000INST.TAPETE                                                                                                                                                                                                                                                                                                                                                                                                                                                                                                         0000000000000000500000000000000002040000000000000001540000000000000000500000000000000000500000000000000004000000000000000000000000000000000000500000400476895                                          S9        
1477937    2023011020230513EQ        INSTA126                 2      1.11           16570000112000000INST.CAMERA DE RÉ                                                                                                                                                                                                                                                                                                                                                                                                                                                                                                   0000000000000002540000000000000000010000000000000002530000000000000000000000000000000000000000000000000020320000000000000000000000000000000000000000400477937                                          S9        
1478354    2023011920230523EQ        INSTA126                 9      1.2            09220000174300000INST: KIT CONECTIVIDADE                                                                                                                                                                                                                                                                                                                                                                                                                                                                                             0000000000000000500000000000000000020000000000000000480000000000000173830000000000000173830000000000000004000000000000000000000000000000000173830000400478354                                          D9        
1478356    2023011920230119EQ        INSTA126                 9      1.2            09430000094700000INST: KIT CONECTIVIDADE                                                                                                                                                                                                                                                                                                                                                                                                                                                                                             0000000000000186220000000000000000000000000000000186220000000000000206220000000000000206220000000000001489760000000000000000000000000000000206220000400478356                                          D9        
1479546    2023021420230214ST        MECAN376                 2      0610653        14400000144200000REVISÃO DE ENTREGA                                                                                                                                                                                                                                                                                                                                                                                                                                                                                                  0000000000000000600000000000000000000000000000000000600000000000000149740000000000000149740000000000000000000000000000000000000000000000000149740000400479546                                          RE        
1480176    2023050220230502ST        MECAN271                 2      OXI10          12040000120500000VERIFICAR BATERIA                                                                                                                                                                                                                                                                                                                                                                                                                                                                                                   0000000000000000200000000000000000000000000000000000200000000000000000200000000000000000200000000000000000000000000000000000010000000000000000200000400480176                 4~NF~149930              V1        
1480306    2023030620230306AP        Técni357                 5      M0051          15050000150600000NT 2ª REVISÃO AOS 20.000 KM OU 2 ANOS --- ONIX   2020/2022  TURBO COM FILTRO                                                                                                                                                                                                                                                                                                                                                                                                                                        0000000000000001400000000000000000000000000000000001400000000000000370000000000000000249930000000000000022600000000000000000000000000000000249930000400480306                 4~NF~150104              V1        
1480387    2023030820230525                                   2      OXI10          08490000182100000VERIFICAR AR-CONDICIONADO                                                                                                                                                                                                                                                                                                                                                                                                                                                                                           0000000000000000200000000000000000000000000000000000200000000000000000500000000000000000500000000000000000000000000000000000030000000000000000500000400480387                 4~NF~150559              V1        
1480422    2023050220230502AP        TAPEC50                  2      OXI10          11480000114900000OS ABERTA PARA PEDIDO DE PEÇA 22752508 SENSOR                                                                                                                                                                                                                                                                                                                                                                                                                                                                       0000000000000000200000000000000000000000000000000000200000000000000001000000000000000001000000000000000004840000000000000000050000000000000001000000400480422                 4~NF~149926              V1        
1480510    2023052720230527AP        Técni287                 2      SER10          08240000082500000VERIFICAR AR-CONDICIONADO                                                                                                                                                                                                                                                                                                                                                                                                                                                                                           0000000000000000600000000000000000000000000000000000600000000000000000500000000000000000500000000000000009680000000000000000030000000000000000500000400480510                 4~NF~150594              V1        
1480602    2023031320230313AP        Técni359                 12     TR015          09040000090600000SERVIÇO RAPIDO                                                                                                                                                                                                                                                                                                                                                                                                                                                                                                      0000000000000001900000000000000000000000000000000001900000000000000080000000000000000080000000000000000003420000000000000000000000000000000080000000400480602                                          D3        
1480659    2023051920230519ST        MECAN271                 2      OXI10          12100000121100000OXI                                                                                                                                                                                                                                                                                                                                                                                                                                                                                                                 0000000000000000200000000000000000000000000000000000200000000000000000250000000000000000250000000000000000000000000000000000010000000000000000250000400480659                 4~NF~150358              V1        
1480839    2023031720230518                                   2      AAA71          14530000184200000VERIFICAR LAMPADA DE FREIO                                                                                                                                                                                                                                                                                                                                                                                                                                                                                          0000000000000000010000000000000000000000000000000000010000000000000010000000000000000010000000000000000000000000000000000000000000000000000010000000400480839                                          D3        
1480890    2023032020230320AP        TAPEC50                  2      M0042          09350000095800000NT 1ª REVISÃO AOS 10.000 KM OU UM ANO --- ONIX   2022/2023  ASPIRADO SEM FILTRO                                                                                                                                                                                                                                                                                                                                                                                                                                     0000000000000001000000000000000000020000000000000000980000000000000000010000000000000000010000000000000002700000000000000000000000000000000000010000400480890                                          D4        
1480978    2023032120230321AP        Técni377                 5      M0081E         08330000085300000VERIFICAR LAMPADA DO FAROL                                                                                                                                                                                                                                                                                                                                                                                                                                                                                          0000000000000000400000000000000000010000000000000000390000000000000040000000000000000040000000000000000000720000000000000000000000000000000040000000400480978                                          D3        
1481009    2023032120230321AP        TAPEC50                  2      M0042          11470000133400000NT 1ª REVISÃO AOS 10.000 KM OU UM ANO --- ONIX   2022/2023  TURBO SEM FILTRO                                                                                                                                                                                                                                                                                                                                                                                                                                        0000000000000001000000000000000000070000000000000000930000000000000000010000000000000000010000000000000002700000000000000000000000000000000000010000400481009                                          D4        
1481030    2023050320230503AP        Técni287                 2      MEC            16490000165000000VERIFICAR BARULHO NA FRENTE DO VEICULO TIPO GRILO                                                                                                                                                                                                                                                                                                                                                                                                                                                                   0000000000000003000000000000000000000000000000000003000000000000000030000000000000000030000000000000000014040000000000000001500000000000000030000000400481030                 4~NF~149962              V1        
1481076    2023032220230322ST        MECAN376                 2      0610653        14340000143500000REVISÃO DE ENTREGA                                                                                                                                                                                                                                                                                                                                                                                                                                                                                                  0000000000000000600000000000000000000000000000000000600000000000000158620000000000000158620000000000000000000000000000000000000000000000000158620000400481076                                          RE        
1481077    2023032220230519ST        MECAN376                 2      0610653        15010000114500000REVISÃO DE ENTREGA                                                                                                                                                                                                                                                                                                                                                                                                                                                                                                  0000000000000000600000000000000000020000000000000000580000000000000158620000000000000158620000000000000000000000000000000000000000000000000158620000400481077                                          RE        
1481195    2023050220230502ST        MECAN271                 2      OXI10          12080000120900000VERIFICAR VEÍCLO SE DAR PARTIDA                                                                                                                                                                                                                                                                                                                                                                                                                                                                                     0000000000000000200000000000000000000000000000000000200000000000000000200000000000000000200000000000000000000000000000000000010000000000000000200000400481195                 4~NF~149929              V1        
1481216    2023041820230418AP        Técni177                 2      8430310        09370000094200000VERIFICAR VEICULO COM DIFULDADE DE ENGATAR MARCHAS                                                                                                                                                                                                                                                                                                                                                                                                                                                                  0000000000000001100000000000000000000000000000000001100000000000000248480000000000000226200000000000000014910000000000000000000000000000000226200000400481216                 4~NF~149960              V2        
1481216    2023032720230328AP        Técni177                 2      8430360        16440000081600000VERIFICAR VEICULO COM DIFULDADE DE ENGATAR MARCHAS                                                                                                                                                                                                                                                                                                                                                                                                                                                                  0000000000000003100000000000000000650000000000000002450000000000000700260000000000000637490000000000000042020000000000000000000000000000000637490000400481216                 4~NF~149960              V2        
1481311    2023032820230328ST        MECAN271                 5      M0041          14130000141400000NT 1ª REVISÃO AOS 10.000 KM OU UM ANO - TRACKER 2022/2023  SEM  FILTRO                                                                                                                                                                                                                                                                                                                                                                                                                                              0000000000000001000000000000000000000000000000000001000000000000000000010000000000000000010000000000000000000000000000000000000000000000000000010000400481311                                          D4        
1481342    2023042720230427AP        Técni177                 2      4412470        11120000111400000VERIFICAR AR CONDICIONADO NÃO FUNCIONA.                                                                                                                                                                                                                                                                                                                                                                                                                                                                             0000000000000008000000000000000000000000000000000008000000000000001807120000000000001807120000000000000108430000000000000000000000000000001807120000400481342                 4~NF~149940              V2        
1481342    2023042720230427AP        Técni177                 2      7021820        11140000111500000VERIFICAR MOLDURA LADO MOTIRISTA                                                                                                                                                                                                                                                                                                                                                                                                                                                                                    0000000000000001000000000000000000000000000000000001000000000000000131940000000000000131940000000000000013550000000000000000000000000000000131940000400481342                 4~NF~149940              V2        
1481356    2023032920230412AP        Técni177                 2      MEC            09470000104100000VERIFICAR VEICULO QUE NÃO ENTRA EM FUCIONAMENTO                                                                                                                                                                                                                                                                                                                                                                                                                                                                     0000000000000003000000000000000000730000000000000002270000000000000500000000000000000500000000000000000048420000000000000000000000000000000500000000400481356                 4~NF~150283              V1        
1481487    2023033120230331AP        Técni359                 5      M0051          09270000101900000REVISÃO PROGRAMADA                                                                                                                                                                                                                                                                                                                                                                                                                                                                                                  0000000000000001400000000000000000040000000000000001360000000000000499000000000000000499000000000000000006720000000000000000000000000000000499000000400481487                                          S1        
1481552    2023040120230401                                   2      E0203          09060000094500000NT 1ª REVISÃO AOS 10.000 KM OU UM ANO --- ONIX   2022/2023  TURBO SEM FILTRO                                                                                                                                                                                                                                                                                                                                                                                                                                        0000000000000001000000000000000000000000000000000001000000000000000050000000000000000050000000000000000000000000000000000000000000000000000050000000400481552                 4~NF~149984              V1        
1481552    2023040120230401ST        MECAN271                 2      E2020          09080000091600000NT 1ª REVISÃO AOS 10.000 KM OU UM ANO --- ONIX   2022/2023  TURBO SEM FILTRO                                                                                                                                                                                                                                                                                                                                                                                                                                        0000000000000001000000000000000000010000000000000000990000000000000050000000000000000050000000000000000000000000000000000000000000000000000050000000400481552                 4~NF~149984              V1        
1481552    2023040120230401ST        MECAN271                 2      03             09070000090800000NT 1ª REVISÃO AOS 10.000 KM OU UM ANO --- ONIX   2022/2023  TURBO SEM FILTRO                                                                                                                                                                                                                                                                                                                                                                                                                                        0000000000000000500000000000000000000000000000000000500000000000000000000000000000000000000000000000000000000000000000000000000000000000000000000000400481552                 4~NF~149984              V1        
1481558    2023040120230401AP        Técni287                 5      M0081          09440000101000000NT 5º REVISAO DE 50.000 KM OU 05 ANOS S10 DIESEL 4X4 2017 / 2023                                                                                                                                                                                                                                                                                                                                                                                                                                                    0000000000000001930000000000000000020000000000000001910000000000000599000000000000000419300000000000000031080000000000000000000000000000000419300000400481558                 4~NF~150221              V1        
1481573    2023040120230401ST        MECAN376                 2      0610653        11320000113500000REVISÃO DE ENTREGA                                                                                                                                                                                                                                                                                                                                                                                                                                                                                                  0000000000000000600000000000000000000000000000000000600000000000000158620000000000000158620000000000000000000000000000000000000000000000000158620000400481573                                          RE        
1481678    2023040420230404ST        MECAN271                 2      03             14160000141700000NT 1ª REVISÃO AOS 10.000 KM OU UM ANO --- ONIX   2022/2023  ASPIRADO SEM FILTRO                                                                                                                                                                                                                                                                                                                                                                                                                                     0000000000000000500000000000000000000000000000000000500000000000000000000000000000000000000000000000000000000000000000000000000000000000000000000000400481678                                          V1        
1481679    2023040420230404AP        Técni34                  2      03             14170000142100000NT 1º REVISAO DE 10.000 KM OU 01 ANO TRAILBLAZER DIESEL 2017-2023                                                                                                                                                                                                                                                                                                                                                                                                                                                   0000000000000000500000000000000000000000000000000000500000000000000000000000000000000000000000000000000003160000000000000000000000000000000000000000400481679                                          V1        
1481739    2023040520230405EQ        INSTA126                 2      1.11           09120000091300000CAMISETA STOCK CAR PRETO                                                                                                                                                                                                                                                                                                                                                                                                                                                                                            0000000000000000010000000000000000000000000000000000010000000000000000000000000000000000000000000000000000200000000000000000000000000000000000000000400481739                                          V9        
1481762    2023040520230405AP        Técni325                 2      9106596        11440000115600000Isolador Acústico do Carpete - IT-005G-23                                                                                                                                                                                                                                                                                                                                                                                                                                                                           0000000000000001200000000000000000010000000000000001190000000000000271070000000000000271070000000000000016260000000000000013550000000000000271070000400481762                 4~NF~150131              V2        
1481773    2023040520230405AP        Técni287                 2      M0042          14230000144200000PRIMEIRA REVISÃO ESPECIAL                                                                                                                                                                                                                                                                                                                                                                                                                                                                                           0000000000000001000000000000000000010000000000000000990000000000000290810000000000000290810000000000000004740000000000000014540000000000000290810000400481773                 4~NF~150452              V3        
1481779    2023040520230405AP        Técni359                 5      M0041          15440000154500000REVISÃO PROGRAMADA                                                                                                                                                                                                                                                                                                                                                                                                                                                                                                  0000000000000001000000000000000000000000000000000001000000000000000000010000000000000000010000000000000001800000000000000000000000000000000000010000400481779                                          D4        
1481838    2023040620230526                                   2      OXI10          16080000093100000VERIFICAR AR-CONDICIONADO                                                                                                                                                                                                                                                                                                                                                                                                                                                                                           0000000000000000200000000000000000000000000000000000200000000000000000500000000000000000500000000000000000000000000000000000030000000000000000500000400481838                 4~NF~150572              V1        
1481940    2023041120230411AP        Técni325                 2      03             15230000155700000VERIFICAR RANGIDO NO VEICULO.                                                                                                                                                                                                                                                                                                                                                                                                                                                                                       0000000000000000500000000000000000020000000000000000480000000000000000000000000000000000000000000000000008070000000000000000000000000000000000000000400481940                                          V1        
1481943    2023041120230506                                   16     STFS           10420000101900000RETORNO DE LAERTE                                                                                                                                                                                                                                                                                                                                                                                                                                                                                                   0000000000000000500000000000000000000000000000000000500000000000000655000000000000000655000000000000000000000000000000000000000000000000000655000000400481943                                          SG        
1482161    2023052620230526AP        Técni287                 2      SER10          09580000095900000VERIFICAR AR- CONDICIONADO                                                                                                                                                                                                                                                                                                                                                                                                                                                                                          0000000000000000600000000000000000000000000000000000600000000000000000500000000000000000500000000000000009680000000000000000030000000000000000500000400482161                 4~NF~150571              V1        
1482193    2023050420230504AP        Técni378                 2      03             16380000163900000VERIFICAR MOTOR NAO ENTRA EM FUNCIONAMENTO.                                                                                                                                                                                                                                                                                                                                                                                                                                                                         0000000000000000500000000000000000000000000000000000500000000000000000000000000000000000000000000000000000990000000000000000000000000000000000000000400482193                                          V1        
1482194    2023041420230414AP        Técni323                 5      M0051          16200000162900000NT 2ª REVISÃO AOS 20.000 KM OU 2 ANOS --- ONIX   2022/2023  ASPIRADO SEM  FILTRO                                                                                                                                                                                                                                                                                                                                                                                                                                    0000000000000001400000000000000000010000000000000001390000000000000150000000000000000150000000000000000022600000000000000000000000000000000150000000400482194                 4~NF~150200              V1        
1482202    2023050220230502ST        MECAN271                 2      OXI10          11510000115400000VERIFICAR VAZAMENTO DE ÁGUA                                                                                                                                                                                                                                                                                                                                                                                                                                                                                         0000000000000000200000000000000000000000000000000000200000000000000000200000000000000000200000000000000000000000000000000000010000000000000000200000400482202                 4~NF~149931              V1        
1482221    2023041520230525                                   2      OXI10          10020000182500000VERIFICAR AR-CONDICIONADO                                                                                                                                                                                                                                                                                                                                                                                                                                                                                           0000000000000000200000000000000000000000000000000000200000000000000000500000000000000000500000000000000000000000000000000000030000000000000000500000400482221                 4~NF~150560              V1        
1482230    2023052620230526AP        TAPEC50                  2      OXI10          16090000161200000OXI PROMOCIONAL                                                                                                                                                                                                                                                                                                                                                                                                                                                                                                     0000000000000000200000000000000000000000000000000000200000000000000001000000000000000001000000000000000004840000000000000000050000000000000001000000400482230                 4~NF~150585              V1        
1482298    2023041820230511AP        Técni323                 2      MEC            09150000170000000VERIFICAR VEICULO SEM EMBREAGEM.                                                                                                                                                                                                                                                                                                                                                                                                                                                                                    0000000000000003000000000000000000050000000000000002950000000000000989000000000000000989000000000000000048420000000000000049450000000000000989000000400482298                 4~NF~150388              V1        
1482423    2023042020230420AP        Técni287                 2      4032750        09330000101800000VERIFICAR VAZAMENTO DO LIQUIDO DO ARRIFECIMENTO                                                                                                                                                                                                                                                                                                                                                                                                                                                                     0000000000000000700000000000000000030000000000000000670000000000000158120000000000000158120000000000000009490000000000000000000000000000000158120000400482423                 4~NF~150340              V2        
1482469    2023042020230420AP        Técni287                 2      8481018*       15220000152400000VERIFICAR BARULHO E TRANCOS NA TRANSMISSÃO NAS RETOMADAS.                                                                                                                                                                                                                                                                                                                                                                                                                                                           0000000000000001800000000000000000000000000000000001800000000000000406600000000000000406600000000000000024400000000000000000000000000000000406600000400482469                 4~NF~149963              V2        
1482481    2023042020230420AP        Técni325                 2      TR011          17070000171000000TROCA DE OLEO.                                                                                                                                                                                                                                                                                                                                                                                                                                                                                                      0000000000000000200000000000000000000000000000000000200000000000000020000000000000000020000000000000000003230000000000000000000000000000000020000000400482481                 4~NF~149980              V1        
1482518    2023052720230527AP        Técni287                 2      SER10          09070000091000000VERIFICAR AR-CONDICIONADO                                                                                                                                                                                                                                                                                                                                                                                                                                                                                           0000000000000000600000000000000000000000000000000000600000000000000000500000000000000000500000000000000009680000000000000000030000000000000000500000400482518                 4~NF~150592              V1        
1482560    2023042520230425AP        Técni287                 2      8481018*       08520000090300000VERIFICAR VEICULO TREPIDANDO NAS RETOMADAS                                                                                                                                                                                                                                                                                                                                                                                                                                                                          0000000000000001800000000000000000010000000000000001790000000000000406600000000000000406600000000000000024400000000000000020330000000000000406600000400482560                 4~NF~149961              V2        
1482577    2023052220230522ST        MECAN271                 2      OXI10          08260000082700000OXI                                                                                                                                                                                                                                                                                                                                                                                                                                                                                                                 0000000000000000200000000000000000000000000000000000200000000000000000200000000000000000200000000000000000000000000000000000010000000000000000200000400482577                 4~NF~150451              V1        
1482583    2023042520230426AP        Técni384                 2      03             12480000131700000REVISAO DE SEMINOVOS                                                                                                                                                                                                                                                                                                                                                                                                                                                                                                0000000000000000500000000000000000080000000000000000420000000000000000000000000000000000000000000000000000900000000000000000000000000000000000000000400482583                                          SN        
1482587    2023042520230503AP        Técni287                 2      03             11370000083300000VERIFICAR BARULHOS NOS FREIOS DIANTEIROS                                                                                                                                                                                                                                                                                                                                                                                                                                                                            0000000000000000500000000000000000670000000000000000170000000000000000000000000000000000000000000000000008070000000000000000000000000000000000000000400482587                                          V1        
1482629    2023042620230426AP        Técni34                  2      2040510        08050000083500000VERIFICAR FAROIS QUE ESTA COM O LED ESVERDIADO.                                                                                                                                                                                                                                                                                                                                                                                                                                                                     0000000000000001000000000000000000020000000000000000980000000000000225890000000000000225890000000000000018070000000000000000000000000000000225890000400482629                 4~NF~149918              V2        
1482636    2023042620230426AP        Técni177                 2      4412470        11120000115300000VERIFICAR AR/C QUE NÃO REFRIGERA                                                                                                                                                                                                                                                                                                                                                                                                                                                                                    0000000000000008000000000000000000030000000000000007970000000000001807120000000000001807120000000000000108430000000000000090360000000000001807120000400482636                 4~NF~150324              V2        
1482637    2023042620230426AP        Técni384                 2      03             09150000092800000REVISAO DE SEMINOVOS                                                                                                                                                                                                                                                                                                                                                                                                                                                                                                0000000000000000500000000000000000010000000000000000490000000000000000000000000000000000000000000000000000900000000000000000000000000000000000000000400482637                                          SN        
1482643    2023042620230426ST        MECAN271                 2      03             09400000094100000NT 1ª REVISÃO AOS 10.000 KM OU UM ANO --- ONIX   2022/2023  ASPIRADO SEM FILTRO                                                                                                                                                                                                                                                                                                                                                                                                                                     0000000000000000500000000000000000000000000000000000500000000000000000000000000000000000000000000000000000000000000000000000000000000000000000000000400482643                                          V1        
1482651    2023042620230509AP        Técni384                 2      03             10510000092200000REVISAO DE SEMINOVOS                                                                                                                                                                                                                                                                                                                                                                                                                                                                                                0000000000000000500000000000000000980000000000000000480000000000000000000000000000000000000000000000000000900000000000000000000000000000000000000000400482651                                          SN        
1482659    2023042620230429AP        Técni384                 2      03             13170000090700000RETORNO DE PAMELA                                                                                                                                                                                                                                                                                                                                                                                                                                                                                                   0000000000000000500000000000000000750000000000000000250000000000000000000000000000000000000000000000000002400000000000000000000000000000000000000000400482659                                          SG        
1482683    2023042620230503AP        Técni384                 2      03             15460000100200000RETORNO DE ULISSES                                                                                                                                                                                                                                                                                                                                                                                                                                                                                                  0000000000000000500000000000000000020000000000000000480000000000000000000000000000000000000000000000000002400000000000000000000000000000000000000000400482683                                          SG        
1482686    2023042620230503AP        Técni384                 2      03             16170000101600000RETORNO DE WENDEL                                                                                                                                                                                                                                                                                                                                                                                                                                                                                                   0000000000000000500000000000000000700000000000000000200000000000000000000000000000000000000000000000000002400000000000000000000000000000000000000000400482686                                          SG        
1482699    2023042720230427AP        Técni356                 2      4412470        10370000103900000VERIFICAR  SISTEMA DE AR CONDICIONADO COM BAIXA EFICIÊNCIA.                                                                                                                                                                                                                                                                                                                                                                                                                                                         0000000000000008000000000000000000000000000000000008000000000000001807120000000000001807120000000000000108430000000000000000000000000000001807120000400482699                 4~NF~150436              V2        
1482702    2023042720230427AP        Técni34                  2      M0042          09150000091600000NT 1ª REVISÃO AOS 10.000 KM OU 01 ANO -  SPIN  2022/ 2023  SEM FILTRO                                                                                                                                                                                                                                                                                                                                                                                                                                               0000000000000001000000000000000000000000000000000001000000000000000264370000000000000264370000000000000006320000000000000013220000000000000264370000400482702                 4~NF~149944              V3        
1482710    2023042720230427AP        Técni177                 2      2410370        08590000090600000VERIFICAR VEICULO PUXANDO AO UTILIZAR FREIO                                                                                                                                                                                                                                                                                                                                                                                                                                                                         0000000000000000300000000000000000000000000000000000300000000000000067770000000000000067770000000000000004070000000000000000000000000000000067770000400482710                 4~NF~149991              V2        
1482710    2023042720230427AP        Técni177                 2      6410070        09070000090800000VERIFICAR CHAVE COM ACIONAMENTO INRREGULAR                                                                                                                                                                                                                                                                                                                                                                                                                                                                          0000000000000000400000000000000000000000000000000000400000000000000090360000000000000090360000000000000005420000000000000000000000000000000090360000400482710                 4~NF~149991              V2        
1482711    2023042720230427AP        Técni384                 2      03             08550000100300000RETORNO DE PAMELA                                                                                                                                                                                                                                                                                                                                                                                                                                                                                                   0000000000000000500000000000000000050000000000000000450000000000000000000000000000000000000000000000000002400000000000000000000000000000000000000000400482711                                          SG        
1482712    2023042720230427AP        Técni384                 2      03             10460000120400000RETORNO DE PEDRO                                                                                                                                                                                                                                                                                                                                                                                                                                                                                                    0000000000000000500000000000000000050000000000000000450000000000000000000000000000000000000000000000000002400000000000000000000000000000000000000000400482712                                          SG        
1482715    2023042720230427AP        Técni287                 2      E0203          09550000100300000NT 1ª REVISÃO AOS 10.000 KM OU UM ANO --- ONIX   2022/2023  TURBO SEM FILTRO                                                                                                                                                                                                                                                                                                                                                                                                                                        0000000000000001000000000000000000010000000000000000990000000000000080000000000000000080000000000000000016140000000000000000000000000000000080000000400482715                 4~NF~150390              V1        
1482715    2023042720230427AP        Técni287                 2      E2020          10540000105800000NT 1ª REVISÃO AOS 10.000 KM OU UM ANO --- ONIX   2022/2023  TURBO SEM FILTRO                                                                                                                                                                                                                                                                                                                                                                                                                                        0000000000000001000000000000000000000000000000000001000000000000000080000000000000000080000000000000000016140000000000000000000000000000000080000000400482715                 4~NF~150390              V1        
1482715    2023042720230427AP        Técni287                 5      M0041          11140000111500000NT 1ª REVISÃO AOS 10.000 KM OU UM ANO --- ONIX   2022/2023  TURBO SEM FILTRO                                                                                                                                                                                                                                                                                                                                                                                                                                        0000000000000001900000000000000000000000000000000001900000000000000000000000000000000000000000000000000030670000000000000000000000000000000000000000400482715                 4~NF~150390              V1        
1482718    2023042720230427EQ        INSTA126                 2      1.11           10060000104600000INST: PELICULA ESTETICA                                                                                                                                                                                                                                                                                                                                                                                                                                                                                             0000000000000000010000000000000000030000000000000000020000000000000000000000000000000000000000000000000000200000000000000000000000000000000000000000400482718                                          V9        
1482725    2023042720230427AP        Técni177                 2      MEC            10580000111100000VERIFICAR LUZ DO ABS ACESA                                                                                                                                                                                                                                                                                                                                                                                                                                                                                          0000000000000003000000000000000000010000000000000002990000000000001000000000000000001000000000000000000048420000000000000000000000000000001000000000400482725                 4~NF~150118              V1        
1482726    2023042720230427EQ        INSTA252                 2      1.11           11010000110200000INST.PELICULA DE ESTETICA                                                                                                                                                                                                                                                                                                                                                                                                                                                                                           0000000000000000010000000000000000000000000000000000010000000000000000000000000000000000000000000000000000200000000000000000000000000000000000000000400482726                                          V9        
1482734    2023042720230427AP        Técni287                 5      M0061          12050000121600000NT 3ª REVISÃO AOS 30.000 KM OU 3 ANOS ONIX  JOY 2020/2021                                                                                                                                                                                                                                                                                                                                                                                                                                                           0000000000000001570000000000000000010000000000000001560000000000000421000000000000000210500000000000000025260000000000000000000000000000000210500000400482734                 4~NF~149956              V1        
1482735    2023042720230427AP        Técni177                 2      ML             13400000134100000VERIFICAR BARULHO NA SUSPENSÃO DIANTEIRA                                                                                                                                                                                                                                                                                                                                                                                                                                                                            0000000000000000500000000000000000000000000000000000500000000000000204440000000000000204440000000000000006780000000000000010220000000000000204440000400482735                 4~NF~149994              V2        
1482735    2023042720230427AP        Técni177                 2      7421740        13390000134000000VERIFICAR BARULHO NA SUSPENSÃO DIANTEIRA                                                                                                                                                                                                                                                                                                                                                                                                                                                                            0000000000000001300000000000000000000000000000000001300000000000000293660000000000000293660000000000000017620000000000000014680000000000000293660000400482735                 4~NF~149994              V2        
1482741    2023042720230427AP        Técni323                 2      6440840        14520000160900000VERIFICAR AVISO NO PAINEL DOS CINTOS TRASEIROS.                                                                                                                                                                                                                                                                                                                                                                                                                                                                     0000000000000000600000000000000000050000000000000000550000000000000135530000000000000135530000000000000008130000000000000000000000000000000135530000400482741                 4~NF~149966              V2        
1482745    2023042720230427AP        Técni359                 2      M0042          14520000153900000REVISÃO PROGRAMADA                                                                                                                                                                                                                                                                                                                                                                                                                                                                                                  0000000000000001000000000000000000030000000000000000970000000000000290810000000000000290810000000000000004740000000000000014540000000000000290810000400482745                 4~NF~149943              V3        
1482747    2023042720230427AP        Técni287                 2      4413100        15060000150900000VERIFICAR VAZAMENTO DO LIQUIDO DO ARRIFECIMENTO                                                                                                                                                                                                                                                                                                                                                                                                                                                                     0000000000000000300000000000000000000000000000000000300000000000000067770000000000000060230000000000000004070000000000000000000000000000000060230000400482747                 4~NF~150017              V2        
1482747    2023050420230504AP        Técni287                 2      4041250        08420000084800000VERIFICAR VEICULO QUE NÃO DA PARTIDA                                                                                                                                                                                                                                                                                                                                                                                                                                                                                0000000000000000600000000000000000000000000000000000600000000000000135530000000000000120450000000000000008130000000000000000000000000000000120450000400482747                 4~NF~150017              V2        
1482749    2023042720230505                                   16     STFS           14590000095100000SERVIÇO DE FUNILARIA EXTERNA  FORNECEDOR FABRICIO                                                                                                                                                                                                                                                                                                                                                                                                                                                                   0000000000000000500000000000000000000000000000000000500000000000000750000000000000000750000000000000000000000000000000000000000000000000000750000000400482749                                          SF        
1482756    2023042720230427EQ        INSTA252                 2      1.11           15430000171400000INST.PROTETOR DE CARTER                                                                                                                                                                                                                                                                                                                                                                                                                                                                                             0000000000000000010000000000000000060000000000000000050000000000000000000000000000000000000000000000000000200000000000000000000000000000000000000000400482756                                          V9        
1482760    2023042720230427AP        Técni287                 2      ML             16120000162100000VERIFICAR AR-CONDICIONADO QUE NÃO FUNCIONA                                                                                                                                                                                                                                                                                                                                                                                                                                                                          0000000000000000500000000000000000010000000000000000490000000000000242810000000000000242810000000000000006780000000000000012140000000000000242810000400482760                 4~NF~150021              V2        
1482760    2023042720230427AP        Técni287                 GRL    4417120        16100000161200000VERIFICAR AR-CONDICIONADO QUE NÃO FUNCIONA                                                                                                                                                                                                                                                                                                                                                                                                                                                                          0000000000000001800000000000000000000000000000000001800000000000000406600000000000000406600000000000000024400000000000000020330000000000000406600000400482760                 4~NF~150021              V2        
1482763    2023042720230427AP        Técni323                 2      9103388        16270000164900000 RECALL Grade de Entrada de Ar - IT 036G-17                                                                                                                                                                                                                                                                                                                                                                                                                                                                         0000000000000000300000000000000000020000000000000000280000000000000050000000000000000046510000000000000004070000000000000000000000000000000046510000400482763                 4~NF~149934              V2        
1482767    2023042720230427ST        MECAN271                 2      03             16240000162500000NT 1ª REVISÃO AOS 10.000 KM OU UM ANO --- ONIX   2022/2023  TURBO SEM FILTRO                                                                                                                                                                                                                                                                                                                                                                                                                                        0000000000000000500000000000000000000000000000000000500000000000000000000000000000000000000000000000000000000000000000000000000000000000000000000000400482767                                          D1        
1482780    2023042720230525                                   2      OXI10          16420000182900000VERIFICAR AR-CONDICIONADO                                                                                                                                                                                                                                                                                                                                                                                                                                                                                           0000000000000000200000000000000000000000000000000000200000000000000000500000000000000000500000000000000000000000000000000000030000000000000000500000400482780                 4~NF~150561              V1        
1482787    2023042820230428AP        Técni177                 5      7441760        08230000085700000VERIFICAR DIREÇÃO TREPIDANDO AO REALIZAR MANOBRAS PARA AMBOS LADOS                                                                                                                                                                                                                                                                                                                                                                                                                                                  0000000000000001400000000000000000020000000000000001380000000000000316250000000000000316250000000000000018970000000000000015810000000000000316250000400482787                 4~NF~149917              V2        
1482788    2023042820230428AP        TAPEC50                  2      4485008        08170000082000000- VERIFICAR ODOR INDESEJAVEL AO LIGAR O AR-CONDICIONADO                                                                                                                                                                                                                                                                                                                                                                                                                                                             0000000000000008600000000000000000000000000000000008600000000000001942650000000000001942650000000000000174840000000000000000000000000000001942650000400482788                 4~NF~150323              V2        
1482789    2023042820230502AP        Técni384                 2      03             08200000142200000RETORNO DE PAMELA                                                                                                                                                                                                                                                                                                                                                                                                                                                                                                   0000000000000000500000000000000000200000000000000000300000000000000000000000000000000000000000000000000002400000000000000000000000000000000000000000400482789                                          SG        
1482797    2023042820230428ST        MECAN271                 2      1416740        08470000084900000VERIFICAR BORRACHA DE VEDAÇÃO DA PORTA DIANTEIRA, LADO MOTORISTA                                                                                                                                                                                                                                                                                                                                                                                                                                                    0000000000000000400000000000000000000000000000000000400000000000000090360000000000000090360000000000000000000000000000000000000000000000000090360000400482797                 4~NF~149972              V2        
1482799    2023042820230428AP        Técni384                 2      03             08570000101100000RETORNO DE IAGO                                                                                                                                                                                                                                                                                                                                                                                                                                                                                                     0000000000000000500000000000000000050000000000000000450000000000000000000000000000000000000000000000000002400000000000000000000000000000000000000000400482799                                          SG        
1482801    2023042820230428AP        Técni356                 2      4032750        09160000091800000VERIFICAR VAZAMENTO EM BAIXO DO VEICULO.                                                                                                                                                                                                                                                                                                                                                                                                                                                                            0000000000000000600000000000000000000000000000000000600000000000000135530000000000000135530000000000000008130000000000000000000000000000000135530000400482801                 4~NF~149968              V2        
1482804    2023042820230428AP        Técni365                 2      4412470        10240000102900000VERIFICAR  AR CONDICIONADO COM BAIXA EFICIÊNCIA                                                                                                                                                                                                                                                                                                                                                                                                                                                                     0000000000000008000000000000000000000000000000000008000000000000001807120000000000001807120000000000000108430000000000000000000000000000001807120000400482804                 4~NF~150432              V2        
1482819    2023042820230505                                   16     STFS           14200000095100000SERVIÇO DE FUNILARIA EXTERNA  FORNECEDOR CARLOS HENRIQUE                                                                                                                                                                                                                                                                                                                                                                                                                                                            0000000000000000500000000000000000000000000000000000500000000000000400000000000000000400000000000000000000000000000000000000000000000000000400000000400482819                                          SF        
1482830    2023042820230428ST        MECAN271                 2      4032750        15590000160400000VERIFICAR VAZAMENTO DE ÁGUA                                                                                                                                                                                                                                                                                                                                                                                                                                                                                         0000000000000001200000000000000000000000000000000001200000000000000271070000000000000271070000000000000000000000000000000000000000000000000271070000400482830                 4~NF~149973              V2        
1482831    2023042820230428AP        TAPEC50                  2      4485008        16080000161200000VERIFICAR ODOR AO LIGAR AR-CONDICIONADO]                                                                                                                                                                                                                                                                                                                                                                                                                                                                            0000000000000008600000000000000000000000000000000008600000000000001942650000000000001942650000000000000174840000000000000097130000000000001942650000400482831                 4~NF~150438              V2        
1482837    2023042820230428AP        TAPEC50                  2      8050190        16140000164000000VERIFICAR LUZ DE PRESSÃO DE PNEU.                                                                                                                                                                                                                                                                                                                                                                                                                                                                                   0000000000000000400000000000000000020000000000000000380000000000000090360000000000000090360000000000000008130000000000000000000000000000000090360000400482837                 4~NF~150537              V2        
1482844    2023042820230428AP        Técni323                 2      9103388        16510000171500000RECALL  grade de entrada de ar - IT 036G-17.                                                                                                                                                                                                                                                                                                                                                                                                                                                                        0000000000000000300000000000000000020000000000000000280000000000000050000000000000000046510000000000000004070000000000000000000000000000000046510000400482844                 4~NF~149933              V2        
1482859    2023042920230429ST        MECAN271                 2      MEC            08560000090700000VERIFICAR CORREIA SALTANDO                                                                                                                                                                                                                                                                                                                                                                                                                                                                                          0000000000000003000000000000000000010000000000000002990000000000000050000000000000000046980000000000000000000000000000000000000000000000000046980000400482859                 4~NF~150044              V1        
1482860    2023042920230429AP        Técni359                 5      M0111          08540000090700000NT 8º REVISAO DE 80.000 KM OU 08 ANOS S10 DIESEL 4X4 2017 / 2023                                                                                                                                                                                                                                                                                                                                                                                                                                                    0000000000000002290000000000000000010000000000000002280000000000000616000000000000000616000000000000000036960000000000000000000000000000000616000000400482860                 4~NF~150089              V1        
1482863    2023042920230429AP        TAPEC50                  2      4041250        09160000092000000 VERIFICAR VEICULO NÃ DAR PARTIDA AO SER ACIONAR CHAVE TRANSMISSORA                                                                                                                                                                                                                                                                                                                                                                                                                                                 0000000000000000500000000000000000000000000000000000500000000000000112940000000000000112940000000000000010170000000000000005650000000000000112940000400482863                 4~NF~149967              V2        
1482865    2023042920230429EQ        INSTA126                 2      1.11           092400001000000002 GOLA POLO GG                                                                                                                                                                                                                                                                                                                                                                                                                                                                                                      0000000000000000010000000000000000030000000000000000020000000000000000000000000000000000000000000000000000200000000000000000000000000000000000000000400482865                                          VA        
1482867    2023042920230502AP        Técni365                 2      MEC            09280000101000000SUBSTITUÍÇÃO DO ATUADOR DE EMBREAGEM                                                                                                                                                                                                                                                                                                                                                                                                                                                                                0000000000000003000000000000000000070000000000000002930000000000000400000000000000000400000000000000000048420000000000000000000000000000000400000000400482867                 4~NF~149938              V1        
1482872    2023042920230429AP        Técni384                 2      03             10010000101500000RETORNO DE FABIANO                                                                                                                                                                                                                                                                                                                                                                                                                                                                                                  0000000000000000500000000000000000010000000000000000490000000000000000000000000000000000000000000000000002400000000000000000000000000000000000000000400482872                                          SG        
1482875    2023042920230429ST        MECAN376                 2      03             10150000112600000MANUTENÇÃO DA OFICINA                                                                                                                                                                                                                                                                                                                                                                                                                                                                                               0000000000000000500000000000000000050000000000000000450000000000000000000000000000000000000000000000000000000000000000000000000000000000000000000000400482875                                          I2        
1482876    2023042920230429EQ        INSTA126                 2      1.11           10140000101500000INST:ORGANIZADOR DE CONSOLE                                                                                                                                                                                                                                                                                                                                                                                                                                                                                         0000000000000000010000000000000000000000000000000000010000000000000000000000000000000000000000000000000000200000000000000000000000000000000000000000400482876                                          V9        
