1192380   98550549                1  0000000000000003000000000000000097860000000000005609640000000000000129000000000000000000000000000000000000000000000000000000000000000000000000000000000000000000000000000000001680016500000000000000077200760FV~3 ~000000192380             000000000000186988
1192380   88905845                1  0000000000000001000000000000000011570000000000000027980000000000000015000000000000000000000000000000000000000000000000000000000000000000000000000000000000000000000000000000000000000000000000000000000000000FV~3 ~000000192380             000000000000002798
1192380   25FC0225                1  0000000000000001000000000000000011770000000000000031110000000000000015000000000000000000000000000000000002700180000000000000000000000000000000000000000000000000000000000000000000000000000000000000000000000FV~3 ~000000192380             000000000000003111
1192381   52114729                1  0000000000000001000000000000000052830000000000000113030000000000000065000000000000000000000000000000000000000000000000000000000000000000000000000000000000000000000000000000000000000000000000000000000000000FV~3 ~000000192381             000000000000011303
1192383   52146140                19 0000000000000001000000000000000272240000000000000538010000000000000295000000000000000000000000000000000000000000000000000000000000000000000000000000000000000000000000000000000000000000000000000000000000000FV~3 ~000000192383             000000000000053801
1192385   98550549                19 0000000000000004000000000000000130480000000000007479520000000000000168000000000000000000000000000000000000000000000000000000000000000000000000000000000000000000000000000000002170016500000000000000099800760FV~3 ~000000192385             000000000000186988
1192385   90531677                19 0000000000000001000000000000000057430000000000000165010000000000000090000000000000000000000000000000000000000000000000000000000000000000000000000000000000000000000000000000001250016500000000000000057400760FV~3 ~000000192385             000000000000016501
1192385   88905845                19 0000000000000001000000000000000011570000000000000027980000000000000014000000000000000000000000000000000000000000000000000000000000000000000000000000000000000000000000000000000000000000000000000000000000000FV~3 ~000000192385             000000000000002798
1192385   25FC0225                19 0000000000000001000000000000000011770000000000000031110000000000000014000000000000000000000000000000000002520180000000000000000000000000000000000000000000000000000000000000000000000000000000000000000000000FV~3 ~000000192385             000000000000003111
1192385   93353848                19 0000000000000001000000000000000106980000000000000235030000000000000140000000000000000000000000000000000000000000000000000000000000000000000000000000000000000000000000000000000000000000000000000000000000000FV~3 ~000000192385             000000000000023503
1192385   52102242                19 0000000000000001000000000000000028450000000000000060350000000000000045000000000000000000000000000000000000000000000000000000000000000000000000000000000000000000000000000000000630016500000000000000029000760FV~3 ~000000192385             000000000000006035
1192385   94757663                19 0000000000000001000000000000000040500000000000000121300000000000000049000000000000000000000000000000000000000000000000000000000000000000000000000000000000000000000000000000000620016500000000000000028500760FV~3 ~000000192385             000000000000012130
1192385   95265891                19 0000000000000001000000000000000300850000000000000583510000000000000340000000000000000000000000000000000000000000000000000000000000000000000000000000000000000000000000000000000000000000000000000000000000000FV~3 ~000000192385             000000000000058351
1192386   93383625                19 0000000000000001000000000000000052060000000000000108530000000000000073000000000000000000000000000000000000000000000000000000000000000000000000000000000000000000000000000000000990016500000000000000045500760FV~3 ~000000192386             000000000000010853
1192386   52091613                19 0000000000000001000000000000000054210000000000000111460000000000000068000000000000000000000000000000000000000000000000000000000000000000000000000000000000000000000000000000000000000000000000000000000000000FV~3 ~000000192386             000000000000011146
1192386   88905845                19 0000000000000001000000000000000011570000000000000027980000000000000014000000000000000000000000000000000000000000000000000000000000000000000000000000000000000000000000000000000000000000000000000000000000000FV~3 ~000000192386             000000000000002798
1192387   95493722                1  0000000000000001000000000000000098160000000000000175960000000000000120000000000000000000000000000000000021600180000000000000000000000000000000000000000000000000000000000000000000000000000000000000000000000FV~3 ~000000192387             000000000000017596
1192388   94753743                19 0000000000000001000000000000000286920000000000000635990000000000000360000000000000000000000000000000000000000000000000000000000000000000000000000000000000000000000000000000000000000000000000000000000000000FV~3 ~000000192388             000000000000063599
1192390   AGUA01                  1  0000000000000005000000000000000007210000000000000052000000000000000010000000000000000000000000000000000000000000000000000000000000000000000000000000000000000000000000000000000170016500000000000000007600760FV~3 ~000000192390             000000000000001040
1192390   93383625                1  0000000000000001000000000000000052060000000000000108530000000000000070000000000000000000000000000000000000000000000000000000000000000000000000000000000000000000000000000000000940016500000000000000043200760FV~3 ~000000192390             000000000000010853
1192391   93378430                19 0000000000000001000000000000000512490000000000001219530000000000000709540000000000000000000000000000000000000000000000000000000000000000000000000000000000000000000000000000000000000000000000000000000000000FV~3 ~000000192391             000000000000121953
1192391   93384469                19 0000000000000001000000000000000191610000000000000393650000000000000229030000000000000000000000000000000000000000000000000000000000000000000000000000000000000000000000000000000000000000000000000000000000000FV~3 ~000000192391             000000000000039365
1192391   93376882                19 0000000000000001000000000000000068230000000000000156680000000000000091160000000000000000000000000000000000000000000000000000000000000000000000000000000000000000000000000000001220016500000000000000056100760FV~3 ~000000192391             000000000000015668
1192391   93384470                19 0000000000000001000000000000000191350000000000000393650000000000000229030000000000000000000000000000000000000000000000000000000000000000000000000000000000000000000000000000000000000000000000000000000000000FV~3 ~000000192391             000000000000039365
1192391   02899421                19 0000000000000001000000000000000008460000000000000019730000000000000012630000000000000000000000000000000000000000000000000000000000000000000000000000000000000000000000000000000170016500000000000000008000760FV~3 ~000000192391             000000000000001973
1192391   93260208                19 0000000000000001000000000000000014200000000000000034360000000000000019120000000000000000000000000000000000000000000000000000000000000000000000000000000000000000000000000000000250016500000000000000011600760FV~3 ~000000192391             000000000000003436
1192391   94738259                19 0000000000000001000000000000001034660000000000002463330000000000001433210000000000000000000000000000000000000000000000000000000000000000000000000000000000000000000000000000000000000000000000000000000000000FV~3 ~000000192391             000000000000246333
1192391   93333632                19 0000000000000001000000000000000413410000000000001032440000000000000600690000000000000000000000000000000000000000000000000000000000000000000000000000000000000000000000000000000000000000000000000000000000000FV~3 ~000000192391             000000000000103244
1192392   11030669                1  0000000000000001000000000000000010530000000000000016440000000000000020000000000000000000000000000000000000000000000000000000000000000000000000000000000000000000000000000000000330016500000000000000015200760FV~3 ~000000192392             000000000000001644
1192394   98165412                19 0000000000000001000000000000000237710000000000000658170000000000000330000000000000000000000000000000000000000000000000000000000000000000000000000000000000000000000000000000004310016500000000000000198500760FV~3 ~000000192394             000000000000065817
1192395   93326521                1  0000000000000001000000000000000040350000000000000095700000000000000050000000000000000000000000000000000000000000000000000000000000000000000000000000000000000000000000000000000000000000000000000000000000000FV~3 ~000000192395             000000000000009570
1192397   52085665                1  0000000000000001000000000000000044960000000000000087780000000000000055000000000000000000000000000000000000000000000000000000000000000000000000000000000000000000000000000000000000000000000000000000000000000FV~3 ~000000192397             000000000000008778
1192398   98550812                1  0000000000000004000000000000000151020000000000008814600000000000000200000000000000000000000000000000000000000000000000000000000000000000000000000000000000000000000000000000003300016500000000000000152000760FV~3 ~000000192398             000000000000220365
1192399   24587020                1  0000000000000001000000000000000469270000000000001483200000000000000519760000000000000000240000000000000000000000000000000000000000000000000000000000000000000000000000000000000000000000000000000000000000000FV~3 ~000000192399             000000000000148320
1192399   24587738                1  0000000000000006000000000000000069060000000000000155040000000000000088460000000000000000040000000000000000000000000000000000000000000000000000000000000000000000000000000000001170016500000000000000053800760FV~3 ~000000192399             000000000000002584
1192399   93307462                1  0000000000000024000000000000000431690000000000024851040000000000000491780000000000000000220000000000000000000000000000000000000000000000000000000000000000000000000000000000006110016500000000000000281600760FV~3 ~000000192399             000000000000103546
1192400   98550168                1  0000000000000002000000000000000045410000000000002611120000000000000058000000000000000000000000000000000000000000000000000000000000000000000000000000000000000000000000000000000750016500000000000000034400760FV~3 ~000000192400             000000000000130556
1192400   13583373                1  0000000000000001000000000000000078580000000000000175100000000000000092000000000000000000000000000000000000000000000000000000000000000000000000000000000000000000000000000000001140016500000000000000052600760FV~3 ~000000192400             000000000000017510
1192402   24587738                19 0000000000000010000000000000000115100000000000000258400000000000000139000000000000000000000000000000000000000000000000000000000000000000000000000000000000000000000000000000001810016500000000000000083200760FV~3 ~000000192402             000000000000002584
1192402   93275736                19 0000000000000004000000000000000199590000000000000419410000000000000223600000000000000000000000000000000000000000000000000000000000000000000000000000000000000000000000000000002860016500000000000000131900760FV~3 ~000000192402             000000000000010485
1192402   93326521                19 0000000000000002000000000000000080700000000000000191400000000000000089800000000000000000000000000000000000000000000000000000000000000000000000000000000000000000000000000000000000000000000000000000000000000FV~3 ~000000192402             000000000000009570
1192404   55503721                19 0000000000000001000000000000000197080000000000000383350000000000000283000000000000000000000000000000000000000000000000000000000000000000000000000000000000000000000000000000003860016500000000000000177800760FV~3 ~000000192404             000000000000038335
1192405   93361395                19 0000000000000008000000000000000233290000000000000608240000000000000271200000000000000000000000000000000000000000000000000000000000000000000000000000000000000000000000000000000000000000000000000000000000000FV~3 ~000000192405             000000000000007603
111943    93361395                1  0000000000000002000000000000000058320000000000000152060000000000000080000000000000000000000000000000000000000000000000000000000000000000000000000000000000000000000000000000000000000000000000000000000000000FV~1 ~000000011943             000000000000007603
111944    24587738                1  0000000000000001000000000000000011510000000000000025840000000000000020000000000000000000000000000000000000000000000000000000000000000000000000000000000000000000000000000000000280016500000000000000013000760FV~1 ~000000011944             000000000000002584
1192406   93363296                1  0000000000000004000000000000000048780000000000000140940000000000000060000000000000000000000000000000000000000000000000000000000000000000000000000000000000000000000000000000000000000000000000000000000000000FV~3 ~000000192406             000000000000003524
1192406   24588545                1  0000000000000001000000000000000158290000000000000371380000000000000180000000000000000000000000000000000000000000000000000000000000000000000000000000000000000000000000000000000000000000000000000000000000000FV~3 ~000000192406             000000000000037138
1192409   24581397                1  0000000000000001000000000000000117380000000000000238370000000000000150000000000000000000000000000000000000000000000000000000000000000000000000000000000000000000000000000000000000000000000000000000000000000FV~3 ~000000192409             000000000000023837
1192410   52068673                1  0000000000000001000000000000000316270000000000000604260000000000000450000000000000000000000000000000000000000000000000000000000000000000000000000000000000000000000000000000000000000000000000000000000000000FV~3 ~000000192410             000000000000060426
1192411   42533018                1  0000000000000001000000000000000487570000000000000761130000000000000760520000000000000000000000000000000000000000000000000000000000000000000000000000000000000000000000000000000000000000000000000000000000000FV~3 ~000000192411             000000000000076113
1192412   52084873                1  0000000000000001000000000000000097650000000000000223330000000000000120000000000000000000000000000000000000000000000000000000000000000000000000000000000000000000000000000000000000000000000000000000000000000FV~3 ~000000192412             000000000000022333
1192412   52104976                1  0000000000000001000000000000000416390000000000000965550000000000000500000000000000000000000000000000000000000000000000000000000000000000000000000000000000000000000000000000000000000000000000000000000000000FV~3 ~000000192412             000000000000096555
1192412   52092363                1  0000000000000001000000000000000029670000000000000057230000000000000035000000000000000000000000000000000000000000000000000000000000000000000000000000000000000000000000000000000000000000000000000000000000000FV~3 ~000000192412             000000000000005723
1192413   26345528                1  0000000000000001000000000000000759340000000000001464980000000000000850000000000000000000000000000000000000000000000000000000000000000000000000000000000000000000000000000000000000000000000000000000000000000FV~3 ~000000192413             000000000000146498
1192414   84862894                1  0000000000000001000000000000000472860000000000000957590000000000000500000000000000000000000000000000000000000000000000000000000000000000000000000000000000000000000000000000000000000000000000000000000000000FV~3 ~000000192414             000000000000095759
1192414   52085667                1  0000000000000001000000000000000052620000000000000085370000000000000045000000000000000000000000000000000000000000000000000000000000000000000000000000000000000000000000000000000000000000000000000000000000000FV~3 ~000000192414             000000000000008537
1192414   26356943                1  0000000000000001000000000000001647350000000000002799620000000000001750000000000000000000000000000000000000000000000000000000000000000000000000000000000000000000000000000000000000000000000000000000000000000FV~3 ~000000192414             000000000000279962
1192414   84672896                1  0000000000000001000000000000000172390000000000000297150000000000000190000000000000000000000000000000000000000000000000000000000000000000000000000000000000000000000000000000000000000000000000000000000000000FV~3 ~000000192414             000000000000029715
1192414   94747619                1  0000000000000001000000000000000094970000000000000196870000000000000120000000000000000000000000000000000000000000000000000000000000000000000000000000000000000000000000000000001530016500000000000000070300760FV~3 ~000000192414             000000000000019687
1192415   84158280                1  0000000000000001000000000000000402850000000000000667980000000000000425000000000000000000000000000000000000000000000000000000000000000000000000000000000000000000000000000000000000000000000000000000000000000FV~3 ~000000192415             000000000000066798
1192415   52140150                1  0000000000000001000000000000001270600000000000003294890000000000001797000000000000000000000000000000000000000000000000000000000000000000000000000000000000000000000000000000000000000000000000000000000000000FV~3 ~000000192415             000000000000329489
1192415   52153290                1  0000000000000001000000000000000560810000000000001081940000000000000638000000000000000000000000000000000000000000000000000000000000000000000000000000000000000000000000000000000000000000000000000000000000000FV~3 ~000000192415             000000000000108194
1192419   52150932                1  0000000000000001000000000000001091690000000000002564910000000000001280000000000000000000000000000000000000000000000000000000000000000000000000000000000000000000000000000000000000000000000000000000000000000FV~3 ~000000192419             000000000000256491
1192425   24579467                1  0000000000000001000000000000000238720000000000000484570000000000000280000000000000000000000000000000000000000000000000000000000000000000000000000000000000000000000000000000000000000000000000000000000000000FV~3 ~000000192425             000000000000048457
1192432   MB0W20                  1  0000000000000120000000000000003155110000000000009816000000000000003828000000000000000000000000000000000000000000000000000000000000000000000000000000000000000000000000000000048490016500000000000002233500760FV~3 ~000000192432             000000000000008180
1192432   MB5W40X3PLUS            1  0000000000000192000000000000004658440000000000009603840000000000005673600000000000000000000000000000000000000000000000000000000000000000000000000000000000000000000000000000072040016500000000000003318200760FV~3 ~000000192432             000000000000005002
1192433   52146140                19 0000000000000001000000000000000272240000000000000538010000000000000320000000000000000000000000000000000000000000000000000000000000000000000000000000000000000000000000000000000000000000000000000000000000000FV~3 ~000000192433             000000000000053801
1192433   52146139                19 0000000000000001000000000000000260530000000000000502640000000000000299000000000000000000000000000000000000000000000000000000000000000000000000000000000000000000000000000000000000000000000000000000000000000FV~3 ~000000192433             000000000000050264
1192434   93307462                19 0000000000000048000000000000000863390000000000049702080000000000000988320000000000000000000000000000000000000000000000000000000000000000000000000000000000000000000000000000012310016500000000000000566900760FV~3 ~000000192434             000000000000103546
1192434   98550378                19 0000000000000048000000000000001004300000000000057819360000000000001243200000000000000000000000000000000000000000000000000000000000000000000000000000000000000000000000000000015860016500000000000000730700760FV~3 ~000000192434             000000000000120457
1192436   93307462                19 0000000000000048000000000000000863390000000000049702080000000000000988800000000000000000000000000000000000000000000000000000000000000000000000000000000000000000000000000000012320016500000000000000567300760FV~3 ~000000192436             000000000000103546
1192436   93386267                19 0000000000000001000000000000000308000000000000000205650000000000000343000000000000000000000000000000000061740180000000000000000000000000000000000000000000000000000000000000000000000000000000000000000000000FV~3 ~000000192436             000000000000020565
1192437   93307462                1  0000000000000072000000000000001295080000000000074553120000000000001728000000000000000000000000000000000000000000000000000000000000000000000000000000000000000000000000000000022510016500000000000001036900760FV~3 ~000000192437             000000000000103546
1192442   52073044                1  0000000000000001000000000000000445640000000000000731750000000000000520000000000000000000000000000000000000000000000000000000000000000000000000000000000000000000000000000000000000000000000000000000000000000FV~3 ~000000192442             000000000000073175
1192444   19283185                19 0000000000000001000000000000000181290000000000000303050000000000000215000000000000000000000000000000000000000000000000000000000000000000000000000000000000000000000000000000000000000000000000000000000000000FV~3 ~000000192444             000000000000030305
1192445   MB0W20                  19 0000000000000024000000000000000631020000000000001963200000000000000780000000000000000000000000000000000000000000000000000000000000000000000000000000000000000000000000000000009940016500000000000000457600760FV~3 ~000000192445             000000000000008180
1192445   52146139                19 0000000000000002000000000000000521060000000000001005290000000000000590000000000000000000000000000000000000000000000000000000000000000000000000000000000000000000000000000000000000000000000000000000000000000FV~3 ~000000192445             000000000000050264
1192446   95227628                1  0000000000000002000000000000000204640000000000000682040000000000000400000000000000000000000000000000000000000000000000000000000000000000000000000000000000000000000000000000000000000000000000000000000000000FV~3 ~000000192446             000000000000034102
1192447   MBDEXRONVI              19 0000000000000007000000000000000221680000000000000552650000000000000293300000000000000000000000000000000000000000000000000000000000000000000000000000000000000000000000000000003990016500000000000000183900760FV~3 ~000000192447             000000000000007895
1192449   98165412                1  0000000000000001000000000000000237710000000000000658170000000000000330000000000000000000000000000000000000000000000000000000000000000000000000000000000000000000000000000000004310016500000000000000198500760FV~3 ~000000192449             000000000000065817
1192450   MB20W504T               1  0000000000000024000000000000000463210000000000000497040000000000000576000000000000000000000000000000000000000000000000000000000000000000000000000000000000000000000000000000009500016500000000000000437800760FV~3 ~000000192450             000000000000002071
1192450   93307462                1  0000000000000024000000000000000431690000000000024851040000000000000504000000000000000000000000000000000000000000000000000000000000000000000000000000000000000000000000000000006320016500000000000000290900760FV~3 ~000000192450             000000000000103546
1192451   MBDEXRONVI              19 0000000000000003000000000000000095010000000000000236850000000000000150000000000000000000000000000000000000000000000000000000000000000000000000000000000000000000000000000000002110016500000000000000097300760FV~3 ~000000192451             000000000000007895
1192452   WA23570R16              19 0000000000000002000000000000001170000000000000003043180000000000001340000000000000000000000000000000000000000000000000000000000000000000000000000000000000000000000000000000000000000000000000000000000000000FV~3 ~000000192452             000000000000152159
1192453   EVT90GL4                19 0000000000000024000000000000000341220000000000001173120000000000000446160000000000000000000000000000000000000000000000000000000000000000000000000000000000000000000000000000007360016500000000000000339100760FV~3 ~000000192453             000000000000004888
1192453   EVT20W50                19 0000000000000024000000000000000325070000000000001117680000000000000424800000000000000000000000000000000000000000000000000000000000000000000000000000000000000000000000000000007010016500000000000000322800760FV~3 ~000000192453             000000000000004657
1192453   88904447                19 0000000000000003000000000000000077940000000000000174060000000000000105000000000000000000000000000000000000000000000000000000000000000000000000000000000000000000000000000000001410016500000000000000064700760FV~3 ~000000192453             000000000000005802
1192453   24586650                19 0000000000000006000000000000000137110000000000000304570000000000000179400000000000000000000000000000000000000000000000000000000000000000000000000000000000000000000000000000002390016500000000000000109900760FV~3 ~000000192453             000000000000005076
1192453   24587738                19 0000000000000004000000000000000046040000000000000103360000000000000058000000000000000000000000000000000000000000000000000000000000000000000000000000000000000000000000000000000760016500000000000000035100760FV~3 ~000000192453             000000000000002584
1192454   93307462                19 0000000000000048000000000000000863390000000000049702080000000000001010000000000000000000400000000000000000000000000000000000000000000000000000000000000000000000000000000000012670016500000000000000583400760FV~3 ~000000192454             000000000000103546
1192455   MB3000XE                1  0000000000000006000000000000000167480000000000000310260000000000000216000000000000000000000000000000000000000000000000000000000000000000000000000000000000000000000000000000002780016500000000000000128100760FV~3 ~000000192455             000000000000005171
1192455   12616850                1  0000000000000001000000000000000009920000000000000021320000000000000012000000000000000000000000000000000000000000000000000000000000000000000000000000000000000000000000000000000160016500000000000000007200760FV~3 ~000000192455             000000000000002132
1192455   24590404                1  0000000000000001000000000000000133480000000000000252920000000000000150000000000000000000000000000000000027000180000000000000000000000000000000000000000000000000000000000000000000000000000000000000000000000FV~3 ~000000192455             000000000000025292
1192455   24581174                1  0000000000000001000000000000000134880000000000000283620000000000000160000000000000000000000000000000000000000000000000000000000000000000000000000000000000000000000000000000002000016500000000000000092300760FV~3 ~000000192455             000000000000028362
1192455   52157104                1  0000000000000001000000000000000029420000000000000055940000000000000032000000000000000000000000000000000000000000000000000000000000000000000000000000000000000000000000000000000000000000000000000000000000000FV~3 ~000000192455             000000000000005594
1192456   94765361                19 0000000000000001000000000000000849480000000000001374650000000000001012000000000000000000000000000000000000000000000000000000000000000000000000000000000000000000000000000000000000000000000000000000000000000FV~3 ~000000192456             000000000000137465
1192457   12625215                1  0000000000000001000000000000000178550000000000000644040000000000000270000000000000000000000000000000000000000000000000000000000000000000000000000000000000000000000000000000004460016500000000000000205200760FV~3 ~000000192457             000000000000064404
1192459   20055                   1  0000000000000004000000000000000220900000000000000387640000000000000260000000000000000000000000000000000000000000000000000000000000000000000000000000000000000000000000000000000000000000000000000000000000000FV~3 ~000000192459             000000000000009691
1192459   93230328                1  0000000000000001000000000000000045190000000000000232440000000000000070000000000000000000000000000000000000000000000000000000000000000000000000000000000000000000000000000000000970016500000000000000044700760FV~3 ~000000192459             000000000000023244
1192459   93383625                1  0000000000000002000000000000000104120000000000000217050000000000000132000000000000000000000000000000000000000000000000000000000000000000000000000000000000000000000000000000001740016500000000000000080300760FV~3 ~000000192459             000000000000010853
1192459   24581370                1  0000000000000001000000000000000180750000000000000375730000000000000195000000000000000000000000000000000035100180000000000000000000000000000000000000000000000000000000000000000000000000000000000000000000000FV~3 ~000000192459             000000000000037573
1192459   MB15W40X1               1  0000000000000024000000000000000472980000000000000921840000000000000588000000000000000000000000000000000000000000000000000000000000000000000000000000000000000000000000000000007430016500000000000000342000760FV~3 ~000000192459             000000000000003841
1192459   93275736                1  0000000000000002000000000000000099800000000000000209700000000000000118000000000000000000000000000000000000000000000000000000000000000000000000000000000000000000000000000000001530016500000000000000070700760FV~3 ~000000192459             000000000000010485
1192459   19351403                1  0000000000000002000000000000000158190000000000000289400000000000000190000000000000000000000000000000000000000000000000000000000000000000000000000000000000000000000000000000000000000000000000000000000000000FV~3 ~000000192459             000000000000014470
1192459   103001                  1  0000000000000012000000000000000231060000000000000582600000000000000270000000000000000000000000000000000000000000000000000000000000000000000000000000000000000000000000000000000000000000000000000000000000000FV~3 ~000000192459             000000000000004855
1192460   52139281                1  0000000000000001000000000000000112450000000000000281650000000000000155000000000000000000000000000000000000000000000000000000000000000000000000000000000000000000000000000000000000000000000000000000000000000FV~3 ~000000192460             000000000000028165
1192461   MI20570R15C             19 0000000000000004000000000000001740000000000000005220000000000000002000000000000000000000000000000000000000000000000000000000000000000000000000000000000000000000000000000000000000000000000000000000000000000FV~3 ~000000192461             000000000000130500
1192463   52121126                1  0000000000000001000000000000000595190000000000001634980000000000000870000000000000000000000000000000000000000000000000000000000000000000000000000000000000000000000000000000000000000000000000000000000000000FV~3 ~000000192463             000000000000163498
1192464   MBCVT                   1  0000000000000004000000000000000127990000000000000374560000000000000180000000000000000000000000000000000000000000000000000000000000000000000000000000000000000000000000000000002400016500000000000000110600760FV~3 ~000000192464             000000000000009364
1192465   42779166                1  0000000000000001000000000000000846840000000000001244510000000000000980000000000000000000000000000000000000000000000000000000000000000000000000000000000000000000000000000000000000000000000000000000000000000FV~3 ~000000192465             000000000000124451
1192465   42779168                1  0000000000000001000000000000000734230000000000001079020000000000000800000000000000000000000000000000000000000000000000000000000000000000000000000000000000000000000000000000000000000000000000000000000000000FV~3 ~000000192465             000000000000107902
1192466   52140268                19 0000000000000001000000000000000181080000000000000324190000000000000162100000000000000000000000000000000019450120000000000000000000000000000000000000000000000000000000000000002350016500000000000000108400760FV~3 ~000000192466             000000000000032419
1192466   52154567                19 0000000000000001000000000000000054230000000000000101810000000000000050900000000000000000000000000000000006110120000000000000000000000000000000000000000000000000000000000000000740016500000000000000034000760FV~3 ~000000192466             000000000000010181
1192466   52129682                19 0000000000000001000000000000000162330000000000000315900000000000000157950000000000000000000000000000000000000000000000000000000000000000000000000000000000000000000000000000000000000000000000000000000000000FV~3 ~000000192466             000000000000031590
1192466   52055791                19 0000000000000001000000000000000827340000000000001599090000000000000799550000000000000000000000000000000000000000000000000000000000000000000000000000000000000000000000000000000000000000000000000000000000000FV~3 ~000000192466             000000000000159909
1192471   98553886                19 0000000000000024000000000000000848390000000000004667520000000000001068000000000000000000000000000000000000000000000000000000000000000000000000000000000000000000000000000000013680016500000000000000630000760FV~3 ~000000192471             000000000000019448
1192471   90354858                19 0000000000000004000000000000000171200000000000000482150000000000000199600000000000000000000000000000000000000000000000000000000000000000000000000000000000000000000000000000000000000000000000000000000000000FV~3 ~000000192471             000000000000012054
1192471   93275736                19 0000000000000006000000000000000299390000000000000629110000000000000359400000000000000000000000000000000000000000000000000000000000000000000000000000000000000000000000000000004690016500000000000000216100760FV~3 ~000000192471             000000000000010485
1192471   24586650                19 0000000000000010000000000000000228520000000000000507610000000000000279000000000000000000000000000000000000000000000000000000000000000000000000000000000000000000000000000000003650016500000000000000168000760FV~3 ~000000192471             000000000000005076
1192471   88904447                19 0000000000000005000000000000000129910000000000000290100000000000000164500000000000000000000000000000000000000000000000000000000000000000000000000000000000000000000000000000002170016500000000000000099900760FV~3 ~000000192471             000000000000005802
1192471   93363296                19 0000000000000020000000000000000243900000000000000704720000000000000272000000000000000000000000000000000000000000000000000000000000000000000000000000000000000000000000000000000000000000000000000000000000000FV~3 ~000000192471             000000000000003524
1192472   94768072                19 0000000000000001000000000000000036650000000000000090540000000000000052680000000000000000000000000000000000000000000000000000000000000000000000000000000000000000000000000000000700016500000000000000032100760FV~3 ~000000192472             000000000000009054
1192472   93376881                19 0000000000000001000000000000000254950000000000000633110000000000000368350000000000000000000000000000000000000000000000000000000000000000000000000000000000000000000000000000004880016500000000000000224600760FV~3 ~000000192472             000000000000063311
1192473   52104976                1  0000000000000001000000000000000416390000000000000965550000000000000487160000000000000000000000000000000000000000000000000000000000000000000000000000000000000000000000000000000000000000000000000000000000000FV~3 ~000000192473             000000000000096555
1192473   52147889                1  0000000000000001000000000000001098560000000000003456460000000000001743940000000000000000000000000000000000000000000000000000000000000000000000000000000000000000000000000000000000000000000000000000000000000FV~3 ~000000192473             000000000000345646
1192473   52141403                1  0000000000000001000000000000001074990000000000003473780000000000001752680000000000000000000000000000000000000000000000000000000000000000000000000000000000000000000000000000000000000000000000000000000000000FV~3 ~000000192473             000000000000347378
1192473   52156300                1  0000000000000001000000000000000024630000000000000049680000000000000023980000000000000000000000000000000000000000000000000000000000000000000000000000000000000000000000000000000000000000000000000000000000000FV~3 ~000000192473             000000000000004968
1192474   MBDEXRONVI              1  0000000000000024000000000000000760050000000000001894800000000000001008000000000000000000000000000000000000000000000000000000000000000000000000000000000000000000000000000000013730016500000000000000632200760FV~3 ~000000192474             000000000000007895
1192476   93221087                1  0000000000000001000000000000000037380000000000000092600000000000000050000000000000000000000000000000000000000000000000000000000000000000000000000000000000000000000000000000000830016500000000000000038000760FV~3 ~000000192476             000000000000009260
1192477   MB3000XE                19 0000000000000024000000000000000669900000000000001241040000000000000828000000000000000000000000000000000000000000000000000000000000000000000000000000000000000000000000000000010530016500000000000000485200760FV~3 ~000000192477             000000000000005171
1192477   98550168                19 0000000000000024000000000000000544960000000000031333440000000000000693600000000000000000000000000000000000000000000000000000000000000000000000000000000000000000000000000000008920016500000000000000410900760FV~3 ~000000192477             000000000000130556
1192478   52141408                1  0000000000000001000000000000001221620000000000003476550000000000001500000000000000000000000000000000000000000000000000000000000000000000000000000000000000000000000000000000000000000000000000000000000000000FV~3 ~000000192478             000000000000347655
1192478   52160745                1  0000000000000001000000000000000065080000000000000143550000000000000078000000000000000000000000000000000000000000000000000000000000000000000000000000000000000000000000000000001010016500000000000000046700760FV~3 ~000000192478             000000000000014355
1192478   94747618                1  0000000000000001000000000000000110580000000000000196980000000000000120000000000000000000000000000000000000000000000000000000000000000000000000000000000000000000000000000000001520016500000000000000070200760FV~3 ~000000192478             000000000000019698
1192478   52099031                1  0000000000000001000000000000000183860000000000000320960000000000000220000000000000000000000000000000000000000000000000000000000000000000000000000000000000000000000000000000002880016500000000000000132500760FV~3 ~000000192478             000000000000032096
1192478   52108401                1  0000000000000001000000000000000119500000000000000281140000000000000140000000000000000000000000000000000000000000000000000000000000000000000000000000000000000000000000000000000000000000000000000000000000000FV~3 ~000000192478             000000000000028114
1192479   55515480                1  0000000000000001000000000000000523890000000000001012570000000000000590000000000000000000000000000000000000000000000000000000000000000000000000000000000000000000000000000000000000000000000000000000000000000FV~3 ~000000192479             000000000000101257
1192480   26287384                1  0000000000000001000000000000000182300000000000000380810000000000000225000000000000000000000000000000000000000000000000000000000000000000000000000000000000000000000000000000002960016500000000000000136500760FV~3 ~000000192480             000000000000038081
1192480   55568386                1  0000000000000001000000000000001103830000000000001966250000000000001350000000000000000000000000000000000000000000000000000000000000000000000000000000000000000000000000000000017730016500000000000000816500760FV~3 ~000000192480             000000000000196625
1192487   26425083                19 0000000000000001000000000000000100950000000000000199620000000000000130000000000000000000000000000000000000000000000000000000000000000000000000000000000000000000000000000000000000000000000000000000000000000FV~3 ~000000192487             000000000000019962
1192488   12643582                1  0000000000000001000000000000000232960000000000000407210000000000000260000000000000000000000000000000000000000000000000000000000000000000000000000000000000000000000000000000000000000000000000000000000000000FV~3 ~000000192488             000000000000040721
1192490   MB0W20                  1  0000000000000024000000000000000631020000000000001963200000000000000780000000000000000000000000000000000000000000000000000000000000000000000000000000000000000000000000000000009940016500000000000000457600760FV~3 ~000000192490             000000000000008180
1192491   93221446                1  0000000000000004000000000000000047120000000000000126090000000000000060000000000000000000000000000000000000000000000000000000000000000000000000000000000000000000000000000000000000000000000000000000000000000FV~3 ~000000192491             000000000000003152
1192491   98550813                1  0000000000000001000000000000000072500000000000000143710000000000000130000000000000000000000000000000000000000000000000000000000000000000000000000000000000000000000000000000000000000000000000000000000000000FV~3 ~000000192491             000000000000014371
1192492   AGUA01                  1  0000000000000010000000000000000014430000000000000104000000000000000020000000000000000000000000000000000000000000000000000000000000000000000000000000000000000000000000000000000330016500000000000000015200760FV~3 ~000000192492             000000000000001040
1192493   98550368                19 0000000000000002000000000000001870740000000000002587070000000000002150880000000000000000040000000000000000000000000000000000000000000000000000000000000000000000000000000000000000000000000000000000000000000FV~3 ~000000192493             000000000000129353
1192493   93307462                19 0000000000000048000000000000000863390000000000049702080000000000000983990000000000000000010000000000000000000000000000000000000000000000000000000000000000000000000000000000012240016500000000000000563600760FV~3 ~000000192493             000000000000103546
1192493   EVT20W50                19 0000000000000048000000000000000650130000000000002235360000000000000820790000000000000000010000000000000000000000000000000000000000000000000000000000000000000000000000000000013540016500000000000000623800760FV~3 ~000000192493             000000000000004657
1192493   EVT15W40BB              19 0000000000000001000000000000000279510000000000000961330000000000000352910000000000000000010000000000000000000000000000000000000000000000000000000000000000000000000000000000005820016500000000000000268200760FV~3 ~000000192493             000000000000096133
1192493   EVT68BB                 19 0000000000000001000000000000000183310000000000000749060000000000000231450000000000000000000000000000000000000000000000000000000000000000000000000000000000000000000000000000003820016500000000000000175900760FV~3 ~000000192493             000000000000074906
1192493   A31X105R15              19 0000000000000002000000000000001358000000000000004925260000000000001649980000000000000000020000000000000000000000000000000000000000000000000000000000000000000000000000000000000000000000000000000000000000000FV~3 ~000000192493             000000000000246263
1192494   20055                   1  0000000000000001000000000000000055230000000000000096910000000000000080000000000000000000000000000000000000000000000000000000000000000000000000000000000000000000000000000000000000000000000000000000000000000FV~3 ~000000192494             000000000000009691
1192494   88904447                1  0000000000000001000000000000000025980000000000000058020000000000000050000000000000000000000000000000000000000000000000000000000000000000000000000000000000000000000000000000000720016500000000000000033000760FV~3 ~000000192494             000000000000005802
1192494   19351403                1  0000000000000001000000000000000079100000000000000144700000000000000100000000000000000000000000000000000000000000000000000000000000000000000000000000000000000000000000000000000000000000000000000000000000000FV~3 ~000000192494             000000000000014470
1192497   93344704                1  0000000000000001000000000000000026890000000000000059480000000000000040000000000000000000000000000000000000000000000000000000000000000000000000000000000000000000000000000000000550016500000000000000025200760FV~3 ~000000192497             000000000000005948
1192498   88905845                1  0000000000000001000000000000000011570000000000000027980000000000000015000000000000000000000000000000000000000000000000000000000000000000000000000000000000000000000000000000000000000000000000000000000000000FV~3 ~000000192498             000000000000002798
1192498   88904447                1  0000000000000001000000000000000025980000000000000058020000000000000047000000000000000000000000000000000000000000000000000000000000000000000000000000000000000000000000000000000670016500000000000000030700760FV~3 ~000000192498             000000000000005802
1192498   19351403                1  0000000000000001000000000000000079100000000000000144700000000000000100000000000000000000000000000000000000000000000000000000000000000000000000000000000000000000000000000000000000000000000000000000000000000FV~3 ~000000192498             000000000000014470
1192498   MB0W20                  1  0000000000000004000000000000000105170000000000000327200000000000000148000000000000000000000000000000000000000000000000000000000000000000000000000000000000000000000000000000001950016500000000000000090000760FV~3 ~000000192498             000000000000008180
1192499   52102925                1  0000000000000001000000000000000305310000000000000643830000000000000380000000000000000000000000000000000000000000000000000000000000000000000000000000000000000000000000000000000000000000000000000000000000000FV~3 ~000000192499             000000000000064383
1192500   98550168                1  0000000000000024000000000000000544960000000000031333440000000000000696000000000000000000000000000000000000000000000000000000000000000000000000000000000000000000000000000000008960016500000000000000412800760FV~3 ~000000192500             000000000000130556
1192500   93386267                1  0000000000000001000000000000000308000000000000000205650000000000000360000000000000000000000000000000000064800180000000000000000000000000000000000000000000000000000000000000000000000000000000000000000000000FV~3 ~000000192500             000000000000020565
1192501   28289916                19 0000000000000001000000000000000202140000000000000393360000000000000290000000000000000000000000000000000000000000000000000000000000000000000000000000000000000000000000000000000000000000000000000000000000000FV~3 ~000000192501             000000000000039336
1192502   MB20W504T               1  0000000000000072000000000000001389640000000000001491120000000000001728000000000000000000000000000000000000000000000000000000000000000000000000000000000000000000000000000000028510016500000000000001313300760FV~3 ~000000192502             000000000000002071
1192503   24578500                19 0000000000000001000000000000000308000000000000001040970000000000000420000000000000000000000000000000000075600180000000000000000000000000000000000000000000000000000000000000000000000000000000000000000000000FV~3 ~000000192503             000000000000104097
1192505   IMP5W30                 19 0000000000000024000000000000000418570000000000001325760000000000000468000000000000000000000000000000000000000000000000000000000000000000000000000000000000000000000000000000007720016500000000000000355700760FV~3 ~000000192505             000000000000005524
1192506   94705159                1  0000000000000001000000000000000041510000000000000080100000000000000050000000000000000000000000000000000000000000000000000000000000000000000000000000000000000000000000000000000000000000000000000000000000000FV~3 ~000000192506             000000000000008010
1192506   94705160                1  0000000000000001000000000000000036900000000000000071170000000000000050000000000000000000000000000000000000000000000000000000000000000000000000000000000000000000000000000000000000000000000000000000000000000FV~3 ~000000192506             000000000000007117
1192507   26347611                19 0000000000000001000000000000001140290000000000002580030000000000001520000000000000000000000000000000000000000000000000000000000000000000000000000000000000000000000000000000000000000000000000000000000000000TV~3 ~000000192507             000000000000258003
111945    93383625                1  0000000000000001000000000000000052060000000000000108530000000000000080000000000000000000000000000000000000000000000000000000000000000000000000000000000000000000000000000000001100016500000000000000050800760FV~1 ~000000011945             000000000000010853
111945    93326521                1  0000000000000001000000000000000041070000000000000095700000000000000050000000000000000000000000000000000000000000000000000000000000000000000000000000000000000000000000000000000000000000000000000000000000000FV~1 ~000000011945             000000000000009570
1192508   52140150                1  0000000000000001000000000000001336620000000000003294890000000000001590000000000000000000000000000000000000000000000000000000000000000000000000000000000000000000000000000000000000000000000000000000000000000FV~3 ~000000192508             000000000000329489
1192509   19348434                19 0000000000000002000000000000000150700000000000000238700000000000000167800000000000000000000000000000000000000000000000000000000000000000000000000000000000000000000000000000000000000000000000000000000000000FV~3 ~000000192509             000000000000011935
1192509   93383625                19 0000000000000001000000000000000052060000000000000108530000000000000068000000000000000000000000000000000000000000000000000000000000000000000000000000000000000000000000000000000910016500000000000000041700760FV~3 ~000000192509             000000000000010853
1192509   93307462                19 0000000000000096000000000000001726770000000000099404160000000000001977600000000000000000000000000000000000000000000000000000000000000000000000000000000000000000000000000000024630016500000000000001134500760FV~3 ~000000192509             000000000000103546
1192509   98550378                19 0000000000000024000000000000000502150000000000028909680000000000000621600000000000000000000000000000000000000000000000000000000000000000000000000000000000000000000000000000007930016500000000000000365300760FV~3 ~000000192509             000000000000120457
1192510   52140271                1  0000000000000001000000000000000055270000000000000105520000000000000058000000000000000000000000000000000000000000000000000000000000000000000000000000000000000000000000000000000000000000000000000000000000000FV~3 ~000000192510             000000000000010552
1192510   52140014                1  0000000000000001000000000000000359990000000000000535810000000000000340000000000000000000000000000000000000000000000000000000000000000000000000000000000000000000000000000000000000000000000000000000000000000FV~3 ~000000192510             000000000000053581
1192511   24578210                19 0000000000000001000000000000001057130000000000002074400000000000001245000000000000000000000000000000000000000000000000000000000000000000000000000000000000000000000000000000000000000000000000000000000000000FV~3 ~000000192511             000000000000207440
1192511   24590694                19 0000000000000001000000000000000099100000000000000233590000000000000120000000000000000000000000000000000000000000000000000000000000000000000000000000000000000000000000000000000000000000000000000000000000000FV~3 ~000000192511             000000000000023359
1192511   93349779                19 0000000000000004000000000000000063490000000000000156450000000000000075000000000000000000000000000000000000000000000000000000000000000000000000000000000000000000000000000000000000000000000000000000000000000FV~3 ~000000192511             000000000000003911
1192512   VSSPRINTA4XT            19 0000000000000024000000000000000414230000000000001043280000000000000540000000000000000000000000000000000000000000000000000000000000000000000000000000000000000000000000000000007010016500000000000000323000760FV~3 ~000000192512             000000000000004347
1192513   55511629                19 0000000000000001000000000000000136040000000000000230310000000000000190000000000000000000000000000000000022800120000000000000000000000000000000000000000000000000000000000000000000000000000000000000000000000TV~3 ~000000192513             000000000000023031
1192513   55511627                19 0000000000000001000000000000000105000000000000000152040000000000000162000000000000000000000000000000000019440120000000000000000000000000000000000000000000000000000000000000000000000000000000000000000000000TV~3 ~000000192513             000000000000015204
1192513   1000F                   19 0000000000000001000000000000000000000000000000000000000000000000000040240000000000000000000000000000000000000000000000000000000000000000000000000000000000000000000000000000000000000000000000000000000000000TV~3 ~000000192513             000000000000000000
1192514   WF10295                 1  0000000000000005000000000000000037730000000000000171150000000000000042500000000000000000000000000000000000000000000000000000000000000000000000000000000000000000000000000000000000000000000000000000000000000FV~3 ~000000192514             000000000000003423
1192515   VSSPRINTA4XT            19 0000000000000072000000000000001242680000000000003129840000000000001620000000000000000000000000000000000000000000000000000000000000000000000000000000000000000000000000000000021040016500000000000000969100760FV~3 ~000000192515             000000000000004347
1192516   IMP5W30                 1  0000000000000024000000000000000418570000000000001325760000000000000480000000000000000000000000000000000000000000000000000000000000000000000000000000000000000000000000000000007920016500000000000000364800760FV~3 ~000000192516             000000000000005524
1192517   52156268                19 0000000000000001000000000000000222440000000000000442720000000000000223370000000000000000000000000000000000000000000000000000000000000000000000000000000000000000000000000000000000000000000000000000000000000FV~3 ~000000192517             000000000000044272
1192517   52147811                19 0000000000000001000000000000000642430000000000001756830000000000000886400000000000000000000000000000000000000000000000000000000000000000000000000000000000000000000000000000000000000000000000000000000000000FV~3 ~000000192517             000000000000175683
1192519   55568386                19 0000000000000001000000000000001103830000000000001966250000000000001365000000000000000000000000000000000000000000000000000000000000000000000000000000000000000000000000000000017970016500000000000000827900760FV~3 ~000000192519             000000000000196625
1192519   55575247                19 0000000000000001000000000000000193160000000000000418480000000000000240000000000000000000000000000000000000000000000000000000000000000000000000000000000000000000000000000000003960016500000000000000182400760FV~3 ~000000192519             000000000000041848
1192519   55574864                19 0000000000000001000000000000000319330000000000000707650000000000000395000000000000000000000000000000000000000000000000000000000000000000000000000000000000000000000000000000005510016500000000000000253600760FV~3 ~000000192519             000000000000070765
1192519   55567048                19 0000000000000001000000000000000650010000000000001089660000000000000770000000000000000000000000000000000000000000000000000000000000000000000000000000000000000000000000000000000000000000000000000000000000000FV~3 ~000000192519             000000000000108966
1192519   24436052                19 0000000000000001000000000000000148240000000000000275960000000000000176000000000000000000000000000000000000000000000000000000000000000000000000000000000000000000000000000000000000000000000000000000000000000FV~3 ~000000192519             000000000000027596
1192519   55586911                19 0000000000000004000000000000000201000000000000000427810000000000000232000000000000000000000000000000000000000000000000000000000000000000000000000000000000000000000000000000000000000000000000000000000000000FV~3 ~000000192519             000000000000010695
1192519   24582667                19 0000000000000002000000000000000209000000000000000402530000000000000236000000000000000000000000000000000000000000000000000000000000000000000000000000000000000000000000000000000000000000000000000000000000000FV~3 ~000000192519             000000000000020127
1192520   98550168                19 0000000000000048000000000000001089920000000000062666880000000000001248000000000000000000000000000000000000000000000000000000000000000000000000000000000000000000000000000000015550016500000000000000716100760FV~3 ~000000192520             000000000000130556
1192520   98552923                19 0000000000000048000000000000001908920000000000119790000000000000002251200000000000000000000000000000000000000000000000000000000000000000000000000000000000000000000000000000028070016500000000000001292900760FV~3 ~000000192520             000000000000249563
1192521   52170723                19 0000000000000001000000000000000597450000000000001448170000000000000770000000000000000000000000000000000000000000000000000000000000000000000000000000000000000000000000000000000000000000000000000000000000000FV~3 ~000000192521             000000000000144817
1192521   52092362                19 0000000000000001000000000000000085460000000000000202040000000000000110000000000000000000000000000000000000000000000000000000000000000000000000000000000000000000000000000000000000000000000000000000000000000FV~3 ~000000192521             000000000000020204
1192521   52092357                19 0000000000000001000000000000000459810000000000001081870000000000000570000000000000000000000000000000000000000000000000000000000000000000000000000000000000000000000000000000000000000000000000000000000000000FV~3 ~000000192521             000000000000108187
1192521   52126068                19 0000000000000001000000000000000223890000000000000527350000000000000282000000000000000000000000000000000000000000000000000000000000000000000000000000000000000000000000000000000000000000000000000000000000000FV~3 ~000000192521             000000000000052735
1192521   52085583                19 0000000000000001000000000000000085020000000000000162440000000000000088000000000000000000000000000000000000000000000000000000000000000000000000000000000000000000000000000000000000000000000000000000000000000FV~3 ~000000192521             000000000000016244
1192523   IMP5W30                 19 0000000000000024000000000000000418570000000000001325760000000000000468000000000000000000000000000000000000000000000000000000000000000000000000000000000000000000000000000000007720016500000000000000355700760FV~3 ~000000192523             000000000000005524
1192524   MB20W504T               19 0000000000000024000000000000000463210000000000000497040000000000000588000000000000000000000000000000000000000000000000000000000000000000000000000000000000000000000000000000009700016500000000000000446900760FV~3 ~000000192524             000000000000002071
1192525   84065813                1  0000000000000001000000000000000138970000000000000228190000000000000145000000000000000000000000000000000000000000000000000000000000000000000000000000000000000000000000000000000000000000000000000000000000000FV~3 ~000000192525             000000000000022819
1192525   52099031                1  0000000000000001000000000000000183860000000000000320960000000000000220000000000000000000000000000000000000000000000000000000000000000000000000000000000000000000000000000000002880016500000000000000132500760FV~3 ~000000192525             000000000000032096
1192525   26240656                1  0000000000000001000000000000000339970000000000000657100000000000000365000000000000000000000000000000000000000000000000000000000000000000000000000000000000000000000000000000000000000000000000000000000000000FV~3 ~000000192525             000000000000065710
1192525   94732912                1  0000000000000001000000000000000152220000000000000316810000000000000195000000000000000000000000000000000000000000000000000000000000000000000000000000000000000000000000000000002590016500000000000000119500760FV~3 ~000000192525             000000000000031681
1192525   52150932                1  0000000000000001000000000000001095830000000000002564910000000000001280000000000000000000000000000000000000000000000000000000000000000000000000000000000000000000000000000000000000000000000000000000000000000FV~3 ~000000192525             000000000000256491
1192525   84158280                1  0000000000000001000000000000000402850000000000000667980000000000000425000000000000000000000000000000000000000000000000000000000000000000000000000000000000000000000000000000000000000000000000000000000000000FV~3 ~000000192525             000000000000066798
1192525   94747905                1  0000000000000002000000000000000092980000000000000206250000000000000116000000000000000000000000000000000000000000000000000000000000000000000000000000000000000000000000000000001510016500000000000000069400760FV~3 ~000000192525             000000000000010313
1192525   93376337                1  0000000000000001000000000000001673170000000000003690760000000000001850000000000000000000000000000000000000000000000000000000000000000000000000000000000000000000000000000000000000000000000000000000000000000FV~3 ~000000192525             000000000000369076
1192525   52117538                1  0000000000000001000000000000000297950000000000000565350000000000000350000000000000000000000000000000000000000000000000000000000000000000000000000000000000000000000000000000000000000000000000000000000000000FV~3 ~000000192525             000000000000056535
1192526   KPA00802                19 0000000000000002000000000000001023620000000000001219200000000000001178000000000000000000000000000000000000000000000000000000000000000000000000000000000000000000000000000000000000000000000000000000000000000FV~3 ~000000192526             000000000000060960
1192526   93341731                19 0000000000000001000000000000000070420000000000000143760000000000000090000000000000000000000000000000000016200180000000000000000000000000000000000000000000000000000000000000000000000000000000000000000000000FV~3 ~000000192526             000000000000014376
1192526   MB3000XE                19 0000000000000024000000000000000671730000000000001241040000000000000861600000000000000000000000000000000000000000000000000000000000000000000000000000000000000000000000000000011090016500000000000000510700760FV~3 ~000000192526             000000000000005171
1192527   EVT20W50                1  0000000000000024000000000000000325070000000000001117680000000000000408000000000000000000000000000000000000000000000000000000000000000000000000000000000000000000000000000000006730016500000000000000310100760FV~3 ~000000192527             000000000000004657
1192530   EVT15W40CI4             19 0000000000000024000000000000000334870000000000001151280000000000000420000000000000000000000000000000000000000000000000000000000000000000000000000000000000000000000000000000006930016500000000000000319200760FV~3 ~000000192530             000000000000004797
1192530   EVT15W40BB              19 0000000000000001000000000000000279510000000000000961330000000000000345000000000000000000000000000000000000000000000000000000000000000000000000000000000000000000000000000000005690016500000000000000262200760FV~3 ~000000192530             000000000000096133
111946    26668507                1  0000000000000001000000000000000001230000000000000000000000000000000009000000000000000000000000000000000000000000000000000000000000000000000000000000000000000000000000000000000140016500000000000000006600760FV~1 ~000000011946             000000000000000000
1192539   98552923                1  0000000000000024000000000000000954460000000000059895000000000000001128000000000000000000000000000000000000000000000000000000000000000000000000000000000000000000000000000000014070016500000000000000648200760FV~3 ~000000192539             000000000000249563
1192540   55511629                19 0000000000000001000000000000000136040000000000000230310000000000000190000000000000000000000000000000000022800120000000000000000000000000000000000000000000000000000000000000000000000000000000000000000000000FV~3 ~000000192540             000000000000023031
1192540   55511627                19 0000000000000001000000000000000105000000000000000152040000000000000162000000000000000000000000000000000019440120000000000000000000000000000000000000000000000000000000000000000000000000000000000000000000000FV~3 ~000000192540             000000000000015204
1192540   1000F                   19 0000000000000001000000000000000000000000000000000000000000000000000074550000000000000000000000000000000000000000000000000000000000000000000000000000000000000000000000000000000000000000000000000000000000000FV~3 ~000000192540             000000000000000000
1192542   MBDEXRONVI              1  0000000000000014000000000000000443360000000000001105300000000000000630000000000000000000000000000000000000000000000000000000000000000000000000000000000000000000000000000000008700016500000000000000400700760FV~3 ~000000192542             000000000000007895
1192543   94722018                1  0000000000000001000000000000000385370000000000001067680000000000000425000000000000000000000000000000000000000000000000000000000000000000000000000000000000000000000000000000000000000000000000000000000000000FV~3 ~000000192543             000000000000106768
1192543   94725472                1  0000000000000001000000000000000192370000000000000315870000000000000215000000000000000000000000000000000000000000000000000000000000000000000000000000000000000000000000000000000000000000000000000000000000000FV~3 ~000000192543             000000000000031587
1192544   55511851                19 0000000000000001000000000000000010180000000000000018230000000000000012000000000000000000000000000000000000000000000000000000000000000000000000000000000000000000000000000000000000000000000000000000000000000FV~3 ~000000192544             000000000000001823
1192544   55510171                19 0000000000000001000000000000000012690000000000000027630000000000000016000000000000000000000000000000000000000000000000000000000000000000000000000000000000000000000000000000000000000000000000000000000000000FV~3 ~000000192544             000000000000002763
1192544   52084875                19 0000000000000001000000000000000017490000000000000038510000000000000022000000000000000000000000000000000000000000000000000000000000000000000000000000000000000000000000000000000000000000000000000000000000000FV~3 ~000000192544             000000000000003851
1192545   52145567                1  0000000000000001000000000000000959370000000000002257190000000000001138850000000000000000000000000000000000000000000000000000000000000000000000000000000000000000000000000000000000000000000000000000000000000FV~3 ~000000192545             000000000000225719
1192546   IMP5W40                 19 0000000000000024000000000000000428340000000000001227120000000000000420000000000000000000000000000000000000000000000000000000000000000000000000000000000000000000000000000000006930016500000000000000319200760FV~3 ~000000192546             000000000000005113
1192546   MB0W20                  19 0000000000000024000000000000000631020000000000001963200000000000000768000000000000000000000000000000000000000000000000000000000000000000000000000000000000000000000000000000009740016500000000000000448500760FV~3 ~000000192546             000000000000008180
1192549   24586650                1  0000000000000001000000000000000022850000000000000050760000000000000028500000000000000000000000000000000000000000000000000000000000000000000000000000000000000000000000000000000370016500000000000000017300760FV~3 ~000000192549             000000000000005076
1192549   1215JB                  1  0000000000000001000000000000000021600000000000000062320000000000000026500000000000000000000000000000000000000000000000000000000000000000000000000000000000000000000000000000000440016500000000000000020100760FV~3 ~000000192549             000000000000006232
1192550   26251920                19 0000000000000001000000000000000290000000000000000413130000000000000420000000000000000000000000000000000000000000000000000000000000000000000000000000000000000000000000000000000000000000000000000000000000000TV~3 ~000000192550             000000000000041313
1192551   93298712                19 0000000000000001000000000000000151940000000000000327100000000000000168000000000000000000000000000000000000000000000000000000000000000000000000000000000000000000000000000000000000000000000000000000000000000FV~3 ~000000192551             000000000000032710
1192551   93307462                19 0000000000000024000000000000000431690000000000024851040000000000000494400000000000000000000000000000000000000000000000000000000000000000000000000000000000000000000000000000006160016500000000000000283600760FV~3 ~000000192551             000000000000103546
1192551   93221445                19 0000000000000002000000000000000155780000000000000437250000000000000192000000000000000000000000000000000000000000000000000000000000000000000000000000000000000000000000000000002530016500000000000000116400760FV~3 ~000000192551             000000000000021863
1192551   52082243                19 0000000000000001000000000000000067280000000000000204340000000000000080000000000000000000000000000000000000000000000000000000000000000000000000000000000000000000000000000000000000000000000000000000000000000FV~3 ~000000192551             000000000000020434
1192551   52082244                19 0000000000000001000000000000000099260000000000000215940000000000000110300000000000000000000000000000000000000000000000000000000000000000000000000000000000000000000000000000000000000000000000000000000000000FV~3 ~000000192551             000000000000021594
1192551   93365303                19 0000000000000001000000000000000103470000000000000204200000000000000115000000000000000000000000000000000020700180000000000000000000000000000000000000000000000000000000000000000000000000000000000000000000000FV~3 ~000000192551             000000000000020420
1192551   93264739                19 0000000000000010000000000000000069820000000000000142490000000000000083000000000000000000000000000000000000000000000000000000000000000000000000000000000000000000000000000000000000000000000000000000000000000FV~3 ~000000192551             000000000000001425
1192552   52137554                1  0000000000000001000000000000000116930000000000000226010000000000000160000000000000000000000000000000000000000000000000000000000000000000000000000000000000000000000000000000000000000000000000000000000000000FV~3 ~000000192552             000000000000022601
1192553   98550168                19 0000000000000048000000000000001089920000000000062666880000000000001272000000000000000000000000000000000000000000000000000000000000000000000000000000000000000000000000000000015940016500000000000000734300760FV~3 ~000000192553             000000000000130556
1192554   19351403                1  0000000000000001000000000000000079100000000000000144700000000000000100000000000000000000000000000000000000000000000000000000000000000000000000000000000000000000000000000000000000000000000000000000000000000FV~3 ~000000192554             000000000000014470
1192555   FFADOT4                 1  0000000000000024000000000000000450690000000000000618240000000000000552000000000000000000000000000000000000000000000000000000000000000000000000000000000000000000000000000000006890016500000000000000317600760FV~3 ~000000192555             000000000000002576
1192555   93307462                1  0000000000000024000000000000000431690000000000024851040000000000000492000000000000000000000000000000000000000000000000000000000000000000000000000000000000000000000000000000006120016500000000000000281800760FV~3 ~000000192555             000000000000103546
1192556   52046839                1  0000000000000001000000000000000070810000000000000160690000000000000100000000000000000000000000000000000000000000000000000000000000000000000000000000000000000000000000000000000000000000000000000000000000000FV~3 ~000000192556             000000000000016069
1192556   52137557                1  0000000000000001000000000000000096810000000000000284220000000000000130000000000000000000000000000000000000000000000000000000000000000000000000000000000000000000000000000000000000000000000000000000000000000FV~3 ~000000192556             000000000000028422
1192561   93363296                19 0000000000000004000000000000000048780000000000000140940000000000000060000000000000000000000000000000000000000000000000000000000000000000000000000000000000000000000000000000000000000000000000000000000000000FV~3 ~000000192561             000000000000003524
1192562   98550368                19 0000000000000006000000000000005612210000000000007761200000000000005910000000000000000000000000000000000000000000000000000000000000000000000000000000000000000000000000000000000000000000000000000000000000000FV~3 ~000000192562             000000000000129353
1192566   88905845                19 0000000000000001000000000000000011570000000000000027980000000000000013000000000000000000000000000000000000000000000000000000000000000000000000000000000000000000000000000000000000000000000000000000000000000FV~3 ~000000192566             000000000000002798
1192566   98550168                19 0000000000000004000000000000000090830000000000005222240000000000000116000000000000000000000000000000000000000000000000000000000000000000000000000000000000000000000000000000001490016500000000000000068800760FV~3 ~000000192566             000000000000130556
111947    94733018                1  0000000000000002000000000000000032780000000000000067300000000000000038000000000000000000000000000000000000000000000000000000000000000000000000000000000000000000000000000000000000000000000000000000000000000FV~1 ~000000011947             000000000000003365
1192567   26347611                19 0000000000000001000000000000001140290000000000002580030000000000001520000000000000000000000000000000000000000000000000000000000000000000000000000000000000000000000000000000000000000000000000000000000000000FV~3 ~000000192567             000000000000258003
1192568   26699865                19 0000000000000001000000000000000017850000000000000042040000000000000021000000000000000000000000000000000000000000000000000000000000000000000000000000000000000000000000000000000270016500000000000000012300760FV~3 ~000000192568             000000000000004204
1192568   26307960                19 0000000000000001000000000000001236110000000000002403090000000000001310000000000000000000000000000000000000000000000000000000000000000000000000000000000000000000000000000000000000000000000000000000000000000FV~3 ~000000192568             000000000000240309
1192569   24586650                1  0000000000000002000000000000000045700000000000000101520000000000000058000000000000000000000000000000000000000000000000000000000000000000000000000000000000000000000000000000000770016500000000000000035300760FV~3 ~000000192569             000000000000005076
1192570   24582667                19 0000000000000003000000000000000313500000000000000603800000000000000354000000000000000000000000000000000000000000000000000000000000000000000000000000000000000000000000000000000000000000000000000000000000000FV~3 ~000000192570             000000000000020127
1192571   52102775                1  0000000000000001000000000000000055580000000000000127620000000000000070000000000000000000000000000000000000000000000000000000000000000000000000000000000000000000000000000000000000000000000000000000000000000FV~3 ~000000192571             000000000000012762
1192572   93326521                1  0000000000000001000000000000000041070000000000000095700000000000000050000000000000000000000000000000000000000000000000000000000000000000000000000000000000000000000000000000000000000000000000000000000000000FV~3 ~000000192572             000000000000009570
1192573   MB3000XE                1  0000000000000001000000000000000027990000000000000051710000000000000038000000000000000000000000000000000000000000000000000000000000000000000000000000000000000000000000000000000500016500000000000000022900760FV~3 ~000000192573             000000000000005171
1192574   52103878                1  0000000000000001000000000000000164770000000000000374000000000000000200000000000000000000000000000000000000000000000000000000000000000000000000000000000000000000000000000000000000000000000000000000000000000FV~3 ~000000192574             000000000000037400
1192575   P22570R16PIRELLI        19 0000000000000002000000000000002273330000000000002705040000000000003080000000000000000000000000000000000000000000000000000000000000000000000000000000000000000000000000000000000000000000000000000000000000000FV~3 ~000000192575             000000000000135252
1192576   94771553                19 0000000000000002000000000000000103990000000000000224600000000000000146000000000000000000000000000000000000000000000000000000000000000000000000000000000000000000000000000000001980016500000000000000091300760FV~3 ~000000192576             000000000000011230
1192576   94771554                19 0000000000000002000000000000000499100000000000000947670000000000000750000000000000000000000000000000000000000000000000000000000000000000000000000000000000000000000000000000010180016500000000000000468700760FV~3 ~000000192576             000000000000047384
1192576   94771555                19 0000000000000002000000000000000103290000000000000215490000000000000144000000000000000000000000000000000000000000000000000000000000000000000000000000000000000000000000000000001950016500000000000000089900760FV~3 ~000000192576             000000000000010775
1192576   26064029                19 0000000000000001000000000000000040160000000000000090090000000000000060000000000000000000000000000000000000000000000000000000000000000000000000000000000000000000000000000000000830016500000000000000038000760FV~3 ~000000192576             000000000000009009
1192576   94771552                19 0000000000000002000000000000000157850000000000000392190000000000000178000000000000000000000000000000000000000000000000000000000000000000000000000000000000000000000000000000002190016500000000000000100800760FV~3 ~000000192576             000000000000019610
1192576   26333049                19 0000000000000006000000000000000615390000000000001228850000000000000683940000000000000000000000000000000000000000000000000000000000000000000000000000000000000000000000000000000000000000000000000000000000000FV~3 ~000000192576             000000000000020481
1192576   25824250                19 0000000000000002000000000000000389260000000000000612790000000000000614000000000000000000000000000000000000000000000000000000000000000000000000000000000000000000000000000000010130016500000000000000466600760FV~3 ~000000192576             000000000000030639
1192576   25824252                19 0000000000000001000000000000000086970000000000000208380000000000000130000000000000000000000000000000000000000000000000000000000000000000000000000000000000000000000000000000001730016500000000000000079800760FV~3 ~000000192576             000000000000020838
1192577   52048247                1  0000000000000001000000000000000012440000000000000025130000000000000020000000000000000000000000000000000000000000000000000000000000000000000000000000000000000000000000000000000000000000000000000000000000000FV~3 ~000000192577             000000000000002513
1192577   52156300                1  0000000000000001000000000000000026500000000000000049680000000000000030000000000000000000000000000000000000000000000000000000000000000000000000000000000000000000000000000000000000000000000000000000000000000FV~3 ~000000192577             000000000000004968
1192578   52140150                19 0000000000000001000000000000001336620000000000003294890000000000001797000000000000000000000000000000000000000000000000000000000000000000000000000000000000000000000000000000000000000000000000000000000000000FV~3 ~000000192578             000000000000329489
1192578   52104977                19 0000000000000001000000000000000408600000000000000971170000000000000529000000000000000000000000000000000000000000000000000000000000000000000000000000000000000000000000000000000000000000000000000000000000000FV~3 ~000000192578             000000000000097117
1192578   52084873                19 0000000000000001000000000000000097650000000000000223330000000000000121000000000000000000000000000000000000000000000000000000000000000000000000000000000000000000000000000000000000000000000000000000000000000FV~3 ~000000192578             000000000000022333
1192578   52161033                19 0000000000000001000000000000000658650000000000001292590000000000000705000000000000000000000000000000000000000000000000000000000000000000000000000000000000000000000000000000000000000000000000000000000000000FV~3 ~000000192578             000000000000129259
1192578   52142398                19 0000000000000001000000000000001519200000000000002911510000000000001985000000000000000000000000000000000000000000000000000000000000000000000000000000000000000000000000000000000000000000000000000000000000000FV~3 ~000000192578             000000000000291151
1192578   52142399                19 0000000000000001000000000000001548070000000000003030850000000000002066000000000000000000000000000000000000000000000000000000000000000000000000000000000000000000000000000000000000000000000000000000000000000FV~3 ~000000192578             000000000000303085
1192578   52092362                19 0000000000000001000000000000000085460000000000000202040000000000000110000000000000000000000000000000000000000000000000000000000000000000000000000000000000000000000000000000000000000000000000000000000000000FV~3 ~000000192578             000000000000020204
1192578   52092359                19 0000000000000001000000000000000141490000000000000333700000000000000182000000000000000000000000000000000000000000000000000000000000000000000000000000000000000000000000000000000000000000000000000000000000000FV~3 ~000000192578             000000000000033370
1192578   52157114                19 0000000000000001000000000000000108600000000000000160100000000000000109000000000000000000000000000000000000000000000000000000000000000000000000000000000000000000000000000000001350016500000000000000062400760FV~3 ~000000192578             000000000000016010
1192578   52126069                19 0000000000000001000000000000000141830000000000000333700000000000000182000000000000000000000000000000000000000000000000000000000000000000000000000000000000000000000000000000000000000000000000000000000000000FV~3 ~000000192578             000000000000033370
1192578   52085587                19 0000000000000001000000000000000061230000000000000116410000000000000063000000000000000000000000000000000000000000000000000000000000000000000000000000000000000000000000000000000000000000000000000000000000000FV~3 ~000000192578             000000000000011641
1192578   52141669                19 0000000000000001000000000000000387290000000000000966680000000000000527000000000000000000000000000000000000000000000000000000000000000000000000000000000000000000000000000000000000000000000000000000000000000FV~3 ~000000192578             000000000000096668
1192578   52083727                19 0000000000000001000000000000000615900000000000001620200000000000000750000000000000000000000000000000000000000000000000000000000000000000000000000000000000000000000000000000009720016500000000000000447500760FV~3 ~000000192578             000000000000162020
1192578   52146733                19 0000000000000001000000000000000315740000000000000531540000000000000289000000000000000000000000000000000000000000000000000000000000000000000000000000000000000000000000000000004770016500000000000000219600760FV~3 ~000000192578             000000000000053154
1192578   52162588                19 0000000000000001000000000000000490930000000000000956630000000000000520000000000000000000000000000000000000000000000000000000000000000000000000000000000000000000000000000000000000000000000000000000000000000FV~3 ~000000192578             000000000000095663
1192578   90501087                19 0000000000000001000000000000000021290000000000000033730000000000000017000000000000000000000000000000000000000000000000000000000000000000000000000000000000000000000000000000000280016500000000000000012900760FV~3 ~000000192578             000000000000003373
1192578   52134304                19 0000000000000001000000000000000055880000000000000132680000000000000072000000000000000000000000000000000000000000000000000000000000000000000000000000000000000000000000000000000000000000000000000000000000000FV~3 ~000000192578             000000000000013268
1192578   52133818                19 0000000000000001000000000000000499580000000000001191930000000000000650000000000000000000000000000000000000000000000000000000000000000000000000000000000000000000000000000000000000000000000000000000000000000FV~3 ~000000192578             000000000000119193
1192578   52133934                19 0000000000000001000000000000000148010000000000000285560000000000000155000000000000000000000000000000000000000000000000000000000000000000000000000000000000000000000000000000000000000000000000000000000000000FV~3 ~000000192578             000000000000028556
1192578   52133933                19 0000000000000001000000000000000166510000000000000321250000000000000175000000000000000000000000000000000000000000000000000000000000000000000000000000000000000000000000000000000000000000000000000000000000000FV~3 ~000000192578             000000000000032125
1192578   52129296                19 0000000000000001000000000000000838470000000000001711020000000000000850000000000000000000000000000000000000000000000000000000000000000000000000000000000000000000000000000000000000000000000000000000000000000FV~3 ~000000192578             000000000000171102
1192579   09598708                19 0000000000000005000000000000000053530000000000000098450000000000000067500000000000000000000000000000000000000000000000000000000000000000000000000000000000000000000000000000000870016500000000000000039900760FV~3 ~000000192579             000000000000001969
1192579   MB3000XE                19 0000000000000024000000000000000671730000000000001241040000000000000837600000000000000000000000000000000000000000000000000000000000000000000000000000000000000000000000000000010690016500000000000000492500760FV~3 ~000000192579             000000000000005171
1192579   19314697                19 0000000000000004000000000000000181850000000000000477490000000000000204000000000000000000000000000000000000000000000000000000000000000000000000000000000000000000000000000000000000000000000000000000000000000FV~3 ~000000192579             000000000000011937
1192579   IMP5W40                 19 0000000000000048000000000000000856680000000000002454240000000000000859200000000000000000000000000000000000000000000000000000000000000000000000000000000000000000000000000000014180016500000000000000653000760FV~3 ~000000192579             000000000000005113
1192583   94747899                19 0000000000000001000000000000000032480000000000000072590000000000000036290000000000000000000000000000000004350120000000000000000000000000000000000000000000000000000000000000000530016500000000000000024300760FV~3 ~000000192583             000000000000007259
1192587   28289916                1  0000000000000001000000000000000202140000000000000393360000000000000290000000000000000000000000000000000000000000000000000000000000000000000000000000000000000000000000000000000000000000000000000000000000000FV~3 ~000000192587             000000000000039336
1192589   12674112                1  0000000000000004000000000000000373710000000000000612440000000000000410000000000000000000000000000000000000000000000000000000000000000000000000000000000000000000000000000000000000000000000000000000000000000FV~3 ~000000192589             000000000000015311
1192589   98550378                1  0000000000000003000000000000000062770000000000003613710000000000000084000000000000000000000000000000000000000000000000000000000000000000000000000000000000000000000000000000001100016500000000000000050500760FV~3 ~000000192589             000000000000120457
1192590   95476404                1  0000000000000001000000000000003955280000000000009146560000000000005000000000000000000000000000000000000000000000000000000000000000000000000000000000000000000000000000000000000000000000000000000000000000000FV~3 ~000000192590             000000000000914656
1192591   MB20W504T               19 0000000000000120000000000000002316070000000000002485200000000000002820000000000000000000000000000000000000000000000000000000000000000000000000000000000000000000000000000000046530016500000000000002143200760FV~3 ~000000192591             000000000000002071
1192593   G19575R16               19 0000000000000002000000000000001568000000000000004775440000000000001760000000000000000000000000000000000000000000000000000000000000000000000000000000000000000000000000000000000000000000000000000000000000000FV~3 ~000000192593             000000000000238772
1192594   52141449                1  0000000000000001000000000000001359300000000000003605340000000000001700000000000000000000000000000000000000000000000000000000000000000000000000000000000000000000000000000000000000000000000000000000000000000FV~3 ~000000192594             000000000000360534
1192595   N367                    19 0000000000000001000000000000000077200000000000000207040000000000000040000000000000000000000000000000000000000000000000000000000000000000000000000000000000000000000000000000000000000000000000000000000000000FV~3 ~000000192595             000000000000020704
1192595   95227628                19 0000000000000002000000000000000204640000000000000682040000000000000080000000000000000000000000000000000000000000000000000000000000000000000000000000000000000000000000000000000000000000000000000000000000000FV~3 ~000000192595             000000000000034102
1192595   52041047                19 0000000000000002000000000000000070190000000000000203870000000000000030000000000000000000000000000000000000000000000000000000000000000000000000000000000000000000000000000000000000000000000000000000000000000FV~3 ~000000192595             000000000000010194
1192596   52151665                1  0000000000000011000000000000000612840000000000002103750000000000000704000000000000000000000000000000000000000000000000000000000000000000000000000000000000000000000000000000000000000000000000000000000000000FV~3 ~000000192596             000000000000019125
1192596   52100236                1  0000000000000001000000000000000068920000000000000148310000000000000080000000000000000000000000000000000000000000000000000000000000000000000000000000000000000000000000000000000990016500000000000000045800760FV~3 ~000000192596             000000000000014831
1192596   19351403                1  0000000000000005000000000000000395480000000000000723500000000000000475000000000000000000000000000000000000000000000000000000000000000000000000000000000000000000000000000000000000000000000000000000000000000FV~3 ~000000192596             000000000000014470
1192596   93304871                1  0000000000000006000000000000000323140000000000000790020000000000000354000000000000000000000000000000000000000000000000000000000000000000000000000000000000000000000000000000000000000000000000000000000000000FV~3 ~000000192596             000000000000013167
1192599   24579936                19 0000000000000001000000000000000057800000000000000102950000000000000081000000000000000000000000000000000000000000000000000000000000000000000000000000000000000000000000000000001100016500000000000000050600760FV~3 ~000000192599             000000000000010295
1192599   24591057                19 0000000000000001000000000000000241070000000000000500090000000000000284000000000000000000000000000000000000000000000000000000000000000000000000000000000000000000000000000000000000000000000000000000000000000FV~3 ~000000192599             000000000000050009
1192601   90332334                1  0000000000000002000000000000000017150000000000000034590000000000000025000000000000000000000000000000000000000000000000000000000000000000000000000000000000000000000000000000000000000000000000000000000000000FV~3 ~000000192601             000000000000001730
1192602   12616850                19 0000000000000001000000000000000009920000000000000021320000000000000012770000000000000000030000000000000000000000000000000000000000000000000000000000000000000000000000000000000210016500000000000000009700760TV~3 ~000000192602             000000000000002132
1192602   12636838                19 0000000000000001000000000000000066210000000000000142860000000000000078830000000000000000170000000000000000000000000000000000000000000000000000000000000000000000000000000000001300016500000000000000059900760TV~3 ~000000192602             000000000000014286
1192602   98552923X               19 0000000000000001000000000000000112770000000000000275710000000000000239500000000000000000500000000000000000000000000000000000000000000000000000000000000000000000000000000000003950016500000000000000182000760TV~3 ~000000192602             000000000000027571
1192602   52101541                19 0000000000000001000000000000000035560000000000000080110000000000000049900000000000000000100000000000000000000000000000000000000000000000000000000000000000000000000000000000000820016500000000000000037900760TV~3 ~000000192602             000000000000008011
1192603   25936865                19 0000000000000001000000000000000132940000000000000264910000000000000086700000000000000000000000000000000000000000000000000000000000000000000000000000000000000000000000000000000000000000000000000000000000000FV~3 ~000000192603             000000000000026491
1192604   12616850                19 0000000000000001000000000000000009920000000000000021320000000000000013000000000000000000000000000000000000000000000000000000000000000000000000000000000000000000000000000000000210016500000000000000009900760TV~3 ~000000192604             000000000000002132
1192604   12636838                19 0000000000000001000000000000000066210000000000000142860000000000000079000000000000000000000000000000000000000000000000000000000000000000000000000000000000000000000000000000001300016500000000000000060000760TV~3 ~000000192604             000000000000014286
1192604   98552923X               19 0000000000000001000000000000000112770000000000000275710000000000000239000000000000000000000000000000000000000000000000000000000000000000000000000000000000000000000000000000003940016500000000000000181600760TV~3 ~000000192604             000000000000027571
1192604   52101541                19 0000000000000001000000000000000035560000000000000080110000000000000050000000000000000000000000000000000000000000000000000000000000000000000000000000000000000000000000000000000830016500000000000000038000760TV~3 ~000000192604             000000000000008011
1192605   94749539                1  0000000000000001000000000000000119620000000000000268520000000000000140000000000000000000000000000000000000000000000000000000000000000000000000000000000000000000000000000000000000000000000000000000000000000FV~3 ~000000192605             000000000000026852
1192607   95048411                19 0000000000000001000000000000000078840000000000000128460000000000000130000000000000000000000000000000000000000000000000000000000000000000000000000000000000000000000000000000000000000000000000000000000000000FV~3 ~000000192607             000000000000012846
1192607   LA0472                  19 0000000000000001000000000000000024090000000000000025910000000000000030000000000000000000000000000000000000000000000000000000000000000000000000000000000000000000000000000000000410016500000000000000018900760FV~3 ~000000192607             000000000000002591
1192607   98550168                19 0000000000000005000000000000000113530000000000006527800000000000000175000000000000000000000000000000000000000000000000000000000000000000000000000000000000000000000000000000002360016500000000000000108800760FV~3 ~000000192607             000000000000130556
1192607   AGUA01                  19 0000000000000005000000000000000007210000000000000052000000000000000020000000000000000000000000000000000000000000000000000000000000000000000000000000000000000000000000000000000330016500000000000000015200760FV~3 ~000000192607             000000000000001040
1192607   93286309                19 0000000000000001000000000000000053640000000000000139390000000000000063000000000000000000000000000000000000000000000000000000000000000000000000000000000000000000000000000000000820016500000000000000037900760FV~3 ~000000192607             000000000000013939
1192607   19350511                19 0000000000000001000000000000000024860000000000000053710000000000000060000000000000000000000000000000000000000000000000000000000000000000000000000000000000000000000000000000000890016500000000000000040900760FV~3 ~000000192607             000000000000005371
1192607   55594651                19 0000000000000001000000000000000037560000000000000087090000000000000087000000000000000000000000000000000000000000000000000000000000000000000000000000000000000000000000000000001280016500000000000000058900760FV~3 ~000000192607             000000000000008709
1192608   94765361                1  0000000000000001000000000000000849480000000000001374650000000000001200000000000000000000000000000000000000000000000000000000000000000000000000000000000000000000000000000000000000000000000000000000000000000FV~3 ~000000192608             000000000000137465
1192609   A17570R13               19 0000000000000001000000000000000293170000000000000767040000000000000325000000000000000000000000000000000000000000000000000000000000000000000000000000000000000000000000000000000000000000000000000000000000000FV~3 ~000000192609             000000000000076704
1192610   MB5W30D1                1  0000000000000024000000000000000582290000000000001963200000000000000720000000000000000000000000000000000000000000000000000000000000000000000000000000000000000000000000000000009180016500000000000000423000760FV~3 ~000000192610             000000000000008180
1192610   MB3000XE                1  0000000000000024000000000000000671730000000000001241040000000000000840000000000000000000000000000000000000000000000000000000000000000000000000000000000000000000000000000000010730016500000000000000494300760FV~3 ~000000192610             000000000000005171
1192612   93326521                1  0000000000000001000000000000000041070000000000000095700000000000000050000000000000000000000000000000000000000000000000000000000000000000000000000000000000000000000000000000000000000000000000000000000000000FV~3 ~000000192612             000000000000009570
