13895      20230511000043526664081    20147     43474     9BGKT48L0FG19094341 074ERICOR              9   00000014043895                                    1000000000000004928222000000000005100000000000000000000000000000000005100000000000000000000000000000000000051041000000000000000000
14165      20230527000001263404201    20147     23892     9BG148PK0JC40862741 074WALLESKA            9   00000014044165                                    1000000000000019907896000000000017570000000000000000000000000000000017570000000000000000000000000000000000175841000000000000000000
14156      20230526000013471174231    20147     23604     9BG148FK0FC40811541 077DIRETORIAP          9   00000014044156                                    1000000000000009981704000000000009750000000000000000000000000000000009750000000000000000000000000000000000097578000000000000000000
13788      20230503285881450001741    20147     415191    9BG148LA0JC40331841 074DIRETORIAP          9   00000014043788                                    1000000000000010568574000000000011000000000000000000000000000000000011000000000000000000000000000000000000110000000000000000000000
14082      20230522000261422158941    20147     43618     9BGKT48V0JG39274841 074ERICOR              9   00000014044082                                    1000000000000006086476000000000006300000000000000000000000000000000006300000000000000000000000000000000000063050000000000000000000
14038      20230519000058138174251    20147     415184    9BGEB69A0NG19737041 074MATIAS              9   00000027044038                                    1000000000000007951852000000000007999000000000000000000000000000000007999000000000000000000000000000000000080054000000000000000000
13787      20230503000022233404581    20147     415170    8AGBN69S0HR12688141 074DIRETORIAP          9   00000014043787                                    1000000000000006702345000000000006600000000000000000000000000000000006600000000000000000000000000000000000066053000000000000000000
11401433   20230515095814020001001    20        44638     9BG148PK0PC43887541 074GILVANA             999900000000001401433                                 0100000000000027297781000000000000000000000000000000000000000000000028437664000000000000000000000000000000000000000000000000000000
13947      20230515000181241784531    20        44669     9BG148FK0PC43806141 074WALLESKA            4   00000027043947                                    0000000000000024186216000000000022405000000000000000000000000000000022500000000000000000000000000000000000000000000000000000000000
12595481   20230511000300782614491    20070     45190     9BGEB76H0RB10803141 074GILVANA             999900000000002595481                                 0100000000000010945622000000000000000000000000000000000000000000000011741529000000000000000000000000000000000000000000000000000000
14061      20230522000027517684311    20070     44626     9BGEP76B0PB23375441 074ERICOR              4   00000014304061                                    0000000000000017162061000000000016149000000000000000000000000000000016569000000000000000000000000000000000000000000000000000000000
13944      20230515000343247714721    20070     44626     9BGEP76B0PB24392941 074MATIAS              4   00000014303944                                    0000000000000016200203000000000015580000000000000000000000000000000016000000000000000000000000000000000000000000000000000000000000
13980      20230516000048979594381    20070     45206     8AGEP76B0RR10092041 074ERICOR              4   00000014043980                                    0000000000000016343947000000000016315000000000000000000000000000000016400000000000000000000000000000000000000000000000000000000000
14211      20230531000035382894761    20070     45116     8AGEB76H0PR13926641 074ERICOR              4   00000014304211                                    0000000000000012696171000000000012450000000000000000000000000000000012700000000000000000000000000000000000000000000000000000000000
13872      20230509000059120314621    20070     45185     9BGEJ76H0RB10563641 074WALLESKA            4   00000014303872                                    0000000000000014159541000000000014190000000000000000000000000000000014190000000000000000000000000000000000000000000000000000000000
12592653   20230508000727716074681    20070     45202     9BGEP76B0RB10741341 074WALLESKA            999900000000002592653                                 0100000000000012143613000000000000000000000000000000000000000000000013676580000000000000000000000000000000000000000000000000000000
12595757   20230509000042498674471    20070     45202     9BGEP76B0RB10850441 074GILVANA             999900000000002595757                                 0100000000000012745219000000000000000000000000000000000000000000000013676580000000000000000000000000000000000000000000000000000000
13869      20230509000073578124991    20070     45190     9BGEB76H0RB10811741 074AAGUIART08          4   00000014123869                                    0000000000000013052982000000000012905000000000000000000000000000000012990000000000000000000000000000000000000000000000000000000000
14163      20230526000380994034871    20070     45160     8AGEN76H0PR13697541 074WALLESKA            4   00000014304163                                    0000000000000014200215000000000013689000000000000000000000000000000014199000000000000000000000000000000000000000000000000000000000
13934      20230515000031466444011    20070     44633     9BGEN76H0PB24956941 074WALLESKA            4   00000014303934                                    0000000000000014369522000000000013935000000000000000000000000000000014460000000000000000000000000000000000000000000000000000000000
13873      20230510000090127644831    20270     45147     9BGEY43B0PB25375641 074MATIAS              4   00000014043873                                    0000000000000013359876000000000014259000000000000000000000000000000014454000000000000000000000000000000000000000000000000000000000
12600809   20230523273479660001561    20270     45146     9BGEN43B0PB25371841 074WALLESKA            999900000000002600809                                 0100000000000011803728000000000000000000000000000000000000000000000012352345000000000000000000000000000000000000000000000000000000
14020      20230518000093232774521    20270     45147     9BGEY43B0PB25509041 074NATALIAG            4   00000014304020                                    0000000000000013832381000000000014259000000000000000000000000000000014259000000000000000000000000000000000000000000000000000000000
13982      20230517091429850001641    20270     45155     9BGEB43B0PB25094541 074NATALIA-LI          4   00000027673982                                    0000000000000012234210000000000012155000000000000000000000000000000012350000000000000000000000000000000000000000000000000000000000
14091      20230522000050902174321    40321     45173     9BGEN48H0RG12588941 074NATALIAG            4   00000014044091                                    0000000000000010789245000000000010809000000000000000000000000000000010899000000000000000000000000000000000000000000000000000000000
14158526   20230517000043077574161    40321     45195     9BGEN69H0RG11745641 074GILVANA             999900000000004158526                                 0100000000000008287435000000000000000000000000000000000000000000000008697300000000000000000000000000000000000000000000000000000000
14090      20230522000082287564021    40321     44636     9BGEN69H0PG28048341 074WALLESKA            4   00000027044090                                    0000000000000011340406000000000010700000000000000000000000000000000010700000000000000000000000000000000000000000000000000000000000
13843      20230508000504683404911    40321     44619     9BGEB69A0PG27895341 074ERICOR              4   00000027673843                                    0000000000000005194748000000000008375000000000000000000000000000000009000000000000000000000000000000000000000000000000000000000000
14167382   20230531201758470001141    40321     45178     9BGEY69H0RG12601641 074GILVANA             999900000000004167382                                 0100000000000010800947000000000000000000000000000000000000000000000011342050000000000000000000000000000000000000000000000000000000
14156354   20230512000060930224801    40321     45195     9BGEN69H0RG11405641 074WALLESKA            999900000000004156354                                 0100000000000008751300000000000000000000000000000000000000000000000008622300000000000000000000000000000000000000000000000000000000
14154315   20230516000424935794531    40321     44631     9BGEB48A0PG30670441 074GILVANA             999900000000004154315                                 0100000000000006897059000000000000000000000000000000000000000000000007149800000000000000000000000000000000000000000000000000000000
14154031   20230505000067462444071    40321     45195     9BGEN69H0RG11311841 074WALLESKA            999900000000004154031                                 0100000000000008260185000000000000000000000000000000000000000000000008622300000000000000000000000000000000000000000000000000000000
13779      20230503000063061564021    40321     45175     9BGEY48H0RG10769141 074WALLESKA            4   00000027043779                                    0000000000000011002343000000000011289000000000000000000000000000000011289000000000000000000000000000000000000000000000000000000000
14194      20230531000084990954611    40321     44631     9BGEB48A0PG27571141 074ERICOR              4   00000027674194                                    0000000000000009306796000000000008482000000000000000000000000000000009100000000000000000000000000000000000000000000000000000000000
13945      20230515000044658394481    40321     44636     9BGEN69H0PG27553741 074MATIAS              4   00000014303945                                    0000000000000011419657000000000010740000000000000000000000000000000010900000000000000000000000000000000000000000000000000000000000
14081      20230522000396340274151    40321     45141     9BGEB48A0PG26079741 074MATIAS              4   00000014304081                                    0000000000000009162930000000000009040000000000000000000000000000000009200000000000000000000000000000000000000000000000000000000000
13756      20230502000580869354341    40321     45175     9BGEY48H0RG10634041 074WALLESKA            4   00000014303756                                    0000000000000011195575000000000011289000000000000000000000000000000011454000000000000000000000000000000000000000000000000000000000
14035      20230518000055226854251    120333    415161    9BGEN76H0NB10865341 074NATALIAG            9   00000014304035                                    1000000000000011557886000000000011300000000000000000000000000000000011300000000000000000000000000000000000113090000000000000000000
14110      20230524412077880001996    20149     415171    9BD19713HJ335421441 074DIRETORIAP          9   00000014044110                                    1000000000000003877393000000000003800000000000000000000000000000000003800000000000000000000000000000000000038030000000000000000000
14001      20230517000053798894766    20149     415200    9BD358A4NKYJ2452741 074MATIAS              9   00000014044001                                    1000000000000005233325000000000005499000000000000000000000000000000005499000000000000000000000000000000000055034000000000000000000
