1000000000000004LAERTE         4              35             90548                         ANAJ           37             5              7982077447     120334         90385          2023051920230530080018991230000040131751  484660    2              000000010000000019500000000000023198524000000000000000000000000000000                                                                                                                                                                                                                                                                                                                                                                                                                                                                                                                    15                            
1000000000000004FRANCISCO      4              35             91632                         ANAJ           37             5              806483474      120333         91481          2023051520230526080018991230000040131740  484122    2              000000010000000007200000000000007211443000000000000000000000000000000                                                                                                                                                                                                                                                                                                                                                                                                                                                                                                                    15                            
1000000000000004WENDELLD       4              35             91469                         ANAJ           37             5              15090493472    40334          91265          2023051920230525093018991230000040131774  484573    2              000000010000000007500000000000007765725000000000000000000000000000000                                                                                                                                                                                                                                                                                                                                                                                                                                                                                                                    15                            
1000000000000004ANAC           4              35             91473                         ANAJ           37             5              27160378504    120333         91274          2023042720230505110018991230000040131507  482500    2              000000010000000008199000000000007373107000000000000000000000000000000                                                                                                                                                                                                                                                                                                                                                                                                                                                                                                                    15                            
1000000000000004ANAC           4              35             91473                         ANAJ           37             5              27160378504    120333         91274          2023042720230505110018991230000040131507  484179    2              000000010000000008199000000000007373107000000000000000000000000000000                                                                                                                                                                                                                                                                                                                                                                                                                                                                                                                    15                            
1000000000000004NATAN          4              35             91524                         ANAJ           37             5              90410351415    20324          91357          2023051820230529083018991230000040131798  484511    2              000000010000000011000000000000011471991000000000000000000000000000000                                                                                                                                                                                                                                                                                                                                                                                                                                                                                                                    15                            
1000000000000004IAGO           4              35             92018                         ANAJ           37             5              11087337437    20149          91853          2023050520230515080018991230000040131630  483294    2              000000010000000006399000000000006281217000000000000000000000000000000                                                                                                                                                                                                                                                                                                                                                                                                                                                                                                                    15                            
1000000000000004IAGO           4              35             92018                         ANAJ           37             5              11087337437    20149          91853          2023050520230515080018991230000040131630  484278    2              000000010000000006399000000000006281217000000000000000000000000000000                                                                                                                                                                                                                                                                                                                                                                                                                                                                                                                    15                            
1000000000000004PAMELAA        4              35             92113                         ANAJ           37             5              4129389793     120333         91928          2023051220230523090018991230000040131638  483919    2              000000010000000008999000000000008698072000000000000000000000000000000                                                                                                                                                                                                                                                                                                                                                                                                                                                                                                                    15                            
1000000000000004CARLOSL        4              35             91958                         ANAJ           37             5                             120337         91783          2023051520230524080018991230000040131731  484080    2              000000010000000009100000000000008714301000000000000000000000000000000Venda foi cancelada                                                                                                                                                                                                                                                                                                                                                                                                                                                                                                 15                            
1000000000000004CARLOSL        4              35             91958                         ANAJ           37             5                             120337         91783          2023051520230524080018991230000040131731  484082    2              000000010000000009100000000000008714301000000000000000000000000000000Venda foi cancelada                                                                                                                                                                                                                                                                                                                                                                                                                                                                                                 15                            
1000000000000004LAERTE         4              35             91960                         ANAJ           40             5              35763148819    120333         91788          2023051820230529093018991230000040131814  484529    2              000000010000000010000000000000009830387000000000000000000000000000000                                                                                                                                                                                                                                                                                                                                                                                                                                                                                                                    15                            
1000000000000004ANAC           4              35             91963                         ANAJ           37             5              3601983419     120333         91792          2023051020230519100018991230000040131673  483713    2              000000010000000005400000000000004812604000000000000000000000000000000                                                                                                                                                                                                                                                                                                                                                                                                                                                                                                                    15                            
1000000000000004PAMELAA        4              35             92083                         ANAJ           40             5              10615897495    20149          91900          2023052220230531133018991230000040131867  484875    2              000000010000000009000000000000008110253000000000000000000000000000000                                                                                                                                                                                                                                                                                                                                                                                                                                                                                                                    15                            
1000000000000004GERENTE_E      4              35             90751                         ANAJ           37             5              34336207000153 120333         90572          2023050320230519083018991230000040131609  483045    2              000000010000000010500000000000011375245000000000000000000000000000000                                                                                                                                                                                                                                                                                                                                                                                                                                                                                                                    15                            
1000000000000004NATAN          4              35             91295                         ANAJ           37             5              6590941424     40334          91103          2023051220230523080018991230000040131704  483934    2              000000010000000005500000000000005620548000000000000000000000000000000                                                                                                                                                                                                                                                                                                                                                                                                                                                                                                                    15                            
1000000000000004FRANCISCO      4              35             92121                         ANAJ           37             5              5624781407     120333         91939          2023051820230529090018991230000040131832  484528    2              000000010000000008368400000000008136157000000000000000000000000000000                                                                                                                                                                                                                                                                                                                                                                                                                                                                                                                    15                            
1000000000000004PEDROH         4              35             92225                         ANAJ           37             5              10572100485    120333         92037          2023051620230525090018991230000040131769  484240    2              000000010000000007799000000000007268041000000000000000000000000000000                                                                                                                                                                                                                                                                                                                                                                                                                                                                                                                    15                            
1000000000000004PEDROH         4              35             92226                         ANAJ           37             5              56906412       120333         92039          2023051920230530110018991230000040131676  484651    2              000000010000000008013000000000007799017000000000000000000000000000000                                                                                                                                                                                                                                                                                                                                                                                                                                                                                                                    15                            
1000000000000004WENDELLD       4              35             92240                         ANAJ           37             5              6556517488     120333         92061          2023052220230531140018991230000040131883  484906    2              000000010000000010800000000000010020338000000000000000000000000000000                                                                                                                                                                                                                                                                                                                                                                                                                                                                                                                    15                            
1000000000000004ULISSES        4              35             92241                         ANAJ           37             5              87561964404    20148          92063          2023051920230530083018991230000040131829  484644    2              000000010000000008656600000000008298095000000000000000000000000000000                                                                                                                                                                                                                                                                                                                                                                                                                                                                                                                    15                            
1000000000000004NATAN          4              35             91308                         ANAJ           40             5              62916980997    120333         91116          2023051620230525080018991230000040131789  484272    2              000000010000000005500000000000005434464000000000000000000000000000000                                                                                                                                                                                                                                                                                                                                                                                                                                                                                                                    15                            
1000000000000004PAMELAA        4              35             92188                         ANAJ           37             5              2520372435     120333         92014          2023052220230531090018991230000040131764  484876    2              000000010000000009068400000000008666018000000000000000000000000000000                                                                                                                                                                                                                                                                                                                                                                                                                                                                                                                    15                            
1000000000000004NATAN          4              35             92086                         ANAJ           37             5              1312974494     20149          91909          2023051920230530100018991230000040131847  484674    2              000000010000000004200000000000003983472000000000000000000000000000000                                                                                                                                                                                                                                                                                                                                                                                                                                                                                                                    15                            
1000000000000004PAMELAA        4              35             92342                         ANAJ           37             5              3524686451     40334          92180          2023051720230526083018991230000040131811  484422    2              000000010000000009668400000000008904446000000000000000000000000000000                                                                                                                                                                                                                                                                                                                                                                                                                                                                                                                    15                            
1000000000000004PAMELAA        4              35             91956                         ANAJ           40             5              3713373485     120333         91780          2023041720230505133018991230000040131351  483945    2              000000010000000004700000000000004318885000000000000000000000000000000                                                                                                                                                                                                                                                                                                                                                                                                                                                                                                                    15                            
1000000000000004PEDROH         4              35             91218                         ANAJ           37             5              5903052479     120333         91040          2023042920230509090018991230000040131553  482812    2              000000010000000008468200000000008627147000000000000000000000000000000                                                                                                                                                                                                                                                                                                                                                                                                                                                                                                                    15                            
1000000000000004PEDROH         4              35             91218                         ANAJ           37             5              5903052479     120333         91040          2023042920230509090018991230000040131553  484193    2              000000010000000008468200000000008627147000000000000000000000000000000                                                                                                                                                                                                                                                                                                                                                                                                                                                                                                                    15                            
1000000000000004PEDROS         4              35             91641                         ANAJ           37             5              4176041498     20335          91490          2023042420230501080018991230000040131462  482172    2              000000010000000005131500000000004965678000000000000000000000000000000                                                                                                                                                                                                                                                                                                                                                                                                                                                                                                                    15                            
1000000000000004PEDROS         4              35             91641                         ANAJ           37             5              4176041498     20335          91490          2023042420230501080018991230000040131462  483958    2              000000010000000005131500000000004965678000000000000000000000000000000                                                                                                                                                                                                                                                                                                                                                                                                                                                                                                                    15                            
1000000000000004ULISSES        4              35             91928                         ANAJ           37             5              6632152422     120333         91731          2023042920230509100018991230000040131584  482821    2              000000010000000008700000000000008209251000000000000000000000000000000                                                                                                                                                                                                                                                                                                                                                                                                                                                                                                                    15                            
1000000000000004PEDROH         4              35             91939                         ANAJ           37             5              3012546480     120333         91754          2023041920230505080018991230000040131360  481883    2              000000010000000005958163000000005660565000000000000000000000000000000                                                                                                                                                                                                                                                                                                                                                                                                                                                                                                                    15                            
1000000000000004PEDROH         4              35             91939                         ANAJ           37             5              3012546480     120333         91754          2023041920230505080018991230000040131360  483954    2              000000010000000005958163000000005660565000000000000000000000000000000                                                                                                                                                                                                                                                                                                                                                                                                                                                                                                                    15                            
1000000000000004WENDELLD       4              35             92020                         ANAJ           37             5              18838073449    40325          91855          2023042720230506083018991230000040131529  482576    2              000000010000000005700000000000005405427000000000000000000000000000000                                                                                                                                                                                                                                                                                                                                                                                                                                                                                                                    15                            
1000000000000004WENDELLD       4              35             92020                         ANAJ           37             5              18838073449    40325          91855          2023042720230506083018991230000040131529  484178    2              000000010000000005700000000000005405427000000000000000000000000000000                                                                                                                                                                                                                                                                                                                                                                                                                                                                                                                    15                            
1000000000000004ANAC           4              35             92098                         ANAJ           37             5              997500409      40334          91918          2023042220230506103018991230000040131465  482093    2              000000010000000007600000000000007380900000000000000000000000000000000                                                                                                                                                                                                                                                                                                                                                                                                                                                                                                                    15                            
1000000000000004ANAC           4              35             92098                         ANAJ           37             5              997500409      40334          91918          2023042220230506103018991230000040131465  483957    2              000000010000000007600000000000007380900000000000000000000000000000000                                                                                                                                                                                                                                                                                                                                                                                                                                                                                                                    15                            
1000000000000004ANAC           4              35             92043                         ANAJ           37             5              13063618420    120333         91865          2023042620230505103018991230000040131472  482370    2              000000010000000009757300000000009339502000000000000000000000000000000                                                                                                                                                                                                                                                                                                                                                                                                                                                                                                                    15                            
1000000000000004ANAC           4              35             92043                         ANAJ           37             5              13063618420    120333         91865          2023042620230505103018991230000040131472  484177    2              000000010000000009757300000000009339502000000000000000000000000000000                                                                                                                                                                                                                                                                                                                                                                                                                                                                                                                    15                            
1000000000000004PEDROS         4              35             92044                         ANAJ           37             5              1638992584     20149          91866          2023042920230509080018991230000040131591  482824    2              000000010000000007610711000000007430249000000000000000000000000000000                                                                                                                                                                                                                                                                                                                                                                                                                                                                                                                    15                            
1000000000000004PEDROS         4              35             92044                         ANAJ           37             5              1638992584     20149          91866          2023042920230509080018991230000040131591  484190    2              000000010000000007610711000000007430249000000000000000000000000000000                                                                                                                                                                                                                                                                                                                                                                                                                                                                                                                    15                            
1000000000000004PEDROS         4              35             91959                         ANAJ           37             5              85089044449    120333         91785          2023042920230509103018991230000040131451  484191    2              000000010000000006853100000000006321289000000000000000000000000000000                                                                                                                                                                                                                                                                                                                                                                                                                                                                                                                    15                            
1000000000000004ULISSES        4              35             91712                         ANAJ           37             5              1221944460     120333         91572          2023042820230512083018991230000040131454  482632    2              000000010000000008250000000000008043946000000000000000000000000000000                                                                                                                                                                                                                                                                                                                                                                                                                                                                                                                    15                            
1000000000000004ULISSES        4              35             91712                         ANAJ           37             5              1221944460     120333         91572          2023042820230512083018991230000040131454  484188    2              000000010000000008250000000000008043946000000000000000000000000000000                                                                                                                                                                                                                                                                                                                                                                                                                                                                                                                    15                            
1000000000000004PEDROS         4              35             91959                         ANAJ           37             5              85089044449    120333         91785          2023042920230509103018991230000040131451  482818    2              000000010000000006853100000000006321289000000000000000000000000000000                                                                                                                                                                                                                                                                                                                                                                                                                                                                                                                    15                            
1000000000000004GERENTE_E      4              35             90751                         ANAJ           37             5              34336207000153 120333         90572          2023050320230519083018991230000040131609  484277    2              000000010000000010500000000000011375245000000000000000000000000000000                                                                                                                                                                                                                                                                                                                                                                                                                                                                                                                    15                            
1000000000000004WENDELLD       4              35             91825                         ANAJ           37             5              286162008      120333         91668          2023042820230505120018991230000040131536  482725    2              000000010000000010200000000000009872946000000000000000000000000000000                                                                                                                                                                                                                                                                                                                                                                                                                                                                                                                    15                            
1000000000000004WENDELLD       4              35             91825                         ANAJ           37             5              286162008      120333         91668          2023042820230505120018991230000040131536  484182    2              000000010000000010200000000000009872946000000000000000000000000000000                                                                                                                                                                                                                                                                                                                                                                                                                                                                                                                    15                            
1000000000000004PAMELAA        4              35             91956                         ANAJ           40             5              3713373485     120333         91780          2023041720230505133018991230000040131351  481561    2              000000010000000004700000000000004318885000000000000000000000000000000                                                                                                                                                                                                                                                                                                                                                                                                                                                                                                                    15                            
